:020000040800F2
:1000000000000320AD010008350300083903000893
:100010003503000835030008350300080000000020
:100020000000000000000000000000003503000890
:100030003503000800000000350300083503000800
:1000400035030008350300083503000835030008B0
:1000500035030008350300083503000835030008A0
:100060003503000835030008350300083503000890
:100070003503000835030008350300083503000880
:100080003503000835030008350300083503000870
:100090003503000835030008350300083503000860
:1000A0003503000835030008350300083503000850
:1000B0003503000835030008350300083503000840
:1000C0003503000835030008350300083503000830
:1000D0003503000835030008350300083503000820
:1000E0003503000835030008350300083503000810
:1000F0003503000835030008350300083503000800
:1001000035030008350300083503000835030008EF
:1001100035030008350300083503000835030008DF
:1001200035030008350300083503000835030008CF
:1001300035030008350300083503000835030008BF
:1001400035030008350300083503000835030008AF
:10015000350300083503000835030008350300089F
:10016000350300083503000835030008350300088F
:10017000350300083503000835030008350300087F
:10018000350300083503000835030008350300086F
:10019000350300083503000835030008350300085F
:0C01A00035030008350300083503000893
:1001AC0000F0C3F80E480F490022814201D004C070
:1001BC00FBE70D480D490E4A814202D008CA08C01F
:1001CC00FAE70C484FF47001026842EA010202603F
:1001DC00BFF34F8FBFF36F8F00F00EF800DE0000FF
:1001EC000000002000000020000000200000002083
:1001FC003C03000888ED00E080B56F4600F000F885
:10020C0043F6300040F6184CC4F20200C4F2020C63
:10021C0001684FF0A06241F608034FF0FF3541F042
:10022C00080101600168C4F202034FF0AA0E5524C4
:10023C0041F010010160016841F02001016045F2BC
:10024C005551C5F200014CF8181C45F25551C0F23D
:10025C004001CCF8E81341F21801C4F20201C1F8D4
:10026C00E82348F2FF02CCF80020FF220A6045F296
:10027C0055524CF80C2C41F80C2CC1F8F4235A6054
:10028C004FF6FF724CF8102CCCF8F023C1F8F02389
:10029C001A600023026942F00102026124224FF02D
:1002AC008040C4F20002036042F8203C5360956029
:1002BC0042F8183C036843F00103036044F68023C2
:1002CC004FF47F00C0F25D53CCF800000860CCF80E
:1002DC0000E00C6015681668761B9E420BD21668FF
:1002EC00761B9E423EBF1668761B9E4203D2166852
:1002FC00761B9E42EFD30860CCF80000C1F800E0FA
:10030C00CCF8004015681668761B9E42DCD2166845
:10031C00761B9E423EBF1668761B9E42D4D2166850
:10032C00761B9E42EFD3CFE7FEE77047FEE7D4D4AF
:04000005080001AD41
:00000001FF
