:020000040800F2
:1000000000000320AD010008790300088D030008FB
:100010007903000879030008790300080000000054
:10002000000000000000000000000000790300084C
:100030007903000800000000790300087903000834
:1000400079030008790300087903000879030008A0
:100050007903000879030008790300087903000890
:100060007903000879030008790300087903000880
:100070007903000879030008790300087903000870
:100080007903000879030008790300087903000860
:100090007903000879030008790300087903000850
:1000A0007903000879030008790300087903000840
:1000B0007903000879030008790300087903000830
:1000C0007903000879030008790300087903000820
:1000D0007903000879030008790300087903000810
:1000E0007903000879030008790300087903000800
:1000F00079030008790300087903000879030008F0
:1001000079030008790300087903000879030008DF
:1001100079030008790300087903000879030008CF
:1001200079030008790300087903000879030008BF
:1001300079030008790300087903000879030008AF
:10014000790300087903000879030008790300089F
:10015000790300087903000879030008790300088F
:10016000790300087903000879030008790300087F
:10017000790300087903000879030008790300086F
:10018000790300087903000879030008790300085F
:10019000790300087903000879030008790300084F
:0C01A000790300087903000879030008C7
:1001AC0000F0E5F80E480F490022814201D004C04E
:1001BC00FBE70D480D490E4A814202D008CA08C01F
:1001CC00FAE70C484FF47001026842EA010202603F
:1001DC00BFF34F8FBFF36F8F00F00EF800DE0000FF
:1001EC00000000200400002000000020000000207F
:1001FC009C03000888ED00E080B56F4600F000F825
:10020C0080B56F4600F0B9F8044600F0B2F840F241
:10021C000000C2F200000578002D04BF012101701E
:10022C00E00708BF00F0A7F8002D40F0918043F6DE
:10023C003000C4F20200016841F00801016001685D
:10024C0041F01001016040F600400121C4F20200AF
:10025C00D0F8002461F30102C0F80024D0F8002487
:10026C0061F38302C0F80024D0F8002461F3051276
:10027C00C0F80024D0F8002461F38712C0F80024E1
:10028C00D0F8002461F30922C0F80024D0F800242F
:10029C0061F38B22C0F80024D0F8002461F30D32F6
:1002AC00C0F80024D0F8002461F38F32C0F8002489
:1002BC00026861F301020260026861F3830202606A
:1002CC00026861F305120260026861F38712026032
:1002DC00026861F309220260026861F38B220260FA
:1002EC00026861F30D320260026861F38F324FF4E1
:1002FC008031026081614FF4003181614FF48021C3
:10030C0081614FF4002181614FF4801181614FF4C0
:10031C00001181614FF4800181614FF40001816112
:10032C0040F290310020C0F6000102E001300B28B1
:10033C000DD00A56B2F1FF3FF8DCD2B2E02A04D35A
:10034C00F02A2CBF04300330F1E70230EFE7FEE770
:10035C0000F008F880B56F4600F00AF880B56F46DB
:10036C00FFF7F8FF80B56F46FFF7F8FFFEE7704721
:10037C00FEE772B6704762B67047EFF310807047B5
:04038C00FEE7D4D4E0
:0C03900048656C6C6F20576F726C640045
:04000005080001AD41
:00000001FF
