:020000040800F2
:1000000000000320AD010008A33F0008534C000886
:10001000A33F0008A33F0008A33F00080000000022
:10002000000000000000000000000000A33F0008E6
:10003000A33F000800000000A33F0008A33F000802
:10004000A33F0008A33F0008A33F0008A33F000808
:10005000A33F0008A33F0008A33F0008A33F0008F8
:10006000A33F0008A33F0008A33F0008A33F0008E8
:10007000A33F0008A33F0008A33F0008A33F0008D8
:10008000A33F0008A33F0008A33F0008A33F0008C8
:10009000A33F0008A33F0008A33F0008A33F0008B8
:1000A000A33F0008A33F0008A33F0008A33F0008A8
:1000B000A33F0008A33F0008A33F0008A33F000898
:1000C000A33F0008A33F0008A33F0008A33F000888
:1000D000A33F0008A33F0008A33F0008A33F000878
:1000E000A33F0008A33F0008A33F0008A33F000868
:1000F000A33F0008A33F0008A33F0008A33F000858
:10010000A33F0008A33F0008A33F0008A33F000847
:10011000A33F0008A33F0008A33F0008A33F000837
:10012000A33F0008A33F0008A33F0008A33F000827
:10013000A33F0008A33F0008A33F0008A33F000817
:10014000A33F0008A33F0008A33F0008A33F000807
:10015000A33F0008A33F0008A33F0008A33F0008F7
:10016000A33F0008A33F0008A33F0008A33F0008E7
:10017000A33F0008A33F0008A33F0008A33F0008D7
:10018000A33F0008A33F0008A33F0008A33F0008C7
:10019000A33F0008A33F0008A33F0008A33F0008B7
:0C01A000A33F0008A33F0008A33F000895
:1001AC0003F0FAFE0E480F490022814201D004C030
:1001BC00FBE70D480D490E4A814202D008CA08C01F
:1001CC00FAE70C484FF47001026842EA010202603F
:1001DC00BFF34F8FBFF36F8F01F0A1F900DE00006A
:1001EC00000000200400002000000020000000207F
:1001FC00B461000888ED00E000F0010003F0D8BE07
:10020C00084644F6EC41C0F60001052204F0F5B9AD
:10021C00084644F6F141C0F600010D2204F0EDB998
:10022C00F0B503AF2DE9000F89B0002A06905CD021
:10023C008818D3E9029203905868B9F1000F059021
:10024C0009F1070008924FEAD000079002FB00F07A
:10025C000490104618BF00284BD1C8244FF4804896
:10026C000D46034615F9010BB0F1FF3FC6B221DC78
:10027C004A7806F01F00E02E02F03F0212D39C4693
:10028C008B78F02E03F03F0343EA82120ED3CB7827
:10029C0000F007000D1D03F03F0343EA821242EA0F
:1002AC00804606E042EA80168D1C03E042EA0036E6
:1002BC00CD1C6346069920464A4600F06AF9B6F111
:1002CC00200038BF5F200499484305998142C0F053
:1002DC00548140F618404C44C4F202002946C0F840
:1002EC0000800398089B8542BCD109B0BDE8000F83
:1002FC00F0BD1A6840F2240B43F208080092C8249F
:10030C00C4F2000BC4F201084FF0010A0A4603467E
:10031C000EE040F618404FF48041C4F20200016038
:10032C00029C019A03984C44089B82421146DCD0F3
:10033C0012F9010BB0F1FF3FC5B221DC4A7805F090
:10034C001F00E02D02F03F0212D31E468B78F02DD9
:10035C0003F03F0343EA82120ED3CB7800F0070080
:10036C0003F03F0343EA821242EA80450A1D06E08D
:10037C0042EA80158A1C03E042EA0035CA1C334667
:10038C0006992046CDE901244A4600F002F9B5F160
:10039C00200038BF5F200499484305998142C0F082
:1003AC00EC80009A091A4FF0000C02EB000E04E0EE
:1003BC0008980CF1010C8445ABD0079800230CFB7A
:1003CC0000F502E001334B45F2D005EBD300884237
:1003DC0080F0D9801EF800000722DBF8006022EACA
:1003EC000304DBF80020921B592A0ED8DBF80020FE
:1003FC00921B592A9EBFDBF80020921B592A04D865
:10040C00DBF80020921B5A2AEBD30AFA04F6D8F830
:10041C00002092070CD4D8F8002092075CBFD8F8C3
:10042C0000205FEA827203D4D8F800209207EED540
:10043C00304018BFFF20C8F80400D8F80020D207BD
:10044C000CD1D8F80020D20704BFD8F800205FEAFE
:10045C00C27203D1D8F80020D207EED0D8F8002011
:10046C0012060CD5D8F80020120644BFD8F800208C
:10047C005FEA026203D5D8F800201206EED4D8F851
:10048C000420DBF80060DBF80020921B592A0ED800
:10049C00DBF80020921B592A9EBFDBF80020921B30
:1004AC00592A04D8DBF80020921B5A2AEBD3DBF82C
:1004BC000060DBF80020921B592A0ED8DBF80020D4
:1004CC00921B592A9EBFDBF80020921B592A04D894
:1004DC00DBF80020921B5A2AEBD3D8F800209207A5
:1004EC000CD4D8F8002092075CBFD8F800205FEA43
:1004FC00827203D4D8F800209207EED5C8F8040015
:10050C00D8F80000C0070CD1D8F80000C00704BF11
:10051C00D8F800005FEAC07003D1D8F80000C0071B
:10052C00EED0D8F8000000060CD5D8F80000000674
:10053C0044BFD8F800005FEA006003D5D8F800008B
:10054C000006EED4D8F80400DBF80000DBF800203D
:10055C00121A592A3FF636AFDBF80020121A592A24
:10056C009EBFDBF80020121A592A3FF62BAFDBF89E
:10057C000020121A5A2AE9D324E744F69052C0F606
:10058C00000204F03EF844F6A052C0F6000203F05C
:10059C0069FDF0B503AF4DF8048D40F6184C4FF0E3
:1005AC000056C4F2020C40F2240ECCF800684FF056
:1005BC008046CCF80060C4F2000EDEF80060A1F1B9
:1005CC000108441EDEF80050AD1B592D0ED8DEF884
:1005DC000050AD1B592D9EBFDEF80050AD1B592DA0
:1005EC0004D8DEF80050AD1B5A2DEBD3144443F263
:1005FC000802C4F201021568AD0709D41568AD07ED
:10060C005CBF15685FEA857502D41568AD07F2D535
:10061C002A2555601568ED0709D11568ED0704BF4B
:10062C0015685FEAC57502D11568ED07F2D015683B
:10063C002D0609D515682D0644BF15685FEA0565BA
:10064C0002D515682D06F2D45568DEF80060DEF888
:10065C000050AD1B592D0ED8DEF80050AD1B592D96
:10066C009EBFDEF80050AD1B592D04D8DEF80050AB
:10067C00AD1B5A2DEBD34FF48045CCF800504FF402
:10068C000055CCF800584FF08045CCF80050DEF8FF
:10069C000060DEF80050AD1B592D0ED8DEF800506E
:1006AC00AD1B592D9EBFDEF80050AD1B592D04D843
:1006BC00DEF80050AD1B5A2DEBD343441568AD0743
:1006CC0009D41568AD075CBF15685FEA857502D45F
:1006DC001568AD07F2D5002555601568ED0709D1F1
:1006EC001568ED0704BF15685FEAC57502D115687A
:1006FC00ED07F2D015682D0609D515682D0644BFF7
:10070C0015685FEA056502D515682D06F2D45568A3
:10071C00DEF80050DEF80060761B592E0ED8DEF89D
:10072C000060761B592E9EBFDEF80060761B592E9A
:10073C0004D8DEF80060761B5A2EEBD3DEF800509E
:10074C00DEF80060761B592E0ED8DEF80060761BA2
:10075C00592E9EBFDEF80060761B592E04D8DEF8A9
:10076C000060761B5A2EEBD31568AD0709D41568BB
:10077C00AD075CBF15685FEA857502D41568AD07D7
:10078C00F2D5C0F3072555601568ED0709D115683A
:10079C00ED0704BF15685FEAC57502D11568ED0752
:1007AC00F2D015682D0609D515682D0644BF1568BD
:1007BC005FEA056502D515682D06F2D45568DEF89A
:1007CC000050DEF80060761B592E0ED8DEF8006063
:1007DC00761B592E9EBFDEF80060761B592E04D86E
:1007EC00DEF80060761B5A2EEBD34FF48045CCF824
:1007FC0000504FF40055CCF800584FF08045CCF821
:10080C000050DEF80050DEF80060761B592E0ED832
:10081C00DEF80060761B592E9EBFDEF80060761B5A
:10082C00592E04D8DEF80060761B5A2EEBD31568CF
:10083C00AD0709D41568AD075CBF15685FEA85750F
:10084C0002D41568AD07F2D5002555601568ED0783
:10085C0009D11568ED0704BF15685FEAC57502D1AB
:10086C001568ED07F2D015682D0609D515682D060B
:10087C0044BF15685FEA056502D515682D06F2D4EC
:10088C005568DEF80050DEF80060761B592E0ED845
:10089C00DEF80060761B592E9EBFDEF80060761BDA
:1008AC00592E04D8DEF80060761B5A2EEBD3DEF8F6
:1008BC000050DEF80060761B592E0ED8DEF8006072
:1008CC00761B592E9EBFDEF80060761B592E04D87D
:1008DC00DEF80060761B5A2EEBD31568AD0709D4F1
:1008EC001568AD075CBF15685FEA857502D415689D
:1008FC00AD07F2D5C0B250601068C00709D11068BE
:10090C00C00704BF10685FEAC07002D11068C0074E
:10091C00F2D01068000609D51068000644BF1068B4
:10092C005FEA006002D510680006F2D45068DEF869
:10093C000000DEF800502D1A592D0ED8DEF80050AC
:10094C002D1A592D9EBFDEF800502D1A592D04D8A2
:10095C00DEF800502D1A5A2DEBD34FF48040CCF812
:10096C0000004FF40050CCF800084FF08040CCF859
:10097C000000DEF80000DEF800502D1A592D0ED8BC
:10098C00DEF800502D1A592D9EBFDEF800502D1A9E
:10099C00592D04D8DEF800502D1A5A2DEBD31068BF
:1009AC00800709D4106880075CBF10685FEA80700C
:1009BC0002D410688007F2D5002050601068C00780
:1009CC0009D11068C00704BF10685FEAC07002D17B
:1009DC001068C007F2D01068000609D51068000630
:1009EC0044BF10685FEA006002D510680006F2D4BC
:1009FC005068DEF80000DEF800502D1A592D0ED884
:100A0C00DEF800502D1A592D9EBFDEF800502D1A1D
:100A1C00592D04D8DEF800502D1A5A2DEBD3DEF8E0
:100A2C000000DEF800502D1A592D0ED8DEF80050BB
:100A3C002D1A592D9EBFDEF800502D1A592D04D8B1
:100A4C00DEF800502D1A5A2DEBD31068800709D40C
:100A5C00106880075CBF10685FEA807002D4106871
:100A6C008007F2D5C4F3072050601068C00709D185
:100A7C001068C00704BF10685FEAC07002D110682C
:100A8C00C007F2D01068000609D51068000644BFF4
:100A9C0010685FEA006002D510680006F2D4506856
:100AAC00DEF80000DEF800502D1A592D0ED8DEF8B5
:100ABC0000502D1A592D9EBFDEF800502D1A592DBD
:100ACC0004D8DEF800502D1A5A2DEBD34FF4804089
:100ADC00CCF800004FF40050CCF800084FF08040E8
:100AEC00CCF80000DEF80000DEF800502D1A592D6D
:100AFC000ED8DEF800502D1A592D9EBFDEF800508E
:100B0C002D1A592D04D8DEF800502D1A5A2DEBD37E
:100B1C001068800709D4106880075CBF10685FEA12
:100B2C00807002D410688007F2D5002050601068E5
:100B3C00C00709D11068C00704BF10685FEAC07015
:100B4C0002D11068C007F2D01068000609D51068F1
:100B5C00000644BF10685FEA006002D5106800060A
:100B6C00F2D45068DEF80000DEF800502D1A592D32
:100B7C000ED8DEF800502D1A592D9EBFDEF800500D
:100B8C002D1A592D04D8DEF800502D1A5A2DEBD3FE
:100B9C00DEF80000DEF800502D1A592D0ED8DEF8C4
:100BAC0000502D1A592D9EBFDEF800502D1A592DCC
:100BBC0004D8DEF800502D1A5A2DEBD3106880079C
:100BCC0009D4106880075CBF10685FEA807002D49B
:100BDC0010688007F2D5E0B250601068C00709D1E8
:100BEC001068C00704BF10685FEAC07002D11068BB
:100BFC00C007F2D01068000609D51068000644BF83
:100C0C0010685FEA006002D510680006F2D45068E4
:100C1C00DEF80000DEF80040241A592C0ED8DEF85D
:100C2C000040241A592C9EBFDEF80040241A592C7F
:100C3C0004D8DEF80040241A5A2CEBD34FF4804031
:100C4C00CCF800004FF00050CCF800084FF080407A
:100C5C00CCF80000DEF80000DEF80040241A592C15
:100C6C000ED8DEF80040241A592C9EBFDEF8004046
:100C7C00241A592C04D8DEF80040241A5A2CEBD331
:100C8C001068800709D4106880075CBF10685FEAA1
:100C9C00807002D410688007F2D52B205060106849
:100CAC00C00709D11068C00704BF10685FEAC070A4
:100CBC0002D11068C007F2D01068000609D5106880
:100CCC00000644BF10685FEA006002D51068000699
:100CDC00F2D45068DEF80000DEF80040241A592CDB
:100CEC000ED8DEF80040241A592C9EBFDEF80040C6
:100CFC00241A592C04D8DEF80040241A5A2CEBD3B1
:100D0C004FF48040CCF800004FF40050CCF80008B1
:100D1C004FF08040CCF80000DEF80000DEF8004018
:100D2C00241A592C0ED8DEF80040241A592C9EBFD8
:100D3C00DEF80040241A592C04D8DEF80040241A9E
:100D4C005A2CEBD31068800709D4106880075CBF5D
:100D5C0010685FEA807002D410688007F2D500201A
:100D6C0050601068C00709D11068C00704BF106834
:100D7C005FEAC07002D11068C007F2D0106800069C
:100D8C0009D51068000644BF10685FEA006002D500
:100D9C0010680006F2D45068DEF80000DEF800405F
:100DAC00241A592C0ED8DEF80040241A592C9EBF58
:100DBC00DEF80040241A592C04D8DEF80040241A1E
:100DCC005A2CEBD3DEF80000DEF80040241A592C24
:100DDC000ED8DEF80040241A592C9EBFDEF80040D5
:100DEC00241A592C04D8DEF80040241A5A2CEBD3C0
:100DFC001068800709D4106880075CBF10685FEA30
:100E0C00807002D410688007F2D500205060106802
:100E1C00C00709D11068C00704BF10685FEAC07032
:100E2C0002D11068C007F2D01068000609D510680E
:100E3C00000644BF10685FEA006002D51068000627
:100E4C00F2D45068DEF80000DEF80040241A592C69
:100E5C000ED8DEF80040241A592C9EBFDEF8004054
:100E6C00241A592C04D8DEF80040241A5A2CEBD33F
:100E7C004FF48040CCF800004FF40050CCF8000840
:100E8C004FF08040CCF80000DEF80000DEF80040A7
:100E9C00241A592C0ED8DEF80040241A592C9EBF67
:100EAC00DEF80040241A592C04D8DEF80040241A2D
:100EBC005A2CEBD31068800709D4106880075CBFEC
:100ECC0010685FEA807002D410688007F2D50020A9
:100EDC0050601068C00709D11068C00704BF1068C3
:100EEC005FEAC07002D11068C007F2D0106800062B
:100EFC0009D51068000644BF10685FEA006002D58F
:100F0C0010680006F2D45068DEF80000DEF80040ED
:100F1C00241A592C0ED8DEF80040241A592C9EBFE6
:100F2C00DEF80040241A592C04D8DEF80040241AAC
:100F3C005A2CEBD3DEF80000DEF80040241A592CB2
:100F4C000ED8DEF80040241A592C9EBFDEF8004063
:100F5C00241A592C04D8DEF80040241A5A2CEBD34E
:100F6C001068800709D4106880075CBF10685FEABE
:100F7C00807002D410688007F2D5C8B25060106837
:100F8C00C00709D11068C00704BF10685FEAC070C1
:100F9C0002D11068C007F2D01068000609D510689D
:100FAC00000644BF10685FEA006002D510680006B6
:100FBC00F2D45068DEF80000DEF80010091A592946
:100FCC000ED8DEF80010091A59299EBFDEF8001061
:100FDC00091A592904D8DEF80010091A5A29EBD33A
:100FEC004FF48040CCF800004FF40050CCF80008CF
:100FFC004FF08040CCF80000DEF80000DEF8001066
:10100C00091A59290ED8DEF80010091A59299EBF61
:10101C00DEF80010091A592904D8DEF80010091A54
:10102C005A29EBD31068800709D4106880075CBF7D
:10103C0010685FEA807002D410688007F2D5002037
:10104C0050601068C00709D11068C00704BF106851
:10105C005FEAC07002D11068C007F2D010680006B9
:10106C0009D51068000644BF10685FEA006002D51D
:10107C0010680006F2D45068DEF80000DEF80010AC
:10108C00091A59290ED8DEF80010091A59299EBFE1
:10109C00DEF80010091A592904D8DEF80010091AD4
:1010AC005A29EBD3DEF80000DEF80010091A592992
:1010BC000ED8DEF80010091A59299EBFDEF8001070
:1010CC00091A592904D8DEF80010091A5A29EBD349
:1010DC001068800709D4106880075CBF10685FEA4D
:1010EC00807002D410688007F2D5C3F307205060DB
:1010FC001068C00709D11068C00704BF10685FEA08
:10110C00C07002D11068C007F2D01068000609D573
:10111C001068000644BF10685FEA006002D51068D2
:10112C000006F2D45068DEF80000DEF80010091A50
:10113C0059290ED8DEF80010091A59299EBFDEF87D
:10114C000010091A592904D8DEF80010091A5A2976
:10115C00EBD34FF48040CCF800004FF40050CCF8A7
:10116C0000084FF08040CCF80000DEF80000DEF8FC
:10117C000010091A59290ED8DEF80010091A59293D
:10118C009EBFDEF80010091A592904D8DEF80010A9
:10119C00091A5A29EBD31068800709D41068800704
:1011AC005CBF10685FEA807002D410688007F2D5CB
:1011BC00002050601068C00709D11068C00704BF38
:1011CC0010685FEAC07002D11068C007F2D01068D6
:1011DC00000609D51068000644BF10685FEA00607D
:1011EC0002D510680006F2D45068DEF80000DEF874
:1011FC000010091A59290ED8DEF80010091A5929BD
:10120C009EBFDEF80010091A592904D8DEF8001028
:10121C00091A5A29EBD3DEF80000DEF80010091A7F
:10122C0059290ED8DEF80010091A59299EBFDEF88C
:10123C000010091A592904D8DEF80010091A5A2985
:10124C00EBD31068800709D4106880075CBF106866
:10125C005FEA807002D410688007F2D5D8B2506073
:10126C001068C00709D11068C00704BF10685FEA96
:10127C00C07002D11068C007F2D01068000609D502
:10128C001068000644BF10685FEA006002D5106861
:10129C000006F2D45068DEF80000DEF80010091ADF
:1012AC0059290ED8DEF80010091A59299EBFDEF80C
:1012BC000010091A592904D8DEF80010091A5A2905
:1012CC00EBD34FF48040CCF800004FF00050CCF83A
:1012DC0000084FF08040CCF80000DEF80000DEF88B
:1012EC000010091A59290ED8DEF80010091A5929CC
:1012FC009EBFDEF80010091A592904D8DEF8001038
:10130C00091A5A29EBD31068800709D41068800792
:10131C005CBF10685FEA807002D410688007F2D559
:10132C002C2050601068C00709D11068C00704BF9A
:10133C0010685FEAC07002D11068C007F2D0106864
:10134C00000609D51068000644BF10685FEA00600B
:10135C0002D510680006F2D45068DEF80000DEF802
:10136C000010091A59290ED8DEF80010091A59294B
:10137C009EBFDEF80010091A592904D8DEF80010B7
:10138C00091A5A29EBD34FF48040CCF800004FF4E3
:10139C000050CCF800084FF08040CCF800005DF80D
:1013AC00048BF0BDB0B502AF1C461546FFF7F1F843
:1013BC0004FB05F0002800F0AA80BA68242343F24D
:1013CC000805C4F20003C4F2010591B2D2B24FEA8F
:1013DC00112C02E0013800F09A801C681968091B76
:1013EC0059290BD81968091B59299EBF1968091B63
:1013FC00592903D81968091B5A29EFD32968890779
:10140C0009D4296889075CBF29685FEA817102D415
:10141C0029688907F2D5C5F804C02968C90709D11C
:10142C002968C90704BF29685FEAC17102D129681C
:10143C00C907F2D02968090609D52968090644BFED
:10144C0029685FEA016102D529680906F2D4696846
:10145C001C681968091B59290BD81968091B5929CB
:10146C009EBF1968091B592903D81968091B5A29E9
:10147C00EFD31C681968091B59290BD81968091B6B
:10148C0059299EBF1968091B592903D81968091BCA
:10149C005A29EFD32968890709D4296889075CBFC1
:1014AC0029685FEA817102D429688907F2D56A60DC
:1014BC002968C90709D12968C90704BF29685FEAE7
:1014CC00C17102D12968C907F2D02968090609D56A
:1014DC002968090644BF29685FEA016102D52968B9
:1014EC000906F2D469681C681968091B59293FF66A
:1014FC0071AF1968091B59299EBF1968091B592915
:10150C003FF668AF1968091B5A29EDD362E740F61C
:10151C0018404FF48041C4F202000160B0BD80B5A8
:10152C006F4600F000F880B56F46A4B002F035FDB0
:10153C0040F20001C2F200010A78002A40F0018456
:10154C004FF0010A81F800A002F032FD49F2005080
:10155C0044F68021C0F6BA20C0F25D51CDE918A046
:10156C000DF1400BCDE912A041F20020CDE916A1FE
:10157C004AF24051C0F27A00C0F2AE21CDE910A07F
:10158C0002A84FF00009CDE914A15946ADF8889096
:10159C00CDF88090CDF87890CDF87090CDF868901B
:1015AC0001F099FF43F63005C4F20205286840F0BB
:1015BC0039002860686940F48050686102F09AFC38
:1015CC00002445F25550C4F20204C5F2000040F666
:1015DC001841C4F8000C45F2555041F21802C4F2FF
:1015EC000201C0F24000C1F8E803C4F202024FF05D
:1015FC00A06041F21843C2F8E80348F2FF0008600B
:10160C0040F6FF00106045F25550C4F202034FF64D
:10161C00FF7641F80C0C42F80C0C43F80C0CC3F898
:10162C00F40341F8106C4FF0FF3142F8106CC2F823
:10163C00F063C3F8F063286940F0010028612425A9
:10164C004FF08040C4F20005C0F8009045F8209C93
:10165C00C5F80490A96045F8189C016841F0010197
:10166C00016002F038FCA66005216068022240F29D
:10167C00484820F020006060206AC4F2472861F3DB
:10168C0017502062206862F38B202060606820F085
:10169C0040006060206A61F31B602062206862F386
:1016AC000D302060606820F080006060206A61F37B
:1016BC001F702062206862F38F302060C8F868A425
:1016CC0002F085FCC8F868A043F2080AC4F2010ACB
:1016DC00C8F868902AF8049C48F27F410C98C0F234
:1016EC001E01884240F2358348F680510026C0F234
:1016FC005B0188424FF000012FD341F60031C0F25C
:10170C00B701884201D2082127E043F20061C0F200
:10171C006E11884201D210211FE046F60041C0F242
:10172C00DC21884201D2182117E04DF60001C0F2ED
:10173C00B851884201D220210FE04BF20001C0F6D3
:10174C007131884201D2282107E046F2000238218B
:10175C00C1F2E362904238BF302141F441702AF863
:10176C00080C3AF8080C40F6184243F2BF71C4F268
:10177C0002020840072140302AF8080C52F8140CD9
:10178C0020F4807042F8140CD06861F30300D06030
:10179C00D4F8000C022161F31140C4F8000C0124B0
:1017AC00C8F8004402F013FCC8F800404FF4E131D3
:1017BC000B98C8F8006002F0ACFBC2B2022A10D140
:1017CC0044F6645044F65453C0F60000C0F60003CF
:1017DC00009044F61050C0F600007A1E2B2102F047
:1017EC005FFC44F6000400F00100C4F20004A160A8
:1017FC0000212161616142F20C0141EAC030E060DC
:10180C002046002102F0B4FB03200021ADF840007B
:10181C000BF1010002F0B7FB2046492102F09EFBC0
:10182C00C0B20528F8D0062840F03181204654215A
:10183C0002F094FBC0B20528F8D0062840F02781AE
:10184C002046532102F08AFBC0B20528F8D00628A6
:10185C0040F01D8120462D2102F080FBC0B20528EE
:10186C00F8D0062840F013812046422102F076FB86
:10187C00C0B20528F8D0062840F0098120466F2117
:10188C0002F06CFBC0B20528F8D0062840F0FF80AF
:10189C002046612102F062FBC0B20528F8D0062870
:1018AC0040F0F5802046722102F058FBC0B20528AA
:1018BC00F8D0062840F0EB802046642102F04EFB65
:1018CC00C0B20528F8D0062840F0E180204620213F
:1018DC0002F044FBC0B20528F8D0062840F0D780AF
:1018EC002046692102F03AFBC0B20528F8D0062840
:1018FC0040F0CD8020466E2102F030FBC0B20528AE
:10190C00F8D0062840F0C3802046692102F026FB5F
:10191C00C0B20528F8D0062840F0B98020467421C2
:10192C0002F01CFBC0B20528F8D0062840F0AF80AE
:10193C002046692102F012FBC0B20528F8D0062817
:10194C0040F0A5802046612102F008FBC0B20528BA
:10195C00F8D0062840F09B8020466C2102F0FEFA5D
:10196C00C0B20528F8D0062840F0918020466921A5
:10197C0002F0F4FAC0B20528F8D0062840F08780AF
:10198C0020467A2102F0EAFAC0B20528F8D00628DF
:10199C007DD12046652102F0E1FAC0B20528F8D0CD
:1019AC00062874D12046642102F0D8FAC0B205286A
:1019BC00F8D006286BD120460A2102F0CFFAC0B22B
:1019CC000528F8D0062862D120460A2102F0C6FA72
:1019DC00C0B20528F8D0062859D141F218414FF46D
:1019EC008050C4F202014AF240520860C0F2AE22AA
:1019FC0028682968091A91420BD22968091A914260
:101A0C003EBF2968091A914203D22968091A9142EA
:101A1C00EFD341F218414FF08050C4F2020108603C
:101A2C0028682968091A91420BD22968091A91422F
:101A3C003EBF2968091A914203D22968091A9142BA
:101A4C00EFD341F218414FF48050C4F20201086008
:101A5C0028682968091A91420BD22968091A9142FF
:101A6C003EBF2968091A914203D22968091A91428A
:101A7C00EFD344F6B0564FF0000E4FF08049C0F64D
:101A8C0000064FF4804B4FF40058002013E044F64E
:101A9C004450C0F6000044F60053009044F6105039
:101AAC00C0F60003C0F600007A1E2B2102F0F8FAF3
:101ABC00672880F0608141F218414FF00052C4F267
:101ACC0002010A6040F61842C4F20202315CC2F80C
:101ADC0000902B682A68D21A592A0BD82A68D21A75
:101AEC00592A9EBF2A68D21A592A03D82A68D21AB0
:101AFC005A2AEFD3DAF8002092070CD4DAF8002037
:101B0C0092075CBFDAF800205FEA827203D4DAF83D
:101B1C0000209207EED5CAF80410DAF80010C907B5
:101B2C000CD1DAF80010C90704BFDAF800105FEA2C
:101B3C00C17103D1DAF80010C907EED0DAF8001041
:101B4C0009060CD5DAF80010090644BFDAF80010C3
:101B5C005FEA016103D5DAF800100906EED4DAF871
:101B6C00041029682A68521A592A0BD82A68521A62
:101B7C00592A9EBF2A68521A592A03D82A68521A1F
:101B8C005A2AEFD340F618416628C4F20201C1F874
:101B9C0000B000F06F8681190230497859B987E797
:101BAC0040F618420139C4F202020130C2F800B00A
:101BBC000A063FF47DAF662800F2D68041F2184247
:101BCC00C4F20202C2F8008040F61842C4F20202CB
:101BDC0016F800C0C2F800902B682A68D21A592A4D
:101BEC000BD82A68D21A592A9EBF2A68D21A592AA7
:101BFC0003D82A68D21A5A2AEFD3DAF800209207AF
:101C0C000CD4DAF8002092075CBFDAF800205FEA07
:101C1C00827203D4DAF800209207EED5CAF804E0F9
:101C2C00DAF80020D2070CD1DAF80020D20704BF72
:101C3C00DAF800205FEAC27203D1DAF80020D2078A
:101C4C00EED0DAF8002012060CD5DAF800201206D5
:101C5C0044BFDAF800205FEA026203D5DAF800200C
:101C6C001206EED4DAF804202B682A68D21A592A04
:101C7C000BD82A68D21A592A9EBF2A68D21A592A16
:101C8C0003D82A68D21A5A2AEFD32B682A68D21A98
:101C9C00592A0BD82A68D21A592A9EBF2A68D21AF6
:101CAC00592A03D82A68D21A5A2AEFD3DAF8002014
:101CBC0092070CD4DAF8002092075CBFDAF8002007
:101CCC005FEA827203D4DAF800209207EED5CAF8E4
:101CDC0004C0DAF80020D2070CD1DAF80020D207C1
:101CEC0004BFDAF800205FEAC27203D1DAF80020F0
:101CFC00D207EED0DAF8002012060CD5DAF8002064
:101D0C00120644BFDAF800205FEA026203D5DAF863
:101D1C0000201206EED4DAF804202B682A68D21AB6
:101D2C00592A3FF63DAF2A68D21A592A9EBF2A6813
:101D3C00D21A592A3FF634AF2A68D21A5A2AEDD34E
:101D4C002EE7FEF759FA44F67450C0F6000002F084
:101D5C0044F944F6B44044F6DC42C0F60000C0F648
:101D6C000002282102F06AF944F634626721C0F6B9
:101D7C00000202F077F941F218414FF00050C4F222
:101D8C000201086040F618414FF08040C4F2020195
:101D9C00086028682968091A59290BD82968091A72
:101DAC0059299EBF2968091A592903D82968091A83
:101DBC005A29EFD3DAF8000080070CD4DAF80000C7
:101DCC0080075CBFDAF800005FEA807003D4DAF8B1
:101DDC0000008007EED5B620CAF80400DAF800003F
:101DEC00C0070CD1DAF80000C00704BFDAF8000015
:101DFC005FEAC07003D1DAF80000C007EED0DAF861
:101E0C00000000060CD5DAF80000000644BFDAF832
:101E1C0000005FEA006003D5DAF800000006EED49B
:101E2C00DAF8040028682968091A59290BD8296896
:101E3C00091A59299EBF2968091A592903D82968F2
:101E4C00091A5A29EFD340F6184141F218424FF4BF
:101E5C008040C4F2020108604FF40050C4F2020248
:101E6C0010604FF08040086028682968091A5929C9
:101E7C000BD82968091A59299EBF2968091A5929AA
:101E8C0003D82968091A5A29EFD3DAF80000800719
:101E9C000CD4DAF8000080075CBFDAF800005FEAC7
:101EAC00807003D4DAF800008007EED50020CAF861
:101EBC000400DAF80000C0070CD1DAF80000C00703
:101ECC0004BFDAF800005FEAC07003D1DAF8000052
:101EDC00C007EED0DAF8000000060CD5DAF80000E6
:101EEC00000644BFDAF800005FEA006003D5DAF8B8
:101EFC0000000006EED4DAF8040028682968091AF4
:101F0C0059290BD82968091A59299EBF2968091A19
:101F1C00592903D82968091A5A29EFD3286829683E
:101F2C00091A59290BD82968091A59299EBF2968F9
:101F3C00091A592903D82968091A5A29EFD3DAF84A
:101F4C00000080070CD4DAF8000080075CBFDAF8D8
:101F5C0000005FEA807003D4DAF800008007EED549
:101F6C000020CAF80400DAF80000C0070CD1DAF837
:101F7C000000C00704BFDAF800005FEAC07003D1AC
:101F8C00DAF80000C007EED0DAF8000000060CD535
:101F9C00DAF80000000644BFDAF800005FEA0060DF
:101FAC0003D5DAF800000006EED4DAF8040028684D
:101FBC002968091A59290BD82968091A59299EBF69
:101FCC002968091A592903D82968091A5A29EFD3FB
:101FDC0040F6184141F218424FF48040C4F202011D
:101FEC0008604FF40050C4F2020210604FF08040C1
:101FFC00086028682968091A59290BD82968091A10
:10200C0059299EBF2968091A592903D82968091A20
:10201C005A29EFD3DAF8000080070CD4DAF8000064
:10202C0080075CBFDAF800005FEA807003D4DAF84E
:10203C0000008007EED50020CAF80400DAF8000092
:10204C00C0070CD1DAF80000C00704BFDAF80000B2
:10205C005FEAC07003D1DAF80000C007EED0DAF8FE
:10206C00000000060CD5DAF80000000644BFDAF8D0
:10207C0000005FEA006003D5DAF800000006EED439
:10208C00DAF8040028682968091A59290BD8296834
:10209C00091A59299EBF2968091A592903D8296890
:1020AC00091A5A29EFD328682968091A59290BD813
:1020BC002968091A59299EBF2968091A592903D870
:1020CC002968091A5A29EFD3DAF8000080070CD4D2
:1020DC00DAF8000080075CBFDAF800005FEA807075
:1020EC0003D4DAF800008007EED56220CAF80400A9
:1020FC00DAF80000C0070CD1DAF80000C00704BF02
:10210C00DAF800005FEAC07003D1DAF80000C0070B
:10211C00EED0DAF8000000060CD5DAF80000000664
:10212C0044BFDAF800005FEA006003D5DAF800007B
:10213C000006EED4DAF8040028682968091A59292F
:10214C000BD82968091A59299EBF2968091A5929D7
:10215C0003D82968091A5A29EFD340F6184141F2DD
:10216C0018424FF48040C4F2020108604FF0005056
:10217C00C4F2020210604FF08040086028682968A1
:10218C00091A59290BD82968091A59299EBF296897
:10219C00091A592903D82968091A5A29EFD3DAF8E8
:1021AC00000080070CD4DAF8000080075CBFDAF876
:1021BC0000005FEA807003D4DAF800008007EED5E7
:1021CC003620CAF80400DAF80000C0070CD1DAF89F
:1021DC000000C00704BFDAF800005FEAC07003D14A
:1021EC00DAF80000C007EED0DAF8000000060CD5D3
:1021FC00DAF80000000644BFDAF800005FEA00607D
:10220C0003D5DAF800000006EED4DAF804002868EA
:10221C002968091A59290BD82968091A59299EBF06
:10222C002968091A592903D82968091A5A29EFD398
:10223C0040F6184141F218424FF48040C4F20201BA
:10224C0008604FF40050C4F2020210604FF080405E
:10225C00086028682968091A59290BD82968091AAD
:10226C0059299EBF2968091A592903D82968091ABE
:10227C005A29EFD3DAF8000080070CD4DAF8000002
:10228C0080075CBFDAF800005FEA807003D4DAF8EC
:10229C0000008007EED50020CAF80400DAF8000030
:1022AC00C0070CD1DAF80000C00704BFDAF8000050
:1022BC005FEAC07003D1DAF80000C007EED0DAF89C
:1022CC00000000060CD5DAF80000000644BFDAF86E
:1022DC0000005FEA006003D5DAF800000006EED4D7
:1022EC00DAF8040028682968091A59290BD82968D2
:1022FC00091A59299EBF2968091A592903D829682E
:10230C00091A5A29EFD328682968091A59290BD8B0
:10231C002968091A59299EBF2968091A592903D80D
:10232C002968091A5A29EFD3DAF8000080070CD46F
:10233C00DAF8000080075CBFDAF800005FEA807012
:10234C0003D4DAF800008007EED52820CAF8040080
:10235C00DAF80000C0070CD1DAF80000C00704BF9F
:10236C00DAF800005FEAC07003D1DAF80000C007A9
:10237C00EED0DAF8000000060CD5DAF80000000602
:10238C0044BFDAF800005FEA006003D5DAF8000019
:10239C000006EED4DAF8040028682968091A5929CD
:1023AC000BD82968091A59299EBF2968091A592975
:1023BC0003D82968091A5A29EFD340F618414FF46B
:1023CC008040C4F2020108604AF680012868C0F21D
:1023DC0012112A68121A8A420BD22A68121A8A42DD
:1023EC003EBF2A68121A8A4203D22A68121A8A42FB
:1023FC00EFD341F218414FF00050C4F202010860D3
:10240C0040F618414FF08040C4F202010860286881
:10241C002968091A59290BD82968091A59299EBF04
:10242C002968091A592903D82968091A5A29EFD396
:10243C00DAF8000080070CD4DAF8000080075CBFE3
:10244C00DAF800005FEA807003D4DAF80000800745
:10245C00EED51120CAF80400DAF80000C0070CD140
:10246C00DAF80000C00704BFDAF800005FEAC070B9
:10247C0003D1DAF80000C007EED0DAF8000000064D
:10248C000CD5DAF80000000644BFDAF800005FEA69
:10249C00006003D5DAF800000006EED4DAF8040088
:1024AC0028682968091A59290BD82968091A592941
:1024BC009EBF2968091A592903D82968091A5A296B
:1024CC00EFD340F618414FF48040C4F2020108608B
:1024DC004CF680312868C0F2A4012A68121A8A428C
:1024EC000BD22A68121A8A423EBF2A68121A8A42F2
:1024FC0003D22A68121A8A42EFD341F218414FF0E4
:10250C000050C4F20201086040F618414FF08040C0
:10251C00C4F20201086028682968091A59290BD8E5
:10252C002968091A59299EBF2968091A592903D8FB
:10253C002968091A5A29EFD3DAF8000080070CD45D
:10254C00DAF8000080075CBFDAF800005FEA807000
:10255C0003D4DAF800008007EED52920CAF804006D
:10256C00DAF80000C0070CD1DAF80000C00704BF8D
:10257C00DAF800005FEAC07003D1DAF80000C00797
:10258C00EED0DAF8000000060CD5DAF800000006F0
:10259C0044BFDAF800005FEA006003D5DAF8000007
:1025AC000006EED4DAF8040028682968091A5929BB
:1025BC000BD82968091A59299EBF2968091A592963
:1025CC0003D82968091A5A29EFD340F618414FF459
:1025DC008040C4F202014FF4F07208600020002128
:1025EC004FF4A0730090FEF7DDFE286845F24041E1
:1025FC00C0F289012A68121A8A420BD22A68121A6E
:10260C008A423EBF2A68121A8A4203D22A68121AD8
:10261C008A42EFD34FF478400A2100900A206422BA
:10262C006423FEF7BFFE4FF4FC601E2100901E20B9
:10263C0064226423FEF7B6FE1F2032210090322064
:10264C0064226423FEF7AEFE44F6446145F25C431B
:10265C00C0F60001C0F60003C8201622FDF7E0FD0D
:10266C0045F26C4145F6D023C0F60001C0F60003DC
:10267C00D8201422FDF7D4FD4FF47F064FF0AA08A2
:10268C004FF0550940F6184041F21801C4F202000F
:10269C00C4F20201066044F680220E60C0F25D5264
:1026AC00C0F80080C1F8009028682968091A914286
:1026BC000BD22968091A91423EBF2968091A914226
:1026CC0003D22968091A9142EFD341F2180140F65E
:1026DC001840C4F20201C4F202000E600660C1F898
:1026EC000080C0F8009028682968091A91420BD222
:1026FC002968091A91423EBF2968091A914203D2EE
:10270C002968091A9142EFD320464D2101F026FC8D
:10271C00C0B20528F8D0062840F0A68020466121DA
:10272C0001F01CFCC0B20528F8D0062840F09C80B3
:10273C002046692101F012FCC0B20528F8D0062809
:10274C0040F0928020466E2101F008FCC0B20528B2
:10275C00F8D0062840F088802046202101F0FEFBAE
:10276C00C0B20528F8D006287ED120466C2101F095
:10277C00F5FBC0B20528F8D0062875D120466F218C
:10278C0001F0ECFBC0B20528F8D006286CD120462D
:10279C006F2101F0E3FBC0B20528F8D0062863D105
:1027AC002046702101F0DAFBC0B20528F8D00628CB
:1027BC005AD12046202101F0D1FBC0B20528F8D017
:1027CC00062851D12046722101F0C8FBC0B2052861
:1027DC00F8D0062848D12046752101F0BFFBC0B2C5
:1027EC000528F8D006283FD120466E2101F0B6FB13
:1027FC00C0B20528F8D0062836D120466E2101F04B
:10280C00ADFBC0B20528F8D006282DD12046692191
:10281C0001F0A4FBC0B20528F8D0062824D120462C
:10282C006E2101F09BFBC0B20528F8D006281BD105
:10283C002046672101F092FBC0B20528F8D006288B
:10284C0012D120460A2101F089FBC0B20528F8D02C
:10285C00062809D120460A2101F080FBC0B20528C8
:10286C00F8D006283FF40EAF45F6EC20C0F6000079
:10287C00FFF711B944F624626720C0F60002672105
:10288C0001F0F0FBFEE7F0B503AF2DE9000F85B0CA
:10289C008146D7E902AE13F0010004BF8A46BEF1AF
:1028AC00000F23D04DF6836348F27F44C4F21B33F0
:1028BC00C0F21E040D19A1FB0360BAF1000FA5FBB9
:1028CC00033600F009824FEA904C4FF68010C0F2AC
:1028DC0037304FEAD64B82451AD94CF60040C1F638
:1028EC00BF10B0FBFAF020F0010012E0022043F61A
:1028FC000401C9F8000043F21000C2F20040C4F217
:10290C00020162F39650086005B0BDE8000FF0BDFF
:10291C00082000FB0AF8BEF1000F0490CDF80C80E3
:10292C001CBF46F60048C0F2DC28E34500F2DA8111
:10293C004FF0000004F1010338BF01209D42C0F0AC
:10294C00BF818B4500F2C28144F2402EE345C0F2B8
:10295C000F0E029235D25844604532D8B1FBFBF3CE
:10296C006045B8FBF3F505FB138515D2002800F084
:10297C00A781884200F2AA81B1FBF0F3441CB8FB9A
:10298C00F3F606FB1383AB4238BF83469D4228BF48
:10299C001D46A4452046E9D17145C0F09181B1FB9B
:1029AC00FCF0B8FBF0F202FB1080A8420AD3BBF19A
:1029BC00000FDC4606D145F6AC30C0F6000002F044
:1029CC008FF8DC46B1FBFCFB0EF10101ABF574207A
:1029DC00DDF810E0A0F51070884280F06681FD688B
:1029EC00002D00F01C81BEF1000F00F08D814BF228
:1029FC00000043F23433C0F67130C3F23333B0FB12
:102A0C00FBF000FB0BF141F60040C0F64E60B0FB52
:102A1C00FBF0B1FBFEF200FB0BF0AAEB0206B0FBE5
:102A2C00FEF2BAEB020548BF6D42002ECDF80490C1
:102A3C0048BF7642A0FB0304721B48F6000018BF87
:102A4C000122C1F22A10AE42B0FBFBF0B8BF4FF02E
:102A5C00FF3200FB0BF0B4EB910918BF4FF00109EA
:102A6C00B4EB910F38BF4FF0FF39B9F1000F08BF2D
:102A7C009146B9F1010FB0FBFEF208BF2E46BAEB3E
:102A8C00020248BF5242B31A18BF01239642B8BF84
:102A9C004FF0FF33B9F1010F18BF8C084AF6AB2188
:102AAC00C2F6AA21A0FB01014FF20040C1F2064080
:102ABC00B0FBFBF00D1B18BF0125A14238BF4FF036
:102ACC00FF35002D08BF1D46012D08BF164600FB23
:102ADC000BF2B2FBFEF0BAEB000048BF4042331AD7
:102AEC0018BF01238642B8BF4FF0FF33012D08BF3A
:102AFC000C4644F62511C2F29241A2FB0118B8EB28
:102B0C00040118BF0121A04538BF4FF0FF31002947
:102B1C0008BF1946012908BF064646F20000C1F25B
:102B2C00E360B0FBFBF000FB0BF2B2FBFEF0BAEB88
:102B3C00000048BF4042331A18BF01238642B8BF79
:102B4C004FF0FF33012908BF4446B4EBD20E18BF37
:102B5C004FF0010EB4EBD20F039288BF4FF0FF3E43
:102B6C00BEF1000F08BF9E46BEF1010F08BF06461E
:102B7C004CF600404BF20002C1F6BF10C0F67132A9
:102B8C00B0FBFBF000FB0BF80498B8FBF0F0BAEBD1
:102B9C00000A48BFCAF1000AB6EB0A0018BF0120B0
:102BAC00B9F1010F04BF41F60042C0F64E62012D8F
:102BBC0004BF48F60002C1F22A1201294CF21D7121
:102BCC0004BF4FF20042C1F20642C1F67141BEF1A0
:102BDC00010FA8FB011304BF46F20002C1F2E3622D
:102BEC005645B8BF4FF0FF30BEF1010F039908BF37
:102BFC00CC08FD68191B18BF0121A34238BF4FF048
:102C0C00FF31002908BF0146012904BF4CF60042E0
:102C1C00C1F6BF12DDF80490DDF810E003920398C2
:102C2C0046F60042C0F2DC22B0FBFBF000FB0B21AD
:102C3C00013991425CD3029B49F68176C1F25E6602
:102C4C004FF00052002B4FF4403303EBCE33A1FB7B
:102C5C00066118BF4FF0015203F440331A440CF0D4
:102C6C003F03BEF1000F1A4447F6C07303EA80130A
:102C7C001A4401F0707342EA830243F60403C4F26F
:102C8C0002031A603AD000FB0BF0890D0122B0FB55
:102C9C00F1F1B0FBFEF0C9E90020C9E90251C9F815
:102CAC0010C005B0BDE8000FF0BD45F6BC3045F6D0
:102CBC00F832C0F60000C0F600023B2101F0BEF96C
:102CCC0045F62840C0F6000001F00AFF45F63840F2
:102CDC00C0F6000001F004FF45F68C30C0F6000091
:102CEC0001F0FEFE45F69C30C0F6000001F075F9CF
:102CFC0045F60840C0F6000001F0F2FE45F618401B
:102D0C00C0F6000001F0ECFE45F64840C0F60000AD
:102D1C0001F0E6FEF0B503AF2DE9000F8FB082464F
:102D2C00D7E90205D20734D0C00756D007201A467F
:102D3C0000900BA82B4600F073FA0B98002800F0BB
:102D4C00138143F604069DF83200C4F202069DF886
:102D5C003310BDF8302000240D9B3568CAE90040C3
:102D6C0060F3050547F6C07000EA8210CAF8083017
:102D7C00356061F31E7048F23F01D6F88020C8F62A
:102D8C00FF7111400844C6F880000FB0BDE8000F79
:102D9C00F0BDC00721D04DF68360C4F21B30A1FBFF
:102DAC00003648F27F43C0F21E030B44A3FB000322
:102DBC00B20CCDE903214FEAD34BBBEB964F13D9A1
:102DCC004FF0020E0AAB0020C3F800E00A9B022B66
:102DDC002DD14FF0020C0BA9A0E00120CAF8000085
:102DEC000FB0BDE8000FF0BD07205A4600900BA8AD
:102DFC002B4600F015FA0B98002800F0B580039ACA
:102E0C0000209DF8324009AB9DF833809345DDE9F5
:102E1C000D6E0A9028BF0120BDF8309038BF0BF121
:102E2C00010B0499C3F800E00A9B022BD1D0DDF80A
:102E3C0024C0934508934FF0000388BF0123184327
:102E4C00CDF808A002D0214608985EE0CDE9059E99
:102E5C009345A146CDF81CC031D207205A460090AC
:102E6C000BA82B46AA4600F0DBF90B9800287BD068
:102E7C00069B0BF1010B9DF83310DDE90DC293425B
:102E8C009DF83200BDF8305084BF884681460599C4
:102E9C0088BF2946059184BF66460446079893422D
:102EAC0088BF104607905546089888BF00200890A8
:102EBC0028BF1346039A04995A450693CDD107208F
:102ECC002B4600900BA800F0ABF90B9800284BD0C8
:102EDC00069B9DF83310DDE90DC293429DF832003C
:102EEC00BDF8305088BF8846494688BF0146DDF89A
:102EFC00149082BFA94666460446DDF81CC0934276
:102F0C0088BF9446089888BF00200B90C8B2C9EAC5
:102F1C000040DDF808A040EA08600AA9C1F800C02A
:102F2C000B9902292BD08AE8520043F60401C4F213
:102F3C0002010A68030C63F305020A6047F6C072CB
:102F4C00D1F8803002EA801200F0E06042EA001012
:102F5C0048F23F02C8F6FF721A401044C1F88000D4
:102F6C000FB0BDE8000FF0BD45F6904045F6B842F5
:102F7C00C0F60000C0F60002252101F038F845F635
:102F8C00584045F68042C0F60000C0F600022721EA
:102F9C0001F02DF8F0B503AF2DE9000F87B0064610
:102FAC00C80709D0D8076ED0BB6802A8314600F01C
:102FBC009CF802AB0FCB6EE0D80764D04DF6836162
:102FCC00C4F21B31A6FB012048F27F42C0F21E0264
:102FDC003244A2FB0112D40CB4EB904F48D8BB681E
:102FEC004FEA904802A83146224600F07EF80020B5
:102FFC00444538BF0120DDF808B0BBF1020F37D0D3
:10300C00DDE903294445059B42D2044444453FD89D
:10301C00DDF818A01D46CDF80480904618D2BB6888
:10302C0002A83146224600F060F83046069EDDE9E3
:10303C0002C10134DDE90423B24581BF1D4691462E
:10304C008846E34628BFB24606460198A042E6D120
:10305C00019A02A8BB68314600F047F802AE4FCE89
:10306C00B2459FBF2B464A4641465846022812D1CC
:10307C0045F6C84045F6F042C0F60000C0F6000226
:10308C00272100F0B4FF012007B0BDE8000FF0BD10
:10309C00114658464A4643F68C064FF4F85505EB54
:1030AC000323C4F202063668150C1B0A63F30C26C4
:1030BC0043F68C03C4F202031E6053F8886C65F36C
:1030CC00050643F8886C02F0706653F8045C62F3F2
:1030DC008E1648F23F02CFF2FF022A40324443F8E8
:1030EC00042C07B0BDE8000FF0BDF0B503AF2DE91F
:1030FC00000F8BB007AD039058001C468B464FF069
:10310C00000A4FF002084FF00F090692029004EBF0
:10311C000A06069A284659463346CDF8009000F028
:10312C007FF80798B0B908F10108B246B8F1210F41
:10313C00EDD10F20069A009007A86301594600F0C4
:10314C006FF80798012860D1DDE908922023DDF89B
:10315C0028A050E0DDE90892A8F101030A9E1F2B7C
:10316C0001D9B24647E0B8F1200F059218D11F20C3
:10317C00B24604900F20069A009007A863015946A6
:10318C0000F04EF80798A0B308AA049B07CA964211
:10319C0084BF20239246059A84BF0A4681462AE0C2
:1031AC000298049300EB0A05B24605E008F1010809
:1031BC002544B8F1200FDDD00F20069A009007A807
:1031CC0059462B4600F02CF807980028EED008AA98
:1031DC00049B07CA964288BF4346049388BF924615
:1031EC00059B88BF0B46059388BF814628BF1646B2
:1031FC00DCE7DDE904320399002081E80502C1E92E
:10320C00033A0BB0BDE8000FF0BD45F6584045F64B
:10321C000052C0F60000C0F60002272100F0E7FEC5
:10322C00F0B503AF2DE9000F83B0002A00F04D81FB
:10323C00BE68022E05D20021016003B0BDE8000F6C
:10324C00F0BDB1FBF2FECDE9010224D1D7F808B0F4
:10325C00A3FB0B65002D41D1029A8A4200F2A78094
:10326C0006EB5E014EF60136B1FBFEF441F6007141
:10327C00CFF60A21C1F2C93604FB0E11B1422DD290
:10328C0004FB0EF1B1FBFBF5B5EB030848BFC8F12D
:10329C000008019809E10298884226D90226A3FB6E
:1032AC000654002C00F08380B86801368642CDD0DD
:1032BC00A3FB0654002C7AD001368642C6D0A3FB61
:1032CC000654002C73D001368642BFD0A3FB0654A3
:1032DC00002C6CD001368642E1D1B7E70021019871
:1032EC00016003B0BDE8000FF0BDB8684EF60132C6
:1032FC004FEA5E094FF0020AC0F100080626C1F23F
:10330C00C932351FA3FB055454B941F600704D4426
:10331C00B5FBFEF4CFF60A2004FB0E0595424CD308
:10332C0008EB060CBCF1030F90D0F51EA6F1020BB6
:10333C00A3FB054058B904EB0900B0FBFEF441F6C1
:10334C000070CFF60A2004FB0E00904238D3BCF17B
:10335C00020F3FF47BAFA3FB0B40751E58B904EB77
:10336C000900B0FBFEF441F60070CFF60A2004FB16
:10337C000E00904229D3BCF1010F3FF467AFA3FBC1
:10338C0005400AF1040558B904EB0900B0FBFEF442
:10339C0041F60070CFF60A2004FB0E00904218D3C1
:1033AC000436AA4608EB06000428AAD14EE745F6D7
:1033BC002050C0F6000001F093FB4AF001050AE032
:1033CC0004FB0EF1AA465D4607E004FB0EF1DA465B
:1033DC0003E00AF1030A04FB0EF1BAF1000F5AD014
:1033EC00B1FBFAF0D7F808B0B0EB030C009048BF73
:1033FC00CCF1000C5D4501D9E04652E0E04638D3F3
:10340C00A3FB0B1000284CD109EB0100B0FBFEF61E
:10341C0041F60070CFF60A2006FB0E00904240D217
:10342C0006FB0EF0B0FBFBF2D11A48BF4942009DDF
:10343C0001988C4589BF1546D34634468846029A76
:10344C0033E006FB0EF0B0FBF5FBBBEB030148BF12
:10345C00494200988C4588BF5846D7F808B0009070
:10346C0082BFAA463446884628BF8C460135AB45F8
:10347C00C6D0A3FB05100028F8D101EB0900B0FB66
:10348C00FEF641F60070CFF60A2006FB0E009042C5
:10349C00ECD2002DD5D145F63050C0F6000001F02D
:1034AC001FFBD346029ADDE9005011043FFA81F16B
:1034BC0041EA0B62A1B21144021D82E822010121F2
:1034CC00016003B0BDE8000FF0BD45F61050C0F62A
:1034DC00000001F005FB80B56F46002200F001F8FA
:1034EC0080BDF0B503AF2DE9000FA1B08A46D1E93C
:1034FC00003142F20049DAE9086CC0F2F409002B01
:10350C0043F60008159318BF8946BCEB090118BF98
:10351C00012116EA0103C4F20208CDE90E30109223
:10352C0026D0DAE90C140025DAF828B001290B941E
:10353C0047D15FEACB7644D0DAF82C60A51B18BFD4
:10354C000D46A11BB1FA81F112954D09DAF83840FC
:10355C001195012C3BD0DAF84010002918BF5FEA16
:10356C00CB7140F08980DAF83C0000240A90BDE071
:10357C00DAE90C640025DAF828B0012E3DD15FEAB7
:10358C00CB713AD0DAF82C10651AA4EB0101B1FA20
:10359C0081F118BF354612954D09DAF8386011954E
:1035AC00012E30D0DAF84010002918BF5FEACB703A
:1035BC0078D1DAF83C0000260A900020169014907E
:1035CC0065E11291DAF838401195012CC3D1DAE992
:1035DC000F16DAF82CE086B35FEACB767ED0DAF8F9
:1035EC004460714572D1A6EB0E010024B1FA81F151
:1035FC0048091690012014907BE01296DAF8386096
:10360C001195012ECED1A646DAE90F41DAF82CC07D
:10361C00F1B15FEACB7100F02E81DAF84410644509
:10362C0040F02281A1EB0C000026B0FA80F0744629
:10363C00400916900120149029E15FEACB7212D058
:10364C00714510D10120002414900020169050E0F8
:10365C005FEACB710BD0644509D101200026149090
:10366C000020169012E1002001240A913FE0002076
:10367C000A941690012608E1DAF82C100023DAF8E7
:10368C004420DAF83C008A42A2EB0101B1FA81F144
:10369C000A904FF0000014904FEA511018BF1C46CE
:1036AC00169026E0DAF83C1000220A910023DAF892
:1036BC002C00DAF8441014928142A1EB0000B0FA0D
:1036CC0080F018BF1E4640091690E0E0764505D103
:1036DC0000200A911490012016900AE0DAF84400B8
:1036EC00002201240A91814240F097830020169019
:1036FC0014909AF849004946159A01230D90CDE98A
:10370C0000C017A8CDF818A0FFF7BDF8DDF85CA035
:10371C00BAF1020618BF0126BAF1020F0C9635D089
:10372C0025464C461298DDF86C900028CDF84CB02C
:10373C0049D007200B9B00901DA821464A46FFF755
:10374C006FFD1D98002800F0BB831F9A4FF0000BF3
:10375C0012929DF87A009DF87B10BDF87820D8F86D
:10376C00043060F3050347F6C07000EA8210C8F815
:10377C00043061F31E7048F23F01D8F88420C8F67B
:10378C00FF7111400844C8F884001EE00B98002219
:10379C001299CDE9001000211DA80B914946FFF7A5
:1037AC00B9FADDE91D0223460A99009180F0010166
:1037BC00099048460D46FFF7EDFB0E461F9B4FF058
:1037CC00000A169C16E04FF0010B0A98012100909C
:1037DC0020464A462B46FFF7DDFB0E46DDE91891E5
:1037EC00CDF824B08BF00105169CDDE9123B0B9152
:1037FC001A990291DDF844C03246B0FA80F0BCF15F
:10380C00000F18BF5D460699002CC96A18BF0A46FE
:10381C000892149A002A18BF0E460A96BCF1000FA3
:10382C0018BF0B464109002C0E4618BF5E46002AF5
:10383C0008BF8B465FEACA70109800F01A83DDF857
:10384C0018A0AE46254602467446079150B9A9F118
:10385C00B77045F60071A0F55850C0F64C1188426F
:10386C0000F2D0829646A9E0614504D100200A946A
:10387C0014900120F5E6DAF84400002101260A94A0
:10388C00844240F0D38200201690149074469AF82B
:10389C0049004946159A00230D90019017A8FEF790
:1038AC00F2FF1798851E18BF012502280C9533D0FE
:1038BC0023464C461298DDF86C900028CDF84CB09D
:1038CC0044D00720214600901DA84A46FFF7A8FCCB
:1038DC001D98002800F0F4821F9A002512929DF882
:1038EC007A009DF87B10BDF87820D8F8043060F38E
:1038FC00050347F6C07000EA8210C8F8043061F383
:10390C001E7048F23F01D8F88420C8F6FF711140B0
:10391C000844C8F884001AE012980021CDE900048C
:10392C001DA80B9149460022FFF7F4F9DDE91D02B1
:10393C0033460A99009180F00101099048460C46E3
:10394C00FFF728FB0E461F9B169D14E001250A98D5
:10395C004A460090204601213346A146FFF71AFB48
:10396C00099585F00104169D0E46DDE9123B199967
:10397C000B911A990291DDF844C03246B0FA80F0EE
:10398C00BCF1000F18BF5C46DAF82C10002D18BFE4
:10399C000A460892149A4009002A18BF0E46BCF138
:1039AC00000F0A9618BF0B46002D064618BF5E4640
:1039BC00002A079008BF8346DDF840E0DAE90201EF
:1039CC00002808BF4946002900F04182A9F10100F6
:1039DC00CDF84CB042181695B2FBF1F1CDE911635C
:1039EC0001290DD0022909D0002900F04882CA1EF5
:1039FC00032A80F0A4810421902502E0802500E0B8
:103A0C0000254AF24052CDF81890DAE90436B9FB99
:103A1C00F1F9C0F2AE229145059438BF4A46002B0D
:103A2C0018BF3246002A00F01882A9F101018B1848
:103A3C00B3FBF2FBBBF1010F14D0BBF1020F0ED0A4
:103A4C00BBF1000F00F02682ABF10302032A80F0D9
:103A5C007C8104224FF0020B4FF4A05304E04FF48E
:103A6C00805300E000235A46B9FBF2F44AF241526B
:103A7C00C0F2AE22944203D3BEF1000F00F0AC8131
:103A8C0044F680220493DAE90636C0F25D52914581
:103A9C0038BF4A46002B18BF3246002A00F0E3819B
:103AAC0011440395B1FBF2F6012E10D0022E0BD06F
:103ABC00002E00F0FA81F11E032980F054810421BC
:103ACC0002264FF4204304E04FF4004300E00023AF
:103ADC003146B9FBF1F544F68121C0F25D518D42BE
:103AEC0003D3BEF1000F00F0828145F2C741C0093B
:103AFC00C0F21E11A0FB0101D8F800040009890ACC
:103B0C0060F31F1141F4E060C8F800041598E0B1AF
:103B1C00D8F800009AF84810002918BF40F480200B
:103B2C0040F48030C8F80000D8F8000080030CD4B2
:103B3C00D8F8000080035CBFD8F800005FEA803042
:103B4C0003D4D8F800008003EED50C98002852D08E
:103B5C00D8F8000040F08070C8F8000047F601204B
:103B6C00C0F60320814535D31093E246D8F84000C7
:103B7C0040F08050C8F8400000F029FA47F20400E9
:103B8C00C4F2000050F8041C41F4803140F8041CCD
:103B9C000168C90309D40168C9035CBF01685FEA05
:103BAC00C13102D40168C903F2D550F8041CD446C3
:103BBC0041F4003140F8041C109B0168890309D4BE
:103BCC00016889035CBF01685FEA813102D4016836
:103BDC008903F2D5D8F8000080010CD4D8F8000085
:103BEC0080015CBFD8F800005FEA801003D4D8F8DD
:103BFC0000008001EED50998002800F08680079817
:103C0C00B0B1D8F8000040F08050C8F80000D8F8E7
:103C1C00000080000CD4D8F8000080005CBFD8F8FD
:103C2C0000005FEA800003D4D8F800008000EED5D5
:103C3C00D8F8080020F400006CF3D750C8F808003E
:103C4C00D8F88C00149A20F47001002A18BF40F4A4
:103C5C00001121F4500016994FF6F04261F3D75041
:103C6C00C8F88C00DDE903010843D8F808101843A4
:103C7C0091430843C8F80800102000F0A2F904FB97
:103C8C000BF1059A05FB06F00F9E02F00102C6E946
:103C9C000894C6E90A5113993063069801F00101A2
:103CAC0070631198D8F80830029C00F00100C6E946
:103CBC000142129AC6E903210A99C6E9051008982F
:103CCC00F0610E980B9D0028159923F003003560C8
:103CDC0018BF02210844C8F808000D9888B1002DBF
:103CEC006FD046F60040A4F13771C0F2DC20001B07
:103CFC0038BFA1F5D8404DF2C141C0F20101884254
:103D0C005FD221B0BDE8000FF0BDD8F8000040F044
:103D1C008060C8F80000D8F8000000013FF56FAFD4
:103D2C00D8F8000000015CBFD8F800005FEA001072
:103D3C003FF565AFD8F800000001ECD55FE78A1FAE
:103D4C00062A1DD20821A0255BE6ABF10603102242
:103D5C00062B4FF4E05338BF082238BF4FF4C05342
:103D6C004FF0020B80E6B11F4FF4604306294FF071
:103D7C00100138BF4FF4404338BF08210226A8E693
:103D8C00A1F10C021C2A02D21021B02539E6A1F1B6
:103D9C002802382A02D24021C02532E6A1F1600265
:103DAC00602A02D28021D0252BE6A1F1C0024FF46B
:103DBC000071F025C02A38BF4FF4807138BFE02560
:103DCC001FE645F64C7045F67872C0F60000C0F65A
:103DDC0000022C2100F032F945F6A46045F6D862B9
:103DEC00C0F60000C0F60002312100F027F945F6BC
:103DFC00087045F63C72C0F60000C0F60002312196
:103E0C0000F01CF945F6F85045F65462C0F6000077
:103E1C00C0F600025C2100F011F945F668501B92C7
:103E2C00C0F60000189417901A9207E045F66850F7
:103E3C001B91C0F60000189617901A91042045F6B5
:103E4C00D851199017A8C0F6000100F0ECF845F60F
:103E5C006460C0F6000000F043FE45F68460C0F6D6
:103E6C00000000F03DFE45F6E860C0F6000000F0F2
:103E7C0037FE45F6E850C0F6000000F0AEF845F607
:103E8C00FC2045F67462C0F60000C0F60002282142
:103E9C0000F0D4F845F6FC2045F69462C0F600001C
:103EAC00C0F60002282100F0C9F845F6FC2045F6C2
:103EBC00F862C0F60000C0F60002282100F0BEF83F
:103ECC0045F6904045F6B842C0F60000C0F6000238
:103EDC00252100F08CF8B0B502AF40F2002401258A
:103EEC00C4F24724C4F8005400F071F80020256097
:103EFC002060B0BDB0B502AF40F20C240125C4F275
:103F0C004724C4F8005400F062F8002025602060BB
:103F1C00B0BDB1EB101F11D9B1EBD00F82BF022095
:103F2C00002170474A0802EB4000B0FBF1F020F092
:103F3C000F01C0F3420001440120704700291FBF4C
:103F4C0000EB5100B0FBF1F10020704780B56F46DB
:103F5C0045F6F870C0F6000000F0C2FD02681206CB
:103F6C0051BF05206FF35F21416006207047D4D408
:103F7C00CAB28021DFE802F006050204402100E00D
:103F8C00C02141617047C8B244F610010003C4F26D
:103F9C00000108607047FEE77047D0B502AF00F033
:103FAC0019F8012121EA000400F007F82046D0BDE1
:103FBC00002808BF704700F002B872B6704762B6AE
:103FCC007047012101EB50000138FDD17047BFF360
:103FDC004F8F7047EFF31080704780B56F460246E5
:103FEC0046F21000C0F600002B2100F027F880B537
:103FFC006F468AB0CDE900010020069001200390A5
:10400C0046F20801059008A8049044F60940C0F651
:10401C000000C0F6000109906846089002A80291C1
:10402C00114600F000F880B56F4684B0CDE901016F
:10403C0001A80122ADF80C20FEF724FC80B56F46D8
:10404C0088B094460122019206AA0023CDE906010C
:10405C000092042268466146049303930292FFF790
:10406C00E2FFD4D480B56F468CB0CDE900010020BE
:10407C00069002200849029169460390059008A811
:10408C0004900648CDE9090111460B9001A808904F
:10409C0002A8FFF7C8FF00BF70600008134B0008B0
:1040AC0080B56F468EB08DE80F00002046F284017B
:1040BC00089002200590C0F6000107900AA806900F
:1040CC0044F60140C0F60000D7F808C00D9002A8D5
:1040DC000C9044F60940C0F6000004910B90684621
:1040EC000A9004A86146FFF79EFFD4D4F0B503AF45
:1040FC002DE9000F87B0D7F80C901C461546002907
:10410C004ED0D0F81CB02B221BF0010108BF4FF48D
:10411C00881201EB090AD7F808805FEA4B7149D580
:10412C00102C069258D2002C62D004F0030CA2087A
:10413C004FF000015ED002F00302CDF8108005F1C3
:10414C000108CDE90249A1EB820E6FF0030205953F
:10415C0008EB0205043295F9033095F9064095F900
:10416C00056013F1410F95F90450C8BF01310EEBF6
:10417C00020315F1410FC8BF013116F1410FC8BF41
:10418C00013114F1410FC8BF01310433E0D1DDE935
:10419C0004850432DDE90249BCF1000F2ED145E063
:1041AC00D0F81CB009F1010A2D22D7F808805FEA7B
:1041BC004B71B5D400250168E9BB2146D0E9054611
:1041CC00009131462B46204600F0F1F860B10120F9
:1041DC0007B0BDE8000FF0BD06462846214600F0AA
:1041EC0014FA0146304621E0F3682046414678E057
:1041FC0000211BE00022BCF1000F17D0AB5613F1CD
:10420C00410FC8BF0131BCF1010F0FD02A4492F904
:10421C00013013F1410FC8BF0131BCF1020F05D0C1
:10422C0092F9022012F1410FC8BF0131069A8A445B
:10423C0001680029C1D0CDE90485D0F80480D045AF
:10424C0012D95FEA0B711ED490F82010A8EB0A0368
:10425C000692CA46A3469946DFE801F05B02550276
:10426C0049464FF0000954E02146D0E9054600913B
:10427C003146059B204600F09AF878B3012007B030
:10428C00BDE8000FF0BD3021D0F810B0234601611D
:10429C00012190F82050D0E9054680F820103146D5
:1042AC00039000932046059B00F081F80146012005
:1042BC0000297FF48DAF0695A8EB0A00DDF810807D
:1042CC00451C013D14D0326920463021904700280E
:1042DC00F7D0012007B0BDE8000FF0BDF368204611
:1042EC0004994A4607B0BDE8000FBDE8F0401847F6
:1042FC00F368204641464A469847B8B3012007B0B8
:10430C00BDE8000FF0BD09F101024FEA59014FEA77
:10431C005209D0E904644D1CD0F81880013D0BD033
:10432C00D8F810202046314690470028F6D00120BE
:10433C0007B0BDE8000FF0BDCDF800B02046DDE9B8
:10434C000532414600F033F820B1012007B0BDE83A
:10435C00000FF0BDD8F80C3020460499524698470F
:10436C0078B1012007B0BDE8000FF0BD03980699A5
:10437C0080F82010C0F810B0002007B0BDE8000F86
:10438C00F0BD0025A94509D0D8F8102020463146AB
:10439C00904701350028F5D0691E00E04946002001
:1043AC00494538BF012007B0BDE8000FF0BDF0B59E
:1043BC0003AF4DF8048DD7F808801C460E46B2F5B5
:1043CC00881F0AD03369114605469847014628468E
:1043DC0019B101205DF8048BF0BD3CB1F3682146A6
:1043EC0042465DF8048BBDE8F040184700205DF8AC
:1043FC00048BF0BDF0B503AF2DE9000F81B00D4675
:10440C00D0F800C08168BCF1000F08BF5FEAC1732F
:10441C0037D0C90730D0C66805EB020E4FF0000844
:10442C002946E6B9714527D091F90010B1F1FF3F4B
:10443C00DCBFC9B2E029B8F1000F26D0904523D2D9
:10444C0015F9081011F1400F1FDA00211EE0F029B8
:10445C002CBF211DE11C0B1B013E9844E2D0714581
:10446C000AD00C4611F9013BB3F1FF3FF3DCD9B292
:10447C00E029ECD2A11CEEE79046BCF1000F0CD168
:10448C007DE0D0E905017DE0DFD1294600290CBF94
:10449C0090460D46BCF1000F71D0D0F80490B8F1E5
:1044AC00100F37D2B8F1000F3CD008F0030C5FEAC4
:1044BC0098024FF0000137D002F0030205F1010A17
:1044CC00AB46A1EB820E6FF003020AEB020404323E
:1044DC0094F9036094F9063094F9055016F1410FE4
:1044EC0094F90440C8BF013114F1410FC8BF013128
:1044FC0015F1410FC8BF013113F1410F0EEB02034F
:10450C00C8BF01310433E0D104325D46BCF1000F69
:10451C000ED125E006462846414600F076F80146C5
:10452C0030461DE000211BE00022BCF1000F17D02B
:10453C00AB5613F1410FC8BF0131BCF1010F0FD0C5
:10454C002A4492F9013013F1410FC8BF0131BCF17B
:10455C00020F05D092F9022012F1410FC8BF0131B0
:10456C0089450CD990F82020A9EB01090021DFE83E
:10457C0002F01702111749464FF0000910E0D0E97C
:10458C0005014246CB68294601B0BDE8000FBDE8E5
:10459C00F040184709F101024FEA59014FEA52095C
:1045AC00D0E904AB4C1C8669013C06D032695846F4
:1045BC00514690470028F7D005E0F3685846294645
:1045CC004246984720B1012001B0BDE8000FF0BD74
:1045DC000025A94508D03269584651469047013507
:1045EC000028F6D0691E00E049460020494538BF36
:1045FC00012001B0BDE8000FF0BDD0E90503DB6878
:10460C00184780B56F4600F0FFFAF0B503AF2DE9FF
:10461C00000F82B08146033020F0030AAAEB090890
:10462C00414535D2002946D001F0030C8A084FF0E1
:10463C00000000F03182A0EB820E09F101066FF050
:10464C0003057319043593F9031093F9064093F994
:10465C00052011F1410F93F90430C8BF01300EEB66
:10466C00050113F1410FC8BF013012F1410FC8BF52
:10467C00013014F1410FC8BF01300431E1D12A1DC2
:10468C00BCF1000F40F00D8202B0BDE8000FF0BD90
:10469C00A1EB080E5FEA9E0CC4D00EF00302CA45D3
:1046AC0001D100204CE0A9EB0A0010F1040F07D94E
:1046BC000020002528E0002002B0BDE8000FF0BD6E
:1046CC0009F1010B00206FF003060BEB060595F9C1
:1046DC00034095F9063095F9051014F1410F95F941
:1046EC000450C8BF013015F1410FC8BF013011F1A2
:1046FC00410FC8BF013013F1410FC8BF013016F193
:10470C00080506F10406E0D1CA4519D019F90510BF
:10471C0011F1410FC8BF0130B8F1010F10D009EBF6
:10472C00050191F9013013F1410FC8BF0130B8F107
:10473C00020F05D091F9021011F1410FC8BF0130E1
:10474C0009EB08040023C2B12EF00301214491F9B6
:10475C00006016F1410FC8BF0123012A0DD091F959
:10476C00016016F1410FC8BF0133022A05D091F93F
:10477C00021011F1410FC8BF0133184412E04FF081
:10478C0000083FFA88F23FFA98F31A44ACEB0B0C92
:10479C000AEB8B041BF0030102EB024200EB12400C
:1047AC0040F04981BCF1000F3FF46EAFBCF1C00F7B
:1047BC00E34628BF4FF0C00BA246BCF1040FDED37A
:1047CC006FF00F01012201EB8B01302902EB11126A
:1047DC00CDE9002A03D24FF000085446ABE022F09A
:1047EC0003094FF00008544694E80E04B9F104098B
:1047FC00A6696FEA010E4FEADE1545EA91116FEAE0
:10480C00020521F0FE314FEAD51545EA92124144DA
:10481C0022F0FE320A446FEA03014FEAD11545EA51
:10482C00931323F0FE3325691A446FEA0A034FEA07
:10483C00D313616943EA9A13D4F8388023F0FE331A
:10484C00D4F83CE01A446FEA05034FEAD31343EA69
:10485C009513E56923F0FE331A446FEA01034FEA1E
:10486C00D31343EA911121F0FE31236A11446FEA0C
:10487C0006024FEAD21242EA9612666A22F0FE3221
:10488C0011446FEA05024FEAD21242EA9512A56A68
:10489C0022F0FE3211446FEA03024FEAD21242EACE
:1048AC009312E36A22F0FE3211446FEA06024FEAD9
:1048BC00D21242EA9612266B22F0FE3211446FEAB3
:1048CC0005024FEAD21242EA9512656B22F0FE32D3
:1048DC0004F1400411446FEA03024FEAD21242EA97
:1048EC00931222F0FE3211446FEA06024FEAD21202
:1048FC0042EA961222F0FE3211446FEA05024FEAA8
:10490C00D21242EA951222F0FE3211446FEA0802EA
:10491C004FEAD21242EA981222F0FE3211446FEAA8
:10492C000E024FEAD21242EA9E1222F0FE3202EB43
:10493C0001087FF459AF0099DDF804A011F0030EC3
:10494C003FF41FAF94E84C00BEF1010FE5686FEA2D
:10495C0002014FEAD11141EA92116FEA03024FEAC8
:10496C00D21221F0FE3142EA9312414422F0FE327F
:10497C0011446FEA06024FEAD21242EA961222F072
:10498C00FE3211446FEA05024FEAD21242EA951246
:10499C0022F0FE3202EB01083FF4F3AE04F11005F5
:1049AC00BEF1020F2ECD6FEA01064FEAD61646EA8B
:1049BC0091116FEA020621F0FE314FEAD61646EA53
:1049CC009212414422F0FE3211446FEA03024FEA84
:1049DC00D21242EA931222F0FE3211446FEA05021F
:1049EC004FEAD21242EA951222F0FE3202EB010893
:1049FC003FF4C7AE04F120064ECECD43ED0945EA97
:104A0C009111D54321F0FE31ED0945EA9212414452
:104A1C0022F0FE321144DA43D20942EA931222F018
:104A2C00FE321144F243D20942EA961222F0FE32CF
:104A3C0002EB0108A5E60BF0FC0301295AF8232030
:104A4C006FEA02064FEAD61646EA921222F0FE32BE
:104A5C0015D00AEB830302295E686FEA06054FEA5C
:104A6C00D51545EA961626F0FE36324407D09968DD
:104A7C00CB43DB0943EA911121F0FE310A443FFAA2
:104A8C0082F13FFA92F2114401EB014100EB11402B
:104A9C0002B0BDE8000FF0BD0022BCF1000F3FF4E6
:104AAC00F3AD19F9021011F1410FC8BF0130BCF17F
:104ABC00010F3FF4E9AD4A4492F9011011F1410F95
:104ACC00C8BF0130BCF1020F3FF4DEAD92F9021009
:104ADC0011F1410FC8BF013002B0BDE8000FF0BDAD
:104AEC0080B56F4686B001460020012204900192E9
:104AFC0046F2781203900420C0F600020290684639
:104B0C000092FFF790FAF0B503AF2DE9000F87B0D4
:104B1C00046846F2940042F2107E0D467445C0F6CD
:104B2C0000003DD341F259784EF2FF03A7F1260B5A
:104B3C000021CDF2B71841F27B494FF0640AC0F264
:104B4C00F5530395A4FB08250BEB010C04399C428F
:104B5C004FEA553202FB1E451446AEB24FEA96069A
:104B6C0006FB09F64FEA564606FB1A5530F8166056
:104B7C00ACF80660ADB230F81550ACF80850E1D87E
:104B8C00039D01F10A031446632C0CD821460A2913
:104B9C001BD330F811009A1EA7F1260188521AE097
:104BAC000A23632CF2D9A1B241F27B428908023B61
:104BBC0051436422A7F12606490C01FB124292B222
:104BCC0030F81220F2520A29E3D241F030005A1E7A
:104BDC00A7F126018854C2F10A00114401220023D6
:104BEC00CDE9001028460121FFF780FA07B0BDE897
:104BFC00000FF0BDD0E90002D26810470B46D0E997
:104C0C0000121846FFF7F6BB80B56F468CB0CDE9A5
:104C1C000001002046F2A41106900220C0F600010B
:104C2C000390059008A8029101A9049044F6133052
:104C3C00C0F60000CDE9090111460B9068460890BA
:084C4C0002A8FFF7F0F9FEE7F2
:104C54002F686F6D652F616E746F6E2F2E63617296
:104C6400676F2F72656769737472792F7372632F1C
:104C7400696E6465782E6372617465732E696F2D35
:104C840036663137643232626261313530303166D2
:104C94002F73746D3332663478782D68616C2D30DF
:104CA4002E32322E312F7372632F7370692E72730A
:104CB400696E7465726E616C206572726F723A20EF
:104CC400656E746572656420756E72656163686192
:104CD400626C6520636F6465544C000860000000DA
:104CE4007F020000120000004572726F72496E76F6
:104CF400616C6964436F6E666967000000000000C0
:104D040000000000010000000D02000863616C6CEB
:104D140065642060526573756C743A3A756E777287
:104D24006170282960206F6E20616E206045727268
:104D3400602076616C75657372632F68772E727369
:104D44003B4D000809000000810000002D00000018
:104D54000000000000000000010000001D02000827
:104D64003B4D0008090000007F0000000700000020
:104D74003B4D000809000000220000002200000052
:104D84007372632F666F6E742E727300844D000805
:104D94000B0000001600000023000000844D0008F2
:104DA4000B0000001E0000001F000000F9020008B4
:104DB400C002191AC1024500C20133C5020028B15C
:104DC40002A011B40102B60300423BB70107E00F91
:104DD4001F25220B060A4EC639000000000000E120
:104DE4000F1F3F3F0F1F0F4649310509031C1A00CF
:104DF400F1083604003C0F0FA402F20918A31202B2
:104E04003212FF3200F4054000089104F802210434
:104E14003A01557372632F6C63642E727300000041
:104E2400174E00080A000000E4000000170000000C
:104E3400174E00080A000000E90000001C000000F2
:104E440048656C6C6F20576F726C642066726F6D6E
:104E5400205275737421000000000000000000005F
:104E64000000000000000000181818181818180096
:104E740018180000000000666666000000000000CC
:104E840000000000000000006C6C6CFE6C6CFE6C9A
:104E94006C6C000000000010107CD6D0D07C16167C
:104EA400D67C10100000000066D66C0C1818303642
:104EB4006B66000000000000386C6C3876DCCCCCEB
:104EC400DC76000000000018181800000000000044
:104ED40000000000000000000C183030303030308A
:104EE400180C00000000000030180C0C0C0C0C0C0A
:104EF40018300000000000000000006C38FE386C20
:104F0400000000000000000000000018187E1818BF
:104F1400000000000000000000000000000000008D
:104F240018183000000000000000000000FE00001F
:104F3400000000000000000000000000000000006D
:104F4400181800000000000006060C0C1818303079
:104F540060600000000000007CC6C6CEDEF6E6C637
:104F6400C67C0000000000001838781818181818BB
:104F7400187E0000000000007CC6C6060C183060D5
:104F8400C0FE0000000000007CC6C6063C0606C643
:104F9400C67C000000000000060E1E3666C6FE0633
:104FA4000606000000000000FEC0C0C0FC060606A5
:104FB400C67C0000000000003C60C0C0FCC6C6C641
:104FC400C67C000000000000FE06060C0C18183019
:104FD40030300000000000007CC6C6C67CC6C6C6D1
:104FE400C67C0000000000007CC6C6C6C67E06065D
:104FF4000C780000000000000000001818000000F9
:10500400181800000000000000000018180000003C
:10501400181830000000000000060C18306030182A
:105024000C06000000000000000000FE0000FE006E
:105034000000000000000000006030180C060C188E
:1050440030600000000000007CC6C6C60C181800C2
:1050540018180000000000007CC6CED6D6D6D6CEE6
:10506400C07E0000000000007CC6C6C6C6FEC6C6E0
:10507400C6C6000000000000FCC6C6C6FCC6C6C604
:10508400C6FC0000000000007CC6C6C0C0C0C0C68C
:10509400C67C000000000000F8CCC6C6C6C6C6C662
:1050A400CCF8000000000000FEC0C0C0F8C0C0C0C2
:1050B400C0FE000000000000FEC0C0C0F8C0C0C0B8
:1050C400C0C00000000000007CC6C6C0C0DEC6C66A
:1050D400C67C000000000000C6C6C6C6FEC6C6C622
:1050E400C6C60000000000003C181818181818184C
:1050F400183C0000000000001E0C0C0C0C0C0CCC26
:10510400CC78000000000000C6C6CCD8F0F0D8CCA3
:10511400C6C6000000000000C0C0C0C0C0C0C0C0FF
:10512400C0FE00000000000082C6EEFED6C6C6C661
:10513400C6C6000000000000C6C6C6E6F6DECEC63F
:10514400C6C60000000000007CC6C6C6C6C6C6C6E9
:10515400C67C000000000000FCC6C6C6C6FCC0C079
:10516400C0C00000000000007CC6C6C6C6C6C6C6D5
:10517400DE7C060000000000FCC6C6C6C6FCF0D8F3
:10518400CCC60000000000007CC6C0C07C0606C679
:10519400C67C000000000000FF1818181818181822
:1051A4001818000000000000C6C6C6C6C6C6C6C69B
:1051B400C67C000000000000C6C6C6C6C66C6C6C87
:1051C4003838000000000000C6C6C6C6C6D6FEEECB
:1051D400C682000000000000C6C66C6C38386C6CD7
:1051E400C6C6000000000000C3C366663C18181859
:1051F4001818000000000000FE06060C183060C0FD
:10520400C0FE0000000000003C3030303030303050
:10521400303C0000000000006060303018180C0CB6
:1052240006060000000000003C0C0C0C0C0C0C0CDE
:105234000C3C0000000000183C6600000000000068
:10524400000000000000000000000000000000005A
:10525400000000FE00003018000000000000000004
:1052640000000000000000000000007C067EC6C6AE
:10527400C67E000000000000C0C0C0FCC6C6C6C692
:10528400C6FC0000000000000000007CC6C0C0C0D6
:10529400C67C0000000000000606067EC6C6C6C620
:1052A400C67E0000000000000000007CC6C6FEC0F0
:1052B400C07C0000000000001E3030FC3030303074
:1052C40030300000000000000000007EC6C6C6C6E4
:1052D400C67E06067C000000C0C0C0FCC6C6C6C6AA
:1052E400C6C6000000000000181800381818181866
:1052F400183C0000000000000606000E0606060624
:10530400060666663C000000C0C0C0C6CCD8F0D813
:10531400CCC6000000000000381818181818181817
:10532400183C000000000000000000FCD6D6D6D6D1
:10533400D6D6000000000000000000FCC6C6C6C6A9
:10534400C6C60000000000000000007CC6C6C6C639
:10535400C67C000000000000000000FCC6C6C6C6F3
:10536400C6FCC0C0C00000000000007EC6C6C6C6A1
:10537400C67E060606000000000000DEF0E0C0C0A5
:10538400C0C00000000000000000007EC0C07C0619
:1053940006FC000000000000303030FC30303030BB
:1053A400301E000000000000000000C6C6C6C6C6CD
:1053B400C67E000000000000000000C6C6C66C6C7B
:1053C4003838000000000000000000C6C6D6D6D65B
:1053D400D67C000000000000000000C6C66C386CDB
:1053E400C6C6000000000000000000C6C6C6C6C64F
:1053F400C67E06067C000000000000FE0C1830602B
:10540400C0FE0000000000001C303030603030303E
:10541400301C00000000000018181818181818187C
:105424001818000000000000701818180C1818183C
:105434001870000000000073DBCE000000000000C4
:105444000000000000000000FEC6C6C6C6C6C6C6F0
:10545400C6FE0000000000005A4E000800060000CE
:10546400080000001000000046696E616C6C792031
:10547400697420776F726B73202E2E2E000000004B
:1054840000000000000000000000000000001010F8
:10549400101010101000101000000000002424242C
:1054A40000000000000000000000000000002424B0
:1054B400247E24247E242424000000000010107C78
:1054C4009290907C1212927C101000000000649460
:1054D40068081010202C524C000000000000182412
:1054E4002418304A4444443A0000000000101010CC
:1054F4000000000000000000000000000000081090
:10550400202020202020100800000000000020108F
:105514000808080808081020000000000000000027
:105524000024187E18240000000000000000000081
:105534000010107C101000000000000000000000AB
:105544000000000000001010200000000000000017
:105554000000007E000000000000000000000000C9
:10556400000000000000101000000000000004040F
:1055740008081010202040400000000000003C42B9
:1055840042464A526242423C0000000000000818B1
:10559400280808080808083E0000000000003C42F3
:1055A400420204081020407E0000000000003C423B
:1055B40042021C020242423C0000000000000206BB
:1055C4000A1222427E0202020000000000007E4015
:1055D40040407C020202423C0000000000001C200B
:1055E40040407C424242423C0000000000007E02F7
:1055F40002040408081010100000000000003C42DF
:1056040042423C424242423C0000000000003C4214
:105614004242423E02020438000000000000000042
:105624000010100000001010000000000000000036
:105634000010100000001010200000000000000402
:1056440008102040201008040000000000000000A2
:10565400007E00007E00000000000000000000400A
:1056640020100804081020400000000000003C4204
:1056740042420408080008080000000000007C8280
:105684009EA2A2A2A69A807E0000000000003C42D6
:105694004242427E424242420000000000007C42FC
:1056A40042427C424242427C0000000000003C42F4
:1056B400424040404042423C000000000000784428
:1056C40042424242424244780000000000007E40D0
:1056D400404078404040407E0000000000007E4092
:1056E40040407840404040400000000000003C4200
:1056F4004240404E4242423C000000000000424210
:1057040042427E4242424242000000000000381001
:1057140010101010101010380000000000000E04CB
:10572400040404040444443800000000000042441B
:10573400485060605048444200000000000040406F
:10574400404040404040407E00000000000082C6CF
:10575400AA92928282828282000000000000424269
:105764004262524A464242420000000000003C426B
:10577400424242424242423C0000000000007C425D
:105784004242427C404040400000000000003C4255
:105794004242424242424A3C0200000000007C4233
:1057A4004242427C504844420000000000003C4217
:1057B40040403C020242423C000000000000FE1057
:1057C40010101010101010100000000000004242D1
:1057D400424242424242423C000000000000424237
:1057E400424242242424181800000000000082824F
:1057F4008282829292AAC682000000000000424285
:10580400242418182424424200000000000082824C
:1058140044442810101010100000000000007E0204
:10582400020408102040407E0000000000003820E0
:1058340020202020202020380000000000004040CC
:10584400202010100808040400000000000038089C
:105854000808080808080838000000000010284458
:105864000000000000000000000000000000000034
:105874000000000000000000007E0000100800008E
:105884000000000000000000000000000000000014
:10589400003C023E4242423E000000000000404004
:1058A400407C42424242427C000000000000000072
:1058B400003C42404040423C000000000000020224
:1058C400023E42424242423E00000000000000000C
:1058D400003C42427E40403C0000000000000E10AC
:1058E400107C1010101010100000000000000000C8
:1058F400003E42424242423E02023C00000040401E
:10590400407C42424242424200000000000010102B
:1059140000301010101010380000000000000404C3
:10592400000C04040404040444443800000040400F
:1059340040424448704844420000000000003010D7
:1059440010101010101010380000000000000000AB
:1059540000FC9292929292920000000000000000DB
:10596400007C42424242424200000000000000002B
:10597400003C42424242423C000000000000000061
:10598400007C42424242427C404040000000000011
:10599400003E42424242423E020202000000000037
:1059A400005E6040404040400000000000000000F5
:1059B400003E40403C02027C000000000000101049
:1059C400107C10101010100E0000000000000000E9
:1059D400004242424242423E0000000000000000F9
:1059E4000042424224241818000000000000000075
:1059F400008282929292927C0000000000000000DB
:105A0400004242241824424200000000000000002A
:105A1400004242424242423E02023C000000000078
:105A2400007E04081020407E0000000000000C10DE
:105A3400101020101010100C0000000000001010B6
:105A4400101010101010101000000000000030089A
:105A54000808040808080830000000000062928C5E
:105A640000000000000000000000000000007E4272
:105A7400424242424242427E0000000000000000D6
:105A840000001038100000000000000000000000BA
:105A94000040407F40400000000000000000000083
:105AA400000000FF000000000000000000000000F3
:105AB400001018FC18100000000000000000000096
:105AC40000484C7E4C480000000000008054000850
