:020000040800F2
:1000000000000320AD010008F90500081F110008D9
:10001000F9050008F9050008F905000800000000CE
:10002000000000000000000000000000F9050008CA
:10003000F905000800000000F9050008F9050008AE
:10004000F9050008F9050008F9050008F905000898
:10005000F9050008F9050008F9050008F905000888
:10006000F9050008F9050008F9050008F905000878
:10007000F9050008F9050008F9050008F905000868
:10008000F9050008F9050008F9050008F905000858
:10009000F9050008F9050008F9050008F905000848
:1000A000F9050008F9050008F9050008F905000838
:1000B000F9050008F9050008F9050008F905000828
:1000C000F9050008F9050008F9050008F905000818
:1000D000F9050008F9050008F9050008F905000808
:1000E000F9050008F9050008F9050008F9050008F8
:1000F000F9050008F9050008F9050008F9050008E8
:10010000F9050008F9050008F9050008F9050008D7
:10011000F9050008F9050008F9050008F9050008C7
:10012000F9050008F9050008F9050008F9050008B7
:10013000F9050008F9050008F9050008F9050008A7
:10014000F9050008F9050008F9050008F905000897
:10015000F9050008F9050008F9050008F905000887
:10016000F9050008F9050008F9050008F905000877
:10017000F9050008F9050008F9050008F905000867
:10018000F9050008F9050008F9050008F905000857
:10019000F9050008F9050008F9050008F905000847
:0C01A000F9050008F9050008F905000841
:1001AC0000F025FA0E480F490022814201D004C00C
:1001BC00FBE70D480D490E4A814202D008CA08C01F
:1001CC00FAE70C484FF47001026842EA010202603F
:1001DC00BFF34F8FBFF36F8F00F013F800DE0000FA
:1001EC00000000200400002000000020000000207F
:1001FC00E012000888ED00E0C00708BF704700F06F
:10020C007ABF80B56F4600F000F880B56F468AB0B3
:10021C0000F07CFF044600F06CFF40F2000104F09B
:10022C000100C2F200010A78012A00F09981012232
:10023C0000280A7008BF00F05EFF49F2FF4541F24A
:10024C0000240020C0F6BA25691CCDE90010C0F2CC
:10025C007A0402A821460122012300F0CAF902986F
:10026C00022800F09F81C00700F0A981039845F691
:10027C000172C0F64C12A0F1B771A1F55851914220
:10028C0080F0748141194EF22F32C0F2BE02090A7D
:10029C00A1FB0213D90A01290CD0022907D000298D
:1002AC0000F079814FF400714FF0F00804E04FF04A
:1002BC00800801E04FF000084AF23F53B0FBF1F127
:1002CC00C0F2AE23CE18B609A6FB0265EE0A012ECB
:1002DC000BD0022E06D0002E00F05D8104264FF4C8
:1002EC00A05904E04FF4805901E04FF00009B1FB34
:1002FC00F6F602339E4280F0408144F68024C0F230
:10030C005D540B19013BDB09A3FB0223DA0A012A1A
:10031C000BD0022A06D0002A00F03D8104224FF4B3
:10032C00204603E04FF4004600E00026B1FBF2F259
:10033C00631C9A4280F02881013845F2C742C0F212
:10034C001E1243F60005C009C4F20205A0FB02020E
:10035C00D5F800040009920A60F31F1242F4E06021
:10036C00C5F80004286840F48030286028688003B1
:10037C0009D4286880035CBF28685FEA803002D407
:10038C0028688003F2D5286840F08070286047F612
:10039C000120C0F6032081422FD3286C40F08050FE
:1003AC00286400F0B0FE47F20400C4F2000050F8DC
:1003BC00041C41F4803140F8041C0168C90309D4C1
:1003CC000168C9035CBF01685FEAC13102D40168EE
:1003DC00C903F2D550F8041C41F4003140F8041C58
:1003EC000168890309D4016889035CBF01685FEA6D
:1003FC00813102D401688903F2D52868800109D4BF
:10040C00286880015CBF28685FEA801002D42868E5
:10041C008001F2D5A8684FF6F04220F40000A860E5
:10042C00D5F88C0020F47000C5F88C00A96849EA56
:10043C000800304391430843A860102000F05DFE93
:10044C00A86802214FF0A06241F6080361F3010095
:10045C00A860286B45F25551C5F20001C4F20203A5
:10046C0040F008002863286B00264FF0AA0C4FF0D0
:10047C00550E40F010002863286B40F020002863D4
:10048C0040F61840C4F2020040F8181C45F25551D1
:10049C00C0F24001C0F8E81341F21801C4F20201A5
:1004AC00C1F8E82348F2FF020260FF220A6045F21D
:1004BC00555240F80C2C41F80C2CC1F8F4235A601E
:1004CC004FF6FF7240F8102CC0F8F023C1F8F0235F
:1004DC001A604FF080432A6C42F001022A642422F5
:1004EC004FF0FF35C4F200021E6042F8206C5660DB
:1004FC00956042F8186C1E6846F001061E604FF4B9
:10050C007F0303600B60C0F800C0C1F800E0166800
:10051C001568AD1BA5420BD21568AD1BA5423EBF9D
:10052C001568AD1BA54203D21568AD1BA542EFD3D0
:10053C000B600360C1F800C0C0F800E016681568D5
:10054C00AD1BA542DDD21568AD1BA5423EBF15689B
:10055C00AD1BA542D5D21568AD1BA542EFD3D0E794
:10056C0080F00100FFF748FE00F033F841F2212043
:10057C005C21C0F6000000F035F841F27D203121FD
:10058C00C0F6000000F02EF841F2AE203121C0F68A
:10059C00000000F027F841F24B102821C0F60000B3
:1005AC0000F020F807A82146002200F062FBDDE9EC
:1005BC000702002380F00101204600F05CFC00F0F3
:1005CC0008F880B56F4600F013F880B56F46FFF75A
:1005DC00F8FF80B56F4641F220102B21C0F60000C9
:1005EC0000F000F880B56F46FFF7EBFFFEE77047B1
:1005FC00FEE7F0B503AF2DE9000F85B08146D7E9D2
:10060C0002AE13F0010004BF8A46BEF1000F23D0E6
:10061C004DF6836348F27F44C4F21B33C0F21E04D0
:10062C000D19A1FB0360BAF1000FA5FB033600F016
:10063C00F4814FEA904C4FF68010C0F237304FEAFD
:10064C00D64B82451AD94CF60040C1F6BF10B0FB10
:10065C00FAF020F0010012E0022043F60401C9F880
:10066C00000043F21000C2F20040C4F2020162F337
:10067C009650086005B0BDE8000FF0BD082000FBE7
:10068C000AF8BEF1000F0490CDF80C801CBF46F6A2
:10069C000048C0F2DC28E34500F2C1814FF00000B5
:1006AC0004F1010338BF01209D42C0F0B6818B4597
:1006BC0000F2B38144F2402EE345C0F20F0E0292D9
:1006CC0030D2584460452DD8B1FBFBF36045B8FBE4
:1006DC00F3F505FB138515D2002800F09E818842A6
:1006EC0000F29B81B1FBF0F3441CB8FBF3F606FB64
:1006FC001383AB4238BF83469D4228BF1D46A44599
:10070C002046E9D17145C0F08881B1FBFCF0B8FB03
:10071C00F0F202FB1080A84205D3BBF1000FDC46BF
:10072C0001D17AE1DC46B1FBFCFB0EF10101ABF52A
:10073C007420DDF810E0A0F51070884280F066811E
:10074C00FD68002D00F01C81BEF1000F00F06581EA
:10075C004BF2000043F23433C0F67130C3F2333342
:10076C00B0FBFBF000FB0BF141F60040C0F64E6015
:10077C00B0FBFBF0B1FBFEF200FB0BF0AAEB0206A8
:10078C00B0FBFEF2BAEB020548BF6D42002ECDF86D
:10079C00049048BF7642A0FB0304721B48F600008D
:1007AC0018BF0122C1F22A10AE42B0FBFBF0B8BF59
:1007BC004FF0FF3200FB0BF0B4EB910918BF4FF078
:1007CC000109B4EB910F38BF4FF0FF39B9F1000FAD
:1007DC0008BF9146B9F1010FB0FBFEF208BF2E46DF
:1007EC00BAEB020248BF5242B31A18BF0123964219
:1007FC00B8BF4FF0FF33B9F1010F18BF8C084AF6A0
:10080C00AB21C2F6AA21A0FB01014FF20040C1F2BC
:10081C000640B0FBFBF00D1B18BF0125A14238BFF1
:10082C004FF0FF35002D08BF1D46012D08BF1646A1
:10083C0000FB0BF2B2FBFEF0BAEB000048BF4042EB
:10084C00331A18BF01238642B8BF4FF0FF33012D76
:10085C0008BF0C4644F62511C2F29241A2FB0118C6
:10086C00B8EB040118BF0121A04538BF4FF0FF3190
:10087C00002908BF1946012908BF064646F20000A8
:10088C00C1F2E360B0FBFBF000FB0BF2B2FBFEF03D
:10089C00BAEB000048BF4042331A18BF012386420E
:1008AC00B8BF4FF0FF33012908BF4446B4EBD20E5A
:1008BC0018BF4FF0010EB4EBD20F039288BF4FF06C
:1008CC00FF3EBEF1000F08BF9E46BEF1010F08BFF0
:1008DC0006464CF600404BF20002C1F6BF10C0F6C3
:1008EC007132B0FBFBF000FB0BF80498B8FBF0F096
:1008FC00BAEB000A48BFCAF1000AB6EB0A0018BFEF
:10090C000120B9F1010F04BF41F60042C0F64E625E
:10091C00012D04BF48F60002C1F22A1201294CF243
:10092C001D7104BF4FF20042C1F20642C1F6714183
:10093C00BEF1010FA8FB011304BF46F20002C1F285
:10094C00E3625645B8BF4FF0FF30BEF1010F03997B
:10095C0008BFCC08FD68191B18BF0121A34238BF82
:10096C004FF0FF31002908BF0146012904BF4CF6A6
:10097C000042C1F6BF12DDF80490DDF810E00392DE
:10098C00039846F60042C0F2DC22B0FBFBF000FB01
:10099C000B210139914240D3029B49F68176C1F279
:1009AC005E664FF00052002B4FF4403303EBCE3316
:1009BC00A1FB066118BF4FF0015203F440331A44F7
:1009CC000CF03F03BEF1000F1A4447F6C07303EA64
:1009DC0080131A4401F0707342EA830243F6040355
:1009EC00C4F202031A6018D000FB0BF0890D01222F
:1009FC00B0FBF1F1B0FBFEF0C9E90020C9E90251EE
:100A0C00C9F810C005B0BDE8000FF0BD41F273107D
:100A1C003B21C0F60000FFF7E5FDFFF7D6FDFFF721
:100A2C00D8FDF0B503AF2DE9000F85B0002A00F01A
:100A3C00B180D7F808A0B1FBF2FE4FEA5E098A42FA
:100A4C000390CDE9011221D90220A3FB0026002E30
:100A5C0000F0A0800130504568D0A3FB0026002E8A
:100A6C0000F098800130504560D0A3FB0026002E8A
:100A7C0000F090800130504558D0A3FB0026002E8A
:100A8C0000F0888001305045DFD14FE04EF6013444
:100A9C0041F60071CAF100080320C1F2C934CFF647
:100AAC000A21461EA3FB062535B94A44B2FBFEFBC0
:100ABC000BFB0E12A2425FD3824537D0A3FB00255D
:100ACC00461C35B94A44B2FBFEFB0BFB0E12A2428C
:100ADC0057D308EB0002551C28D0D446A3FB065A6A
:100AEC000496861CBAF1000F0ED14D44B5FBFEFBEB
:100AFC004EF601350BFB0E14C1F2C935AC424EF665
:100B0C000134C1F2C93440D30232E2460ED0A3FB09
:100B1C00062535B94A44B2FBFEFB0BFB0E12A24272
:100B2C003AD3043008EB0002012ABAD1A3FB0A0223
:100B3C00DAB9DDE901128A422CD848444EF601316B
:100B4C00B0FBFEFB41F60070CFF60A20C1F2C931B2
:100B5C000BFB0E00884208D20BFB0EF0B0FBFAF830
:100B6C00B8EB030548BF6D4271E0002003990860A3
:100B7C0005B0BDE8000FF0BD04960BFB0EF2064667
:100B8C0006E00BFB0EF205460BE00BFB0EF2E24609
:100B9C00049D35B9FFF719FD033035460BFB0EF2FA
:100BAC000646B2FBF5F80495B8EB030548BF6D4259
:100BBC00564502D9DDF810A048E0AC461ED3A3FB85
:100BCC000A02002A3FD14844B0FBFEF000FB0E1293
:100BDC00A24238D200FB0EF2B2FBFAF6F21A48BF70
:100BEC0052429542654688BFB046049992BF8A46E8
:100BFC00834615462AE00136B245E0D0A3FB060237
:100C0C00002AF8D14844B0FBFEF000FB0E12A242C1
:100C1C00F1D2002EBED000FB0EF2B2FBF6F4E21ABB
:100C2C0048BF5242954288BFA046049C88BF3446B8
:100C3C0004944EF6013484BF83469446C1F2C93401
:100C4C0028BF1546D7E7DDF810A06546029A1004B8
:100C5C001FFA8BF13FFA80F040EA0A6008440399CE
:100C6C00C1E901080120CD60086005B0BDE8000FA6
:100C7C00F0BDF0B503AF2DE9000F8FB00D46D107D5
:100C8C00049320D04DF68361C4F21B31A5FB0123E4
:100C9C0048F27F42C0F21E022A44A2FB01169A0CB3
:100CAC0003924FEAD648B8EB934F12D94FF0020E8D
:100CBC000AAB0021C3F800E00A9C022C2ED14FF0A5
:100CCC00020B0BAAA1E0012101600FB0BDE8000FDF
:100CDC00F0BD04460720049B294600900BA8424611
:100CEC00FFF79FFE0B98002800F0B780039A0021B5
:100CFC009DF832C009AB9DF833909045DDE90DAEFF
:100D0C0020460A9128BF0121BDF8306038BF08F198
:100D1C000108C3F800E00A9C022CD0D0DDF824B006
:100D2C000023904588BF0123194301D0614665E03B
:100D3C00CDE9064B9045CDF814A0E246E34602956A
:100D4C000190CDF820E02FD207200299049B424657
:100D5C0000900BA8FFF765FE0B9800287DD0089C2F
:100D6C0008F101089DF83310DDE90D3294429DF82D
:100D7C003200BDF8305082BF894683462E46059915
:100D8C0088BF1946059188BF82460798944288BF50
:100D9C0010460790069888BF0020069028BF14467E
:100DAC00039A08944245CFD107200299049B0090E6
:100DBC000BA8FFF736FE0B9800284ED0089CD446A3
:100DCC009DF83310DDE90D3294429DF83200BDF8E8
:100DDC00305088BF8946594684BF01462E46059D32
:100DEC0088BF1D4688BF8446DDF81CB0944288BF7E
:100DFC009346069C88BF00240198AA46C9B20AAA49
:100E0C00C6EA01410B9441EA0961C2F800B00B9AA1
:100E1C00022A29D0C0E9002C0B0CC0F808A043F61C
:100E2C000400C4F20200026863F30502026047F694
:100E3C00C072D0F8803002EA811201F0E06142EA1F
:100E4C00011148F23F02C8F6FF721A401144C0F873
:100E5C0080100FB0BDE8000FF0BD41F2D510252178
:100E6C00C0F60000FFF7BEFB41F2AE102721C0F622
:100E7C000000FFF7B7FBF0B503AF2DE9000F87B00B
:100E8C000646C80709D0D8076AD0BB6802A8314605
:100E9C0000F098F802AB0FCB6AE0D80760D04DF6A3
:100EAC008361C4F21B31A6FB012048F27F42C0F2E1
:100EBC001E023244A2FB0112D40CB4EB904F48D862
:100ECC00BB684FEA904802A83146224600F07AF8F7
:100EDC000020444538BF0120DDF808B0BBF1020FFB
:100EEC0037D0DDE903294445059B3ED204444445F3
:100EFC003BD8DDF818A01D46CDF80480904618D2DA
:100F0C00BB6802A83146224600F05CF83046069ECB
:100F1C00DDE902C10134DDE90423B24581BF1D4680
:100F2C0091468846E34628BFB24606460198A04241
:100F3C00E6D1019A02A8BB68314600F043F802AE34
:100F4C004FCEB2459FBF2B464A46414658460228D3
:100F5C000ED141F2FA102721C0F60000FFF742FB38
:100F6C00012007B0BDE8000FF0BD114658464A46B7
:100F7C0043F68C064FF4F85505EB0323C4F2020636
:100F8C003668150C1B0A63F30C2643F68C03C4F26B
:100F9C0002031E6053F8886C65F3050643F8886CF1
:100FAC0002F0706653F8045C62F38E1648F23F024E
:100FBC00CFF2FF022A40324443F8042C07B0BDE8BC
:100FCC00000FF0BDF0B503AF2DE9000F8BB007ADEE
:100FDC00039058001C468B464FF0000A4FF0020855
:100FEC004FF00F090692029004EB0A06069A284667
:100FFC0059463346CDF80090FFF713FD0798B0B96A
:10100C0008F10108B246B8F1210FEDD10F20069A74
:10101C00009007A863015946FFF703FD07980128C4
:10102C0060D1DDE908922023DDF828A050E0DDE94D
:10103C000892A8F101030A9E1F2B01D9B24647E082
:10104C00B8F1200F049218D11F20B24605900F2042
:10105C00069A009007A863015946FFF7E2FC07982F
:10106C00A0B308AA059B07CA964284BF20239246C8
:10107C00049A84BF0A4681462AE00298059300EB45
:10108C000A05B24605E008F101082544B8F1200F25
:10109C00DDD00F20069A009007A859462B46FFF783
:1010AC00C0FC07980028EED008AA059B07CA9642F8
:1010BC0088BF4346059388BF9246049B88BF0B4666
:1010CC00049388BF814628BF1646DCE7DDE904237C
:1010DC000399002081E80502C1E9033A0BB0BDE891
:1010EC00000FF0BD41F2AE102721C0F60000FFF753
:1010FC0079FA72B6704762B67047012101EB500065
:10110C000138FDD17047BFF34F8F7047EFF310805C
:04111C007047FEE733
:1011200063616C6C656420604F7074696F6E3A3AED
:10113000756E77726170282960206F6E2061206063
:101140004E6F6E65602076616C7565696E74657250
:101150006E616C206572726F723A20656E74657292
:10116000656420756E726561636861626C65206399
:101170006F6465617373657274696F6E206661690F
:101180006C65643A2028315F3030305F3030302E6B
:101190002E3D325F3030305F303030292E636F6E3D
:1011A0007461696E73282676636F5F696E296E6F4E
:1011B000207375697461626C652049325320504C0C
:1011C0004C20636F6E66696775726174696F6E201B
:1011D000666F756E64646964206E6F742066696EF4
:1011E0006420616E792076616C69642049325320F5
:1011F000504C4C20636F6E6669676E6F2073756923
:101200007461626C652053414920504C4C20636FDF
:101210006E66696775726174696F6E20666F756E50
:1012200064617373657274696F6E206661696C6561
:10123000643A20756E636865636B6564207C7C200E
:1012400021737973636C6B5F6F6E5F706C6C207C65
:101250007C2028535953434C4B5F4D494E2E2E3D15
:10126000535953434C4B5F4D4158292E636F6E7455
:1012700061696E732826737973636C6B296173736C
:10128000657274696F6E206661696C65643A207579
:101290006E636865636B6564207C7C2070636C6B37
:1012A00031203C3D2050434C4B315F4D41586173E0
:1012B00073657274696F6E206661696C65643A204B
:1012C000756E636865636B6564207C7C2070636CFD
:1012D0006B32203C3D2050434C4B325F4D41580017
:04000005080001AD41
:00000001FF
