:020000040800F2
:1000000000000320AD010008A7FA00083708010826
:10001000A7FA0008A7FA0008A7FA000800000000E5
:10002000000000000000000000000000A7FA000827
:10003000A7FA000800000000A7FA0008A7FA0008C5
:10004000A7FA0008A7FA0008A7FA0008A7FA00080C
:10005000A7FA0008A7FA0008A7FA0008A7FA0008FC
:10006000A7FA0008A7FA0008A7FA0008A7FA0008EC
:10007000A7FA0008A7FA0008A7FA0008A7FA0008DC
:10008000A7FA0008A7FA0008A7FA0008A7FA0008CC
:10009000A7FA0008A7FA0008A7FA0008A7FA0008BC
:1000A000A7FA0008A7FA0008A7FA0008A7FA0008AC
:1000B000A7FA0008A7FA0008A7FA0008A7FA00089C
:1000C000A7FA0008A7FA0008A7FA0008A7FA00088C
:1000D000A7FA0008A7FA0008A7FA0008A7FA00087C
:1000E000A7FA0008A7FA0008A7FA0008A7FA00086C
:1000F000A7FA0008A7FA0008A7FA0008A7FA00085C
:10010000A7FA0008A7FA0008A7FA0008A7FA00084B
:10011000A7FA0008A7FA0008A7FA0008A7FA00083B
:10012000A7FA0008A7FA0008A7FA0008A7FA00082B
:10013000A7FA0008A7FA0008A7FA0008A7FA00081B
:10014000A7FA0008A7FA0008A7FA0008A7FA00080B
:10015000A7FA0008A7FA0008A7FA0008A7FA0008FB
:10016000A7FA0008A7FA0008A7FA0008A7FA0008EB
:10017000A7FA0008A7FA0008A7FA0008A7FA0008DB
:10018000A7FA0008A7FA0008A7FA0008A7FA0008CB
:10019000A7FA0008A7FA0008A7FA0008A7FA0008BB
:0C01A000A7FA0008A7FA0008A7FA000858
:1001AC000FF07CFC0E480F490022814201D004C0A4
:1001BC00FBE70D480D490E4A814202D008CA08C01F
:1001CC00FAE70C484FF47001026842EA010202603F
:1001DC00BFF34F8FBFF36F8F03F032FC00DE0000D4
:1001EC00000000200400002000000020000000207F
:1001FC008820010888ED00E080B56F46A2B00A4661
:10020C00C969CB0616D4890621D4017864294CD34C
:10021C0029204843030B6FF0630013FB001041F6D9
:10022C002A51C0F60101C0B231F81000ADF8090036
:10023C0000203EE0007800F00F0101F157030A297D
:10024C0038BF01F130038DF8873057210BE000786F
:10025C0000F00F0101F137030A2938BF01F1300317
:10026C0037218DF8873001EB10110309A02838BF16
:10027C0003F13001102838BF00218DF886104FF0A3
:10028C00020138BF0121009102A9102801F17E035F
:10029C00104638BF01F17F0341F62851C0F6010129
:1002AC0002220FF009F822B080BD0A2906D20220E2
:1002BC000B4643F0300102AB195408E041F62A50CA
:1002CC00C0F6010030F81100ADF80900012080F0F3
:1002DC000301009102A90B181046012100220EF017
:1002EC00EBFF22B080BDF0B503AF2DE9000F8DB050
:1002FC0006680C46307880B1D4E905B940F659014E
:10030C00D9F80C50C0F6010104225846A84790B108
:10031C0001200DB0BDE8000FF0BD40F66901D4E935
:10032C000502D368C0F6010104220DB0BDE8000F30
:10033C00BDE8F0401847D4F81CA006F101085FEAAC
:10034C004A7015D441F625515846C0F601010122D8
:10035C00A847014601200029DBD140462146FFF782
:10036C004BFF002846D001200DB0BDE8000FF0BDBA
:10037C0041F626515846C0F601010222A847014613
:10038C0001200029C5D104F10806A7F1410141F66D
:10039C00005507F8410C4CCE6846C0F60105CDE976
:1003AC000191D4E900C1099006A8CDE904C104A9C2
:1003BC000A9594F820504CC04046CDF800B0CDF8CA
:1003CC002CA08DF83050FFF717FF20B101200DB095
:1003DC00BDE8000FF0BDDDE909010222CB6841F652
:1003EC002051C0F60101984720B101200DB0BDE8A5
:1003FC00000FF0BDD4E905010122CB6841F6D041D4
:10040C00C0F6010198470DB0BDE8000FF0BDF0B586
:10041C0003AF2DE9000FA3B08946C969CA064ED4B3
:10042C00890600F18A80016842F210704FF69C7EBA
:10043C00814241F62A50C0F60100C0F0D68041F24C
:10044C0059784EF2FF040DF10C0BCDF808900022F8
:10045C00CDF2B7184DF6F00941F27B4AC0F2F554D3
:10046C00A1FB08350BEB020C043AA1424FEA5533C1
:10047C0003FB09151946AEB24FEA960606FB0AF6BF
:10048C004FEA564606FB0E5530F81660ACF806607F
:10049C00ADB230F81550ACF80850E1D8DDF8089042
:1004AC000A321946632900F2A4800B460A2BC0F0CD
:1004BC00B180911E30F8130003AA5052AFE00368CC
:1004CC000DF10C0E802481214FF05708204603F0CB
:1004DC000F0404F157050A2C38BF04F130050EEB5C
:1004EC000104102B04F8025C66D3DDB2A02D08EBDE
:1004FC0015164FEA151238BF02F130061D0A04F822
:10050C00036C5CD005F00F02043902F157050A2A7E
:10051C0038BF02F1300504F8045C1D0B52D005F015
:10052C000F0202F157050A2A38BF02F1300504F810
:10053C00055C041F1B0CC9D13CE003680DF10C0ECB
:10054C00802481214FF0370C03F00F06204606F172
:10055C0037050A2E0EEB010438BF06F13005102BBF
:10056C0004F8025C28D3DEB2A02E0CEB16154FEA71
:10057C00161238BF02F1300504F8035C1D0A1ED0B8
:10058C0005F00F02043902F137050A2A38BF02F1CF
:10059C00300504F8045C1D0B14D005F00F0202F1B9
:1005AC0037050A2A38BF02F1300504F8055C041F30
:1005BC001B0CC9D1033807E08C1E481E04E001381F
:1005CC00CC1E01E002380C4641F62851C0F18100E6
:1005DC000EEB04030090C0F60101484602220EF017
:1005EC006BFE23B0BDE8000FF0BD0A2263297FF635
:1005FC005CAF8BB241F27B469B08023A734303AE6D
:10060C005B0C03FB0E1189B230F81110B1520A2B9E
:10061C00BFF44FAF511E03AA43F030005054C1F148
:10062C000A00009003A800224318484601210EF04E
:10063C0043FE23B0BDE8000FF0BDC00708BF7047F4
:10064C000FF0B0BFB0B502AF84B0044604300D4615
:10065C000190D1E905010922CB6840F63801C0F6BA
:10066C00010198478DF80C0040F21B400021C0F6A8
:10067C0000008DF80D1040F64101009002A8C0F664
:10068C0001010B22234602950EF040FF40F2F321AC
:10069C0001ABC0F600010922009140F64C01C0F6F6
:1006AC0001010EF033FF9DF80D209DF80C10012A6E
:1006BC0042EA010008BF5FEAC17103D000F00100FB
:1006CC0004B0B0BD0298017F49070CD4D0E90501F4
:1006DC000222CB6841F62351C0F60101984700F085
:1006EC00010004B0B0BDD0E905010122CB6841F690
:1006FC002251C0F60101984700F0010004B0B0BDD2
:10070C00D1E9050240F67D01D368C0F601010D2246
:10071C001847F0B503AF2DE9000F83B0BC689A46BB
:10072C009046D4E902B52B465A4600F0EEF8A8F1F3
:10073C0020000BF107016843C90801914843616827
:10074C008142C0F0DE80002D18BFBBF1000F0AD132
:10075C0040F618404FF48041C4F20200016003B02F
:10076C00BDE8000FF0BD22682426091A002302EB15
:10077C00000943F20802C4F20006C4F201024FF071
:10078C000708009504E0029B009D0133AB42DFD0CB
:10079C0001980025029303FB00FE02E001355D4544
:1007AC00F1D00EEBD500884280F0AD8019F8000036
:1007BC0028EA0503D6F800C0D84000F001004042FA
:1007CC0000EA0A003368A3EB0C03592B0ED83368EC
:1007DC00A3EB0C03592B9EBF3368A3EB0C03592BD3
:1007EC0004D83368A3EB0C035A2BEBD313689B0789
:1007FC0009D413689B075CBF13685FEA837302D448
:10080C0013689B07F2D583B21B0A53601368DB078E
:10081C0009D11368DB0704BF13685FEAC37302D105
:10082C001368DB07F2D013681B0609D513681B0687
:10083C0044BF13685FEA036302D513681B06F2D446
:10084C00536833683468E41A592C0BD83468E41AAA
:10085C00592C9EBF3468E41A592C03D83468E41A16
:10086C005A2CEFD333683468E41A592C0BD83468FB
:10087C00E41A592C9EBF3468E41A592C03D83468F6
:10088C00E41A5A2CEFD313689B0709D413689B07FF
:10089C005CBF13685FEA837302D413689B07F2D5BD
:1008AC00C0B250601068C00709D11068C00704BFFF
:1008BC0010685FEAC07002D11068C007F2D01068EF
:1008CC00000609D51068000644BF10685FEA006096
:1008DC0002D510680006F2D45068306833681B1AD1
:1008EC00592B3FF65BAF33681B1A592B9EBF3368ED
:1008FC001B1A592B3FF652AF33681B1A5A2BEDD3E8
:10090C004CE70FF0B5F80EF0CFFCF0B503AF4DF897
:10091C00048D40F6184C4FF00056C4F2020C40F215
:10092C00240ECCF800684FF08046CCF80060C4F27E
:10093C00000EDEF80060A1F10108441EDEF8005044
:10094C00AD1B592D0ED8DEF80050AD1B592D9EBF96
:10095C00DEF80050AD1B592D04D8DEF80050AD1B4D
:10096C005A2DEBD3144443F20802C4F20102156869
:10097C00AD0709D41568AD075CBF15685FEA8575CE
:10098C0002D41568AD07F2D52A2555601568ED0718
:10099C0009D11568ED0704BF15685FEAC57502D16A
:1009AC001568ED07F2D015682D0609D515682D06CA
:1009BC0044BF15685FEA056502D515682D06F2D4AB
:1009CC005568DEF80060DEF80050AD1B592D0ED8CE
:1009DC00DEF80050AD1B592D9EBFDEF80050AD1B4C
:1009EC00592D04D8DEF80050AD1B5A2DEBD34FF423
:1009FC008045CCF800504FF40055CCF800584FF01F
:100A0C008045CCF80050DEF80060DEF80050AD1BDD
:100A1C00592D0ED8DEF80050AD1B592D9EBFDEF8B7
:100A2C000050AD1B592D04D8DEF80050AD1B5A2DCB
:100A3C00EBD343441568AD0709D41568AD075CBF0B
:100A4C0015685FEA857502D41568AD07F2D50025E7
:100A5C0055601568ED0709D11568ED0704BF1568D9
:100A6C005FEAC57502D11568ED07F2D015682D0641
:100A7C0009D515682D0644BF15685FEA056502D5D2
:100A8C0015682D06F2D45568DEF80050DEF80060CB
:100A9C00761B592E0ED8DEF80060761B592E9EBFA1
:100AAC00DEF80060761B592E04D8DEF80060761B49
:100ABC005A2EEBD3DEF80050DEF80060761B592E70
:100ACC000ED8DEF80060761B592E9EBFDEF8006053
:100ADC00761B592E04D8DEF80060761B5A2EEBD309
:100AEC001568AD0709D41568AD075CBF15685FEADA
:100AFC00857502D41568AD07F2D5C0F3072555608E
:100B0C001568ED0709D11568ED0704BF15685FEA94
:100B1C00C57502D11568ED07F2D015682D0609D5FB
:100B2C0015682D0644BF15685FEA056502D5156882
:100B3C002D06F2D45568DEF80050DEF80060761B06
:100B4C00592E0ED8DEF80060761B592E9EBFDEF8AB
:100B5C000060761B592E04D8DEF80060761B5A2EE6
:100B6C00EBD34FF48045CCF800504FF40055CCF843
:100B7C0000584FF08045CCF80050DEF80050DEF8FD
:100B8C000060761B592E0ED8DEF80060761B592EAD
:100B9C009EBFDEF80060761B592E04D8DEF800608C
:100BAC00761B5A2EEBD31568AD0709D41568AD0723
:100BBC005CBF15685FEA857502D41568AD07F2D580
:100BCC00002555601568ED0709D11568ED0704BFC0
:100BDC0015685FEAC57502D11568ED07F2D0156886
:100BEC002D0609D515682D0644BF15685FEA056505
:100BFC0002D515682D06F2D45568DEF80050DEF8E3
:100C0C000060761B592E0ED8DEF80060761B592E2C
:100C1C009EBFDEF80060761B592E04D8DEF800600B
:100C2C00761B5A2EEBD3DEF80050DEF80060761BF4
:100C3C00592E0ED8DEF80060761B592E9EBFDEF8BA
:100C4C000060761B592E04D8DEF80060761B5A2EF5
:100C5C00EBD31568AD0709D41568AD075CBF1568F3
:100C6C005FEA857502D41568AD07F2D5C0B2506045
:100C7C001068C00709D11068C00704BF10685FEA8C
:100C8C00C07002D11068C007F2D01068000609D5F8
:100C9C001068000644BF10685FEA006002D5106857
:100CAC000006F2D45068DEF80000DEF800502D1A71
:100CBC00592D0ED8DEF800502D1A592D9EBFDEF896
:100CCC0000502D1A592D04D8DEF800502D1A5A2D2B
:100CDC00EBD34FF48040CCF800004FF40050CCF82C
:100CEC0000084FF08040CCF80000DEF80000DEF881
:100CFC0000502D1A592D0ED8DEF800502D1A592DF2
:100D0C009EBFDEF800502D1A592D04D8DEF8005085
:100D1C002D1A5A2DEBD31068800709D41068800760
:100D2C005CBF10685FEA807002D410688007F2D54F
:100D3C00002050601068C00709D11068C00704BFBC
:100D4C0010685FEAC07002D11068C007F2D010685A
:100D5C00000609D51068000644BF10685FEA006001
:100D6C0002D510680006F2D45068DEF80000DEF8F8
:100D7C0000502D1A592D0ED8DEF800502D1A592D71
:100D8C009EBFDEF800502D1A592D04D8DEF8005005
:100D9C002D1A5A2DEBD3DEF80000DEF800502D1A78
:100DAC00592D0ED8DEF800502D1A592D9EBFDEF8A5
:100DBC0000502D1A592D04D8DEF800502D1A5A2D3A
:100DCC00EBD31068800709D4106880075CBF1068EB
:100DDC005FEA807002D410688007F2D5C4F3072054
:100DEC0050601068C00709D11068C00704BF1068B4
:100DFC005FEAC07002D11068C007F2D0106800061C
:100E0C0009D51068000644BF10685FEA006002D57F
:100E1C0010680006F2D45068DEF80000DEF80050CE
:100E2C002D1A592D0ED8DEF800502D1A592D9EBFB3
:100E3C00DEF800502D1A592D04D8DEF800502D1A6A
:100E4C005A2DEBD34FF48040CCF800004FF40050F7
:100E5C00CCF800084FF08040CCF80000DEF8000021
:100E6C00DEF800502D1A592D0ED8DEF800502D1A30
:100E7C00592D9EBFDEF800502D1A592D04D8DEF8DE
:100E8C0000502D1A5A2DEBD31068800709D4106826
:100E9C0080075CBF10685FEA807002D4106880071E
:100EAC00F2D5002050601068C00709D11068C00747
:100EBC0004BF10685FEAC07002D11068C007F2D09E
:100ECC001068000609D51068000644BF10685FEA78
:100EDC00006002D510680006F2D45068DEF80000FD
:100EEC00DEF800502D1A592D0ED8DEF800502D1AB0
:100EFC00592D9EBFDEF800502D1A592D04D8DEF85E
:100F0C0000502D1A5A2DEBD3DEF80000DEF80050FD
:100F1C002D1A592D0ED8DEF800502D1A592D9EBFC2
:100F2C00DEF800502D1A592D04D8DEF800502D1A79
:100F3C005A2DEBD31068800709D4106880075CBF6A
:100F4C0010685FEA807002D410688007F2D5E0B2B6
:100F5C0050601068C00709D11068C00704BF106842
:100F6C005FEAC07002D11068C007F2D010680006AA
:100F7C0009D51068000644BF10685FEA006002D50E
:100F8C0010680006F2D45068DEF80000DEF800406D
:100F9C00241A592C0ED8DEF80040241A592C9EBF66
:100FAC00DEF80040241A592C04D8DEF80040241A2C
:100FBC005A2CEBD34FF48040CCF800004FF000508B
:100FCC00CCF800084FF08040CCF80000DEF80000B0
:100FDC00DEF80040241A592C0ED8DEF80040241AF2
:100FEC00592C9EBFDEF80040241A592C04D8DEF888
:100FFC000040241A5A2CEBD31068800709D41068CF
:10100C0080075CBF10685FEA807002D410688007AC
:10101C00F2D52B2050601068C00709D11068C007AA
:10102C0004BF10685FEAC07002D11068C007F2D02C
:10103C001068000609D51068000644BF10685FEA06
:10104C00006002D510680006F2D45068DEF800008B
:10105C00DEF80040241A592C0ED8DEF80040241A71
:10106C00592C9EBFDEF80040241A592C04D8DEF807
:10107C000040241A5A2CEBD34FF48040CCF80000DB
:10108C004FF40050CCF800084FF08040CCF8000032
:10109C00DEF80000DEF80040241A592C0ED8DEF8D9
:1010AC000040241A592C9EBFDEF80040241A592CFB
:1010BC0004D8DEF80040241A5A2CEBD310688007B1
:1010CC0009D4106880075CBF10685FEA807002D496
:1010DC0010688007F2D5002050601068C00709D155
:1010EC001068C00704BF10685FEAC07002D11068B6
:1010FC00C007F2D01068000609D51068000644BF7E
:10110C0010685FEA006002D510680006F2D45068DF
:10111C00DEF80000DEF80040241A592C0ED8DEF858
:10112C000040241A592C9EBFDEF80040241A592C7A
:10113C0004D8DEF80040241A5A2CEBD3DEF8000059
:10114C00DEF80040241A592C0ED8DEF80040241A80
:10115C00592C9EBFDEF80040241A592C04D8DEF816
:10116C000040241A5A2CEBD31068800709D410685D
:10117C0080075CBF10685FEA807002D4106880073B
:10118C00F2D5C1F3072050601068C00709D1106870
:10119C00C00704BF10685FEAC07002D11068C007B6
:1011AC00F2D01068000609D51068000644BF10681C
:1011BC005FEA006002D510680006F2D45068DEF8D1
:1011CC000000DEF80040241A592C0ED8DEF800403E
:1011DC00241A592C9EBFDEF80040241A592C04D82E
:1011EC00DEF80040241A5A2CEBD34FF48040CCF894
:1011FC0000004FF40050CCF800084FF08040CCF8C1
:10120C000000DEF80000DEF80040241A592C0ED83D
:10121C00DEF80040241A592C9EBFDEF80040241A38
:10122C00592C04D8DEF80040241A5A2CEBD3106841
:10123C00800709D4106880075CBF10685FEA807073
:10124C0002D410688007F2D5002050601068C007E7
:10125C0009D11068C00704BF10685FEAC07002D1E2
:10126C001068C007F2D01068000609D51068000697
:10127C0044BF10685FEA006002D510680006F2D423
:10128C005068DEF80000DEF80040241A592C0ED805
:10129C00DEF80040241A592C9EBFDEF80040241AB8
:1012AC00592C04D8DEF80040241A5A2CEBD3DEF863
:1012BC000000DEF80040241A592C0ED8DEF800404D
:1012CC00241A592C9EBFDEF80040241A592C04D83D
:1012DC00DEF80040241A5A2CEBD31068800709D48E
:1012EC00106880075CBF10685FEA807002D41068D9
:1012FC008007F2D5C8B250601068C00709D11068D9
:10130C00C00704BF10685FEAC07002D11068C00744
:10131C00F2D01068000609D51068000644BF1068AA
:10132C005FEA006002D510680006F2D45068DEF85F
:10133C000000DEF80010091A59290ED8DEF800104A
:10134C00091A59299EBFDEF80010091A592904D828
:10135C00DEF80010091A5A29EBD34FF48040CCF870
:10136C0000004FF40050CCF800084FF08040CCF84F
:10137C000000DEF80000DEF80010091A59290ED81A
:10138C00DEF80010091A59299EBFDEF80010091A60
:10139C00592904D8DEF80010091A5A29EBD3106821
:1013AC00800709D4106880075CBF10685FEA807002
:1013BC0002D410688007F2D5002050601068C00776
:1013CC0009D11068C00704BF10685FEAC07002D171
:1013DC001068C007F2D01068000609D51068000626
:1013EC0044BF10685FEA006002D510680006F2D4B2
:1013FC005068DEF80000DEF80010091A59290ED8E2
:10140C00DEF80010091A59299EBFDEF80010091ADF
:10141C00592904D8DEF80010091A5A29EBD3DEF842
:10142C000000DEF80010091A59290ED8DEF8001059
:10143C00091A59299EBFDEF80010091A592904D837
:10144C00DEF80010091A5A29EBD31068800709D46A
:10145C00106880075CBF10685FEA807002D4106867
:10146C008007F2D5C3F3072050601068C00709D17C
:10147C001068C00704BF10685FEAC07002D1106822
:10148C00C007F2D01068000609D51068000644BFEA
:10149C0010685FEA006002D510680006F2D450684C
:1014AC00DEF80000DEF80010091A59290ED8DEF813
:1014BC000010091A59299EBFDEF80010091A592983
:1014CC0004D8DEF80010091A5A29EBD34FF48040E7
:1014DC00CCF800004FF40050CCF800084FF08040DE
:1014EC00CCF80000DEF80000DEF80010091A5929CB
:1014FC000ED8DEF80010091A59299EBFDEF800102C
:10150C00091A592904D8DEF80010091A5A29EBD304
:10151C001068800709D4106880075CBF10685FEA08
:10152C00807002D410688007F2D5002050601068DB
:10153C00C00709D11068C00704BF10685FEAC0700B
:10154C0002D11068C007F2D01068000609D51068E7
:10155C00000644BF10685FEA006002D51068000600
:10156C00F2D45068DEF80000DEF80010091A592990
:10157C000ED8DEF80010091A59299EBFDEF80010AB
:10158C00091A592904D8DEF80010091A5A29EBD384
:10159C00DEF80000DEF80010091A59290ED8DEF822
:1015AC000010091A59299EBFDEF80010091A592992
:1015BC0004D8DEF80010091A5A29EBD310688007FA
:1015CC0009D4106880075CBF10685FEA807002D491
:1015DC0010688007F2D5D8B250601068C00709D1E6
:1015EC001068C00704BF10685FEAC07002D11068B1
:1015FC00C007F2D01068000609D51068000644BF79
:10160C0010685FEA006002D510680006F2D45068DA
:10161C00DEF80000DEF80010091A59290ED8DEF8A1
:10162C000010091A59299EBFDEF80010091A592911
:10163C0004D8DEF80010091A5A29EBD34FF4804075
:10164C00CCF800004FF00050CCF800084FF0804070
:10165C00CCF80000DEF80000DEF80010091A592959
:10166C000ED8DEF80010091A59299EBFDEF80010BA
:10167C00091A592904D8DEF80010091A5A29EBD393
:10168C001068800709D4106880075CBF10685FEA97
:10169C00807002D410688007F2D52C20506010683E
:1016AC00C00709D11068C00704BF10685FEAC0709A
:1016BC0002D11068C007F2D01068000609D5106876
:1016CC00000644BF10685FEA006002D5106800068F
:1016DC00F2D45068DEF80000DEF80010091A59291F
:1016EC000ED8DEF80010091A59299EBFDEF800103A
:1016FC00091A592904D8DEF80010091A5A29EBD313
:10170C004FF48040CCF800004FF40050CCF80008A7
:10171C004FF08040CCF800005DF8048BF0BDB0B504
:10172C0002AF1C461546FFF7F0F804FB05F0002845
:10173C0000F0AA80BA68242343F20805C4F200031F
:10174C00C4F2010591B2D2B24FEA112C02E0013879
:10175C0000F09A801C681968091B59290BD8196864
:10176C00091B59299EBF1968091B592903D81968E7
:10177C00091B5A29EFD32968890709D429688907D5
:10178C005CBF29685FEA817102D429688907F2D5A8
:10179C00C5F804C02968C90709D12968C90704BF5D
:1017AC0029685FEAC17102D12968C907F2D029689A
:1017BC00090609D52968090644BF29685FEA016151
:1017CC0002D529680906F2D469681C681968091BD6
:1017DC0059290BD81968091B59299EBF1968091B6F
:1017EC00592903D81968091B5A29EFD31C681968A1
:1017FC00091B59290BD81968091B59299EBF19684F
:10180C00091B592903D81968091B5A29EFD32968D0
:10181C00890709D4296889075CBF29685FEA817147
:10182C0002D429688907F2D56A602968C90709D1E9
:10183C002968C90704BF29685FEAC17102D1296808
:10184C00C907F2D02968090609D52968090644BFD9
:10185C0029685FEA016102D529680906F2D4696832
:10186C001C681968091B59293FF671AF1968091BC7
:10187C0059299EBF1968091B59293FF668AF196889
:10188C00091B5A29EDD362E740F618404FF480410A
:10189C00C4F202000160B0BDF0B503AF2DE9000B3E
:1018AC0082B004460E464FF000090A2021466422FD
:1018BC000123CDF80090FFF732FF651CA6F102085A
:1018CC000A20012229464346CDF80090FFF727FF56
:1018DC006D20294601224346CDF80090FFF71FFFEB
:1018EC0030196422411E0A200123CDF80090FFF725
:1018FC0016FF4FF6FF790B20294662220123CDF803
:10190C000090FFF70CFF351FA61C0B20012231465F
:10191C002B46CDF80090FFF702FF6C2031460122D8
:10192C002B46CDF80090FFF7FAFE08EB04010B20D4
:10193C0062220123CDF80090FFF7F1FE02B0BDE862
:10194C00000BF0BDF0B503AF2DE9000F83B0D0F85C
:10195C00349041F2EC1882463C2001EB020B0C4611
:10196C0000EB09150726C0F60108029210E043EAC5
:10197C008112841C304629464FF6FF73CDF8008047
:10198C00202A38BF7F22FEF7C4FE08365C4523D0E0
:10199C00204614F9011BB1F1FF3FCAB2EADC4378CF
:1019AC0002F01F01E02A03F03F03E0D38478F02A11
:1019BC0004F03F0444EA83130AD3C27801F0070110
:1019CC00041D02F03F0242EA831242EA8142D1E74F
:1019DC0043EA0132C41CCDE7B9F10F0F9FBF0AEBEC
:1019EC000900029980F83810DAF834009FBF0130F2
:1019FC00CAF8340003B0BDE8000F98BFF0BD4846EC
:101A0C0010210DF051FCF0B503AF2DE9000F81B0A2
:101A1C0041F6640B8D189246894680460726C0F61F
:101A2C00010B0C4610E043EA8112841C304607215E
:101A3C004FF6FF73CDF800B0202A38BF7F22FEF797
:101A4C0068FE0836AC4223D0204614F9011BB1F1D4
:101A5C00FF3FCAB2EADC437802F01F01E02A03F030
:101A6C003F03E0D38478F02A04F03F0444EA831364
:101A7C000AD3C27801F00701041D02F03F0242EACA
:101A8C00831242EA8142D1E743EA0132C41CCDE71A
:101A9C00D8F80C00A0EB0A01002909DD0020CA00CF
:101AAC0000904FEACA00073007211023FFF737FEDA
:101ABC00C8E9029A01B0BDE8000FF0BDB0B502AFA5
:101ACC0082B00446C8B2DFE800F0047328410F8CE2
:101ADC00A55A002040F22911009020461022102314
:101AEC00FFF71DFE02B0B0BD41F2EC152046C0F66A
:101AFC00010540F2291199224FF6FF730095FEF76C
:101B0C0008FE009504F1080040F229119A224FF6C4
:101B1C00FF73FEF7FEFD02B0B0BD41F2EC1520469E
:101B2C00C0F6010540F22911A3224FF6FF73009570
:101B3C00FEF7EFFD009504F1080040F22911A422F4
:101B4C004FF6FF73FEF7E5FD02B0B0BD41F2EC15A8
:101B5C002046C0F6010540F2291187224FF6FF738B
:101B6C000095FEF7D6FD009504F1080040F229110E
:101B7C0088224FF6FF73FEF7CCFD02B0B0BD41F2E8
:101B8C00EC152046C0F6010540F229118F224FF6C4
:101B9C00FF730095FEF7BDFD009504F1080040F2BF
:101BAC00291190224FF6FF73FEF7B3FD02B0B0BDC2
:101BBC0041F2EC152046C0F6010540F2291197229E
:101BCC004FF6FF730095FEF7A4FD04F1080040F2F8
:101BDC002911982200954FF6FF73FEF79AFD02B07B
:101BEC00B0BD41F2EC152046C0F6010540F22911BA
:101BFC0093224FF6FF730095FEF78BFD009504F1D1
:101C0C00080040F2291194224FF6FF73FEF781FD74
:101C1C0002B0B0BD41F2EC152046C0F6010540F211
:101C2C002911A1224FF6FF730095FEF772FD009566
:101C3C0004F1080040F22911A2224FF6FF73FEF7BF
:101C4C0068FD02B0B0BDF0B503AF4DF8048D44682B
:101C5C00002C55D006680D468046097830788142B4
:101C6C0002D0EF20FFF72AFF012C4DD06978707855
:101C7C0081421CBF4FF48770FFF720FF022C47D026
:101C8C00A978B07881421CBF40F22D10FFF716FFE7
:101C9C00032C41D0E978F07881421CBF4FF4A67038
:101CAC00FFF70CFF042C3BD02979307981421CBF03
:101CBC0040F26B10FFF702FF052C35D06979707973
:101CCC0081421CBF4FF4C570FFF7F8FE062C2FD0D5
:101CDC00A979B07981421CBF40F2A910FFF7EEFE42
:101CEC00072C29D0E979F07981421CBF4FF4E470BC
:101CFC00FFF7E4FE0820C8E900505DF8048BF0BD46
:101D0C00002021460DF0D0FA012021460DF0CCFA2E
:101D1C00022021460DF0C8FA032021460DF0C4FA2A
:101D2C00042021460DF0C0FA052021460DF0BCFA26
:101D3C00062021460DF0B8FA072021460DF0B4FA22
:101D4C00F0B503AF2DE9000F8FB0CDE9091090F875
:101D5C004800DFE810F0940363030C00080008004F
:101D6C000800080098000A9801F044FA87E3002460
:101D7C002C202E21202210230094FFF7D0FC0A20C7
:101D8C002921642202230094FFF7C9FC0A202B218D
:101D9C00022216230094FFF7C2FC6C202B21022296
:101DAC0016230094FFF7BBFC0A2041216422022376
:101DBC000094FFF7B4FC3020522118221023009419
:101DCC00FFF7ADFC0A204D21642202230094FFF79B
:101DDC00A6FC0A204F21022216230094FFF79FFC39
:101DEC006C204F21022216230094FFF798FC0A2046
:101DFC006521642202230094FFF791FC30207621A8
:101E0C00182210230094FFF78AFC0A207121642207
:101E1C0002230094FFF783FC0A207321022216236D
:101E2C000094FFF77CFC6C20732102221623009493
:101E3C00FFF775FC0A208921642202230094FFF726
:101E4C006EFC20209A21382210230094FFF767FCA7
:101E5C000A209521642202230094FFF760FC0A20DB
:101E6C009721022216230094FFF759FC6C2097212E
:101E7C00022216230094FFF752FC00940A20AD2195
:101E8C0064220223F9E2242443F2080540F6184A9E
:101E9C000026C4F20004C4F20105C4F2020A4FF495
:101EAC0080484FF0000B07E00BF1010BCAF80080E3
:101EBC00BBF1080F00F05281CBEBCB09182030217D
:101ECC00102200EBC9001023FEF71FFD4FEAC900DA
:101EDC004FF4807102E0013900F099802268236888
:101EEC009B1A592B0BD823689B1A592B9EBF23681E
:101EFC009B1A592B03D823689B1A5A2BEFD32A68A9
:101F0C00920709D42A6892075CBF2A685FEA82723A
:101F1C0002D42A689207F2D56E602A68D20709D1DA
:101F2C002A68D20704BF2A685FEAC27202D12A6803
:101F3C00D207F2D02A68120609D52A68120644BFC5
:101F4C002A685FEA026202D52A681206F2D46A682D
:101F5C00226823689B1A592B0BD823689B1A592B80
:101F6C009EBF23689B1A592B03D823689B1A5A2BA4
:101F7C00EFD3226823689B1A592B0BD823689B1A22
:101F8C00592B9EBF23689B1A592B03D823689B1A85
:101F9C005A2BEFD32A68920709D42A6892075CBFA0
:101FAC002A685FEA827202D42A689207F2D56E60C0
:101FBC002A68D20709D12A68D20704BF2A685FEAC7
:101FCC00C27202D12A68D207F2D02A68120609D549
:101FDC002A68120644BF2A685FEA026202D52A68A0
:101FEC001206F2D46A68226823689B1A592B3FF6B2
:101FFC0072AF23689B1A592B9EBF23689B1A592BCF
:10200C003FF669AF23689B1A5A2BEDD363E72D304B
:10201C00312110221023CAF80080FEF776FC4FF411
:10202C00807002E001383FF43FAF21682268521AF9
:10203C00592A0BD82268521A592A9EBF2268521A62
:10204C00592A03D82268521A5A2AEFD329688907C9
:10205C0009D4296889075CBF29685FEA817102D4B9
:10206C0029688907F2D56E602968C90709D12968E2
:10207C00C90704BF29685FEAC17102D12968C90781
:10208C00F2D02968090609D52968090644BF2968D0
:10209C005FEA016102D529680906F2D469682168F2
:1020AC002268521A592A0BD82268521A592A9EBFF2
:1020BC002268521A592A03D82268521A5A2AEFD384
:1020CC0021682268521A592A0BD82268521A592AA6
:1020DC009EBF2268521A592A03D82268521A5A2AC9
:1020EC00EFD32968890709D4296889075CBF296857
:1020FC005FEA817102D429688907F2D56E6029687C
:10210C00C90709D12968C90704BF29685FEAC171E9
:10211C0002D12968C907F2D02968090609D52968AE
:10212C00090644BF29685FEA016102D529680906DE
:10213C00F2D4696821682268521A592A3FF672AFA4
:10214C002268521A592A9EBF2268521A592A3FF6FF
:10215C0069AF2268521A5A2AEDD363E700264FF46E
:10216C0080484FF0000B07E00BF1010BCAF8008020
:10217C00BBF1080F00F08381CBEBCB091820502169
:10218C00102200EBC9001023FEF7BFFB4FEAC90079
:10219C004FF4807102E0013900F0998022682368C5
:1021AC009B1A592B0BD823689B1A592B9EBF23685B
:1021BC009B1A592B03D823689B1A5A2BEFD32A68E6
:1021CC00920709D42A6892075CBF2A685FEA827278
:1021DC0002D42A689207F2D56E602A68D20709D118
:1021EC002A68D20704BF2A685FEAC27202D12A6841
:1021FC00D207F2D02A68120609D52A68120644BF03
:10220C002A685FEA026202D52A681206F2D46A686A
:10221C00226823689B1A592B0BD823689B1A592BBD
:10222C009EBF23689B1A592B03D823689B1A5A2BE1
:10223C00EFD3226823689B1A592B0BD823689B1A5F
:10224C00592B9EBF23689B1A592B03D823689B1AC2
:10225C005A2BEFD32A68920709D42A6892075CBFDD
:10226C002A685FEA827202D42A689207F2D56E60FD
:10227C002A68D20709D12A68D20704BF2A685FEA04
:10228C00C27202D12A68D207F2D02A68120609D586
:10229C002A68120644BF2A685FEA026202D52A68DD
:1022AC001206F2D46A68226823689B1A592B3FF6EF
:1022BC0072AF23689B1A592B9EBF23689B1A592B0C
:1022CC003FF669AF23689B1A5A2BEDD363E72D3089
:1022DC00512110221023CAF80080FEF716FB4FF490
:1022EC00807002E001383FF43FAF21682268521A37
:1022FC00592A0BD82268521A592A9EBF2268521AA0
:10230C00592A03D82268521A5A2AEFD32968890706
:10231C0009D4296889075CBF29685FEA817102D4F6
:10232C0029688907F2D56E602968C90709D129681F
:10233C00C90704BF29685FEAC17102D12968C907BE
:10234C00F2D02968090609D52968090644BF29680D
:10235C005FEA016102D529680906F2D4696821682F
:10236C002268521A592A0BD82268521A592A9EBF2F
:10237C002268521A592A03D82268521A5A2AEFD3C1
:10238C0021682268521A592A0BD82268521A592AE3
:10239C009EBF2268521A592A03D82268521A5A2A06
:1023AC00EFD32968890709D4296889075CBF296894
:1023BC005FEA817102D429688907F2D56E602968B9
:1023CC00C90709D12968C90704BF29685FEAC17127
:1023DC0002D12968C907F2D02968090609D52968EC
:1023EC00090644BF29685FEA016102D5296809061C
:1023FC00F2D4696821682268521A592A3FF672AFE2
:10240C002268521A592A9EBF2268521A592A3FF63C
:10241C0069AF2268521A5A2AEDD363E7002440F2BE
:10242C00C110002101221E230094FFF778F94FF40C
:10243C00C5700721102210230094FFF770F94FF498
:10244C00D170002101221E230094FFF768F940F29D
:10245C00A9100721102210230094FFF760F940F215
:10246C008310002101221E230094FFF758F94FF42A
:10247C00E4700721102210230094FFF750F9DDE9D6
:10248C0009194FF0FF3089F8481050FA81F0DFE855
:10249C0010F00700C7009D00B200880057026C02C4
:1024AC0041F66C414846C0F601010E22FFF7ABFA2B
:1024BC0041F6AC014846C0F60101FFF7C4FB002011
:1024CC00D9F81C60C9F824004FF6FF7940F2C1100E
:1024DC00002101221E23CDF80090FFF720F941F2D4
:1024EC00EC184FF0FF35C0F60108002ECDF8008037
:1024FC0008BF40F21F454FF4C5700721B1222B468F
:10250C004FF0FF34FEF705F94FF4C9700721B222E2
:10251C002B46CDF80080FEF7FCF84FF4D17000216B
:10252C0001221E23CDF80090FFF7F9F84FF0FF358C
:10253C00CDF80080012E08BF40F21F4540F2A910D3
:10254C0007218B222B46FEF7E4F840F2B11007214D
:10255C008C222B46CDF80080FEF7DBF840F283107E
:10256C00002101221E23CDF80090FFF7D8F8CDF8FA
:10257C000080022E08BF40F21F444FF4E470072184
:10258C00AD222346FEF7C5F84FF4E8700721AE22C2
:10259C002346CDF80080FEF7BCF80FB0BDE8000F65
:1025AC00F0BD41F634414846C0F601010F22FFF759
:1025BC002AFA41F65C414846C0F6010101220FB0EF
:1025CC00BDE8000FBDE8F04000F084BE41F691314B
:1025DC004846C0F601010C22FFF715FA41F6DC2142
:1025EC004846C0F6010106220FB0BDE8000FBDE859
:1025FC00F04000F06FBE41F69D314846C0F6010137
:10260C000B22FFF700FA41F6E8314846C0F601010B
:10261C0004220FB0BDE8000FBDE8F04000F05ABE38
:10262C0041F6BC414846C0F601011422FFF7EBF914
:10263C0041F67C014846C0F60101FFF704FB242655
:10264C0043F20804D9F824000025C4F20006C4F2B1
:10265C0001044FF0070A4FF0010B04902AE040F2FE
:10266C001F490A20642202234FEA8C08CDF80090FF
:10267C00FFF755F808F12B050A20022216232946EC
:10268C00CDF80090FFF74BF8CDF8009029466C2060
:10269C0002221623059DFFF742F808F141010A209A
:1026AC0064220223CDF80090FFF739F80135042D90
:1026BC0000F0428141F69C4005EBC50CC0F60100D0
:1026CC00059500EBC5004168002900F025810598AF
:1026DC0041F69C42C0F6010252F8300042180692B4
:1026EC002E22034602EB8C0208924FF6FC72CDF8B8
:1026FC001CC0C7F6FF7202EA8101C1F13C0210E076
:10270C0040F618404FF48041C4F2020001600A9A6E
:10271C00099B06980832DDF81CC08342184600F06D
:10272C00FB8013F9011BB1F1FF3FCDB21FDC4178E7
:10273C0005F01F0EE02D01F03F0111D38378F02D31
:10274C0003F03F0343EA81110ED3C37803F03F0338
:10275C0043EA81130EF0070143EA8145031D06E0AD
:10276C0041EA8E15831C02E041EA0E35C31CCDE90B
:10277C0009321046089908221023FEF7C6F84FF6C6
:10278C000060202DCFF6FF7000EB051038BF4FF422
:10279C00BE60B0F5C06F00F2908441F263214FF03F
:1027AC00000EC0F6010101EB000CC0F5C06104E0A5
:1027BC000EF1010EBEF1100FA2D0002502E0013582
:1027CC00082DF5D00EEBD500884280F074841CF8EF
:1027DC0000902AEA05023368D6F80080A8EB0300C3
:1027EC0059280BD83068C01A59289EBF3068C01AB7
:1027FC00592803D83068C01A5A28EDD30BFA02F2C4
:10280C002068800709D4206880075CBF20685FEAD5
:10281C00807002D420688007F2D519EA020018BF34
:10282C00FF2060602268D20709D12268D20704BF5A
:10283C0022685FEAC27202D12268D207F2D0226803
:10284C00120609D52268120644BF22685FEA0262AA
:10285C0002D522681206F2D46268326833689B1A79
:10286C00592B0BD833689B1A592B9EBF33689B1A74
:10287C00592B03D833689B1A5A2BEFD33268336821
:10288C009B1A592B0BD833689B1A592B9EBF336854
:10289C009B1A592B03D833689B1A5A2BEFD32268F7
:1028AC00920709D4226892075CBF22685FEA8272A1
:1028BC0002D422689207F2D560602068C00709D163
:1028CC002068C00704BF20685FEAC07002D120688E
:1028DC00C007F2D02068000609D52068000644BF66
:1028EC0020685FEA006002D520680006F2D46068B8
:1028FC0030683268121A592A3FF661AF3268121AE0
:10290C00592A9EBF3268121A592A3FF658AF3268BC
:10291C00121A5A2AEDD352E7292000EB8C01DDE97B
:10292C00040585423FF49BAE08461A21FEF7B4FF1E
:10293C000135042D7FF4BEAE0FB0BDE8000FF0BD25
:10294C0041F6F8314846C0F601010B22FFF75BF85F
:10295C0041F62C414846C0F6010102220FB0BDE8F9
:10296C00000FBDE8F04000F0B5BC41F6F4210026A4
:10297C00C0F6010148461022C9F82060FFF743F861
:10298C0041F684014846C0F60101FFF75CF9A7F156
:10299C002A012425C81C43F2080820F003004FF03C
:1029AC00010A401A0590D9F81800C4F200050490E9
:1029BC00C4F20108D9F820003022039031204FF0E6
:1029CC000709012100EB46100291099002EB461019
:1029DC000790F0000026069004E0089E3022082E96
:1029EC0000F058830698F6230896C6EBC60B3418ED
:1029FC004CF6CD40CCF6CC40A4FB0001C80842EA12
:102A0C00D10100FB034007F82A1C07990822102368
:102A1C0040F0300007F8290C182000EBCB00FDF734
:102A2C0074FF03984FF6FF7640F69C014FEACB0BF0
:102A3C00A04208BF40F21F460498C0F60101E040D6
:102A4C00C0074FF41F6008BF4FF415600844002105
:102A5C00A0F5007C0A9003E00131102900F0C88039
:102A6C00002202E00132082AF6D001EBD20029EA5A
:102A7C0002041CF800300AFA04F4286823402C687D
:102A8C00241A592C0BD82C68241A592C9EBF2C684C
:102A9C00241A592C03D82C68241A5A2CEFD3D8F8A2
:102AAC00000080070CD4D8F8000080075CBFD8F871
:102ABC0000005FEA807003D4D8F800008007EED5E0
:102ACC00002B18BF3346180AC8F80400D8F80000C9
:102ADC00C0070CD1D8F80000C00704BFD8F800001C
:102AEC005FEAC07003D1D8F80000C007EED0D8F868
:102AFC00000000060CD5D8F80000000644BFD8F83A
:102B0C0000005FEA006003D5D8F800000006EED4A0
:102B1C00D8F8040028682C68241A592C0BD82C6877
:102B2C00241A592C9EBF2C68241A592C03D82C68B3
:102B3C00241A5A2CEFD328682C68241A592C0BD839
:102B4C002C68241A592C9EBF2C68241A592C03D893
:102B5C002C68241A5A2CEFD3D8F8000080070CD418
:102B6C00D8F8000080075CBFD8F800005FEA8070DE
:102B7C0003D4D8F800008007EED5D8B2C8F804000A
:102B8C00D8F80000C0070CD1D8F80000C00704BF6B
:102B9C00D8F800005FEAC07003D1D8F80000C00775
:102BAC00EED0D8F8000000060CD5D8F800000006CE
:102BBC0044BFD8F800005FEA006003D5D8F80000E5
:102BCC000006EED4D8F8040028682B681B1A592B81
:102BDC003FF648AF2B681B1A592B9EBF2B681B1A4C
:102BEC00592B3FF63FAF2B681B1A5A2BEDD339E705
:102BFC0040F618404FF48041C4F2020008220160F4
:102C0C000BF1200007991023FDF77FFE0A98002195
:102C1C00DDF820E0A0F5F87C03E00131102900F08C
:102C2C00C880002202E00132082AF6D001EBD20063
:102C3C0029EA02041CF800300AFA04F4286823403C
:102C4C002C68241A592C0BD82C68241A592C9EBF8A
:102C5C002C68241A592C03D82C68241A5A2CEFD31C
:102C6C00D8F8000080070CD4D8F8000080075CBFAF
:102C7C00D8F800005FEA807003D4D8F80000800711
:102C8C00EED5002B18BF3346180AC8F80400D8F844
:102C9C000000C0070CD1D8F80000C00704BFD8F85A
:102CAC0000005FEAC07003D1D8F80000C007EED076
:102CBC00D8F8000000060CD5D8F80000000644BF78
:102CCC00D8F800005FEA006003D5D8F800000006D1
:102CDC00EED4D8F8040028682C68241A592C0BD888
:102CEC002C68241A592C9EBF2C68241A592C03D8F2
:102CFC002C68241A5A2CEFD328682C68241A592CC7
:102D0C000BD82C68241A592C9EBF2C68241A592CC9
:102D1C0003D82C68241A5A2CEFD3D8F8000080075B
:102D2C000CD4D8F8000080075CBFD8F800005FEA2C
:102D3C00807003D4D8F800008007EED5D8B2C8F85C
:102D4C000400D8F80000C0070CD1D8F80000C00768
:102D5C0004BFD8F800005FEAC07003D1D8F80000B7
:102D6C00C007EED0D8F8000000060CD5D8F800004B
:102D7C00000644BFD8F800005FEA006003D5D8F81D
:102D8C0000000006EED4D8F8040028682B681B1A43
:102D9C00592B3FF648AF2B681B1A592B9EBF2B683B
:102DAC001B1A592B3FF63FAF2B681B1A5A2BEDD32E
:102DBC0039E740F618404FF48041C4F202000EF19E
:102DCC00010E0160A7F12A03059E00201956002967
:102DDC0023D4311A890703D001300228F6D32DE011
:102DEC0019560029F9D4012828D0191891F9012075
:102DFC00002AF1D410B391F90220002A09D4421C04
:102E0C001CD091F90310002905D404300228E7D115
:102E1C0014E00230E1E70330DFE741F6F252C9B2C9
:102E2C00C0F60102515C022908BF002840F03C8129
:102E3C0017F9290C10F1410F00F336810BF12D0B12
:102E4C000024CDF820E00EE040F618404FF480410D
:102E5C00C4F202000BF1080B0160A7F12A030A9CD3
:102E6C00022C3FF4BAAD1957601CB1F1FF3FCEB242
:102E7C0001DD0A9022E0185CA21CE02E00F03F015C
:102E8C0006F01F0014D39A5CF02E02F03F0242EAC7
:102E9C00811104F103020ED39A5C00F00700043494
:102EAC000A9402F03F0242EA811141EA804605E0B1
:102EBC0041EA801601E041EA00360A920999584627
:102ECC0008221023FDF721FD4FF60060202ECFF6CF
:102EDC00FF7000EB061038BF4FF4BE60B0F5156FF5
:102EEC0000F2EF8040F69C014FF0000EC0F601019D
:102EFC0001EB000CC0F5156104E00EF1010EBEF102
:102F0C00100FA1D0002602E00136082EF5D00EEBF2
:102F1C00D600884280F0CF801CF8000029EA060415
:102F2C002A682B689B1A592B0BD82B689B1A592B88
:102F3C009EBF2B689B1A592B03D82B689B1A5A2BB4
:102F4C00EFD30AFA04F2D8F800309B070CD4D8F867
:102F5C0000309B075CBFD8F800305FEA837303D462
:102F6C00D8F800309B07EED5104018BFFF20C8F8EA
:102F7C000400D8F80020D2070CD1D8F80020D207D2
:102F8C0004BFD8F800205FEAC27203D1D8F8002041
:102F9C00D207EED0D8F8002012060CD5D8F80020B5
:102FAC00120644BFD8F800205FEA026203D5D8F8B5
:102FBC0000201206EED4D8F804202A682B689B1A3D
:102FCC00592B0BD82B689B1A592B9EBF2B689B1A1D
:102FDC00592B03D82B689B1A5A2BEFD32A682B68D2
:102FEC009B1A592B0BD82B689B1A592B9EBF2B68FD
:102FFC009B1A592B03D82B689B1A5A2BEFD3D8F852
:10300C00002092070CD4D8F8002092075CBFD8F8A7
:10301C0000205FEA827203D4D8F800209207EED524
:10302C00C8F80400D8F80000C0070CD1D8F800008C
:10303C00C00704BFD8F800005FEAC07003D1D8F80D
:10304C000000C007EED0D8F8000000060CD5D8F868
:10305C000000000644BFD8F800005FEA006003D50A
:10306C00D8F800000006EED4D8F8040028682A68C6
:10307C00121A592A3FF648AF2A68121A592A9EBFCB
:10308C002A68121A592A3FF63FAF2A68121A5A2A8E
:10309C00EDD339E7029801260021C0074FF031002B
:1030AC007FF490ACFFF748BC41F67C410CA8C0F60D
:1030BC0001010CF0D9FC0CF0F7F84FF4C0610CF0E6
:1030CC00D7FC4FF415610CF0D3FCF0B503AF2DE930
:1030DC00000B82B00B4602464169806A88427ED260
:1030EC0008287ED21169DBB251F820100E68716885
:1030FC00994279D9024492F82C20914277D93168BF
:10310C0000EB8000357A01EBC30301EBC206D6F865
:10311C0004805B6851F832604FF03B0202EBC0094F
:10312C00A3EB08004FEAC8014FEAC0022DB1C1F170
:10313C006C05002A0CDDA81A04E0002A47DD01F119
:10314C000C000C250021102300914946FEF7E7FAEC
:10315C00B8F1000F3FD006EB080441F2EC18C0F6B2
:10316C00010810E043EA8112861C284649464FF6B6
:10317C00FF73CDF80080202A38BF7F22FDF7C9FAF3
:10318C000835A64227D0304616F9011BB1F1FF3F96
:10319C00CAB2EADC437802F01F01E02A03F03F03D5
:1031AC00E0D38678F02A06F03F0646EA83130AD36A
:1031BC00C27801F00701061D02F03F0242EA8312B9
:1031CC0042EA8142D1E743EA0132C61CCDE70C2525
:1031DC00B8F1000FBFD102B0BDE8000BF0BD0CF090
:1031EC0063F808210CF060F818460CF05DF81046F6
:1031FC000CF05AF8F0B503AF2DE9000F81B041691E
:10320C0000295FD0D0F8108000F12C064FEA81091C
:10321C004B244FF0000A58F8040BA4F122011023A0
:10322C00D0F800B08068CDF800A0C2000A20FEF7EC
:10323C0076FAA4F112010A2064220223CDF800A030
:10324C00FEF76DFAA4F110050A200222102329467C
:10325C00CDF800A0FEF763FA6C2029460222102359
:10326C00CDF800A0FEF75BFA0A2021466422022367
:10327C00CDF800A0FEF753FA40F28B10844225D013
:10328C00DBF804103078814222D9DBF800101023CF
:10329C009BF8082001EBC000002A4FF06C0241683B
:1032AC004FF00C00CDF800A018BFA2EBC100CA0073
:1032BC002946FEF734FAB9F1040904F1280406F1A1
:1032CC000106A8D101B0BDE8000FF0BD082008210F
:1032DC000BF0EAFFF0B503AF2DE9000F8BB00D46F4
:1032EC0041F69C01064600201446B062C0F601016E
:1032FC003046C6E90454FEF7A6FC05EB84002424F2
:10330C0043F20808019006F12C000390B06AC4F255
:10331C000004C4F201084FF007094FF0010A002223
:10332C00029007E0049D079A01980435013285420A
:10333C0000F0AD82082A00F0B2822B6800200399BD
:10334C0004950792885402EB82009968CDE9050335
:10335C00002900F02D8106982922059B4FF00A0BBD
:10336C00406802EBC30209920144089102460EE048
:10337C0040F618404FF48041C4F202000BF1080BE8
:10338C0001600A9A08988242104600F0118112F9E5
:10339C00011BB1F1FF3FCDB21FDC427805F01F01DC
:1033AC00E02D02F03F0211D38378F02D03F03F03A0
:1033BC0043EA82120ED3C37801F0070103F03F03F6
:1033CC0043EA821242EA8145021D06E042EA811577
:1033DC00821C02E042EA0135C21C099958460A9245
:1033EC0008221023FDF791FA4FF60060202DCFF63E
:1033FC00FF7000EB051038BF4FF4BE60B0F5156FD1
:10340C0000F2498240F69C010023C0F6010101EB59
:10341C00000CC0F5156102E00133102BA8D000257B
:10342C0002E00135082DF7D003EBD500884280F07F
:10343C002C821CF8000029EA050226680AFA02F21E
:10344C0010402268921B592A0BD82268921B592AC9
:10345C009EBF2268921B592A03D82268921B5A2AB3
:10346C00EFD3D8F8002092070CD4D8F8002092079C
:10347C005CBFD8F800205FEA827203D4D8F8002031
:10348C009207EED5002818BFFF20C8F80400D8F822
:10349C000020D2070CD1D8F80020D20704BFD8F8EE
:1034AC0000205FEAC27203D1D8F80020D207EED018
:1034BC00D8F8002012060CD5D8F80020120644BF0C
:1034CC00D8F800205FEA026203D5D8F80020120673
:1034DC00EED4D8F8042026682268921B592A0BD8FF
:1034EC002268921B592A9EBF2268921B592A03D824
:1034FC002268921B5A2AEFD326682268921B592AFB
:10350C000BD82268921B592A9EBF2268921B592AFB
:10351C0003D82268921B5A2AEFD3D8F800209207BE
:10352C000CD4D8F8002092075CBFD8F800205FEAD2
:10353C00827203D4D8F800209207EED5C8F80400A4
:10354C00D8F80000C0070CD1D8F80000C00704BFA1
:10355C00D8F800005FEAC07003D1D8F80000C007AB
:10356C00EED0D8F8000000060CD5D8F80000000604
:10357C0044BFD8F800005FEA006003D5D8F800001B
:10358C000006EED4D8F8040020682268121A592AD2
:10359C003FF647AF2268121A592A9EBF2268121AA8
:1035AC00592A3FF63EAF2268121A5A2AEDD338E751
:1035BC000598079AC600029806F13901904224D169
:1035CC0040F21F4B0A2064220223CDF800B0FEF714
:1035DC00A6F806F13B050A20022210232946CDF855
:1035EC0000B0FEF79CF86C20294602221023CDF87F
:1035FC0000B0FEF794F806F14B010A206422022376
:10360C00CDF800B0FEF78BF803E008461421FEF766
:10361C0043F9069801684868002800F0448108685E
:10362C004268002A3FF47EAE006806F13B03097A3B
:10363C004FF00C0B09938318002908934FF06C0181
:10364C0018BFA1EBC20B02460EE040F618404FF437
:10365C008041C4F202000BF1080B01600A9A089831
:10366C00824210463FF45EAE12F9011BB1F1FF3FEE
:10367C00CDB21FDC427805F01F01E02D02F03F02B5
:10368C0011D38378F02D03F03F0343EA82120ED35B
:10369C00C37801F0070103F03F0343EA821242EAC8
:1036AC008145021D06E042EA8115821C02E042EAD5
:1036BC000135C21C099958460A9208221023FDF7BD
:1036CC0024F94FF60060202DCFF6FF7000EB0510AB
:1036DC0038BF4FF4BE60B0F5156F00F2DC8040F6D9
:1036EC009C010023C0F6010101EB000CC0F5156133
:1036FC0002E00133102BA8D0002502E00135082D83
:10370C00F7D003EBD500884280F0BF801CF8000096
:10371C0029EA050226680AFA02F210402268921B76
:10372C00592A0BD82268921B592A9EBF2268921BD9
:10373C00592A03D82268921B5A2AEFD3D8F80020B2
:10374C0092070CD4D8F8002092075CBFD8F8002060
:10375C005FEA827203D4D8F800209207EED50028D5
:10376C0018BFFF20C8F80400D8F80020D2070CD1ED
:10377C00D8F80020D20704BFD8F800205FEAC27244
:10378C0003D1D8F80020D207EED0D8F800201206CA
:10379C000CD5D8F80020120644BFD8F800205FEAF8
:1037AC00026203D5D8F800201206EED4D8F8042013
:1037BC0026682268921B592A0BD82268921B592A18
:1037CC009EBF2268921B592A03D82268921B5A2A40
:1037DC00EFD326682268921B592A0BD82268921BB9
:1037EC00592A9EBF2268921B592A03D82268921B21
:1037FC005A2AEFD3D8F8002092070CD4D8F800201E
:10380C0092075CBFD8F800205FEA827203D4D8F824
:10381C0000209207EED5C8F80400D8F80000C007C5
:10382C000CD1D8F80000C00704BFD8F800005FEA3C
:10383C00C07003D1D8F80000C007EED0D8F8000053
:10384C0000060CD5D8F80000000644BFD8F80000DC
:10385C005FEA006003D5D8F800000006EED4D8F873
:10386C00040020682268121A592A3FF647AF2268D2
:10387C00121A592A9EBF2268121A592A3FF63EAFD5
:10388C002268121A5A2AEDD338E70BF00DFD0BB053
:10389C00BDE8000FF0BD4FF415610CF0E9F80820FD
:1038AC0008210BF001FD002000210BF0FDFCD4D40D
:1038BC00F0B503AF2DE9000782B04FF0FF3252FA9A
:1038CC0081F1052941D8DFE801F00357449240AC5F
:1038DC00856A4FF0390A4469804605EB85010AEB8D
:1038EC00C10108461421FDF7D7FF40F21F49002DF6
:1038FC00CDF8009018BF2C46661E0A2064220223C5
:10390C0006EB86050AEBC501FDF709FF3B2000EB32
:10391C00C5040A20022221461023CDF80090FDF7A1
:10392C00FEFE6C20214602221023CDF80090FDF7FC
:10393C00F6FE4B2000EBC5010A2064220223CDF8D1
:10394C000090FDF7ECFEC8F8286002B0BDE8000757
:10395C00F0BD826A072A6CD841698A426DD2066929
:10396C0000F12C03995C56F82260002936683679F0
:10397C0018BF0E46013E4CE041694FF03908826A8F
:10398C000139541A4FF0140118BF541C846202EB15
:10399C00820008EBC000FDF77FFF04EB840640F2C9
:1039AC001F450A20642208EBC60102230095FDF78F
:1039BC00B6FE3B2000EBC6040A200222214610234F
:1039CC000095FDF7ACFE6C202146022210230095D9
:1039DC00FDF7A5FE4B2000EBC6010A206422022352
:1039EC000095FDF79CFE02B0BDE80007F0BD826AB1
:1039FC00072A1ED841698A421FD2066900F12C039E
:103A0C00995C56F8226036687668013E761A18BFC3
:103A1C004E1C9E5402B0BDE80007BDE8F040FFF715
:103A2C0054BB022102B0BDE80007BDE8F040FEF730
:103A3C0087B9104608210BF037FC10460BF034FC0C
:103A4C0080B56F4600F000F880B56F46B0B00CF052
:103A5C00B4FD04460CF0A4FD40F2000104F001009A
:103A6C00C2F200010A78002A4BF0AA830122002836
:103A7C000A7008BF0CF096FD49F2FF4441F2002594
:103A8C000020C0F6BA24611CCDE90010C0F27A0502
:103A9C001DA82946012201230CF002F81D980228CA
:103AAC000BF0C283C0070BF0CC831E9845F6017255
:103ABC00C0F64C12A0F1B771A1F5585191428BF0A0
:103ACC00888301194EF22F32C0F2BE02090AA1FB03
:103ADC000213D90A01290CD0022907D000290BF0B6
:103AEC0068834FF400714FF0F00804E04FF0800849
:103AFC0001E04FF000084AF24055B0FBF1F1C0F282
:103B0C00AE254B19013B9B09A3FB0236F30A012B93
:103B1C000BD0022B06D0002B0BF04B8304234FF45D
:103B2C00A05904E04FF4805901E04FF00009B1FBBB
:103B3C00F3F46B1C9C428BF0538344F67F23C0F24E
:103B4C005D53CE18F609A6FB0226F20A012A0BD009
:103B5C00022A06D0002A0BF02C8304224FF4204BAF
:103B6C0004E04FF4004B01E04FF0000BB1FBF2F618
:103B7C009A1C96428BF03B83013845F2C742C0F247
:103B8C001E120894C00943F60004A0FB0202C4F202
:103B9C000204D4F800040009920A60F31F1242F4E4
:103BAC00E060C4F80004206840F480302060206895
:103BBC00800309D4206880035CBF20685FEA8030F2
:103BCC0002D420688003F2D5206840F08070206019
:103BDC0047F60120C0F6032081422FD3206C40F021
:103BEC00805020640CF0E6FC47F20400C4F20000A4
:103BFC0050F8041C41F4803140F8041C0168C903DE
:103C0C0009D40168C9035CBF01685FEAC13102D401
:103C1C000168C903F2D550F8041C41F4003140F896
:103C2C00041C0168890309D4016889035CBF01681D
:103C3C005FEA813102D401688903F2D509962068C4
:103C4C00800109D4206880015CBF20685FEA801085
:103C5C0002D420688001F2D5A0684FF6F04220F41F
:103C6C000000A060D4F88C0020F47000C4F88C0024
:103C7C00A16849EA080040EA0B0091430843A060A0
:103C8C0010200CF091FCA0680221012661F30100C8
:103C9C00A060206B40F039002063606C40F48050D1
:103CAC00606440F20C60C4F2472006600CF082FCA9
:103CBC0040F2002A40F2000945F25550C4F2472A5E
:103CCC00CAF80C600026C4F20209C5F2000040F6E6
:103CDC001841CAF80C60C9F8000C45F2555041F275
:103CEC001803C4F20201C0F24000C4F20203C1F88E
:103CFC00E8034FF0A060C3F8E80348F2FF0041F27C
:103D0C001842086040F6FF00C4F20202186045F247
:103D1C0055504FF6FF7841F80C0C43F80C0C40F260
:103D2C00240B42F80C0CC4F2000BC2F8F40341F85B
:103D3C00108C4FF0FF3143F8108CC3F8F083C2F8AD
:103D4C00F083206C40F0010020644FF0804001248F
:103D5C0006604BF8206CCBF80460CBF808104BF8DD
:103D6C00186C016841F001010160CAF800440CF0C4
:103D7C0021FCCAF800400521CAF800600222C9F8EB
:103D8C000880D9F8040020F02000C9F80400D9F804
:103D9C00200061F31750C9F82000D9F8000062F335
:103DAC008B20C9F80000D9F8040020F04000C9F8B5
:103DBC000400D9F8200061F31B60C9F82000D9F881
:103DCC00000062F30D30C9F80000D9F8040020F0AF
:103DDC008000C9F80400D9F8200061F31F70C9F8FD
:103DEC002000D9F8000062F38F30C9F8000040F2CF
:103DFC000C69C4F24729C9F8A4420CF0DBFB43F26E
:103E0C000808CAF8B042C4F20108CAF8B06228F82F
:103E1C00046C48F27F40099AC0F21E0082424BF2B9
:103E2C00C88148F680500024C0F25B0082424FF0FB
:103E3C00000017D341F60030C0F2B700824201D225
:103E4C0008200FE043F20060C0F26E10824201D2F3
:103E5C00102007E046F600412020C0F2DC218A4207
:103E6C0038BF182040F4417028F8080C38F8080CBA
:103E7C0040F6184243F2BF71C4F202020840072117
:103E8C00403028F8080C52F8140C012620F48070ED
:103E9C0042F8140CD06861F30300D06000220221B8
:103EAC00C4F20202D2F8000C61F31140C2F8000C0B
:103EBC00C9F83C620CF07EFB40F20020C4F24720B3
:103ECC00C0F84862C0F848420899480BE02816D858
:103EDC00B1F5612FCBF0E1814FF4614000EB410073
:103EEC004BF2C531C9F2A211A0FB0101702000EA0E
:103EFC001140C1F342410A184AF20C010AE001F5E3
:103F0C0061404BF2C531C9F2A211A0FB01010A0CB0
:103F1C0042F20C0144F60000C4F200008260002260
:103F2C0002614261C160026101680906FCD5492148
:103F3C00416001680906FCD55421416001680906FD
:103F4C00FCD55321416001680906FCD52D21416047
:103F5C0001680906FCD54221416001680906FCD5BF
:103F6C006F21416001680906FCD56121416001683F
:103F7C000906FCD57221416001680906FCD5642153
:103F8C00416001680906FCD52021416001680906E1
:103F9C00FCD56921416001680906FCD56E214160A0
:103FAC0001680906FCD56921416001680906FCD548
:103FBC007421416001680906FCD5692141600168E2
:103FCC000906FCD56121416001680906FCD56C210C
:103FDC00416001680906FCD5692141600168090648
:103FEC00FCD57A21416001680906FCD56521416048
:103FFC0001680906FCD56421416001680906FCD5FD
:10400C000A2141600168090609D4016809065CBFF0
:10401C0001685FEA016102D401680906F2D50A2140
:10402C00416041F218414FF48050C4F20201086023
:10403C00DBF80000DBF80010091AA9420ED2DBF8FD
:10404C000010091AA9423EBFDBF80010091AA94258
:10405C0004D2DBF80010091AA942EBD341F2184143
:10406C004FF08050C4F202010860DBF80000DBF86E
:10407C000010091AA9420ED2DBF80010091AA94245
:10408C003EBFDBF80010091AA94204D2DBF800107D
:10409C00091AA942EBD341F218414FF48050C4F2F3
:1040AC0002010860DBF80000DBF80010091AA942D5
:1040BC000ED2DBF80010091AA9423EBFDBF8001043
:1040CC00091AA94204D2DBF80010091AA942EBD351
:1040DC0041F2FC154FF0000E4FF0005C4FF0804A9F
:1040EC00C0F601054FF480464FF40059002002E061
:1040FC00672880F0608141F2184140F61842C4F202
:10410C000201C4F20202C1F800C0295CC2F800A08E
:10411C00DBF80020DBF80040A41A592C0ED8DBF891
:10412C000040A41A592C9EBFDBF80040A41A592C4D
:10413C0004D8DBF80040A41A5A2CEBD3D8F8002092
:10414C0092070CD4D8F8002092075CBFD8F8002056
:10415C005FEA827203D4D8F800209207EED5C8F833
:10416C000410D8F80010C9070CD1D8F80010C907F2
:10417C0004BFD8F800105FEAC17103D1D8F8001061
:10418C00C907EED0D8F8001009060CD5D8F80010E5
:10419C00090644BFD8F800105FEA016103D5D8F8CE
:1041AC0000100906EED4D8F80410DBF80010DBF888
:1041BC000020521A592A0ED8DBF80020521A592A1C
:1041CC009EBFDBF80020521A592A04D8DBF80020D5
:1041DC00521A5A2AEBD340F618416628C4F202014F
:1041EC000E600BF01680411902304A7852B97FE705
:1041FC0040F61841013AC4F2020101300E6011067A
:10420C003FF476AF66280AF2D18741F2184140F6A6
:10421C001843C4F20201C4F20203C1F80090295CF5
:10422C00C3F800A0DBF80040DBF800301B1B592B57
:10423C000ED8DBF800301B1B592B9EBFDBF800306F
:10424C001B1B592B04D8DBF800301B1B5A2BEBD350
:10425C00D8F800309B070CD4D8F800309B075CBF13
:10426C00D8F800305FEA837303D4D8F800309B078A
:10427C00EED5C8F804E0D8F80030DB070CD1D8F83C
:10428C000030DB0704BFD8F800305FEAC37303D1FA
:10429C00D8F80030DB07EED0D8F800301B060CD570
:1042AC00D8F800301B0644BFD8F800305FEA03632F
:1042BC0003D5D8F800301B06EED4D8F80430DBF860
:1042CC000040DBF800301B1B592B0ED8DBF80030FC
:1042DC001B1B592B9EBFDBF800301B1B592B04D822
:1042EC00DBF800301B1B5A2BEBD3DBF80040DBF860
:1042FC0000301B1B592B0ED8DBF800301B1B592B25
:10430C009EBFDBF800301B1B592B04D8DBF80030A8
:10431C001B1B5A2BEBD3D8F800309B070CD4D8F8C6
:10432C0000309B075CBFD8F800305FEA837303D47E
:10433C00D8F800309B07EED5C8F80410D8F8001058
:10434C00C9070CD1D8F80010C90704BFD8F8001061
:10435C005FEAC17103D1D8F80010C907EED0D8F8C4
:10436C00001009060CD5D8F80010090644BFD8F87F
:10437C0000105FEA016103D5D8F800100906EED4ED
:10438C00D8F80410DBF80010DBF800305B1A592B5E
:10439C003FF62EAFDBF800305B1A592B9EBFDBF8D3
:1043AC0000305B1A592B3FF623AFDBF800305B1A59
:1043BC005A2BE9D31CE741F218414FF00050C4F2DC
:1043CC000201086040F618414FF08040C4F202012F
:1043DC000860DBF80000DBF80010091A59290ED828
:1043EC00DBF80010091A59299EBFDBF80010091AD6
:1043FC00592904D8DBF80010091A5A29EBD30DF10E
:10440C007409D8F8000080070CD4D8F80000800795
:10441C005CBFD8F800005FEA807003D4D8F80000C5
:10442C008007EED5B620C8F80400D8F80000C00705
:10443C000CD1D8F80000C00704BFD8F800005FEA20
:10444C00C07003D1D8F80000C007EED0D8F8000037
:10445C0000060CD5D8F80000000644BFD8F80000C0
:10446C005FEA006003D5D8F800000006EED4D8F857
:10447C000400DBF80000DBF80010091A59290ED8EB
:10448C00DBF80010091A59299EBFDBF80010091A35
:10449C00592904D8DBF80010091A5A29EBD340F635
:1044AC00184141F218424FF48040C4F202010860F6
:1044BC004FF40050C4F2020210604FF080400860CC
:1044CC00DBF80000DBF80010091A59290ED8DBF8CC
:1044DC000010091A59299EBFDBF80010091A592936
:1044EC0004D8DBF80010091A5A29EBD3D8F80000CD
:1044FC0080070CD4D8F8000080075CBFD8F8000007
:10450C005FEA807003D4D8F800008007EED5002055
:10451C00C8F80400D8F80000C0070CD1D8F8000087
:10452C00C00704BFD8F800005FEAC07003D1D8F808
:10453C000000C007EED0D8F8000000060CD5D8F863
:10454C000000000644BFD8F800005FEA006003D505
:10455C00D8F800000006EED4D8F80400DBF8000010
:10456C00DBF80010091A59290ED8DBF80010091ACB
:10457C0059299EBFDBF80010091A592904D8DBF819
:10458C000010091A5A29EBD3DBF80000DBF80010F5
:10459C00091A59290ED8DBF80010091A59299EBF9F
:1045AC00DBF80010091A592904D8DBF80010091A95
:1045BC005A29EBD3D8F8000080070CD4D8F80000A7
:1045CC0080075CBFD8F800005FEA807003D4D8F88D
:1045DC0000008007EED50020C8F80400D8F80000D1
:1045EC00C0070CD1D8F80000C00704BFD8F80000F1
:1045FC005FEAC07003D1D8F80000C007EED0D8F83D
:10460C00000000060CD5D8F80000000644BFD8F80E
:10461C0000005FEA006003D5D8F800000006EED475
:10462C00D8F80400DBF80000DBF80010091A59294F
:10463C000ED8DBF80010091A59299EBFDBF80010C0
:10464C00091A592904D8DBF80010091A5A29EBD396
:10465C0040F6184141F218424FF48040C4F2020176
:10466C0008604FF40050C4F2020210604FF080401A
:10467C000860DBF80000DBF80010091A59290ED885
:10468C00DBF80010091A59299EBFDBF80010091A33
:10469C00592904D8DBF80010091A5A29EBD3D8F899
:1046AC00000080070CD4D8F8000080075CBFD8F855
:1046BC0000005FEA807003D4D8F800008007EED5C4
:1046CC000020C8F80400D8F80000C0070CD1D8F8B6
:1046DC000000C00704BFD8F800005FEAC07003D127
:1046EC00D8F80000C007EED0D8F8000000060CD5B2
:1046FC00D8F80000000644BFD8F800005FEA00605C
:10470C0003D5D8F800000006EED4D8F80400DBF886
:10471C000000DBF80010091A59290ED8DBF800103C
:10472C00091A59299EBFDBF80010091A592904D817
:10473C00DBF80010091A5A29EBD3DBF80000DBF880
:10474C000010091A59290ED8DBF80010091A59293A
:10475C009EBFDBF80010091A592904D8DBF80010A9
:10476C00091A5A29EBD3D8F8000080070CD4D8F8D2
:10477C00000080075CBFD8F800005FEA807003D4AB
:10478C00D8F800008007EED56220C8F80400D8F8ED
:10479C000000C0070CD1D8F80000C00704BFD8F83F
:1047AC0000005FEAC07003D1D8F80000C007EED05B
:1047BC00D8F8000000060CD5D8F80000000644BF5D
:1047CC00D8F800005FEA006003D5D8F800000006B6
:1047DC00EED4D8F80400DBF80000DBF80010091A5E
:1047EC0059290ED8DBF80010091A59299EBFDBF89D
:1047FC000010091A592904D8DBF80010091A5A2993
:10480C00EBD340F6184141F218424FF48040C4F209
:10481C00020108604FF00050C4F2020210604FF029
:10482C0080400860DBF80000DBF80010091A5929F9
:10483C000ED8DBF80010091A59299EBFDBF80010BE
:10484C00091A592904D8DBF80010091A5A29EBD394
:10485C00D8F8000080070CD4D8F8000080075CBFA3
:10486C00D8F800005FEA807003D4D8F80000800705
:10487C00EED53620C8F80400D8F80000C0070CD1DB
:10488C00D8F80000C00704BFD8F800005FEAC07079
:10489C0003D1D8F80000C007EED0D8F8000000060D
:1048AC000CD5D8F80000000644BFD8F800005FEA29
:1048BC00006003D5D8F800000006EED4D8F8040048
:1048CC00DBF80000DBF80010091A59290ED8DBF8C8
:1048DC000010091A59299EBFDBF80010091A592932
:1048EC0004D8DBF80010091A5A29EBD340F618410A
:1048FC0041F218424FF48040C4F2020108604FF4B8
:10490C000050C4F2020210604FF080400860DBF8E7
:10491C000000DBF80010091A59290ED8DBF800103A
:10492C00091A59299EBFDBF80010091A592904D815
:10493C00DBF80010091A5A29EBD3D8F800008007CD
:10494C000CD4D8F8000080075CBFD8F800005FEAF0
:10495C00807003D4D8F800008007EED50020C8F88A
:10496C000400D8F80000C0070CD1D8F80000C0072C
:10497C0004BFD8F800005FEAC07003D1D8F800007B
:10498C00C007EED0D8F8000000060CD5D8F800000F
:10499C00000644BFD8F800005FEA006003D5D8F8E1
:1049AC0000000006EED4D8F80400DBF80000DBF8B9
:1049BC000010091A59290ED8DBF80010091A5929C8
:1049CC009EBFDBF80010091A592904D8DBF8001037
:1049DC00091A5A29EBD3DBF80000DBF80010091A8E
:1049EC0059290ED8DBF80010091A59299EBFDBF89B
:1049FC000010091A592904D8DBF80010091A5A2991
:104A0C00EBD3D8F8000080070CD4D8F8000080074E
:104A1C005CBFD8F800005FEA807003D4D8F80000BF
:104A2C008007EED52820C8F80400D8F80000C0078D
:104A3C000CD1D8F80000C00704BFD8F800005FEA1A
:104A4C00C07003D1D8F80000C007EED0D8F8000031
:104A5C0000060CD5D8F80000000644BFD8F80000BA
:104A6C005FEA006003D5D8F800000006EED4D8F851
:104A7C000400DBF80000DBF80010091A59290ED8E5
:104A8C00DBF80010091A59299EBFDBF80010091A2F
:104A9C00592904D8DBF80010091A5A29EBD340F62F
:104AAC0018414FF48040C4F2020108604AF68001BC
:104ABC00DBF80000C0F21211DBF80020121A8A4257
:104ACC000ED2DBF80020121A8A423EBFDBF800201F
:104ADC00121A8A4204D2DBF80020121A8A42EBD353
:104AEC0041F218414FF00050C4F20201086040F648
:104AFC0018414FF08040C4F202010860DBF800005E
:104B0C00DBF80010091A59290ED8DBF80010091A25
:104B1C0059299EBFDBF80010091A592904D8DBF873
:104B2C000010091A5A29EBD3D8F8000080070CD4CE
:104B3C00D8F8000080075CBFD8F800005FEA8070EE
:104B4C0003D4D8F800008007EED51120C8F8040073
:104B5C00D8F80000C0070CD1D8F80000C00704BF7B
:104B6C00D8F800005FEAC07003D1D8F80000C00785
:104B7C00EED0D8F8000000060CD5D8F800000006DE
:104B8C0044BFD8F800005FEA006003D5D8F80000F5
:104B9C000006EED4D8F80400DBF80000DBF80010B7
:104BAC00091A59290ED8DBF80010091A59299EBF89
:104BBC00DBF80010091A592904D8DBF80010091A7F
:104BCC005A29EBD340F618414FF48040C4F202014D
:104BDC0008604CF68031DBF80000C0F2A401DBF871
:104BEC000020121A8A420ED2DBF80020121A8A42D6
:104BFC003EBFDBF80020121A8A4204D2DBF80020F8
:104C0C00121A8A42EBD341F218414FF00050C4F211
:104C1C000201086040F618414FF08040C4F20201D6
:104C2C000860DBF80000DBF80010091A59290ED8CF
:104C3C00DBF80010091A59299EBFDBF80010091A7D
:104C4C00592904D8DBF80010091A5A29EBD3D8F8E3
:104C5C00000080070CD4D8F8000080075CBFD8F89F
:104C6C0000005FEA807003D4D8F800008007EED50E
:104C7C002920C8F80400D8F80000C0070CD1D8F8D7
:104C8C000000C00704BFD8F800005FEAC07003D171
:104C9C00D8F80000C007EED0D8F8000000060CD5FC
:104CAC00D8F80000000644BFD8F800005FEA0060A6
:104CBC0003D5D8F800000006EED4D8F80400DBF8D1
:104CCC000000DBF80010091A59290ED8DBF8001087
:104CDC00091A59299EBFDBF80010091A592904D862
:104CEC00DBF80010091A5A29EBD340F618414FF49F
:104CFC008040C4F2020100250860002000214FF41E
:104D0C00F0724FF4A0730095FCF709FD4FF6FF7499
:104D1C0000201E214FF4F072012300940126FCF7B1
:104D2C00FEFC002040F221114FF4F072012300949C
:104D3C00FCF7F5FC4AF6552041F604312390082087
:104D4C001E9041F68C00C0F60100C0F601011D90CA
:104D5C000620229041F6DC20C0F6010010222190A2
:104D6C004846CDE92D55CDE92B558DF8BC50CDE9F4
:104D7C001F65CDE92455CDE92655CDE928552A9551
:104D8C00FCF741FE41F614314846C0F601011D22E4
:104D9C00FCF7D8FD41F631314846C0F6010132220C
:104DAC00FCF7D0FD2A9810288AF0378209F13806D2
:104DBC0041F66331C0F60101112235542A980130B5
:104DCC002A901DA8FCF7BEFD2A9810288AF025828F
:104DDC004FF0000941F6743106F80090C0F601015D
:104DEC001D222A9801302A901DA8FCF7ABFD00204B
:104DFC004FF491714FF4F0721E23CDF80090FCF734
:104E0C008EFC40F2C1104FF4917101221E230094CC
:104E1C00FCF785FC4FF4D1704FF4917101221E23E5
:104E2C000094FCF77CFC40F283104FF4917101224A
:104E3C001E230094FCF773FC4FF4B2704FF4917185
:104E4C0001221E230094FCF76AFC40F245104FF43B
:104E5C00917101221E230094FCF761FC4FF49370B6
:104E6C004FF4917101221E230094FCF758FC40F280
:104E7C0007104FF4917101221E230094FCF74FFC94
:104E8C00E8204FF4917101221E230094FCF747FC9B
:104E9C001E9D002D0AF0FD811D9C217811B1EF2083
:104EAC00FCF70CFE012D0AF0CE81617800291CBFA5
:104EBC004FF48770FCF702FE022D0AF0CA81A1782C
:104ECC0000291CBF40F22D10FCF7F8FD032D0AF051
:104EDC00C681E17800291CBF4FF4A670FCF7EEFDEB
:104EEC00042D0AF0C281217900291CBF40F26B10FD
:104EFC00FCF7E4FD052D0AF0BE81617900291CBF89
:104F0C004FF4C570FCF7DAFD062D0AF0BA81A179D1
:104F1C0000291CBF40F2A910FCF7D0FD072D0AF0A8
:104F2C00B681E17900291CBF4FF4E470FCF7C6FD93
:104F3C001DAC0AA84C2221460BF042FB00224FF676
:104F4C00FF71C4F2020245F68F7CD2F8000C0023EC
:104F5C00C0F2010C4FF00109884340F61841C2F829
:104F6C00000CC4F20201D1F8E8034FF0070A6FF30A
:104F7C000F00C1F8E8034FF47F00086041F21801FC
:104F8C00C4F2020108600020CDE92333CDE92133BE
:104F9C00CDE91F33CDE91D3300E07046DBF800E0AE
:104FAC00AEEB000161450CD8DBF800E0AEEB000184
:104FBC0061459EBFDBF800E0AEEB000161454AF2B3
:104FCC00E68041F218400022C4F2020050F8080CAE
:104FDC00CDF81CE0C0B2089005E090B1322038E06A
:104FEC000132082AD9D0D1B2099254F82200089A79
:104FFC0022FA01F1C907F0D0099A0028F0D0013843
:10500C0027E009980B99C0F1070088428AF0C88004
:10501C000A99095C9DF87000DFE810F0280206037D
:10502C000F0004010800080008000E010729D5D064
:10503C000AA8FEF73DFC07F091BC01393220052986
:10504C0007D8DFE811F00A00E60606000600D906CC
:10505C00F504099A44F82200C2E71398002807F0D7
:10506C003685461E042813968AF0C88000EBC004CF
:10507C0029206422012300EB84010A206425FBF71C
:10508C0044FCA00000220690FF2402E0013D02F047
:10509C00C684DBF80000DBF80010091A59290ED879
:1050AC00DBF80010091A59299EBFDBF80010091A09
:1050BC00592904D8DBF80010091A5A29EBD3D8F86F
:1050CC00000080070CD4D8F8000080075CBFD8F82B
:1050DC0000005FEA807003D4D8F800008007EED59A
:1050EC00C8F80420D8F80000C0070CD1D8F800008C
:1050FC00C00704BFD8F800005FEAC07003D1D8F82D
:10510C000000C007EED0D8F8000000060CD5D8F887
:10511C000000000644BFD8F800005FEA006003D529
:10512C00D8F800000006EED4D8F80400DBF8000034
:10513C00DBF80010091A59290ED8DBF80010091AEF
:10514C0059299EBFDBF80010091A592904D8DBF83D
:10515C000010091A5A29EBD3DBF80000DBF8001019
:10516C00091A59290ED8DBF80010091A59299EBFC3
:10517C00DBF80010091A592904D8DBF80010091AB9
:10518C005A29EBD3D8F8000080070CD4D8F80000CB
:10519C0080075CBFD8F800005FEA807003D4D8F8B1
:1051AC0000008007EED5C8F80420D8F80000C0072E
:1051BC000CD1D8F80000C00704BFD8F800005FEA93
:1051CC00C07003D1D8F80000C007EED0D8F80000AA
:1051DC0000060CD5D8F80000000644BFD8F8000033
:1051EC005FEA006003D5D8F800000006EED4D8F8CA
:1051FC000400DBF80000DBF80010091A59293FF60F
:10520C0045AFDBF80010091A59299EBFDBF80010D6
:10521C00091A59293FF63AAFDBF80010091A5A2936
:10522C00E9D333E7072940F0FE839DF859000B289A
:10523C00C7F0438409F0CABF481E05283FF6CEAE1E
:10524C00DFE810F00600D20BD40CCB0ADF0DF6030E
:10525C00129D072D7FF6C2AE05F007001023109E9D
:10526C00C0EBC004182000EBC4026FF01C0000EA75
:10527C008500059200F13001104608220391FBF7DE
:10528C0044FB05F01F0040F69C010696C0F6010198
:10529C0026FA00F04FEAC40CC0074FF000024FF49E
:1052AC001F6008BF4FF4156008440290A0F5007110
:1052BC0003E00132102A09F05E84002302E001337E
:1052CC00082BF6D002EBD3002AEA0306085C09FA95
:1052DC0006F6DBF800403040DBF80060361B592E38
:1052EC000ED8DBF80060361B592E9EBFDBF8006031
:1052FC00361B592E04D8DBF80060361B5A2EEBD324
:10530C00D8F80060B6070CD4D8F80060B6075CBFBC
:10531C00D8F800605FEA867603D4D8F80060B60748
:10532C00EED5002818BFFF20C8F80400D8F800609C
:10533C00F6070CD1D8F80060F60704BFD8F8006067
:10534C005FEAC67603D1D8F80060F607EED0D8F83D
:10535C00006036060CD5D8F80060360644BFD8F885
:10536C0000605FEA066603D5D8F800603606EED416
:10537C00D8F80460DBF80040DBF80060361B592ECF
:10538C000ED8DBF80060361B592E9EBFDBF8006090
:10539C00361B592E04D8DBF80060361B5A2EEBD383
:1053AC00DBF80040DBF80060361B592E0ED8DBF81A
:1053BC000060361B592E9EBFDBF80060361B592E41
:1053CC0004D8DBF80060361B5A2EEBD3D8F80060FB
:1053DC00B6070CD4D8F80060B6075CBFD8F80060EC
:1053EC005FEA867603D4D8F80060B607EED5C8F825
:1053FC000400D8F80000C0070CD1D8F80000C00792
:10540C0004BFD8F800005FEAC07003D1D8F80000E0
:10541C00C007EED0D8F8000000060CD5D8F8000074
:10542C00000644BFD8F800005FEA006003D5D8F846
:10543C0000000006EED4D8F80400DBF80000DBF81E
:10544C000060361A592E3FF63AAFDBF80060361A78
:10545C00592E9EBFDBF80060361A592E3FF62FAF3F
:10546C00DBF80060361A5A2EE9D328E7179D002D79
:10547C0007F01D839DF8604007203C211023E200BB
:10548C00FBF743FA0023002C00F0E981E00102E075
:10549C00013800F0E481DBF80010DBF80020521A30
:1054AC00592A0ED8DBF80020521A592A9EBFDBF875
:1054BC000020521A592A04D8DBF80020521A5A2A12
:1054CC00EBD3D8F8001089070CD4D8F80010890752
:1054DC005CBFD8F800105FEA817103D4D8F80010D3
:1054EC008907EED5C8F80430D8F80010C9070CD1DC
:1054FC00D8F80010C90704BFD8F800105FEAC171D2
:10550C0003D1D8F80010C907EED0D8F8001009065E
:10551C000CD5D8F80010090644BFD8F800105FEA83
:10552C00016103D5D8F800100906EED4D8F80410A0
:10553C00DBF80010DBF80020521A592A0ED8DBF8E1
:10554C000020521A592A9EBFDBF80020521A592A01
:10555C0004D8DBF80020521A5A2AEBD3DBF80010DF
:10556C00DBF80020521A592A0ED8DBF80020521A08
:10557C00592A9EBFDBF80020521A592A04D8DBF8AE
:10558C000020521A5A2AEBD3D8F8001089070CD4F1
:10559C00D8F8001089075CBFD8F800105FEA817159
:1055AC0003D4D8F800108907EED5C8F80430D8F821
:1055BC000010C9070CD1D8F80010C90704BFD8F8DF
:1055CC0000105FEAC17103D1D8F80010C907EED002
:1055DC00D8F8001009060CD5D8F80010090644BFFD
:1055EC00D8F800105FEA016103D5D8F8001009065D
:1055FC00EED4D8F80410DBF80010DBF80020521AB7
:10560C00592A3FF645AFDBF80020521A592A9EBFA3
:10561C00DBF80020521A592A3FF63AAFDBF800208B
:10562C00521A5A2AE9D333E7052900F0DA83042900
:10563C0000F0E68203297FF4D1AC119D002D06F019
:10564C00A6826C1E032D119489F0DB85C5F1030035
:10565C00072108221023A0EB4010069000F2E7105F
:10566C00FBF753F941F66040C0F6010050F82510E5
:10567C004FF60060CFF6FF7000EB0110B0F5156F20
:10568C0009F290854FEA011C40F69C01C0F601011D
:10569C000A18CCF535610023CDE9045403E001333D
:1056AC00102B00F07585002502E00135082DF6D091
:1056BC0003EBD500884289F07385105C2AEA050655
:1056CC00DBF8004009FA06F63040DBF80060361BC8
:1056DC00592E0ED8DBF80060361B592E9EBFDBF816
:1056EC000060361B592E04D8DBF80060361B5A2E8E
:1056FC00EBD3D8F80060B6070CD4D8F80060B60726
:10570C005CBFD8F800605FEA867603D4D8F80060F6
:10571C00B607EED5002818BFFF20C8F80400D8F84B
:10572C000060F6070CD1D8F80060F60704BFD8F873
:10573C0000605FEAC67603D1D8F80060F607EED0B9
:10574C00D8F8006036060CD5D8F80060360644BF91
:10575C00D8F800605FEA066603D5D8F80060360614
:10576C00EED4D8F80460DBF80040DBF80060361BA0
:10577C00592E0ED8DBF80060361B592E9EBFDBF875
:10578C000060361B592E04D8DBF80060361B5A2EED
:10579C00EBD3DBF80040DBF80060361B592E0ED83B
:1057AC00DBF80060361B592E9EBFDBF80060361B01
:1057BC00592E04D8DBF80060361B5A2EEBD3D8F8E0
:1057CC000060B6070CD4D8F80060B6075CBFD8F8F8
:1057DC0000605FEA867603D4D8F80060B607EED591
:1057EC00C8F80400D8F80000C0070CD1D8F80000A5
:1057FC00C00704BFD8F800005FEAC07003D1D8F826
:10580C000000C007EED0D8F8000000060CD5D8F880
:10581C000000000644BFD8F800005FEA006003D522
:10582C00D8F800000006EED4D8F80400DBF800002D
:10583C00DBF80060361A592E3FF637AFDBF8006004
:10584C00361A592E9EBFDBF80060361A592E3FF6D9
:10585C002CAFDBF80060361A5A2EE9D325E740F658
:10586C001840012DC4F202004FF48041016007F092
:10587C001E819DF8614007204C211023E200FBF7AC
:10588C0044F80023002C00F0D780E00102E001383E
:10589C0000F0D280DBF80010DBF80020521A592AF5
:1058AC000ED8DBF80020521A592A9EBFDBF80020D4
:1058BC00521A592A04D8DBF80020521A5A2AEBD370
:1058CC00D8F8001089070CD4D8F8001089075CBFF1
:1058DC00D8F800105FEA817103D4D8F8001089075A
:1058EC00EED5C8F80430D8F80010C9070CD1D8F898
:1058FC000010C90704BFD8F800105FEAC17103D1CA
:10590C00D8F80010C907EED0D8F8001009060CD54D
:10591C00D8F80010090644BFD8F800105FEA0161FE
:10592C0003D5D8F800100906EED4D8F80410DBF82B
:10593C000010DBF80020521A592A0ED8DBF8002090
:10594C00521A592A9EBFDBF80020521A592A04D841
:10595C00DBF80020521A5A2AEBD3DBF80010DBF8E4
:10596C000020521A592A0ED8DBF80020521A592A54
:10597C009EBFDBF80020521A592A04D8DBF800200D
:10598C00521A5A2AEBD3D8F8001089070CD4D8F83D
:10599C00001089075CBFD8F800105FEA817103D44E
:1059AC00D8F800108907EED5C8F80430D8F80010E4
:1059BC00C9070CD1D8F80010C90704BFD8F80010DB
:1059CC005FEAC17103D1D8F80010C907EED0D8F83E
:1059DC00001009060CD5D8F80010090644BFD8F8F9
:1059EC0000105FEA016103D5D8F800100906EED467
:1059FC00D8F80410DBF80010DBF80020521A592AF2
:105A0C003FF645AFDBF80020521A592A9EBFDBF84F
:105A1C000020521A592A3FF63AAFDBF80020521AEE
:105A2C005A2AE9D333E70AA8FDF742FF07F044B836
:105A3C000AA8012106F090BF40F61840022DC4F2CE
:105A4C0002004FF48041016007F031809DF8624004
:105A5C0007205C211023E200FAF757FF0023002CEB
:105A6C0000F0B282E00102E0013800F0AD82DBF818
:105A7C000010DBF80020521A592A0ED8DBF800204F
:105A8C00521A592A9EBFDBF80020521A592A04D800
:105A9C00DBF80020521A5A2AEBD3D8F800108907E9
:105AAC000CD4D8F8001089075CBFD8F800105FEA56
:105ABC00817103D4D8F800108907EED5C8F80430EA
:105ACC00D8F80010C9070CD1D8F80010C90704BFCA
