:020000040800F2
:1000000000000320AD01000835120108ED310108A0
:1000100035120108351201083512010800000000F0
:100020000000000000000000000000003512010880
:1000300035120108000000003512010835120108D0
:100040003512010835120108351201083512010870
:100050003512010835120108351201083512010860
:100060003512010835120108351201083512010850
:100070003512010835120108351201083512010840
:100080003512010835120108351201083512010830
:100090003512010835120108351201083512010820
:1000A0003512010835120108351201083512010810
:1000B0003512010835120108351201083512010800
:1000C00035120108351201083512010835120108F0
:1000D00035120108351201083512010835120108E0
:1000E00035120108351201083512010835120108D0
:1000F00035120108351201083512010835120108C0
:1001000035120108351201083512010835120108AF
:10011000351201083512010835120108351201089F
:10012000351201083512010835120108351201088F
:10013000351201083512010835120108351201087F
:10014000351201083512010835120108351201086F
:10015000351201083512010835120108351201085F
:10016000351201083512010835120108351201084F
:10017000351201083512010835120108351201083F
:10018000351201083512010835120108351201082F
:10019000351201083512010835120108351201081F
:0C01A00035120108351201083512010863
:1001AC0011F045F80E480F490022814201D004C0DD
:1001BC00FBE70D480D490E4A814202D008CA08C01F
:1001CC00FAE70C484FF47001026842EA010202603F
:1001DC00BFF34F8FBFF36F8F07F0D9F900DE00002C
:1001EC00000000200400002000000020000000207F
:1001FC00184D010888ED00E0EAB180B56F4601EBBF
:10020C00020C44F60002C4F2000203E00131536018
:10021C0061450ED00B7810680006F7D41068000604
:10022C005CBF10685FEA0060F0D410680006F2D57D
:10023C00ECE7BDE880400020704780B56F460B4668
:10024C00D0E900121846BDE8804010F0EBBA80B53A
:10025C006F4681B0002080290090684602D200F1E0
:10026C00010C37E0B1F5006F0BD202220B4662F3A2
:10027C009F13C02200F1020C8DF8013042EA91115B
:10028C0028E0B1F5803F10D202220B4662F39F1397
:10029C008DF802308B0900F1030C62F39F13E022FE
:1002AC008DF8013042EA113114E002220B4662F360
:1002BC009F138DF803308B0900F1040C62F39F132C
:1002CC008DF802300B0B62F39F13F0228DF8013086
:1002DC0042EA914144F600028DF800106946C4F2DE
:1002EC00000203E00131536061450ED00B781068B9
:1002FC000006F7D4106800065CBF10685FEA006067
:10030C00F0D410680006F2D5ECE7002001B080BDF7
:10031C00F0B503AF4DF8048D82B0804600208029E3
:10032C00019003D201248DF8041033E0B1F5006F75
:10033C0009D20224084664F39F108DF80500C020F2
:10034C0040EA911024E002200A4660F39F12B1F5B6
:10035C00803F0DD28DF806208A0960F39F12E020B1
:10036C0040EA11308DF805208DF80400032411E0CB
:10037C008DF807208A0960F39F128DF806200A0B6E
:10038C00042460F39F12F02040EA91408DF8052080
:10039C008DF80400D8E90156B54215D309D0D8F828
:1003AC00000001A9AA1B3044944238BF224611F028
:1003BC00E5FD3019A84238BF0546C8F808500020A2
:1003CC0002B05DF8048BF0BD3046294610F04BFCB2
:1003DC0080B56F460A4643F24021C0F60101BDE8E4
:1003EC00804010F00ABB80B56F460A4643F22821C4
:1003FC00C0F60101BDE8804010F0FFBA80B56F4631
:10040C00C00708BF80BDBDE8804011F07BBCF0B5D3
:10041C0003AF2DE9000F83B0BC689A469046D4E92F
:10042C0002B52B465A4600F0F8F9A8F120000BF162
:10043C0007016843C9080191484361688142C0F0D3
:10044C00DF80002D18BFBBF1000F0BD140F6184018
:10045C004FF48041C4F202000160584603B0BDE87D
:10046C00000FF0BD22682426091A002302EB0009B4
:10047C0043F20802C4F20006C4F201024FF007086E
:10048C00009504E0029B009D0133AB42DED0019845
:10049C000025029303FB00FE02E001355D45F1D01F
:1004AC000EEBD500884280F0AD8019F8000028EAE8
:1004BC000503D6F800C0D84000F00100404200EA25
:1004CC000A003368A3EB0C03592B0ED83368A3EB4B
:1004DC000C03592B9EBF3368A3EB0C03592B04D888
:1004EC003368A3EB0C035A2BEBD313689B0709D48B
:1004FC0013689B075CBF13685FEA837302D41368AD
:10050C009B07F2D583B21B0A53601368DB0709D132
:10051C001368DB0704BF13685FEAC37302D1136867
:10052C00DB07F2D013681B0609D513681B0644BF02
:10053C0013685FEA036302D513681B06F2D4536891
:10054C0033683468E41A592C0BD83468E41A592CE3
:10055C009EBF3468E41A592C03D83468E41A5A2C18
:10056C00EFD333683468E41A592C0BD83468E41A86
:10057C00592C9EBF3468E41A592C03D83468E41AF9
:10058C005A2CEFD313689B0709D413689B075CBFE5
:10059C0013685FEA837302D413689B07F2D5C0B269
:1005AC0050601068C00709D11068C00704BF1068FC
:1005BC005FEAC07002D11068C007F2D01068000664
:1005CC0009D51068000644BF10685FEA006002D5C8
:1005DC0010680006F2D45068306833681B1A592B27
:1005EC003FF65BAF33681B1A592B9EBF33681B1A3F
:1005FC00592B3FF652AF33681B1A5A2BEDD34CE7ED
:10060C0010F031FB0FF0E1FDF0B503AF2DE9000F59
:10061C0083B0BC68202A03D27F22267C46B913E023
:10062C00B2F5657F0CD0B52A08BF8022267C5EB15E
:10063C00BC6003B0BDE8000FBDE8F040FFF7E7BEBB
:10064C00AE22267C002EF3D1D4E9029615469A46AA
:10065C0033464A4600F0E1F8002E019618BFB9F176
:10066C00000F0CD140F618404FF48041C4F2020048
:10067C00016009F1010003B0BDE8000FF0BDA5F168
:10068C002000D4E90081242643F2080409FB00FB76
:10069C000022C4F20006C4F2010403E0DDE9010209
:1006AC008242DFD002F0070001230132029203FAEA
:1006BC0000FC002301E04B45F0D003EB0B0088421B
:1006CC0080F0A98018F800000133D6F800E000EAA9
:1006DC000C003568A5EB0E05592D0ED83568A5EB29
:1006EC000E05592D9EBF3568A5EB0E05592D04D866
:1006FC003568A5EB0E055A2DEBD32568AD0709D44B
:10070C002568AD075CBF25685FEA857502D425684E
:10071C00AD07F2D5002818BF504685B22D0A65608A
:10072C002568ED0709D12568ED0704BF25685FEA48
:10073C00C57502D12568ED07F2D025682D0609D5BF
:10074C0025682D0644BF25685FEA056502D5256836
:10075C002D06F2D4656835683268521B592A0BD8BD
:10076C003268521B592A9EBF3268521B592A03D831
:10077C003268521B5A2AEFD335683268521B592AF9
:10078C000BD83268521B592A9EBF3268521B592A09
:10079C0003D83268521B5A2AEFD32268920709D425
:1007AC00226892075CBF22685FEA827202D42268D8
:1007BC009207F2D5C0B260602068C00709D12068EA
:1007CC00C00704BF20685FEAC07002D12068C00770
:1007DC00F2D02068000609D52068000644BF2068C6
:1007EC005FEA006002D520680006F2D460683068C9
:1007FC003268121A592A3FF65EAF3268121A592A19
:10080C009EBF3268121A592A3FF655AF3268121A37
:10081C005A2AEDD34FE70FF0D8FCF0B503AF4DF8E3
:10082C00048D40F6184C4FF00056C4F2020C40F206
:10083C00240ECCF800684FF08046CCF80060C4F26F
:10084C00000EDEF80060A1F10108441EDEF8005035
:10085C00AD1B592D0ED8DEF80050AD1B592D9EBF87
:10086C00DEF80050AD1B592D04D8DEF80050AD1B3E
:10087C005A2DEBD3144443F20802C4F2010215685A
:10088C00AD0709D41568AD075CBF15685FEA8575BF
:10089C0002D41568AD07F2D52A2555601568ED0709
:1008AC0009D11568ED0704BF15685FEAC57502D15B
:1008BC001568ED07F2D015682D0609D515682D06BB
:1008CC0044BF15685FEA056502D515682D06F2D49C
:1008DC005568DEF80060DEF80050AD1B592D0ED8BF
:1008EC00DEF80050AD1B592D9EBFDEF80050AD1B3D
:1008FC00592D04D8DEF80050AD1B5A2DEBD34FF414
:10090C008045CCF800504FF40055CCF800584FF00F
:10091C008045CCF80050DEF80060DEF80050AD1BCE
:10092C00592D0ED8DEF80050AD1B592D9EBFDEF8A8
:10093C000050AD1B592D04D8DEF80050AD1B5A2DBC
:10094C00EBD343441568AD0709D41568AD075CBFFC
:10095C0015685FEA857502D41568AD07F2D50025D8
:10096C0055601568ED0709D11568ED0704BF1568CA
:10097C005FEAC57502D11568ED07F2D015682D0632
:10098C0009D515682D0644BF15685FEA056502D5C3
:10099C0015682D06F2D45568DEF80050DEF80060BC
:1009AC00761B592E0ED8DEF80060761B592E9EBF92
:1009BC00DEF80060761B592E04D8DEF80060761B3A
:1009CC005A2EEBD3DEF80050DEF80060761B592E61
:1009DC000ED8DEF80060761B592E9EBFDEF8006044
:1009EC00761B592E04D8DEF80060761B5A2EEBD3FA
:1009FC001568AD0709D41568AD075CBF15685FEACB
:100A0C00857502D41568AD07F2D5C0F3072555607E
:100A1C001568ED0709D11568ED0704BF15685FEA85
:100A2C00C57502D11568ED07F2D015682D0609D5EC
:100A3C0015682D0644BF15685FEA056502D5156873
:100A4C002D06F2D45568DEF80050DEF80060761BF7
:100A5C00592E0ED8DEF80060761B592E9EBFDEF89C
:100A6C000060761B592E04D8DEF80060761B5A2ED7
:100A7C00EBD34FF48045CCF800504FF40055CCF834
:100A8C0000584FF08045CCF80050DEF80050DEF8EE
:100A9C000060761B592E0ED8DEF80060761B592E9E
:100AAC009EBFDEF80060761B592E04D8DEF800607D
:100ABC00761B5A2EEBD31568AD0709D41568AD0714
:100ACC005CBF15685FEA857502D41568AD07F2D571
:100ADC00002555601568ED0709D11568ED0704BFB1
:100AEC0015685FEAC57502D11568ED07F2D0156877
:100AFC002D0609D515682D0644BF15685FEA0565F6
:100B0C0002D515682D06F2D45568DEF80050DEF8D3
:100B1C000060761B592E0ED8DEF80060761B592E1D
:100B2C009EBFDEF80060761B592E04D8DEF80060FC
:100B3C00761B5A2EEBD3DEF80050DEF80060761BE5
:100B4C00592E0ED8DEF80060761B592E9EBFDEF8AB
:100B5C000060761B592E04D8DEF80060761B5A2EE6
:100B6C00EBD31568AD0709D41568AD075CBF1568E4
:100B7C005FEA857502D41568AD07F2D5C0B2506036
:100B8C001068C00709D11068C00704BF10685FEA7D
:100B9C00C07002D11068C007F2D01068000609D5E9
:100BAC001068000644BF10685FEA006002D5106848
:100BBC000006F2D45068DEF80000DEF800502D1A62
:100BCC00592D0ED8DEF800502D1A592D9EBFDEF887
:100BDC0000502D1A592D04D8DEF800502D1A5A2D1C
:100BEC00EBD34FF48040CCF800004FF40050CCF81D
:100BFC0000084FF08040CCF80000DEF80000DEF872
:100C0C0000502D1A592D0ED8DEF800502D1A592DE2
:100C1C009EBFDEF800502D1A592D04D8DEF8005076
:100C2C002D1A5A2DEBD31068800709D41068800751
:100C3C005CBF10685FEA807002D410688007F2D540
:100C4C00002050601068C00709D11068C00704BFAD
:100C5C0010685FEAC07002D11068C007F2D010684B
:100C6C00000609D51068000644BF10685FEA0060F2
:100C7C0002D510680006F2D45068DEF80000DEF8E9
:100C8C0000502D1A592D0ED8DEF800502D1A592D62
:100C9C009EBFDEF800502D1A592D04D8DEF80050F6
:100CAC002D1A5A2DEBD3DEF80000DEF800502D1A69
:100CBC00592D0ED8DEF800502D1A592D9EBFDEF896
:100CCC0000502D1A592D04D8DEF800502D1A5A2D2B
:100CDC00EBD31068800709D4106880075CBF1068DC
:100CEC005FEA807002D410688007F2D5C4F3072045
:100CFC0050601068C00709D11068C00704BF1068A5
:100D0C005FEAC07002D11068C007F2D0106800060C
:100D1C0009D51068000644BF10685FEA006002D570
:100D2C0010680006F2D45068DEF80000DEF80050BF
:100D3C002D1A592D0ED8DEF800502D1A592D9EBFA4
:100D4C00DEF800502D1A592D04D8DEF800502D1A5B
:100D5C005A2DEBD34FF48040CCF800004FF40050E8
:100D6C00CCF800084FF08040CCF80000DEF8000012
:100D7C00DEF800502D1A592D0ED8DEF800502D1A21
:100D8C00592D9EBFDEF800502D1A592D04D8DEF8CF
:100D9C0000502D1A5A2DEBD31068800709D4106817
:100DAC0080075CBF10685FEA807002D4106880070F
:100DBC00F2D5002050601068C00709D11068C00738
:100DCC0004BF10685FEAC07002D11068C007F2D08F
:100DDC001068000609D51068000644BF10685FEA69
:100DEC00006002D510680006F2D45068DEF80000EE
:100DFC00DEF800502D1A592D0ED8DEF800502D1AA1
:100E0C00592D9EBFDEF800502D1A592D04D8DEF84E
:100E1C0000502D1A5A2DEBD3DEF80000DEF80050EE
:100E2C002D1A592D0ED8DEF800502D1A592D9EBFB3
:100E3C00DEF800502D1A592D04D8DEF800502D1A6A
:100E4C005A2DEBD31068800709D4106880075CBF5B
:100E5C0010685FEA807002D410688007F2D5E0B2A7
:100E6C0050601068C00709D11068C00704BF106833
:100E7C005FEAC07002D11068C007F2D0106800069B
:100E8C0009D51068000644BF10685FEA006002D5FF
:100E9C0010680006F2D45068DEF80000DEF800405E
:100EAC00241A592C0ED8DEF80040241A592C9EBF57
:100EBC00DEF80040241A592C04D8DEF80040241A1D
:100ECC005A2CEBD34FF48040CCF800004FF000507C
:100EDC00CCF800084FF08040CCF80000DEF80000A1
:100EEC00DEF80040241A592C0ED8DEF80040241AE3
:100EFC00592C9EBFDEF80040241A592C04D8DEF879
:100F0C000040241A5A2CEBD31068800709D41068BF
:100F1C0080075CBF10685FEA807002D4106880079D
:100F2C00F2D52B2050601068C00709D11068C0079B
:100F3C0004BF10685FEAC07002D11068C007F2D01D
:100F4C001068000609D51068000644BF10685FEAF7
:100F5C00006002D510680006F2D45068DEF800007C
:100F6C00DEF80040241A592C0ED8DEF80040241A62
:100F7C00592C9EBFDEF80040241A592C04D8DEF8F8
:100F8C000040241A5A2CEBD34FF48040CCF80000CC
:100F9C004FF40050CCF800084FF08040CCF8000023
:100FAC00DEF80000DEF80040241A592C0ED8DEF8CA
:100FBC000040241A592C9EBFDEF80040241A592CEC
:100FCC0004D8DEF80040241A5A2CEBD310688007A2
:100FDC0009D4106880075CBF10685FEA807002D487
:100FEC0010688007F2D5002050601068C00709D146
:100FFC001068C00704BF10685FEAC07002D11068A7
:10100C00C007F2D01068000609D51068000644BF6E
:10101C0010685FEA006002D510680006F2D45068D0
:10102C00DEF80000DEF80040241A592C0ED8DEF849
:10103C000040241A592C9EBFDEF80040241A592C6B
:10104C0004D8DEF80040241A5A2CEBD3DEF800004A
:10105C00DEF80040241A592C0ED8DEF80040241A71
:10106C00592C9EBFDEF80040241A592C04D8DEF807
:10107C000040241A5A2CEBD31068800709D410684E
:10108C0080075CBF10685FEA807002D4106880072C
:10109C00F2D5C1F3072050601068C00709D1106861
:1010AC00C00704BF10685FEAC07002D11068C007A7
:1010BC00F2D01068000609D51068000644BF10680D
:1010CC005FEA006002D510680006F2D45068DEF8C2
:1010DC000000DEF80040241A592C0ED8DEF800402F
:1010EC00241A592C9EBFDEF80040241A592C04D81F
:1010FC00DEF80040241A5A2CEBD34FF48040CCF885
:10110C0000004FF40050CCF800084FF08040CCF8B1
:10111C000000DEF80000DEF80040241A592C0ED82E
:10112C00DEF80040241A592C9EBFDEF80040241A29
:10113C00592C04D8DEF80040241A5A2CEBD3106832
:10114C00800709D4106880075CBF10685FEA807064
:10115C0002D410688007F2D5002050601068C007D8
:10116C0009D11068C00704BF10685FEAC07002D1D3
:10117C001068C007F2D01068000609D51068000688
:10118C0044BF10685FEA006002D510680006F2D414
:10119C005068DEF80000DEF80040241A592C0ED8F6
:1011AC00DEF80040241A592C9EBFDEF80040241AA9
:1011BC00592C04D8DEF80040241A5A2CEBD3DEF854
:1011CC000000DEF80040241A592C0ED8DEF800403E
:1011DC00241A592C9EBFDEF80040241A592C04D82E
:1011EC00DEF80040241A5A2CEBD31068800709D47F
:1011FC00106880075CBF10685FEA807002D41068CA
:10120C008007F2D5C8B250601068C00709D11068C9
:10121C00C00704BF10685FEAC07002D11068C00735
:10122C00F2D01068000609D51068000644BF10689B
:10123C005FEA006002D510680006F2D45068DEF850
:10124C000000DEF80010091A59290ED8DEF800103B
:10125C00091A59299EBFDEF80010091A592904D819
:10126C00DEF80010091A5A29EBD34FF48040CCF861
:10127C0000004FF40050CCF800084FF08040CCF840
:10128C000000DEF80000DEF80010091A59290ED80B
:10129C00DEF80010091A59299EBFDEF80010091A51
:1012AC00592904D8DEF80010091A5A29EBD3106812
:1012BC00800709D4106880075CBF10685FEA8070F3
:1012CC0002D410688007F2D5002050601068C00767
:1012DC0009D11068C00704BF10685FEAC07002D162
:1012EC001068C007F2D01068000609D51068000617
:1012FC0044BF10685FEA006002D510680006F2D4A3
:10130C005068DEF80000DEF80010091A59290ED8D2
:10131C00DEF80010091A59299EBFDEF80010091AD0
:10132C00592904D8DEF80010091A5A29EBD3DEF833
:10133C000000DEF80010091A59290ED8DEF800104A
:10134C00091A59299EBFDEF80010091A592904D828
:10135C00DEF80010091A5A29EBD31068800709D45B
:10136C00106880075CBF10685FEA807002D4106858
:10137C008007F2D5C3F3072050601068C00709D16D
:10138C001068C00704BF10685FEAC07002D1106813
:10139C00C007F2D01068000609D51068000644BFDB
:1013AC0010685FEA006002D510680006F2D450683D
:1013BC00DEF80000DEF80010091A59290ED8DEF804
:1013CC000010091A59299EBFDEF80010091A592974
:1013DC0004D8DEF80010091A5A29EBD34FF48040D8
:1013EC00CCF800004FF40050CCF800084FF08040CF
:1013FC00CCF80000DEF80000DEF80010091A5929BC
:10140C000ED8DEF80010091A59299EBFDEF800101C
:10141C00091A592904D8DEF80010091A5A29EBD3F5
:10142C001068800709D4106880075CBF10685FEAF9
:10143C00807002D410688007F2D5002050601068CC
:10144C00C00709D11068C00704BF10685FEAC070FC
:10145C0002D11068C007F2D01068000609D51068D8
:10146C00000644BF10685FEA006002D510680006F1
:10147C00F2D45068DEF80000DEF80010091A592981
:10148C000ED8DEF80010091A59299EBFDEF800109C
:10149C00091A592904D8DEF80010091A5A29EBD375
:1014AC00DEF80000DEF80010091A59290ED8DEF813
:1014BC000010091A59299EBFDEF80010091A592983
:1014CC0004D8DEF80010091A5A29EBD310688007EB
:1014DC0009D4106880075CBF10685FEA807002D482
:1014EC0010688007F2D5D8B250601068C00709D1D7
:1014FC001068C00704BF10685FEAC07002D11068A2
:10150C00C007F2D01068000609D51068000644BF69
:10151C0010685FEA006002D510680006F2D45068CB
:10152C00DEF80000DEF80010091A59290ED8DEF892
:10153C000010091A59299EBFDEF80010091A592902
:10154C0004D8DEF80010091A5A29EBD34FF4804066
:10155C00CCF800004FF00050CCF800084FF0804061
:10156C00CCF80000DEF80000DEF80010091A59294A
:10157C000ED8DEF80010091A59299EBFDEF80010AB
:10158C00091A592904D8DEF80010091A5A29EBD384
:10159C001068800709D4106880075CBF10685FEA88
:1015AC00807002D410688007F2D52C20506010682F
:1015BC00C00709D11068C00704BF10685FEAC0708B
:1015CC0002D11068C007F2D01068000609D5106867
:1015DC00000644BF10685FEA006002D51068000680
:1015EC00F2D45068DEF80000DEF80010091A592910
:1015FC000ED8DEF80010091A59299EBFDEF800102B
:10160C00091A592904D8DEF80010091A5A29EBD303
:10161C004FF48040CCF800004FF40050CCF8000898
:10162C004FF08040CCF800005DF8048BF0BDB0B5F5
:10163C0002AF1C461546FFF7F0F804FB05F0002836
:10164C0000F0AA80BA68242343F20805C4F2000310
:10165C00C4F2010591B2D2B24FEA112C02E001386A
:10166C0000F09A801C681968091B59290BD8196855
:10167C00091B59299EBF1968091B592903D81968D8
:10168C00091B5A29EFD32968890709D429688907C6
:10169C005CBF29685FEA817102D429688907F2D599
:1016AC00C5F804C02968C90709D12968C90704BF4E
:1016BC0029685FEAC17102D12968C907F2D029688B
:1016CC00090609D52968090644BF29685FEA016142
:1016DC0002D529680906F2D469681C681968091BC7
:1016EC0059290BD81968091B59299EBF1968091B60
:1016FC00592903D81968091B5A29EFD31C68196892
:10170C00091B59290BD81968091B59299EBF19683F
:10171C00091B592903D81968091B5A29EFD32968C1
:10172C00890709D4296889075CBF29685FEA817138
:10173C0002D429688907F2D56A602968C90709D1DA
:10174C002968C90704BF29685FEAC17102D12968F9
:10175C00C907F2D02968090609D52968090644BFCA
:10176C0029685FEA016102D529680906F2D4696823
:10177C001C681968091B59293FF671AF1968091BB8
:10178C0059299EBF1968091B59293FF668AF19687A
:10179C00091B5A29EDD362E740F618404FF48041FB
:1017AC00C4F202000160B0BDF0B503AF2DE9000F2B
:1017BC0081B083460D46914600240A2059462A469C
:1017CC0001230094FFF733FF0BF10106A9F1020886
:1017DC000A200122314643460094FFF728FF05F109
:1017EC0009003146012243460094FFF720FF09EB24
:1017FC000B002A46411E0A2001230094FFF717FF15
:10180C00A5F1020A4FF6FF7000900B2031465246AC
:10181C0001234FF6FF74FFF70AFF0094A9F10406A9
:10182C000BF102040B20012233462146FFF7FFFE89
:10183C004FF6FF702146009005F108000122334657
:10184C004FF6FF79FFF7F3FE08EB0B010B20524626
:10185C000123CDF80090FFF7EAFE01B0BDE8000FC0
:10186C00F0BDF0B503AF2DE9000F83B0D0F84C906C
:10187C0043F648388246282001EB020B0C4600EB5D
:10188C0009160725C0F6010802920DE043EA811201
:10189C00841C284631464FF6FF73CDF80080FEF7C6
:1018AC00B3FE05445C4523D0204614F9011BB1F16D
:1018BC00FF3FCAB2EDDC437802F01F01E02A03F0CF
:1018CC003F03E3D38478F02A04F03F0444EA831303
:1018DC000AD3C27801F00701041D02F03F0242EA6C
:1018EC00831242EA8142D4E743EA0132C41CD0E7B6
:1018FC00B9F10F0F9FBF02980AF80900DAF84C00F3
:10190C0001309FBFCAF84C0003B0BDE8000FF0BD1A
:10191C00484610210EF059FCF0B503AF2DE9000F2D
:10192C0081B044F2C41B8D18924689468046072626
:10193C00C0F6010B0C460DE043EA8112841C3046C4
:10194C0007214FF6FF73CDF800B0FEF75DFE06449D
:10195C00AC4223D0204614F9011BB1F1FF3FCAB2AF
:10196C00EDDC437802F01F01E02A03F03F03E3D3E0
:10197C008478F02A04F03F0444EA83130AD3C27833
:10198C0001F00701041D02F03F0242EA831242EA11
:10199C008142D4E743EA0132C41CD0E7D8F83400C2
:1019AC00A0EB0A01002909DD0020CA0000904FEAD3
:1019BC00CA00073007211023FFF739FEC8E90C9A3B
:1019CC0001B0BDE8000FF0BDB0B502AF82B0044667
:1019DC00C8B2DFE810F011001601B200E400670095
:1019EC002F016101FD00930199007A014E008000E6
:1019FC0048013500CB001C00002040F2291100905A
:101A0C00204610221023FFF712FE02B0B0BD43F6A1
:101A1C0048352046C0F6010540F229118E224FF6BA
:101A2C00FF730095FEF7F3FC009504F1080040F2FB
:101A3C0029118F224FF6FF73FEF7E9FC02B0B0BDFF
:101A4C0043F648352046C0F6010540F22911902294
:101A5C004FF6FF730095FEF7DAFC009504F10800D1
:101A6C0040F2291191224FF6FF73FEF7D0FC02B021
:101A7C00B0BD43F648352046C0F6010540F22911A9
:101A8C009E224FF6FF730095FEF7C1FC009504F102
:101A9C00080040F229119F224FF6FF73FEF7B7FCA6
:101AAC0002B0B0BD43F648352046C0F6010540F201
:101ABC00291196224FF6FF730095FEF7A8FC0095AE
:101ACC0004F1080040F2291197224FF6FF73FEF73C
:101ADC009EFC02B0B0BD43F648352046C0F6010569
:101AEC0040F229118C224FF6FF730095FEF78FFC04
:101AFC00009504F1080040F229118D224FF6FF7376
:101B0C00FEF785FC02B0B0BD43F648352046C0F662
:101B1C00010540F229119A224FF6FF730095FEF74A
:101B2C0076FC009504F1080040F229119B224FF637
:101B3C00FF73FEF76CFC02B0B0BD43F6483520468F
:101B4C00C0F6010540F22911A0224FF6FF73009553
:101B5C00FEF75DFC009504F1080040F22911A1226A
:101B6C004FF6FF73FEF753FC02B0B0BD43F6483599
:101B7C002046C0F6010540F22911AA224FF6FF7348
:101B8C000095FEF744FC009504F1080040F2291181
:101B9C00AB224FF6FF73FEF73AFC02B0B0BD43F632
:101BAC0048352046C0F6010540F2291188224FF62F
:101BBC00FF730095FEF72BFC009504F1080040F232
:101BCC00291189224FF6FF73FEF721FC02B0B0BD3C
:101BDC0043F648352046C0F6010540F22911A622ED
:101BEC004FF6FF730095FEF712FC009504F1080008
:101BFC0040F22911A7224FF6FF73FEF708FC02B042
:101C0C00B0BD43F648352046C0F6010540F2291117
:101C1C0098224FF6FF730095FEF7F9FB04F10800CC
:101C2C0040F22911992200954FF6FF73FEF7EFFB56
:101C3C0002B0B0BD43F648352046C0F6010540F26F
:101C4C00291192224FF6FF730095FEF7E0FB0095E9
:101C5C0004F1080040F2291193224FF6FF73FEF7AE
:101C6C00D6FB02B0B0BD43F648352046C0F60105A0
:101C7C0040F22911A8224FF6FF730095FEF7C7FB1F
:101C8C00009504F1080040F22911A9224FF6FF73C8
:101C9C00FEF7BDFB02B0B0BD43F648352046C0F69A
:101CAC00010540F22911A4224FF6FF730095FEF7AF
:101CBC00AEFB009504F1080040F22911A5224FF665
:101CCC00FF73FEF7A4FB02B0B0BD43F648352046C7
:101CDC00C0F6010540F2291194224FF6FF730095CE
:101CEC00FEF795FB009504F1080040F229119522AE
:101CFC004FF6FF73FEF78BFB02B0B0BD43F64835D1
:101D0C002046C0F6010540F2291186224FF6FF73DA
:101D1C000095FEF77CFB009504F1080040F22911B8
:101D2C0087224FF6FF73FEF772FB02B0B0BDF0B521
:101D3C0003AF4DF8048DC46A002C55D0866A0D464D
:101D4C00804609783078814202D0EF20FFF73CFEC4
:101D5C00012C4DD06978707881421CBF4FF487708C
:101D6C00FFF732FE022C47D0A978B07881421CBF15
:101D7C0040F22D10FFF728FE032C41D0E978F078C3
:101D8C0081421CBF4FF4A670FFF71EFE042C3BD003
:101D9C002979307981421CBF40F26B10FFF714FE99
:101DAC00052C35D06979707981421CBF4FF4C57010
:101DBC00FFF70AFE062C2FD0A979B07981421CBFFF
:101DCC0040F2A910FFF700FE072C29D0E979F07931
:101DDC0081421CBF4FF4E470FFF7F6FD0820C8E900
:101DEC000A505DF8048BF0BD002021460EF0EDF991
:101DFC00012021460EF0E9F9022021460EF0E5F90A
:101E0C00032021460EF0E1F9042021460EF0DDF905
:101E1C00052021460EF0D9F9062021460EF0D5F901
:101E2C00072021460EF0D1F9F0B503AF2DE9000FD4
:101E3C0083B0044647F6A86004EB00088B4698F87C
:101E4C005000DFE810F09C015E022C000700070038
:101E5C0007000700204600F0F2FB88F850B05FFA4C
:101E6C008BF0DFE810F00700FB02CD0077010F00CC
:101E7C0035034A03204603B0BDE8000FBDE8F0402F
:101E8C0002F030BE44F200512046C0F601010B2294
:101E9C00FFF742FD44F21861C0F6010166E100252E
:101EAC002C202E21202210230095FFF7C0FB0A20A6
:101EBC002921642202230095FFF7B9FB0A202B216C
:101ECC00022216230095FFF7B2FB6C202B21022275
:101EDC0016230095FFF7ABFB0A2041216422022355
:101EEC000095FFF7A4FB30205221182210230095F7
:101EFC00FFF79DFB0A204D21642202230095FFF77A
:101F0C0096FB0A204F21022216230095FFF78FFB28
:101F1C006C204F21022216230095FFF788FB0A2024
:101F2C006521642202230095FFF781FB3020762186
:101F3C00182210230095FFF77AFB0A2071216422E6
:101F4C0002230095FFF773FB0A207321022216234C
:101F5C000095FFF76CFB6C20732102221623009571
:101F6C00FFF765FB0A208921642202230095FFF705
:101F7C005EFB20209A21382210230095FFF757FB97
:101F8C000A209521642202230095FFF750FB0A20BA
:101F9C009721022216230095FFF749FB6C2097210D
:101FAC00022216230095FFF742FB0A20AD21642282
:101FBC0002230095FFF73BFB2C20BE21202210238F
:101FCC000095FFF734FB0A20B92164220223009507
:101FDC00FFF72DFB0A20BB21022216230095FFF7E9
:101FEC0026FB6C20BB21022216230095FFF71FFB5A
:101FFC000A20D121642202230095FFF718FB2CE75D
:10200C0044F61C212046C0F601011722FFF784FC80
:10201C0044F24C212046C0F60101FFF788FE44F241
:10202C00C41B606C4FF00009C0F6010B019025E059
:10203C00950040F21F460A20642202230096FFF707
:10204C00F6FA05F12B040A200222162321460096EB
:10205C00FFF7EDFA6C202146022216230096FFF7BB
:10206C00E6FA05F141010A20642202230096FFF7EB
:10207C00DEFA09F10109B9F1050F67D044F6F41045
:10208C0009EBC901C0F60100029100EBC9004068E0
:10209C00002849D044F6F411029AC0F6010151F817
:1020AC0039A02E2101EB82044FF6FC710AEB0008DB
:1020BC00C7F6FF7101EA8000C0F13C050EE043EA6F
:1020CC00811200F1020A284621464FF6FF73CDF823
:1020DC0000B0FEF799FA0544C24525D050461AF9CE
:1020EC00011BB1F1FF3FCAB2EDDC437802F01F01D6
:1020FC00E02A03F03F03E2D38678F02A06F03F068D
:10210C0046EA83130BD3C27801F0070100F1040AED
:10211C0002F03F0242EA831242EA8142D3E743EAE9
:10212C00013200F1030ACEE7029A292000EB82016A
:10213C00019881453FF47CAF084664211A22FFF7D1
:10214C0033FB09F10109B9F1050F97D103B0BDE8D3
:10215C00000FF0BD44F2F4412046C0F601010C2200
:10216C00FFF7DAFB44F24041C0F60101204606229B
:10217C0003B0BDE8000FBDE8F04000F0CEBA41F26C
:10218C006A7040F28E31204410F030FB41F6BF40B3
:10219C0040F2C711204410F029FB42F2142040F207
:1021AC008E31204410F0B6FB42F2697040F2C71138
:1021BC00204410F01BFB41F2DC302121204404F0C0
:1021CC00EDF841F686603221204404F0E7F8002651
:1021DC0000201F2119224FF481730096FFF727FA74
:1021EC001A204FF49571302210230096FFF71FFA36
:1021FC0042F63C10204405F05EF847F6906020440F
:10220C0003F04CFBD8F808500123D8E9000A5146DA
:10221C0088F818602A4600960290FFF708FAD8F85A
:10222C001090A94519D20020D8F80C60CDE9000B0C
:10223C0001220298AAEB0601334609EB000B584623
:10224C00FFF7F5F900200AF1010100905846012230
:10225C003346DDF804B0FFF7EAF9D8F81400484526
:10226C0019D0A84217D24FF00009D8F80C50CDF86D
:10227C000090012202992B464618AAEB0501304624
:10228C00FFF7D5F90AF10101304601222B46CDF8B2
:10229C000090FFF7CCF94FF0FF300025C8E904009F
:1022AC0040F2C110002101221E230095FFF7BFF957
:1022BC004FF4C5700721102210230095FFF7B7F9D2
:1022CC004FF4D170002101221E230095FFF7AFF9C6
:1022DC0040F2A9100721102210230095FFF7A7F94F
:1022EC0040F28310002101221E230095FFF79FF975
:1022FC004FF4E4700721102210230095FFF797F993
:10230C00ABE5E56C002D00F0A68020780026282196
:10231C0010230096C2000720FFF789F9012D00F069
:10232C009A806078382110230096C2000720FFF7AE
:10233C007EF9022D00F08F80A078482110230096A2
:10234C00C2000720FFF773F9032D00F08480E078BA
:10235C00582110230096C2000720FFF768F9042DBE
:10236C0079D02079682110230096C2000720FFF74E
:10237C005EF9052D6FD06079782110230096C2008C
:10238C000720FFF754F9062D65D0A079882110237A
:10239C000096C2000720FFF74AF9072D5BD0E079C1
:1023AC00982110230096C2000720FFF740F9082D52
:1023BC0051D0207AA82110230096C2000720FFF7E5
:1023CC0036F9092D47D0607AB82110230096C20047
:1023DC000720FFF72CF90A2D3DD0A07AC821102335
:1023EC000096C2000720FFF722F90B2D33D0E07ABC
:1023FC00D82110230096C2000720FFF718F90C2DE6
:10240C0029D0207BE82110230096C2000720FFF77B
:10241C000EF90D2D1FD0607BF82110230096C20001
:10242C000720FFF704F90E2D15D0A07B4FF4847113
:10243C0010230096C2000720FFF7F9F80F2D0AD0E1
:10244C00E07B4FF48C7110230096C2000720FFF73D
:10245C00EEF8102D66D10020E064FEE444F2242155
:10246C002046C0F60101FFF762FC44F259412046B8
:10247C00C0F601010522FFF74FFA44F25E412046F7
:10248C00C0F601011D22FFF7ECF944F27B41204616
:10249C00C0F601013222FFF7E4F9E06C10283FBFCF
:1024AC0000212154E06C01303FBFE06444F2AD41A7
:1024BC00C0F6010120463FBF1D2203B0BDE8000F4E
:1024CC00BDE8F04038BFFFF7CCB910210DF07DFE10
:1024DC0044F274612046C0F601010F22FFF71CFA8A
:1024EC0044F2A0612046C0F60101012203B0BDE810
:1024FC00000FBDE8F04000F010B944F23061204606
:10250C00C0F601010B22FFF707FA44F26C6120467A
:10251C00C0F60101022203B0BDE8000FBDE8F04097
:10252C0000F0FBB8102010210DF04FFEF0B503AFFA
:10253C002DE9000B82B00B460246C16B806C8842C1
:10254C0072D2082872D2916BDBB251F820100E684F
:10255C00716899426DD9024492F8202091426BD94E
:10256C00346800EB8000317A04EBC30304EBC20641
:10257C00002975685B6854F832604FF00C04A3EBCB
:10258C0005024FF0800318BFA3EBC5043B2303EBFC
:10259C00C008D200002A0ADD0023E80000930029BD
:1025AC0018BF5042414620441023FFF740F8BDB3FA
:1025BC0043F648393544C0F601090DE043EA81126F
:1025CC00861C204641464FF6FF73CDF80090FEF76F
:1025DC001BF80444AE4223D0304616F9011BB1F16E
:1025EC00FF3FCAB2EDDC437802F01F01E02A03F092
:1025FC003F03E3D38678F02A06F03F0646EA8313BE
:10260C000AD3C27801F00701061D02F03F0242EA2C
:10261C00831242EA8142D4E743EA0132C61CD0E776
:10262C0002B0BDE8000BF0BD0DF0CFFD08210DF0A0
:10263C00CCFD18460DF0C9FD10460DF0C6FDF0B5E9
:10264C0003AF2DE9000F81B0C16B00295DD0D0F82C
:10265C00388000F120064FEA81094B244FF0000A24
:10266C0058F8040BA4F122011023D0F800B08068B4
:10267C00CDF800A0C2000A20FEF7D9FFA4F1120188
:10268C000A2078220223CDF800A0FEF7D0FFA4F197
:10269C0010050A20022210232946CDF800A0FEF7CF
:1026AC00C6FF8020294602221023CDF800A0FEF799
:1026BC00BEFF0A20214678220223CDF800A0FEF7A7
:1026CC00B6FF40F28B10844223D0DBF80410307834
:1026DC00814220D9DBF8001010239BF8082001EB75
:1026EC00C000002A4FF0800241684FF00C00CDF87A
:1026FC0000A018BFA2EBC100CA002946FEF797FF45
:10270C0028340136B9F10409AAD101B0BDE8000F93
:10271C00F0BD082008210DF058FDF0B503AF2DE9F0
:10272C00000F8BB04FF0000806460D46C0F84880ED
:10273C00C2631446806BB16344F20C210490C0F662
:10274C0001013046FFF7F3FA47F68D6043F6483B3C
:10275C003044029005EB8400C0F6010B039006F1A7
:10276C00200005960790069506E0039808F10108ED
:10277C00089D854200F0D48055F8042B06980499E6
:10278C000895814203D102980078022803D1079959
:10279C00107B01F80800906808EB88010A92002869
:1027AC0009913FD00A990A24099AD1F80490292159
:1027BC0001EBC20609EB000A0EE043EA811200F1BC
:1027CC000209204631464FF6FF73CDF800B0FDF7F5
:1027DC001BFF0444D14525D0484619F9011BB1F122
:1027EC00FF3FCAB2EDDC437802F01F01E02A03F090
:1027FC003F03E2D38578F02A05F03F0545EA8313C1
:10280C000BD3C27801F0070100F1040902F03F027A
:10281C0042EA831242EA8142D3E743EA013200F1F1
:10282C000309CEE70998C600059806F13901806CBA
:10283C00804520D140F21F450A20782202230095C2
:10284C00FEF7F5FE06F13B040A2002221023214676
:10285C000095FEF7ECFE8020214602221023009505
:10286C00FEF7E5FE06F14B010A20782202230095C3
:10287C00FEF7DDFE04E0084678211422FEF794FFF3
:10288C000A9802680798516810F8080081424BD9E1
:10289C00136803EBC001496800293FF466AF53F895
:1028AC0030503B36107A0C2405EB010900284FF010
:1028BC00800018BFA0EBC1040EE043EA8112851C16
:1028CC00204631464FF6FF73CDF800B0FDF79CFE65
:1028DC0004444D453FF449AF284615F9011BB1F1AD
:1028EC00FF3FCAB2ECDC437802F01F01E02A03F090
:1028FC003F03E2D38578F02A05F03F0545EA8313C0
:10290C000AD3C27801F00701051D02F03F0242EA2A
:10291C00831242EA8142D3E743EA0132C51CCFE776
:10292C000BB0BDE8000FF0BD0DF04FFCF0B503AFE0
:10293C002DE9000782B04FF0FF3252FA81F10A29DB
:10294C0045D8DFE801F0065B4444444444489744CE
:10295C00B100856C4FF0390AC46B8046142205EB2C
:10296C0085010AEBC10108467821FEF71DFF40F2F4
:10297C001F49002DCDF8009018BF2C46661E0A206A
:10298C007822022306EB86050AEBC501FEF74FFE03
:10299C003B2000EBC5040A20022221461023CDF86F
:1029AC000090FEF744FE8020214602221023CDF831
:1029BC000090FEF73CFE4B2000EBC5010A2078226C
:1029CC000223CDF80090FEF732FEC8F8486002B042
:1029DC00BDE80007F0BD826C072A6DD8C16B8A4236
:1029EC006ED2866B00F12003995C56F822600029A8
:1029FC003668367918BF0E46013E4DE0C16B4FF07C
:102A0C003908826C0139541A4FF0780118BF541CE4
:102A1C00846402EB8200142208EBC000FEF7C4FEB3
:102A2C0004EB840640F21F450A20782208EBC6010D
:102A3C0002230095FEF7FBFD3B2000EBC6040A20A9
:102A4C000222214610230095FEF7F1FD802021463D
:102A5C00022210230095FEF7EAFD4B2000EBC60185
:102A6C000A20782202230095FEF7E1FD02B0BDE8B2
:102A7C000007F0BD826C072A1ED8C16B8A421FD298
:102A8C00866B00F12003995C56F8226036687668F4
:102A9C00013E761A18BF4E1C9E5402B0BDE80007CA
:102AAC00BDE8F040FFF742BD002102B0BDE80007D1
:102ABC00BDE8F040FFF7B8B9104608210DF085FBD2
:102ACC0010460DF082FBD4D4F0B503AF2DE9000F06
:102ADC0093B0059147F678610690084404900AA8D3
:102AEC0044F2DD4844F2C41A851C0024C826C0F602
:102AFC000108C0F6010A011D09910BE0044630469D
:102B0C00C8214FF4FC63CDF800A0FDF77DFD064411
:102B1C000A2C2DD018F90410601CB1F1FF3FCAB279
:102B2C00ECDC18F80000A31CE02A00F03F0102F0D6
:102B3C001F0015D318F80330F02A03F03F0343EAC3
:102B4C00811104F103030FD318F8032000F00700E0
:102B5C00043402F03F0242EA811141EA8042CEE79E
:102B6C0041EA80121C46CAE741EA00321C46C6E71D
:102B7C000698059AD0E9080192F811900022CDE947
:102B8C000E20A9F102001091CDE90C22C1B2052949
:102B9C000AA9CDE90A2228BF022001F11C04C0B207
:102BAC004B1DCE1C01F1010BDFE810F07802050083
:102BBC0069009900390005984FF000090895012526
:102BCC008DF82850006807F8210C47F8209CC109A3
:102BDC000793039400F0D18040F0800207F8212C79
:102BEC00820B07F8201C00F0B48041F0800107F83C
:102BFC00201C410D07F81F2C00F0B280000F42F092
:102C0C00800207F81E1C07F81F2C00F0B580052564
:102C1C0007F81D0C41F0800007F81E0CADE005987C
:102C2C0004218DF82810002147F8201C006807F8B3
:102C3C00210CC10900F0828040F0800207F8212CA1
:102C4C00820B07F8201C00F0808041F0800107F80F
:102C5C00201C410D07F81F2C00F08080000F42F063
:102C6C00800207F81E1C07F81F2C00F0808005223C
:102C7C0007F81D0C41F0800007F81E0C78E0059851
:102C8C00022100248DF8281047F8204C006807F822
:102C9C00210CCDE90735C109029651D040F08002D4
:102CAC0007F8212C820B07F8201C50D041F0800132
:102CBC0007F8201C410D07F81F2C53D0000F42F0D1
:102CCC00800207F81E1C07F81F2C00F093800525C6
:102CDC0007F81D0C41F0800007F81E0C8BE00598DE
:102CEC0003218DF828100021D0E9000947F8201C99
:102CFC0007F8210CC10925D040F0800207F8212CDF
:102D0C00820B07F8201C26D041F0800107F8201C0C
:102D1C00410D07F81F2C27D00026000F42F080022F
:102D2C0007F81E1C07F81F2C00F09D80052507F8DE
:102D3C001D0C41F0800007F81E0C95E0012217E0F5
:102D4C00012558E0002601258EE0022210E0022524
:102D5C0051E0022511E00026022585E0032207E060
:102D6C0003250AE0032546E0002603257CE0042227
:102D7C00A7F12101584648E10425A7F12101584645
:102D8C002A460FF0FBF805986C1C47F8209C41680C
:102D9C000AA8204407F8211CCA0922D041F080035C
:102DAC0007F8213C8B0B07F8202C1CD042F080023A
:102DBC0007F8202C4A0D07F81F3C18D0090F43F0D8
:102DCC00800307F81E2C07F81F3C00F08B80DDF801
:102DDC001CB007F81D1C42F08001052207F81E1CD0
:102DEC0083E0012281E00222DDF820B07DE00322A5
:102DFC00B3467AE00425A7F1210158462A460FF084
:102E0C00BDF8059847F8204C6C1C41680AA8204472
:102E1C0007F8211CCA0920D041F0800307F8213C97
:102E2C008B0B07F8202C1AD042F0800207F8202CCC
:102E3C004A0D07F81F3C14D0090F43F0800307F824
:102E4C001E2C07F81F3C00F09280052507F81D1C6E
:102E5C0042F0800107F81E1C8AE0012588E002255B
:102E6C0086E0032584E00425A7F1210158462A4673
:102E7C000FF084F80BEB05005FEAD91107F8219CE1
:102E8C0047F8206C25D049F0800207F8212C5FEA26
:102E9C009932264607F8201C1ED041F0800107F815
:102EAC00201C5FEA595107F81F2C18D042F0800201
:102EBC0007F81F2C5FEA197207F81E1C00F09A80A5
:102ECC0041F0800107F81D2C07F81E1C0522311A51
:102EDC0096E00122211A93E00222311A90E003229B
:102EEC00311A8DE00422DDF824B0A7F121010FF096
:102EFC0045F8059A107B916805380BF804000BEB2C
:102F0C000400B2F80D20A0F801200022033047F88D
:102F1C00202CCA0907F8211C21D0DDF80C9041F0B7
:102F2C00800307F8213C8B0B07F8202C1BD042F0B8
:102F3C00800207F8202C4A0D07F81F3C15D0090F0A
:102F4C0043F0800307F81E2C07F81F3C55D007F8F8
:102F5C001D1C42F08001052207F81E1C4EE00122C8
:102F6C00DDF80C904AE0022248E0032246E00425FA
:102F7C00A7F121012A460FF001F805982C4481682D
:102F8C00002047F8200C0AA8204407F8211CCA0985
:102F9C0022D041F0800307F8213C8B0B07F8202C42
:102FAC001FD042F0800207F8202C5E464A0D07F82D
:102FBC001F3C1BD04FF0000B090F43F0800307F8A8
:102FCC001E2C07F81F3C23D0052507F81D1C42F0CA
:102FDC00800107F81E1C1CE05E464FF0000B01251B
:102FEC0017E05E464FF0000B022512E04FF0000B8D
:102FFC0003250EE00422311A02E00422A9EB0001A1
:10300C008A4200F27D83A7F121010EF0B7FF45E063
:10301C000425A7F121012A460EF0B0FF05982C4497
:10302C0047F820BCC1680AA8204407F8211CCA092B
:10303C0020D041F0800307F8213C8B0B07F8202CA3
:10304C001AD042F0800207F8202C4A0D07F81F3CDA
:10305C0015D0090F43F0800307F81E2C07F81F3C0E
:10306C0010D0079E07F81D1C42F08001052207F8BE
:10307C001E1C09E0012207E00222089E04E0032244
:10308C00029E01E00422099EA7F121010EF076FFB9
:10309C000598007C3055301980F8019043F61040AB
:1030AC0040F2231148F6AB12C4F20200C4F267518D
:1030BC00CCF6EF5240F80C1C40F80C2C0368B3F122
:1030CC00FF3F40F31A83069B4FF60445CFF6FE757F
:1030DC001B7E06680C2B06EA05064FF0200505EB57
:1030EC00C30538BFDD00EBB2334443F4803343F007
:1030FC000203036050F8043CDB030CD550F8043C8D
:10310C00DB0344BF50F8043C5FEAC33303D550F8EB
:10311C00043CDB03EED450F8043C036843F000435A
:10312C00036040F80C1C40F80C2C0168B1F1FF3F17
:10313C0040F3E382012108910699D1F810E00021B7
:10314C00099105E050F8041C11F0F20F40F09E803C
:10315C000899002900F09680016840F203320EF0C5
:10316C000F039143C3F1100201310160099E0AA9BA
:10317C00089283F00F028C190EF10061C3F10E0C52
:10318C00C3F10D0B0023CDF81CE0099D05EB030AE0
:10319C00BAF11C0F2DD0E55C9A42CD5430D0BAF167
:1031AC001B0534D004EB030801EB03099C4598F88C
:1031BC00015089F801502FD0BAF11A0530D098F887
:1031CC0002509B4589F8025032D0BAF1190536D01D
:1031DC0098F803500EF1040E89F803500436089D3C
:1031EC0004339D42D1D1DDF81CE009999E44194469
:1031FC002BE0DDF81CE01C21CDE908319E4425E0D4
:10320C00711C09910799194401F1010E1EE00EF190
:10321C00010E43F0010116E0B11C0EF1020E14E098
:10322C0043F0020108910799194401F1020E0BE0D9
:10323C00F11C09910799194401F1030E06E00EF1F6
:10324C00030E43F0030108911C21099144F2C41AA6
:10325C0044F2DD48C0F6010AC0F6010850F8041C1F
:10326C00C9037FF56FAF50F8041CC90344BF50F875
:10327C00041C5FEAC1317FF565AF50F8041CC9032B
:10328C00ECD45FE7016821F001010160016841F0B5
:10329C0000410160069947F67C60059C0844079044
:1032AC0094E86E0000246EC0C8250AE00446284647
:1032BC00C8210023CDF800A0FDF7A6F905440A2C7F
:1032CC002DD018F90410601CB1F1FF3FCAB2EDDC2F
:1032DC0018F80000A31CE02A00F03F0102F01F00C8
:1032EC0015D318F80330F02A03F03F0343EA811199
:1032FC0004F103030FD318F8032000F00700043483
:10330C0002F03F0242EA811141EA8042CFE741EAF2
:10331C0080121C46CBE741EA00321C46C7E7242446
:10332C0043F2080844F2CA4C4FF0010BC4F20004FB
:10333C00C4F20108C0F6010C4FF0000909E0DDF8F9
:10334C0020B044F2C41AC0F6010ABBF1040F00F01D
:10335C009E810BEB8B00C8264042002506EB4000FB
:10336C0009900FE00546099930464FF4FC63CDF8FF
:10337C0000A0FDF749F944F2CA4C0644132DC0F6DF
:10338C00010C2DD01CF90510681CB1F1FF3FCAB21D
:10339C00E8DC1CF80000AB1CE02A00F03F0102F056
:1033AC001F0015D31CF80330F02A03F03F0343EA47
:1033BC00811105F103030FD31CF8032000F0070063
:1033CC00043502F03F0242EA811141EA8042CAE729
:1033DC0041EA80121D46C6E741EA00321D46C2E7AB
:1033EC0020684BF6A032C0F20D022168091A9142F6
:1033FC000BD22168091A91423EBF2168091A9142E9
:10340C0003D22168091A9142EFD30BF1010BCDF8CD
:10341C0020B04FF0000BC8260BE040F618400836E1
:10342C00BBF1130FC4F202004FF4804101603FF472
:10343C0086AF1CF90B100BF10100B1F1FF3F5FFAE5
:10344C0081FA06DD8346BAF1200F2FD24FF07F0AA6
:10345C0037E01CF800000BF10202BAF1E00F00F0AB
:10346C003F010AF01F001BD31CF80220BAF1F00F29
:10347C0002F03F0242EA81110BF10302C0F0FD8021
:10348C001CF8022000F007000BF1040B02F03F02C5
:10349C0042EA811141EA804ABAF1200FD6D305E005
:1034AC0041EA801A9346BAF1200FCFD3BAF5657F63
:1034BC0005D0BAF1B50F08BF4FF0800A01E04FF00C
:1034CC00AE0A0999304608221023FDF7A6F94FF6EB
:1034DC000060CFF6FF7000EB0A10B0F5C06F00F281
:1034EC00F28044F2CA4C4FEA0A10C0F50061002287
:1034FC00C0F6010C02E00132102A8ED0002302E04B
:10350C000133082BF7D002EBD300884280F0BD804A
:10351C00206825682D1A592D0BD825682D1A592D80
:10352C009EBF25682D1A592D03D825682D1A5A2DA2
:10353C00EFD3D8F8000080070CD4D8F8000080072F
:10354C005CBFD8F800005FEA807003D4D8F80000A4
:10355C008007EED5C8F80490D8F80000C0070CD14D
:10356C00D8F80000C00704BFD8F800005FEAC070AC
:10357C0003D1D8F80000C007EED0D8F80000000640
:10358C000CD5D8F80000000644BFD8F800005FEA5C
:10359C00006003D5D8F800000006EED4D8F804007B
:1035AC00206825682D1A592D0BD825682D1A592DF0
:1035BC009EBF25682D1A592D03D825682D1A5A2D12
:1035CC00EFD3206825682D1A592D0BD825682D1A94
:1035DC00592D9EBF25682D1A592D03D825682D1AF3
:1035EC005A2DEFD3D8F8000080070CD4D8F800007F
:1035FC0080075CBFD8F800005FEA807003D4D8F86D
:10360C0000008007EED5C8F80490D8F80000C00779
:10361C000CD1D8F80000C00704BFD8F800005FEA4E
:10362C00C07003D1D8F80000C007EED0D8F8000065
:10363C0000060CD5D8F80000000644BFD8F80000EE
:10364C005FEA006003D5D8F800000006EED4D8F885
:10365C000400206825682D1A592D3FF651AF2568B6
:10366C002D1A592D9EBF25682D1A592D3FF648AF9E
:10367C0025682D1A5A2DEDD342E741EA003A9346BC
:10368C00BAF1200FFFF4E2AE10E70CF09EFD049AA5
:10369C000021507D11600238C1B2052928BF0220DB
:1036AC00C1B2069A43F25800024444F26870C0F664
:1036BC000100DFE801F01A1503110C0044F28070D0
:1036CC00C0F601000CE04FF4C0610DF0CCFA44F2EE
:1036DC00B070C0F6010003E044F29870C0F601002F
:1036EC000699C36807985031984706980021FEF751
:1036FC009BFB13B0BDE8000FF0BD31200DF079F944
:10370C000DF053FCF0B503AF2DE9000F83B04AF672
:10371C00800B242643F2080444F2E74500204FF0C6
:10372C00000AC0F2121BC4F20006C4F20104C0F677
:10373C000105029007E0029844F2E745C0F6010546
:10374C00032800F091814FF000084FF0C8090FE0FA
:10375C00804644F2C410C821C0F601004FF47843EF
:10376C0000904846FCF750FF8144B8F10D0F2DD066
:10377C0015F9081008F10100B1F1FF3FCAB2E7DCFE
:10378C00285C08F10203E02A00F03F0102F01F0060
:10379C0014D3EB5CF02A03F03F0343EA811108F1E8
:1037AC0003030FD3EA5C00F0070008F1040802F0F1
:1037BC003F0242EA811141EA8042CAE741EA8012A3
:1037CC009846C6E741EA00329846C2E7306831684D
:1037DC00091A59450BD23168091A59453EBF31684F
:1037EC00091A594503D23168091A5945EFD3029881
:1037FC004FF0000B4FF0C809013002900CE040F67E
:10380C00184009F10809BBF10D0FC4F202004FF486
:10381C008041016000F00E8144F2E7430BF101009E
:10382C00C0F6010313F90B10B1F1FF3F5FFA81F8F9
:10383C0004DD8346B8F1200F29D331E0185C0BF17D
:10384C000202B8F1E00F00F03F0108F01F0018D39E
:10385C009A5CB8F1F00F02F03F0242EA81110BF1D1
:10386C00030217D39A5C00F007000BF1040B02F073
:10387C003F0242EA811141EA8048B8F1200F06D399
:10388C000EE041EA80189346B8F1200F08D24FF0B1
:10389C007F0810E041EA00389346B8F1200FF6D3C8
:1038AC00B8F5657F05D0B8F1B50F08BF4FF08008AB
:1038BC0001E04FF0AE084846C82108221023FCF75F
:1038CC00ACFF4FF60060CFF6FF7000EB0810B0F5C0
:1038DC00C06F00F2CD804FEA0810C0F500610022E5
:1038EC0003E00132102A3FF48AAF002302E00133D7
:1038FC00082BF6D002EBD300884280F0B3803068FE
:10390C0035682D1A592D0BD835682D1A592D9EBF97
:10391C0035682D1A592D03D835682D1A5A2DEFD329
:10392C002068800709D4206880075CBF20685FEAA4
:10393C00807002D420688007F2D5C4F804A02068F7
:10394C00C00709D12068C00704BF20685FEAC070B7
:10395C0002D12068C007F2D02068000609D5206883
:10396C00000644BF20685FEA006002D520680006AC
:10397C00F2D46068306835682D1A592D0BD835682B
:10398C002D1A592D9EBF35682D1A592D03D835681F
:10399C002D1A5A2DEFD3306835682D1A592D0BD8A6
:1039AC0035682D1A592D9EBF35682D1A592D03D8FF
:1039BC0035682D1A5A2DEFD32068800709D420685A
:1039CC0080075CBF20685FEA807002D420688007A3
:1039DC00F2D5C4F804A02068C00709D12068C0073C
:1039EC0004BF20685FEAC07002D12068C007F2D023
:1039FC002068000609D52068000644BF20685FEAED
:103A0C00006002D520680006F2D460683068356822
:103A1C002D1A592D3FF66BAF35682D1A592D9EBFB7
:103A2C0035682D1A592D3FF662AF35682D1A5A2D6F
:103A3C00EDD35CE730684AF6800BC0F2121B31689C
:103A4C00091A5945BFF477AE3168091A59453EBF7A
:103A5C003168091A5945BFF46EAE3168091A5945D7
:103A6C00EDD368E60CF0B1FB03B0BDE8000FF0BD80
:103A7C004FF4C0610DF0F7F8F0B503AF4DF8048DBD
:103A8C00A0B0002110221428069201AACDE903113E
:103A9C00CDE901110791059200F29D8014AB0C93B6
:103AAC0040F2472344F62436C0F60003C0F6010664
:103ABC00119312AB109340F67533C0F6010302223A
:103ACC000F9344F2A463C0F6010303EBC0000E9005
:103ADC00037944F63030C0F601000D92099250F88B
:103AEC00230056F82330ADF87020ADF86820CDE9EE
:103AFC00123044F25070C0F60100ADF8502008901E
:103B0C002020CAF6000000F16053CDE918104FF4E4
:103B1C00403016900EA843F228210B920A9005A86B
:103B2C0008AA1F930123C0F601011E930CF065FF38
:103B3C0000284BD1DDE906128A4249D8059914A810
:103B4C000DF0EBF81498012840D01698D0B3159EC0
:103B5C0043F648381A24C0F6010835180EE043EA3B
:103B6C008112861C20464FF495714FF6FF73CDF8E9
:103B7C000080FCF749FD0444AE4223D0304616F9D0
:103B8C00011BB1F1FF3FCAB2ECDC437802F01F011C
:103B9C00E02A03F03F03E2D38678F02A06F03F06D2
:103BAC0046EA83130AD3C27801F00701061D02F01E
:103BBC003F0242EA831242EA8142D3E743EA0132EE
:103BCC00C61CCFE720B05DF8048BF0BD0DF0EDF90D
:103BDC0010460DF048F815210CF0F7FAF0B503AFCC
:103BEC002DE9000F81B02DED0A8BB6B0044641F2E1
:103BFC00D8302058002800F08E8442F6301021185E
:103C0C0047F67860261841F26A7004912044D1E995
:103C1C00005840F28E310EF0E9FD41F6BF4040F203
:103C2C00C71120440EF0E2FD42F2142040F28E3116
:103C3C0020440EF06FFE42F2697040F2C71120442E
:103C4C000EF0D4FD41F6866036682044069041F2B1
:103C5C00DC30002E204405940B9000F00184059973
:103C6C0043F2580008440A9028460EF027FE0446FA
:103C7C0040460D460EF022FE721E2B46B2F57A7FA0
:103C8C0028BF4FF47A720132B6F57A7F88BF4FF4B1
:103C9C007A720892224610940F950EF093FD9FEDC8
:103CAC00BB8B9FEDBC9B9FEDBDBB099001200E9182
:103CBC00002107E00D9908988142084638BF013071
:103CCC0080F0CE830D90C8087C2800F2978501EB1C
:103CDC0081000A990DF1640B11F8202001EB800092
:103CEC004168119181680C91D0E90341407817919A
:103CFC0040211290584618920EF00CFE20460EF001
:103D0C00DDFDDDE90F320EF05DFD53EC182BCDE936
:103D1C0015230EF039F9099C0E9B22460EF079FE04
:103D2C0055EC199B4A462B460EF081FBB0EE491A16
:103D3C00F0EE691A41EC100B0FF044F8B0EE481A93
:103D4C00F0EE681A0EF01AFB56EC10AB00202B901C
:103D5C004020CDE929B0504631460EF032FE834664
:103D6C00504631464A462B46CDF84C9014950EF0F1
:103D7C0095FA804617980EF0A1FDDDE90F320EF092
:103D8C0021FDDDE915230EF0FFF80E9B22460EF007
:103D9C0040FE4A462B460EF04AFB59EC1B4BB8F141
:103DAC00000F41EC1A0B5046314608BFC346224661
:103DBC004B460EF0ADFAB0EE4A0A0028B0EE491AA6
:103DCC0018BF4FF0FF3BF0EE6A0AF0EE691A0EF0E6
:103DDC00F9FFB0EE481AF0EE681A0EF0CFFA56EC76
:103DEC00105B284631460EF0ECFDDDE913238246CC
:103DFC00284631460EF052FA002808BF8246284663
:103E0C00314622464B460EF083FA002818BF4FF07D
:103E1C00FF3ACDF858B01899AAEB0B04DFE801F083
:103E2C00590866082A78A56FC254AF2340830B61EA
:103E3C0029A8129957E0002044F60C313290012049
:103E4C002F90C0F60101319034A8309041F2192026
:103E5C00C0F601002E9135902CA83490129800F0E9
:103E6C0001002C9076E002202B9045F22020ADF83A
:103E7C0064009EE0129844F60C31C0F6010100F08B
:103E8C0001008DF8B00000202E91329001202F906F
:103E9C00319034A8309040F6C770C0F6010056E05F
:103EAC00129844F61C318DF8B0000020329001209D
:103EBC002F90C0F60101319034A8309040F6F97083
:103ECC00C0F601002E9142E044F62060C6F6613047
:103EDC006CE044F22050C7F26D00199047F6741054
:103EEC001DE0119929A802F073FB62E0129929A830
:103EFC0002F06EFB30260120DDF818B05DE0532097
:103F0C008DF8660045F22020ADF8640003204FE0E8
:103F1C0045F22030C6F27410199047F27240ADF899
:103F2C006800062044E00C9844F60C312D90C0F645
:103F3C00010111982C900020329001202F9031908B
:103F4C0034A8309040F247202E91C0F600003590F6
:103F5C002CA8349043F2282129A82EAAC0F60101DE
:103F6C000CF04BFD28B300F018BC45F22030C6F61F
:103F7C007470199070208DF86800052018E00220EC
:103F8C002B9045F22070ADF8640012E000000000A8
:103F9C0000607C4000000000000000000000E0FF1A
:103FAC00FFFFEF4144F22010C6F663301990042055
:103FBC002B90DDF82CB020260020DDE92A1888454E
:103FCC0000F2ED83DDF8A490424611902EA84946EC
:103FDC000CF0A3FE2E98012800F0DF83309800EB44
:103FEC00C000844260D2169882457FF663AE169B61
:103FFC0040F2C7100BEB0302B3F5E47F28BF184661
:10400C00C11A0BEB430302F6E60203F565730029B4
:10401C0000F0EB834FF6FF7523F8065C12F8035C97
:10402C0005F00F05354302F8035C169D0135554527
:10403C003FF440AE854200F0D8834FF6FF7523F86D
:10404C00045C12F8025C05F00F05354302F8025CC3
:10405C00169D023555453FF42DAE854200F0C583C3
:10406C004FF6FF7523F8025C12F8015C05F00F05A2
:10407C00354302F8015C169D033555453FF41AAEE5
:10408C00854200F0B2834FF6FF75043923F8085BC4
:10409C00157805F00F05354302F8045B169D0435C1
:1040AC0016955545B3D105E61698824554D9169DFB
:1040BC0040F2C7100BEB0502B5F5E47F0BEB4503A3
:1040CC0028BF2846411B02F6E60203F5657300295A
:1040DC0000F08B834FF6FF7423F8064C12F8034C58
:1040EC0004F00F04344302F8034C6C1C544533D0D9
:1040FC00844200F07A834FF6FF7423F8044C12F8D4
:10410C00024C04F00F04344302F8024CAC1C54452E
:10411C0022D0844200F069834FF6FF7423F8024CDE
:10412C0012F8014C04F00F04344302F8014CEC1C5F
:10413C00544511D0844200F058834FF6FF74043577
:10414C0023F8084B04391478554504F00F0444EA5D
:10415C00060402F8044BBAD12EA8494642460CF08C
:10416C00DCFD2E98012800F01883309900293FF4CB
:10417C00A1AD2F980BF28E330144129106460BF62B
:10418C00E301139107E0149E0831129816918642B0
:10419C0030463FF48FAD16F9012BB2F1FF3FD1B28F
:1041AC0005DD2029149625D24FF4FE6E37E04678B3
:1041BC0001F01F02E02906F03F0615D38578F0299F
:1041CC0005F03F0545EA8616C0F03D81C17802F046
:1041DC00070201F03F0141EA8611061D41EA8241C6
:1041EC0020291496E0D305E046EA8211861C20298A
:1041FC001496D9D3B52910D0B1F5657F00F004839E
:10420C004FF60060CFF6FF7000EB0110B0F5C06FF9
:10421C0000F2FC824FEA011E03E04FF4006EAEF593
:10422C00007043F6C3320121C0F60102104417900E
:10423C001698C41D00F1060C451D061DC21C00F18C
:10424C00020900F1010B2046CEF500644FF0000E80
:10425C001894159005E00EF1010EBEF1100F00F050
:10426C009280189C744500F0A28201FA0EF46FEA59
:10427C00040A179C14F90E40B4F1FF3F17DD5FFAE6
:10428C0084F85FEA486424D45FEA88642ED45FEA39
:10429C00C86438D45FEA087442D45FEA48744CD4DA
:1042AC005FEA887456D45FEAC874D4D060E016987C
:1042BC00B0F5E37F00F2998233F8101001EA0A019D
:1042CC0023F81010012115985FFA84F85FEA48640E
:1042DC00DAD5BBF5E37F00F2878233F81B4004EAA2
:1042EC000A0423F81B405FEA8864D0D5B9F5E37F54
:1042FC0000F26B8233F8194004EA0A0423F81940DF
:10430C005FEAC864C6D5B2F5E37F00F2638233F886
:10431C00124004EA0A0423F812405FEA0874BCD580
:10432C00B6F5E37F00F2478233F8164004EA0A043C
:10433C0023F816405FEA4874B2D5B5F5E37F00F276
:10434C004E8233F8154004EA0A0423F815405FEA5C
:10435C008874A8D5BCF5E37F00F2328233F81C4098
:10436C0004EA0A0423F81C405FEAC8743FF473AFF4
:10437C00B0F5E37F00F2398233F8104004EA0A0406
:10438C0023F8104067E71699DDF84CE011F1090F9E
:10439C003FF6F9AEB1F5E37F5DD80C461EF801107F
:1043AC00119801F0F00101440EF8041040F2C7110D
:1043BC008B4550D01EF80B40894504F0F0040444A2
:1043CC000EF80B401FBF1EF8091001F0F00101445C
:1043DC000EF809101CBF40F2C7118A423BD01EF8E0
:1043EC0002408E4204F0F00404440EF802401FBF59
:1043FC001EF8061001F0F00101440EF806101CBF67
:10440C0040F2C7118D4226D01EF805208C4502F0D3
:10441C00F00202440EF805201FBF1EF80C1001F02C
:10442C00F00101440EF80C101EBF40F2C711159A92
:10443C008A4210D01EF8021001F0F00101440EF86F
:10444C00021016999FE646EA0231C61C20291496E2
:10445C00FFF4AAAECEE6084640F2C7110BF0B5FE4B
:10446C00DDF814A041F2D83021210AEB00040AF146
:10447C00500007900B9801F091FF0698322101F043
:10448C008DFF049D21682868013918914AD4189B26
:10449C0000220024991801EBD1714910CE087C2E12
:1044AC0000F2A781079E56F8216086429ABF0C46FF
:1044BC004A1C4B1E9A42EDDD6E680022189D18991D
:1044CC00114401EBD1714910CB087C2B00F2918186
:1044DC00079B53F82130B3422CBF0D464A1C189B46
:1044EC0028BF4B1E9A421893E9DD0EF0E7F980467F
:1044FC00304689460EF0E2F942F63C124B465244E5
:10450C000092424649EC1A8B0EF05CF9AC4222D96F
:10451C00009802F0D0FE36B0BDEC0A8B01B0BDE8BD
:10452C00000FF0BD0EF0CAF9064668680C4641EC67
:10453C001A6B0EF0C3F9324623460EF043F942F6DD
:10454C003C1241EC1B0B5244002000920AF57F6296
:10455C000192029008E041EC1B0B0AEB040202F5FD
:10456C007F6002940190189542F63C100AEB00090A
:10457C000AF57F609FEDA78B9FEDA89B9FEDA9CBC4
:10458C000690002002E003980828C1D00246079844
:10459C00DDF808A0059250F82A30500004900198DC
:1045AC000678501C0390504618998A4538BF013044
:1045BC00BAF57A7F80F0F6800C90184608960EF0CB
:1045CC007DF953EC1A2BCDE916230EF0FBF853ECC6
:1045DC00182BCDE914230DF0D7FC53EC1B2BCDE994
:1045EC0012230EF016FA58EC19BB5A4643460DF03E
:1045FC001EFFB0EE491AF0EE691A41EC100B0EF0EA
:10460C00E1FBB0EE481AF0EE681A0DF0B7FE56EC6E
:10461C00105B069810F80A00099010951196284620
:10462C0031460EF0CEF90446284631465A464346EA
:10463C00CDF834B0CDF838800DF030FE0F900798DF
:10464C00CDF82CA050F82A000A900EF037F9DDE9CD
:10465C0016230EF0B7F8DDE914230DF095FCDDE917
:10466C0012230EF0D6F95A4643460DF0E0FEB0EE9A
:10467C00491AF0EE691A41EC100B0EF0A3FBB0EEE8
:10468C00481AF0EE681A0DF079FE55EC1CAB0F9839
:10469C005BEC108B002808BF0446DDE91001524684
:1046AC002B460DF035FE00284046594618BF4FF0FA
:1046BC00FF340EF086F9DDE90D23064640465946D7
:1046CC000DF0ECFD002808BF064640465946524600
:1046DC002B460DF01DFE002818BF4FF0FF36B442DC
:1046EC000DD90B9818990A9B88420C98BFF44BAFC4
:1046FC0018998246099E88427FF656AF43E7089880
:10470C000599C043C0B2C840049900F001000843A9
:10471C00012101FA00F0B4F5E37F39D839F814100F
:10472C00B44241EA000129F8141038BF0134D8D240
:10473C00B442D6D8B4F5E37F2AD839F81410B44271
:10474C0041EA000129F8141038BF0134C9D2B4422F
:10475C00C7D8B4F5E37F1BD839F81410B44241EA3A
:10476C00000129F8141038BF0134BAD2B442B8D8B9
:10477C00B4F5E37F0CD839F81410B44241EA0001C7
:10478C0029F8141038BF0134ABD2B442C3D9A8E70E
:10479C00204640F2C7110BF018FD0CF006FC404609
:1047AC000CF061FA50464FF47A710BF00EFD18982C
:1047BC0001460BF00AFD304640F2C7110BF005FD27
:1047CC00604640F2C7110BF000FD484640F2C7119D
:1047DC000BF0FBFC104640F2C7110BF0F6FC284620
:1047EC0040F2C7110BF0F1FC584640F2C7110BF028
:1047FC00ECFC08464FF47A710BF0E7FC4FF47A703E
:10480C004FF47A710BF0E1FC4FF40E604FF4C06181
:10481C000CF029FA0000000000607C400000000051
:10482C00000000000000E0FFFFFFEF41F0B503AF18
:10483C002DE9000F89B041F2D831425842F63011BF
:10484C0046580144D1F804A04AB1511EB2F57A7F02
:10485C0000F2348100F1500252F8215000E00025A2
:10486C0047F6906147F6A862014484180846314621
:10487C0001F015FA207E4FF6FF7C38B994E807005A
:10488C0001232376CDF800C0FCF7D1FE002D7BD0A0
:10489C0030460EF013F8834628460E460EF00EF8FE
:1048AC0081468846584631464A46434607940EF0A0
:1048BC00B0F8064607988B46806808900DF0FEFF0E
:1048CC009FED820B53EC102B0DF0B1FD04460D4601
:1048DC003046594622462B460DF056FBCDE90510C5
:1048EC0050460DF0EBFF4A4643460EF092F8224636
:1048FC002B460DF049FB06468B460EF062F89FEDF9
:10490C00750B82463046594653EC102BCDE90323E8
:10491C000DF0C4FC9FED710B0028594653EC102B85
:10492C00CDE9012308BF824630460DF0F1FC00288A
:10493C0018BF4FF0FF3ADDF820B0ABF1010555453B
:10494C0038BFAA46DDF81880DDF814904046494679
:10495C000EF037F8DDE90323064640464946079C2E
:10496C000DF09CFC002808BF0646DDE901234046FB
:10497C0049460DF0CDFC002818BF4FF0FF365846C5
:10498C00B54238BF2E4603E0A0680026A0F1010A0C
:10499C00D4F810B0B34518BFD3451AD0834518D2FC
:1049AC0008900021D4E900050122D4F80C9000EB0A
:1049BC000B080091A5EB090140464B46FCF737FE6E
:1049CC000020691C0090404601224B46FCF72FFE4C
:1049DC0008986569B54218BF55452ED1B34518BF27
:1049EC00B5421ED086421CD208904FF6FF71D4E916
:1049FC000002D4F80C9000EB06080091A2EB090120
:104A0C000792404601224B46FCF711FE4FF6FF7011
:104A1C00012200904B460798411C4046FCF707FECC
:104A2C000898D34503D0B24518BF554525D1C4E9E4
:104A3C00046A09B0BDE8000FF0BD5D45CED08542DB
:104A4C00CCD208900021D4E90002D4F80C9000EBF1
:104A5C0005080091A2EB09010792404601224B4642
:104A6C00FCF7E5FD0020012200904B460798411C05
:104A7C004046FCF7DCFD0898B0E78245D7D2D4E974
:104A8C0000094FF6FF7BE568012200EB0A08CDF820
:104A9C0000B0A9EB050140462B46FCF7C8FD09F117
:104AAC000101404601222B46CDF800B0FCF7BFFDBA
:104ABC00C4E9046A09B0BDE8000FF0BD08464FF424
:104ACC007A710BF082FB00BF00BF00BF000000003A
:104ADC000000F0BF00000000000000000000E0FF3C
:104AEC00FFFFEF41F0B503AF2DE9000F89B044F69D
:104AFC00D0110E22C0F601018146FCF70DFF44F2E5
:104B0C002C214846C0F60101FDF711F900204FF6A3
:104B1C00FF76C9F8440040F2C110002101221E2387
:104B2C00D9F840A00096FCF782FD43F648384FF0C8
:104B3C00FF35C0F60108BAF1000FCDF8008008BFB0
:104B4C0040F21F454FF4C5700721AC222B464FF0A5
:104B5C00FF34FBF75CFC4FF4C9700721AD222B46E8
:104B6C00CDF80080FBF753FC4FF4D17000210122EB
:104B7C001E230096FCF75BFD4FF0FF35CDF800804F
:104B8C00BAF1010F08BF40F21F4540F2A9100721EE
:104B9C008A222B46FBF73BFC40F2B11007218B22FB
:104BAC002B46CDF80080FBF732FC40F2831000213D
:104BBC0001221E230096FCF73AFDCDF80080BAF1D5
:104BCC00020F08BF40F21F444FF4E47007219C22EF
:104BDC002346FBF71CFC4FF4E87007219D2223466B
:104BEC00CDF80080FBF713FC0C20512130224FF63E
:104BFC00FF73CDF80080FBF707FD0020512119222F
:104C0C0001230096FCF713FD0C206B2131224FF68B
:104C1C00FF73CDF80080FBF7F7FC00206B21192205
:104C2C0001230096FCF703FD0C20852132224FF660
:104C3C00FF73CDF80080FBF7E7FC002085211922DB
:104C4C0001230096FCF7F3FC0C209F2133224FF636
:104C5C00FF73CDF80080FBF7D7FC00209F211922B1
:104C6C0001230096FCF7E3FC0C20B92134224FF60B
:104C7C00FF73CDF80080FBF7C7FC0020B921192287
:104C8C0001230096FCF7D3FC0C20D32135224FF6E0
:104C9C00FF73CDF80080FBF7B7FC0020D32119225D
:104CAC0001230096FCF7C3FC0C20ED2136224FF6B5
:104CBC00FF73CDF80080FBF7A7FC0020ED21192233
:104CCC0001230096FCF7B3FC0C2040F207113722AD
:104CDC004FF6FF73CDF80080FBF796FC002040F2F6
:104CEC000711192201230096FCF7A1FC47F68D60F1
:104CFC0019F800000238C1B2052928BF022047F676
:104D0C007C6149440591C0B242F6381109EB0104AB
:104D1C0044F26871C0F60101DFE800F07711030D71
:104D2C00080044F28071C0F6010108E044F2B07151
:104D3C00C0F6010103E044F29871C0F60101CDE91F
:104D4C00024906A84B690022059904939847DDF89F
:104D5C001890B9F1000F53D044F6B0184FF0000B77
:104D6C00C0F601080BE00BF1010B0599049B06A89A
:104D7C005A469847DDF81890B9F1000F40D00798C3
:104D8C000028F0D008991A2209EB000A002551439B
:104D9C0001F160040EE043EA811200F10209284699
:104DAC0021464FF6FF73CDF80080FBF72DFC054430
:104DBC00D145D8D0484619F9011BB1F1FF3FCAB211
:104DCC00EDDC437802F01F01E02A03F03F03E2D34D
:104DDC008678F02A06F03F0646EA83130BD3C27896
:104DEC0001F0070100F1040902F03F0242EA8312CC
:104DFC0042EA8142D3E743EA013200F10309CEE7EC
:104E0C00DDF80C904FF6FF76029C18201F21012232
:104E1C004FF481730096FCF70AFC4846FEF7DEFE61
:104E2C002068FEF729FE484609B0BDE8000FBDE832
:104E3C00F040FFF7FBBCF0B503AF2DE90007CA68E3
:104E4C0041F288360B689659B3426CD2B3F57A7F2F
:104E5C0074D203F1010EB64565D240F2E735AB4290
:104E6C0071D04C6802F57A6552F823C004F007093A
:104E7C0015F8038015F80E4084EA080424FA09F4A6
:104E8C00E40718D102F6A274B51EA6F1010E40F289
:104E9C00E63A9D420BD053454AD0E65C013386EA94
:104EAC00080626FA09F6F607F3D003F1010E4FEACD
:104EBC00DE037C2B47D852F82E204FF07C5591ED19
:104ECC00021AC1F800E0A2EB0C0300EE103AB8EEA7
:104EDC00400A80EE010A10EE104A65F31E0401EE42
:104EEC00104A30EE010ABDEEC00A10EE101A01296C
:104EFC0098BF012199422BD8B3FBF1F128FA09F69E
:104F0C00B3FBF1F5816005FB113306F0010103EBF6
:104F1C000C05A2EB5302A5EB5303C0E9003201735D
:104F2C00BDE80007F0BD02210173BDE80007F0BD2C
:104F3C004FF47A704FF47A710BF047F918464FF42E
:104F4C007A710BF042F970464FF47A710BF03DF91F
:104F5C000CF02BF8F0B503AF4DF8048DD0E90145FA
:104F6C00AC4216D31646621B964238BF3246804678
:104F7C00002A1EBFD8F8000028440CF0FFFFA81927
:104F8C00A04238BF0446C8F8084000205DF8048BE6
:104F9C00F0BD284621460BF066FEF0B503AF2DE9B7
:104FAC00000F87B0029241F2883251F802E0BEF154
:104FBC00000F00F08C80846844F62062D0E9006514
:104FCC004FF00008029B04F0070B407C00241A44AD
:104FDC00039006F00700019205F0070204900020F0
:104FEC0000254FF0000C00260592069004E04FF0CF
:104FFC00000C0136B6456AD0B6F57A7F6CD08819AC
:10500C005FFA8CF290F8A0AF2AFA0BF000F00100D6
:10501C009042EED00028EAD0A14651F826C0B8F153
:10502C00000F08BFE146039A08F0070008F10108D9
:10503C00002A08BF80F00700059BB8F1080F069AFC
:10504C002AFA03F303F0010303FA00F342EA030222
:10505C00049B06922AFA03F303F0010303FA00F00F
:10506C0040EA050204D015464FF0010C4C46C0E74F
:10507C00019D2868C3087C2B20D89046029A00EB2F
:10508C008000032302F8203002EB8000069B437063
:10509C002B68C0E9034C581C2860C3087C2B0DD826
:1050AC0000EB8000022302F8203002EB8000C0E904
:1050BC00034C80F8018028680130286000204FF0F4
:1050CC0000084FF0010C4C460025069091E700209B
:1050DC0007B0BDE8000FF0BD4FF47A704FF47A7151
:1050EC000BF073F880B56F4684B0014601F1040EE5
:1050FC00006800239EE804500F28CDE90233CDE967
:10510C0000332ED86B46195C21B1002000F0010051
:10511C0004B080BD01210F2A195421D8985C20B10C
:10512C00002000F0010004B080BD0120BCF10F0F85
:10513C00985419D813F80C0020B1002000F001008D
:10514C0004B080BD0120BEF10F0F03F80C000FD886
:10515C0013F80E0080F0010000F0010004B080BDD7
:10516C00104610210BF031F8604610210BF02DF891
:10517C00704610210BF029F880B56F46032A2BD806
:10518C00DFE802F002200C1643F220230422096807
:10519C00C0F6010303604260816080BD44F6332396
:1051AC0003228968C0F6010303604260816080BD00
:1051BC00C96844F636230222C0F60103036042603C
:1051CC00816080BD43F2F81304224968C0F60103E4
:1051DC0003604260816080BD0021016080BDF0B53C
:1051EC0003AF2DE9000F8BB0069241F288320A9181
:1051FC0089580991002900F04181D0E9000244F658
:10520C00206606994FF0000B00F007000123314493
:10521C00059101214FF0010A01FA00F000250890D8
:10522C0002F0070001FA00F0002107900020039023
:10523C0004900290CDE9000008E0002003904FF0AC
:10524C00000B09980135A84200F01881B5F57A7F5A
:10525C0000F0198189460A999E465246481951F820
:10526C00251090F8A04F07982040034618BF012343
:10527C00089E16EA040CE24618BF4FF0010A82EAB7
:10528C000A04E4070DD0D20705D0BCF1000F08D1F9
:10529C000022012407E0BCF1000F02D000241A46C2
:1052AC0001E0002400228046002818BF4FF00108BE
:1052BC008EEA0806F6074CD05FEACE761ED00028A0
:1052CC0047D1DDE905465FEACB7068D10498C00789
:1052DC007BD02268D0087C280BD802EB82000522F8
:1052EC0006F8202006EB80002268C0E90391501CD0
:1052FC00206000204FF0010B0490A2E748B35FEA56
:10530C00CB7044D0002CDDE90546DDE901E82BD15A
:10531C00002A45D15FFA8EF0082859D25FEA0E6058
:10532C004FF0010B009808BF084600908EF0070064
:10533C00BCF1000F18BF4FF0010C0EF1010EC0B202
:10534C00CDF804E00CFA00F048EA0008CDF808802B
:10535C0077E7002818BF012004405FEACB7016D015
:10536C00002CDDE905461AD02268D0087C2829D803
:10537C0002EB820007224FF0010B06F8202006EB0F
:10538C0080002268C0E90391501C206059E7002C72
:10539C003FF455AF01204FF0000B049051E78AB158
:1053AC002268D0087C283FF648AF02EB8200062228
:1053BC0006F8202006EB80002268C0E90391501CFF
:1053CC0020603AE74FF0010B3BE70020049036E7F2
:1053DC000398C0070ED02268D0087C2846D802EB70
:1053EC008200012206F8202006EB8002009882F849
:1053FC00018023E02268D0087C2837D802EB820099
:10540C000C2206F820205FFA88F206EB8000520886
:10541C004270D4F800E0009AC0E903210EF10102B9
:10542C002260D0087C2821D808F0010002EB82020F
:10543C000A3006F8220006EB82024846C2E9030154
:10544C002068421C2260D0087C280FD8082002EB70
:10545C008202BCF1000F18BF092006F8220006EBEF
:10546C008200C0E9039120680130206001204FF0D8
:10547C00010B03900020CDE90100E2E600200BB007
:10548C00BDE8000FF0BD4FF47A704FF47A710AF05A
:10549C009CFE80B56F46D0E90001401A18BF012070
:1054AC0080BD80B56F4672B1012A1EBF002101601C
:1054BC0080BD496844F638230322C0F6010303601B
:1054CC004260816080BD44F63B2303220968C0F62C
:1054DC00010303604260816080BD80B56F4600208F
:1054EC0080BD80B56F46012080BD80B56F46002A17
:1054FC001EBF0021016080BD09680222C0E90121A4
:10550C0044F63E21C0F60101016080BDF0B503AF49
:10551C002DE9000F8FB090ED020A00269FEDCC1AFA
:10552C00B8EE400A437B0691817B047B00680490B3
:10553C0044F62060151803A881EE000A00F110094A
:10554C00019300910396CDE9076609968DF82860C2
:10555C0002928DED050A03E01546052E00F07281CE
:10556C00DDE9070188420CD10BA803A9FFF763FC06
:10557C009DF83800022800F065810BAB0FCB89E851
:10558C000F00DFE806F003ED72AC3200DDE9070135
:10559C0088420CD10BA803A9FFF74DFC9DF83800ED
:1055AC00022800F04F810BAB0FCB89E80F009DF860
:1055BC002800C0B1DDE90710814213D10BA803A963
:1055CC00FFF739FC9DF83800022800F03B81DDE93B
:1055DC000B1009F1040CDDE90D238CE80D00089883
:1055EC00C9F8001007900126B7E7DDE907A082454E
:1055FC000ED10BA803A9FFF71EFC9DF8380002285A
:10560C0000F020810BAB0FCB89E80F00DDF81CA05C
:10561C00099800999DF8286000EB0A0B0029CDF839
:10562C001CB000F0BE80012940F0BE8008998B456B
:10563C00314617D10BA803A9FFF7FDFB9DF83800E5
:10564C00022800F0FF80DDE90D01DDE90B23C9F82C
:10565C000C10C9F80800C9E900239DF82810099816
:10566C00DDF81CB00BEB500BBAE0DDE907A082456E
:10567C000ED10BA803A9FFF7DEFB9DF8380002281A
:10568C0000F0E0800BAB0FCB89E80F00DDF81CA01D
:10569C004FF0000B4FF00008504600260EE0099A20
:1056AC009DF8281002EB000BCDF81CB001FA06F0A7
:1056BC0048EA000801365846B4426BD00899884233
:1056CC00EDD10BA803A9FFF7B6FB9DF83800022813
:1056DC0064D00BAB0FCB89E80F000798DFE701987C
:1056EC00002859D0DDE907A082450ED10BA803A9EB
:1056FC00FFF7A1FB9DF83800022800F0A3800BAB4C
:10570C000FCB89E80F00DDF81CA04FF055304FF09F
:10571C00333100EA5800099AA8EB000002EB0A0B9F
:10572C00019A01EA900120F0CC3008444FF001318D
:10573C00012ACDF81CB000EB101020F0F03001FB6A
:10574C0000F09DF8281001EB10604FEAC0706DD18D
:10575C00002872D044F640280D20C0F601086DE0F8
:10576C00DDE907A082450DD10BA803A9FFF763FB68
:10577C009DF83800022865D00BAB0FCB89E80F00E1
:10578C00DDF81CA00998022600EB0A0BCDF81CB022
:10579C00052035E0032602E00426DEE605260F2070
:1057AC002EE006200E462BE008998B45314616D18B
:1057BC000BA803A9FFF73FFB9DF83800022841D046
:1057CC00DDE90D01DDE90B23C9F80C10C9F808005F
:1057DC00C9E900239DF828100998DDF81CB0834412
:1057EC0001EA060044F682280026C0F60108C0072C
:1057FC004FF0240C4FF00D00CDF81CB018BF062054
:10580C002B682A46DD087C2D3FF6A6AE029D03EBE5
:10581C00830305F8230005EB830041701168C0E990
:10582C00018CC0E903AB481C106095E628B944F61E
:10583C0061280D20C0F6010800E00E2004264FF070
:10584C00210CDDE700200FB0BDE8000FF0BD00BF5C
:10585C0050A9AB4C80B56F46D0E90001081A18BFAF
:10586C00012080BD80B56F4672B1012A1EBF002198
:10587C00016080BD496844F6A8230222C0F60103EA
:10588C0003604260816080BD44F6A6230222096851
:10589C00C0F6010303604260816080BDF0B503AFC8
:1058AC002DE9000F91B044F6B02E00260675C0F617
:1058BC00010ED0F800C00DF11C0BBEE83C0040F20C
:1058CC002409594643F2080A3CC1C4F20009C4F247
:1058DC00010A9EE83C003CC1002241680190042072
:1058EC00CDE90F6001F1080002910690CDF80CC0D3
:1058FC00CDF814C008E0049A05980132042A00F18E
:10590C001800059000F04A810BEBC200049241682C
:10591C005BF83200102935D20029ECD08A084FF000
:10592C00000400F01D8102F0030200F1010E6FF083
:10593C000305A4EB820C0EEB0502043592F903303F
:10594C0092F9068092F905B013F1410F92F90420F7
:10595C00C8BF013412F1410FC8BF01341BF1410F14
:10596C00C8BF013418F1410F0CEB0502C8BF01345C
:10597C000432E0D12A1D0DF11C0B11F0030140F093
:10598C00F48002E00AF022FD0446002CB3D0C4F1EE
:10599C00030005994FF0000800EB400001EB4005B7
:1059AC000BE040F6184008F101080635A045C4F29A
:1059BC0002004FF4804101609DD0069928460522D3
:1059CC000723FAF72AFF232001E00138E9D0D9F8A0
:1059DC000010D9F80020521A592A0ED8D9F80020F4
:1059EC00521A592A9EBFD9F80020521A592A04D8A3
:1059FC00D9F80020521A5A2AEBD3DAF8001089078A
:105A0C000CD4DAF8001089075CBFDAF800105FEAF2
:105A1C00817103D4DAF800108907EED5CAF8046056
:105A2C00DAF80010C9070CD1DAF80010C90704BF66
:105A3C00DAF800105FEAC17103D1DAF80010C90777
:105A4C00EED0DAF8001009060CD5DAF800100906C9
:105A5C0044BFDAF800105FEA016103D5DAF80010F0
:105A6C000906EED4DAF80410D9F80010D9F80020A1
:105A7C00521A592A0ED8D9F80020521A592A9EBF08
:105A8C00D9F80020521A592A04D8D9F80020521AF1
:105A9C005A2AEBD3D9F80010D9F80020521A592AF7
:105AAC000ED8D9F80020521A592A9EBFD9F80020D6
:105ABC00521A592A04D8D9F80020521A5A2AEBD370
:105ACC00DAF8001089070CD4DAF8001089075CBFEB
