:020000040800F2
:1000000000000320AD010008851301083D330108FD
:1000100085130108851301088513010800000000FD
:10002000000000000000000000000000851301082F
:1000300085130108000000008513010885130108DD
:10004000851301088513010885130108851301082C
:10005000851301088513010885130108851301081C
:10006000851301088513010885130108851301080C
:1000700085130108851301088513010885130108FC
:1000800085130108851301088513010885130108EC
:1000900085130108851301088513010885130108DC
:1000A00085130108851301088513010885130108CC
:1000B00085130108851301088513010885130108BC
:1000C00085130108851301088513010885130108AC
:1000D000851301088513010885130108851301089C
:1000E000851301088513010885130108851301088C
:1000F000851301088513010885130108851301087C
:10010000851301088513010885130108851301086B
:10011000851301088513010885130108851301085B
:10012000851301088513010885130108851301084B
:10013000851301088513010885130108851301083B
:10014000851301088513010885130108851301082B
:10015000851301088513010885130108851301081B
:10016000851301088513010885130108851301080B
:1001700085130108851301088513010885130108FB
:1001800085130108851301088513010885130108EB
:1001900085130108851301088513010885130108DB
:0C01A00085130108851301088513010870
:1001AC0011F0EDF80E480F490022814201D004C035
:1001BC00FBE70D480D490E4A814202D008CA08C01F
:1001CC00FAE70C484FF47001026842EA010202603F
:1001DC00BFF34F8FBFF36F8F07F0B1F800DE000055
:1001EC00000000200400002000000020000000207F
:1001FC00B84D010888ED00E0EAB180B56F4601EB1F
:10020C00020C44F60002C4F2000203E00131536018
:10021C0061450ED00B7810680006F7D41068000604
:10022C005CBF10685FEA0060F0D410680006F2D57D
:10023C00ECE7BDE880400020704780B56F460B4668
:10024C00D0E900121846BDE8804010F093BB80B591
:10025C006F4681B0002080290090684602D200F1E0
:10026C00010C37E0B1F5006F0BD202220B4662F3A2
:10027C009F13C02200F1020C8DF8013042EA91115B
:10028C0028E0B1F5803F10D202220B4662F39F1397
:10029C008DF802308B0900F1030C62F39F13E022FE
:1002AC008DF8013042EA113114E002220B4662F360
:1002BC009F138DF803308B0900F1040C62F39F132C
:1002CC008DF802300B0B62F39F13F0228DF8013086
:1002DC0042EA914144F600028DF800106946C4F2DE
:1002EC00000203E00131536061450ED00B781068B9
:1002FC000006F7D4106800065CBF10685FEA006067
:10030C00F0D410680006F2D5ECE7002001B080BDF7
:10031C00F0B503AF4DF8048D82B0804600208029E3
:10032C00019003D201248DF8041033E0B1F5006F75
:10033C0009D20224084664F39F108DF80500C020F2
:10034C0040EA911024E002200A4660F39F12B1F5B6
:10035C00803F0DD28DF806208A0960F39F12E020B1
:10036C0040EA11308DF805208DF80400032411E0CB
:10037C008DF807208A0960F39F128DF806200A0B6E
:10038C00042460F39F12F02040EA91408DF8052080
:10039C008DF80400D8E90156B54215D309D0D8F828
:1003AC00000001A9AA1B3044944238BF224611F028
:1003BC008DFE3019A84238BF0546C8F808500020F9
:1003CC0002B05DF8048BF0BD3046294610F0F3FC0A
:1003DC0080B56F460A4643F28C31C0F60101BDE888
:1003EC00804010F0B2BB80B56F460A4643F27431C0
:1003FC00C0F60101BDE8804010F0A7BB80B56F4688
:10040C00C00708BF80BDBDE8804011F023BDF0B52A
:10041C0003AF2DE9000F83B0BC689A469046D4E92F
:10042C0002B52B465A4600F0EFF9A8F120000BF16B
:10043C0007016843C9080191484361688142C0F0D3
:10044C00DF80002D18BFBBF1000F0BD140F6184018
:10045C004FF48041C4F202000160584603B0BDE87D
:10046C00000FF0BD22682426091A002302EB0009B4
:10047C0043F20802C4F20006C4F201024FF007086E
:10048C00009504E0029B009D0133AB42DED0019845
:10049C000025029303FB00FE02E001355D45F1D01F
:1004AC000EEBD500884280F0AD8019F8000028EAE8
:1004BC000503D6F800C0D84000F00100404200EA25
:1004CC000A003368A3EB0C03592B0ED83368A3EB4B
:1004DC000C03592B9EBF3368A3EB0C03592B04D888
:1004EC003368A3EB0C035A2BEBD313689B0709D48B
:1004FC0013689B075CBF13685FEA837302D41368AD
:10050C009B07F2D583B21B0A53601368DB0709D132
:10051C001368DB0704BF13685FEAC37302D1136867
:10052C00DB07F2D013681B0609D513681B0644BF02
:10053C0013685FEA036302D513681B06F2D4536891
:10054C0033683468E41A592C0BD83468E41A592CE3
:10055C009EBF3468E41A592C03D83468E41A5A2C18
:10056C00EFD333683468E41A592C0BD83468E41A86
:10057C00592C9EBF3468E41A592C03D83468E41AF9
:10058C005A2CEFD313689B0709D413689B075CBFE5
:10059C0013685FEA837302D413689B07F2D5C0B269
:1005AC0050601068C00709D11068C00704BF1068FC
:1005BC005FEAC07002D11068C007F2D01068000664
:1005CC0009D51068000644BF10685FEA006002D5C8
:1005DC0010680006F2D45068306833681B1A592B27
:1005EC003FF65BAF33681B1A592B9EBF33681B1A3F
:1005FC00592B3FF652AF33681B1A5A2BEDD34CE7ED
:10060C0010F0D9FB0FF08AFEF0B503AF2DE9000F07
:10061C0083B0BC681646B52A08BF8026202A257CE4
:10062C0038BF7F2645B1BC60324603B0BDE8000F31
:10063C00BDE8F040FFF7EBBED4E902959A462B4695
:10064C004A4600F0E1F8002D019518BFB9F1000FF2
:10065C000CD140F618404FF48041C4F20200016006
:10066C0009F1010003B0BDE8000FF0BDA6F12000B8
:10067C00D4E90081242543F2080409FB00FB002285
:10068C00C4F20005C4F2010403E0DDE90102824278
:10069C00DFD002F0070001230132029203FA00FCC2
:1006AC00002301E04B45F0D003EB0B00884280F0B7
:1006BC00A98018F800000133D5F800E000EA0C001E
:1006CC002E68A6EB0E06592E0ED82E68A6EB0E063B
:1006DC00592E9EBF2E68A6EB0E06592E04D82E68F6
:1006EC00A6EB0E065A2EEBD32668B60709D426685D
:1006FC00B6075CBF26685FEA867602D42668B60722
:10070C00F2D5002818BF504686B2360A66602668B5
:10071C00F60709D12668F60704BF26685FEAC67695
:10072C0002D12668F607F2D02668360609D5266867
:10073C00360644BF26685FEA066602D5266836068A
:10074C00F2D466682E682A68921B592A0BD82A683C
:10075C00921B592A9EBF2A68921B592A03D82A68D1
:10076C00921B5A2AEFD32E682A68921B592A0BD84F
:10077C002A68921B592A9EBF2A68921B592A03D8B1
:10078C002A68921B5A2AEFD32268920709D422684E
:10079C0092075CBF22685FEA827202D422689207D9
:1007AC00F2D5C0B260602068C00709D12068C007CC
:1007BC0004BF20685FEAC07002D12068C007F2D085
:1007CC002068000609D52068000644BF20685FEA4F
:1007DC00006002D520680006F2D4606828682A6898
:1007EC00121A592A3FF65EAF2A68121A592A9EBF6E
:1007FC002A68121A592A3FF655AF2A68121A5A2A31
:10080C00EDD34FE70FF08AFDF0B503AF4DF8048D33
:10081C0040F6184C4FF00056C4F2020C40F2240E75
:10082C00CCF800684FF08046CCF80060C4F2000EA3
:10083C00DEF80060A1F10108441EDEF80050AD1B8B
:10084C00592D0ED8DEF80050AD1B592D9EBFDEF889
:10085C000050AD1B592D04D8DEF80050AD1B5A2D9D
:10086C00EBD3144443F20802C4F201021568AD073D
:10087C0009D41568AD075CBF15685FEA857502D4AD
:10088C001568AD07F2D52A2555601568ED0709D115
:10089C001568ED0704BF15685FEAC57502D11568C8
:1008AC00ED07F2D015682D0609D515682D0644BF45
:1008BC0015685FEA056502D515682D06F2D45568F2
:1008CC00DEF80060DEF80050AD1B592D0ED8DEF8B6
:1008DC000050AD1B592D9EBFDEF80050AD1B592D9D
:1008EC0004D8DEF80050AD1B5A2DEBD34FF48045E5
:1008FC00CCF800504FF40055CCF800584FF0804520
:10090C00CCF80050DEF80060DEF80050AD1B592D1D
:10091C000ED8DEF80050AD1B592D9EBFDEF80050EE
:10092C00AD1B592D04D8DEF80050AD1B5A2DEBD35E
:10093C0043441568AD0709D41568AD075CBF15684D
:10094C005FEA857502D41568AD07F2D500255560B0
:10095C001568ED0709D11568ED0704BF15685FEA46
:10096C00C57502D11568ED07F2D015682D0609D5AD
:10097C0015682D0644BF15685FEA056502D5156834
:10098C002D06F2D45568DEF80050DEF80060761BB8
:10099C00592E0ED8DEF80060761B592E9EBFDEF85D
:1009AC000060761B592E04D8DEF80060761B5A2E98
:1009BC00EBD3DEF80050DEF80060761B592E0ED813
:1009CC00DEF80060761B592E9EBFDEF80060761BA9
:1009DC00592E04D8DEF80060761B5A2EEBD315681E
:1009EC00AD0709D41568AD075CBF15685FEA85755E
:1009FC0002D41568AD07F2D5C0F30725556015680C
:100A0C00ED0709D11568ED0704BF15685FEAC575D8
:100A1C0002D11568ED07F2D015682D0609D51568B9
:100A2C002D0644BF15685FEA056502D515682D06CD
:100A3C00F2D45568DEF80050DEF80060761B592EB3
:100A4C000ED8DEF80060761B592E9EBFDEF80060D3
:100A5C00761B592E04D8DEF80060761B5A2EEBD389
:100A6C004FF48045CCF800504FF40055CCF80058AA
:100A7C004FF08045CCF80050DEF80050DEF80060F6
:100A8C00761B592E0ED8DEF80060761B592E9EBFB1
:100A9C00DEF80060761B592E04D8DEF80060761B59
:100AAC005A2EEBD31568AD0709D41568AD075CBF9A
:100ABC0015685FEA857502D41568AD07F2D5002577
:100ACC0055601568ED0709D11568ED0704BF156869
:100ADC005FEAC57502D11568ED07F2D015682D06D1
:100AEC0009D515682D0644BF15685FEA056502D562
:100AFC0015682D06F2D45568DEF80050DEF800605B
:100B0C00761B592E0ED8DEF80060761B592E9EBF30
:100B1C00DEF80060761B592E04D8DEF80060761BD8
:100B2C005A2EEBD3DEF80050DEF80060761B592EFF
:100B3C000ED8DEF80060761B592E9EBFDEF80060E2
:100B4C00761B592E04D8DEF80060761B5A2EEBD398
:100B5C001568AD0709D41568AD075CBF15685FEA69
:100B6C00857502D41568AD07F2D5C0B25060106817
:100B7C00C00709D11068C00704BF10685FEAC070D5
:100B8C0002D11068C007F2D01068000609D51068B1
:100B9C00000644BF10685FEA006002D510680006CA
:100BAC00F2D45068DEF80000DEF800502D1A592DF2
:100BBC000ED8DEF800502D1A592D9EBFDEF80050CD
:100BCC002D1A592D04D8DEF800502D1A5A2DEBD3BE
:100BDC004FF48040CCF800004FF40050CCF80008E3
:100BEC004FF08040CCF80000DEF80000DEF800503A
:100BFC002D1A592D0ED8DEF800502D1A592D9EBFE6
:100C0C00DEF800502D1A592D04D8DEF800502D1A9C
:100C1C005A2DEBD31068800709D4106880075CBF8D
:100C2C0010685FEA807002D410688007F2D500204B
:100C3C0050601068C00709D11068C00704BF106865
:100C4C005FEAC07002D11068C007F2D010680006CD
:100C5C0009D51068000644BF10685FEA006002D531
:100C6C0010680006F2D45068DEF80000DEF8005080
:100C7C002D1A592D0ED8DEF800502D1A592D9EBF65
:100C8C00DEF800502D1A592D04D8DEF800502D1A1C
:100C9C005A2DEBD3DEF80000DEF800502D1A592D3A
:100CAC000ED8DEF800502D1A592D9EBFDEF80050DC
:100CBC002D1A592D04D8DEF800502D1A5A2DEBD3CD
:100CCC001068800709D4106880075CBF10685FEA61
:100CDC00807002D410688007F2D5C4F307205060EE
:100CEC001068C00709D11068C00704BF10685FEA1C
:100CFC00C07002D11068C007F2D01068000609D588
:100D0C001068000644BF10685FEA006002D51068E6
:100D1C000006F2D45068DEF80000DEF800502D1A00
:100D2C00592D0ED8DEF800502D1A592D9EBFDEF825
:100D3C0000502D1A592D04D8DEF800502D1A5A2DBA
:100D4C00EBD34FF48040CCF800004FF40050CCF8BB
:100D5C0000084FF08040CCF80000DEF80000DEF810
:100D6C0000502D1A592D0ED8DEF800502D1A592D81
:100D7C009EBFDEF800502D1A592D04D8DEF8005015
:100D8C002D1A5A2DEBD31068800709D410688007F0
:100D9C005CBF10685FEA807002D410688007F2D5DF
:100DAC00002050601068C00709D11068C00704BF4C
:100DBC0010685FEAC07002D11068C007F2D01068EA
:100DCC00000609D51068000644BF10685FEA006091
:100DDC0002D510680006F2D45068DEF80000DEF888
:100DEC0000502D1A592D0ED8DEF800502D1A592D01
:100DFC009EBFDEF800502D1A592D04D8DEF8005095
:100E0C002D1A5A2DEBD3DEF80000DEF800502D1A07
:100E1C00592D0ED8DEF800502D1A592D9EBFDEF834
:100E2C0000502D1A592D04D8DEF800502D1A5A2DC9
:100E3C00EBD31068800709D4106880075CBF10687A
:100E4C005FEA807002D410688007F2D5E0B250607F
:100E5C001068C00709D11068C00704BF10685FEAAA
:100E6C00C07002D11068C007F2D01068000609D516
:100E7C001068000644BF10685FEA006002D5106875
:100E8C000006F2D45068DEF80000DEF80040241AA8
:100E9C00592C0ED8DEF80040241A592C9EBFDEF8CF
:100EAC000040241A592C04D8DEF80040241A5A2C7D
:100EBC00EBD34FF48040CCF800004FF00050CCF84E
:100ECC0000084FF08040CCF80000DEF80000DEF89F
:100EDC000040241A592C0ED8DEF80040241A592C44
:100EEC009EBFDEF80040241A592C04D8DEF80040CE
:100EFC00241A5A2CEBD31068800709D41068800789
:100F0C005CBF10685FEA807002D410688007F2D56D
:100F1C002B2050601068C00709D11068C00704BFAF
:100F2C0010685FEAC07002D11068C007F2D0106878
:100F3C00000609D51068000644BF10685FEA00601F
:100F4C0002D510680006F2D45068DEF80000DEF816
:100F5C000040241A592C0ED8DEF80040241A592CC3
:100F6C009EBFDEF80040241A592C04D8DEF800404D
:100F7C00241A5A2CEBD34FF48040CCF800004FF4D9
:100F8C000050CCF800084FF08040CCF80000DEF8A0
:100F9C000000DEF80040241A592C0ED8DEF8004070
:100FAC00241A592C9EBFDEF80040241A592C04D860
:100FBC00DEF80040241A5A2CEBD31068800709D4B1
:100FCC00106880075CBF10685FEA807002D41068FC
:100FDC008007F2D5002050601068C00709D1106856
:100FEC00C00704BF10685FEAC07002D11068C00768
:100FFC00F2D01068000609D51068000644BF1068CE
:10100C005FEA006002D510680006F2D45068DEF882
:10101C000000DEF80040241A592C0ED8DEF80040EF
:10102C00241A592C9EBFDEF80040241A592C04D8DF
:10103C00DEF80040241A5A2CEBD3DEF80000DEF860
:10104C000040241A592C0ED8DEF80040241A592CD2
:10105C009EBFDEF80040241A592C04D8DEF800405C
:10106C00241A5A2CEBD31068800709D41068800717
:10107C005CBF10685FEA807002D410688007F2D5FC
:10108C00C1F3072050601068C00709D11068C00771
:10109C0004BF10685FEAC07002D11068C007F2D0BC
:1010AC001068000609D51068000644BF10685FEA96
:1010BC00006002D510680006F2D45068DEF800001B
:1010CC00DEF80040241A592C0ED8DEF80040241A01
:1010DC00592C9EBFDEF80040241A592C04D8DEF897
:1010EC000040241A5A2CEBD34FF48040CCF800006B
:1010FC004FF40050CCF800084FF08040CCF80000C2
:10110C00DEF80000DEF80040241A592C0ED8DEF868
:10111C000040241A592C9EBFDEF80040241A592C8A
:10112C0004D8DEF80040241A5A2CEBD31068800740
:10113C0009D4106880075CBF10685FEA807002D425
:10114C0010688007F2D5002050601068C00709D1E4
:10115C001068C00704BF10685FEAC07002D1106845
:10116C00C007F2D01068000609D51068000644BF0D
:10117C0010685FEA006002D510680006F2D450686F
:10118C00DEF80000DEF80040241A592C0ED8DEF8E8
:10119C000040241A592C9EBFDEF80040241A592C0A
:1011AC0004D8DEF80040241A5A2CEBD3DEF80000E9
:1011BC00DEF80040241A592C0ED8DEF80040241A10
:1011CC00592C9EBFDEF80040241A592C04D8DEF8A6
:1011DC000040241A5A2CEBD31068800709D41068ED
:1011EC0080075CBF10685FEA807002D410688007CB
:1011FC00F2D5C8B250601068C00709D11068C0079A
:10120C0004BF10685FEAC07002D11068C007F2D04A
:10121C001068000609D51068000644BF10685FEA24
:10122C00006002D510680006F2D45068DEF80000A9
:10123C00DEF80010091A59290ED8DEF80010091A28
:10124C0059299EBFDEF80010091A592904D8DEF876
:10125C000010091A5A29EBD34FF48040CCF8000047
:10126C004FF40050CCF800084FF08040CCF8000050
:10127C00DEF80000DEF80010091A59290ED8DEF845
:10128C000010091A59299EBFDEF80010091A5929B5
:10129C0004D8DEF80010091A5A29EBD3106880071D
:1012AC0009D4106880075CBF10685FEA807002D4B4
:1012BC0010688007F2D5002050601068C00709D173
:1012CC001068C00704BF10685FEAC07002D11068D4
:1012DC00C007F2D01068000609D51068000644BF9C
:1012EC0010685FEA006002D510680006F2D45068FE
:1012FC00DEF80000DEF80010091A59290ED8DEF8C5
:10130C000010091A59299EBFDEF80010091A592934
:10131C0004D8DEF80010091A5A29EBD3DEF80000C5
:10132C00DEF80010091A59290ED8DEF80010091A37
:10133C0059299EBFDEF80010091A592904D8DEF885
:10134C000010091A5A29EBD31068800709D41068C9
:10135C0080075CBF10685FEA807002D41068800759
:10136C00F2D5C3F3072050601068C00709D110688C
:10137C00C00704BF10685FEAC07002D11068C007D4
:10138C00F2D01068000609D51068000644BF10683A
:10139C005FEA006002D510680006F2D45068DEF8EF
:1013AC000000DEF80010091A59290ED8DEF80010DA
:1013BC00091A59299EBFDEF80010091A592904D8B8
:1013CC00DEF80010091A5A29EBD34FF48040CCF800
:1013DC0000004FF40050CCF800084FF08040CCF8DF
:1013EC000000DEF80000DEF80010091A59290ED8AA
:1013FC00DEF80010091A59299EBFDEF80010091AF0
:10140C00592904D8DEF80010091A5A29EBD31068B0
:10141C00800709D4106880075CBF10685FEA807091
:10142C0002D410688007F2D5002050601068C00705
:10143C0009D11068C00704BF10685FEAC07002D100
:10144C001068C007F2D01068000609D510680006B5
:10145C0044BF10685FEA006002D510680006F2D441
:10146C005068DEF80000DEF80010091A59290ED871
:10147C00DEF80010091A59299EBFDEF80010091A6F
:10148C00592904D8DEF80010091A5A29EBD3DEF8D2
:10149C000000DEF80010091A59290ED8DEF80010E9
:1014AC00091A59299EBFDEF80010091A592904D8C7
:1014BC00DEF80010091A5A29EBD31068800709D4FA
:1014CC00106880075CBF10685FEA807002D41068F7
:1014DC008007F2D5D8B250601068C00709D11068E7
:1014EC00C00704BF10685FEAC07002D11068C00763
:1014FC00F2D01068000609D51068000644BF1068C9
:10150C005FEA006002D510680006F2D45068DEF87D
:10151C000000DEF80010091A59290ED8DEF8001068
:10152C00091A59299EBFDEF80010091A592904D846
:10153C00DEF80010091A5A29EBD34FF48040CCF88E
:10154C0000004FF00050CCF800084FF08040CCF871
:10155C000000DEF80000DEF80010091A59290ED838
:10156C00DEF80010091A59299EBFDEF80010091A7E
:10157C00592904D8DEF80010091A5A29EBD310683F
:10158C00800709D4106880075CBF10685FEA807020
:10159C0002D410688007F2D52C2050601068C00768
:1015AC0009D11068C00704BF10685FEAC07002D18F
:1015BC001068C007F2D01068000609D51068000644
:1015CC0044BF10685FEA006002D510680006F2D4D0
:1015DC005068DEF80000DEF80010091A59290ED800
:1015EC00DEF80010091A59299EBFDEF80010091AFE
:1015FC00592904D8DEF80010091A5A29EBD34FF4F4
:10160C008040CCF800004FF40050CCF800084FF0AC
:10161C008040CCF800005DF8048BF0BDB0B502AF93
:10162C001C461546FFF7F0F804FB05F0002800F007
:10163C00AA80BA68242343F20805C4F20003C4F25A
:10164C00010591B2D2B24FEA112C02E0013800F040
:10165C009A801C681968091B59290BD81968091B31
:10166C0059299EBF1968091B592903D81968091BE8
:10167C005A29EFD32968890709D4296889075CBFDF
:10168C0029685FEA817102D429688907F2D5C5F807
:10169C0004C02968C90709D12968C90704BF29688A
:1016AC005FEAC17102D12968C907F2D0296809061D
:1016BC0009D52968090644BF29685FEA016102D58A
:1016CC0029680906F2D469681C681968091B59292C
:1016DC000BD81968091B59299EBF1968091B592970
:1016EC0003D81968091B5A29EFD31C681968091B00
:1016FC0059290BD81968091B59299EBF1968091B50
:10170C00592903D81968091B5A29EFD32968890765
:10171C0009D4296889075CBF29685FEA817102D402
:10172C0029688907F2D56A602968C90709D129682F
:10173C00C90704BF29685FEAC17102D12968C907CA
:10174C00F2D02968090609D52968090644BF296819
:10175C005FEA016102D529680906F2D469681C6840
:10176C001968091B59293FF671AF1968091B5929CA
:10177C009EBF1968091B59293FF668AF1968091BE8
:10178C005A29EDD362E740F618404FF48041C4F279
:10179C0002000160B0BDF0B503AF2DE9000F81B0C0
:1017AC0083460D46914600240A2059462A460123B9
:1017BC000094FFF733FF0BF10106A9F102080A2090
:1017CC000122314643460094FFF728FF05F109003A
:1017DC003146012243460094FFF720FF09EB0B0032
:1017EC002A46411E0A2001230094FFF717FFA5F19A
:1017FC00020A4FF6FF7000900B203146524601232F
:10180C004FF6FF74FFF70AFF0094A9F104060BF1E1
:10181C0002040B20012233462146FFF7FFFE4FF650
:10182C00FF702146009005F10800012233464FF667
:10183C00FF79FFF7F3FE08EB0B010B205246012357
:10184C00CDF80090FFF7EAFE01B0BDE8000FF0BD47
:10185C00F0B503AF2DE9000F83B0D0F84C9043F6F0
:10186C00E4388246282001EB020B0C4600EB0916EB
:10187C000725C0F6010802920DE043EA8112841C90
:10188C00284631464FF6FF73CDF80080FEF7BCFEBC
:10189C0005445C4523D0204614F9011BB1F1FF3FF0
:1018AC00CAB2EDDC437802F01F01E02A03F03F03DB
:1018BC00E3D38478F02A04F03F0444EA83130AD378
:1018CC00C27801F00701041D02F03F0242EA8312C4
:1018DC0042EA8142D4E743EA0132C41CD0E7B9F1B1
:1018EC000F0F9FBF02980AF80900DAF84C0001307C
:1018FC009FBFCAF84C0003B0BDE8000FF0BD4846CE
:10190C0010210EF00BFDF0B503AF2DE9000F81B0E7
:10191C0044F2602B8D189246894680460726C0F605
:10192C00010B0C460DE043EA8112841C3046072162
:10193C004FF6FF73CDF800B0FEF766FE0644AC42DE
:10194C0023D0204614F9011BB1F1FF3FCAB2EDDCE4
:10195C00437802F01F01E02A03F03F03E3D38478BD
:10196C00F02A04F03F0444EA83130AD3C27801F04E
:10197C000701041D02F03F0242EA831242EA81424F
:10198C00D4E743EA0132C41CD0E7D8F83400A0EB0A
:10199C000A01002909DD0020CA0000904FEACA00A4
:1019AC00073007211023FFF739FEC8E90C9A01B064
:1019BC00BDE8000FF0BDD4D4B0B502AF82B0044680
:1019CC00C8B2DFE810F00C00AD0062007B00300004
:1019DC00C600DF00940011014900F8001700002038
:1019EC0040F229110090204610221023FFF716FE1A
:1019FC0002B0B0BD43F6E4352046C0F6010540F216
:101A0C0029118C224FF6FF730095FEF700FD00950F
:101A1C0004F1080040F229118D224FF6FF73FEF7F6
:101A2C00F6FC02B0B0BD43F6E4352046C0F6010525
:101A3C0040F2291194224FF6FF730095FEF7E7FC54
:101A4C00009504F1080040F2291195224FF6FF731E
:101A5C00FEF7DDFC02B0B0BD43F6E4352046C0F61F
:101A6C00010540F229118E224FF6FF730095FEF707
:101A7C00CEFC009504F1080040F229118F224FF69C
:101A8C00FF73FEF7C4FC02B0B0BD43F6E43520464C
:101A9C00C0F6010540F229119A224FF6FF7300950A
:101AAC00FEF7B5FC009504F1080040F229119B22C9
:101ABC004FF6FF73FEF7ABFC02B0B0BD43F6E43556
:101ACC002046C0F6010540F2291186224FF6FF731D
:101ADC000095FEF79CFC009504F1080040F22911DA
:101AEC0087224FF6FF73FEF792FC02B0B0BD43F6AF
:101AFC00E4352046C0F6010540F229118A224FF642
:101B0C00FF730095FEF783FC009504F1080040F28A
:101B1C0029118B224FF6FF73FEF779FC02B0B0BD92
:101B2C0043F6E4352046C0F6010540F22911922215
:101B3C004FF6FF730095FEF76AFC04F1080040F2C3
:101B4C002911932200954FF6FF73FEF760FC02B04B
:101B5C00B0BD43F6E4352046C0F6010540F229112C
:101B6C0090224FF6FF730095FEF751FC009504F19F
:101B7C00080040F2291191224FF6FF73FEF747FC43
:101B8C0002B0B0BD43F6E4352046C0F6010540F284
:101B9C00291198224FF6FF730095FEF738FC00953B
:101BAC0004F1080040F2291199224FF6FF73FEF759
:101BBC002EFC02B0B0BD43F6E4352046C0F601055C
:101BCC0040F22911A0224FF6FF730095FEF71FFC7F
:101BDC00009504F1080040F22911A1224FF6FF7381
:101BEC00FEF715FC02B0B0BD43F6E4352046C0F656
:101BFC00010540F229119E224FF6FF730095FEF766
:101C0C0006FC009504F1080040F229119F224FF6C2
:101C1C00FF73FEF7FCFB02B0B0BDF0B503AF4DF89F
:101C2C00048DC46A002C55D0866A0D46804609780E
:101C3C003078814202D0EF20FFF7BEFE012C4DD050
:101C4C006978707881421CBF4FF48770FFF7B4FE3F
:101C5C00022C47D0A978B07881421CBF40F22D10DD
:101C6C00FFF7AAFE032C41D0E978F07881421CBF23
:101C7C004FF4A670FFF7A0FE042C3BD029793079E5
:101C8C0081421CBF40F26B10FFF796FE052C35D03D
:101C9C006979707981421CBF4FF4C570FFF78CFED7
:101CAC00062C2FD0A979B07981421CBF40F2A91023
:101CBC00FFF782FE072C29D0E979F07981421CBF0D
:101CCC004FF4E470FFF778FE0820C8E90A505DF87D
:101CDC00048BF0BD002021460EF020FB0120214694
:101CEC000EF01CFB022021460EF018FB03202146AF
:101CFC000EF014FB042021460EF010FB05202146AB
:101D0C000EF00CFB062021460EF008FB07202146A6
:101D1C000EF004FBF0B503AF2DE9000F93B0804635
:101D2C0047F6906008EB00090E4699F81800DFE8BA
:101D3C0010F086023A042B0007000700070007008A
:101D4C00404600F0D9FE89F81860F0B2DFE810F0D8
:101D5C000700D905CD0062020F0017062C0640467D
:101D6C0013B0BDE8000FBDE8F04003F0EFBF44F244
:101D7C0093514046C0F601010B22FFF7C4FD44F21B
:101D8C00AC61C0F6010151E200242C202E2120224E
:101D9C0010230094FFF742FC0A202921642202231D
:101DAC000094FFF73BFC0A202B21022216230094FF
:101DBC00FFF734FC6C202B21022216230094FFF732
:101DCC002DFC0A204121642202230094FFF726FCFB
:101DDC0030205221182210230094FFF71FFC0A20F8
:101DEC004D21642202230094FFF718FC0A204F2196
:101DFC00022216230094FFF711FC6C204F210222C3
:101E0C0016230094FFF70AFC0A20652164220223A2
:101E1C000094FFF703FC3020762118221023009445
:101E2C00FFF7FCFB0A207121642202230094FFF7C8
:101E3C00F5FB0A207321022216230094FFF7EEFB18
:101E4C006C207321022216230094FFF7E7FB0A2073
:101E5C008921642202230094FFF7E0FB20209A21C1
:101E6C00382210230094FFF7D9FB0A209521642215
:101E7C0002230094FFF7D2FB0A209721022216239B
:101E8C000094FFF7CBFB6C209721022216230094C1
:101E9C00FFF7C4FB0A20AD21642202230094FFF754
:101EAC00BDFB2C20BE21202210230094FFF7B6FB93
:101EBC000A20B921642202230094FFF7AFFB0A2009
:101ECC00BB21022216230094FFF7A8FB6C20BB2138
:101EDC00022216230094FFF7A1FB0A20D1216422D1
:101EEC0002230094FFF79AFB2DE744F6B0214046FD
:101EFC00C0F601011722FFF706FD44F2A821404667
:101F0C00C0F60101FFF789FE242643F20804D8F835
:101F1C0044000025C4F20006C4F201044FF0070A85
:101F2C004FF0010B02902AE040F21F490A20642274
:101F3C0002234FEA8C08CDF80090FFF76FFB08F1F5
:101F4C002B050A20022216232946CDF80090FFF714
:101F5C0065FBCDF8009029466C2002221623039DC8
:101F6C00FFF75CFB08F141010A2064220223CDF843
:101F7C000090FFF753FB0135052D00F0478144F627
:101F8C00882005EBC50CC0F60100039500EBC500DD
:101F9C004168002900F02981039844F68822C0F694
:101FAC00010252F83000421804922E22034602EB32
:101FBC008C0206924FF6FC72CDF814C0C7F6FF7275
:101FCC0002EA8101C1F13C0210E040F618404FF4E6
:101FDC008041C4F202000160089A079B0498083201
:101FEC00DDF814C08342184600F0FF8013F9011B82
:101FFC00B1F1FF3FCDB21FDC417805F01F0EE02D93
:10200C0001F03F0111D38378F02D03F03F0343EA35
:10201C0081110ED3C37803F03F0343EA81130EF012
:10202C00070143EA8145031D06E041EA8E15831C36
:10203C0002E041EA0E35C31CCDE907321046069981
:10204C0008221023FEF7E0FB4FF60060B52DCFF60B
:10205C00FF7000EB051008BF4FF4C060202D38BF97
:10206C004FF4BE60B0F5C06F00F2B58443F65F412B
:10207C004FF0000EC0F6010101EB000CC0F5C06181
:10208C0004E00EF1010EBEF1100F9ED0002502E00F
:10209C000135082DF5D00EEBD500884280F09984DF
:1020AC001CF800902AEA05023368D6F80080A8EBE9
:1020BC00030059280BD83068C01A59289EBF3068C5
:1020CC00C01A592803D83068C01A5A28EDD30BFA15
:1020DC0002F22068800709D4206880075CBF206862
:1020EC005FEA807002D420688007F2D519EA0200FA
:1020FC0018BFFF2060602268D20709D12268D2077E
:10210C0004BF22685FEAC27202D12268D207F2D001
:10211C002268120609D52268120644BF22685FEABB
:10212C00026202D522681206F2D462683268336801
:10213C009B1A592B0BD833689B1A592B9EBF3368AB
:10214C009B1A592B03D833689B1A5A2BEFD332683E
:10215C0033689B1A592B0BD833689B1A592B9EBF8B
:10216C0033689B1A592B03D833689B1A5A2BEFD31D
:10217C002268920709D4226892075CBF22685FEA42
:10218C00827202D422689207F2D560602068C00780
:10219C0009D12068C00704BF20685FEAC07002D173
:1021AC002068C007F2D02068000609D52068000618
:1021BC0044BF20685FEA006002D520680006F2D4B4
:1021CC00606830683268121A592A3FF661AF32687B
:1021DC00121A592A9EBF3268121A592A3FF658AF62
:1021EC003268121A5A2AEDD352E7292000EB8C01DF
:1021FC00DDE9020585423FF497AE084664211A22B8
:10220C00FFF7C9FA0135052D7FF4B9AE13B0BDE85F
:10221C00000FF0BD44F287514046C0F601010C227C
:10222C00FFF771FB44F2D441C0F60101404606228F
:10223C0013B0BDE8000FBDE8F04000F0CBBC41F29C
:10224C006A7040F28E314044059610F077FB41F6EF
:10225C00BF4040F2C711404410F070FB42F2142012
:10226C0040F28E31404410F0FDFB42F2697040F2B6
:10227C00C711404410F062FB41F2DC302121404494
:10228C0004F0F2FB41F686603221404404F0ECFB92
:10229C00002400201F2119224FF481730094FFF7B2
:1022AC00BDF91A204FF49571302210230094FFF7DA
:1022BC00B5F942F63C10CDF81880404404F0D3FE3A
:1022CC0044F64430CDF8109089F81440C0F6010063
:1022DC000DF1240B6CC840F2240959466CC143F231
:1022EC00080AC4F2000990E86C000420C4F2010A48
:1022FC006CC10022CDE911404FF49170089008E0B8
:10230C00079A08980132042A00F11800089000F08E
:10231C000C820BEBC200079241685BF8320010296B
:10232C0035D20029ECD08A084FF0000600F01D8150
:10233C0002F0030200F1010E6FF00305A6EB820C14
:10234C000EEB0502043592F9033092F9068092F9EE
:10235C0005B013F1410F92F90420C8BF013612F1F8
:10236C00410FC8BF01361BF1410FC8BF013618F130
:10237C00410F0CEB0502C8BF01360432E0D12A1D17
:10238C000DF1240B11F0030140F0F48002E00EF08B
:10239C00C5F80646002EB3D0C6F1030008994FF0DD
:1023AC00000800EB400001EB40050BE040F6184044
:1023BC0008F101080635B045C4F202004FF4804123
:1023CC0001609DD028460E2105220723FEF71CFA3A
:1023DC00232001E00138E9D0D9F80010D9F8002009
:1023EC00521A592A0ED8D9F80020521A592A9EBFCF
:1023FC00D9F80020521A592A04D8D9F80020521AB8
:10240C005A2AEBD3DAF8001089070CD4DAF800104A
:10241C0089075CBFDAF800105FEA817103D4DAF83F
:10242C0000108907EED5CAF80440DAF80010C90785
:10243C000CD1DAF80010C90704BFDAF800105FEA13
:10244C00C17103D1DAF80010C907EED0DAF8001028
:10245C0009060CD5DAF80010090644BFDAF80010AA
:10246C005FEA016103D5DAF800100906EED4DAF858
:10247C000410D9F80010D9F80020521A592A0ED895
:10248C00D9F80020521A592A9EBFD9F80020521AA6
:10249C00592A04D8D9F80020521A5A2AEBD3D9F861
:1024AC000010D9F80020521A592A0ED8D9F8002059
:1024BC00521A592A9EBFD9F80020521A592A04D808
:1024CC00D9F80020521A5A2AEBD3DAF800108907EF
:1024DC000CD4DAF8001089075CBFDAF800105FEA58
:1024EC00817103D4DAF800108907EED5CAF80440DC
:1024FC00DAF80010C9070CD1DAF80010C90704BFCC
:10250C00DAF800105FEAC17103D1DAF80010C907DC
:10251C00EED0DAF8001009060CD5DAF8001009062E
:10252C0044BFDAF800105FEA016103D5DAF8001055
:10253C000906EED4DAF80410D9F80010D9F8002006
:10254C00521A592A3FF646AFD9F80020521A592A86
:10255C009EBFD9F80020521A592A3FF63BAFD9F842
:10256C000020521A5A2AE9D334E7002211F0030151
:10257C003FF410AF835613F1410FC8BF0136012948
:10258C003FF408AF104490F9012012F1410FC8BF7D
:10259C00013602293FF4FEAE90F9020010F1410F12
:1025AC00C8BF0136F6E6D8F84C40002C00F0B880D5
:1025BC0098F800000025282110230095C200072060
:1025CC00FFF72CF8012C00F0AB8098F801003821B3
:1025DC0010230095C2000720FFF720F8022C00F012
:1025EC009F8098F80200482110230095C200072014
:1025FC00FFF714F8032C00F0938098F8030058218F
:10260C0010230095C2000720FFF708F8042C00F0F7
:10261C00878098F80400682110230095C2000720D9
:10262C00FEF7FCFF052C7BD098F8050078211023D1
:10263C000095C2000720FEF7F1FF062C70D098F829
:10264C000600882110230095C2000720FEF7E6FF44
:10265C00072C65D098F80700982110230095C2002C
:10266C000720FEF7DBFF082C5AD098F80800A821A9
:10267C0010230095C2000720FEF7D0FF092C4FD085
:10268C0098F80900B82110230095C2000720FEF726
:10269C00C5FF0A2C44D098F80A00C82110230095D5
:1026AC00C2000720FEF7BAFF0B2C39D098F80B00AC
:1026BC00D82110230095C2000720FEF7AFFF0C2C89
:1026CC002ED098F80C00E82110230095C2000720AA
:1026DC00FEF7A4FF0D2C23D098F80D00F821102341
:1026EC000095C2000720FEF799FF0E2C18D098F821
:1026FC000E004FF4847110230095C2000720FEF7E2
:10270C008DFF0F2C0CD098F80F004FF48C71102308
:10271C000095C2000720FEF781FF102C40F05F816E
:10272C000020C8F84C00FFF70EBBDDF8188047F608
:10273C009860002406210522072348F800404044F5
:10274C00C0E901444FF491700094FEF767FF4FF419
:10275C0094700621052207230094FEF75FFF4FF4C7
:10276C0097700621052207230094FEF757FF4FF4BC
:10277C009A700621052207230094FEF74FFF4FF4B1
:10278C009D700621052207230094FEF747FF4FF4A6
:10279C00A0700621052207230094FEF73FFF4FF49B
:1027AC00A3700621052207230094FEF737FF4FF490
:1027BC00A6700621052207230094FEF72FFF4FF485
:1027CC00A9700621052207230094FEF727FF4FF47A
:1027DC00AC700621052207230094FEF71FFF4FF46F
:1027EC00AF700621052207230094FEF717FF4FF464
:1027FC00B2700621052207230094FEF70FFF4FF459
:10280C00B5700621052207230094FEF707FF4FF44D
:10281C00B8700621052207230094FEF7FFFE4FF443
:10282C00BB700621052207230094FEF7F7FEA020BB
:10283C000E21782201230094FEF7F0FEDDF81090B3
:10284C00D9F80060772E0FD806F1A00509210122D6
:10285C00052328460094FEF7E1FE28460F210122AD
:10286C0005230094FEF7DAFED9F80400B04211D02B
:10287C0077280FD800F1A00509210122052328464D
:10288C000094FEF7CBFE28460F210122052300946D
:10289C00FEF7C4FE4FF0FF300021C9E9000040F202
:1028AC00C11001221E230094FEF7B8FE4FF4C57030
:1028BC000721102210230094FEF7B0FE4FF4D170C4
:1028CC00002101221E230094FEF7A8FE40F2A9105D
:1028DC000721102210230094FEF7A0FE40F2831073
:1028EC00002101221E230094FEF798FE4FF4E470A1
:1028FC000721102210230094FEF790FE059EFFF78F
:10290C0022BA44F2C8214046C0F60101FFF785F90E
:10291C0044F2EC414046C0F601010522FEF7F3FFFC
:10292C0044F2F1414046C0F601011D22FEF790FF32
:10293C0044F20E514046C0F601013222FEF788FFE8
:10294C00D8F84C0010283FBF002108F80010D8F828
:10295C004C0001303FBFC8F84C0044F24051C0F667
:10296C00010140463FBF1D2213B0BDE8000FBDE87A
:10297C00F04038BFFEF76CBF10210DF0CFFC44F2D5
:10298C0008714046C0F601010F22FEF7BCFF44F26D
:10299C0034714046C0F60101012213B0BDE8000FAE
:1029AC00BDE8F04000F016B944F2C4614046C0F6F0
:1029BC0001010B22FEF7A7FF44F200714046C0F65E
:1029CC000101022213B0BDE8000FBDE8F04000F099
:1029DC0001B90DF0A3FC4FF4C0610EF0ECF910201E
:1029EC0010210DF09BFCF0B503AF2DE9000B82B06C
:1029FC000B460246C16B806C884272D2082872D298
:102A0C00916BDBB251F820100E68716899426DD948
:102A1C00024492F8202091426BD9346800EB80007C
:102A2C00317A04EBC30304EBC206002975685B68BA
:102A3C0054F832604FF00C04A3EB05024FF0800306
:102A4C0018BFA3EBC5043B2303EBC008D200002A3C
:102A5C000ADD0023E8000093002918BF50424146CC
:102A6C0020441023FEF7DAFDBDB343F6E4393544B8
:102A7C00C0F601090DE043EA8112861C204641464E
:102A8C004FF6FF73CDF80090FDF7BEFD0444AE4247
:102A9C0023D0304616F9011BB1F1FF3FCAB2EDDC71
:102AAC00437802F01F01E02A03F03F03E3D386785A
:102ABC00F02A06F03F0646EA83130AD3C27801F0E7
:102ACC000701061D02F03F0242EA831242EA8142EC
:102ADC00D4E743EA0132C61CD0E702B0BDE8000BD4
:102AEC00F0BD0DF01BFC08210DF018FC18460DF084
:102AFC0015FC10460DF012FCF0B503AF2DE9000FDC
:102B0C0081B0C16B00295DD0D0F8388000F120066F
:102B1C004FEA81094B244FF0000A58F8040BA4F13A
:102B2C0022011023D0F800B08068CDF800A0C200BC
:102B3C000A20FEF773FDA4F112010A207822022369
:102B4C00CDF800A0FEF76AFDA4F110050A200222C0
:102B5C0010232946CDF800A0FEF760FD8020294601
:102B6C0002221023CDF800A0FEF758FD0A202146C2
:102B7C0078220223CDF800A0FEF750FD40F28B1016
:102B8C00844223D0DBF804103078814220D9DBF862
:102B9C00001010239BF8082001EBC000002A4FF016
:102BAC00800241684FF00C00CDF800A018BFA2EBDA
:102BBC00C100CA002946FEF731FD28340136B9F1AF
:102BCC000409AAD101B0BDE8000FF0BD082008210E
:102BDC000DF0A4FBF0B503AF2DE9000F8FB0064646
:102BEC000020B0640D46B06B1446B16344F2D8219A
:102BFC000590C0F601013046F263FFF70EF847F678
:102C0C008D6040F2240A43F208083044029005EB30
:102C1C0084000022C4F2000AC4F201084FF0070B32
:102C2C004FF00109CDE9030606F120000790069547
:102C3C0006E00B9A0398089D0132854200F0EA8267
:102C4C00DDE9051055F8043B8142089503D1029843
:102C5C000078022802D10799187B8854996802EBF6
:102C6C0082000A9300290B92099000F045810A9882
:102C7C002922099B4FF00A0C406802EBC3020D920B
:102C8C0001440C9102460EE040F618404FF480418E
:102C9C00C4F202000CF1080C01600E9A0C988242EE
:102CAC00104600F0298112F9011BB1F1FF3FCEB2A1
:102CBC001FDC427806F01F01E02E02F03F0211D318
:102CCC008378F02E03F03F0343EA82120ED3C378CD
:102CDC0001F0070103F03F0343EA821242EA814606
:102CEC00021D06E042EA8116821C02E042EA01362D
:102CFC00C21C0D9960460E92082210236446FDF703
:102D0C0083FD4FF60060B52ECFF6FF7000EB06107A
:102D1C0008BF4FF4C060202E38BF4FF4BE60B0F532
:102D2C00046F00F27B8243F2A4310023C0F6010150
:102D3C000A18C0F50461A44602E00133102BA3D09D
:102D4C00002602E00136082EF7D003EBD6008842AD
:102D5C0080F05E82105C2BEA0604DAF8005009FA67
:102D6C0004F42040DAF80040641B592C0ED8DAF831
:102D7C000040641B592C9EBFDAF80040641B592C90
:102D8C0004D8DAF80040641B5A2CEBD3D8F8005066
:102D9C00AD070CD4D8F80050AD075CBFD8F8005084
:102DAC005FEA857503D4D8F80050AD07EED500283E
:102DBC0018BFFF20C8F80400D8F80050ED070CD15C
:102DCC00D8F80050ED0704BFD8F800505FEAC5757D
:102DDC0003D1D8F80050ED07EED0D8F800502D06EE
:102DEC000CD5D8F800502D0644BFD8F800505FEA37
:102DFC00056503D5D8F800502D06EED4D8F804504C
:102E0C00DAF80050DAF80040641B592C0ED8DAF8C6
:102E1C000040641B592C9EBFDAF80040641B592CEF
:102E2C0004D8DAF80040641B5A2CEBD3DAF80050C3
:102E3C00DAF80040641B592C0ED8DAF80040641BF9
:102E4C00592C9EBFDAF80040641B592C04D8DAF8D0
:102E5C000040641B5A2CEBD3D8F80050AD070CD4AF
:102E6C00D8F80050AD075CBFD8F800505FEA857504
:102E7C0003D4D8F80050AD07EED5C8F80400D8F844
:102E8C000000C0070CD1D8F80000C00704BFD8F868
:102E9C0000005FEAC07003D1D8F80000C007EED084
:102EAC00D8F8000000060CD5D8F80000000644BF86
:102EBC00D8F800005FEA006003D5D8F800000006DF
:102ECC00EED4D8F80400DAF80000DAF800502D1A25
:102EDC00592D3FF637AFDAF800502D1A592D9EBFF9
:102EEC00DAF800502D1A592D3FF62CAFDAF80050B5
:102EFC002D1A5A2DE9D325E709980B9EC500049885
:102F0C0005F13901806C864224D140F21F440A201D
:102F1C00782202230094FEF781FB009405F13B0418
:102F2C000A20022221461023FEF778FB40F21F40B4
:102F3C0021460090802002221023FEF76FFB40F206
:102F4C001F4005F14B0100900A2078220223FEF766
:102F5C0065FB04E0084678211422FEF71CFC0A9855
:102F6C00026807985168805D814240F25181136874
:102F7C0003EBC001496800293FF45BAE53F8300005
:102F8C004FF00C0C127A4318002A4FF080020C936D
:102F9C0005F13B030D9318BFA2EBC10C02460EE0EA
:102FAC0040F618404FF48041C4F202000CF1080CBA
:102FBC0001600E9A0C98824210463FF43AAE12F918
:102FCC00011BB1F1FF3FCEB21FDC427806F01F01AE
:102FDC00E02E02F03F0211D38378F02E03F03F0372
:102FEC0043EA82120ED3C37801F0070103F03F03CA
:102FFC0043EA821242EA8146021D06E042EA811649
:10300C00821C02E042EA0136C21C0D9960460E9207
:10301C00082210236446FDF7F7FB4FF60060B52E2F
:10302C00CFF6FF7000EB061008BF4FF4C060202EE7
:10303C0038BF4FF4BE60B0F5046F00F2EF8043F27E
:10304C00A4310023C0F601010A18C0F50461A4469E
:10305C0002E00133102BA3D0002602E00136082E2B
:10306C00F7D003EBD600884280F0D280105C2BEABC
:10307C000604DAF8005009FA04F42040DAF80040AB
:10308C00641B592C0ED8DAF80040641B592C9EBFD7
:10309C00DAF80040641B592C04D8DAF80040641BA1
:1030AC005A2CEBD3D8F80050AD070CD4D8F80050FC
:1030BC00AD075CBFD8F800505FEA857503D4D8F82B
:1030CC000050AD07EED5002818BFFF20C8F804004B
:1030DC00D8F80050ED070CD1D8F80050ED0704BF1C
:1030EC00D8F800505FEAC57503D1D8F80050ED0749
:1030FC00EED0D8F800502D060CD5D8F800502D067F
:10310C0044BFD8F800505FEA056503D5D8F80050E5
:10311C002D06EED4D8F80450DAF80050DAF8004056
:10312C00641B592C0ED8DAF80040641B592C9EBF36
:10313C00DAF80040641B592C04D8DAF80040641B00
:10314C005A2CEBD3DAF80050DAF80040641B592CF7
:10315C000ED8DAF80040641B592C9EBFDAF80040F8
:10316C00641B592C04D8DAF80040641B5A2CEBD39E
:10317C00D8F80050AD070CD4D8F80050AD075CBFA0
:10318C00D8F800505FEA857503D4D8F80050AD0725
:10319C00EED5C8F80400D8F80000C0070CD1D8F858
:1031AC000000C00704BFD8F800005FEAC07003D16C
:1031BC00D8F80000C007EED0D8F8000000060CD5F7
:1031CC00D8F80000000644BFD8F800005FEA0060A1
:1031DC0003D5D8F800000006EED4D8F80400DAF8CD
:1031EC000000DAF800502D1A592D3FF637AFDAF8F7
:1031FC0000502D1A592D9EBFDAF800502D1A592D5A
:10320C003FF62CAFDAF800502D1A5A2DE9D325E7EA
:10321C000DF084F80FB0BDE8000FF0BD4FF4046161
:10322C000DF0C9FDF0B503AF2DE9000782B04FF0EA
:10323C00FF3252FA81F1052942D8DFE801F0035838
:10324C00459441AE856C4FF0390AC46B804614220C
:10325C0005EB85010AEBC10108467821FEF79BFAC4
:10326C0040F21F49002DCDF8009018BF2C46661E69
:10327C000A207822022306EB86050AEBC501FEF72D
:10328C00CDF93B2000EBC5040A2002222146102375
:10329C00CDF80090FEF7C2F98020214602221023BF
:1032AC00CDF80090FEF7BAF94B2000EBC5010A20CF
:1032BC0078220223CDF80090FEF7B0F9C8F84860E8
:1032CC0002B0BDE80007F0BD826C072A6DD8C16B57
:1032DC008A426ED2866B00F12003995C56F822600C
:1032EC0000293668367918BF0E46013E4DE0C16B99
:1032FC004FF03908826C0139541A4FF0780118BF1D
:10330C00541C846402EB8200142208EBC000FEF70C
:10331C0042FA04EB840640F21F450A20782208EB9F
:10332C00C60102230095FEF779F93B2000EBC60499
:10333C000A200222214610230095FEF76FF9802007
:10334C002146022210230095FEF768F94B2000EB72
:10335C00C6010A20782202230095FEF75FF902B01D
:10336C00BDE80007F0BD826C072A1ED8C16B8A42EB
:10337C001FD2866B00F12003995C56F822603668E8
:10338C007668013E761A18BF4E1C9E5402B0BDE8FA
:10339C000007BDE8F040FFF726BB002102B0BDE8F6
:1033AC000007BDE8F040FEF7B5BC104608210CF054
:1033BC00B5FF10460CF0B2FFF0B503AF2DE9000FCE
:1033CC0091B044F2705B44F2602A049147F6786144
:1033DC0003900844029008A80025C826C0F6010BEB
:1033EC00C0F6010A011D0230069107900BE005465C
:1033FC003046C8214FF4FC63CDF800A0FDF704F96A
:10340C0006440A2D2DD01BF90510681CB1F1FF3FA5
:10341C00CAB2ECDC1BF80000AB1CE02A00F03F0148
:10342C0002F01F0015D31BF80330F02A03F03F0302
:10343C0043EA811105F103030FD31BF8032000F0BD
:10344C000700043502F03F0242EA811141EA804252
:10345C00CEE741EA80121D46CAE741EA00321D461A
:10346C00C6E70398049AD0E9080192F8119000225B
:10347C00CDE90C20A9F102000E91CDE90A22C1B2CE
:10348C00052908A9CDE9082228BF022001F11C0654
:10349C00C0B24B1DCC1C01F10108DFE810F0650235
:1034AC000500630092003700049801254FF00009D5
:1034BC008DF8205047F8209C006807F8210C0593E4
:1034CC00C10900F0CC8040F0800207F8212C820B5F
:1034DC0007F8201C00F0B28041F0800107F8201C96
:1034EC00410D07F81F2C00F0B280000F42F0800253
:1034FC0007F81E1C07F81F2C00F0B080052507F8F4
:10350C001D0C41F0800007F81E0CA8E00498042163
:10351C008DF82010002147F8201C006807F8210CBA
:10352C00C1097DD040F0800207F8212C820B07F8EE
:10353C00201C7CD041F0800107F8201C410D07F8BD
:10354C001F2C7DD0000F42F0800207F81E1C07F8DC
:10355C001F2C7ED0052207F81D0C41F0800007F8C7
:10356C001E0C77E00498022100268DF8201047F8F5
:10357C00206C006807F8210C0593C109019451D007
:10358C0040F0800207F8212C820B07F8201C50D049
:10359C0041F0800107F8201C410D07F81F2C51D079
:1035AC00000F42F0800207F81E1C07F81F2C00F0D9
:1035BC009280052507F81D0C41F0800007F81E0CC1
:1035CC008AE0049803218DF820100021D0E900092D
:1035DC0047F8201C07F8210CC10925D040F08002C7
:1035EC0007F8212C820B07F8201C24D041F0800115
:1035FC0007F8201C410D07F81F2C25D00024000FC4
:10360C0042F0800207F81E1C07F81F2C00F09C806B
:10361C00052507F81D0C41F0800007F81E0C94E0FE
:10362C00012217E0012557E0002401258DE002223C
:10363C0010E0022550E00024022586E002250EE071
:10364C00032207E0032547E0002403257DE0032542
:10365C0005E00422A7F121014046F3E00425A7F17F
:10366C00210140462A460EF031FD0498013547F8F9
:10367C00209C416808A8284407F8211CCA0921D0BD
:10368C0041F0800307F8213C8B0B07F8202C1BD052
:10369C0042F0800207F8202C4A0D07F81F3C17D087
:1036AC00090F43F0800307F81E2C07F81F3C7BD052
:1036BC00DDF8148007F81D1C42F08001052207F884
:1036CC001E1C74E0012272E00222DDF81C806EE008
:1036DC000322A0466BE00425A7F1210140462A46AF
:1036EC000EF0F4FC049847F8206C6E1C416808A896
:1036FC00304407F8211CCA0920D041F0800307F898
:10370C00213C8B0B07F8202C1AD042F0800207F8D2
:10371C00202C4A0D07F81F3C14D0090F43F08003EE
:10372C0007F81E2C07F81F3C00F09580052507F8BC
:10373C001D1C42F0800107F81E1C8DE001258BE05A
:10374C00022589E0032587E00425A7F121014046E5
:10375C002A460EF0BBFC08EB05005FEAD91107F80E
:10376C00219C47F8204C5DD049F0800207F8212CB1
:10377C005FEA993207F8201C59D041F0800107F814
:10378C00201C5FEA595107F81F2C55D042F08002DB
:10379C0007F81F2C5FEA197207F81E1C55D007F8A2
:1037AC001D2C41F0800136E00422DDF81880A7F1D1
:1037BC0021010EF08BFC049A107B9168053808F8F7
:1037CC00050008EB0500B2F80D20A0F8012000223E
:1037DC00033047F8202CCA0907F8211C22D041F0ED
:1037EC00800307F8213C8B0B07F8202C1FD042F0EC
:1037FC00800207F8202C4A0D07F81F3C1CD0090F3B
:10380C0043F0800307F81E2C07F81F3C1DD007F867
:10381C001D1C42F08001052207F81E1C311A8A4239
:10382C000ED916E00122311A8A4209D911E002227E
:10383C00311A8A4204D90CE00322311A8A4208D880
:10384C00A7F121010EF042FC8EE00422311A8A42CB
:10385C00F6D90DF052FC0425A7F121012A460EF0F1
:10386C0035FC04982E448168002047F8200C08A8E9
:10387C00304407F8211CCA0922D041F0800307F814
:10388C00213C8B0B07F8202C1FD042F0800207F84C
:10389C00202C44464A0D07F81F3C1BD04FF0000863
:1038AC00090F43F0800307F81E2C07F81F3C15D0B6
:1038BC00052507F81D1C42F0800107F81E1C0EE0C0
:1038CC0044464FF00008012509E044464FF000083B
:1038DC00022504E04FF00008032500E00425A7F1C1
:1038EC0021012A460EF0F2FB0498354447F8208C4F
:1038FC00C16808A8284407F8211CCA0920D041F047
:10390C00800307F8213C8B0B07F8202C1AD042F0CF
:10391C00800207F8202C4A0D07F81F3C15D0090F20
:10392C0043F0800307F81E2C07F81F3C10D0059CB1
:10393C0007F81D1C42F08001052207F81E1C09E047
:10394C00012207E00222079C04E00322019C01E013
:10395C000422069CA7F121010EF0B8FB0498007C10
:10396C006055601980F8019043F6104040F2231125
:10397C0048F6AB12C4F20200C4F26751CCF6EF5217
:10398C0040F80C1C40F80C2C0368B3F1FF3F40F3DB
:10399C00FC83039B4FF60445CFF6FE751B7E066831
:1039AC000C2B06EA05064FF0200505EBC30538BFC6
:1039BC00DD00EBB2334443F4803343F00203036085
:1039CC0050F8043CDB030CD550F8043CDB0344BF3B
:1039DC0050F8043C5FEAC33303D550F8043CDB03D6
:1039EC00EED450F8043C036843F00043036040F805
:1039FC000C1C40F80C2C0168B1F1FF3F40F3C5835F
:103A0C00012106910399D1F810E00021079105E0FE
:103A1C0050F8041C11F0F20F40F09E80069900291A
:103A2C0000F09680016840F203320EF00F030EF1A5
:103A3C0000649143C3F1100201310160079E08A993
:103A4C00069283F00F023144C3F10E0AC3F10D0844
:103A5C000023CDF814E0079D05EB030BBBF11C0F05
:103A6C002DD0CD5C9A42E55430D0BBF11B0534D03F
:103A7C0001EB030C04EB03099A459CF8015089F8FF
:103A8C0001502FD0BBF11A0530D09CF8025098454C
:103A9C0089F8025032D0BBF1190536D09CF803508E
:103AAC000EF1040E89F803500436069D04339D4232
:103ABC00D1D1DDF814E007999E4419442BE0DDF8D0
:103ACC0014E01C21CDE906319E4425E0711C0791C0
:103ADC000599194401F1010E1EE00EF1010E43F09F
:103AEC00010116E0B11C0EF1020E14E043F00201CC
:103AFC0006910599194401F1020E0BE0F11C079196
:103B0C000599194401F1030E06E00EF1030E43F082
:103B1C00030106911C21079144F2705B44F2602A68
:103B2C00C0F6010BC0F6010A50F8041CC9037FF55E
:103B3C006FAF50F8041CC90344BF50F8041C5FEA73
:103B4C00C1317FF565AF50F8041CC903ECD45FE7B5
:103B5C00016821F001010160016841F00041016040
:103B6C00039947F67C60049C0844019094E86E002D
:103B7C006EC00026C8250AE006462846C821002348
:103B8C00CDF800A0FCF740FD05440A2E2DD01BF902
:103B9C000610701CB1F1FF3FCAB2EDDC1BF800003F
:103BAC00B31CE02A00F03F0102F01F0015D31BF8F4
:103BBC000330F02A03F03F0343EA811106F10303BB
:103BCC000FD31BF8032000F00700043602F03F026D
:103BDC0042EA811141EA8042CFE741EA80121E4657
:103BEC00CBE741EA00321E46C7E7242543F208081A
:103BFC0044F25D534FF0010BC4F20005C4F201080E
:103C0C00C0F601034FF007094FF0000A012103E051
:103C1C000499042900F0878201EB8100C8244042FA
:103C2C0000260131049104EB4000059010E040F6B1
:103C3C0018404FF48041C4F2020044F25D5301601D
:103C4C00C0F60103079C069E0834132E00F0288151
:103C5C009957701CB1F1FF3F5FFA81FC02DD0690B1
:103C6C00664625E0185CB21CBCF1E00F00F03F0189
:103C7C000CF01F0016D39A5CBCF1F00F02F03F025F
:103C8C0042EA811106F103020FD39A5C00F007009F
:103C9C000436069602F03F0242EA811141EA804066
:103CAC00064605E041EA801601E041EA003606923C
:103CBC0005992046082210230794FCF7A5FD4FF622
:103CCC000060B52ECFF6FF7000EB061008BF4FF466
:103CDC00C060202E38BF4FF4BE60B0F5C06F00F24C
:103CEC001E8243F65F410023C0F6010101EB000C7C
:103CFC00C0F5C06102E00133102B98D0002602E021
:103D0C000136082EF7D003EBD600884280F00582EE
:103D1C001CF8000029EA06022C680BFA02F210408B
:103D2C002A68121B592A0BD82A68121B592A9EBFC3
:103D3C002A68121B592A03D82A68121B5A2AEFD355
:103D4C00D8F8002092070CD4D8F8002092075CBF5A
:103D5C00D8F800205FEA827203D4D8F800209207CA
:103D6C00EED50246002818BF4FF4E0624FEA12224B
:103D7C00C8F8042018BF4FF4FC60D8F80020D20714
:103D8C000CD1D8F80020D20704BFD8F800205FEA85
:103D9C00C27203D1D8F80020D207EED0D8F8002098
:103DAC0012060CD5D8F80020120644BFD8F8002013
:103DBC005FEA026203D5D8F800201206EED4D8F8D8
:103DCC0004202C682A68121B592A0BD82A68121B4B
:103DDC00592A9EBF2A68121B592A03D82A68121B1B
:103DEC005A2AEFD32C682A68121B592A0BD82A6836
:103DFC00121B592A9EBF2A68121B592A03D82A68FB
:103E0C00121B5A2AEFD3D8F8002092070CD4D8F8FA
:103E1C00002092075CBFD8F800205FEA827203D4BE
:103E2C00D8F800209207EED500F0E000C8F80400A6
:103E3C00D8F80000C0070CD1D8F80000C00704BFA8
:103E4C00D8F800005FEAC07003D1D8F80000C007B2
:103E5C00EED0D8F8000000060CD5D8F8000000060B
:103E6C0044BFD8F800005FEA006003D5D8F8000022
:103E7C000006EED4D8F8040028682A68121A592AC9
:103E8C003FF63EAF2A68121A592A9EBF2A68121AA8
:103E9C00592A3FF635AF2A68121A5A2AEDD32FE762
:103EAC0028684BF6A032C0F20D022968091A91421B
:103EBC000BD22968091A91423EBF2968091A91420E
:103ECC0003D22968091A9142EFD34FF0000C4FF03E
:103EDC00C80E10E040F6184044F25D530EF1080E87
:103EEC00C4F202004FF48041BCF1130FC0F6010381
:103EFC0001603FF48DAE13F90C100CF10100B1F11F
:103F0C00FF3FCCB201DD079025E0185C0CF10202FA
:103F1C00E02C00F03F0104F01F0016D39A5CF02C4B
:103F2C0002F03F0242EA81110CF1030210D39A5CB9
:103F3C0000F007000CF1040CCDF81CC002F03F029D
:103F4C0042EA811141EA804405E041EA801401E033
:103F5C0041EA0034079205997046082210237646F0
:103F6C00FCF752FC4FF60060B52CCFF6FF7000EB5F
:103F7C00041008BF4FF4C060202C38BF4FF4BE6053
:103F8C00B0F5C06F00F2CB80DDF81CC0C0F5C0618D
:103F9C000022B64602E00132102A9BD0002302E038
:103FAC000133082BF7D002EBD300884280F0B580A8
:103FBC0028682C68241A592C0BD82C68241A592CD4
:103FCC009EBF2C68241A592C03D82C68241A5A2CFE
:103FDC00EFD3D8F8000080070CD4D8F80000800785
:103FEC005CBFD8F800005FEA807003D4D8F80000FA
:103FFC008007EED5C8F804A0D8F80000C0070CD193
:10400C00D8F80000C00704BFD8F800005FEAC07001
:10401C0003D1D8F80000C007EED0D8F80000000695
:10402C000CD5D8F80000000644BFD8F800005FEAB1
:10403C00006003D5D8F800000006EED4D8F80400D0
:10404C0028682C68241A592C0BD82C68241A592C43
:10405C009EBF2C68241A592C03D82C68241A5A2C6D
:10406C00EFD328682C68241A592C0BD82C68241AE6
:10407C00592C9EBF2C68241A592C03D82C68241A4E
:10408C005A2CEFD3D8F8000080070CD4D8F80000D5
:10409C0080075CBFD8F800005FEA807003D4D8F8C2
:1040AC0000008007EED5C8F804A0D8F80000C007BF
:1040BC000CD1D8F80000C00704BFD8F800005FEAA4
:1040CC00C07003D1D8F80000C007EED0D8F80000BB
:1040DC0000060CD5D8F80000000644BFD8F8000044
:1040EC005FEA006003D5D8F800000006EED4D8F8DB
:1040FC00040028682C68241A592C3FF651AF2C6800
:10410C00241A592C9EBF2C68241A592C3FF648AF00
:10411C002C68241A5A2CEDD342E70CF0FFF84FF41C
:10412C00C0610CF048FE029A0021507D11600238EB
:10413C00C1B2052928BF0220C1B2039A43F258002C
:10414C00024444F2FC70C0F60100DFE801F01611E5
:10415C00030D080044F61400C0F6010008E044F614
:10416C004400C0F6010003E044F62C00C0F6010048
:10417C000399C36801985031984703980021FDF7C3
:10418C00C9FD11B0BDE8000FF0BD31200CF0D9FC19
:10419C00F0B503AF2DE9000F83B0242643F20804D9
:1041AC0044F27A5C4FF0000BC4F20006C4F2010436
:1041BC00C0F6010C4FF0070A4FF00108002003E095
:1041CC000198032800F0578200234FF0C8090130F2
:1041DC00019010E040F618404FF48041C4F2020008
:1041EC0044F27A5C016009F10809029BC0F6010CEB
:1041FC000D2B00F005811CF90310581CB1F1FF3F89
:10420C00CDB201DD029025E01CF800009A1CE02DD7
:10421C0000F03F0105F01F0016D31CF80220F02D12
:10422C0002F03F0242EA811103F103020FD31CF8A2
:10423C00022000F007000433029302F03F0242EA2E
:10424C00811141EA804505E041EA801501E041EA2F
:10425C00003502924846C82108221023FCF7D4FAF4
:10426C004FF60060B52DCFF6FF7000EB051008BFC0
:10427C004FF4C060202D38BF4FF4BE60B0F5C06F56
:10428C0000F2F58143F65F414FF0000EC0F60101DC
:10429C0001EB000CC0F5C06104E00EF1010EBEF1A3
:1042AC00100F97D0002502E00135082DF5D00EEB4C
:1042BC00D500884280F0D9811CF800002AEA050359
:1042CC00326808FA03F3184033689B1A592B0BD841
:1042DC0033689B1A592B9EBF33689B1A592B03D8F2
:1042EC0033689B1A5A2BEFD32268920709D42268A1
:1042FC0092075CBF22685FEA827202D4226892073E
:10430C00F2D5002818BFF82060602068C00709D1DA
:10431C002068C00704BF20685FEAC07002D1206823
:10432C00C007F2D02068000609D52068000644BFFB
:10433C0020685FEA006002D520680006F2D460684D
:10434C0030683268121A592A0BD83268121A592A54
:10435C009EBF3268121A592A03D83268121A5A2A86
:10436C00EFD330683268121A592A0BD83268121AF5
:10437C00592A9EBF3268121A592A03D83268121A67
:10438C005A2AEFD32068800709D4206880075CBFC5
:10439C0020685FEA807002D420688007F2D5C4F8E8
:1043AC0004B02068C00709D12068C00704BF20688A
:1043BC005FEAC07002D12068C007F2D02068000606
:1043CC0009D52068000644BF20685FEA006002D56A
:1043DC0020680006F2D4606830683268121A592AD4
:1043EC003FF662AF3268121A592A9EBF3268121A0F
:1043FC00592A3FF659AF3268121A5A2AEDD353E7AD
:10440C0030684AF68002C0F212123168091A9142E1
:10441C000BD23168091A91423EBF3168091A914298
:10442C0003D23168091A9142EFD300234FF0C80927
:10443C000CE040F618404FF48041C4F2020009F140
:10444C0008090160029B0D2B00F0F7801CF903108A
:10445C00581CB1F1FF3FCDB201DD029025E01CF8F4
:10446C0000009A1CE02D00F03F0105F01F0016D350
:10447C001CF80220F02D02F03F0242EA811103F1F8
:10448C0003020FD31CF8022000F007000433029340
:10449C0002F03F0242EA811141EA804505E041EA1F
:1044AC00801501E041EA003502924846C8210822F5
:1044BC001023FCF7A9F94FF60060B52DCFF6FF706D
:1044CC0000EB051008BF4FF4C060202D38BF4FF42F
:1044DC00BE60B0F5C06F00F2CA8044F27A5CC0F5E1
:1044EC00C0610022C0F6010C02E00132102AA0D0FB
:1044FC00002302E00133082BF7D002EBD3008842F3
:10450C0080F0B380306835682D1A592D0BD835687A
:10451C002D1A592D9EBF35682D1A592D03D8356883
:10452C002D1A5A2DEFD32068800709D420688007F4
:10453C005CBF20685FEA807002D420688007F2D5E7
:10454C00C4F804B02068C00709D12068C00704BFB4
:10455C0020685FEAC07002D12068C007F2D02068E2
:10456C00000609D52068000644BF20685FEA006099
:10457C0002D520680006F2D46068306835682D1AC0
:10458C00592D0BD835682D1A592D9EBF35682D1A0B
:10459C00592D03D835682D1A5A2DEFD3306835684C
:1045AC002D1A592D0BD835682D1A592D9EBF3568EB
:1045BC002D1A592D03D835682D1A5A2DEFD3206892
:1045CC00800709D4206880075CBF20685FEA807090
:1045DC0002D420688007F2D5C4F804B02068C00764
:1045EC0009D12068C00704BF20685FEAC07002D1FF
:1045FC002068C007F2D02068000609D520680006A4
:10460C0044BF20685FEA006002D520680006F2D43F
:10461C006068306835682D1A592D3FF66BAF3568D8
:10462C002D1A592D9EBF35682D1A592D3FF662AFA4
:10463C0035682D1A5A2DEDD35CE730684AF68002A6
:10464C00C0F212123168091A9142BFF4B9AD316847
:10465C00091A91423EBF3168091A9142BFF4B0ADBC
:10466C003168091A9142EDD3AAE50BF057FE4FF4CD
:10467C00C0610CF0A0FB03B0BDE8000FF0BDF0B5BD
:10468C0003AF4DF8048DA0B000211022142806921F
:10469C0001AACDE90311CDE901110791059200F2B0
:1046AC009D8014AB0C9340F2472344F6C436C0F6FD
:1046BC000003C0F60106119312AB109340F6C543EC
:1046CC00C0F6010302220F9344F23873C0F60103C3
:1046DC0003EBC0000E90037944F6D030C0F6010015
:1046EC000D92099250F8230056F82330ADF8702043
:1046FC00ADF86820CDE9123044F2E470C0F6010048
:10470C00ADF8502008902020CAF6000000F160534C
:10471C00CDE918104FF4403016900EA843F27431C6
:10472C000B920A9005A808AA1F930123C0F6010159
:10473C001E930CF00AFA00284BD1DDE906128A42CE
:10474C0049D8059914A80CF090FB1498012840D076
:10475C001698D0B3159E43F6E4381A24C0F6010817
:10476C0035180EE043EA8112861C20464FF49571F1
:10477C004FF6FF73CDF80080FBF746FF0444AE42C2
:10478C0023D0304616F9011BB1F1FF3FCAB2ECDC65
:10479C00437802F01F01E02A03F03F03E2D386784E
:1047AC00F02A06F03F0646EA83130AD3C27801F0DA
:1047BC000701061D02F03F0242EA831242EA8142DF
:1047CC00D3E743EA0132C61CCFE720B05DF8048B77
:1047DC00F0BD0CF092FC10460CF0EDFA15210BF02C
:1047EC009DFDD4D4F0B503AF2DE9000F81B02DEDB4
:1047FC000A8BBCB0044641F2D8302058002800F097
:10480C007E8442F63010211847F67860261841F263
:10481C006A7005912044D1E9005840F28E310EF0B7
:10482C008DF841F6BF4040F2C71120440EF086F8D7
:10483C0042F2142040F28E3120440EF013F942F271
:10484C00697040F2C71120440EF078F841F686608A
:10485C0036682044079041F2DC30002E2044069448
:10486C00099000F0EC83069943F2580008440C9030
:10487C0028460EF0CBF8044640460D460EF0C6F81E
:10488C00721E2B46B2F57A7F28BF4FF47A72013232
:10489C00B6F57A7F88BF4FF47A720A922246119449
:1048AC0010950EF037F89FEDAF8B9FEDB09B9FED01
:1048BC00B1BB0B9001200F91002107E00E990A98D3
:1048CC008142084638BF013080F0B9830E90C80889
:1048DC007C2800F2898501EB81000C990DF1680BA5
:1048EC0011F8202001EB80004168129181680D9134
:1048FC00D0E9034140781891402113905846199201
:10490C000EF0B0F820460EF081F8DDE910320EF012
:10491C0001F853EC182BCDE916230DF0DDFB0B9EA3
:10492C000F9B32460EF01DF955EC19AB52462B4637
:10493C000DF025FEB0EE491AF0EE691A41EC100BA1
:10494C000EF0E8FAB0EE481AF0EE681A0DF0BEFD63
:10495C0054EC109B00202C904020CDE92AB0484606
:10496C0021460EF0D6F883464846214652462B4641
:10497C00CDF850A015950DF039FD804618980EF025
:10498C0045F8DDE910320DF0C5FFDDE916230DF019
:10499C00A3FB0F9B32460EF0E4F852462B460DF06B
:1049AC00EEFD5AEC1B6BB8F1000F41EC1A0B4846AC
:1049BC00214608BFC346324653460DF051FDB0EEBA
:1049CC004A0A0028B0EE491A18BF4FF0FF3BF0EE30
:1049DC006A0AF0EE691A0EF09DFAB0EE481AF0EE83
:1049EC00681A0DF073FD54EC105B284621460EF04E
:1049FC0090F8DDE914238146284621460DF0F6FC9B
:104A0C00002808BF814628462146324653460DF001
:104A1C0027FD002818BF4FF0FF39CDF85CB0199A6C
:104A2C00A9EB0B040121DFE802F037063F060B5B14
:104A3C006748A920720013992AA802F02FF9BEE04A
:104A4C001398379100F001008DF8D00000203991B7
:104A5C003A9044F6AC30C0F6010036902EA838904F
:104A6C0041F21710C0F601009BE0002037913A90FC
:104A7C0044F6AC30C0F60100399136902EA838902F
:104A8C0041F26930C0F601002F9034A82E90139893
:104A9C0000F00100349087E044F22050C7F26D0022
:104AAC001A9047F6741022E013992AA802F0F6F82F
:104ABC00DDF81CB03026012085E013988DF8D0006D
:104ACC0000203A9044F6BC30C0F601003791369085
:104ADC002EA8389041F249103991C0F6010060E0DF
:104AEC0045F22030C6F274101A9047F27240ADF8BD
:104AFC006C0006202C9062E045F22030C6F67470F3
:104B0C001A9070208DF86C0005202C9057E01298AC
:104B1C002EAA2D9036A8329044F6AC30C0F6010087
:104B2C0033912E9041F2BB20C0F601002F913590AD
:104B3C002DA8349034A830902020CEF6001031915E
:104B4C003B9000203A904FF4802043F2743138901F
:104B5C000220C0F60101ADF8D8002AA82AE000BF57
:104B6C0000BF00BF0000000000607C40000000009F
:104B7C00000000000000E0FFFFFFEF410D983590B2
:104B8C001298349000203A9044F6AC30C0F60100F4
:104B9C00379136902EA8389040F247203991C0F6C4
:104BAC0000002F9034A82E9043F274312AA836AA14
:104BBC00C0F601010BF0C9FF002840F0E08320266D
:104BCC000020DDF824B0DDE92B18884500F2D983EC
:104BDC00DDF8A8A04246129036A851460CF045F9D3
:104BEC003698012800F0CB83389800EBC000844243
:104BFC0060D2179881457FF661AE179B40F2C710C3
:104C0C000BEB0302B3F5E47F28BF1846C11A0BEB7C
:104C1C00430302F6E60203F56573002900F0D68320
:104C2C004FF6FF7523F8065C12F8035C05F00F05D0
:104C3C00354302F8035C179D01354D453FF43EAEFC
:104C4C00854200F0C3834FF6FF7523F8045C12F81D
:104C5C00025C05F00F05354302F8025C179D023526
:104C6C004D453FF42BAE854200F0B0834FF6FF75F7
:104C7C0023F8025C12F8015C05F00F05354302F8CD
:104C8C00015C179D03354D453FF418AE854200F08D
:104C9C009D834FF6FF75043923F8085B157805F0F2
:104CAC000F05354302F8045B179D043517954D45E8
:104CBC00B3D103E61798814554D9179D40F2C7101C
:104CCC000BEB0502B5F5E47F0BEB450328BF28463B
:104CDC00411B02F6E60203F56573002900F07683AA
:104CEC004FF6FF7423F8064C12F8034C04F00F0433
:104CFC00344302F8034C6C1C4C4533D0844200F016
:104D0C0065834FF6FF7423F8044C12F8024C04F040
:104D1C000F04344302F8024CAC1C4C4522D08442A4
:104D2C0000F054834FF6FF7423F8024C12F8014C38
:104D3C0004F00F04344302F8014CEC1C4C4511D028
:104D4C00844200F043834FF6FF74043523F8084B7C
:104D5C00043914784D4504F00F0444EA060402F8B3
:104D6C00044BBAD136A8514642460CF07EF8369820
:104D7C00012800F00483389900293FF49FAD37983F
:104D8C000BF28E330BF6E30ECDF850E00144139189
:104D9C00064607E0159E0831139817918642304657
:104DAC003FF48CAD16F9012BB2F1FF3FD1B21FDCF1
:104DBC00467801F01F02E02906F03F0611D38578F2
:104DCC00F02905F03F0545EA86160ED3C17802F0AE
:104DDC00070201F03F0141EA8611061D41EA8241BA
:104DEC0006E046EA8211861C02E046EA0231C61C45
:104DFC000C01B52908BF4FF40064202938BF4FF4CB
:104E0C00FE64A4F50070B0F5C06F00F2BD8243F6ED
:104E1C005F411596C0F60101084418904FF0000E42
:104E2C001798C11D00F1060C451D061DC21C00F192
:104E3C00020A00F1010B0846C4F500611991012129
:104E4C00169005E00EF1010EBEF1100F00F09280ED
:104E5C00199C744500F0A18201FA0EF46FEA040962
:104E6C00189C14F90E40B4F1FF3F17DD5FFA84F87B
:104E7C005FEA486424D45FEA88642ED45FEAC8648D
:104E8C0038D45FEA087442D45FEA48744CD45FEAC1
:104E9C00887456D45FEAC874D4D060E01798B0F523
:104EAC00E37F00F2938233F8101001EA090123F832
:104EBC001010012116985FFA84F85FEA4864DAD57D
:104ECC00BBF5E37F00F2818233F81B4004EA09044E
:104EDC0023F81B405FEA8864D0D5BAF5E37F00F273
:104EEC006F8233F81A4004EA090423F81A405FEA87
:104EFC00C864C6D5B2F5E37F00F26C8233F8124079
:104F0C0004EA090423F812405FEA0874BCD5B6F52C
:104F1C00E37F00F2468233F8164004EA090423F8D2
:104F2C0016405FEA4874B2D5B5F5E37F00F23E82D5
:104F3C0033F8154004EA090423F815405FEA887435
:104F4C00A8D5BCF5E37F00F2368233F81C4004EAA6
:104F5C00090423F81C405FEAC8743FF473AFB0F542
:104F6C00E37F00F2338233F8104004EA090423F89B
:104F7C00104067E71799DDF850E011F1090F3FF683
:104F8C0009AFB1F5E37F55D80C461EF80110129805
:104F9C0001F0F00101440EF8041040F2C7118B45EA
:104FAC0048D01EF80B408A4504F0F00404440EF877
:104FBC000B401FBF1EF80A1001F0F00101440EF85F
:104FCC000A101CBF40F2C7118A4233D01EF80240AF
:104FDC008E4204F0F00404440EF802401FBF1EF889
:104FEC00061001F0F00101440EF806101CBF40F24F
:104FFC00C7118D421ED01EF805208C4502F0F00220
:10500C0002440EF805201FBF1EF80C1001F0F00131
:10501C0001440EF80C101EBF40F2C711169A8A42BA
:10502C0008D01EF8021001F0F00101440EF8021035
:10503C001799AFE6084640F2C7110BF06FF9DDF88F
:10504C00189041F2D830212109EB000409F15000ED
:10505C000890099801F008FD0798322101F004FD31
:10506C002168059C0139199120684FD4199B0022A5
:10507C0000210491991801EBD1714910CE087C2EB6
:10508C0000F2AD81089E56F821608642049E98BFBE
:10509C000E46049694BF4A1C4B1E9A42EADD646885
:1050AC000022199D1999114401EBD1714910CB08BB
:1050BC007C2B00F29481089B53F82130A3422CBF27
:1050CC000D464A1C199B28BF4B1E9A421993E9DDC9
:1050DC000DF09CFC804620460E460DF097FC42F6E7
:1050EC003C1233464A440192424646EC1A8B0DF070
:1050FC0011FC049AAA4222D9019801F0B4FF3CB0E9
:10510C00BDEC0A8B01B0BDE8000FF0BD0DF07EFCCC
:10511C00064660680D4641EC1A6B0DF077FC324682
:10512C002B460DF0F7FB42F63C1241EC1B0B4A44AC
:10513C000020019209F57F620292049006E041EC96
:10514C001B0B4A4402F57F600290199542F63C1005
:10515C004946814401F57F609FEDA68B9FEDA79B8F
:10516C009FEDA8CB0790002002E003980828C3D03D
:10517C0002460898DDF810A0069250F82A3050002C
:10518C00059002980678501C0390504619998A4550
:10519C0038BF0130BAF57A7F80F0FA800D9018464E
:1051AC0009960DF033FC53EC1A2BCDE917230DF0B7
:1051BC00B1FB53EC182BCDE915230CF08DFF53EC00
:1051CC001B2BCDE913230DF0CCFC58EC19BB5A4624
:1051DC0043460DF0D4F9B0EE491AF0EE691A41ECE1
:1051EC00100B0DF097FEB0EE481AF0EE681A0DF0A9
:1051FC006DF956EC105B079810F80A000A9011959F
:10520C001296284631460DF084FC04462846314659
:10521C005A464346CDF838B0CDF83C800DF0E6F850
:10522C0010900898CDF830A050F82A000B900DF093
:10523C00EDFBDDE917230DF06DFBDDE915230CF01B
:10524C004BFFDDE913230DF08CFC5A4643460DF061
:10525C0096F9B0EE491AF0EE691A41EC100B0DF00C
:10526C0059FEB0EE481AF0EE681A0DF02FF955EC15
:10527C001CAB10985BEC108B002808BF0446DDE9D2
:10528C00110152462B460DF0EBF8002840465946CA
:10529C0018BF4FF0FF340DF03CFCDDE90E23064641
:1052AC00404659460DF0A2F8002808BF0646404675
:1052BC00594652462B460DF0D3F8002818BF4FF034
:1052CC00FF36B4420DD90C9819990B9B88420D9856
:1052DC00BFF44BAF199982460A9E88427FF656AFAF
:1052EC0043E709980699C043C0B2C840059900F03D
:1052FC0001000843012101FA00F0B4F5E37F39D82D
:10530C0039F81410B44241EA000129F8141038BFDE
:10531C000134D8D2B442D6D8B4F5E37F2AD839F8C0
:10532C001410B44241EA000129F8141038BF0134BA
:10533C00C9D2B442C7D8B4F5E37F1BD839F81410DE
:10534C00B44241EA000129F8141038BF0134BAD232
:10535C00B442B8D8B4F5E37F0CD839F81410B44281
:10536C0041EA000129F8141038BF0134ABD2B44221
:10537C00C3D9A8E7204640F2C7110AF0CFFF0BF0C3
:10538C00BCFE40460BF017FD4FF4C0610BF013FD53
:10539C0050464FF47A710AF0C1FF199801460AF091
:1053AC00BDFF304640F2C7110AF0B8FF284640F264
:1053BC00C7110AF0B3FF604640F2C7110AF0AEFF06
:1053CC00504640F2C7110AF0A9FF584640F2C711E7
:1053DC000AF0A4FF104640F2C7110AF09FFF0846DE
:1053EC004FF47A710AF09AFF4FF47A704FF47A7195
:1053FC000AF094FF0000000000607C4000000000F8
:10540C00000000000000E0FFFFFFEF41F0B503AF2C
:10541C002DE9000FA3B041F2D831425842F63011B9
:10542C0046580144D1F804804AB1511EB2F57A7F36
:10543C0000F2798400F1500252F8215000E000256E
:10544C0047F6906100EB010ACDF810A09AF8140011
:10545C00002840F0F08144F6443101A84FF0010BD4
:10546C0080E8600140F2240944F65C088AF814B024
:10547C0043F2080AC0F6010101F1080001224FF4C1
:10548C009174C4F20009C4F2010AC0F601080125A6
:10549C00079212E00020032D38BF0120079044F63C
:1054AC0044300599C0F6010018342030814201F1D6
:1054BC00080018BF013500F0B181CDE90505D1E92F
:1054CC000056102E089437D2002E00F07481B108CB
:1054DC004FF0000000F0838101F0030105F1010E93
:1054EC006FF003030B96A0EB810C0EEB0306043359
:1054FC0096F9031096F9064096F9052011F1410F23
:10550C0096F90460C8BF01300CEB030116F1410F92
:10551C00C8BF013012F1410FC8BF013014F1410F67
:10552C00C8BF01300431E0D1089C191D0B9E16F048
:10553C00030240F05A8103E0284631460AF0EEFFA0
:10554C00C0F10300A9190991294600EB400004EBB6
:10555C0040030EE040F618404FF48041C4F20200C4
:10556C0001600B9BDDE9090106330D46814200F019
:10557C00228111F9010BB0F1FF3FC4B21FDC697835
:10558C0004F01F00E02C01F03F0111D3AA78F02C9D
:10559C0002F03F0242EA81110ED3EA7800F00700D4
:1055AC0002F03F0242EA811141EA8044291D06E0E3
:1055BC0041EA8014A91C02E041EA0034E91CCDE95F
:1055CC000A1318460E2105220723FBF71DF904EBDD
:1055DC008400B52CA0F1A00140F2E51008BF4FF4F7
:1055EC00F071202C38BF40F2DB11421A4FF0000C46
:1055FC0038BF624602E0BCF1070FABD00CF00700DD
:10560C000CF1010C00240BFA00F501E0052CF2D092
:10561C006018944200F08183D9F80060013418F8C6
:10562C000000D9F800309B1B592B0ED8D9F800304C
:10563C009B1B592B9EBFD9F800309B1B592B04D8B0
:10564C00D9F800309B1B5A2BEBD3DAF800309B07B0
:10565C000CD4DAF800309B075CBFDAF800305FEA54
:10566C00837303D4DAF800309B07EED5284018BFBB
:10567C00FF20CAF80400DAF80030DB070CD1DAF8A6
:10568C000030DB0704BFDAF800305FEAC37303D1E4
:10569C00DAF80030DB07EED0DAF800301B060CD558
:1056AC00DAF800301B0644BFDAF800305FEA036317
:1056BC0003D5DAF800301B06EED4DAF80430D9F84A
:1056CC000060D9F800309B1B592B0ED8D9F800304C
:1056DC009B1B592B9EBFD9F800309B1B592B04D810
:1056EC00D9F800309B1B5A2BEBD3D9F80060D9F8B2
:1056FC0000309B1B592B0ED8D9F800309B1B592B13
:10570C009EBFD9F800309B1B592B04D8D9F8003018
:10571C009B1B5A2BEBD3DAF800309B070CD4DAF82E
:10572C0000309B075CBFDAF800305FEA837303D468
:10573C00DAF800309B07EED5CAF80400DAF800005E
:10574C00C0070CD1DAF80000C00704BFDAF800007B
:10575C005FEAC07003D1DAF80000C007EED0DAF8C7
:10576C00000000060CD5DAF80000000644BFDAF899
:10577C0000005FEA006003D5DAF800000006EED402
:10578C00DAF80400D9F80000D9F800301B1A592BAC
:10579C003FF63CAFD9F800301B1A592B9EBFD9F8F5
:1057AC0000301B1A592B3FF631AFD9F800301B1AB9
:1057BC005A2BE9D32AE70798089C069DC0073FF4AB
:1057CC0069AE44F644200621C0F601002E2200905A
:1057DC0004F112004FF6FF73FAF716FF5AE6002198
:1057EC00089C16F003023FF4ABAE6B5613F1410F5D
:1057FC00C8BF0130012A3FF4A3AE294491F901300E
:10580C0013F1410FC8BF0130022A3FF499AE91F950
:10581C00021011F1410FC8BF013091E64FF6FF7035
:10582C000E210090A02078220123FBF7F7FE0DF14A
:10583C00040A9AE860054FF47A704FF03032A6FBF8
:10584C0000010E92CDE90C220C2210920CAA00241D
:10585C000F925A22002311940DF098FBCDE91201FE
:10586C0001201A901DA9169015AA189041F2A510A6
:10587C00C0F6010019911C9012A81B901BA8179040
:10588C003020CAF6000044F2B821CDE921404FF493
:10589C004020C0F601011F900220159143F2743193
:1058AC00ADF874000FA8C0F601010BF04EF90028FA
:1058BC0040F037829DF830209AF80800904240F072
:1058CC00BE809DF831209AF80900904240F0CC80BF
:1058DC009DF832209AF80A00904240F0DA809DF848
:1058EC0033209AF80B00904240F0E8809DF8342069
:1058FC009AF80C00904240F0F6809DF835209AF80A
:10590C000D00904240F004819DF836209AF80E006C
:10591C00904240F012819DF837209AF80F00904287
:10592C0040F020819DF838209AF81000904240F009
:10593C002E819DF839209AF81100904240F03C815C
:10594C009DF83A209AF81200904240F04A819DF856
:10595C003B209AF81300904240F05881002D00F043
:10596C00668130460DF052F8044628460E460DF07E
:10597C004DF881460D46204631464A462B460DF0E1
:10598C00F0F89FEDEC0B56EC104B224633460CF026
:10599C00A3FBCDE90A1040460DF038F84A462B46D9
:1059AC000DF0DFF8224633460CF096FB05468A468E
:1059BC000DF0AFF89FEDE10B83462846514656ECAF
:1059CC00109B4A4633460CF011FD9FEDDE0B002870
:1059DC00514653EC104B099308BF83462846224688
:1059EC000CF03EFD002818BF4FF0FF3B7720BBF1B9
:1059FC00770F28BF8346DDF82CA0DDF828805046B1
:105A0C0041460DF086F80546504641464A46334617
:105A1C000CF0ECFC002808BF0546099B504641469B
:105A2C0022460CF01DFD002818BF4FF0FF35772DD6
:105A3C004FF0770028BF0546DDF810A0FAE044F6D9
:105A4C0044200621C0F601004FF6FF7300904FF47E
:105A5C0091708AF80820FAF7D7FD9DF831209AF852
:105A6C00090090423FF434AF44F644200621C0F6BE
:105A7C0001004FF6FF7300904FF494708AF80920E0
:105A8C00FAF7C2FD9DF832209AF80A0090423FF4D2
:105A9C0026AF44F644200621C0F601004FF6FF73F2
:105AAC0000904FF497708AF80A20FAF7ADFD9DF834
:105ABC0033209AF80B0090423FF418AF44F6442080
:105ACC000621C0F601004FF6FF7300904FF49D7055
