:020000040800F2
:1000000000000320AD0100083B2D0108894D0108C7
:100010003B2D01083B2D01083B2D0108000000008D
:100020000000000000000000000000003B2D01085F
:100030003B2D0108000000003B2D01083B2D01086D
:100040003B2D01083B2D01083B2D01083B2D0108EC
:100050003B2D01083B2D01083B2D01083B2D0108DC
:100060003B2D01083B2D01083B2D01083B2D0108CC
:100070003B2D01083B2D01083B2D01083B2D0108BC
:100080003B2D01083B2D01083B2D01083B2D0108AC
:100090003B2D01083B2D01083B2D01083B2D01089C
:1000A0003B2D01083B2D01083B2D01083B2D01088C
:1000B0003B2D01083B2D01083B2D01083B2D01087C
:1000C0003B2D01083B2D01083B2D01083B2D01086C
:1000D0003B2D01083B2D01083B2D01083B2D01085C
:1000E0003B2D01083B2D01083B2D01083B2D01084C
:1000F0003B2D01083B2D01083B2D01083B2D01083C
:100100003B2D01083B2D01083B2D01083B2D01082B
:100110003B2D01083B2D01083B2D01083B2D01081B
:100120003B2D01083B2D01083B2D01083B2D01080B
:100130003B2D01083B2D01083B2D01083B2D0108FB
:100140003B2D01083B2D01083B2D01083B2D0108EB
:100150003B2D01083B2D01083B2D01083B2D0108DB
:100160003B2D01083B2D01083B2D01083B2D0108CB
:100170003B2D01083B2D01083B2D01083B2D0108BB
:100180003B2D01083B2D01083B2D01083B2D0108AB
:100190003B2D01083B2D01083B2D01083B2D01089B
:0C01A0003B2D01083B2D01083B2D010800
:1001AC0012F0C8FD0E480F490022814201D004C054
:1001BC00FBE70D480D490E4A814202D008CA08C01F
:1001CC00FAE70C484FF47001026842EA010202603F
:1001DC00BFF34F8FBFF36F8F08F0D7FF00DE000027
:1001EC00000000200400002000000020000000207F
:1001FC00DC6A010888ED00E0EAB180B56F4601EBDE
:10020C00020C44F60002C4F2000203E00131536018
:10021C0061450ED00B7810680006F7D41068000604
:10022C005CBF10685FEA0060F0D410680006F2D57D
:10023C00ECE7BDE880400020704780B56F460B4668
:10024C00D0E900121846BDE8804012F073B8F0B542
:10025C0003AF4DF8048D82B08046002080290190B8
:10026C0003D201248DF8041033E0B1F5006F09D2EC
:10027C000224084664F39F108DF80500C02040EA64
:10028C00911024E002200A4660F39F12B1F5803FE2
:10029C000DD28DF806208A0960F39F12E02040EA07
:1002AC0011308DF805208DF80400032411E08DF831
:1002BC0007208A0960F39F128DF806200A0B04248C
:1002CC0060F39F12F02040EA91408DF805208DF8E4
:1002DC000400D8E90156B54215D309D0D8F800006E
:1002EC0001A9AA1B3044944238BF224613F0C9FB23
:1002FC003019A84238BF0546C8F80850002002B093
:10030C005DF8048BF0BD3046294612F02BFA80B50F
:10031C006F4681B0002080290090684602D200F11F
:10032C00010C37E0B1F5006F0BD202220B4662F3E1
:10033C009F13C02200F1020C8DF8013042EA91119A
:10034C0028E0B1F5803F10D202220B4662F39F13D6
:10035C008DF802308B0900F1030C62F39F13E0223D
:10036C008DF8013042EA113114E002220B4662F39F
:10037C009F138DF803308B0900F1040C62F39F136B
:10038C008DF802300B0B62F39F13F0228DF80130C5
:10039C0042EA914144F600028DF800106946C4F21D
:1003AC00000203E00131536061450ED00B781068F8
:1003BC000006F7D4106800065CBF10685FEA0060A6
:1003CC00F0D410680006F2D5ECE7002001B080BD37
:1003DC0080B56F460A4644F6DC51C0F60101BDE813
:1003EC00804012F092B880B56F460A4644F6C4516C
:1003FC00C0F60101BDE8804012F087B880B56F46A9
:10040C00C00708BF80BDBDE8804013F0FEB9F0B551
:10041C0003AF2DE9000F83B0BC689A469046D4E92F
:10042C0002B52B465A4600F0F8F9A8F120000BF162
:10043C0007016843C9080191484361688142C0F0D3
:10044C00DF80002D18BFBBF1000F0BD140F6184018
:10045C004FF48041C4F202000160584603B0BDE87D
:10046C00000FF0BD22682426091A002302EB0009B4
:10047C0043F20802C4F20006C4F201024FF007086E
:10048C00009504E0029B009D0133AB42DED0019845
:10049C000025029303FB00FE02E001355D45F1D01F
:1004AC000EEBD500884280F0AD8019F8000028EAE8
:1004BC000503D6F800C0D84000F00100404200EA25
:1004CC000A003368A3EB0C03592B0ED83368A3EB4B
:1004DC000C03592B9EBF3368A3EB0C03592B04D888
:1004EC003368A3EB0C035A2BEBD313689B0709D48B
:1004FC0013689B075CBF13685FEA837302D41368AD
:10050C009B07F2D583B21B0A53601368DB0709D132
:10051C001368DB0704BF13685FEAC37302D1136867
:10052C00DB07F2D013681B0609D513681B0644BF02
:10053C0013685FEA036302D513681B06F2D4536891
:10054C0033683468E41A592C0BD83468E41A592CE3
:10055C009EBF3468E41A592C03D83468E41A5A2C18
:10056C00EFD333683468E41A592C0BD83468E41A86
:10057C00592C9EBF3468E41A592C03D83468E41AF9
:10058C005A2CEFD313689B0709D413689B075CBFE5
:10059C0013685FEA837302D413689B07F2D5C0B269
:1005AC0050601068C00709D11068C00704BF1068FC
:1005BC005FEAC07002D11068C007F2D01068000664
:1005CC0009D51068000644BF10685FEA006002D5C8
:1005DC0010680006F2D45068306833681B1A592B27
:1005EC003FF65BAF33681B1A592B9EBF33681B1A3F
:1005FC00592B3FF652AF33681B1A5A2BEDD34CE7ED
:10060C0012F0B0F811F06EFBF0B503AF2DE9000F4E
:10061C0083B0BC68202A03D27F22267C46B913E023
:10062C00B2F5657F0CD0B52A08BF8022267C5EB15E
:10063C00BC6003B0BDE8000FBDE8F040FFF7E7BEBB
:10064C00AE22267C002EF3D1D4E9029615469A46AA
:10065C0033464A4600F0E1F8002E019618BFB9F176
:10066C00000F0CD140F618404FF48041C4F2020048
:10067C00016009F1010003B0BDE8000FF0BDA5F168
:10068C002000D4E90081242643F2080409FB00FB76
:10069C000022C4F20006C4F2010403E0DDE9010209
:1006AC008242DFD002F0070001230132029203FAEA
:1006BC0000FC002301E04B45F0D003EB0B0088421B
:1006CC0080F0A98018F800000133D6F800E000EAA9
:1006DC000C003568A5EB0E05592D0ED83568A5EB29
:1006EC000E05592D9EBF3568A5EB0E05592D04D866
:1006FC003568A5EB0E055A2DEBD32568AD0709D44B
:10070C002568AD075CBF25685FEA857502D425684E
:10071C00AD07F2D5002818BF504685B22D0A65608A
:10072C002568ED0709D12568ED0704BF25685FEA48
:10073C00C57502D12568ED07F2D025682D0609D5BF
:10074C0025682D0644BF25685FEA056502D5256836
:10075C002D06F2D4656835683268521B592A0BD8BD
:10076C003268521B592A9EBF3268521B592A03D831
:10077C003268521B5A2AEFD335683268521B592AF9
:10078C000BD83268521B592A9EBF3268521B592A09
:10079C0003D83268521B5A2AEFD32268920709D425
:1007AC00226892075CBF22685FEA827202D42268D8
:1007BC009207F2D5C0B260602068C00709D12068EA
:1007CC00C00704BF20685FEAC07002D12068C00770
:1007DC00F2D02068000609D52068000644BF2068C6
:1007EC005FEA006002D520680006F2D460683068C9
:1007FC003268121A592A3FF65EAF3268121A592A19
:10080C009EBF3268121A592A3FF655AF3268121A37
:10081C005A2AEDD34FE711F065FAF0B503AF4DF856
:10082C00048D40F6184C4FF00056C4F2020C40F206
:10083C00240ECCF800684FF08046CCF80060C4F26F
:10084C00000EDEF80060A1F10108441EDEF8005035
:10085C00AD1B592D0ED8DEF80050AD1B592D9EBF87
:10086C00DEF80050AD1B592D04D8DEF80050AD1B3E
:10087C005A2DEBD3144443F20802C4F2010215685A
:10088C00AD0709D41568AD075CBF15685FEA8575BF
:10089C0002D41568AD07F2D52A2555601568ED0709
:1008AC0009D11568ED0704BF15685FEAC57502D15B
:1008BC001568ED07F2D015682D0609D515682D06BB
:1008CC0044BF15685FEA056502D515682D06F2D49C
:1008DC005568DEF80060DEF80050AD1B592D0ED8BF
:1008EC00DEF80050AD1B592D9EBFDEF80050AD1B3D
:1008FC00592D04D8DEF80050AD1B5A2DEBD34FF414
:10090C008045CCF800504FF40055CCF800584FF00F
:10091C008045CCF80050DEF80060DEF80050AD1BCE
:10092C00592D0ED8DEF80050AD1B592D9EBFDEF8A8
:10093C000050AD1B592D04D8DEF80050AD1B5A2DBC
:10094C00EBD343441568AD0709D41568AD075CBFFC
:10095C0015685FEA857502D41568AD07F2D50025D8
:10096C0055601568ED0709D11568ED0704BF1568CA
:10097C005FEAC57502D11568ED07F2D015682D0632
:10098C0009D515682D0644BF15685FEA056502D5C3
:10099C0015682D06F2D45568DEF80050DEF80060BC
:1009AC00761B592E0ED8DEF80060761B592E9EBF92
:1009BC00DEF80060761B592E04D8DEF80060761B3A
:1009CC005A2EEBD3DEF80050DEF80060761B592E61
:1009DC000ED8DEF80060761B592E9EBFDEF8006044
:1009EC00761B592E04D8DEF80060761B5A2EEBD3FA
:1009FC001568AD0709D41568AD075CBF15685FEACB
:100A0C00857502D41568AD07F2D5C0F3072555607E
:100A1C001568ED0709D11568ED0704BF15685FEA85
:100A2C00C57502D11568ED07F2D015682D0609D5EC
:100A3C0015682D0644BF15685FEA056502D5156873
:100A4C002D06F2D45568DEF80050DEF80060761BF7
:100A5C00592E0ED8DEF80060761B592E9EBFDEF89C
:100A6C000060761B592E04D8DEF80060761B5A2ED7
:100A7C00EBD34FF48045CCF800504FF40055CCF834
:100A8C0000584FF08045CCF80050DEF80050DEF8EE
:100A9C000060761B592E0ED8DEF80060761B592E9E
:100AAC009EBFDEF80060761B592E04D8DEF800607D
:100ABC00761B5A2EEBD31568AD0709D41568AD0714
:100ACC005CBF15685FEA857502D41568AD07F2D571
:100ADC00002555601568ED0709D11568ED0704BFB1
:100AEC0015685FEAC57502D11568ED07F2D0156877
:100AFC002D0609D515682D0644BF15685FEA0565F6
:100B0C0002D515682D06F2D45568DEF80050DEF8D3
:100B1C000060761B592E0ED8DEF80060761B592E1D
:100B2C009EBFDEF80060761B592E04D8DEF80060FC
:100B3C00761B5A2EEBD3DEF80050DEF80060761BE5
:100B4C00592E0ED8DEF80060761B592E9EBFDEF8AB
:100B5C000060761B592E04D8DEF80060761B5A2EE6
:100B6C00EBD31568AD0709D41568AD075CBF1568E4
:100B7C005FEA857502D41568AD07F2D5C0B2506036
:100B8C001068C00709D11068C00704BF10685FEA7D
:100B9C00C07002D11068C007F2D01068000609D5E9
:100BAC001068000644BF10685FEA006002D5106848
:100BBC000006F2D45068DEF80000DEF800502D1A62
:100BCC00592D0ED8DEF800502D1A592D9EBFDEF887
:100BDC0000502D1A592D04D8DEF800502D1A5A2D1C
:100BEC00EBD34FF48040CCF800004FF40050CCF81D
:100BFC0000084FF08040CCF80000DEF80000DEF872
:100C0C0000502D1A592D0ED8DEF800502D1A592DE2
:100C1C009EBFDEF800502D1A592D04D8DEF8005076
:100C2C002D1A5A2DEBD31068800709D41068800751
:100C3C005CBF10685FEA807002D410688007F2D540
:100C4C00002050601068C00709D11068C00704BFAD
:100C5C0010685FEAC07002D11068C007F2D010684B
:100C6C00000609D51068000644BF10685FEA0060F2
:100C7C0002D510680006F2D45068DEF80000DEF8E9
:100C8C0000502D1A592D0ED8DEF800502D1A592D62
:100C9C009EBFDEF800502D1A592D04D8DEF80050F6
:100CAC002D1A5A2DEBD3DEF80000DEF800502D1A69
:100CBC00592D0ED8DEF800502D1A592D9EBFDEF896
:100CCC0000502D1A592D04D8DEF800502D1A5A2D2B
:100CDC00EBD31068800709D4106880075CBF1068DC
:100CEC005FEA807002D410688007F2D5C4F3072045
:100CFC0050601068C00709D11068C00704BF1068A5
:100D0C005FEAC07002D11068C007F2D0106800060C
:100D1C0009D51068000644BF10685FEA006002D570
:100D2C0010680006F2D45068DEF80000DEF80050BF
:100D3C002D1A592D0ED8DEF800502D1A592D9EBFA4
:100D4C00DEF800502D1A592D04D8DEF800502D1A5B
:100D5C005A2DEBD34FF48040CCF800004FF40050E8
:100D6C00CCF800084FF08040CCF80000DEF8000012
:100D7C00DEF800502D1A592D0ED8DEF800502D1A21
:100D8C00592D9EBFDEF800502D1A592D04D8DEF8CF
:100D9C0000502D1A5A2DEBD31068800709D4106817
:100DAC0080075CBF10685FEA807002D4106880070F
:100DBC00F2D5002050601068C00709D11068C00738
:100DCC0004BF10685FEAC07002D11068C007F2D08F
:100DDC001068000609D51068000644BF10685FEA69
:100DEC00006002D510680006F2D45068DEF80000EE
:100DFC00DEF800502D1A592D0ED8DEF800502D1AA1
:100E0C00592D9EBFDEF800502D1A592D04D8DEF84E
:100E1C0000502D1A5A2DEBD3DEF80000DEF80050EE
:100E2C002D1A592D0ED8DEF800502D1A592D9EBFB3
:100E3C00DEF800502D1A592D04D8DEF800502D1A6A
:100E4C005A2DEBD31068800709D4106880075CBF5B
:100E5C0010685FEA807002D410688007F2D5E0B2A7
:100E6C0050601068C00709D11068C00704BF106833
:100E7C005FEAC07002D11068C007F2D0106800069B
:100E8C0009D51068000644BF10685FEA006002D5FF
:100E9C0010680006F2D45068DEF80000DEF800405E
:100EAC00241A592C0ED8DEF80040241A592C9EBF57
:100EBC00DEF80040241A592C04D8DEF80040241A1D
:100ECC005A2CEBD34FF48040CCF800004FF000507C
:100EDC00CCF800084FF08040CCF80000DEF80000A1
:100EEC00DEF80040241A592C0ED8DEF80040241AE3
:100EFC00592C9EBFDEF80040241A592C04D8DEF879
:100F0C000040241A5A2CEBD31068800709D41068BF
:100F1C0080075CBF10685FEA807002D4106880079D
:100F2C00F2D52B2050601068C00709D11068C0079B
:100F3C0004BF10685FEAC07002D11068C007F2D01D
:100F4C001068000609D51068000644BF10685FEAF7
:100F5C00006002D510680006F2D45068DEF800007C
:100F6C00DEF80040241A592C0ED8DEF80040241A62
:100F7C00592C9EBFDEF80040241A592C04D8DEF8F8
:100F8C000040241A5A2CEBD34FF48040CCF80000CC
:100F9C004FF40050CCF800084FF08040CCF8000023
:100FAC00DEF80000DEF80040241A592C0ED8DEF8CA
:100FBC000040241A592C9EBFDEF80040241A592CEC
:100FCC0004D8DEF80040241A5A2CEBD310688007A2
:100FDC0009D4106880075CBF10685FEA807002D487
:100FEC0010688007F2D5002050601068C00709D146
:100FFC001068C00704BF10685FEAC07002D11068A7
:10100C00C007F2D01068000609D51068000644BF6E
:10101C0010685FEA006002D510680006F2D45068D0
:10102C00DEF80000DEF80040241A592C0ED8DEF849
:10103C000040241A592C9EBFDEF80040241A592C6B
:10104C0004D8DEF80040241A5A2CEBD3DEF800004A
:10105C00DEF80040241A592C0ED8DEF80040241A71
:10106C00592C9EBFDEF80040241A592C04D8DEF807
:10107C000040241A5A2CEBD31068800709D410684E
:10108C0080075CBF10685FEA807002D4106880072C
:10109C00F2D5C1F3072050601068C00709D1106861
:1010AC00C00704BF10685FEAC07002D11068C007A7
:1010BC00F2D01068000609D51068000644BF10680D
:1010CC005FEA006002D510680006F2D45068DEF8C2
:1010DC000000DEF80040241A592C0ED8DEF800402F
:1010EC00241A592C9EBFDEF80040241A592C04D81F
:1010FC00DEF80040241A5A2CEBD34FF48040CCF885
:10110C0000004FF40050CCF800084FF08040CCF8B1
:10111C000000DEF80000DEF80040241A592C0ED82E
:10112C00DEF80040241A592C9EBFDEF80040241A29
:10113C00592C04D8DEF80040241A5A2CEBD3106832
:10114C00800709D4106880075CBF10685FEA807064
:10115C0002D410688007F2D5002050601068C007D8
:10116C0009D11068C00704BF10685FEAC07002D1D3
:10117C001068C007F2D01068000609D51068000688
:10118C0044BF10685FEA006002D510680006F2D414
:10119C005068DEF80000DEF80040241A592C0ED8F6
:1011AC00DEF80040241A592C9EBFDEF80040241AA9
:1011BC00592C04D8DEF80040241A5A2CEBD3DEF854
:1011CC000000DEF80040241A592C0ED8DEF800403E
:1011DC00241A592C9EBFDEF80040241A592C04D82E
:1011EC00DEF80040241A5A2CEBD31068800709D47F
:1011FC00106880075CBF10685FEA807002D41068CA
:10120C008007F2D5C8B250601068C00709D11068C9
:10121C00C00704BF10685FEAC07002D11068C00735
:10122C00F2D01068000609D51068000644BF10689B
:10123C005FEA006002D510680006F2D45068DEF850
:10124C000000DEF80010091A59290ED8DEF800103B
:10125C00091A59299EBFDEF80010091A592904D819
:10126C00DEF80010091A5A29EBD34FF48040CCF861
:10127C0000004FF40050CCF800084FF08040CCF840
:10128C000000DEF80000DEF80010091A59290ED80B
:10129C00DEF80010091A59299EBFDEF80010091A51
:1012AC00592904D8DEF80010091A5A29EBD3106812
:1012BC00800709D4106880075CBF10685FEA8070F3
:1012CC0002D410688007F2D5002050601068C00767
:1012DC0009D11068C00704BF10685FEAC07002D162
:1012EC001068C007F2D01068000609D51068000617
:1012FC0044BF10685FEA006002D510680006F2D4A3
:10130C005068DEF80000DEF80010091A59290ED8D2
:10131C00DEF80010091A59299EBFDEF80010091AD0
:10132C00592904D8DEF80010091A5A29EBD3DEF833
:10133C000000DEF80010091A59290ED8DEF800104A
:10134C00091A59299EBFDEF80010091A592904D828
:10135C00DEF80010091A5A29EBD31068800709D45B
:10136C00106880075CBF10685FEA807002D4106858
:10137C008007F2D5C3F3072050601068C00709D16D
:10138C001068C00704BF10685FEAC07002D1106813
:10139C00C007F2D01068000609D51068000644BFDB
:1013AC0010685FEA006002D510680006F2D450683D
:1013BC00DEF80000DEF80010091A59290ED8DEF804
:1013CC000010091A59299EBFDEF80010091A592974
:1013DC0004D8DEF80010091A5A29EBD34FF48040D8
:1013EC00CCF800004FF40050CCF800084FF08040CF
:1013FC00CCF80000DEF80000DEF80010091A5929BC
:10140C000ED8DEF80010091A59299EBFDEF800101C
:10141C00091A592904D8DEF80010091A5A29EBD3F5
:10142C001068800709D4106880075CBF10685FEAF9
:10143C00807002D410688007F2D5002050601068CC
:10144C00C00709D11068C00704BF10685FEAC070FC
:10145C0002D11068C007F2D01068000609D51068D8
:10146C00000644BF10685FEA006002D510680006F1
:10147C00F2D45068DEF80000DEF80010091A592981
:10148C000ED8DEF80010091A59299EBFDEF800109C
:10149C00091A592904D8DEF80010091A5A29EBD375
:1014AC00DEF80000DEF80010091A59290ED8DEF813
:1014BC000010091A59299EBFDEF80010091A592983
:1014CC0004D8DEF80010091A5A29EBD310688007EB
:1014DC0009D4106880075CBF10685FEA807002D482
:1014EC0010688007F2D5D8B250601068C00709D1D7
:1014FC001068C00704BF10685FEAC07002D11068A2
:10150C00C007F2D01068000609D51068000644BF69
:10151C0010685FEA006002D510680006F2D45068CB
:10152C00DEF80000DEF80010091A59290ED8DEF892
:10153C000010091A59299EBFDEF80010091A592902
:10154C0004D8DEF80010091A5A29EBD34FF4804066
:10155C00CCF800004FF00050CCF800084FF0804061
:10156C00CCF80000DEF80000DEF80010091A59294A
:10157C000ED8DEF80010091A59299EBFDEF80010AB
:10158C00091A592904D8DEF80010091A5A29EBD384
:10159C001068800709D4106880075CBF10685FEA88
:1015AC00807002D410688007F2D52C20506010682F
:1015BC00C00709D11068C00704BF10685FEAC0708B
:1015CC0002D11068C007F2D01068000609D5106867
:1015DC00000644BF10685FEA006002D51068000680
:1015EC00F2D45068DEF80000DEF80010091A592910
:1015FC000ED8DEF80010091A59299EBFDEF800102B
:10160C00091A592904D8DEF80010091A5A29EBD303
:10161C004FF48040CCF800004FF40050CCF8000898
:10162C004FF08040CCF800005DF8048BF0BDB0B5F5
:10163C0002AF1C461546FFF7F0F804FB05F0002836
:10164C0000F0AA80BA68242343F20805C4F2000310
:10165C00C4F2010591B2D2B24FEA112C02E001386A
:10166C0000F09A801C681968091B59290BD8196855
:10167C00091B59299EBF1968091B592903D81968D8
:10168C00091B5A29EFD32968890709D429688907C6
:10169C005CBF29685FEA817102D429688907F2D599
:1016AC00C5F804C02968C90709D12968C90704BF4E
:1016BC0029685FEAC17102D12968C907F2D029688B
:1016CC00090609D52968090644BF29685FEA016142
:1016DC0002D529680906F2D469681C681968091BC7
:1016EC0059290BD81968091B59299EBF1968091B60
:1016FC00592903D81968091B5A29EFD31C68196892
:10170C00091B59290BD81968091B59299EBF19683F
:10171C00091B592903D81968091B5A29EFD32968C1
:10172C00890709D4296889075CBF29685FEA817138
:10173C0002D429688907F2D56A602968C90709D1DA
:10174C002968C90704BF29685FEAC17102D12968F9
:10175C00C907F2D02968090609D52968090644BFCA
:10176C0029685FEA016102D529680906F2D4696823
:10177C001C681968091B59293FF671AF1968091BB8
:10178C0059299EBF1968091B59293FF668AF19687A
:10179C00091B5A29EDD362E740F618404FF48041FB
:1017AC00C4F202000160B0BDF0B503AF2DE9000F2B
:1017BC0081B083460D46914600240A2059462A469C
:1017CC0001230094FFF733FF0BF10106A9F1020886
:1017DC000A200122314643460094FFF728FF05F109
:1017EC0009003146012243460094FFF720FF09EB24
:1017FC000B002A46411E0A2001230094FFF717FF15
:10180C00A5F1020A4FF6FF7000900B2031465246AC
:10181C0001234FF6FF74FFF70AFF0094A9F10406A9
:10182C000BF102040B20012233462146FFF7FFFE89
:10183C004FF6FF702146009005F108000122334657
:10184C004FF6FF79FFF7F3FE08EB0B010B20524626
:10185C000123CDF80090FFF7EAFE01B0BDE8000FC0
:10186C00F0BDF0B503AF2DE9000F83B0824645F60D
:10187C0014605AF80090504445F2E46B0190282013
:10188C0001EB02080E4600EB09140725C0F6010B0C
:10189C0002920DE043EA8112861C284621464FF63F
:1018AC00FF73CDF800B0FEF7AFFE0544464523D0DC
:1018BC00304616F9011BB1F1FF3FCAB2EDDC43789B
:1018CC0002F01F01E02A03F03F03E3D38678F02AED
:1018DC0006F03F0646EA83130AD3C27801F00701EB
:1018EC00061D02F03F0242EA831242EA8142D4E72B
:1018FC0043EA0132C61CD0E7B9F10F0F9FBF029823
:10190C000AF80900019908689FBF0130086003B00C
:10191C00BDE8000F98BFF0BD4846102110F0E2F969
:10192C00F0B503AF2DE9000F81B045F6605B8D1863
:10193C009246894680460726C0F6010B0C460DE000
:10194C0043EA8112841C304607214FF6FF73CDF811
:10195C0000B0FEF759FE0644AC4223D0204614F9E1
:10196C00011BB1F1FF3FCAB2EDDC437802F01F015D
:10197C00E02A03F03F03E3D38478F02A04F03F0419
:10198C0044EA83130AD3C27801F00701041D02F064
:10199C003F0242EA831242EA8142D4E743EA01322F
:1019AC00C41CD0E7D8F83400A0EB0A01002909DDEB
:1019BC000020CA0000904FEACA000730072110230C
:1019CC00FFF735FEC8E90C9A01B0BDE8000FF0BD79
:1019DC00B0B502AF82B00446C8B2DFE810F0110017
:1019EC001601B200E40067002F016101FD009301B4
:1019FC0099007A014E00800048013500CB001C0094
:101A0C00002040F229110090204610221023FFF7ED
:101A1C000EFE02B0B0BD45F2E4652046C0F60105ED
:101A2C0040F229118E224FF6FF730095FEF7EFFC62
:101A3C00009504F1080040F229118F224FF6FF7334
:101A4C00FEF7E5FC02B0B0BD45F2E4652046C0F6F9
:101A5C00010540F2291190224FF6FF730095FEF715
:101A6C00D6FC009504F1080040F2291191224FF6A2
:101A7C00FF73FEF7CCFC02B0B0BD45F2E465204626
:101A8C00C0F6010540F229119E224FF6FF73009516
:101A9C00FEF7BDFC009504F1080040F229119F22CD
:101AAC004FF6FF73FEF7B3FC02B0B0BD45F2E46530
:101ABC002046C0F6010540F2291196224FF6FF731D
:101ACC000095FEF7A4FC009504F1080040F22911E2
:101ADC0097224FF6FF73FEF79AFC02B0B0BD45F2A9
:101AEC00E4652046C0F6010540F229118C224FF620
:101AFC00FF730095FEF78BFC009504F1080040F293
:101B0C0029118D224FF6FF73FEF781FC02B0B0BD98
:101B1C0045F2E4652046C0F6010540F229119A22EF
:101B2C004FF6FF730095FEF772FC009504F1080068
:101B3C0040F229119B224FF6FF73FEF768FC02B0AE
:101B4C00B0BD45F2E4652046C0F6010540F229110E
:101B5C00A0224FF6FF730095FEF759FC009504F197
:101B6C00080040F22911A1224FF6FF73FEF74FFC3B
:101B7C0002B0B0BD45F2E4652046C0F6010540F266
:101B8C002911AA224FF6FF730095FEF740FC009531
:101B9C0004F1080040F22911AB224FF6FF73FEF757
:101BAC0036FC02B0B0BD45F2E4652046C0F6010536
:101BBC0040F2291188224FF6FF730095FEF727FC9F
:101BCC00009504F1080040F2291189224FF6FF73A9
:101BDC00FEF71DFC02B0B0BD45F2E4652046C0F630
:101BEC00010540F22911A6224FF6FF730095FEF76E
:101BFC000EFC009504F1080040F22911A7224FF6C3
:101C0C00FF73FEF704FC02B0B0BD45F2E46520465C
:101C1C00C0F6010540F2291198224FF6FF7300958A
:101C2C00FEF7F5FB04F1080040F22911992200950A
:101C3C004FF6FF73FEF7EBFB02B0B0BD45F2E46567
:101C4C002046C0F6010540F2291192224FF6FF738F
:101C5C000095FEF7DCFB009504F1080040F2291119
:101C6C0093224FF6FF73FEF7D2FB02B0B0BD45F2E4
:101C7C00E4652046C0F6010540F22911A8224FF672
:101C8C00FF730095FEF7C3FB009504F1080040F2CA
:101C9C002911A9224FF6FF73FEF7B9FB02B0B0BDB4
:101CAC0045F2E4652046C0F6010540F22911A42254
:101CBC004FF6FF730095FEF7AAFB009504F10800A0
:101CCC0040F22911A5224FF6FF73FEF7A0FB02B0DC
:101CDC00B0BD45F2E4652046C0F6010540F229117D
:101CEC0094224FF6FF730095FEF791FB009504F1DB
:101CFC00080040F2291195224FF6FF73FEF787FB7F
:101D0C0002B0B0BD45F2E4652046C0F6010540F2D4
:101D1C00291186224FF6FF730095FEF778FB00958C
:101D2C0004F1080040F2291187224FF6FF73FEF7E9
:101D3C006EFB02B0B0BDF0B503AF4DF8048DC46AB4
:101D4C00002C55D0866A0D46804609783078814241
:101D5C0002D0EF20FFF73CFE012C4DD06978707853
:101D6C0081421CBF4FF48770FFF732FE022C47D024
:101D7C00A978B07881421CBF40F22D10FFF728FEE5
:101D8C00032C41D0E978F07881421CBF4FF4A67047
:101D9C00FFF71EFE042C3BD02979307981421CBF01
:101DAC0040F26B10FFF714FE052C35D06979707971
:101DBC0081421CBF4FF4C570FFF70AFE062C2FD0D2
:101DCC00A979B07981421CBF40F2A910FFF700FE3F
:101DDC00072C29D0E979F07981421CBF4FF4E470CB
:101DEC00FFF7F6FD0820C8E90A505DF8048BF0BD3A
:101DFC00002021460FF076FF012021460FF072FFE4
:101E0C00022021460FF06EFF032021460FF06AFFDF
:101E1C00042021460FF066FF052021460FF062FFDB
:101E2C00062021460FF05EFF072021460FF05AFFD7
:101E3C00F0B503AF2DE9000F85B0044648F64C60B1
:101E4C0004EB000845F60C6004EB000B0E4698F80A
:101E5C005000DFE810F09C0161022B000700070026
:101E6C0007000700204600F00EFC88F85060F0B226
:101E7C00DFE810F007001303CD0078010F005003CA
:101E8C006503204605B0BDE8000FBDE8F04002F048
:101E9C00A9BF46F2B4012046C0F601010B22FFF7A0
:101EAC003FFD46F2CC11C0F6010167E100252C2064
:101EBC002E21202210230095FFF7B9FB0A2029219F
:101ECC00642202230095FFF7B2FB0A202B21022289
:101EDC0016230095FFF7ABFB6C202B210222162357
:101EEC000095FFF7A4FB0A204121642202230095F0
:101EFC00FFF79DFB30205221182210230095FFF78D
:101F0C0096FB0A204D21642202230095FFF78FFBDC
:101F1C000A204F21022216230095FFF788FB6C2024
:101F2C004F21022216230095FFF781FB0A20652121
:101F3C00642202230095FFF77AFB302076211822C9
:101F4C0010230095FFF773FB0A20712164220223F2
:101F5C000095FFF76CFB0A207321022216230095D3
:101F6C00FFF765FB6C207321022216230095FFF707
:101F7C005EFB0A208921642202230095FFF757FBA0
:101F8C0020209A21382210230095FFF750FB0A20BD
:101F9C009521642202230095FFF749FB0A20972123
:101FAC00022216230095FFF742FB6C209721022298
:101FBC0016230095FFF73BFB0A20AD216422022378
:101FCC000095FFF734FB2C20BE2120221023009516
:101FDC00FFF72DFB0A20B921642202230095FFF79D
:101FEC0026FB0A20BB21022216230095FFF71FFBBC
:101FFC006C20BB21022216230095FFF718FB0A2048
:10200C00D121642202230095FFF711FB2DE746F244
:10201C00D0512046C0F601011722FFF781FC45F68E
:10202C0000612046C0F60101FFF785FEDBF80000D9
:10203C0045F6605B4FF00009C0F6010B039025E0FC
:10204C00950040F21F460A20642202230096FFF7F7
:10205C00EEFA05F12B040A200222162321460096E3
:10206C00FFF7E5FA6C202146022216230096FFF7B3
:10207C00DEFA05F141010A20642202230096FFF7E3
:10208C00D6FA09F10109B9F1050F67D046F2A8504B
:10209C0009EBC901C0F60100049100EBC9004068CE
:1020AC00002849D046F2A851049AC0F6010151F813
:1020BC0039A02E2101EB82044FF6FC710AEB0008CB
:1020CC00C7F6FF7101EA8000C0F13C050EE043EA5F
:1020DC00811200F1020A284621464FF6FF73CDF813
:1020EC0000B0FEF791FA0544C24525D050461AF9C6
:1020FC00011BB1F1FF3FCAB2EDDC437802F01F01C6
:10210C00E02A03F03F03E2D38678F02A06F03F067C
:10211C0046EA83130BD3C27801F0070100F1040ADD
:10212C0002F03F0242EA831242EA8142D3E743EAD9
:10213C00013200F1030ACEE7049A292000EB820158
:10214C00039881453FF47CAF084664211A22FFF7BF
:10215C002BFB09F10109B9F1050F97D105B0BDE8C9
:10216C00000FF0BD46F2A8012046C0F601010C227A
:10217C00FFF7D6FB45F6F471C0F6010120460622A6
:10218C0005B0BDE8000FBDE8F04000F0EABA47F238
:10219C00325040F28E312044049612F0ABF847F6E0
:1021AC00872040F2C711204412F0A4F847F6DC70E7
:1021BC0040F28E31204412F031F948F2315040F2A5
:1021CC00C711204412F096F847F2A41021212044A4
:1021DC0005F0DCFE47F64E403221204405F0D6FED9
:1021EC00002600201F2119224FF481730096FFF75F
:1021FC001EFA1A204FF49571302210230096FFF727
:10220C0016FA48F20470204406F053FE48F6346087
:10221C00204405F03DF9D8F808500123D8E9000A0C
:10222C00514688F818602A4600960390FFF7FFF98C
:10223C00D8F81090A9451AD20020D8F80C6000905C
:10224C000122CDF808B0AAEB06010398334609EB3E
:10225C00000B5846FFF7EBF900200AF10101009042
:10226C00584601223346DDF808B0FFF7E0F9D8F8FC
:10227C001400484519D0A84217D24FF00009D8F8DD
:10228C000C50CDF80090012203992B464618AAEB6E
:10229C0005013046FFF7CBF90AF101013046012266
:1022AC002B46CDF80090FFF7C2F94FF0FF30002518
:1022BC00C8E9040040F2C110002101221E23009540
:1022CC00FFF7B5F94FF4C5700721102210230095C4
:1022DC00FFF7ADF94FF4D170002101221E230095B8
:1022EC00FFF7A5F940F2A910072110221023009541
:1022FC00FFF79DF940F28310002101221E23009567
:10230C00FFF795F94FF4E470072110221023009584
:10231C00FFF78DF9049EA8E5DBF80890B9F1000FE2
:10232C0000F0B78020780025282110230095C200EA
:10233C000720FFF77CF9B9F1010F00F0AA80607853
:10234C00382110230095C2000720FFF770F9B9F16E
:10235C00020F00F09E80A078482110230095C20047
:10236C000720FFF764F9B9F1030F00F09280E078D1
:10237C00582110230095C2000720FFF758F9B9F136
:10238C00040F00F086802079682110230095C2008C
:10239C000720FFF74CF9B9F1050F7AD06079782155
:1023AC0010230095C2000720FFF741F9B9F1060F81
:1023BC006FD0A079882110230095C2000720FFF769
:1023CC0036F9B9F1070F64D0E07998211023009504
:1023DC00C2000720FFF72BF9B9F1080F59D0207A6A
:1023EC00A82110230095C2000720FFF720F9B9F1AE
:1023FC00090F4ED0607AB82110230095C200072037
:10240C00FFF715F9B9F10A0F43D0A07AC8211023B0
:10241C000095C2000720FFF70AF9B9F10B0F38D06D
:10242C00E07AD82110230095C2000720FFF7FFF8AF
:10243C00B9F10C0F2DD0207BE82110230095C200A0
:10244C000720FFF7F4F8B9F10D0F22D0607BF821CB
:10245C0010230095C2000720FFF7E9F8B9F10E0F21
:10246C0017D0A07B4FF4847110230095C200072075
:10247C00FFF7DDF8B9F10F0F0BD0E07B4FF48C7147
:10248C0010230095C2000720FFF7D1F8B9F1100F07
:10249C006AD10020CBF80800E7E445F6D05120467D
:1024AC00C0F60101FFF747FC46F20D012046C0F6CD
:1024BC0001010522FFF734FA46F212012046C0F65C
:1024CC0001011D22FFF7CDF946F22F012046C0F67F
:1024DC0001013222FFF7C5F9DBF8080010283FBFD5
:1024EC0000212154DBF8080001303FBFCBF8080075
:1024FC0046F26101C0F6010120463FBF1D2205B026
:10250C00BDE8000FBDE8F04038BFFFF7AAB91021B5
:10251C000FF0E8FB46F228212046C0F601010F22FD
:10252C00FFF7FEF946F254212046C0F601010122C4
:10253C0005B0BDE8000FBDE8F04000F012B946F25E
:10254C00E4112046C0F601010B22FFF7E9F946F22F
:10255C0020212046C0F60101022205B0BDE8000F83
:10256C00BDE8F04000F0FDB8102010210FF0BAFBD0
:10257C00F0B503AF2DE9000B82B0024645F61060B2
:10258C0010580B46D16B884272D2082872D2916BCC
:10259C00DBB251F820100E68716899426DD9024473
:1025AC0092F8202091426BD9346800EB8000317A8C
:1025BC0004EBC30304EBC206002975685B6854F88E
:1025CC0032604FF00C04A3EB05024FF0800318BFF0
:1025DC00A3EBC5043B2303EBC008D200002A0ADDA1
:1025EC000023E8000093002918BF504241462044C4
:1025FC001023FFF71CF8BDB345F2E4693544C0F66F
:10260C0001090DE043EA8112861C204641464FF633
:10261C00FF73CDF80090FDF7F7FF0444AE4223D0D2
:10262C00304616F9011BB1F1FF3FCAB2EDDC43781D
:10263C0002F01F01E02A03F03F03E3D38678F02A6F
:10264C0006F03F0646EA83130AD3C27801F007016D
:10265C00061D02F03F0242EA831242EA8142D4E7AD
:10266C0043EA0132C61CD0E702B0BDE8000BF0BD56
:10267C000FF038FB08210FF035FB18460FF032FB3A
:10268C0010460FF02FFBF0B503AF2DE9000F81B012
:10269C00C16B00295DD0D0F8388000F120064FEADC
:1026AC0081094B244FF0000A58F8040BA4F12201C5
:1026BC001023D0F800B08068CDF800A0C2000A202A
:1026CC00FEF7B5FFA4F112010A2078220223CDF8FF
:1026DC0000A0FEF7ACFFA4F110050A200222102383
:1026EC002946CDF800A0FEF7A2FF80202946022241
:1026FC001023CDF800A0FEF79AFF0A20214678227D
:10270C000223CDF800A0FEF792FF40F28B1084421A
:10271C0023D0DBF804103078814220D9DBF800108C
:10272C0010239BF8082001EBC000002A4FF0800218
:10273C0041684FF00C00CDF800A018BFA2EBC1000F
:10274C00CA002946FEF773FF28340136B9F1040993
:10275C00AAD101B0BDE8000FF0BD082008210FF090
:10276C00C1FAF0B503AF2DE9000F8BB0064645F664
:10277C0010694FF000080C4640F809801546C263FA
:10278C00806BB16345F6B0510590C0F6010130463F
:10279C00FFF7D1FA04EB8500039006EB090045F234
:1027AC00E46B049048F631603044C0F6010B0290A3
:1027BC0006F120000790069406E0039808F1010842
:1027CC00089C844200F0D580DDE9051054F8042BF8
:1027DC008142089403D102980078022803D107990A
:1027EC00107B01F80800906808EB88010A92002819
:1027FC0009913FD00A990A26099AD1F804A02921F7
:10280C0001EBC2050AEB00090EE043EA811200F16C
:10281C00020A304629464FF6FF73CDF800B0FDF79B
:10282C00F3FE0644CA4525D050461AF9011BB1F1F6
:10283C00FF3FCAB2EDDC437802F01F01E02A03F03F
:10284C003F03E2D38478F02A04F03F0444EA831374
:10285C000BD3C27801F0070100F1040A02F03F0229
:10286C0042EA831242EA8142D3E743EA013200F1A1
:10287C00030ACEE70998C600049806F139010068EE
:10288C00804520D140F21F440A2078220223009474
:10289C00FEF7CDFE06F13B050A2002221023294645
:1028AC000094FEF7C4FE80202946022210230094D7
:1028BC00FEF7BDFE06F14B010A207822022300949C
:1028CC00FEF7B5FE04E0084678211422FEF76CFFF3
:1028DC000A9802680798516810F8080081424CD990
:1028EC00136803EBC001496800293FF466AF53F845
:1028FC00304006F13B05107A0C2604EB0109002848
:10290C004FF0800018BFA0EBC1060EE043EA811225
:10291C00841C304629464FF6FF73CDF800B0FDF706
:10292C0073FE06444C453FF448AF204614F9011B96
:10293C00B1F1FF3FCAB2ECDC437802F01F01E02A90
:10294C0003F03F03E2D38478F02A04F03F0444EA16
:10295C0083130AD3C27801F00701041D02F03F0271
:10296C0042EA831242EA8142D3E743EA0132C41CB1
:10297C00CFE70BB0BDE8000FF0BD0FF0B3F9D4D426
:10298C00F0B503AF2DE9000F81B04FF0FF3252FAD2
:10299C0081F10A2948D8DFE801F00660474747472C
:1029AC00474B9D47B90045F610684FF0390B50F86E
:1029BC0008408146C56B142204EB84010BEBC1016A
:1029CC0008467821FEF7F0FE40F21F4A002CCDF8A5
:1029DC0000A018BF2546013D0A207822022305EBF2
:1029EC0085060BEBC601FEF722FE3B2000EBC6046E
:1029FC000A20022221461023CDF800A0FEF717FE74
:102A0C008020214602221023CDF800A0FEF70FFEF5
:102A1C004B2000EBC6010A2078220223CDF800A03F
:102A2C00FEF705FE49F8085001B0BDE8000FF0BDF7
:102A3C0045F610614258072A70D8C16B8A4271D290
:102A4C00866B00F12003995C56F8226000293668E9
:102A5C00367918BF0E46013E50E045F61061C36B47
:102A6C0042584FF03908013BD41A18BF541C44503B
:102A7C0002EB82007821142208EBC000FEF794FED2
:102A8C0004EB840640F21F450A20782208EBC601AD
:102A9C0002230095FEF7CBFD3B2000EBC6040A2079
:102AAC000222214610230095FEF7C1FD802021460D
:102ABC00022210230095FEF7BAFD4B2000EBC60155
:102ACC000A20782202230095FEF7B1FD01B0BDE883
:102ADC00000FF0BD45F610614258072A1ED8C16B95
:102AEC008A421FD2866B00F12003995C56F8226053
:102AFC0036687668013E761A18BF4E1C9E5401B09B
:102B0C00BDE8000FBDE8F040FFF732BD002101B079
:102B1C00BDE8000FBDE8F040FFF78AB91046082168
:102B2C000FF0E0F810460FF0DDF8D4D4F0B503AF99
:102B3C002DE9000F93B0059148F6316101440491E1
:102B4C000AA946F2910B45F6605801F1040A0024DB
:102B5C00C826C0F6010BC0F601080231069000F53C
:102B6C00BC40099103900BE004463046C8214FF459
:102B7C00FC63CDF80080FDF747FD06440A2C2DD0F0
:102B8C001BF90410601CB1F1FF3FCAB2ECDC1BF85E
:102B9C000000A31CE02A00F03F0102F01F0015D337
:102BAC001BF80330F02A03F03F0343EA811104F1D0
:102BBC0003030FD31BF8032000F00700043402F0CA
:102BCC003F0242EA811141EA8042CEE741EA80129B
:102BDC001C46CAE741EA00321C46C6E70698059A2D
:102BEC00D0E9080192F811900022CDE90E20A9F14C
:102BFC0002001091CDE90C22C1B205290AA9CDE938
:102C0C000A2228BF022001F11C06C0B24B1DCD1CAC
:102C1C0001F1010CDFE810F0720205006A009B0064
:102C2C003A0005980124CDF81CA04FF0000A8DF84D
:102C3C002840006807F8210C47F820ACC10908931C
:102C4C0000F0BA8040F0800207F8212C820B07F8C4
:102C5C00201C00F0B78041F0800107F8201C410DCA
:102C6C0007F81F2C00F0B580B146000F42F080022F
:102C7C0007F81E1C07F81F2C00F0B780052407F876
:102C8C001D0C41F0800007F81E0CAFE005980421E4
:102C9C008DF82810002147F8201C006807F8210C3B
:102CAC00C10900F0838040F0800207F8212C820BD0
:102CBC0007F8201C00F0828041F0800107F8201CEE
:102CCC00410D07F81F2C00F08280000F42F08002AB
:102CDC0007F81E1C07F81F2C00F08280052207F84D
:102CEC001D0C41F0800007F81E0C7AE005980221BB
:102CFC0000268DF82810CDF81CA0006807F8210CD0
:102D0C0047F8206CC1090893029551D040F080021D
:102D1C0007F8212C820B07F8201C51D041F08001C0
:102D2C0007F8201C410D07F81F2C55D0000F42F05E
:102D3C00800207F81E1C07F81F2C00F09380052456
:102D4C0007F81D0C41F0800007F81E0C8BE005986D
:102D5C0003214FF000098DF82810D0E9000A07F87C
:102D6C00210C47F8209CC10924D040F0800207F8C0
:102D7C00212C820B07F8201C27D041F0800107F88A
:102D8C00201C410D07F81F2C28D0000F42F08002A8
:102D9C0007F81E1C07F81F2C00F09E80052407F86E
:102DAC001D0C41F0800007F81E0C96E0012218E083
:102DBC00012458E0012490E0B14617E0022210E013
:102DCC00022450E0B146022410E0022485E00322E4
:102DDC0007E0B146032409E0032444E003247CE02B
:102DEC000422A7F12101604639E10424A7F1210155
:102DFC0060462246664610F044FE0598013447F8BA
:102E0C0020AC41680AA8204407F8211CCA0921D02B
:102E1C0041F0800307F8213C8B0B07F8202C1BD0CA
:102E2C0042F0800207F8202C4A0D07F81F3C16D000
:102E3C00090F43F0800307F81E2C07F81F3C00F025
:102E4C008980089E07F81D1C42F08001052207F8B6
:102E5C001E1C81E001227FE00222099E7CE00322FD
:102E6C002E4679E00424A7F1210160462246E24671
:102E7C0010F007FE059847F8206C661C41680AA8FC
:102E8C00304407F8211CCA0920D041F0800307F810
:102E9C00213C8B0B07F8202C1AD042F0800207F84B
:102EAC00202C4A0D07F81F3C14D0090F43F0800367
:102EBC0007F81E2C07F81F3C00F08A80052407F841
:102ECC001D1C42F0800107F81E1C82E0012480E0EA
:102EDC0002247EE003247CE00424A7F12101604657
:102EEC002246654610F0CDFD28195FEADA1107F885
:102EFC0021AC47F8209C24D04AF0800207F8212C02
:102F0C005FEA9A3207F8201C1ED041F0800107F8C6
:102F1C00201C5FEA5A5107F81F2C18D042F080028F
:102F2C0007F81F2C5FEA1A7207F81E1C00F08C8041
:102F3C0041F0800107F81D2C07F81E1C0522311AE0
:102F4C0088E00122311A85E00222311A82E0032244
:102F5C00311A7FE00422079EA7F1210110F091FDA8
:102F6C00059A107B9168053830553019B2F80D2050
:102F7C00A0F801200022033047F8202CCA0907F8DA
:102F8C00211C1FD041F0800307F8213C8B0B07F864
:102F9C00202C19D042F0800207F8202C4A0D07F89B
:102FAC001F3C13D0090F43F0800307F81E2C07F8C1
:102FBC001F3C4CD007F81D1C42F08001052207F87D
:102FCC001E1C45E0012243E0022241E003223FE0C7
:102FDC000424A7F12101224610F053FD0598A519F0
:102FEC008168002047F8200C0AA8284407F8211C07
:102FFC00CA0920D041F0800307F8213C8B0B07F85D
:10300C00202C1BD042F0800207F8202C4A0D07F828
:10301C001F3C16D00026090F43F0800307F81E2C26
:10302C0007F81F3C1ED0052407F81D1C42F0800138
:10303C0007F81E1C17E00026012414E000260224C9
:10304C0011E0002603240EE00422311A02E00422CF
:10305C00A9EB00018A4200F28B83A7F1210110F049
:10306C0010FD4BE00424A7F12101224610F009FDCC
:10307C0005982C4447F8206CC1680AA8204407F82E
:10308C00211CCA0921D041F0800307F8213C8B0B8D
:10309C0007F8202C1BD042F0800207F8202C4A0D98
:1030AC0007F81F3C17D0090F43F0800307F81E2CBC
:1030BC0007F81F3C13D0DDF820A007F81D1C42F0C8
:1030CC008001052207F81E1C0CE001220AE00222F6
:1030DC00DDF824A006E00322DDF808A002E00422BB
:1030EC00DDF81CA0A7F1210110F0CBFC0598007CA9
:1030FC000AF804000AEB040080F8019043F6104033
:10310C0040F2231148F6AB12C4F20200C4F267512C
:10311C00CCF6EF5240F80C1C40F80C2C0368B3F1C1
:10312C00FF3F40F32283069B4FF60445CFF6FE7516
:10313C001B7E06680C2B06EA05064FF0200505EBF6
:10314C00C30538BFDD00EBB2334443F4803343F0A6
:10315C000203036050F8043CDB030CD550F8043C2C
:10316C00DB0344BF50F8043C5FEAC33303D550F88B
:10317C00043CDB03EED450F8043C036843F00043FA
:10318C00036040F80C1C40F80C2C0168B1F1FF3FB7
:10319C0040F3EB82012108910699D1F810E000214F
:1031AC00099105E050F8041C11F0F20F40F0A480D6
:1031BC000899002900F09C80016840F203320EF05F
:1031CC000F039143C3F1100201310160DDF824A01B
:1031DC000AA9089283F00F0201EB0A050EF10061B7
:1031EC00C3F10E04C3F10D0C0023CDF81CE0099EB5
:1031FC0006EB030BBBF11C0F2ED0EE5C9A42CE54A7
:10320C0031D0BBF11B0636D005EB030801EB0309EB
:10321C009C4298F8016089F8016031D0BBF11A0624
:10322C0033D098F802609C4589F8026035D0BBF128
:10323C0019063AD098F803600EF1040E89F8036071
:10324C000AF1040A089E04339E42D0D1DDF81CE03A
:10325C0009999E4419442EE0DDF81CE01C21CDE9AF
:10326C0008319E4428E00AF101010991079919449B
:10327C0001F1010E20E00EF1010E43F0010118E006
:10328C000AF102010EF1020E15E043F00201089161
:10329C000799194401F1020E0CE00AF1030109919E
:1032AC000799194401F1030E06E00EF1030E43F0E9
:1032BC00030108911C21099145F6605846F2910BC7
:1032CC00C0F60108C0F6010B50F8041CC9037FF5C9
:1032DC0069AF50F8041CC90344BF50F8041C5FEAE2
:1032EC00C1317FF55FAF50F8041CC903ECD459E72A
:1032FC00016821F001010160016841F000410160A9
:10330C00069948F62060059C0844079094E86E00E6
:10331C0000246EC0C8250AE004462846C8210023B4
:10332C00CDF80080FDF770F905440A2C2DD01BF95F
:10333C000410601CB1F1FF3FCAB2EDDC1BF80000B9
:10334C00A31CE02A00F03F0102F01F0015D31BF86C
:10335C000330F02A03F03F0343EA811104F1030325
:10336C000FD31BF8032000F00700043402F03F02D7
:10337C0042EA811141EA8042CFE741EA80121C46C1
:10338C00CBE741EA00321C46C7E7242443F2080984
:10339C0046F27E0C4FF0010BC4F20004C4F201099A
:1033AC00C0F6010C4FF0000A09E0DDF820B045F63C
:1033BC006058C0F60108BBF1040F00F09E810BEBC6
:1033CC008B00C8264042002506EB400009900FE018
:1033DC000546099930464FF4FC63CDF80080FDF7A3
:1033EC0013F946F27E0C0644132DC0F6010C2DD0B9
:1033FC001CF90510681CB1F1FF3FCAB2E8DC1CF8DF
:10340C000000AB1CE02A00F03F0102F01F0015D3B6
:10341C001CF80330F02A03F03F0343EA811105F155
:10342C0003030FD31CF8032000F00700043502F04F
:10343C003F0242EA811141EA8042CAE741EA801226
:10344C001D46C6E741EA00321D46C2E720684BF62E
:10345C00A032C0F20D022168091A91420BD22168E8
:10346C00091A91423EBF2168091A914203D2216880
:10347C00091A9142EFD30BF1010BCDF820B04FF0AC
:10348C00000BC8260BE040F618400836BBF1130FB2
:10349C00C4F202004FF4804101603FF486AF1CF986
:1034AC000B100BF10100B1F1FF3F5FFA81F806DD63
:1034BC008346B8F1200F2FD24FF07F0837E01CF86D
:1034CC0000000BF10202B8F1E00F00F03F0108F030
:1034DC001F001BD31CF80220B8F1F00F02F03F02C2
:1034EC0042EA81110BF10302C0F0FD801CF80220AE
:1034FC0000F007000BF1040B02F03F0242EA8111CD
:10350C0041EA8048B8F1200FD6D305E041EA801893
:10351C009346B8F1200FCFD3B8F5657F05D0B8F13D
:10352C00B50F08BF4FF0800801E04FF0AE080999C5
:10353C00304608221023FDF770F94FF60060CFF6E5
:10354C00FF7000EB0810B0F5C06F00F2F28046F28D
:10355C007E0C4FEA0810C0F500610022C0F6010C89
:10356C0002E00132102A8ED0002302E00133082B36
:10357C00F7D002EBD300884280F0BD80206825682C
:10358C002D1A592D0BD825682D1A592D9EBF25683B
:10359C002D1A592D03D825682D1A5A2DEFD3D9F889
:1035AC00000080070CD4D9F8000080075CBFD9F864
:1035BC0000005FEA807003D4D9F800008007EED5D4
:1035CC00C9F804A0D9F80000C0070CD1D9F8000044
:1035DC00C00704BFD9F800005FEAC07003D1D9F866
:1035EC000000C007EED0D9F8000000060CD5D9F8C1
:1035FC000000000644BFD9F800005FEA006003D564
:10360C00D9F800000006EED4D9F80400206825682B
:10361C002D1A592D0BD825682D1A592D9EBF2568AA
:10362C002D1A592D03D825682D1A5A2DEFD3206841
:10363C0025682D1A592D0BD825682D1A592D9EBF8A
:10364C0025682D1A592D03D825682D1A5A2DEFD31C
:10365C00D9F8000080070CD4D9F8000080075CBFB3
:10366C00D9F800005FEA807003D4D9F80000800715
:10367C00EED5C9F804A0D9F80000C0070CD1D9F8D0
:10368C000000C00704BFD9F800005FEAC07003D186
:10369C00D9F80000C007EED0D9F8000000060CD510
:1036AC00D9F80000000644BFD9F800005FEA0060BA
:1036BC0003D5D9F800000006EED4D9F80400206830
:1036CC0025682D1A592D3FF651AF25682D1A592D05
:1036DC009EBF25682D1A592D3FF648AF25682D1A27
:1036EC005A2DEDD342E741EA00389346B8F1200F4A
:1036FC00FFF4E2AE10E70EF0F5FA04980021039AFD
:10370C00007811600238C1B2052928BF0220C1B26D
:10371C00069800F1400246F21C30C0F60100DFE8CA
:10372C0001F01C1503110C0046F23430C0F60100F8
:10373C000CE04FF4C0610FF015F846F26430C0F69F
:10374C00010003E046F24C30C0F60100069B45F642
:10375C0018611944C3680798984706980021FEF72A
:10376C0067FB13B0BDE8000FF0BD31200EF0C9FEB1
:10377C000FF098F9F0B503AF2DE9000F83B04AF6BE
:10378C00800B242643F2080446F29B0500204FF0E0
:10379C00000AC0F2121BC4F20006C4F20104C0F607
:1037AC000105029007E0029846F29B05C0F6010560
:1037BC00032800F091814FF000084FF0C8090FE08A
:1037CC00804645F66050C821C0F601004FF478439E
:1037DC0000904846FCF718FF8144B8F10D0F2DD02E
:1037EC0015F9081008F10100B1F1FF3FCAB2E7DC8E
:1037FC00285C08F10203E02A00F03F0102F01F00F0
:10380C0014D3EB5CF02A03F03F0343EA811108F177
:10381C0003030FD3EA5C00F0070008F1040802F080
:10382C003F0242EA811141EA8042CAE741EA801232
:10383C009846C6E741EA00329846C2E730683168DC
:10384C00091A59450BD23168091A59453EBF3168DE
:10385C00091A594503D23168091A5945EFD3029810
:10386C004FF0000B4FF0C809013002900CE040F60D
:10387C00184009F10809BBF10D0FC4F202004FF416
:10388C008041016000F00E8146F29B030BF10100B8
:10389C00C0F6010313F90B10B1F1FF3F5FFA81F889
:1038AC0004DD8346B8F1200F29D331E0185C0BF10D
:1038BC000202B8F1E00F00F03F0108F01F0018D32E
:1038CC009A5CB8F1F00F02F03F0242EA81110BF161
:1038DC00030217D39A5C00F007000BF1040B02F003
:1038EC003F0242EA811141EA8048B8F1200F06D329
:1038FC000EE041EA80189346B8F1200F08D24FF041
:10390C007F0810E041EA00389346B8F1200FF6D357
:10391C00B8F5657F05D0B8F1B50F08BF4FF080083A
:10392C0001E04FF0AE084846C82108221023FCF7EE
:10393C0074FF4FF60060CFF6FF7000EB0810B0F587
:10394C00C06F00F2CD804FEA0810C0F50061002274
:10395C0003E00132102A3FF48AAF002302E0013366
:10396C00082BF6D002EBD300884280F0B38030688D
:10397C0035682D1A592D0BD835682D1A592D9EBF27
:10398C0035682D1A592D03D835682D1A5A2DEFD3B9
:10399C002068800709D4206880075CBF20685FEA34
:1039AC00807002D420688007F2D5C4F804A0206887
:1039BC00C00709D12068C00704BF20685FEAC07047
:1039CC0002D12068C007F2D02068000609D5206813
:1039DC00000644BF20685FEA006002D5206800063C
:1039EC00F2D46068306835682D1A592D0BD83568BB
:1039FC002D1A592D9EBF35682D1A592D03D83568AF
:103A0C002D1A5A2DEFD3306835682D1A592D0BD835
:103A1C0035682D1A592D9EBF35682D1A592D03D88E
:103A2C0035682D1A5A2DEFD32068800709D42068E9
:103A3C0080075CBF20685FEA807002D42068800732
:103A4C00F2D5C4F804A02068C00709D12068C007CB
:103A5C0004BF20685FEAC07002D12068C007F2D0B2
:103A6C002068000609D52068000644BF20685FEA7C
:103A7C00006002D520680006F2D4606830683568B2
:103A8C002D1A592D3FF66BAF35682D1A592D9EBF47
:103A9C0035682D1A592D3FF662AF35682D1A5A2DFF
:103AAC00EDD35CE730684AF6800BC0F2121B31682C
:103ABC00091A5945BFF477AE3168091A59453EBF0A
:103ACC003168091A5945BFF46EAE3168091A594567
:103ADC00EDD368E60EF006F903B0BDE8000FF0BDBB
:103AEC004FF4C0610EF03EFEF0B503AF4DF8048DFF
:103AFC00A0B0002110221428069201AACDE90311CE
:103B0C00CDE901110791059200F29D8014AB0C9345
:103B1C0040F2472346F64806C0F60003C0F60106FD
:103B2C00119312AB109342F28563C0F6010302228B
:103B3C000F9346F25823C0F6010303EBC0000E901E
:103B4C00037946F65400C0F601000D92099250F824
:103B5C00230056F82330ADF87020ADF86820CDE97D
:103B6C00123046F20430C0F60100ADF85020089037
:103B7C002020CAF6000000F16053CDE918104FF474
:103B8C00403016900EA844F6C4510B920A9005A82A
:103B9C0008AA1F930123C0F601011E930EF0B5FC79
:103BAC0000284BD1DDE906128A4249D8059914A8A0
:103BBC000EF032FE1498012840D01698D0B3159E02
:103BCC0045F2E4681A24C0F6010835180EE043EA01
:103BDC008112861C20464FF495714FF6FF73CDF879
:103BEC000080FCF711FD0444AE4223D0304616F998
:103BFC00011BB1F1FF3FCAB2ECDC437802F01F01AC
:103C0C00E02A03F03F03E2D38678F02A06F03F0661
:103C1C0046EA83130AD3C27801F00701061D02F0AD
:103C2C003F0242EA831242EA8142D3E743EA01327D
:103C3C00C61CCFE720B05DF8048BF0BD0EF032FF50
:103C4C0010460EF08FFD15210EF04CF8F0B503AFB9
:103C5C002DE9000F81B02DED0A8BBCB0044647F264
:103C6C00A0102058002800F0FE8648F2F86040F2C0
:103C7C008E3120440390D0E9005847F23250204452
:103C8C0004F5BC4610F036FB47F6872040F2C7110E
:103C9C00204410F02FFB47F6DC7040F28E312044AC
:103CAC0010F0BCFB48F2315040F2C711204410F028
:103CBC0021FB314647F64E400296204451F8186BD2
:103CCC00059047F2A410002E2044079104940C9008
:103CDC0000F03585049840300A90284610F072FBAD
:103CEC00044640460D4610F06DFB721E2B46B2F595
:103CFC007A7F28BF4FF47A720132B6F57A7F88BF8B
:103D0C004FF47A720692224610940F9510F0DEFA58
:103D1C009FEDD68B9FEDD79B9FEDD8ABCDE90810CF
:103D2C000120002107E00E9906988142084638BF11
:103D3C00013080F004850E90C8087C2800F2D086F3
:103D4C0001EB41000A990DF1640911F8302001EBE7
:103D5C00C00041680B9181681191C1680D91D0E947
:103D6C00044190F901001691402117904846189291
:103D7C0010F054FB204610F025FBDDE90F3210F05B
:103D8C00A5FA53EC182BCDE914230FF080FEDDF8C7
:103D9C0024B0DDF820805A46434610F0BEFB5AECA6
:103DAC00196B3246534610F0C6F8B0EE491AF0EED5
:103DBC00691A41EC100B10F0D4FDB0EE481AF0EE7D
:103DCC00681A10F05FF854EC105B00202B90402028
:103DDC00CDE929902846214610F077FB81462846EC
:103DEC002146324653460FF0DDFF53EC1A2B0028C8
:103DFC0008BF814628462146CDE9122310F00CF865
:103E0C000446169810F0DEFADDE90F3210F05EFA77
:103E1C00DDE914230FF03BFE5A46434610F07DFBC0
:103E2C003246534610F087F8B0EE491A002CF0EEEB
:103E3C00691A18BF4FF0FF3941EC100B10F091FDCF
:103E4C00B0EE481AF0EE681A10F01CF855EC104B56
:103E5C002046294610F039FB834620462946324637
:103E6C0053460FF09FFF002808BF8346DDE912235D
:103E7C00204629460FF0D0FF179B002818BF4FF0A3
:103E8C00FF3BCDF858901899ABEB0905DAB2DFE897
:103E9C0011F091001800AF00180020005701A40089
:103EAC0072018A0068017C008100340120006500E9
:103EBC0099003500B9006201B001F90022017E01C0
:103ECC00CB0129A8002304F07BF900204FF0200A35
:103EDC00D9E102F001008DF8D000002046F2EC711F
:103EEC003A9001203790C0F6010139902EA83890F5
:103EFC0042F6C120C0F60100369143E0012036A9FC
:103F0C0033902F90319042F6F320C0F6010032919D
:103F1C0035902CA8349034A830902020CEF6001088
:103F2C0046F2D4713B9000203A904FF40030C0F62A
:103F3C000101389002208DF8B0202E9144F6C45126
:103F4C00ADF8D80029A82EAAC0F601010EF0DDFAB2
:103F5C00002840F094854FF0500A93E1119846F2F6
:103F6C00EC713590C0F601010B98349000203A901A
:103F7C000120379039902EA8389040F24720369186
:103F8C00C0F600002F9034A85FE002202B9045F281
:103F9C00207003E002202B9045F22020ADF8640045
:103FAC004FF0100A6EE144F22010C4F64330199021
:103FBC000420E8E044F22050C7F26D00199047F657
:103FCC00741006E045F22020C7F26530199047F2D4
:103FDC006540ADF86800062021E145F22030C6F6B8
:103FEC007470199070208DF8680005202B90FDE0FE
:103FFC0029A8002304F0E4F8DDF814904FF0300AFF
:10400C00012042E1002046F2EC713A9001203790F9
:10401C00C0F60101399034A8389040F24720C0F620
:10402C000000369135902EA83490D0074FF00B003D
:10403C0045F6A85118BF08202F9046F60400C0F68C
:10404C000101C0F6010018BF084644F6C4512E9079
:10405C0029A836AAC0F601010EF057FA002800F084
:10406C00DF8000F00CBD00BF00BF00BF00000000EF
:10407C0000607C4000000000000000000000E0FF39
:10408C00FFFFEF41012036A933902F90319042F67B
:10409C00F320C0F60100329135902CA8349034A84E
:1040AC0030902020CEF6001046F2D4713B900020C8
:1040BC00C0F601013A904FF400302E9144F6C451F1
:1040CC00389002208DF8B020ADF8D80029A8C0F6A1
:1040DC0001012EAACFE0012036A9329146F2D4710B
:1040EC003390C0F601012F90319042F6F320C0F6C8
:1040FC0001008DF8B0202E915CE0002046F2FC719E
:10410C003A9001203790C0F6010139902EA83890D2
:10411C0042F6F320C0F601008DF8D0202F9034A881
:10412C00369144F6C4512E9029A836AAC0F6010146
:10413C000EF0EBF9002840F0A2844FF0400AA1E009
:10414C0045F22030C6F27410199047F27240ADF867
:10415C006800062017E0119A29A80D9B04F030F88E
:10416C005EE044F620604FF0200AC4F6413019900E
:10417C0004202B9086E053208DF8660045F2202019
:10418C00ADF8640003202B904FF0500A7AE01198A0
:10419C0036A92C900D982D900120329146F2D471B5
:1041AC00C0F6010133902F90319042F65F402E9172
:1041BC00C0F6010035902CA8349034A83090202003
:1041CC00CEF6001044F6C4513B9000203A904FF4C8
:1041DC00003038900220ADF8D80029A82EAAC0F6DD
:1041EC0001010EF092F9002840F049844FF0600A6A
:1041FC0048E046F27650C7F67210CDF86F0046F2E2
:10420C006530C7F26F601B9047F26540C5F2202005
:10421C001A9045F22020C7F2653019900F202B9090
:10422C004FF0200A00202EE046F678000022C0F65F
:10423C0001003A92012246F6600150F82300C0F6C4
:10424C0001013792399234AA389240F2472251F840
:10425C002310C0F6000235922EAA46F2EC73CDE97B
:10426C002E1044F6C451349229A836AAC0F6010384
:10427C00C0F6010136930EF048F9002840F0FF8398
:10428C004FF0300A0120DDF83090DDE92A148C4221
:10429C0000F2F783DDF8A4802246119036A841463F
:1042AC000EF0BAFA3698012800F0E983389800EB42
:1042BC00C000854264D2169883457FF634AD169BB8
:1042CC0040F2C71009EB0302B3F5E47F28BF184690
:1042DC00C11A09EB430302F6E60203F565730029E4
:1042EC0000F0F0834FF6FF7623F8066C12F8036C9F
:1042FC0006F00F0646EA0A0602F8036C169E013613
:10430C005E453FF410AD864200F0DC834FF6FF763D
:10431C0023F8046C12F8026C06F00F0646EA0A0643
:10432C0002F8026C169E02365E453FF4FCAC8642E7
:10433C0000F0C8834FF6FF7623F8026C12F8016C7C
:10434C0006F00F0646EA0A0602F8016C169E0336C2
:10435C005E453FF4E8AC864200F0B4834FF6FF763E
:10436C00043923F8086B167806F00F0646EA0A069D
:10437C0002F8046B169E043616965E45AFD1D2E455
:10438C001698834557D9169D40F2C71009EB0502C4
:10439C00B5F5E47F09EB450328BF2846411B02F61F
:1043AC00E60203F56573002900F08C834FF6FF7667
:1043BC0023F8066C12F8036C06F00F0646EA0A06A0
:1043CC0002F8036C6E1C5E4535D0864200F07A8391
:1043DC004FF6FF7623F8046C12F8026C06F00F0609
:1043EC0046EA0A0602F8026CAE1C5E4523D08642F1
:1043FC0000F068834FF6FF7623F8026C12F8016C1C
:10440C0006F00F0646EA0A0602F8016CEE1C5E4541
:10441C0011D0864200F056834FF6FF76043523F810
:10442C00086B043916785D4506F00F0646EA0A0655
:10443C0002F8046BB7D136A8414622460EF0ECF9CF
:10444C003698012800F01B83389900293FF46BAC97
:10445C00379809F28E3301441291064609F6E301AE
:10446C00139107E0149E083112981691864230463B
:10447C003FF459AC16F9012BB2F1FF3FD1B205DD77
:10448C002029149625D24FF4FE6E37E0467801F0C1
:10449C001F02E02906F03F0615D38578F02905F0B8
:1044AC003F0545EA8616C0F03D81C17802F007024F
:1044BC0001F03F0141EA8611061D41EA82412029A3
:1044CC001496E0D305E046EA8211861C2029149646
:1044DC00D9D3B52910D0B1F5657F00F007834FF61D
:1044EC000060CFF6FF7000EB0110B0F5C06F00F26A
:1044FC00FF824FEA011E03E04FF4006EAEF5007030
:10450C0045F25F720121C0F6010210441790169813
:10451C00C41D00F1060C451D061DC21C00F102094C
:10452C0000F101082046CEF500644FF0000E1894FF
:10453C00159005E00EF1010EBEF1100F00F0928007
:10454C00189C744500F0A58201FA0EF46FEA040A77
:10455C00179C14F90E40B4F1FF3F17DD5FFA84FB92
:10456C005FEA4B6424D45FEA8B642ED45FEACB649D
:10457C0038D45FEA0B7442D45FEA4B744CD45FEAD4
:10458C008B7456D45FEACB74D4D060E01698B0F537
:10459C00E37F00F2978233F8101001EA0A0123F846
:1045AC001010012115985FFA84FB5FEA4B64DAD591
:1045BC00B8F5E37F00F2858233F8184004EA0A0468
:1045CC0023F818405FEA8B64D0D5B9F5E37F00F28D
:1045DC00698233F8194004EA0A0423F819405FEAA7
:1045EC00CB64C6D5B2F5E37F00F2708233F812408B
:1045FC0004EA0A0423F812405FEA0B74BCD5B6F542
:10460C00E37F00F2548233F8164004EA0A0423F8DC
:10461C0016405FEA4B74B2D5B5F5E37F00F24C82DD
:10462C0033F8154004EA0A0423F815405FEA8B744A
:10463C00A8D5BCF5E37F00F2308233F81C4004EAC5
:10464C000A0423F81C405FEACB743FF473AFB0F557
:10465C00E37F00F2378233F8104004EA0A0423F8AF
:10466C00104067E71699DDF84CE011F1090F3FF6A1
:10467C00F9AEB1F5E37F5DD80C461EF80110119828
:10468C0001F0F00101440EF8041040F2C711884506
:10469C0050D01EF80840894504F0F00404440EF88C
:1046AC0008401FBF1EF8091001F0F00101440EF87C
:1046BC0009101CBF40F2C7118A423BD01EF80240C1
:1046CC008E4204F0F00404440EF802401FBF1EF8A2
:1046DC00061001F0F00101440EF806101CBF40F268
:1046EC00C7118D4226D01EF805208C4502F0F00231
:1046FC0002440EF805201FBF1EF80C1001F0F0014B
:10470C0001440EF80C101EBF40F2C711159A8A42D4
:10471C0010D01EF8021001F0F00101440EF8021046
:10472C0016999FE646EA0231C61C20291496FFF41E
:10473C00AAAECEE6084640F2C7110DF0D3FADDF86A
:10474C0010A047F2A01021210AEB00040C9803F0F2
:10475C001DFC0598322103F019FC039D2168286883
:10476C00013918914CD4189B00220024991801EBA4
:10477C00D1714910CE087C2E00F2AD81079E56F8FF
:10478C00216086429ABF0C464A1C4B1E9A42EDDDB4
:10479C006E680022189D1899114401EBD1714910D3
:1047AC00CB087C2B00F29781079B53F82130B34246
:1047BC002CBF0D464A1C189B28BF4B1E9A421893BF
:1047CC00E9DD0FF0FFFD8046304689460FF0FAFD1B
:1047DC0042464B4649EC1A8B0FF078FD48F20472B6
:1047EC00AC42524400F23C8141EC1B0B00920AEBB0
:1047FC00040246F6B853D01802940190189518E0AC
:10480C000FF0E0FD064668680C4641EC1A6B0FF0A1
:10481C00D9FD324623460FF059FD48F2047241ECA3
:10482C001B0B52440092029A0020029002F6B872BE
:10483C00019248F204700AEB000946F6B8509FED5D
:10484C00AF8B50449FEDAF9B9FEDB0CB06900020FB
:10485C0003E00398082800F0028102460798DDF86F
:10486C0008A0059250F82A30500004900198067860
:10487C00501C0390504618998A4538BF0130BAF540
:10488C007A7F80F001810C90184608960FF09AFD03
:10489C0053EC1A2BCDE916230FF018FD53EC182B03
:1048AC00CDE914230FF0F3F853EC1B2BCDE91223B5
:1048BC000FF033FE58EC19BB5A4643460FF03BFB46
:1048CC00B0EE491AF0EE691A41EC100B10F049F8F1
:1048DC00B0EE481AF0EE681A0FF0D4FA56EC105BF2
:1048EC00069810F80A000990109511962846314642
:1048FC000FF0EBFD0446284631465A464346CDF8A8
:10490C0034B0CDF838800FF04DFA0F900798CDF8F1
:10491C002CA050F82A000A900FF054FDDDE9162364
:10492C000FF0D4FCDDE914230FF0B1F8DDE912230C
:10493C000FF0F3FD5A4643460FF0FDFAB0EE491A5C
:10494C00F0EE691A41EC100B10F00BF8B0EE481AAF
:10495C00F0EE681A0FF096FA55EC1CAB0F985BEC66
:10496C00108B002808BF0446DDE9100152462B4687
:10497C000FF052FA00284046594618BF4FF0FF344A
:10498C000FF0A3FDDDE90D230646404659460FF016
:10499C0009FA002808BF06464046594652462B469F
:1049AC000FF03AFA002818BF4FF0FF36B4420DD979
:1049BC000B9818990A9B88420C98BFF44AAF189927
:1049CC008246099E88427FF656AF42E708980599C1
:1049DC00C043C0B2C840049900F001000843012153
:1049EC0001FA00F0B4F5E37F44D839F81410B4425E
:1049FC0041EA000129F8141038BF0134D8D2B4426E
:104A0C00D6D8B4F5E37F35D839F81410B44241EA5E
:104A1C00000129F8141038BF0134C9D2B442C7D8E8
:104A2C00B4F5E37F26D839F81410B44241EA0001FA
:104A3C0029F8141038BF0134BAD2B442B8D8B4F53E
:104A4C00E37F17D839F81410B44241EA000129F871
:104A5C00141038BF0134ABD2B442C3D9A8E7009AC2
:104A6C00104604F026FA3CB0BDEC0A8B01B0BDE850
:104A7C00000FF0BD204640F2C7110DF033F90EF0D7
:104A8C0011F820460DF06EFE50464FF47A710DF081
:104A9C0029F9189801460DF025F9604640F2C71126
:104AAC000DF020F9484640F2C7110DF01BF93046C5
:104ABC0040F2C7110DF016F9284640F2C7110DF05F
:104ACC0011F9404640F2C7110DF00CF9104640F2B6
:104ADC00C7110DF007F908464FF47A710DF002F981
:104AEC004FF47A704FF47A710DF0FCF84FF40E60BD
:104AFC004FF4C0610DF036FE00BF00BF0000000097
:104B0C0000607C4000000000000000000000E0FF9E
:104B1C00FFFFEF41F0B503AF2DE9000F89B047F26D
:104B2C00A011425848F2F86100EB010A4458DAF837
:104B3C00048052B1511EB2F57A7F00F2428145F6E3
:104B4C001862024452F8215000E0002548F6346106
:104B5C000844214602F09DFE9AF86C074FF6FF764A
:104B6C0058B9DAF854070123DAF85817DAF85C2741
:104B7C008AF86C370096FCF75AFD002D79D0204648
:104B8C000FF020FC044628460E460FF01BFC814615
:104B9C00CDF814808846204631464A4643460FF0ED
:104BAC00BCFC0646DAF85C078B4608900FF00AFC52
:104BBC009FED860B53EC102B0FF0BDF904460D4600
:104BCC003046594622462B460EF061FFCDE90610C1
:104BDC0005980FF0F7FB4A4643460FF09EFC224621
:104BEC002B460EF054FF06468B460FF06EFC9FEDE5
:104BFC00790B80463046594653EC102BCDE90423F3
:104C0C000FF0D0F89FED750B0028594653EC102B84
:104C1C00CDE9022308BF80463046DDF820B00FF006
:104C2C00FBF8002818BF4FF0FF38ABF101044445E6
:104C3C0038BFA046079DDDF81890284649460FF06E
:104C4C0044FCDDE904230646284649460FF0AAF841
:104C5C00002808BF0646DDE90223284649460FF026
:104C6C00DBF8002818BF4FF0FF36B44238BF264699
:104C7C0004E0DAF85CB70026ABF10108DAF8644717
:104C8C00B44218BF44451ED05C451CD2DAF8540718
:104C9C000021CDF820B00122DAF860970519DAF876
:104CAC0058B700912846ABEB09014B46FCF7BFFC0B
:104CBC0000200BF101010090284601224B46DDF843
:104CCC0020B0FCF7B4FCDAF86857B54218BF45457C
:104CDC0034D1B44218BFB54222D05E4520D2DAF8A6
:104CEC0054074FF6FF71DAF85827DAF86097CDF8C9
:104CFC0020B000EB060B0091A2EB0901079258467D
:104D0C0001224B46FCF793FC4FF6FF7001220090FA
:104D1C004B460798411C5846DDF820B0FCF787FC41
:104D2C00444503D0B04518BF45452BD1CAF864673C
:104D3C00CAF8688709B0BDE8000FF0BDA542C8D01D
:104D4C005D45C6D2DAF854070021DAF85827DAF8AC
:104D5C006097CDF820B000EB050B0091A2EB090198
:104D6C000792584601224B46FCF761FC00200122B9
:104D7C0000904B460798411C5846DDF820B0FCF7D4
:104D8C0056FCA6E7D845D1D2DAF854074FF6FF7B8C
:104D9C00DAF860470122DAF8589700EB0805CDF8ED
:104DAC0000B0A9EB040128462346FCF740FC09F1AE
:104DBC000101284601222346CDF800B0FCF737FC50
:104DCC00B4E708464FF47A710CF08CFF0000000039
:104DDC000000F0BF00000000000000000000E0FF39
:104DEC00FFFFEF41F0B503AF2DE9000F89B046F29C
:104DFC0084510E22C0F601018146FCF791FD45F667
:104E0C00D8514846C0F60101FCF795FF45F60860FD
:104E1C0009EB000159F800A0002048604FF6FF761E
:104E2C0040F2C110002101221E230096FCF7FFFB6B
:104E3C0045F2E4684FF0FF35C0F60108BAF1000FF7
:104E4C00CDF8008008BF40F21F454FF4C570072114
:104E5C00AC222B464FF0FF34FBF7D9FA4FF4C97054
:104E6C000721AD222B46CDF80080FBF7D0FA4FF48A
:104E7C00D170002101221E230096FCF7D8FB4FF0C5
:104E8C00FF35CDF80080BAF1010F08BF40F21F4585
:104E9C0040F2A91007218A222B46FBF7B8FA40F200
:104EAC00B11007218B222B46CDF80080FBF7AFFA0F
:104EBC0040F28310002101221E230096FCF7B7FB61
:104ECC00CDF80080BAF1020F08BF40F21F444FF436
:104EDC00E47007219C222346FBF799FA4FF4E87003
:104EEC0007219D222346CDF80080FBF790FA0C2079
:104EFC00512130224FF6FF73CDF80080FBF784FB75
:104F0C0000205121192201230096FCF790FB0C2064
:104F1C006B2131224FF6FF73CDF80080FBF774FB49
:104F2C0000206B21192201230096FCF780FB0C203A
:104F3C00852132224FF6FF73CDF80080FBF764FB1E
:104F4C0000208521192201230096FCF770FB0C2010
:104F5C009F2133224FF6FF73CDF80080FBF754FBF3
:104F6C0000209F21192201230096FCF760FB0C20E6
:104F7C00B92134224FF6FF73CDF80080FBF744FBC8
:104F8C000020B921192201230096FCF750FB0C20BC
:104F9C00D32135224FF6FF73CDF80080FBF734FB9D
:104FAC000020D321192201230096FCF740FB0C2092
:104FBC00ED2136224FF6FF73CDF80080FBF724FB72
:104FCC000020ED21192201230096FCF730FB0C2068
:104FDC0040F2071137224FF6FF73CDF80080FBF734
:104FEC0013FB002040F20711192201230096FCF755
:104FFC001EFB09F5074494F831070238C1B20529A4
:10500C0028BF022048F6206149440591C0B246F2FF
:10501C001C31C0F60101DFE800F07711030D080028
:10502C0046F23431C0F6010108E046F26431C0F6B4
:10503C00010103E046F24C31C0F60101CDE9024911
:10504C0006A84B690022059904939847DDF818903F
:10505C00B9F1000F53D046F264584FF0000BC0F674
:10506C0001080BE00BF1010B0599049B06A85A46AD
:10507C009847DDF81890B9F1000F40D00798002838
:10508C00F0D008991A2209EB000A0025514301F1CE
:10509C0060040EE043EA811200F102092846214621
:1050AC004FF6FF73CDF80080FBF7AEFA0544D145FF
:1050BC00D8D0484619F9011BB1F1FF3FCAB2EDDC5B
:1050CC00437802F01F01E02A03F03F03E2D3867815
:1050DC00F02A06F03F0646EA83130BD3C27801F0A0
:1050EC00070100F1040902F03F0242EA831242EA8E
:1050FC008142D3E743EA013200F10309CEE7DDF840
:10510C000C904FF6FF76029C18201F2101224FF4C1
:10511C0081730096FCF78BFA4846FEF797FD2068E2
:10512C00FEF7E2FC484609B0BDE8000FBDE8F040D0
:10513C00FFF7F0BCF0B503AF4DF8048DD0E9014595
:10514C00AC4216D31646621B964238BF3246804696
:10515C00002A1EBFD8F8000028440EF092FCA819B3
:10516C00A04238BF0446C8F8084000205DF8048B04
:10517C00F0BD284621460DF0F5FAF0B503AF2DE948
:10518C00000F87B0029241F2883251F802E0BEF172
:10519C00000F00F08D80846845F6C052D0E90065A0
:1051AC004FF00008029B04F0070B407C00241A44CB
:1051BC00039006F00700019205F00702049000200E
:1051CC0000254FF0000C00260592069004E04FF0ED
:1051DC00000C0136B6456BD0B6F57A7F6DD08819C8
:1051EC005FFA8CF290F8A0AF2AFA0BF000F00100F5
:1051FC009042EED00028EAD0A14651F826C0B8F172
:10520C00000F08BFE146039A08F0070008F10108F7
:10521C00002A08BF80F00700059BB8F1080F069A1A
:10522C002AFA03F303F0010303FA00F342EA030240
:10523C00049B06922AFA03F303F0010303FA00F02D
:10524C0040EA050204D015464FF0010C4C46C0E76D
:10525C00019D2868C3087C2B21D89046029A00EB4C
:10526C004000032302F8303002EBC000069B437071
:10527C002B68C0E9044C581C2860C3087C2B0ED842
:10528C0000EB4000022302F8303002EBC000046156
:10529C0080F801802B68C0F814C0581C28600020CE
:1052AC004FF000084FF0010C4C460025069090E79B
:1052BC00002007B0BDE8000FF0BD4FF47A704FF43A
:1052CC007A710CF00FFD80B56F4684B0014601F188
:1052DC00040E006800239EE804500F28CDE9023329
:1052EC00CDE900332ED86B46195C21B1002000F0BB
:1052FC00010004B080BD01210F2A195421D8985CFB
:10530C0020B1002000F0010004B080BD0120BCF1F0
:10531C000F0F985419D813F80C0020B1002000F08E
:10532C00010004B080BD0120BEF10F0F03F80C008A
:10533C000FD813F80E0080F0010000F0010004B04B
:10534C0080BD104610210CF0CDFC604610210CF0F5
:10535C00C9FC704610210CF0C5FCD4D480B56F4646
:10536C00032A2BD8DFE802F002200C1644F6BC53BB
:10537C0004220968C0F6010303604260816080BDAD
:10538C0046F2E75303228968C0F6010303604260CA
:10539C00816080BDC96846F2EA530222C0F601035F
:1053AC0003604260816080BD44F6945304224968D6
:1053BC00C0F6010303604260816080BD0021016082
:1053CC0080BDF0B503AF2DE9000F8BB0069241F212
:1053DC0088320A9189580991002900F04281D0E95C
:1053EC00000245F6C05606994FF0000B00F007007E
:1053FC0001233144059101214FF0010A01FA00F01B
:10540C000025089002F0070001FA00F00021079037
:10541C000020039004900290CDE9000008E00020E9
:10542C0003904FF0000B09980135A84200F0198148
:10543C00B5F57A7F00F01A8189460A999E46524644
:10544C00481951F8251090F8A04F079820400346B2
:10545C0018BF0123089E16EA040CE24618BF4FF051
:10546C00010A82EA0A04E4070DD0D20705D0BCF188
:10547C00000F08D10022012407E0BCF1000F02D07C
:10548C0000241A4601E0002400228046002818BFA0
:10549C004FF001088EEA0806F6074CD05FEACE768C
:1054AC001ED0002847D1DDE905465FEACB7068D1F4
:1054BC000498C0077BD02268D0087C280BD802EB5C
:1054CC004200052206F8302006EBC0002268C0E935
:1054DC000491501C206000204FF0010B0490A2E7B7
:1054EC0048B35FEACB7044D0002CDDE90546DDE91A
:1054FC0001E82BD1002A45D15FFA8EF0082859D249
:10550C005FEA0E604FF0010B009808BF0846009050
:10551C008EF00700BCF1000F18BF4FF0010C0EF11C
:10552C00010EC0B2CDF804E00CFA00F048EA000815
:10553C00CDF8088077E7002818BF012004405FEA07
:10554C00CB7016D0002CDDE905461AD02268D008A5
:10555C007C2829D802EB420007224FF0010B06F8F9
:10556C00302006EBC0002268C0E90491501C20607A
:10557C0059E7002C3FF455AF01204FF0000B04907D
:10558C0051E78AB12268D0087C283FF648AF02EB7D
:10559C004200062206F8302006EBC0002268C0E963
:1055AC000491501C20603AE74FF0010B3BE70020C0
:1055BC00049036E70398C0070ED02268D0087C28E8
:1055CC0047D802EB4200012206F8302006EBC0025D
:1055DC00009882F8018023E02268D0087C2838D813
:1055EC0002EB42000C2206F830205FFA88F206EB40
:1055FC00C00052084270D4F800E0009AC0E90421BF
:10560C000EF101022260D0087C2822D808F001009B
:10561C0002EB42020A3006F8320006EBC2024846A0
:10562C00C2E904012068421C2260D0087C2810D8F2
:10563C00082002EB4202BCF1000F18BF092006F84B
:10564C00320006EBC200C0F8109022684161501C79
:10565C00206001204FF0010B03900020CDE90100E8
:10566C00E1E600200BB0BDE8000FF0BD4FF47A70FE
:10567C004FF47A710CF036FB80B56F46D0E900011F
:10568C00401A18BF012080BD80B56F4672B1012A47
:10569C001EBF0021016080BD496846F2EC53032215
:1056AC00C0F6010303604260816080BD46F2EF5397
:1056BC0003220968C0F6010303604260816080BD6B
:1056CC00F0B503AF2DE9000F87B0D0E9006141F2CE
:1056DC008832C160B2584AB1CB087C2B00F2A6804C
:1056EC0056F821504B1C934278D203E000254B1CFA
:1056FC00934273D29142436070D2B1F57A7F039694
:10570C0080F09480B3F57A7F029561D0039CC2F14E
:10571C00000E8368661803F0070596F8A0BFA1F287
:10572C00E5360596A1F2E636069600262BFA05F329
:10573C000193A1F2E733049304F6A47301EB0E0C6E
:10574C001CF102024FD003EB010919F8032C82EA79
:10575C000B02EA40D20746D101EB0608069C08F181
:10576C000202426014EB060A32D01CF103043CD056
:10577C0019F8024C84EA0B04EC40E40735D1059C83
:10578C0008F103024260A41922D01CF104042CD0AD
:10579C0019F8014C84EA0B04EC40E40725D108F11C
:1057AC000402B8F5797F426012D01CF105041CD0BC
:1057BC005C5C84EA0B04EC40E40716D108F10502AA
:1057CC004260049A043604330EF1040E9219B5D1DA
:1057DC004FF47A704FF47A710CF084FA0F2007B002
:1057EC00BDE8000FF0BD31444A1CDDE90263D1086D
:1057FC007C2920D80199C90704D00C2007B0BDE83A
:10580C00000FF0BD53F82210026A891B914204D29A
:10581C00032007B0BDE8000FF0BD426A0E20914294
:10582C0088BF042007B0BDE8000FF0BD08464FF458
:10583C007A710CF057FA10464FF47A710CF052FA58
:10584C00F0B503AF2DE9000F8BB0D0E90062036A0D
:10585C00019341F28833F4588168C260002C00F047
:10586C008F8001F007080121CDE9036401FA08F1EA
:10587C00029106F57A61079106F6A17106916142D3
:10588C0005911146D2087C2A00F285804A1CA2425E
:10589C0076D256F82130B2F57A7F42600893079B96
:1058AC005E5C72D0DDE905EBA1F2E63AA1F2E732DB
:1058BC004FF000090992A1F2E5320A9201EB0E05B4
:1058CC00AA1C43D01BF80120724022FA08F2D2071E
:1058DC003CD101EB09031AEB090403F1020242600B
:1058EC0053D0EC1C35D00BEB010C9CF801407440F0
:1058FC0024FA08F4E4072CD10A9CDA1C426014EB5D
:10590C00090442D02C1D24D09CF80240744024FA87
:10591C0008F4E4071DD11A1DB3F5797F426034D029
:10592C006C1D16D09CF80350754025FA08F5ED0750
:10593C000FD15A1D4260099A09F104090BF1040BAD
:10594C000EF1040E12EB0902B8D11EE001EB0902B4
:10595C000132049CD3087C2B22D8029B1E42039E4E
:10596C007FF48FAF56F82230089D5B1B019DAB4234
:10597C00FFF487AF416001200BB0BDE8000FF0BD14
:10598C0000200BB0BDE8000FF0BD4FF47A704FF45F
:10599C007A710CF0A7F908464FF47A710CF0A2F961
:1059AC0010464FF47A710CF09DF9F0B503AF2DE968
:1059BC00000F9DB0D0E90086CDE90C2141F2883171
:1059CC0058F801A0BAF1000F06D0B6F57A7F80F036
:1059DC00168258F8269001E04FF000090C9A4144C9
:1059EC000D9B029145F6C051194403690691917AB9
:1059FC0009934369D2E9005CC90792F808E0527A2E
:105A0C00059208F6A4721393D0E90634079208F6AF
:105A1C00A1720B9208F57A621794046A0A92826852
:105A2C000894046B02F0070B0193234400934B463C
:105A3C0004940391CDF85490CDF85080BAF1000F36
:105A4C0006D0F1087C2900F2D98158F8261000E024
:105A5C0000211691711C51453CBF4160564580F0A8
:105A6C009281B6F57A7FCDF860A0CDE9103ECDE9F4
:105A7C000EC51C9680F0AF81B1F57A7F00F0A38142
:105A8C001C9900240A9ADDF82C90555C25FA0BF22F
:105A9C001292A1F2E7321992A1F2E532A1F2E631AB
:105AAC001B9118991A92C1F1000842461C9EB1181C
:105ABC0019F806A08B1C4FD08AEA050323FA0BF3C6
:105ACC00DB0749D106EB040C1B9E0CF1020343606F
