:020000040800F2
:1000000000000320AD010008C52D0108114E0108B4
:10001000C52D0108C52D0108C52D010800000000EF
:10002000000000000000000000000000C52D0108D5
:10003000C52D010800000000C52D0108C52D0108CF
:10004000C52D0108C52D0108C52D0108C52D0108C4
:10005000C52D0108C52D0108C52D0108C52D0108B4
:10006000C52D0108C52D0108C52D0108C52D0108A4
:10007000C52D0108C52D0108C52D0108C52D010894
:10008000C52D0108C52D0108C52D0108C52D010884
:10009000C52D0108C52D0108C52D0108C52D010874
:1000A000C52D0108C52D0108C52D0108C52D010864
:1000B000C52D0108C52D0108C52D0108C52D010854
:1000C000C52D0108C52D0108C52D0108C52D010844
:1000D000C52D0108C52D0108C52D0108C52D010834
:1000E000C52D0108C52D0108C52D0108C52D010824
:1000F000C52D0108C52D0108C52D0108C52D010814
:10010000C52D0108C52D0108C52D0108C52D010803
:10011000C52D0108C52D0108C52D0108C52D0108F3
:10012000C52D0108C52D0108C52D0108C52D0108E3
:10013000C52D0108C52D0108C52D0108C52D0108D3
:10014000C52D0108C52D0108C52D0108C52D0108C3
:10015000C52D0108C52D0108C52D0108C52D0108B3
:10016000C52D0108C52D0108C52D0108C52D0108A3
:10017000C52D0108C52D0108C52D0108C52D010893
:10018000C52D0108C52D0108C52D0108C52D010883
:10019000C52D0108C52D0108C52D0108C52D010873
:0C01A000C52D0108C52D0108C52D010862
:1001AC0012F00DFE0E480F490022814201D004C00E
:1001BC00FBE70D480D490E4A814202D008CA08C01F
:1001CC00FAE70C484FF47001026842EA010202603F
:1001DC00BFF34F8FBFF36F8F08F0FAFF00DE000004
:1001EC00000000200400002000000020000000207F
:1001FC00646B010888ED00E0EAB180B56F4601EB55
:10020C00020C44F60002C4F2000203E00131536018
:10021C0061450ED00B7810680006F7D41068000604
:10022C005CBF10685FEA0060F0D410680006F2D57D
:10023C00ECE7BDE880400020704780B56F460B4668
:10024C00D0E900121846BDE8804012F09BB8F0B51A
:10025C0003AF4DF8048D82B08046002080290190B8
:10026C0003D201248DF8041033E0B1F5006F09D2EC
:10027C000224084664F39F108DF80500C02040EA64
:10028C00911024E002200A4660F39F12B1F5803FE2
:10029C000DD28DF806208A0960F39F12E02040EA07
:1002AC0011308DF805208DF80400032411E08DF831
:1002BC0007208A0960F39F128DF806200A0B04248C
:1002CC0060F39F12F02040EA91408DF805208DF8E4
:1002DC000400D8E90156B54215D309D0D8F800006E
:1002EC0001A9AA1B3044944238BF224613F00EFCDD
:1002FC003019A84238BF0546C8F80850002002B093
:10030C005DF8048BF0BD3046294612F05CFA80B5DE
:10031C006F4681B0002080290090684602D200F11F
:10032C00010C37E0B1F5006F0BD202220B4662F3E1
:10033C009F13C02200F1020C8DF8013042EA91119A
:10034C0028E0B1F5803F10D202220B4662F39F13D6
:10035C008DF802308B0900F1030C62F39F13E0223D
:10036C008DF8013042EA113114E002220B4662F39F
:10037C009F138DF803308B0900F1040C62F39F136B
:10038C008DF802300B0B62F39F13F0228DF80130C5
:10039C0042EA914144F600028DF800106946C4F21D
:1003AC00000203E00131536061450ED00B781068F8
:1003BC000006F7D4106800065CBF10685FEA0060A6
:1003CC00F0D410680006F2D5ECE7002001B080BD37
:1003DC0080B56F460A4644F66461C0F60101BDE87B
:1003EC00804012F0BAB880B56F460A4644F64C61AC
:1003FC00C0F60101BDE8804012F0AFB880B56F4681
:10040C00C00708BF80BDBDE8804013F043BAF0B50B
:10041C0003AF2DE9000F83B0BC689A469046D4E92F
:10042C0002B52B465A4607F00CFFA8F120000BF141
:10043C0007016843C9080191484361688142C0F0D3
:10044C00DF80002D18BFBBF1000F0BD140F6184018
:10045C004FF48041C4F202000160584603B0BDE87D
:10046C00000FF0BD22682426091A002302EB0009B4
:10047C0043F20802C4F20006C4F201024FF007086E
:10048C00009504E0029B009D0133AB42DED0019845
:10049C000025029303FB00FE02E001355D45F1D01F
:1004AC000EEBD500884280F0AD8019F8000028EAE8
:1004BC000503D6F800C0D84000F00100404200EA25
:1004CC000A003368A3EB0C03592B0ED83368A3EB4B
:1004DC000C03592B9EBF3368A3EB0C03592B04D888
:1004EC003368A3EB0C035A2BEBD313689B0709D48B
:1004FC0013689B075CBF13685FEA837302D41368AD
:10050C009B07F2D583B21B0A53601368DB0709D132
:10051C001368DB0704BF13685FEAC37302D1136867
:10052C00DB07F2D013681B0609D513681B0644BF02
:10053C0013685FEA036302D513681B06F2D4536891
:10054C0033683468E41A592C0BD83468E41A592CE3
:10055C009EBF3468E41A592C03D83468E41A5A2C18
:10056C00EFD333683468E41A592C0BD83468E41A86
:10057C00592C9EBF3468E41A592C03D83468E41AF9
:10058C005A2CEFD313689B0709D413689B075CBFE5
:10059C0013685FEA837302D413689B07F2D5C0B269
:1005AC0050601068C00709D11068C00704BF1068FC
:1005BC005FEAC07002D11068C007F2D01068000664
:1005CC0009D51068000644BF10685FEA006002D5C8
:1005DC0010680006F2D45068306833681B1A592B27
:1005EC003FF65BAF33681B1A592B9EBF33681B1A3F
:1005FC00592B3FF652AF33681B1A5A2BEDD34CE7ED
:10060C0012F0E1F811F092FBF0B503AF2DE9000FF9
:10061C0083B0BC68202A03D27F22267C46B913E023
:10062C00B2F5657F0CD0B52A08BF8022267C5EB15E
:10063C00BC6003B0BDE8000FBDE8F040FFF7E7BEBB
:10064C00AE22267C002EF3D1D4E9029615469A46AA
:10065C0033464A4607F0F5FD002E019618BFB9F156
:10066C00000F0CD140F618404FF48041C4F2020048
:10067C00016009F1010003B0BDE8000FF0BDA5F168
:10068C002000D4E90081242643F2080409FB00FB76
:10069C000022C4F20006C4F2010403E0DDE9010209
:1006AC008242DFD002F0070001230132029203FAEA
:1006BC0000FC002301E04B45F0D003EB0B0088421B
:1006CC0080F0A98018F800000133D6F800E000EAA9
:1006DC000C003568A5EB0E05592D0ED83568A5EB29
:1006EC000E05592D9EBF3568A5EB0E05592D04D866
:1006FC003568A5EB0E055A2DEBD32568AD0709D44B
:10070C002568AD075CBF25685FEA857502D425684E
:10071C00AD07F2D5002818BF504685B22D0A65608A
:10072C002568ED0709D12568ED0704BF25685FEA48
:10073C00C57502D12568ED07F2D025682D0609D5BF
:10074C0025682D0644BF25685FEA056502D5256836
:10075C002D06F2D4656835683268521B592A0BD8BD
:10076C003268521B592A9EBF3268521B592A03D831
:10077C003268521B5A2AEFD335683268521B592AF9
:10078C000BD83268521B592A9EBF3268521B592A09
:10079C0003D83268521B5A2AEFD32268920709D425
:1007AC00226892075CBF22685FEA827202D42268D8
:1007BC009207F2D5C0B260602068C00709D12068EA
:1007CC00C00704BF20685FEAC07002D12068C00770
:1007DC00F2D02068000609D52068000644BF2068C6
:1007EC005FEA006002D520680006F2D460683068C9
:1007FC003268121A592A3FF65EAF3268121A592A19
:10080C009EBF3268121A592A3FF655AF3268121A37
:10081C005A2AEDD34FE711F089FAF0B503AF2DE961
:10082C00000F81B083460D46914600240A2059469C
:10083C002A460123009408F00EFC0BF10106A9F1E5
:10084C0002080A20012231464346009408F003FCBA
:10085C0005F10900314601224346009408F0FBFBE8
:10086C0009EB0B002A46411E0A200123009408F0D4
:10087C00F2FBA5F1020A4FF6FF7000900B203146F7
:10088C00524601234FF6FF7408F0E5FB0094A9F1E2
:10089C0004060BF102040B2001223346214608F01A
:1008AC00DAFB4FF6FF702146009005F1080001229B
:1008BC0033464FF6FF7908F0CEFB08EB0B010B200B
:1008CC0052460123CDF8009008F0C5FB01B0BDE8FD
:1008DC00000FF0BDF0B503AF2DE9000F83B08246D9
:1008EC0045F614605AF80090504445F26C7B019028
:1008FC00282001EB02080E4600EB09140725C0F670
:10090C00010B02920DE043EA8112861C2846214617
:10091C004FF6FF73CDF800B0FFF776FE0544464561
:10092C0023D0304616F9011BB1F1FF3FCAB2EDDC02
:10093C00437802F01F01E02A03F03F03E3D38678EB
:10094C00F02A06F03F0646EA83130AD3C27801F078
:10095C000701061D02F03F0242EA831242EA81427D
:10096C00D4E743EA0132C61CD0E7B9F10F0F9FBFA1
:10097C0002980AF80900019908689FBF01300860C5
:10098C0003B0BDE8000F98BFF0BD4846102111F030
:10099C00CDF9F0B503AF2DE9000F81B045F6805BC2
:1009AC008D189246894680460726C0F6010B0C46E8
:1009BC000DE043EA8112841C304607214FF6FF7389
:1009CC00CDF800B0FFF720FE0644AC4223D0204601
:1009DC0014F9011BB1F1FF3FCAB2EDDC437802F010
:1009EC001F01E02A03F03F03E3D38478F02A04F0DC
:1009FC003F0444EA83130AD3C27801F00701041DB3
:100A0C0002F03F0242EA831242EA8142D4E743EA0F
:100A1C000132C41CD0E7D8F83400A0EB0A0100293D
:100A2C0009DD0020CA0000904FEACA0007300721F8
:100A3C00102308F010FBC8E90C9A01B0BDE8000FB8
:100A4C00F0BDD4D4B0B502AF82B00446C8B2DFE872
:100A5C0010F011001601B200E40067002F016101D3
:100A6C00FD00930199007A014E0080004801350089
:100A7C00CB001C00002040F22911009020461022CF
:100A8C00102308F0E8FA02B0B0BD45F26C752046B0
:100A9C00C0F6010540F229118E224FF6FF73009526
:100AAC00FFF7B5FC009504F1080040F229118F22E4
:100ABC004FF6FF73FFF7ABFC02B0B0BD45F26C759F
:100ACC002046C0F6010540F2291190224FF6FF7323
:100ADC000095FFF79CFC009504F1080040F22911E9
:100AEC0091224FF6FF73FFF792FC02B0B0BD45F2B6
:100AFC006C752046C0F6010540F229119E224FF676
:100B0C00FF730095FFF783FC009504F1080040F299
:100B1C0029119F224FF6FF73FFF779FC02B0B0BD8D
:100B2C0045F26C752046C0F6010540F2291196225B
:100B3C004FF6FF730095FFF76AFC009504F108006F
:100B4C0040F2291197224FF6FF73FFF760FC02B0B9
:100B5C00B0BD45F26C752046C0F6010540F2291176
:100B6C008C224FF6FF730095FFF751FC009504F1B2
:100B7C00080040F229118D224FF6FF73FFF747FC56
:100B8C0002B0B0BD45F26C752046C0F6010540F2CE
:100B9C0029119A224FF6FF730095FFF738FC009548
:100BAC0004F1080040F229119B224FF6FF73FFF766
:100BBC002EFC02B0B0BD45F26C752046C0F60105A6
:100BCC0040F22911A0224FF6FF730095FFF71FFC8E
:100BDC00009504F1080040F22911A1224FF6FF7391
:100BEC00FFF715FC02B0B0BD45F26C752046C0F69F
:100BFC00010540F22911AA224FF6FF730095FFF769
:100C0C0006FC009504F1080040F22911AB224FF6C6
:100C1C00FF73FFF7FCFB02B0B0BD45F26C752046CC
:100C2C00C0F6010540F2291188224FF6FF7300959A
:100C3C00FFF7EDFB009504F1080040F22911892221
:100C4C004FF6FF73FFF7E3FB02B0B0BD45F26C75D6
:100C5C002046C0F6010540F22911A6224FF6FF737B
:100C6C000095FFF7D4FB009504F1080040F2291120
:100C7C00A7224FF6FF73FFF7CAFB02B0B0BD45F2D7
:100C8C006C752046C0F6010540F2291198224FF6EA
:100C9C00FF730095FFF7BBFB04F1080040F229112C
:100CAC00992200954FF6FF73FFF7B1FB02B0B0BD70
:100CBC0045F26C752046C0F6010540F229119222CE
:100CCC004FF6FF730095FFF7A2FB009504F10800A7
:100CDC0040F2291193224FF6FF73FFF798FB02B0F5
:100CEC00B0BD45F26C752046C0F6010540F22911E5
:100CFC00A8224FF6FF730095FFF789FB009504F1CE
:100D0C00080040F22911A9224FF6FF73FFF77FFB71
:100D1C0002B0B0BD45F26C752046C0F6010540F23C
:100D2C002911A4224FF6FF730095FFF770FB009575
:100D3C0004F1080040F22911A5224FF6FF73FFF7CA
:100D4C0066FB02B0B0BD45F26C752046C0F60105DD
:100D5C0040F2291194224FF6FF730095FFF757FBD1
:100D6C00009504F1080040F2291195224FF6FF730B
:100D7C00FFF74DFB02B0B0BD45F26C752046C0F6D6
:100D8C00010540F2291186224FF6FF730095FFF7FB
:100D9C003EFB009504F1080040F2291187224FF622
:100DAC00FF73FFF734FB02B0B0BDF0B503AF4DF8E5
:100DBC00048DC46A002C55D0866A0D46804609788D
:100DCC003078814202D0EF20FFF73CFE012C4DD051
:100DDC006978707881421CBF4FF48770FFF732FE40
:100DEC00022C47D0A978B07881421CBF40F22D105C
:100DFC00FFF728FE032C41D0E978F07881421CBF24
:100E0C004FF4A670FFF71EFE042C3BD029793079E5
:100E1C0081421CBF40F26B10FFF714FE052C35D03D
:100E2C006979707981421CBF4FF4C570FFF70AFED7
:100E3C00062C2FD0A979B07981421CBF40F2A910A1
:100E4C00FFF700FE072C29D0E979F07981421CBF0D
:100E5C004FF4E470FFF7F6FD0820C8E90A505DF87E
:100E6C00048BF0BD0020214610F060FF01202146CC
:100E7C0010F05CFF0220214610F058FF03202146A1
:100E8C0010F054FF0420214610F050FF052021469D
:100E9C0010F04CFF0620214610F048FF0720214699
:100EAC0010F044FFF0B503AF2DE9000F85B00446F8
:100EBC0048F64C6004EB000845F60C6004EB000BA4
:100ECC000E4698F85000DFE810F09C0161022B00F0
:100EDC000700070007000700204600F00EFC88F80A
:100EEC005060F0B2DFE810F007001303CD0078017A
:100EFC000F0050036503204605B0BDE8000FBDE8A8
:100F0C00F04002F0CBBF46F2D4012046C0F60101FE
:100F1C000B22FFF73EFD46F2EC11C0F6010167E132
:100F2C0000252C202E2120221023009508F093F868
:100F3C000A20292164220223009508F08CF80A204B
:100F4C002B2102221623009508F085F86C202B210A
:100F5C0002221623009508F07EF80A204121642213
:100F6C000223009508F077F8302052211822102324
:100F7C00009508F070F80A204D2164220223009598
:100F8C0008F069F80A204F2102221623009508F078
:100F9C0062F86C204F2102221623009508F05BF8B2
:100FAC000A20652164220223009508F054F83020B1
:100FBC00762118221023009508F04DF80A20712193
:100FCC0064220223009508F046F80A2073210222BD
:100FDC001623009508F03FF86C207321022216238B
:100FEC00009508F038F80A20892164220223009524
:100FFC0008F031F820209A2138221023009508F0AF
:10100C002AF80A20952164220223009508F023F87F
:10101C000A20972102221623009508F01CF86C2058
:10102C00972102221623009508F015F80A20AD210D
:10103C0064220223009508F00EF82C20BE212022F9
:10104C001023009508F007F80A20B9216422022326
:10105C00009508F000F80A20BB2102221623009507
:10106C0007F0F9FF6C20BB2102221623009507F034
:10107C00F2FF0A20D12164220223009507F0EBFF36
:10108C002DE746F2F0512046C0F601011722FFF77A
:10109C0080FC45F620612046C0F60101FFF785FE75
:1010AC00DBF8000045F6805B4FF00009C0F6010B41
:1010BC00039025E0950040F21F460A20642202238B
:1010CC00009607F0C8FF05F12B040A200222162314
:1010DC002146009607F0BFFF6C2021460222162302
:1010EC00009607F0B8FF05F141010A2064220223A3
:1010FC00009607F0B0FF09F10109B9F1050F67D0AF
:10110C0046F2C85009EBC901C0F60100049100EB8E
:10111C00C9004068002849D046F2C851049AC0F66C
:10112C00010151F839A02E2101EB82044FF6FC711C
:10113C000AEB0008C7F6FF7101EA8000C0F13C051C
:10114C000EE043EA811200F1020A284621464FF6CE
:10115C00FF73CDF800B0FFF757FA0544C24525D010
:10116C0050461AF9011BB1F1FF3FCAB2EDDC4378CE
:10117C0002F01F01E02A03F03F03E2D38678F02A45
:10118C0006F03F0646EA83130BD3C27801F0070141
:10119C0000F1040A02F03F0242EA831242EA814261
:1011AC00D3E743EA013200F1030ACEE7049A29207F
:1011BC0000EB8201039881453FF47CAF0846642123
:1011CC001A22FFF72AFB09F10109B9F1050F97D192
:1011DC0005B0BDE8000FF0BD46F2C8012046C0F6D0
:1011EC0001010C22FFF7D5FB46F21401C0F60101F8
:1011FC002046062205B0BDE8000FBDE8F04000F027
:10120C00EABA47F2325040F28E312044049613F081
:10121C00B5F847F6872040F2C711204413F0AEF81A
:10122C0047F6DC7040F28E31204413F03BF948F263
:10123C00315040F2C711204413F0A0F847F2A4102B
:10124C002121204405F0FEFE47F64E403221204479
:10125C0005F0F8FE002600201F2119224FF481739F
:10126C00009607F0F8FE1A204FF4957130221023E7
:10127C00009607F0F0FE48F20470204406F075FE6C
:10128C0048F63460204405F05FF9D8F80850012383
:10129C00D8E9000A514688F818602A46009603904F
:1012AC0007F0D9FED8F81090A9451AD20020D8F82A
:1012BC000C6000900122CDF808B0AAEB060103984F
:1012CC00334609EB000B584607F0C5FE00200AF127
:1012DC0001010090584601223346DDF808B007F0B2
:1012EC00BAFED8F81400484519D0A84217D24FF0CE
:1012FC000009D8F80C50CDF80090012203992B4628
:10130C004618AAEB0501304607F0A5FE0AF10101CB
:10131C00304601222B46CDF8009007F09CFE4FF092
:10132C00FF300025C8E9040040F2C1100021012261
:10133C001E23009507F08FFE4FF4C5700721102275
:10134C001023009507F087FE4FF4D1700021012285
:10135C001E23009507F07FFE40F2A91007211022F2
:10136C001023009507F077FE40F283100021012234
:10137C001E23009507F06FFE4FF4E4700721102236
:10138C001023009507F067FE049EA8E5DBF8089093
:10139C00B9F1000F00F0B780207800252821102328
:1013AC000095C200072007F056FEB9F1010F00F0BE
:1013BC00AA806078382110230095C200072007F01E
:1013CC004AFEB9F1020F00F09E80A078482110234C
:1013DC000095C200072007F03EFEB9F1030F00F0A4
:1013EC009280E078582110230095C200072007F066
:1013FC0032FEB9F1040F00F08680207968211023A9
:10140C000095C200072007F026FEB9F1050F7AD02F
:10141C006079782110230095C200072007F01BFE8D
:10142C00B9F1060F6FD0A079882110230095C20066
:10143C00072007F010FEB9F1070F64D0E07998216E
:10144C0010230095C200072007F005FEB9F1080F24
:10145C0059D0207AA82110230095C200072007F04C
:10146C00FAFDB9F1090F4ED0607AB821102300951E
:10147C00C200072007F0EFFDB9F10A0F43D0A07AA4
:10148C00C82110230095C200072007F0E4FDB9F134
:10149C000B0F38D0E07AD82110230095C20007201A
:1014AC0007F0D9FDB9F10C0F2DD0207BE8211023CA
:1014BC000095C200072007F0CEFDB9F10D0F22D028
:1014CC00607BF82110230095C200072007F0C3FDB4
:1014DC00B9F10E0F17D0A07B4FF484711023009537
:1014EC00C200072007F0B7FDB9F10F0F0BD0E07B5E
:1014FC004FF48C7110230095C200072007F0ABFD50
:10150C00B9F1100F6AD10020CBF80800E7E445F6DA
:10151C00E8512046C0F60101FFF747FC46F22D01C9
:10152C002046C0F601010522FFF733FA46F23201DC
:10153C002046C0F601011D22FFF7CCF946F24F01FF
:10154C002046C0F601013222FFF7C4F9DBF808008F
:10155C0010283FBF00212154DBF8080001303FBFA9
:10156C00CBF8080046F28101C0F6010120463FBFCE
:10157C001D2205B0BDE8000FBDE8F04038BFFFF7F5
:10158C00A9B9102110F0D2FB46F248212046C0F632
:10159C0001010F22FFF7FDF946F274212046C0F637
:1015AC000101012205B0BDE8000FBDE8F04000F0DC
:1015BC0012B946F204212046C0F601010B22FFF7B6
:1015CC00E8F946F240212046C0F60101022205B09E
:1015DC00BDE8000FBDE8F04000F0FDB81020102170
:1015EC0010F0A4FBF0B503AF2DE9000B82B002465E
:1015FC0045F6106010580B46D16B884272D2082801
:10160C0072D2916BDBB251F820100E68716899425E
:10161C006DD9024492F8202091426BD9346800EBCA
:10162C008000317A04EBC30304EBC2060029756811
:10163C005B6854F832604FF00C04A3EB05024FF0DA
:10164C00800318BFA3EBC5043B2303EBC008D200F7
:10165C00002A0ADD0023E8000093002918BF50423D
:10166C0041462044102307F0F6FCBDB345F26C79DB
:10167C003544C0F601090DE043EA8112861C204670
:10168C0041464FF6FF73CDF80090FEF7BDFF0444C2
:10169C00AE4223D0304616F9011BB1F1FF3FCAB25E
:1016AC00EDDC437802F01F01E02A03F03F03E3D3A3
:1016BC008678F02A06F03F0646EA83130AD3C278EE
:1016CC0001F00701061D02F03F0242EA831242EAD2
:1016DC008142D4E743EA0132C61CD0E702B0BDE830
:1016EC00000BF0BD10F022FB082110F01FFB184678
:1016FC0010F01CFB104610F019FBF0B503AF2DE9F0
:10170C00000F81B0C16B00295DD0D0F8388000F19A
:10171C0020064FEA81094B244FF0000A58F8040BBD
:10172C00A4F122011023D0F800B08068CDF800A0FD
:10173C00C2000A2007F08FFCA4F112010A207822C3
:10174C000223CDF800A007F086FCA4F110050A20B6
:10175C00022210232946CDF800A007F07CFC802043
:10176C00294602221023CDF800A007F074FC0A20B1
:10177C00214678220223CDF800A007F06CFC40F241
:10178C008B10844223D0DBF804103078814220D9AE
:10179C00DBF8001010239BF8082001EBC000002A96
:1017AC004FF0800241684FF00C00CDF800A018BF3C
:1017BC00A2EBC100CA00294607F04DFC28340136C3
:1017CC00B9F10409AAD101B0BDE8000FF0BD0820A1
:1017DC00082110F0ABFAF0B503AF2DE9000F8BB078
:1017EC00064645F610694FF000080C4640F8098093
:1017FC001546C263806BB16345F6D0510590C0F6B7
:10180C0001013046FFF7D1FA04EB8500039006EB9B
:10181C00090045F26C7B049048F631603044C0F608
:10182C00010B029006F120000790069406E0039845
:10183C0008F10108089C844200F0D580DDE9051010
:10184C0054F8042B8142089403D1029800780228A2
:10185C0003D10799107B01F80800906808EB880108
:10186C000A92002809913FD00A990A26099AD1F8C0
:10187C0004A0292101EBC2050AEB00090EE043EAA2
:10188C00811200F1020A304629464FF6FF73CDF85B
:10189C0000B0FEF7B9FE0644CA4525D050461AF9E9
:1018AC00011BB1F1FF3FCAB2EDDC437802F01F011E
:1018BC00E02A03F03F03E2D38478F02A04F03F04DB
:1018CC0044EA83130BD3C27801F0070100F1040A38
:1018DC0002F03F0242EA831242EA8142D3E743EA32
:1018EC00013200F1030ACEE70998C600049806F10C
:1018FC0039010068804520D140F21F440A2078222B
:10190C000223009407F0A7FB06F13B050A200222F4
:10191C0010232946009407F09EFB802029460222C2
:10192C001023009407F097FB06F14B010A20782254
:10193C000223009407F08FFB04E008467821142260
:10194C00FEF76BFF0A9802680798516810F80800B8
:10195C0081424CD9136803EBC001496800293FF45C
:10196C0066AF53F8304006F13B05107A0C2604EBB9
:10197C00010900284FF0800018BFA0EBC1060EE053
:10198C0043EA8112841C304629464FF6FF73CDF88A
:10199C0000B0FEF739FE06444C453FF448AF2046F4
:1019AC0014F9011BB1F1FF3FCAB2ECDC437802F031
:1019BC001F01E02A03F03F03E2D38478F02A04F0FD
:1019CC003F0444EA83130AD3C27801F00701041DD3
:1019DC0002F03F0242EA831242EA8142D3E743EA31
:1019EC000132C41CCFE70BB0BDE8000FF0BD10F006
:1019FC009DF9D4D4F0B503AF2DE9000F81B04FF0B1
:101A0C00FF3252FA81F10A2948D8DFE801F006606A
:101A1C0047474747474B9D47B90045F610684FF07D
:101A2C00390B50F808408146C56B142204EB840135
:101A3C000BEBC10108467821FEF7EFFE40F21F4A7E
:101A4C00002CCDF800A018BF2546013D0A207822B5
:101A5C00022305EB85060BEBC60107F0FCFA3B20D5
:101A6C0000EBC6040A20022221461023CDF800A068
:101A7C0007F0F1FA8020214602221023CDF800A0B5
:101A8C0007F0E9FA4B2000EBC6010A20782202236A
:101A9C00CDF800A007F0DFFA49F8085001B0BDE816
:101AAC00000FF0BD45F610614258072A70D8C16B83
:101ABC008A4271D2866B00F12003995C56F8226041
:101ACC0000293668367918BF0E46013E50E045F6BF
:101ADC001061C36B42584FF03908013BD41A18BF40
:101AEC00541C445002EB82007821142208EBC000F5
:101AFC00FEF793FE04EB840640F21F450A20782281
:101B0C0008EBC6010223009507F0A5FA3B2000EB79
:101B1C00C6040A20022221461023009507F09BFAE6
:101B2C008020214602221023009507F094FA4B20C6
:101B3C0000EBC6010A2078220223009507F08BFAED
:101B4C0001B0BDE8000FF0BD45F610614258072A00
:101B5C001ED8C16B8A421FD2866B00F12003995CA0
:101B6C0056F8226036687668013E761A18BF4E1C0D
:101B7C009E5401B0BDE8000FBDE8F040FFF732BD48
:101B8C00002101B0BDE8000FBDE8F040FFF78AB9B5
:101B9C001046082110F0CAF8104610F0C7F8D4D43B
:101BAC00F0B503AF2DE9000F93B0059148F6316104
:101BBC00014404910AA946F2B10B45F6805801F193
:101BCC00040A0024C826C0F6010BC0F60108023135
:101BDC00069000F5BC40099103900BE0044630469A
:101BEC00C8214FF4FC63CDF80080FEF70DFD0644D0
:101BFC000A2C2DD01BF90410601CB1F1FF3FCAB2A6
:101C0C00ECDC1BF80000A31CE02A00F03F0102F002
:101C1C001F0015D31BF80330F02A03F03F0343EAEF
:101C2C00811104F103030FD31BF8032000F007000C
:101C3C00043402F03F0242EA811141EA8042CEE7CD
:101C4C0041EA80121C46CAE741EA00321C46C6E74C
:101C5C000698059AD0E9080192F811900022CDE976
:101C6C000E20A9F102001091CDE90C22C1B2052978
:101C7C000AA9CDE90A2228BF022001F11C06C0B234
:101C8C004B1DCD1C01F1010CDFE810F072020500B8
:101C9C006A009B003A0005980124CDF81CA04FF077
:101CAC00000A8DF82840006807F8210C47F820AC92
:101CBC00C109089300F0BA8040F0800207F8212C8B
:101CCC00820B07F8201C00F0B78041F0800107F868
:101CDC00201C410D07F81F2C00F0B580B146000FF9
:101CEC0042F0800207F81E1C07F81F2C00F0B7808A
:101CFC00052407F81D0C41F0800007F81E0CAFE01E
:101D0C00059804218DF82810002147F8201C006844
:101D1C0007F8210CC10900F0838040F0800207F81D
:101D2C00212C820B07F8201C00F0828041F08001EE
:101D3C0007F8201C410D07F81F2C00F08280000FC3
:101D4C0042F0800207F81E1C07F81F2C00F082805E
:101D5C00052207F81D0C41F0800007F81E0C7AE0F4
:101D6C000598022100268DF82810CDF81CA00068DB
:101D7C0007F8210C47F8206CC1090893029551D043
:101D8C0040F0800207F8212C820B07F8201C51D060
:101D9C0041F0800107F8201C410D07F81F2C55D08D
:101DAC00000F42F0800207F81E1C07F81F2C00F0F1
:101DBC009380052407F81D0C41F0800007F81E0CD9
:101DCC008BE0059803214FF000098DF82810D0E91D
:101DDC00000A07F8210C47F8209CC10924D040F0D8
:101DEC00800207F8212C820B07F8201C27D041F029
:101DFC00800107F8201C410D07F81F2C28D0000F7C
:101E0C0042F0800207F81E1C07F81F2C00F09E8081
:101E1C00052407F81D0C41F0800007F81E0C96E015
:101E2C00012218E0012458E0012490E0B14617E0AB
:101E3C00022210E0022450E0B146022410E00224F9
:101E4C0085E0032207E0B146032409E0032444E0C3
:101E5C0003247CE00422A7F12101604639E104242B
:101E6C00A7F1210160462246664611F04FFE059807
:101E7C00013447F820AC41680AA8204407F8211C1B
:101E8C00CA0921D041F0800307F8213C8B0B07F8DD
:101E9C00202C1BD042F0800207F8202C4A0D07F8AA
:101EAC001F3C16D0090F43F0800307F81E2C07F8CF
:101EBC001F3C00F08980089E07F81D1C42F0800131
:101ECC00052207F81E1C81E001227FE00222099EF8
:101EDC007CE003222E4679E00424A7F12101604620
:101EEC002246E24611F012FE059847F8206C661C5B
:101EFC0041680AA8304407F8211CCA0920D041F0D7
:101F0C00800307F8213C8B0B07F8202C1AD042F0E9
:101F1C00800207F8202C4A0D07F81F3C14D0090F3B
:101F2C0043F0800307F81E2C07F81F3C00F08A8052
:101F3C00052407F81D1C42F0800107F81E1C82E0E6
:101F4C00012480E002247EE003247CE00424A7F139
:101F5C00210160462246654611F0D8FD28195FEA3A
:101F6C00DA1107F821AC47F8209C24D04AF0800203
:101F7C0007F8212C5FEA9A3207F8201C1ED041F09A
:101F8C00800107F8201C5FEA5A5107F81F2C18D063
:101F9C0042F0800207F81F2C5FEA1A7207F81E1C29
:101FAC0000F08C8041F0800107F81D2C07F81E1CF6
:101FBC000522311A88E00122311A85E00222311AF9
:101FCC0082E00322311A7FE00422079EA7F121014F
:101FDC0011F09CFD059A107B91680538305530192D
:101FEC00B2F80D20A0F801200022033047F8202C75
:101FFC00CA0907F8211C1FD041F0800307F8213CC7
:10200C008B0B07F8202C19D042F0800207F8202CFB
:10201C004A0D07F81F3C13D0090F43F0800307F853
:10202C001E2C07F81F3C4CD007F81D1C42F08001F9
:10203C00052207F81E1C45E0012243E0022241E084
:10204C0003223FE00424A7F12101224611F05EFD9A
:10205C000598A5198168002047F8200C0AA8284487
:10206C0007F8211CCA0920D041F0800307F8213C55
:10207C008B0B07F8202C1BD042F0800207F8202C89
:10208C004A0D07F81F3C16D00026090F43F08003B9
:10209C0007F81E2C07F81F3C1ED0052407F81D1C42
:1020AC0042F0800107F81E1C17E00026012414E002
:1020BC000026022411E0002603240EE00422311A2B
:1020CC0002E00422A9EB00018A4200F28B83A7F103
:1020DC00210111F01BFD4BE00424A7F12101224644
:1020EC0011F014FD05982C4447F8206CC1680AA81F
:1020FC00204407F8211CCA0921D041F0800307F8BD
:10210C00213C8B0B07F8202C1BD042F0800207F8E7
:10211C00202C4A0D07F81F3C17D0090F43F0800301
:10212C0007F81E2C07F81F3C13D0DDF820A007F889
:10213C001D1C42F08001052207F81E1C0CE0012238
:10214C000AE00222DDF824A006E00322DDF808A054
:10215C0002E00422DDF81CA0A7F1210111F0D6FC4D
:10216C000598007C0AF804000AEB040080F8019042
:10217C0043F6104040F2231148F6AB12C4F20200B1
:10218C00C4F26751CCF6EF5240F80C1C40F80C2C02
:10219C000368B3F1FF3F40F32283069B4FF60445DF
:1021AC00CFF6FE751B7E06680C2B06EA05064FF073
:1021BC00200505EBC30538BFDD00EBB2334443F417
:1021CC00803343F00203036050F8043CDB030CD56E
:1021DC0050F8043CDB0344BF50F8043C5FEAC333C3
:1021EC0003D550F8043CDB03EED450F8043C0368F0
:1021FC0043F00043036040F80C1C40F80C2C0168C1
:10220C00B1F1FF3F40F3EB82012108910699D1F81F
:10221C0010E00021099105E050F8041C11F0F20FB8
:10222C0040F0A4800899002900F09C80016840F2DD
:10223C0003320EF00F039143C3F110020131016020
:10224C00DDF824A00AA9089283F00F0201EB0A051D
:10225C000EF10061C3F10E04C3F10D0C0023CDF897
:10226C001CE0099E06EB030BBBF11C0F2ED0EE5CA1
:10227C009A42CE5431D0BBF11B0636D005EB030885
:10228C0001EB03099C4298F8016089F8016031D098
:10229C00BBF11A0633D098F802609C4589F80260AD
:1022AC0035D0BBF119063AD098F803600EF1040E44
:1022BC0089F803600AF1040A089E04339E42D0D1C7
:1022CC00DDF81CE009999E4419442EE0DDF81CE071
:1022DC001C21CDE908319E4428E00AF10101099145
:1022EC000799194401F1010E20E00EF1010E43F0A3
:1022FC00010118E00AF102010EF1020E15E043F0A3
:10230C00020108910799194401F1020E0CE00AF13F
:10231C00030109910799194401F1030E06E00EF12E
:10232C00030E43F0030108911C21099145F68058D6
:10233C0046F2B10BC0F60108C0F6010B50F8041CB4
:10234C00C9037FF569AF50F8041CC90344BF50F8AA
:10235C00041C5FEAC1317FF55FAF50F8041CC90360
:10236C00ECD459E7016821F001010160016841F0EA
:10237C0000410160069948F62060059C08440790CE
:10238C0094E86E0000246EC0C8250AE00446284676
:10239C00C8210023CDF80080FEF736F905440A2C3D
:1023AC002DD01BF90410601CB1F1FF3FCAB2EDDC5B
:1023BC001BF80000A31CE02A00F03F0102F01F00F4
:1023CC0015D31BF80330F02A03F03F0343EA8111C5
:1023DC0004F103030FD31BF8032000F007000434AF
:1023EC0002F03F0242EA811141EA8042CFE741EA22
:1023FC0080121C46CBE741EA00321C46C7E7242476
:10240C0043F2080946F29E0C4FF0010BC4F2000493
:10241C00C4F20109C0F6010C4FF0000A09E0DDF826
:10242C0020B045F68058C0F60108BBF1040F00F04F
:10243C009E810BEB8B00C8264042002506EB40002A
:10244C0009900FE00546099930464FF4FC63CDF82E
:10245C000080FEF7D9F846F29E0C0644132DC0F608
:10246C00010C2DD01CF90510681CB1F1FF3FCAB24C
:10247C00E8DC1CF80000AB1CE02A00F03F0102F085
:10248C001F0015D31CF80330F02A03F03F0343EA76
:10249C00811105F103030FD31CF8032000F0070092
:1024AC00043502F03F0242EA811141EA8042CAE758
:1024BC0041EA80121D46C6E741EA00321D46C2E7DA
:1024CC0020684BF6A032C0F20D022168091A914225
:1024DC000BD22168091A91423EBF2168091A914218
:1024EC0003D22168091A9142EFD30BF1010BCDF8FD
:1024FC0020B04FF0000BC8260BE040F61840083611
:10250C00BBF1130FC4F202004FF4804101603FF4A1
:10251C0086AF1CF90B100BF10100B1F1FF3F5FFA14
:10252C0081F806DD8346B8F1200F2FD24FF07F08DB
:10253C0037E01CF800000BF10202B8F1E00F00F0DC
:10254C003F0108F01F001BD31CF80220B8F1F00F5C
:10255C0002F03F0242EA81110BF10302C0F0FD8050
:10256C001CF8022000F007000BF1040B02F03F02F4
:10257C0042EA811141EA8048B8F1200FD6D305E038
:10258C0041EA80189346B8F1200FCFD3B8F5657F98
:10259C0005D0B8F1B50F08BF4FF0800801E04FF03F
:1025AC00AE08099930460822102305F04AFE4FF672
:1025BC000060CFF6FF7000EB0810B0F5C06F00F2B2
:1025CC00F28046F29E0C4FEA0810C0F50061002222
:1025DC00C0F6010C02E00132102A8ED0002302E07A
:1025EC000133082BF7D002EBD300884280F0BD807A
:1025FC00206825682D1A592D0BD825682D1A592DB0
:10260C009EBF25682D1A592D03D825682D1A5A2DD1
:10261C00EFD3D9F8000080070CD4D9F8000080075C
:10262C005CBFD9F800005FEA807003D4D9F80000D1
:10263C008007EED5C9F804A0D9F80000C0070CD16A
:10264C00D9F80000C00704BFD9F800005FEAC070D9
:10265C0003D1D9F80000C007EED0D9F8000000066D
:10266C000CD5D9F80000000644BFD9F800005FEA89
:10267C00006003D5D9F800000006EED4D9F80400A8
:10268C00206825682D1A592D0BD825682D1A592D1F
:10269C009EBF25682D1A592D03D825682D1A5A2D41
:1026AC00EFD3206825682D1A592D0BD825682D1AC3
:1026BC00592D9EBF25682D1A592D03D825682D1A22
:1026CC005A2DEFD3D9F8000080070CD4D9F80000AC
:1026DC0080075CBFD9F800005FEA807003D4D9F89A
:1026EC0000008007EED5C9F804A0D9F80000C00797
:1026FC000CD1D9F80000C00704BFD9F800005FEA7C
:10270C00C07003D1D9F80000C007EED0D9F8000092
:10271C0000060CD5D9F80000000644BFD9F800001B
:10272C005FEA006003D5D9F800000006EED4D9F8B2
:10273C000400206825682D1A592D3FF651AF2568E5
:10274C002D1A592D9EBF25682D1A592D3FF648AFCD
:10275C0025682D1A5A2DEDD342E741EA00389346ED
:10276C00B8F1200FFFF4E2AE10E70FF0DFFA049897
:10277C000021039A007811600238C1B2052928BFE4
:10278C000220C1B2069800F1400246F23C30C0F67D
:10279C000100DFE801F01C1503110C0046F2543067
:1027AC00C0F601000CE04FF4C06110F00CF846F2DA
:1027BC008430C0F6010003E046F26C30C0F6010034
:1027CC00069B45F618611944C36807989847069804
:1027DC000021FEF767FB13B0BDE8000FF0BD312000
:1027EC000FF0B7FE10F091F9F0B503AF2DE9000F23
:1027FC0083B04AF6800B242643F2080446F2BB054C
:10280C0000204FF0000AC0F2121BC4F20006C4F202
:10281C000104C0F60105029007E0029846F2BB05E0
:10282C00C0F60105032800F091814FF000084FF02D
:10283C00C8090FE0804645F68050C821C0F601005B
:10284C004FF4784300904846FDF7DEFE8144B8F122
:10285C000D0F2DD015F9081008F10100B1F1FF3F53
:10286C00CAB2E7DC285C08F10203E02A00F03F0161
:10287C0002F01F0014D3EB5CF02A03F03F0343EA91
:10288C00811108F103030FD3EA5C00F0070008F193
:10289C00040802F03F0242EA811141EA8042CAE791
:1028AC0041EA80129846C6E741EA00329846C2E7F0
:1028BC0030683168091A59450BD23168091A5945E3
:1028CC003EBF3168091A594503D23168091A594576
:1028DC00EFD302984FF0000B4FF0C8090130029073
:1028EC000CE040F6184009F10809BBF10D0FC4F2D9
:1028FC0002004FF48041016000F00E8146F2BB03F0
:10290C000BF10100C0F6010313F90B10B1F1FF3FFD
:10291C005FFA81F804DD8346B8F1200F29D331E04A
:10292C00185C0BF10202B8F1E00F00F03F0108F067
:10293C001F0018D39A5CB8F1F00F02F03F0242EA84
:10294C0081110BF1030217D39A5C00F007000BF115
:10295C00040B02F03F0242EA811141EA8048B8F1CF
:10296C00200F06D30EE041EA80189346B8F1200FF1
:10297C0008D24FF07F0810E041EA00389346B8F1D6
:10298C00200FF6D3B8F5657F05D0B8F1B50F08BFA9
:10299C004FF0800801E04FF0AE084846C8210822ED
:1029AC00102305F04EFC4FF60060CFF6FF7000EBE5
:1029BC000810B0F5C06F00F2CD804FEA0810C0F5DA
:1029CC000061002203E00132102A3FF48AAF002399
:1029DC0002E00133082BF6D002EBD300884280F0E2
:1029EC00B380306835682D1A592D0BD835682D1ADF
:1029FC00592D9EBF35682D1A592D03D835682D1ABF
:102A0C005A2DEFD32068800709D4206880075CBF5B
:102A1C0020685FEA807002D420688007F2D5C4F881
:102A2C0004A02068C00709D12068C00704BF206833
:102A3C005FEAC07002D12068C007F2D0206800069F
:102A4C0009D52068000644BF20685FEA006002D503
:102A5C0020680006F2D46068306835682D1A592D4C
:102A6C000BD835682D1A592D9EBF35682D1A592D46
:102A7C0003D835682D1A5A2DEFD3306835682D1AC6
:102A8C00592D0BD835682D1A592D9EBF35682D1A26
:102A9C00592D03D835682D1A5A2DEFD3206880078D
:102AAC0009D4206880075CBF20685FEA807002D47C
:102ABC0020688007F2D5C4F804A02068C00709D1AB
:102ACC002068C00704BF20685FEAC07002D120688C
:102ADC00C007F2D02068000609D52068000644BF64
:102AEC0020685FEA006002D520680006F2D46068B6
:102AFC00306835682D1A592D3FF66BAF35682D1A95
:102B0C00592D9EBF35682D1A592D3FF662AF356889
:102B1C002D1A5A2DEDD35CE730684AF6800BC0F2C3
:102B2C00121B3168091A5945BFF477AE3168091A7E
:102B3C0059453EBF3168091A5945BFF46EAE31682C
:102B4C00091A5945EDD368E60FF0F0F803B0BDE86B
:102B5C00000FF0BD4FF4C0610FF035FEF0B503AFC0
:102B6C004DF8048DA0B0002110221428069201AA61
:102B7C00CDE90311CDE901110791059200F29D8079
:102B8C0014AB0C9340F2472346F6D006C0F6000374
:102B9C00C0F60106119312AB109342F2D563C0F646
:102BAC00010302220F9346F27823C0F6010303EBD4
:102BBC00C0000E90037946F6DC00C0F601000D92C1
:102BCC00099250F8230056F82330ADF87020ADF878
:102BDC006820CDE9123046F22430C0F60100ADF881
:102BEC00502008902020CAF6000000F16053CDE977
:102BFC0018104FF4403016900EA844F64C610B920E
:102C0C000A9005A808AA1F930123C0F601011E9380
:102C1C000FF0A3FC00284BD1DDE906128A4249D8FB
:102C2C00059914A80FF029FE1498012840D0169885
:102C3C00D0B3159E45F26C781A24C0F601083518ED
:102C4C000EE043EA8112861C20464FF495714FF634
:102C5C00FF73CDF80080FDF7D7FC0444AE4223D0BF
:102C6C00304616F9011BB1F1FF3FCAB2ECDC4378D8
:102C7C0002F01F01E02A03F03F03E2D38678F02A2A
:102C8C0006F03F0646EA83130AD3C27801F0070127
:102C9C00061D02F03F0242EA831242EA8142D3E768
:102CAC0043EA0132C61CCFE720B05DF8048BF0BDBF
:102CBC000FF02BFF10460FF086FD15210FF036F8A4
:102CCC00D4D4D4D4F0B503AF2DE9000F81B02DEDE1
:102CDC000A8BBCB0044647F2A0102058002800F024
:102CEC00208748F2F86040F28E3120440390D0E9FE
:102CFC00005847F23250204404F5BC4611F03EFB1C
:102D0C0047F6872040F2C711204411F037FB47F6F5
:102D1C00DC7040F28E31204411F0C4FB48F231508B
:102D2C0040F2C711204411F029FB314647F64E40C2
:102D3C000296204451F8186B059047F2A410002E0F
:102D4C00204407910494069000F059850498403073
:102D5C000B90284611F07AFB044640460D4611F0C4
:102D6C0075FB721E2B46B2F57A7F28BF4FF47A7230
:102D7C000132B6F57A7F88BF4FF47A7208922246F8
:102D8C0010940F9511F0E6FA9FEDE48B9FEDE59B07
:102D9C009FEDE6ABCDE909100120002107E00E996B
:102DAC0008988142084638BF013080F028850E9083
:102DBC00C8087C2800F2F28601EB41000B990DF15A
:102DCC00640A11F8302001EBC00041680C91816855
:102DDC001191C1680D91D0E9044190F9010016914F
:102DEC00402117905046189211F05CFB204611F0D0
:102DFC002DFBDDE90F3211F0ADFA53EC182BCDE9B8
:102E0C00142310F089FEDDF828B0DDF824905A4622
:102E1C004B4611F0C6FB58EC196B3246434611F089
:102E2C00CEF8B0EE491AF0EE691A41EC100B11F025
:102E3C00DCFDB0EE481AF0EE681A11F067F854ECAD
:102E4C00105B00202B904020CDE929A0284621467C
:102E5C0011F07FFB8246284621463246434610F04D
:102E6C00E5FF53EC1A2B002808BF82462846214662
:102E7C00CDE9122311F014F80446169811F0E6FA75
:102E8C00DDE90F3211F066FADDE9142310F044FE8F
:102E9C005A464B4611F085FB3246434611F08FF8EB
:102EAC00B0EE491A002CF0EE691A18BF4FF0FF3A39
:102EBC0041EC100B11F099FDB0EE481AF0EE681AC7
:102ECC0011F024F855EC104B2046294611F041FB2B
:102EDC008346204629463246434610F0A7FF002879
:102EEC0008BF8346DDE912232046294610F0D8FF9F
:102EFC00179B002818BF4FF0FF3BCDF858A018992E
:102F0C00ABEB0A05DAB2DFE811F0BC001800CF0019
:102F1C0018006A003E017E01D9009801B2008F01B1
:102F2C0065008F005B015000C4002000E2008901A5
:102F3C00D40115014901A201EF0129A8002304F0D5
:102F4C009BF900204FF02008FDE1012036A93390B9
:102F5C002F90319042F65930C0F6010032913590E5
:102F6C002CA8349034A830902020CEF6001046F2D5
:102F7C00F4713B9000203A904FF40030C0F6010100
:102F8C00389002208DF8B0202E9144F64C61ADF8AB
:102F9C00D80029A82EAAC0F601010FF0DEFA0028ED
:102FAC0040F0CB854FF05008CCE1119846F60C015F
:102FBC003590C0F601010C98349000203A90012015
:102FCC00379039902EA8389040F247203691C0F6B1
:102FDC00000009E102202B9045F2202028E100207E
:102FEC0046F60C013A9001203790C0F60101399059
:102FFC002EA8389042F6A950C0F6010036912F90B9
:10300C0034A82E9002F0010044F64C61349029A8AB
:10301C0036AAC0F601010FF0A0FA002840F08D8509
:10302C004FF02008002046E0002046F61C013A90A4
:10303C0001203790C0F6010139902EA8389042F645
:10304C005930C0F601008DF8D0202F9034A836915D
:10305C0044F64C612E9029A836AAC0F601010FF057
:10306C007CFA002840F069854FF040086AE144F68C
:10307C0020604FF02008C4F64130199004202B90AA
:10308C0060E144F22050C7F26D00199047F67410BD
:10309C0006E045F22020C7F26530199047F26540F2
:1030AC00ADF8680006201AE129A8002304F0E4F822
:1030BC004FF030080120DDF814A046E153208DF8C4
:1030CC00660045F22020ADF864000320BBE0002030
:1030DC0046F60C013A9001203790C0F60101399068
:1030EC0034A8389040F24720C0F600003691359055
:1030FC002EA83490D0074FF00B0045F6C85118BFDE
:10310C0008202F9046F62400C0F60101C0F60100FD
:10311C0018BF08466AE000BF00BF00BF00000000F7
:10312C0000607C4000000000000000000000E0FF98
:10313C00FFFFEF41012036A933902F90319042F6DA
:10314C005930C0F60100329135902CA8349034A837
:10315C0030902020CEF6001046F2F4713B90002007
:10316C00C0F601013A904FF400302E9144F64C61B8
:10317C00389002208DF8B020ADF8D80029A8C0F600
:10318C0001012EAAD7E045F22030C6F27410199036
:10319C0047F27240ADF86800062054E0012036A9D1
:1031AC00329146F2F4713390C0F601012F903190B8
:1031BC0042F65930C0F601008DF8B0202E9159E03E
:1031CC0002F001008DF8D000002046F60C013A9078
:1031DC0001203790C0F6010139902EA8389042F6A4
:1031EC002730C0F6010036912F9034A844F64C617C
:1031FC002E9029A836AAC0F601010FF0AEF90028CE
:10320C006ED000F09ABC45F22030C6F6747019905E
:10321C0070208DF8680005202B9047E0119A29A8A2
:10322C000D9B04F029F85BE002202B9045F22070F6
:10323C00ADF864004FF0100884E044F22010C4F69E
:10324C004330199004202B904FF050087AE01198DD
:10325C0036A92C900D982D900120329146F2F471E4
:10326C00C0F6010133902F90319042F6CB402E9155
:10327C00C0F6010035902CA8349034A83090202052
:10328C00CEF6001044F64C613B9000203A904FF47F
:10329C00003038900220ADF8D80029A82EAAC0F62C
:1032AC0001010FF05AF9002840F047844FF06008F4
:1032BC0048E046F27650C7F67210CDF86F0046F231
:1032CC006530C7F26F601B9047F26540C5F2202055
:1032DC001A9045F22020C7F2653019900F202B90E0
:1032EC004FF0200800202EE046F600100022C0F619
:1032FC0001003A92012246F6E80150F82300C0F68C
:10330C0001013792399234AA389240F2472251F88F
:10331C002310C0F6000235922EAA46F60C03CDE916
:10332C002E1044F64C61349229A836AAC0F601033B
:10333C00C0F6010136930FF010F9002840F0FD8320
:10334C004FF030080120DDF818A0DDE92A148C427A
:10335C0000F2F583DDF8A4902246119036A8494678
:10336C000FF08BFA3698012800F0E783389800EBC1
:10337C00C000854264D2169883457FF610AD169B2B
:10338C0040F2C7100AEB0302B3F5E47F28BF1846DE
:10339C00C11A0AEB430302F6E60203F56573002932
:1033AC0000F0EE834FF6FF7623F8066C12F8036CF0
:1033BC0006F00F0646EA080602F8036C169E013664
:1033CC005E453FF4ECAC864200F0DA834FF6FF76B4
:1033DC0023F8046C12F8026C06F00F0646EA080695
:1033EC0002F8026C169E02365E453FF4D8AC86425B
:1033FC0000F0C6834FF6FF7623F8026C12F8016CCE
:10340C0006F00F0646EA080602F8016C169E033613
:10341C005E453FF4C4AC864200F0B2834FF6FF76B3
:10342C00043923F8086B167806F00F0646EA0806EE
:10343C0002F8046B169E043616965E45AFD1AEE4C8
:10344C001698834557D9169D40F2C7100AEB050212
:10345C00B5F5E47F0AEB450328BF2846411B02F66D
:10346C00E60203F56573002900F08A834FF6FF76B8
:10347C0023F8066C12F8036C06F00F0646EA0806F1
:10348C0002F8036C6E1C5E4535D0864200F07883E2
:10349C004FF6FF7623F8046C12F8026C06F00F0658
:1034AC0046EA080602F8026CAE1C5E4523D0864242
:1034BC0000F066834FF6FF7623F8026C12F8016C6D
:1034CC0006F00F0646EA080602F8016CEE1C5E4593
:1034DC0011D0864200F054834FF6FF76043523F862
:1034EC00086B043916785D4506F00F0646EA0806A7
:1034FC0002F8046BB7D136A8494622460FF0BDF945
:10350C003698012800F01983389900293FF447AC0C
:10351C0037980AF28E330144129106460AF6E301FB
:10352C00139107E0149E083112981691864230468A
:10353C003FF435AC16F9012BB2F1FF3FD1B205DDEA
:10354C002029149625D24FF4FE6E37E0467801F010
:10355C001F02E02906F03F0615D38578F02905F007
:10356C003F0545EA8616C0F03D81C17802F007029E
:10357C0001F03F0141EA8611061D41EA82412029F2
:10358C001496E0D305E046EA8211861C2029149695
:10359C00D9D3B52910D0B1F5657F00F005834FF66E
:1035AC000060CFF6FF7000EB0110B0F5C06F00F2B9
:1035BC00FD824FEA011E03E04FF4006EAEF5007081
:1035CC0045F280720121C0F6010210441790169842
:1035DC00C41D00F1060C451D061DC21C00F102099C
:1035EC0000F1010A2046CEF500644FF0000E18944D
:1035FC00159005E00EF1010EBEF1100F00F0928057
:10360C00189C744500F0A38201FA0EF46FEA0408CA
:10361C00179C14F90E40B4F1FF3F17DD5FFA84FBE1
:10362C005FEA4B6424D45FEA8B642ED45FEACB64EC
:10363C0038D45FEA0B7442D45FEA4B744CD45FEA23
:10364C008B7456D45FEACB74D4D060E01698B0F586
:10365C00E37F00F2958233F8101001EA080123F899
:10366C001010012115985FFA84FB5FEA4B64DAD5E0
:10367C00BAF5E37F00F2838233F81A4004EA0804B7
:10368C0023F81A405FEA8B64D0D5B9F5E37F00F2DA
:10369C00678233F8194004EA080423F819405FEAFA
:1036AC00CB64C6D5B2F5E37F00F26E8233F81240DC
:1036BC0004EA080423F812405FEA0B74BCD5B6F593
:1036CC00E37F00F2528233F8164004EA080423F830
:1036DC0016405FEA4B74B2D5B5F5E37F00F24A822F
:1036EC0033F8154004EA080423F815405FEA8B749C
:1036FC00A8D5BCF5E37F00F22E8233F81C4004EA17
:10370C00080423F81C405FEACB743FF473AFB0F5A8
:10371C00E37F00F2358233F8104004EA080423F802
:10372C00104067E71699DDF84CE011F1090F3FF6F0
:10373C00F9AEB1F5E37F5DD80C461EF80110119877
:10374C0001F0F00101440EF8041040F2C7118A4553
:10375C0050D01EF80A40894504F0F00404440EF8D9
:10376C000A401FBF1EF8091001F0F00101440EF8C9
:10377C0009101CBF40F2C7118A423BD01EF8024010
:10378C008E4204F0F00404440EF802401FBF1EF8F1
:10379C00061001F0F00101440EF806101CBF40F2B7
:1037AC00C7118D4226D01EF805208C4502F0F00280
:1037BC0002440EF805201FBF1EF80C1001F0F0019A
:1037CC0001440EF80C101EBF40F2C711159A8A4224
:1037DC0010D01EF8021001F0F00101440EF8021096
:1037EC0016999FE646EA0231C61C20291496FFF46E
:1037FC00AAAECEE6084640F2C7110EF097FA049E28
:10380C0047F2A01021213418069803F01BFC0598F0
:10381C00322103F017FC039D2168286801391891A7
:10382C004CD4189B00220024991801EBD17149103B
:10383C00CE087C2E00F2AD81079E56F821608642A0
:10384C009ABF0C464A1C4B1E9A42EDDD6E68002254
:10385C00189D1899114401EBD1714910CB087C2BA0
:10386C0000F29781079B53F82130B3422CBF0D46D1
:10387C004A1C189B28BF4B1E9A421893E9DD10F086
:10388C00E5FD80463046894610F0E0FD42464B4649
:10389C0049EC1A8B10F05EFD049E48F20472AC42A7
:1038AC00324400F23B8141EC1B0B0092321946F67C
:1038BC00B853D01802940190189518E010F0C6FD7A
:1038CC00804668680C4641EC1A8B10F0BFFD4246EE
:1038DC00234610F03FFD48F2047241EC1B0B3244BE
:1038EC000092029A0020029002F6B872019248F2FD
:1038FC00047006EB000946F6B8509FEDAE8B3044D1
:10390C009FEDAE9B9FEDAFCB0690002003E003989C
:10391C00082800F0028102460798DDF8088005921D
:10392C0050F828305000049001980678501C0390F1
:10393C0040461899884538BF0130B8F57A7F80F039
:10394C0001810C901846089610F080FD53EC1A2B50
:10395C00CDE9162310F0FEFC53EC182BCDE9142303
:10396C0010F0DAF853EC1B2BCDE9122310F019FEF2
:10397C005AEC19BB5A46534610F021FBB0EE491ACB
:10398C00F0EE691A41EC100B11F02FF8B0EE481A5A
:10399C00F0EE681A10F0BAFA56EC105B069810F8B4
:1039AC0008000990109511962846314610F0D1FD6B
:1039BC000446284631465A465346CDF834B0CDF825
:1039CC0038A010F033FA0F900798CDF82C8050F8EF
:1039DC0028000A9010F03AFDDDE9162310F0BAFC2D
:1039EC00DDE9142310F098F8DDE9122310F0D9FD6D
:1039FC005A46534610F0E3FAB0EE491AF0EE691A43
:103A0C0041EC100B10F0F1FFB0EE481AF0EE681A12
:103A1C0010F07CFA55EC1CAB0F985BEC108B00286B
:103A2C0008BF0446DDE9100152462B4610F038FA67
:103A3C0000284046594618BF4FF0FF3410F089FD5E
:103A4C00DDE90D2306464046594610F0EFF90028F3
:103A5C0008BF06464046594652462B4610F020FAFF
:103A6C00002818BF4FF0FF36B4420DD90B981899A7
:103A7C000A9B88420C98BFF44AAF18998046099E5D
:103A8C0088427FF656AF42E708980599C043C0B20A
:103A9C00C840049900F001000843012101FA00F02C
:103AAC00B4F5E37F44D839F81410B44241EA00016C
:103ABC0029F8141038BF0134D8D2B442D6D8B4F592
:103ACC00E37F35D839F81410B44241EA000129F8E3
:103ADC00141038BF0134C9D2B442C7D8B4F5E37F4F
:103AEC0026D839F81410B44241EA000129F8141010
:103AFC0038BF0134BAD2B442B8D8B4F5E37F17D882
:103B0C0039F81410B44241EA000129F8141038BFF6
:103B1C000134ABD2B442C3D9A8E7009A104604F0E2
:103B2C0024FA3CB0BDEC0A8B01B0BDE8000FF0BD2F
:103B3C00204640F2C7110EF0F9F80EF0E6FF2046D1
:103B4C000EF041FE40464FF47A710EF0EFF81898E3
:103B5C0001460EF0EBF8604640F2C7110EF0E6F8A5
:103B6C00484640F2C7110EF0E1F8304640F2C7115A
:103B7C000EF0DCF8284640F2C7110EF0D7F850468C
:103B8C0040F2C7110EF0D2F8104640F2C7110EF0F9
:103B9C00CDF808464FF47A710EF0C8F84FF47A70ED
:103BAC004FF47A710EF0C2F84FF40E604FF4C0610E
:103BBC000EF009FE0000000000607C4000000000D8
:103BCC00000000000000E0FFFFFFEF41F0B503AF85
:103BDC002DE9000F89B047F2A011425848F2F86164
:103BEC0000EB010A4458DAF8048052B1511EB2F5C8
:103BFC007A7F00F2428145F61862024452F8215055
:103C0C0000E0002548F634610844214602F09DFE90
:103C1C009AF86C074FF6FF7658B9DAF85407012377
:103C2C00DAF85817DAF85C278AF86C37009605F042
:103C3C0012FA002D79D0204610F008FC04462846D4
:103C4C000E4610F003FC8146CDF8148088462046C1
:103C5C0031464A46434610F0A4FC0646DAF85C07A7
:103C6C008B46089010F0F2FB9FED860B53EC102B5B
:103C7C0010F0A5F904460D463046594622462B460F
:103C8C000FF04AFFCDE90610059810F0DFFB4A460D
:103C9C00434610F086FC22462B460FF03DFF0646AD
:103CAC008B4610F056FC9FED790B804630465946FA
:103CBC0053EC102BCDE9042310F0B8F89FED750BE5
:103CCC000028594653EC102BCDE9022308BF80463F
:103CDC003046DDF820B010F0E3F8002818BF4FF0A4
:103CEC00FF38ABF10104444538BFA046079DDDF811
:103CFC0018902846494610F02CFCDDE904230646B2
:103D0C002846494610F092F8002808BF0646DDE91F
:103D1C0002232846494610F0C3F8002818BF4FF07C
:103D2C00FF36B44238BF264604E0DAF85CB700260A
:103D3C00ABF10108DAF86447B44218BF44451ED011
:103D4C005C451CD2DAF854070021CDF820B00122D2
:103D5C00DAF860970519DAF858B700912846ABEBFA
:103D6C0009014B4605F077F900200BF10101009099
:103D7C00284601224B46DDF820B005F06CF9DAF844
:103D8C006857B54218BF454534D1B44218BFB54247
:103D9C0022D05E4520D2DAF854074FF6FF71DAF8DC
:103DAC005827DAF86097CDF820B000EB060B00919D
:103DBC00A2EB09010792584601224B4605F04BF93C
:103DCC004FF6FF70012200904B460798411C584655
:103DDC00DDF820B005F03FF9444503D0B04518BFDD
:103DEC0045452BD1CAF86467CAF8688709B0BDE8A5
:103DFC00000FF0BDA542C8D05D45C6D2DAF8540715
:103E0C000021DAF85827DAF86097CDF820B000EBEB
:103E1C00050B0091A2EB09010792584601224B4673
:103E2C0005F019F90020012200904B460798411C1F
:103E3C005846DDF820B005F00EF9A6E7D845D1D2EA
:103E4C00DAF854074FF6FF7BDAF860470122DAF80C
:103E5C00589700EB0805CDF800B0A9EB04012846F3
:103E6C00234605F0F8F809F1010128460122234602
:103E7C00CDF800B005F0EFF8B4E708464FF47A71CE
:103E8C000DF054FF000000000000F0BF0000000027
:103E9C00000000000000E0FFFFFFEF41F0B503AFB2
:103EAC002DE9000F89B046F2A4510E22C0F6010193
:103EBC008146FCF76EFD45F6F0514846C0F601010F
:103ECC00FCF773FF45F6086009EB000159F800A0F8
:103EDC00002048604FF6FF7640F2C110002101220D
:103EEC001E23009605F0B7F845F26C784FF0FF35BD
:103EFC00C0F60108BAF1000FCDF8008008BF40F2FF
:103F0C001F454FF4C5700721AC222B464FF0FF34F0
:103F1C00FCF77DFA4FF4C9700721AD222B46CDF882
:103F2C000080FCF774FA4FF4D170002101221E239B
:103F3C00009605F090F84FF0FF35CDF80080BAF1FF
:103F4C00010F08BF40F21F4540F2A91007218A2239
:103F5C002B46FCF75CFA40F2B11007218B222B4662
:103F6C00CDF80080FCF753FA40F2831000210122B7
:103F7C001E23009605F06FF8CDF80080BAF1020F01
:103F8C0008BF40F21F444FF4E47007219C222346E3
:103F9C00FCF73DFA4FF4E87007219D222346CDF83B
:103FAC000080FCF734FA0C20512130224FF6FF73BD
:103FBC00CDF80080FCF728FB0020512119220123A9
:103FCC00009605F048F80C206B2131224FF6FF7358
:103FDC00CDF80080FCF718FB00206B21192201237F
:103FEC00009605F038F80C20852132224FF6FF732D
:103FFC00CDF80080FCF708FB002085211922012355
:10400C00009605F028F80C209F2133224FF6FF7301
:10401C00CDF80080FCF7F8FA00209F21192201232B
:10402C00009605F018F80C20B92134224FF6FF73D6
:10403C00CDF80080FCF7E8FA0020B9211922012301
:10404C00009605F008F80C20D32135224FF6FF73AB
:10405C00CDF80080FCF7D8FA0020D32119220123D7
:10406C00009604F0F8FF0C20ED2136224FF6FF737A
:10407C00CDF80080FCF7C8FA0020ED2119220123AD
:10408C00009604F0E8FF0C2040F2071137224FF69F
:10409C00FF73CDF80080FCF7B7FA002040F207114F
:1040AC0019220123009604F0D6FF09F5074494F871
:1040BC0031070238C1B2052928BF022048F6206119
:1040CC0049440591C0B246F23C31C0F60101DFE82B
:1040DC0000F07711030D080046F25431C0F60101CF
:1040EC0008E046F28431C0F6010103E046F26C317F
:1040FC00C0F60101CDE9024906A84B6900220599D9
:10410C0004939847DDF81890B9F1000F53D046F29C
:10411C0084584FF0000BC0F601080BE00BF1010BBB
:10412C000599049B06A85A469847DDF81890B9F1F2
:10413C00000F40D007980028F0D008991A2209EBFC
:10414C00000A0025514301F160040EE043EA81129C
:10415C0000F10209284621464FF6FF73CDF8008086
:10416C00FCF752FA0544D145D8D0484619F9011B41
:10417C00B1F1FF3FCAB2EDDC437802F01F01E02A37
:10418C0003F03F03E2D38678F02A06F03F0646EAB6
:10419C0083130BD3C27801F0070100F1040902F07C
:1041AC003F0242EA831242EA8142D3E743EA0132F8
:1041BC0000F10309CEE7DDF80C904FF6FF76029C78
:1041CC0018201F2101224FF48173009604F043FF45
:1041DC004846FEF777FD2068FEF7C0FC484609B05C
:1041EC00BDE8000FBDE8F040FFF7F0BCF0B503AF41
:1041FC004DF8048DD0E90145AC4216D31646621B2E
:10420C00964238BF32468046002A1EBFD8F80000BE
:10421C0028440FF07BFCA819A04238BF0446C8F80C
:10422C00084000205DF8048BF0BD284621460EF0B6
:10423C00CAFAF0B503AF2DE9000F87B0029241F234
:10424C00883251F802E0BEF1000F00F08D808468D6
:10425C0045F6C052D0E900654FF00008029B04F00F
:10426C00070B407C00241A44039006F007000192CF
:10427C0005F007020490002000254FF0000C0026EA
:10428C000592069004E04FF0000C0136B6456BD059
:10429C00B6F57A7F6DD088195FFA8CF290F8A0AFE2
:1042AC002AFA0BF000F001009042EED00028EAD080
:1042BC00A14651F826C0B8F1000F08BFE146039A99
:1042CC0008F0070008F10108002A08BF80F0070079
:1042DC00059BB8F1080F069A2AFA03F303F00103C1
:1042EC0003FA00F342EA0302049B06922AFA03F350
:1042FC0003F0010303FA00F040EA050204D015466E
:10430C004FF0010C4C46C0E7019D2868C3087C2B7C
:10431C0021D89046029A00EB4000032302F830307B
:10432C0002EBC000069B43702B68C0E9044C581C80
:10433C002860C3087C2B0ED800EB4000022302F847
:10434C00303002EBC000046180F801802B68C0F8AB
:10435C0014C0581C286000204FF000084FF0010CCE
:10436C004C460025069090E7002007B0BDE8000FF2
:10437C00F0BD4FF47A704FF47A710DF0D7FC80B524
:10438C006F4684B0014601F1040E006800239EE8DC
:10439C0004500F28CDE90233CDE900332ED86B46FB
:1043AC00195C21B1002000F0010004B080BD012196
:1043BC000F2A195421D8985C20B1002000F001007C
:1043CC0004B080BD0120BCF10F0F985419D813F81C
:1043DC000C0020B1002000F0010004B080BD0120D1
:1043EC00BEF10F0F03F80C000FD813F80E0080F07D
:1043FC00010000F0010004B080BD104610210DF04A
:10440C0095FC604610210DF091FC704610210DF0CA
:10441C008DFCD4D480B56F46032A2BD8DFE802F08C
:10442C0002200C1644F6446304220968C0F601030A
:10443C0003604260816080BD46F207630322896895
:10444C00C0F6010303604260816080BDC96846F21A
:10445C000A630222C0F6010303604260816080BDE2
:10446C0044F61C6304224968C0F6010303604260F1
:10447C00816080BD0021016080BDF0B503AF2DE9E6
:10448C00000F8BB0069241F288320A91895809913B
:10449C00002900F04281D0E9000245F6C056069989
:1044AC004FF0000B00F0070001233144059101216E
:1044BC004FF0010A01FA00F00025089002F0070005
:1044CC0001FA00F000210790002003900490029064
:1044DC00CDE9000008E0002003904FF0000B099894
:1044EC000135A84200F01981B5F57A7F00F01A81E8
:1044FC0089460A999E465246481951F8251090F85B
:10450C00A04F07982040034618BF0123089E16EAC7
:10451C00040CE24618BF4FF0010A82EA0A04E407D1
:10452C000DD0D20705D0BCF1000F08D10022012418
:10453C0007E0BCF1000F02D000241A4601E0002471
:10454C0000228046002818BF4FF001088EEA0806AA
:10455C00F6074CD05FEACE761ED0002847D1DDE9B5
:10456C0005465FEACB7068D10498C0077BD02268FF
:10457C00D0087C280BD802EB4200052206F830202C
:10458C0006EBC0002268C0E90491501C206000209A
:10459C004FF0010B0490A2E748B35FEACB7044D014
:1045AC00002CDDE90546DDE901E82BD1002A45D1D7
:1045BC005FFA8EF0082859D25FEA0E604FF0010BBB
:1045CC00009808BF084600908EF00700BCF1000F61
:1045DC0018BF4FF0010C0EF1010EC0B2CDF804E083
:1045EC000CFA00F048EA0008CDF8088077E70028BC
:1045FC0018BF012004405FEACB7016D0002CDDE917
:10460C0005461AD02268D0087C2829D802EB420033
:10461C0007224FF0010B06F8302006EBC000226891
:10462C00C0E90491501C206059E7002C3FF455AFB1
:10463C0001204FF0000B049051E78AB12268D0089A
:10464C007C283FF648AF02EB4200062206F83020E9
:10465C0006EBC0002268C0E90491501C20603AE7C8
:10466C004FF0010B3BE70020049036E70398C0079E
:10467C000ED02268D0087C2847D802EB42000122D9
:10468C0006F8302006EBC002009882F8018023E087
:10469C002268D0087C2838D802EB42000C2206F89D
:1046AC0030205FFA88F206EBC00052084270D4F852
:1046BC0000E0009AC0E904210EF101022260D0084A
:1046CC007C2822D808F0010002EB42020A3006F8DE
:1046DC00320006EBC2024846C2E904012068421CC3
:1046EC002260D0087C2810D8082002EB4202BCF1D2
:1046FC00000F18BF092006F8320006EBC200C0F804
:10470C00109022684161501C206001204FF0010B79
:10471C0003900020CDE90100E1E600200BB0BDE8DC
:10472C00000FF0BD4FF47A704FF47A710DF0FEFA71
:10473C0080B56F46D0E90001401A18BF012080BD3A
:10474C0080B56F4672B1012A1EBF0021016080BD89
:10475C00496846F20C630322C0F601030360426011
:10476C00816080BD46F20F6303220968C0F6010325
:10477C0003604260816080BDF0B503AF2DE9000F8E
:10478C0087B0D0E9006141F28832C160B2584AB1B9
:10479C00CB087C2B00F2A68056F821504B1C934280
:1047AC0078D203E000254B1C934273D291424360B4
:1047BC0070D2B1F57A7F039680F09480B3F57A7F4E
:1047CC00029561D0039CC2F1000E8368661803F059
:1047DC00070596F8A0BFA1F2E5360596A1F2E636DC
:1047EC00069600262BFA05F30193A1F2E733049306
:1047FC0004F6A47301EB0E0C1CF102024FD003EB78
:10480C00010919F8032C82EA0B02EA40D20746D1BF
:10481C0001EB0608069C08F10202426014EB060A42
:10482C0032D01CF103043CD019F8024C84EA0B047E
:10483C00EC40E40735D1059C08F103024260A41951
:10484C0022D01CF104042CD019F8014C84EA0B047E
:10485C00EC40E40725D108F10402B8F5797F4260F9
:10486C0012D01CF105041CD05C5C84EA0B04EC40F7
:10487C00E40716D108F105024260049A04360433A9
:10488C000EF1040E9219B5D14FF47A704FF47A717F
:10489C000DF04CFA0F2007B0BDE8000FF0BD31440D
:1048AC004A1CDDE90263D1087C2920D80199C9078B
:1048BC0004D00C2007B0BDE8000FF0BD53F8221057
:1048CC00026A891B914204D2032007B0BDE8000F95
:1048DC00F0BD426A0E20914288BF042007B0BDE8AB
:1048EC00000FF0BD08464FF47A710DF01FFA104618
:1048FC004FF47A710DF01AFAF0B503AF2DE9000FF1
:10490C008BB0D0E90062036A019341F28833F4580A
:10491C008168C260002C00F08F8001F00708012133
:10492C00CDE9036401FA08F1029106F57A61079169
:10493C0006F6A1710691614205911146D2087C2AB6
:10494C0000F285804A1CA24276D256F82130B2F58C
:10495C007A7F42600893079B5E5C72D0DDE905EBC1
:10496C00A1F2E63AA1F2E7324FF000090992A1F266
:10497C00E5320A9201EB0E05AA1C43D01BF801206C
:10498C00724022FA08F2D2073CD101EB09031AEB70
:10499C00090403F10202426053D0EC1C35D00BEB3E
:1049AC00010C9CF80140744024FA08F4E4072CD163
:1049BC000A9CDA1C426014EB090442D02C1D24D052
:1049CC009CF80240744024FA08F4E4071DD11A1D27
:1049DC00B3F5797F426034D06C1D16D09CF803502F
:1049EC00754025FA08F5ED070FD15A1D4260099A5A
:1049FC0009F104090BF1040B0EF1040E12EB090280
:104A0C00B8D11EE001EB09020132049CD3087C2BC7
:104A1C0022D8029B1E42039E7FF48FAF56F82230A1
:104A2C00089D5B1B019DAB42FFF487AF41600120E9
:104A3C000BB0BDE8000FF0BD00200BB0BDE8000FBF
:104A4C00F0BD4FF47A704FF47A710DF06FF908469F
:104A5C004FF47A710DF06AF910464FF47A710DF03B
:104A6C0065F9F0B503AF2DE9000F9DB0D0E90086D4
:104A7C00CDE90C2141F2883158F801A0BAF1000FB0
:104A8C0006D0B6F57A7F80F0168258F8269001E0B1
:104A9C004FF000090C9A41440D9B029145F6C05110
:104AAC00194403690691917A09934369D2E9005C30
:104ABC00C90792F808E0527A059208F6A47213938B
:104ACC00D0E90634079208F6A1720B9208F57A62C7
:104ADC001794046A0A9282680894046B02F0070B1C
:104AEC000193234400934B4604940391CDF85490C6
:104AFC00CDF85080BAF1000F06D0F1087C2900F2F5
:104B0C00D98158F8261000E000211691711C5145EE
:104B1C003CBF4160564580F09281B6F57A7FCDF866
:104B2C0060A0CDE9103ECDE90EC51C9680F0AF819A
:104B3C00B1F57A7F00F0A3811C9900240A9ADDF864
:104B4C002C90555C25FA0BF21292A1F2E7321992D5
:104B5C00A1F2E532A1F2E6311B9118991A92C1F13A
:104B6C00000842461C9EB11819F806A08B1C4FD0A9
:104B7C008AEA050323FA0BF3DB0749D106EB040C95
:104B8C001B9E0CF102034360361900F078811C9EC9
:104B9C0009EB060ECE1C9EF801A032D08AEA05065F
:104BAC0026FA0BF6F6072CD11A9E0CF10303436080
:104BBC00361900F064819EF802A00E1D21D08AEAFD
:104BCC00050626FA0BF6F6071BD10CF10403BCF50F
:104BDC00797F436000F053819EF803A0053110D01B
:104BEC008AEA050121FA0BF1C9070AD10CF105017A
:104BFC0041601999043409F1040904320919B1D13D
:104C0C003DE11C9ED9087C29DDE9141908D945E140
:104C1C0031194B1CD9087C29DDE9141900F23E81AD
:104C2C0051F823501299C90740F00F8116996C1A4C
:104C3C0009998C42C0F00C8117998C4203D90899C0
:104C4C008C4280F0088117998C4203D908998C42C8
:104C5C00C0F0048113998C4203D901998C42C0F0A5
:104C6C000081189A591C914280F0ED80B1F57A7F41
:104C7C00CDE91845416000F00281DDF81CC0A3F2BB
:104C8C00E63EA3F2E73100251A91A3F2E5311B9120
:104C9C0003EB080919F1020249D00CEB030616F8D4
:104CAC00032C82EA0A0222FA0BF2D2073FD15A19DC
:104CBC001EEB050102F10204446000F0E08019F1E2
:104CCC00030136D016F8021C81EA0A0121FA0BF115
:104CDC00C9072ED11B99D41C4460491900F0CF8010
:104CEC0019F1040125D016F8011C81EA0A0121FAF8
:104CFC000BF1C9071DD1141DB2F5797F446000F08A
:104D0C00BE8019F1050114D01CF8031081EA0A01C8
:104D1C0021FA0BF1C9070CD1511D41601A990435C8
:104D2C000CF1040C08F104084919B1D1A7E0591988
:104D3C004C1C1399DDE9183E1C9EDDF850808B420B
:104D4C00069DDDE9042ADDF844C013D9B4F57A7F59
:104D5C0080F0AA8058F82490A9EB0E019142C0F083
:104D6C00878002EB0E094FF0000E2A68D3087C2BCB
:104D7C0018D979E0E1087C2900F2968058F82410C3
:104D8C00169A891A179A8A4238BF1146009A01EB73
:104D9C000E091944914269D34FF0010E2A68D308C9
:104DAC007C2B61D80D9902EB4202042301F83230BE
:104DBC0001EBC20282F801E02B681099C2E90419D8
:104DCC005A1C2A605FFA8CF292453CD9CDF854906B
:104DDC000CF10102DDF83090039989F808200029C4
:104DEC0018BFAAEB0C0C0CF03F03B3F1200C0EFA1D
:104DFC0003F1C3F1200358BF00210F9D2EFA03F3DA
:104E0C0058BF0EFA0CF3DDF838C00D43D1B24CEAA2
:104E1C00030C5145C9E9005C11D202990023964656
:104E2C002646D1F800A0BAF1000F1EBF58F8243066
:104E3C0096462646BAF1000F7FF45FAE64E60E216B
:104E4C00DDF8549015E00E2113E00C21A94610E07A
:104E5C000521A9460DE00A21A9460AE00821A94628
:104E6C0007E00621A94604E00F2102E0072100E03B
:104E7C000921C66048461DB0BDE8000FF0BD1C9965
:104E8C00C1604FF47A704FF47A710CF04FFF1C999B
:104E9C00C16008464FF47A710CF048FFC6601846A2
:104EAC004FF47A710CF042FFC66020464FF47A71D1
:104EBC000CF03CFFC66030464FF47A710CF036FFB4
:104ECC00F0B503AF2DE9000F9FB092464FF434724A
:104EDC00189241F66C32179241F2266216924FF4F8
:104EEC00614215924AF6C002149242F63022139295
:104EFC0040F67E12129240F2465200684AF24A691B
:104F0C0011924FF4E1720E900CA810920022CDF881
:104F1C0064900F920D920C91FFF7EEFC002800F0BC
:104F2C00F38745F6C0500AEB000B00250020CDF8A6
:104F3C002CB0CDF810A0C0B2DFE810F00800B4001F
:104F4C00430052003400EA00010161004FF4347355
:104F5C00DDE90C10189341F66C33179341F226637C
:104F6C0016934FF4614341F2883215934AF6C0030D
:104F7C008A58149342F63023CDF86490139340F67C
:104F8C007E13129340F2465311934FF4E173002AAF
:104F9C00109300F0BB81C2087C2A00F2BE8751F846
:104FAC002080B5E10C9941F288300858002800F0B7
:104FBC00D5800D98C2087C2A00F2AF8751F820608A
:104FCC00CDE00C9941F288300858002800F030816F
:104FDC000D98C2087C2A00F2A08751F8205028E1D5
:104FEC000C9941F288300858002800F056810D9831
:104FFC00C2087C2A00F2918751F820504EE1DDE97D
:10500C000C1041F2883200254FF48043CDE91A553B
:10501C008A588DF87250ADF870302AB1C2087C2ACB
:10502C0000F27B8751F820500CA81AAA5146FFF7C2
:10503C0018FDCCB20F2C00F0B1869DF87010D9B1D0
:10504C00DBF80020D3087C2B00F2A88602EB42028E
:10505C001223DDF82CB00AF832300AEBC2020B9B9B
:10506C00DDE91AE6C2E902E6D3F800C0C2E9045051
:10507C000CF10102CBF800209DF87120914280F0D8
:10508C002E820E2C00F08A860A2C40F0A0840C99FB
:10509C0041F288320F988958884280F03A870D90F7
:1050AC0000F07ABEDDE90C1041F2883200254FF495
:1050BC000063CDE91A558A588DF87250ADF87030EE
:1050CC002AB1C2087C2A00F2288751F820500CA87B
:1050DC001AAA5146FFF7C5FCCAB20F2A00F05E8629
:1050EC009DF87080B8F1000F00F0F3849DF86860B3
:1050FC00682E00F34783332E00F0C0843C2E00F062
:10510C00CA84552E40F0C0844FF0020C00F0C8BC8D
:10511C002C4606200025022C3FF60DAF0C9941F2CF
:10512C0088300858002800F0DD810D98C2087C2AD0
:10513C0000F2F38651F820804AF24A6BD6E10C99C2
:10514C0041F288300858002800F01E810D98C208E2
:10515C007C2A00F2E28651F8205016E1002600204D
:10516C001AAACDE91A0051468DF872004FF400606E
:10517C00ADF870000CA8FFF774FCCCB20F2C00F04B
:10518C00C38605469DF87000A8B10B990968CA083A
:10519C007C2A00F2B98601EB410110239DF86820AE
:1051AC000AF831300AEBC1010B9B4A70C1E9046566
:1051BC001A68511C19609DF87110884234D20E2C5B
:1051CC0000F0A2864FF43470CDF86490189041F63C
:1051DC006C30179041F2266016904FF46140159098
:1051EC004AF6C000149042F63020139040F67E1020
:1051FC00129040F2465011904FF4E17010900CA8B0
:10520C00FFF77AFB002800F07F860C9941F288307A
:10521C000858002800F07A820D98C2087C2A00F207
:10522C007C8651F8200072E20624DDF82CB093E263
:10523C00002500201AAACDE91A0051468DF87200FB
:10524C004FF40060ADF870000CA8FFF70AFCCCB26C
:10525C000F2C00F0A3859DF87010B1B1DBF8002085
:10526C00D3087C2B00F29A8502EB420215269DF89E
:10527C0068300AF832600AEBC2025370DBF8003077
:10528C00C2E904505A1CCBF800209DF871209142C1
:10529C00C0F0AB80032000F082BD002500201AAACC
:1052AC00CDE91A0051468DF872004FF44050ADF81C
:1052BC0070000CA8FFF7D5FBCCB20F2C00F06E855C
:1052CC009DF87010D9B1DBF80020D3087C2B00F2CC
:1052DC00658502EB42021623DDF82CB00AF8323059
:1052EC000AEBC2020B9BDDE91AE6C2E902E6D3F82F
:1052FC0000C0C2E904500CF10102CBF800209DF86B
:10530C007120914271D3042000F049BD4FF0000888
:10531C000CA8FFF731FAC4B20F2C00F0F585DDE9CB
:10532C000C6141F288303558002D00F09B80C80884
:10533C007C2800F2F68556F821000E2C40F0968061
:10534C00DBF8003041F28832B418DA087C2A0ED827
:10535C0003EB43020F230AF832300AEBC202DBF8EC
:10536C000030C2E904800133CBF800302568002DF1
:10537C0007960293009400F02581B1F57A7F80F0B6
:10538C00D08556F821001EE1002500201AAACDE98F
:10539C001A0051468DF872004FF40060ADF87000A1
:1053AC000CA8FFF75EFBCCB20F2C00F0F7849DF835
:1053BC007010B1B1DBF80020D3087C2B00F2EE8426
:1053CC0002EB420214269DF868300AF832600AEBB0
:1053DC00C2025370DBF80030C2E904505A1CCBF8FF
:1053EC0000209DF87120914279D20E2C00F0D684C9
:1053FC0005464FF43470189041F66C30179041F21A
:10540C00266016904FF4614015904AF6C000149037
:10541C0042F63020139040F67E10129040F2465027
:10542C0011904FF4E17010900CA8CDF86490FFF738
:10543C0063FA002800F0B2840C9A41F288302946B5
:10544C001058002800F0F6820D98C3087C2B00F24F
:10545C00648552F82000DBF80020D3087C2B00F286
:10546C009D84EEE200200E2C3FF46AAF4FF43470B2
:10547C00CDF86490189041F66C30179041F226608C
:10548C0016904FF4614015904AF6C000149042F605
:10549C003020139040F67E10129040F2465011903E
:1054AC004FF4E17010900CA8FFF726FA002800F0DA
:1054BC002B850C9941F288300858002800F00781A0
:1054CC000D98C2087C2A00F2288551F82000DBF8E0
:1054DC000010CA087C2A40F2018100F015BD07209B
:1054EC0000F05DBC4AF24A6B4FF000084FF480406C
:1054FC001AAAADF870000CA85146CDE91A558DF8D2
:10550C007250FFF7AEFA5FFA81F9B9F10F0F01D1C2
:10551C0008204DE19DF87010B9B10B9E3268D3088C
:10552C007C2B00F23E8102EB42021223DDE91AE5EC
:10553C000AF832300AEBC202D6F800C0C2E902E522
:10554C00C2E904800CF1010232609DF87120914295
:10555C0080F02481B9F10E0F00F0288104464FF43D
:10556C003470189041F66C30179041F2266016900A
:10557C004FF4614015904AF6C000149042F630206A
:10558C00139040F67E10129040F2465011904FF45A
:10559C00E17010900CA8CDF864B0FFF7ADF90028BD
:1055AC0000F004810C9A41F28830214610580028F2
:1055BC0000F0FA830D98C3087C2B00F2AE8452F8ED
:1055CC002000F2E300204A1C05900F91AA423EBF36
:1055DC000E980D92A94280F09784B1F57A7F0695CA
:1055EC0080F09F84B2F57A7F00F09584079E00F0DE
:1055FC00070EA1F2E6384FF0000B721806F6A474F1
:10560C00099492F8A03F23FA0EF00390A1F2E73030
:10561C000890A1F2E5300A9006984242019204EB00
:10562C00010A8E18B01C1AF8039C00F0C68089EA97
:10563C00030020FA0EF0C00740F0BF8001EB0B0C0A
:10564C0018EB0B050CF102000D9000F064841AF8B5
:10565C00029CF51C00F0B48089EA030525FA0EF5CE
:10566C00ED0740F0AD800A9D0CF103000D9015EB99
:10567C000B0500F050841AF8019C351D00F0A08039
:10568C0089EA030525FA0EF5ED0740F099800CF137
:10569C000400BCF5797F0D9000F03D8414F8019066
:1056AC00751D00F08D8089EA030525FA0EF5ED07CE
:1056BC0040F086800CF105000D9008980BF1040B5E
:1056CC000434043210EB0B00A9D100F024BC0020F0
:1056DC00DBF80010CA087C2A00F2168401EB4101A9
:1056EC000E2646F6181246F650130AF83160C0F62C
:1056FC000102C0F601030B9E0AEBC10152F82420F3
:10570C0053F824303668C1E9048055E100200B9928
:10571C000968CA087C2A00F2F78346F6501301EB9D
:10572C004101DDF82CB046F61812C0F601030E2626
:10573C00C0F601020AF831600AEBC10153F82430BB
:10574C0052F82420DBF80040C1E90450601C00240E
:10575C00C1E90123CBF800000CA8FFF70DF8C0B28B
:10576C000F2800F0D1830C9A41F288330F99D2584C
:10577C00914280F0CE830E380D9118BF2046002543
:10578C00FFF7D9BB692E00F07C81CC2E00F086810E
:10579C00F02E40F079814FF0030C81E1651C05205F
:1057AC0006E00820B3464AF24A69F9E208200025CF
:1057BC00DDF82CB04AF24A69F2E201EB0B00013041
:1057CC00DDF810A0C108DDF82CB07C29079C00F294
:1057DC00A4830399069AC90772D054F82010059E29
:1057EC00179D891BA94280F0A3800391411C914213
:1057FC00089580F08983B1F57A7F0D9100F08B8349
:10580C00DDF804B0A0F2E53AA0F2E63C0024A0F2E8
:10581C00E7310A91099900EB0B060D18B11C15F82C
:10582C00038C00F0E18188EA090121FA0EF1C90725
:10583C0040F0DA8103191CEB040203F102010D9113
:10584C0000F0698315F8028CF21C00F0CF8188EA15
:10585C00090222FA0EF2D20740F0C881D91C1AEBC9
:10586C0004020D9100F0578315F8018C321D00F0E5
:10587C00BD8188EA090222FA0EF2D20740F0B68105
:10588C00191DB3F5797F0D9100F04583099A12F833
:10589C000080721D00F0AA8188EA090222FA0EF239
:1058AC00D20740F0A381591D0D910A9904340BF1D4
:1058BC00040B0919099901F104010991AAD12AE3F0
:1058CC000D244AF24A694FF43470CDF86490189064
:1058DC0041F66C30179041F2266016904FF46140FF
:1058EC0015904AF6C000149042F63020139040F602
:1058FC007E10129040F2465011904FF4E1701090CF
:10590C000CA8FEF7F9FF002800F0FE820C9941F27A
:10591C008830085888B30D98C2087C2A00F2FD82A2
:10592C0051F82000DBF80010CA087C2A2CD9EBE2D5
:10593C0005EB060CB0464AF24A69029BB3F57A7F36
:10594C0080F06B828E4603EB4301112200230AF890
:10595C0031200AEBC102AE4538BF01235370002140
:10596C00DBF80030C2E9048C009A0133CBF800302C
:10597C001268002A40F0518254E20020DBF800103B
:10598C00CA087C2A00F2C08201EB41010E2646F6C1
:10599C00181246F650130AF83160C0F60102C0F630
:1059AC0001030B9E0AEBC101059D52F8242053F80C
:1059BC0024303668C1E90450DDF82CB0701CC1E904
:1059CC000123CBF8000000250020FFF7B4BA0546F0
:1059DC004FF43470189041F66C30179041F22660F9
:1059EC0016904FF4614015904AF6C000149042F6A0
:1059FC003020139040F67E10129040F246501190D9
:105A0C004FF4E17010900CA8CDF86490FEF774FF81
:105A1C00002800F0C3810C9941F288300858002806
:105A2C0000F096810D98C2087C2A00F2768251F81B
:105A3C0020008EE10020DBF80020D3087C2B00F244
:105A4C00AD8102EB420246F650160E25C0F6010659
:105A5C000AF8325046F61813C0F601030B9D0AEBF8
:105A6C00C20256F8246053F824302D68C2E90410A1
:105A7C00C2E90136681CDDF82CB08BE14FF0000C4C
:105A8C000EE04FF0050C0BE0DDF82CB00E2A40F0C8
:105A9C008F800B2120E04FF0040C01E04FF0010C43
:105AAC000B9B1C68E6087C2E4ED804EB440417268E
:105ABC009DF871E09B460AF834600AEBC404F0458B
:105ACC0084F801C01E68C4E9045006F101041C608E
