:020000040800F2
:1000000000000320AD010008513F0008074D000823
:10001000513F0008513F0008513F00080000000018
:10002000000000000000000000000000513F000838
:10003000513F000800000000513F0008513F0008F8
:10004000513F0008513F0008513F0008513F000850
:10005000513F0008513F0008513F0008513F000840
:10006000513F0008513F0008513F0008513F000830
:10007000513F0008513F0008513F0008513F000820
:10008000513F0008513F0008513F0008513F000810
:10009000513F0008513F0008513F0008513F000800
:1000A000513F0008513F0008513F0008513F0008F0
:1000B000513F0008513F0008513F0008513F0008E0
:1000C000513F0008513F0008513F0008513F0008D0
:1000D000513F0008513F0008513F0008513F0008C0
:1000E000513F0008513F0008513F0008513F0008B0
:1000F000513F0008513F0008513F0008513F0008A0
:10010000513F0008513F0008513F0008513F00088F
:10011000513F0008513F0008513F0008513F00087F
:10012000513F0008513F0008513F0008513F00086F
:10013000513F0008513F0008513F0008513F00085F
:10014000513F0008513F0008513F0008513F00084F
:10015000513F0008513F0008513F0008513F00083F
:10016000513F0008513F0008513F0008513F00082F
:10017000513F0008513F0008513F0008513F00081F
:10018000513F0008513F0008513F0008513F00080F
:10019000513F0008513F0008513F0008513F0008FF
:0C01A000513F0008513F0008513F00088B
:1001AC0003F0D1FE0E480F490022814201D004C059
:1001BC00FBE70D480D490E4A814202D008CA08C01F
:1001CC00FAE70C484FF47001026842EA010202603F
:1001DC00BFF34F8FBFF36F8F01F024FD00DE0000E3
:1001EC00000000200400002000000020000000207F
:1001FC005461000888ED00E0CAB101EB020C44F632
:10020C000002C4F2000203E00131536061450ED0DC
:10021C000B7810680006F7D4106800065CBF1068F5
:10022C005FEA0060F0D410680006F2D5ECE700201D
:10023C00704780B56F46A2B00A46C969CB0616D482
:10024C00890621D4017864294CD329204843030B17
:10025C006FF0630013FB001045F6F851C0F6000177
:10026C00C0B231F81000ADF8090000203EE0007873
:10027C0000F00F0101F157030A2938BF01F13003D7
:10028C008DF8873057210BE0007800F00F0101F159
:10029C0037030A2938BF01F1300337218DF8873035
:1002AC0001EB10110309A02838BF03F1300110280D
:1002BC0038BF00218DF886104FF0020138BF0121A4
:1002CC00009102A9102801F17E03104638BF01F1FC
:1002DC007F0345F6F451C0F60001022203F0FEF94B
:1002EC0022B080BD0A2906D202200B4643F0300111
:1002FC0002AB195408E045F6F850C0F6000030F88F
:10030C001100ADF80900012080F00301009102A951
:10031C000B1810460121002203F0E0F922B080BD39
:10032C00F0B503AF2DE9000F8DB006680C463078A0
:10033C0080B1D4E905B944F62A51D9F80C50C0F66D
:10034C00000104225846A84790B101200DB0BDE829
:10035C00000FF0BD44F62E51D4E90502D368C0F667
:10036C00000104220DB0BDE8000FBDE8F0401847B5
:10037C00D4F81CA006F101085FEA4A7015D445F6C2
:10038C00F1515846C0F600010122A8470146012050
:10039C000029DBD140462146FFF74BFF002846D011
:1003AC0001200DB0BDE8000FF0BD45F6F2515846E6
:1003BC00C0F600010222A847014601200029C5D140
:1003CC0004F10806A7F1410145F6CC5507F8410C9C
:1003DC004CCE6846C0F60005CDE90191D4E900C1C8
:1003EC00099006A8CDE904C104A90A9594F82050F7
:1003FC004CC04046CDF800B0CDF82CA08DF8305054
:10040C00FFF717FF20B101200DB0BDE8000FF0BDC4
:10041C00DDE909010222CB6845F6EC51C0F600017A
:10042C00984720B101200DB0BDE8000FF0BDD4E914
:10043C0005010122CB6845F69C51C0F60001984796
:10044C000DB0BDE8000FF0BDF0B503AF2DE9000F06
:10045C00A3B08946C969CA064ED4890600F18A80C0
:10046C00016842F210704FF69C7E814245F6F850BE
:10047C00C0F60000C0F0D68041F259784EF2FF046D
:10048C000DF10C0BCDF808900022CDF2B7184DF6FB
:10049C00F00941F27B4AC0F2F554A1FB08350BEB95
:1004AC00020C043AA1424FEA553303FB09151946D5
:1004BC00AEB24FEA960606FB0AF64FEA564606FB24
:1004CC000E5530F81660ACF80660ADB230F8155029
:1004DC00ACF80850E1D8DDF808900A3219466329C7
:1004EC0000F2A4800B460A2BC0F0B180911E30F8AC
:1004FC00130003AA5052AFE003680DF10C0E8024D8
:10050C0081214FF05708204603F00F0404F15705E2
:10051C000A2C38BF04F130050EEB0104102B04F843
:10052C00025C66D3DDB2A02D08EB15164FEA15124E
:10053C0038BF02F130061D0A04F8036C5CD005F0DC
:10054C000F02043902F157050A2A38BF02F13005AF
:10055C0004F8045C1D0B52D005F00F0202F1570594
:10056C000A2A38BF02F1300504F8055C041F1B0C85
:10057C00C9D13CE003680DF10C0E802481214FF0B1
:10058C00370C03F00F06204606F137050A2E0EEB4A
:10059C00010438BF06F13005102B04F8025C28D397
:1005AC00DEB2A02E0CEB16154FEA161238BF02F174
:1005BC00300504F8035C1D0A1ED005F00F02043947
:1005CC0002F137050A2A38BF02F1300504F8045C41
:1005DC001D0B14D005F00F0202F137050A2A38BFA3
:1005EC0002F1300504F8055C041F1B0CC9D103385B
:1005FC0007E08C1E481E04E00138CC1E01E00238D6
:10060C000C4645F6F451C0F181000EEB040300904A
:10061C00C0F600014846022203F060F823B0BDE8A2
:10062C00000FF0BD0A2263297FF65CAF8BB241F25A
:10063C007B469B08023A734303AE5B0C03FB0E1123
:10064C0089B230F81110B1520A2BBFF44FAF511EC2
:10065C0003AA43F030005054C1F10A00009003A8E3
:10066C00002243184846012103F038F823B0BDE8B6
:10067C00000FF0BD81B0002080290090684602D2A6
:10068C0000F1010C37E0B1F5006F0BD202220B46E2
:10069C0062F39F13C02200F1020C8DF8013042EA84
:1006AC00911128E0B1F5803F10D202220B4662F383
:1006BC009F138DF802308B0900F1030C62F39F132A
:1006CC00E0228DF8013042EA113114E002220B468F
:1006DC0062F39F138DF803308B0900F1040C62F365
:1006EC009F138DF802300B0B62F39F13F0228DF8E1
:1006FC00013042EA914144F600028DF8001069463F
:10070C00C4F2000203E00131536061450ED00B7856
:10071C0010680006F7D4106800065CBF10685FEA2A
:10072C000060F0D410680006F2D5ECE7002001B0B0
:10073C007047F0B503AF4DF8048D82B080460020B1
:10074C008029019003D201248DF8041033E0B1F517
:10075C00006F09D20224084664F39F108DF805003F
:10076C00C02040EA911024E002200A4660F39F1258
:10077C00B1F5803F0DD28DF806208A0960F39F12E7
:10078C00E02040EA11308DF805208DF80400032498
:10079C0011E08DF807208A0960F39F128DF806206E
:1007AC000A0B042460F39F12F02040EA91408DF86C
:1007BC0005208DF80400D8E90156B54215D309D0AF
:1007CC00D8F8000001A9AA1B3044A24228BF224637
:1007DC0004F04BF93019854238BF2846C8F8080098
:1007EC00002002B05DF8048BF0BD3046294603F0C2
:1007FC0053FB0A4644F65051C0F6000103F094B87E
:10080C000A4644F63851C0F6000103F08DB8C00713
:10081C0008BF704704F01BB9D1E9050244F6085132
:10082C00D368C0F6000105221847B0B502AF84B0FA
:10083C00044604300D460190D1E905010922CB682C
:10084C0044F60D51C0F6000198478DF80C0040F2AB
:10085C0055400021C0F600008DF80D1044F61651DD
:10086C00009002A8C0F600010B222346029503F06B
:10087C0021F940F22D3101ABC0F6000109220091A3
:10088C0044F62151C0F6000103F014F99DF80D2037
:10089C009DF80C10012A42EA010008BF5FEAC17101
:1008AC0003D000F0010004B0B0BD0298017F4907ED
:1008BC000CD4D0E905010222CB6845F6EF51C0F605
:1008CC000001984700F0010004B0B0BDD0E905016B
:1008DC000122CB6845F6EE51C0F60001984700F0B6
:1008EC00010004B0B0BDD1E9050244F66851D368EB
:1008FC00C0F600010D221847F0B503AF2DE9000F2B
:10090C0089B0002B07915AD0BE68D1180491D6E952
:10091C0002937168069109F10701B9F1000F089370
:10092C004FEAD10A03FB0AF1059118BF002B4AD1FB
:10093C004FF48048164616F9011BB1F1FF3FCCB2BB
:10094C0021DC517804F01F06E02C01F03F0112D39A
:10095C001D469378F02C03F03F0343EA81110ED32C
:10096C00D37803F03F0343EA811106F00703161D09
:10097C0041EA834406E041EA8614961C03E041EA0E
:10098C000634D61C2B4607994A46054600F05EF9FC
:10099C00B4F1200038BF5F20059948430699814285
:1009AC00C0F0508140F618404D44C4F2020032466B
:1009BC00C0F800800498089B86422846BBD109B039
:1009CC00BDE8000FF0BD40F2240B43F2080831687B
:1009DC00C4F2000BC4F20108164601910EE040F679
:1009EC0018404FF48041C4F2020001600398029E4B
:1009FC0004994844089B8E423246E0D016F9011BFC
:100A0C00B1F1FF3FCCB221DC517804F01F06E02C91
:100A1C0001F03F0112D31D469378F02C03F03F03F5
:100A2C0043EA81110ED3D37803F03F0343EA8111DB
:100A3C0006F00703161D41EA834406E041EA8614DA
:100A4C00961C03E041EA0634D61C2B4607994A460D
:100A5C00039000F0FBF8B4F1200038BF5F2005993B
:100A6C00484306998142C0F0ED80019A091A4FF073
:100A7C00000C029602EB000E04E008980CF1010C3D
:100A8C008445ACD00CFB0AF6002402E001344C4542
:100A9C00F3D006EBD400884280F0D6801EF800001C
:100AAC0004F00703DBF80050DBF80020521B592A36
:100ABC000ED8DBF80020521B592A9EBFDBF8002011
:100ACC00521B592A04D8DBF80020521B5A2AEBD3AC
:100ADC0083F00703D8F8002092070CD4D8F8002034
:100AEC0092075CBFD8F800205FEA827203D4D8F872
:100AFC0000209207EED5D84000F001004042C0B271
:100B0C00C8F80400D8F80020D2070CD1D8F800207F
:100B1C00D20704BFD8F800205FEAC27203D1D8F81C
:100B2C000020D207EED0D8F8002012060CD5D8F849
:100B3C000020120644BFD8F800205FEA026203D5F9
:100B4C00D8F800201206EED4D8F80420DBF80030D8
:100B5C00DBF80020D21A592A0ED8DBF80020D21A62
:100B6C00592A9EBFDBF80020D21A592A04D8DBF888
:100B7C000020D21A5A2AEBD3DBF80030DBF8002025
:100B8C00D21A592A0ED8DBF80020D21A592A9EBF45
:100B9C00DBF80020D21A592A04D8DBF80020D21A2C
:100BAC005A2AEBD3D8F8002092070CD4D8F800209E
:100BBC0092075CBFD8F800205FEA827203D4D8F8A1
:100BCC0000209207EED5C8F80400D8F80000C00742
:100BDC000CD1D8F80000C00704BFD8F800005FEAB9
:100BEC00C07003D1D8F80000C007EED0D8F80000D0
:100BFC0000060CD5D8F80000000644BFD8F8000059
:100C0C005FEA006003D5D8F800000006EED4D8F8EF
:100C1C000400DBF80000DBF80020121A592A3FF61A
:100C2C0035AFDBF80020121A592A9EBFDBF80020E2
:100C3C00121A592A3FF62AAFDBF80020121A5A2A48
:100C4C00E9D323E703F028F902F0C8FCF0B503AFB1
:100C5C004DF8048D40F6184C4FF00056C4F2020CBF
:100C6C0040F2240ECCF800684FF08046CCF80060BF
:100C7C00C4F2000EDEF80060A1F10108441EDEF89B
:100C8C000050AD1B592D0ED8DEF80050AD1B592D60
:100C9C009EBFDEF80050AD1B592D04D8DEF8005075
:100CAC00AD1B5A2DEBD3144443F20802C4F20102DB
:100CBC001568AD0709D41568AD075CBF15685FEA08
:100CCC00857502D41568AD07F2D52A2555601568CF
:100CDC00ED0709D11568ED0704BF15685FEAC57506
:100CEC0002D11568ED07F2D015682D0609D51568E7
:100CFC002D0644BF15685FEA056502D515682D06FB
:100D0C00F2D45568DEF80060DEF80050AD1B592DAA
:100D1C000ED8DEF80050AD1B592D9EBFDEF80050EA
:100D2C00AD1B592D04D8DEF80050AD1B5A2DEBD35A
:100D3C004FF48045CCF800504FF40055CCF80058D7
:100D4C004FF08045CCF80050DEF80060DEF8005023
:100D5C00AD1B592D0ED8DEF80050AD1B592D9EBF82
:100D6C00DEF80050AD1B592D04D8DEF80050AD1B39
:100D7C005A2DEBD343441568AD0709D41568AD075C
:100D8C005CBF15685FEA857502D41568AD07F2D5AE
:100D9C00002555601568ED0709D11568ED0704BFEE
:100DAC0015685FEAC57502D11568ED07F2D01568B4
:100DBC002D0609D515682D0644BF15685FEA056533
:100DCC0002D515682D06F2D45568DEF80050DEF811
:100DDC000060761B592E0ED8DEF80060761B592E5B
:100DEC009EBFDEF80060761B592E04D8DEF800603A
:100DFC00761B5A2EEBD3DEF80050DEF80060761B23
:100E0C00592E0ED8DEF80060761B592E9EBFDEF8E8
:100E1C000060761B592E04D8DEF80060761B5A2E23
:100E2C00EBD31568AD0709D41568AD075CBF156821
:100E3C005FEA857502D41568AD07F2D5C0F30725B6
:100E4C0055601568ED0709D11568ED0704BF1568E5
:100E5C005FEAC57502D11568ED07F2D015682D064D
:100E6C0009D515682D0644BF15685FEA056502D5DE
:100E7C0015682D06F2D45568DEF80050DEF80060D7
:100E8C00761B592E0ED8DEF80060761B592E9EBFAD
:100E9C00DEF80060761B592E04D8DEF80060761B55
:100EAC005A2EEBD34FF48045CCF800504FF400553C
:100EBC00CCF800584FF08045CCF80050DEF80050CC
:100ECC00DEF80060761B592E0ED8DEF80060761B1B
:100EDC00592E9EBFDEF80060761B592E04D8DEF822
:100EEC000060761B5A2EEBD31568AD0709D4156834
:100EFC00AD075CBF15685FEA857502D41568AD0750
:100F0C00F2D5002555601568ED0709D11568ED0778
:100F1C0004BF15685FEAC57502D11568ED07F2D0FC
:100F2C0015682D0609D515682D0644BF15685FEAAE
:100F3C00056502D515682D06F2D45568DEF800500B
:100F4C00DEF80060761B592E0ED8DEF80060761B9A
:100F5C00592E9EBFDEF80060761B592E04D8DEF8A1
:100F6C000060761B5A2EEBD3DEF80050DEF80060E2
:100F7C00761B592E0ED8DEF80060761B592E9EBFBC
:100F8C00DEF80060761B592E04D8DEF80060761B64
:100F9C005A2EEBD31568AD0709D41568AD075CBFA5
:100FAC0015685FEA857502D41568AD07F2D5C0B235
:100FBC0050601068C00709D11068C00704BF1068E2
:100FCC005FEAC07002D11068C007F2D0106800064A
:100FDC0009D51068000644BF10685FEA006002D5AE
:100FEC0010680006F2D45068DEF80000DEF80050FD
:100FFC002D1A592D0ED8DEF800502D1A592D9EBFE2
:10100C00DEF800502D1A592D04D8DEF800502D1A98
:10101C005A2DEBD34FF48040CCF800004FF4005025
:10102C00CCF800084FF08040CCF80000DEF800004F
:10103C00DEF800502D1A592D0ED8DEF800502D1A5E
:10104C00592D9EBFDEF800502D1A592D04D8DEF80C
:10105C0000502D1A5A2DEBD31068800709D4106854
:10106C0080075CBF10685FEA807002D4106880074C
:10107C00F2D5002050601068C00709D11068C00775
:10108C0004BF10685FEAC07002D11068C007F2D0CC
:10109C001068000609D51068000644BF10685FEAA6
:1010AC00006002D510680006F2D45068DEF800002B
:1010BC00DEF800502D1A592D0ED8DEF800502D1ADE
:1010CC00592D9EBFDEF800502D1A592D04D8DEF88C
:1010DC0000502D1A5A2DEBD3DEF80000DEF800502C
:1010EC002D1A592D0ED8DEF800502D1A592D9EBFF1
:1010FC00DEF800502D1A592D04D8DEF800502D1AA8
:10110C005A2DEBD31068800709D4106880075CBF98
:10111C0010685FEA807002D410688007F2D5C4F3BF
:10112C00072050601068C00709D11068C00704BFC1
:10113C0010685FEAC07002D11068C007F2D0106866
:10114C00000609D51068000644BF10685FEA00600D
:10115C0002D510680006F2D45068DEF80000DEF804
:10116C0000502D1A592D0ED8DEF800502D1A592D7D
:10117C009EBFDEF800502D1A592D04D8DEF8005011
:10118C002D1A5A2DEBD34FF48040CCF800004FF4BD
:10119C000050CCF800084FF08040CCF80000DEF88E
:1011AC000000DEF800502D1A592D0ED8DEF8005034
:1011BC002D1A592D9EBFDEF800502D1A592D04D82A
:1011CC00DEF800502D1A5A2DEBD31068800709D485
:1011DC00106880075CBF10685FEA807002D41068EA
:1011EC008007F2D5002050601068C00709D1106844
:1011FC00C00704BF10685FEAC07002D11068C00756
:10120C00F2D01068000609D51068000644BF1068BB
:10121C005FEA006002D510680006F2D45068DEF870
:10122C000000DEF800502D1A592D0ED8DEF80050B3
:10123C002D1A592D9EBFDEF800502D1A592D04D8A9
:10124C00DEF800502D1A5A2DEBD3DEF80000DEF834
:10125C0000502D1A592D0ED8DEF800502D1A592D8C
:10126C009EBFDEF800502D1A592D04D8DEF8005020
:10127C002D1A5A2DEBD31068800709D410688007FB
:10128C005CBF10685FEA807002D410688007F2D5EA
:10129C00E0B250601068C00709D11068C00704BFE5
:1012AC0010685FEAC07002D11068C007F2D01068F5
:1012BC00000609D51068000644BF10685FEA00609C
:1012CC0002D510680006F2D45068DEF80000DEF893
:1012DC000040241A592C0ED8DEF80040241A592C40
:1012EC009EBFDEF80040241A592C04D8DEF80040CA
:1012FC00241A5A2CEBD34FF48040CCF800004FF05A
:10130C000050CCF800084FF08040CCF80000DEF81C
:10131C000000DEF80040241A592C0ED8DEF80040EC
:10132C00241A592C9EBFDEF80040241A592C04D8DC
:10133C00DEF80040241A5A2CEBD31068800709D42D
:10134C00106880075CBF10685FEA807002D4106878
:10135C008007F2D52B2050601068C00709D11068A7
:10136C00C00704BF10685FEAC07002D11068C007E4
:10137C00F2D01068000609D51068000644BF10684A
:10138C005FEA006002D510680006F2D45068DEF8FF
:10139C000000DEF80040241A592C0ED8DEF800406C
:1013AC00241A592C9EBFDEF80040241A592C04D85C
:1013BC00DEF80040241A5A2CEBD34FF48040CCF8C2
:1013CC0000004FF40050CCF800084FF08040CCF8EF
:1013DC000000DEF80000DEF80040241A592C0ED86C
:1013EC00DEF80040241A592C9EBFDEF80040241A67
:1013FC00592C04D8DEF80040241A5A2CEBD3106870
:10140C00800709D4106880075CBF10685FEA8070A1
:10141C0002D410688007F2D5002050601068C00715
:10142C0009D11068C00704BF10685FEAC07002D110
:10143C001068C007F2D01068000609D510680006C5
:10144C0044BF10685FEA006002D510680006F2D451
:10145C005068DEF80000DEF80040241A592C0ED833
:10146C00DEF80040241A592C9EBFDEF80040241AE6
:10147C00592C04D8DEF80040241A5A2CEBD3DEF891
:10148C000000DEF80040241A592C0ED8DEF800407B
:10149C00241A592C9EBFDEF80040241A592C04D86B
:1014AC00DEF80040241A5A2CEBD31068800709D4BC
:1014BC00106880075CBF10685FEA807002D4106807
:1014CC008007F2D5C1F3072050601068C00709D11E
:1014DC001068C00704BF10685FEAC07002D11068C2
:1014EC00C007F2D01068000609D51068000644BF8A
:1014FC0010685FEA006002D510680006F2D45068EC
:10150C00DEF80000DEF80040241A592C0ED8DEF864
:10151C000040241A592C9EBFDEF80040241A592C86
:10152C0004D8DEF80040241A5A2CEBD34FF4804038
:10153C00CCF800004FF40050CCF800084FF080407D
:10154C00CCF80000DEF80000DEF80040241A592C1C
:10155C000ED8DEF80040241A592C9EBFDEF800404D
:10156C00241A592C04D8DEF80040241A5A2CEBD338
:10157C001068800709D4106880075CBF10685FEAA8
:10158C00807002D410688007F2D50020506010687B
:10159C00C00709D11068C00704BF10685FEAC070AB
:1015AC0002D11068C007F2D01068000609D5106887
:1015BC00000644BF10685FEA006002D510680006A0
:1015CC00F2D45068DEF80000DEF80040241A592CE2
:1015DC000ED8DEF80040241A592C9EBFDEF80040CD
:1015EC00241A592C04D8DEF80040241A5A2CEBD3B8
:1015FC00DEF80000DEF80040241A592C0ED8DEF874
:10160C000040241A592C9EBFDEF80040241A592C95
:10161C0004D8DEF80040241A5A2CEBD3106880074B
:10162C0009D4106880075CBF10685FEA807002D430
:10163C0010688007F2D5C8B250601068C00709D195
:10164C001068C00704BF10685FEAC07002D1106850
:10165C00C007F2D01068000609D51068000644BF18
:10166C0010685FEA006002D510680006F2D450687A
:10167C00DEF80000DEF80010091A59290ED8DEF841
:10168C000010091A59299EBFDEF80010091A5929B1
:10169C0004D8DEF80010091A5A29EBD34FF4804015
:1016AC00CCF800004FF40050CCF800084FF080400C
:1016BC00CCF80000DEF80000DEF80010091A5929F9
:1016CC000ED8DEF80010091A59299EBFDEF800105A
:1016DC00091A592904D8DEF80010091A5A29EBD333
:1016EC001068800709D4106880075CBF10685FEA37
:1016FC00807002D410688007F2D50020506010680A
:10170C00C00709D11068C00704BF10685FEAC07039
:10171C0002D11068C007F2D01068000609D5106815
:10172C00000644BF10685FEA006002D5106800062E
:10173C00F2D45068DEF80000DEF80010091A5929BE
:10174C000ED8DEF80010091A59299EBFDEF80010D9
:10175C00091A592904D8DEF80010091A5A29EBD3B2
:10176C00DEF80000DEF80010091A59290ED8DEF850
:10177C000010091A59299EBFDEF80010091A5929C0
:10178C0004D8DEF80010091A5A29EBD31068800728
:10179C0009D4106880075CBF10685FEA807002D4BF
:1017AC0010688007F2D5C3F3072050601068C0079B
:1017BC0009D11068C00704BF10685FEAC07002D17D
:1017CC001068C007F2D01068000609D51068000632
:1017DC0044BF10685FEA006002D510680006F2D4BE
:1017EC005068DEF80000DEF80010091A59290ED8EE
:1017FC00DEF80010091A59299EBFDEF80010091AEC
:10180C00592904D8DEF80010091A5A29EBD34FF4E1
:10181C008040CCF800004FF40050CCF800084FF09A
:10182C008040CCF80000DEF80000DEF80010091A49
:10183C0059290ED8DEF80010091A59299EBFDEF876
:10184C000010091A592904D8DEF80010091A5A296F
:10185C00EBD31068800709D4106880075CBF106850
:10186C005FEA807002D410688007F2D500205060C7
:10187C001068C00709D11068C00704BF10685FEA80
:10188C00C07002D11068C007F2D01068000609D5EC
:10189C001068000644BF10685FEA006002D510684B
:1018AC000006F2D45068DEF80000DEF80010091AC9
:1018BC0059290ED8DEF80010091A59299EBFDEF8F6
:1018CC000010091A592904D8DEF80010091A5A29EF
:1018DC00EBD3DEF80000DEF80010091A59290ED8F7
:1018EC00DEF80010091A59299EBFDEF80010091AFB
:1018FC00592904D8DEF80010091A5A29EBD31068BC
:10190C00800709D4106880075CBF10685FEA80709C
:10191C0002D410688007F2D5D8B250601068C007A6
:10192C0009D11068C00704BF10685FEAC07002D10B
:10193C001068C007F2D01068000609D510680006C0
:10194C0044BF10685FEA006002D510680006F2D44C
:10195C005068DEF80000DEF80010091A59290ED87C
:10196C00DEF80010091A59299EBFDEF80010091A7A
:10197C00592904D8DEF80010091A5A29EBD34FF470
:10198C008040CCF800004FF00050CCF800084FF02D
:10199C008040CCF80000DEF80000DEF80010091AD8
:1019AC0059290ED8DEF80010091A59299EBFDEF805
:1019BC000010091A592904D8DEF80010091A5A29FE
:1019CC00EBD31068800709D4106880075CBF1068DF
:1019DC005FEA807002D410688007F2D52C2050602A
:1019EC001068C00709D11068C00704BF10685FEA0F
:1019FC00C07002D11068C007F2D01068000609D57B
:101A0C001068000644BF10685FEA006002D51068D9
:101A1C000006F2D45068DEF80000DEF80010091A57
:101A2C0059290ED8DEF80010091A59299EBFDEF884
:101A3C000010091A592904D8DEF80010091A5A297D
:101A4C00EBD34FF48040CCF800004FF40050CCF8AE
:101A5C0000084FF08040CCF800005DF8048BF0BD1E
:101A6C00B0B502AF0D461446014600204FF4F0729B
:101A7C002B46FFF7EBF8C5EB0512A1B2242343F27A
:101A8C0008055FFA84FC090A5201C4F20003C4F28F
:101A9C00010502E0013A00F09A801C681868001BEE
:101AAC0059280BD81868001B59289EBF1868001BB2
:101ABC00592803D81868001B5A28EFD328688007C8
:101ACC0009D4286880075CBF28685FEA807002D45C
:101ADC0028688007F2D569602868C00709D1286892
:101AEC00C00704BF28685FEAC07002D12868C0072D
:101AFC00F2D02868000609D52868000644BF28687B
:101B0C005FEA006002D528680006F2D468681C6899
:101B1C001868001B59280BD81868001B59289EBF41
:101B2C001868001B592803D81868001B5A28EFD3D3
:101B3C001C681868001B59280BD81868001B5928FA
:101B4C009EBF1868001B592803D81868001B5A2818
:101B5C00EFD32868800709D4286880075CBF286801
:101B6C005FEA807002D428688007F2D5C5F804C0FB
:101B7C002868C00709D12868C00704BF28685FEA35
:101B8C00C07002D12868C007F2D02868000609D5B9
:101B9C002868000644BF28685FEA006002D5286800
:101BAC000006F2D468681C681868001B59283FF6B8
:101BBC0071AF1868001B59289EBF1868001B592864
:101BCC003FF668AF1868001B5A28EDD362E740F661
:101BDC0018404FF48041C4F202000160B0BDF0B572
:101BEC0003AF4DF8048DD0E90145AC4216D316462F
:101BFC00621BB24228BF32468046002A1EBFD8F86C
:101C0C000000284402F031FFA819844238BF204656
:101C1C00C8F8080000205DF8048BF0BD284621466A
:101C2C0002F03AF980B56F4600F000F8B0B502AF9B
:101C3C00ADF5C33DCAB002F015FF044602F005FF36
:101C4C0040F2000104F00100C2F200010A78002AFF
:101C5C0041F0A084012200280A7008BF02F0F7FEB0
:101C6C0049F2FF4541F200240020C0F6BA25691C58
:101C7C00CDE90010C0F27A0407A821460122012305
:101C8C0002F063F9079802280ED1A7F13000214623
:101C9C00002202F09AFC57E90C02002380F00101AB
:101CAC00204602F094FD22E0C00720D0089845F6AB
:101CBC000172C0F64C12A0F1B771A1F558519142C6
:101CCC0081F0768441194EF22F32C0F2BE02090A1D
:101CDC00A1FB0212D10A02290ED0012909D0002938
:101CEC0000F0B4814FF400714FF0F00A06E002F0FE
:101CFC00DBF84FF0000A01E04FF0800A4AF2405442
:101D0C00B0FBF1F1C0F2AE240A19013A4EF22F33B6
:101D1C00C0F2BE039209A2FB0323DA0A00F09681FB
:101D2C00012A24D0022A0EBF4FF4805904224FF40A
:101D3C00A059B1FBF2F8621C90451FD244F67F22E9
:101D4C004EF22F36C0F25D528B18C0F2BE06DB0984
:101D5C00A3FB0636F30A00F07981012B15D0022B78
:101D6C000EBF4FF4004604234FF420460EE04FF014
:101D7C000009B1FBF2F8621C9045DFD346F2F20089
:101D8C003121C0F6000002F098F80026B1FBF3F305
:101D9C0002329342059381F01284013845F2C74216
:101DAC00C0F21E1243F60005C009C4F20205A0FBE6
:101DBC000202D5F800040009920A60F31F1242F4E3
:101DCC00E060C5F80004286840F48030286028687A
:101DDC00800309D4286880035CBF28685FEA8030E0
:101DEC0002D428688003F2D5286840F080702860FF
:101DFC0047F60120C0F6032081422FD3286C40F017
:101E0C008050286402F02BFE47F20400C4F200005C
:101E1C0050F8041C41F4803140F8041C0168C903DB
:101E2C0009D40168C9035CBF01685FEAC13102D4FF
:101E3C000168C903F2D550F8041C41F4003140F894
:101E4C00041C0168890309D4016889035CBF01681B
:101E5C005FEA813102D401688903F2D5CDF8108094
:101E6C002868800109D4286880015CBF28685FEA73
:101E7C00801002D428688001F2D5A8684FF6F04291
:101E8C0020F40000A860D5F88C0020F47000C5F890
:101E9C008C00A96849EA0A00304391430843A860C2
:101EAC00102002F0D6FDA8680221012661F3010082
:101EBC00A860286B40F039002863686C40F48050AF
:101ECC00686440F20C60C4F24720066002F0C7FD63
:101EDC0040F2002845F25550C4F247284FF0000A52
:101EEC00C8F80C600026C4F20206C5F2000040F6E9
:101EFC001841C8F80CA0C6F8000C45F2555041F238
:101F0C001803C4F20201C0F24000C4F20203C1F88B
:101F1C00E8034FF0A060C3F8E80348F2FF0041F279
:101F2C001842086040F6FF00C4F20202186045F245
:101F3C0055504FF6FF7B41F80C0C43F80C0C40F25B
:101F4C00240942F80C0CC4F20009C2F8F40341F85D
:101F5C0010BC4FF0FF3143F810BCC3F8F0B3C2F81B
:101F6C00F0B3286C40F0010028644FF0804001254C
:101F7C00C0F800A049F820ACC9F804A0C9F80810B2
:101F8C0049F818AC016841F001010160C8F800542F
:101F9C0002F065FDC8F800500521C8F800A0022227
:101FAC00C6F808B0706820F020007060306A61F3E9
:101FBC0017503062306862F38B203060706820F00C
:101FCC0040007060306A61F31B603062306862F30D
:101FDC000D303060706820F080007060306A61F302
:101FEC001F703062306862F38F30306040F20C60EA
:101FFC00C4F24720C0F8A45202F031FD43F2080BA2
:10200C00C8F8B052C4F2010BC8F8B0A22BF804AC5B
:10201C0048F27F40059BC0F21E00834216D948F659
:10202C008050049D40F61842C0F25B0083424FF092
:10203C0000084FF00000C4F202021ED341F600303B
:10204C00C0F2B700834208D2082016E045F6C070F3
:10205C002821C0F6000001F030FF43F20060C0F20E
:10206C006E10834201D2102007E046F6004120207A
:10207C00C0F2DC218B4238BF182040F441702BF8A1
:10208C00080C3BF8080C43F2BF71012608400721ED
:10209C0040302BF8080C52F8140C20F4807042F8E5
:1020AC00140CD06861F30300D06000220221C4F24A
:1020BC000202D2F8000C61F31140C2F8000C40F29D
:1020CC000C60C4F24720C0F83C6202F0C8FC40F23D
:1020DC000020C4F24720C0F84862C0F84882680B60
:1020EC00E0280AD8B5F5612F13D244F68851A7F130
:1020FC005000C0F6000101F0CBFE4BF2C53105F5E6
:10210C006140C9F2A211A0FB01010A0C42F20C01C0
:10211C0011E04FF461404BF2C53100EB4500C9F2C0
:10212C00A211A0FB0101702000EA1140C1F3424151
:10213C000A184AF20C0144F6000040F61846C4F2A4
:10214C000000C4F202068260002202614261C1609A
:10215C00026101680906FCD5492141600168090644
:10216C00FCD55421416001680906FCD5532141601E
:10217C0001680906FCD52D21416001680906FCD5D2
:10218C004221416001680906FCD56F21416001685C
:10219C000906FCD56121416001680906FCD5722154
:1021AC00416001680906FCD564214160016809069B
:1021BC00FCD52021416001680906FCD569214160EC
:1021CC0001680906FCD56E21416001680906FCD541
:1021DC006921416001680906FCD5742141600168E0
:1021EC000906FCD56921416001680906FCD561210D
:1021FC00416001680906FCD56C2141600168090643
:10220C00FCD56921416001680906FCD57A21416041
:10221C0001680906FCD56521416001680906FCD5F9
:10222C006421416001680906FCD50A2141600168FE
:10223C00090609D4016809065CBF01685FEA0161FF
:10224C0002D401680906F2D50A21416040F201105E
:10225C0041F21841C0F2013006904FF48050C4F2A4
:10226C0002010860D9F80000D9F80010091AA1423F
:10227C000ED2D9F80010091AA1423EBFD9F80010AD
:10228C00091AA14204D2D9F80010091AA142EBD3C1
:10229C0041F218414FF08050C4F202010860D9F8A5
:1022AC000000D9F80010091AA1420ED2D9F800107A
:1022BC00091AA1423EBFD9F80010091AA14204D252
:1022CC00D9F80010091AA142EBD341F218414FF48E
:1022DC008050C4F202010860D9F80000D9F800104F
:1022EC00091AA1420ED2D9F80010091AA1423EBF18
:1022FC00D9F80010091AA14204D2D9F80010091A11
:10230C00A142EBD344F698544FF0804AC0F6000437
:10231C004FF4804E4FF40058002002E0672880F004
:10232C00608141F218414FF00052C4F202010A6080
:10233C00215CC6F800A0D9F80050D9F80020521B37
:10234C00592A0ED8D9F80020521B592A9EBFD9F809
:10235C000020521B592A04D8D9F80020521B5A2AA3
:10236C00EBD3DBF8002092070CD4DBF800209207AB
:10237C005CBFDBF800205FEA827203D4DBF800203C
:10238C009207EED5CBF80410DBF80010C9070CD17E
:10239C00DBF80010C90704BFDBF800105FEAC1715D
:1023AC0003D1DBF80010C907EED0DBF800100906EA
:1023BC000CD5DBF80010090644BFDBF800105FEA0F
:1023CC00016103D5DBF800100906EED4DBF804102C
:1023DC00D9F80010D9F80020521A592A0ED8D9F879
:1023EC000020521A592A9EBFD9F80020521A592A95
:1023FC0004D8D9F80020521A5A2AEBD36628C6F80A
:10240C0000E000F0EA80011902304D783DB985E713
:10241C00013D0130C6F800E029063FF47FAF662885
:10242C0000F2D88041F21841C4F20201C1F80080D8
:10243C00215CC6F800A0D9F80020D9F800C0ACEB9C
:10244C000203592B0ED8D9F800309B1A592B9EBF7A
:10245C00D9F800309B1A592B04D8D9F800309B1AA4
:10246C005A2BEAD3DBF8002092070CD4DBF80020BF
:10247C0092075CBFDBF800205FEA827203D4DBF8C2
:10248C0000209207EED50022CBF80420DBF80020C8
:10249C00D2070CD1DBF80020D20704BFDBF80020F8
:1024AC005FEAC27203D1DBF80020D207EED0DBF872
:1024BC00002012060CD5DBF80020120644BFDBF816
:1024CC0000205FEA026203D5DBF800201206EED48E
:1024DC00DBF8042040F61846D9F80020C4F20206B6
:1024EC00D9F800309B1A592B0ED8D9F800309B1A0A
:1024FC00592B9EBFD9F800309B1A592B04D8D9F808
:10250C0000309B1A5A2BEBD3D9F80020D9F80030A5
:10251C009B1A592B0ED8D9F800309B1A592B9EBFF9
:10252C00D9F800309B1A592B04D8D9F800309B1AD3
:10253C005A2BEBD3DBF8002092070CD4DBF80020ED
:10254C0092075CBFDBF800205FEA827203D4DBF8F1
:10255C0000209207EED5CBF80410DBF80010C90769
:10256C000CD1DBF80010C90704BFDBF800105FEAE0
:10257C00C17103D1DBF80010C907EED0DBF80010F5
:10258C0009060CD5DBF80010090644BFDBF8001077
:10259C005FEA016103D5DBF800100906EED4DBF825
:1025AC000410D9F80010D9F80020521A592A3FF615
:1025BC002FAFD9F80020521A592A9EBFD9F8002003
:1025CC00521A592A3FF624AFD9F80020521A5A2A27
:1025DC00E9D31DE7672101F001F86720672100F0BE
:1025EC00FDFF41F218414FF00050C4F202010860A7
:1025FC004FF080403060D9F80000D9F80010091A6B
:10260C0059290ED8D9F80010091A59299EBFD9F8A2
:10261C000010091A592904D8D9F80010091A5A2996
:10262C00EBD341F2180AC4F2020ADBF8000080076F
:10263C000CD4DBF8000080075CBFDBF800005FEA1D
:10264C00807003D4DBF800008007EED5B620CBF801
:10265C000400DBF80000C0070CD1DBF80000C00759
:10266C0004BFDBF800005FEAC07003D1DBF80000A8
:10267C00C007EED0DBF8000000060CD5DBF800003C
:10268C00000644BFDBF800005FEA006003D5DBF80E
:10269C0000000006EED4DBF80400D9F80000D9F8ED
:1026AC000010091A59290ED8D9F80010091A5929FD
:1026BC009EBFD9F80010091A592904D8D9F800106E
:1026CC00091A5A29EBD341F218414FF4804030607B
:1026DC004FF40050C4F2020108604FF080403060AB
:1026EC00D9F80000D9F80010091A59290ED8D9F8D0
:1026FC000010091A59299EBFD9F80010091A592936
:10270C0004D8D9F80010091A5A29EBD3DBF80000C9
:10271C0080070CD4DBF8000080075CBFDBF80000FE
:10272C005FEA807003D4DBF800008007EED5002050
:10273C00CBF80400DBF80000C0070CD1DBF800007C
:10274C00C00704BFDBF800005FEAC07003D1DBF800
:10275C000000C007EED0DBF8000000060CD5DBF85B
:10276C000000000644BFDBF800005FEA006003D500
:10277C00DBF800000006EED4DBF80400D9F800000A
:10278C00D9F80010091A59290ED8D9F80010091ACD
:10279C0059299EBFD9F80010091A592904D8D9F81B
:1027AC000010091A5A29EBD3D9F80000D9F80010F7
:1027BC00091A59290ED8D9F80010091A59299EBF9F
:1027CC00D9F80010091A592904D8D9F80010091A97
:1027DC005A29EBD3DBF8000080070CD4DBF800009F
:1027EC0080075CBFDBF800005FEA807003D4DBF885
:1027FC0000008007EED50020CBF80400DBF80000C9
:10280C00C0070CD1DBF80000C00704BFDBF80000E8
:10281C005FEAC07003D1DBF80000C007EED0DBF834
:10282C00000000060CD5DBF80000000644BFDBF806
:10283C0000005FEA006003D5DBF800000006EED470
:10284C00DBF80400D9F80000D9F80010091A59294E
:10285C000ED8D9F80010091A59299EBFD9F80010C2
:10286C00091A592904D8D9F80010091A5A29EBD396
:10287C0041F218414FF4804030604FF40050C4F2E4
:10288C00020108604FF080403060D9F80000D9F8A0
:10289C000010091A59290ED8D9F80010091A59290B
:1028AC009EBFD9F80010091A592904D8D9F800107C
:1028BC00091A5A29EBD3DBF8000080070CD4DBF89B
:1028CC00000080075CBFDBF800005FEA807003D477
:1028DC00DBF800008007EED50020CBF80400DBF815
:1028EC000000C0070CD1DBF80000C00704BFDBF808
:1028FC0000005FEAC07003D1DBF80000C007EED027
:10290C00DBF8000000060CD5DBF80000000644BF25
:10291C00DBF800005FEA006003D5DBF8000000067E
:10292C00EED4DBF80400D9F80000D9F80010091A2D
:10293C0059290ED8D9F80010091A59299EBFD9F86F
:10294C000010091A592904D8D9F80010091A5A2963
:10295C00EBD3D9F80000D9F80010091A59290ED870
:10296C00D9F80010091A59299EBFD9F80010091A74
:10297C00592904D8D9F80010091A5A29EBD3DBF8D5
:10298C00000080070CD4DBF8000080075CBFDBF88C
:10299C0000005FEA807003D4DBF800008007EED5FE
:1029AC006220CBF80400DBF80000C0070CD1DBF888
:1029BC000000C00704BFDBF800005FEAC07003D161
:1029CC00DBF80000C007EED0DBF8000000060CD5E9
:1029DC00DBF80000000644BFDBF800005FEA006093
:1029EC0003D5DBF800000006EED4DBF80400D9F8C0
:1029FC000000D9F80010091A59290ED8D9F800107E
:102A0C00091A59299EBFD9F80010091A592904D856
:102A1C00D9F80010091A5A29EBD341F218414FF496
:102A2C00804030604FF00050C4F2020108604FF05B
:102A3C0080403060D9F80000D9F80010091A5929E3
:102A4C000ED8D9F80010091A59299EBFD9F80010D0
:102A5C00091A592904D8D9F80010091A5A29EBD3A4
:102A6C00DBF8000080070CD4DBF8000080075CBFAB
:102A7C00DBF800005FEA807003D4DBF8000080070D
:102A8C00EED53620CBF80400DBF80000C0070CD1E3
:102A9C00DBF80000C00704BFDBF800005FEAC07081
:102AAC0003D1DBF80000C007EED0DBF80000000615
:102ABC000CD5DBF80000000644BFDBF800005FEA31
:102ACC00006003D5DBF800000006EED4DBF8040050
:102ADC00D9F80000D9F80010091A59290ED8D9F8DC
:102AEC000010091A59299EBFD9F80010091A592942
:102AFC0004D8D9F80010091A5A29EBD341F218411D
:102B0C004FF4804030604FF40050C4F20201086072
:102B1C004FF080403060D9F80000D9F80010091A45
:102B2C0059290ED8D9F80010091A59299EBFD9F87D
:102B3C000010091A592904D8D9F80010091A5A2971
:102B4C00EBD3DBF8000080070CD4DBF80000800727
:102B5C005CBFDBF800005FEA807003D4DBF8000098
:102B6C008007EED50020CBF80400DBF80000C0078E
:102B7C000CD1DBF80000C00704BFDBF800005FEAF3
:102B8C00C07003D1DBF80000C007EED0DBF800000A
:102B9C0000060CD5DBF80000000644BFDBF8000093
:102BAC005FEA006003D5DBF800000006EED4DBF82A
:102BBC000400D9F80000D9F80010091A59290ED8C8
:102BCC00D9F80010091A59299EBFD9F80010091A12
:102BDC00592904D8D9F80010091A5A29EBD3D9F875
:102BEC000000D9F80010091A59290ED8D9F800108C
:102BFC00091A59299EBFD9F80010091A592904D865
:102C0C00D9F80010091A5A29EBD3DBF80000800719
:102C1C000CD4DBF8000080075CBFDBF800005FEA37
:102C2C00807003D4DBF800008007EED52820CBF8A9
:102C3C000400DBF80000C0070CD1DBF80000C00773
:102C4C0004BFDBF800005FEAC07003D1DBF80000C2
:102C5C00C007EED0DBF8000000060CD5DBF8000056
:102C6C00000644BFDBF800005FEA006003D5DBF828
:102C7C0000000006EED4DBF80400D9F80000D9F807
:102C8C000010091A59290ED8D9F80010091A592917
:102C9C009EBFD9F80010091A592904D8D9F8001088
:102CAC00091A5A29EBD34FF480404AF68001306060
:102CBC00C0F21211D9F80000D9F80020121A8A4279
:102CCC000ED2D9F80020121A8A423EBFD9F8002041
:102CDC00121A8A4204D2D9F80020121A8A42EBD373
:102CEC0041F218414FF00050C4F2020108604FF05D
:102CFC0080403060D9F80000D9F80010091A592921
:102D0C000ED8D9F80010091A59299EBFD9F800100D
:102D1C00091A592904D8D9F80010091A5A29EBD3E1
:102D2C00DBF8000080070CD4DBF8000080075CBFE8
:102D3C00DBF800005FEA807003D4DBF8000080074A
:102D4C00EED51120CBF80400DBF80000C0070CD145
:102D5C00DBF80000C00704BFDBF800005FEAC070BE
:102D6C0003D1DBF80000C007EED0DBF80000000652
:102D7C000CD5DBF80000000644BFDBF800005FEA6E
:102D8C00006003D5DBF800000006EED4DBF804008D
:102D9C00D9F80000D9F80010091A59290ED8D9F819
:102DAC000010091A59299EBFD9F80010091A59297F
:102DBC0004D8D9F80010091A5A29EBD34FF48040E3
:102DCC004CF680313060C0F2A401D9F80000D9F87B
:102DDC000020121A8A420ED2D9F80020121A8A4206
:102DEC003EBFD9F80020121A8A4204D2D9F800202A
:102DFC00121A8A42EBD341F218414FF00050C4F240
:102E0C00020108604FF080403060D9F80000D9F81A
:102E1C000010091A59290ED8D9F80010091A592985
:102E2C009EBFD9F80010091A592904D8D9F80010F6
:102E3C00091A5A29EBD3DBF8000080070CD4DBF815
:102E4C00000080075CBFDBF800005FEA807003D4F1
:102E5C00DBF800008007EED52920CBF80400DBF866
:102E6C000000C0070CD1DBF80000C00704BFDBF882
:102E7C0000005FEAC07003D1DBF80000C007EED0A1
:102E8C00DBF8000000060CD5DBF80000000644BFA0
:102E9C00DBF800005FEA006003D5DBF800000006F9
:102EAC00EED4DBF80400D9F80000D9F80010091AA8
:102EBC0059290ED8D9F80010091A59299EBFD9F8EA
:102ECC000010091A592904D8D9F80010091A5A29DE
:102EDC00EBD34FF480404FF4A071306000200022FF
:102EEC00FEF7BEFD1E2001214FF6FF724FF6FF7557
:102EFC00FEF7B6FD40F2211001214FF6FF72FEF7EE
:102F0C00AFFD45F2247044F6FF52C0F60000C0F647
:102F1C0000020090072040F229113223FDF7ECFC4F
:102F2C0045F6545045F23472C0F60000C0F600026B
:102F3C000090072007211D23FDF7DEFC07AC48F2AB
:102F4C00A061C0F20101204601F074FE002140F6A0
:102F5C001846C4F20201C4F20206D1F8000CA843D0
:102F6C00C1F8000C56F8080CC0B256F8081CC9B2CF
:102F7C0081420ED156F8081CC9B2814202BF56F8E4
:102F8C00081CC9B2814204D156F8081CC9B281424E
:102F9C00EBD0D9F8002048F2A0600021C0F201006B
:102FAC0003E001315A32814217D056F8083C635481
:102FBC00D9F800309B1A592BF3D8D9F800309B1A4A
:102FCC00592B9EBFD9F800309B1A592BE9D8D9F848
:102FDC0000309B1A5A2BEBD3E3E748F29F61821C1B
:102FEC00C0F20101615CA318151F13F8040C884290
:102FFC0012D113F8050C884210D1901F11D013F880
:10300C00066C8E420DD1D01F04D013F8072C8A42C7
:10301C002A46E8D0033D05E0284603E0501F013D59
:10302C0000E0023D002842D0A4F1010806A80224C9
:10303C0000260330059018F8010FA7F1300107F8AE
:10304C005C0C012047F83C0CA7F1500247F8440CEB
:10305C0043F6CF60C0F6000047F8401C47F86C0CF4
:10306C00A7F15C0047F8700CA7F1700047F8480C0A
:10307C00032007F8140C0C2047E90760202045F6C4
:10308C008C5147F8200C0820C0F6000147E90A6073
:10309C00059847F8501C44F63851C0F6000147F823
:1030AC004C4C47F8304C00F03FFC013DC3D140F68E
:1030BC0018414FF47F00C4F202016424086000251B
:1030CC00CAF800004FF01F0A6420049000E00025AD
:1030DC00D9F800004EF22F31C0F2BE01A7F1500218
:1030EC0047E91955C00947E91B55A0FB010147F8F1
:1030FC00545C47E90755C80AA7F1300147E91D059B
:10310C00142047F8401C45F6805147F8580CA7F19D
:10311C007000C0F6000147F85C0C012047F8501C09
:10312C0043F2F15147F83C0CC0F6000147F84C0C47
:10313C0047F8440C07F8140C202047F8341CA7F16E
:10314C00740147F8200C0A2047F8381CA7F1380105
:10315C0047E90A50022047F8481C44F6505147F8FA
:10316C00300CA7F15C00C0F6000100F0DDFB00287C
:10317C0040F02C8257E916138B4200F2088257F864
:10318C005C2CB3F10708039438BFA846002B00F061
:10319C00E580D11C5C4221F003014FF0000E891A2E
:1031AC00059104E001F1010E9E4580F0D78012F9E3
:1031BC000E1000295AD40599A1EB0E01890704D0F1
:1031CC000EF1010EF0E70EF1200EC64529D202EBEE
:1031DC000E0552F80E106E68314311F0803F20D16D
:1031EC000EF1080141451BD22046D5E90264264365
:1031FC0016F0803F68D10EF11001414564D2D5E93B
:10320C000464264316F0803F5ED10EF1180104468B
:10321C00414505D2D5E906652E4316F0803FD2D044
:10322C008E469E45C0D212F90E100029BCD404EB78
:10323C000E05691C00F0928002EB0E0C9CF901103B
:10324C000029BDD4A91C00F089809CF9021000292A
:10325C007ED4E91C00F082809CF9031000297AD4FA
:10326C000EF1040E14EB0E01DDD177E0CDB245F674
:10327C00C061C0F60001495D042916D0032905D0B0
:10328C00022940F08D810EF101013AE00EF10101AD
:10329C00994280F08581515CE02D1AD0ED2D4EB213
:1032AC0020D116F1610F2ADD7AE10EF1010199426C
:1032BC0080F07681515CF02D10D0F42D49B229D1DB
:1032CC0011F1710F2FDD6BE18E4604469E45AAD39A
:1032DC006AE701F0E001A02911D061E190393029B1
:1032EC0021D35DE1A5F1E1010C2904D305F0FE0128
:1032FC00EE2940F0558116F1400F80F251810EF10C
:10330C000201994280F04C81565616F1410F7FF71D
:10331C0049AF45E1A5F1F106022E00F2418111F110
:10332C00400F80F23D810EF10201994280F038810C
:10333C00515611F1410F00F333810EF10301994203
:10334C0080F02E81565616F1400FFFF62BAF27E179
:10335C000EF1020E28E70EF1030E25E745F224705C
:10336C000021C0F6000000900020FDF7C5FA41F2E4
:10337C0018401423C4F2020050F8080C039A0107F9
:10338C0058BF0132C0F380011144049A4C1E00F066
:10339C0001018001114440B2142201EBE0112046DE
:1033AC000491FDF753FC40F6184347F240764FF476
:1033BC00C870C4F20203C0F21B06F82502E0013803
:1033CC0000F0C980D9F80010D9F80020521A592AF7
:1033DC000ED8D9F80020521A592A9EBFD9F80020CD
:1033EC00521A592A04D8D9F80020521A5A2AEBD367
:1033FC00DBF8001089070CD4DBF8001089075CBFE0
:10340C00DBF800105FEA817103D4DBF80010890748
:10341C00EED5CBF80450DBF80010C9070CD1DBF863
:10342C000010C90704BFDBF800105FEAC17103D1BB
:10343C00DBF80010C907EED0DBF8001009060CD53C
:10344C00DBF80010090644BFDBF800105FEA0161ED
:10345C0003D5DBF800100906EED4DBF80410D9F81C
:10346C000010D9F80020521A592A0ED8D9F8002089
:10347C00521A592A9EBFD9F80020521A592A04D838
:10348C00D9F80020521A5A2AEBD3D9F80010D9F8DF
:10349C000020521A592A0ED8D9F80020521A592A4B
:1034AC009EBFD9F80020521A592A04D8D9F8002006
:1034BC00521A5A2AEBD3DBF8001089070CD4DBF82C
:1034CC00001089075CBFDBF800105FEA817103D440
:1034DC00DBF800108907EED5CBF804A0DBF8001060
:1034EC00C9070CD1DBF80010C90704BFDBF80010CA
:1034FC005FEAC17103D1DBF80010C907EED0DBF82D
:10350C00001009060CD5DBF80010090644BFDBF8E7
:10351C0000105FEA016103D5DBF800100906EED458
:10352C00DBF80410D9F80010D9F80020521A592AE7
:10353C003FF645AFD9F80020521A592A9EBFD9F848
:10354C000020521A592A3FF63AAFD9F80020521AE5
:10355C005A2AE9D333E74FF480401860D9F80000B9
:10356C00D9F80010091AB142BFF4B1ADD9F8001066
:10357C00091AB1423EBFD9F80010091AB142BFF482
:10358C00A6ADD9F80010091AB142E9D39FE5184647
:10359C0000F082FC80F00100FDF739F900F084FCAA
:1035AC0045F66451A7F13000C0F6000100F070FC44
:1035BC0046F296005C21C0F6000000F07EFC46F25C
:1035CC0023103121C0F6000000F077FC44F678514E
:1035DC00A7F15000C0F6000100F05AFC80B56F4610
:1035EC0000F077F8F0B503AF2DE9000F85B0046853
:1035FC0042F210700D464FF69C7E844245F6F85010
:10360C00C0F600003CD341F259784EF2FF02A7F10C
:10361C00260B0021CDF2B7184DF6F00941F27B4A8A
:10362C00C0F2F5520195A4FB08350BEB010C0439E3
:10363C0094424FEA553303FB09451C46AEB24FEAA0
:10364C00960606FB0AF64FEA564606FB0E5530F870
:10365C001660ACF80660ADB230F81550ACF80850F6
:10366C00E1D8019D0A311C46632C0CD822460A2A4B
:10367C001AD330F812000239A7F12602505219E081
:10368C000A21632CF2D9A2B241F27B43920802398F
:10369C005A43A7F12606520C02FB0E439BB230F89C
:1036AC00133073520A2AE4D2013942F03000A7F1E8
:1036BC0026025054C1F10A000090A7F12600002206
:1036CC0043182846012100F009F805B0BDE8000FA9
:1036DC00F0BD80B56F4600F037FCD4D4F0B503AF25
:1036EC002DE9000F85B00C46C169D7F808809346C8
:1036FC0011F001024FF02B0A02EB080508BF4FF442
:10370C00881A99464A0712D4002402687ABBD0E979
:10371C000556524631462346CDF800B0284600F0F7
:10372C00E0F8D0B1012005B0BDE8000FF0BDBBF151
:10373C00000F16D01BF0030315D094F90060002283
:10374C0016F1410FC8BF0122012B0CD094F90130A6
:10375C0013F1410FC8BF013205E0F3682846494612
:10376C005AE00022FFE715440268002ACFD0CDF8BA
:10377C001090D0F80490A94510D90907CDF80C8009
:10378C001CD490F82010A9EB05090294DFE801F095
:10379C005C02560249464FF0000955E0D0E9055647
:1037AC00524631462346CDF800B0284600F099F831
:1037BC0078B3012005B0BDE8000FF0BD01692346C8
:1037CC00D0E905865246019130210161012190F822
:1037DC00204080F82010314602904046CDF800B0D1
:1037EC0000F07FF80146012000299CD1DDF810A0E3
:1037FC00A9EB0500A346441C013C14D03269404699
:10380C00302190470028F7D0012005B0BDE8000F0B
:10381C00F0BDF36828460499424605B0BDE8000F98
:10382C00BDE8F0401847F3684046039A5146984764
:10383C00B8B3012005B0BDE8000FF0BD09F10102DD
:10384C004FEA59014FEA5209D0E904654C1CD0F8F3
:10385C001880013C0BD0D8F81020284631469047F0
:10386C000028F6D0012005B0BDE8000FF0BDCDF862
:10387C0000B02846029B4146524600F032F820B177
:10388C00012005B0BDE8000FF0BDD8F80C3028467B
:10389C00DDE90321984770B1012005B0BDE8000FA8
:1038AC00F0BD0298019980F820B00161002005B0AC
:1038BC00BDE8000FF0BD0024A14509D0D8F81020B8
:1038CC0028463146904701340028F5D0611E00E0AF
:1038DC0049460020494538BF012005B0BDE8000F1E
:1038EC00F0BDF0B503AF4DF8048DD7F808801C4639
:1038FC000E46B2F5881F0AD0336911460546984723
:10390C000146284619B101205DF8048BF0BD3CB18D
:10391C00F368214642465DF8048BBDE8F040184739
:10392C0000205DF8048BF0BDF0B503AF2DE9000F5E
:10393C008DB0032316698DF83030202308930023B3
:10394C00002ECDE90A1309900693049369D05069AF
:10395C00002800F09180D2F800A04101D2F808B004
:10396C00013820F078404FF000084FF0000901308A
:10397C000292039101900AEB09014A683AB1DDE920
:10398C0009030968DB689847002840F0858006EB3E
:10399C000800036906EB8900D0E90221057F8469E0
:1039AC0008938DF830500B947AB1012A02D15BF850
:1039BC0031203AB1002256F80830CDE90421022B0F
:1039CC000AD10FE00BEBC1014968012256F808300F
:1039DC00CDE90421022B05D04168012B07D15BF8FE
:1039EC0031200AB1002203E00BEBC101496801222E
:1039FC004369079106920BEBC3015BF833004B68EC
:103A0C0004A99847002847D1039808F1200809F128
:103A1C0008094045AFD1DDE901A25068824530D399
:103A2C003FE0D06840B394680DF11008D2F800B0B4
:103A3C00002604EBC009013820F06040029200F12E
:103A4C00010A0BEBC6014A682AB1DDE909030968D2
:103A5C00DB68984700BB04EBC6054146D5E900027C
:103A6C009047C8B905F1080001364845E9D1029ADA
:103A7C005068824505D314E04FF0000A5068824527
:103A8C000FD21268DDE90901CB6852F83A1002EB4B
:103A9C00CA025268984720B101200DB0BDE8000F52
:103AAC00F0BD00200DB0BDE8000FF0BD80B56F4635
:103ABC00FFF70FFEF0B503AF2DE9000F8FB098465E
:103ACC00034600794FF0010900284FF001007BD12B
:103ADC001D689A46CDF80480D7F80880E8695B79B0
:103AEC0046072DD40C4645F6E451934645F6E7526D
:103AFC00D5E90506C0F60001C0F60002002B18BF80
:103B0C001146F3684FF0030218BF022298470028B1
:103B1C0058D1D5E905015A46CB682146984700286B
:103B2C0050D1D5E905010222CB6845F6C851C0F643
:103B3C0000019847002845D101982946C04742E02A
:103B4C0073B90C46D5E90501CB6845F6E951164623
:103B5C00C0F6000103229847A0BBE8693246214613
:103B6C000D9045F6CC50C0F60000A7F141060C9024
:103B7C000123A86904966C69039002A8D5E9026830
:103B8C0007F8413CD5E900E395F820B0029408AC65
:103B9C00D5F810C00B908DF838B084E84011CDE901
:103BAC0006E300F023F868B945F6C85102A8C0F640
:103BBC000001022200F01AF820B9019806A9BA688F
:103BCC00904748B1012053461871184683F8059068
:103BDC000FB0BDE8000FF0BDDDE90B010222CB6890
:103BEC0045F6EC51C0F600019847ECE7F0B503AF91
:103BFC002DE9000F87B09346026804924FF000083D
:103C0C0042684FF0000980684FF0000A0590481C8C
:103C1C000090CBF100000290481E03920691019097
:103C2C0013E00198005D0A38B0FA80F04009039B5C
:103C3C00A4EB0802059D0699DB68287041440498A2
:103C4C0098470028B04640F0F1805FEACA7040F017
:103C5C00E880D94500F2CD8040F2001AC0F2011A7A
:103C6C0002E0D94500F2C5800698ABEB090EBEF117
:103C7C00070F484422D8CB4500F0BA8002990022A5
:103C8C004944835C0A2B00F0A0808B185E1C00F06A
:103C9C00AF80861875780A2D00F081809D1C00F08D
:103CAC00A780B5780A2D7CD0033300F0A180F3787F
:103CBC000A2B78D004328B18E3D199E0C11C21F087
:103CCC00030CBCEB00011CD08D1EA1F1030A4C1E91
:103CDC000022835C0A2B74D0944215D083185E7832
:103CEC000A2E62D095420FD09E780A2E5FD0924554
:103CFC000AD0DB780A2B5ED00432835C0A2BEBD122
:103D0C005FE0AEF1080207E040F2001AAEF10802E3
:103D1C009142C0F2011A18D8042303EB0C0656E9A1
:103D2C00015383F00A34AAEB0404234385F00A34CC
:103D3C00AAEB040425432B4023F07F33B3F1803FDF
:103D4C0003D1083108369142E9D9714550D0009B16
:103D5C0001EB0902029E134402EB060CABEB0102D1
:103D6C00A2EB090A0022AAF1010E9E1816F8014CCA
:103D7C000A2C25D096453BD09C5C0A2C19D00CEB18
:103D8C000204A51C34D075780A2D16D003342FD01C
:103D9C00B4780A2C13D004329245E6D128E00132D3
:103DAC0013E0023211E003320FE0013209E002327B
:103DBC0007E0013204E0033203E0023200E0033298
:103DCC000A4440F2001AC0F2011A02EB090101F197
:103DDC0001095945BFF445AF805C0A287FF441AF17
:103DEC004FF0000A4E464C460598007850B913E047
:103DFC00D946D84515D04FF0010A46465C46059881
:103E0C00007848B1039844F63251C0F60001042200
:103E1C00C3680498984748B944457FF402AF002022
:103E2C0005E7002007B0BDE8000FF0BD012007B08A
:103E3C00BDE8000FF0BDF0B503AF4DF8048D8568FB
:103E4C00D0E90046287878B144F63252F368C0F6CF
:103E5C00000288461146204604229847414618B174
:103E6C0001205DF8048BF0BDA1F10A003269B0FAB3
:103E7C0080F04009287020465DF8048BBDE8F040C6
:103E8C0010470A4645F6CC51C0F60001FFF74CBD71
:103E9C0080B56F46FFF71DFC80B56F4600F000F84B
:103EAC0080B56F46FFF715FC80B56F4645F69D5003
:103EBC002B21C0F6000000F000F880B56F46FFF72C
:103ECC0008FCB0B502AFA2B003780DF1080E8C4619
:103EDC008022812118201D4614460EEB010260F34E
:103EEC005F0502F8025C5D0815D060F35F0502F80F
:103EFC00035C9D0812D060F35F05043902F8045C82
:103F0C00DD080ED060F35F0502F8055C221F1B096B
:103F1C00E1D1E01E07E08A1E481E04E0601ECA1EA6
:103F2C0001E0A01E0A4645F6F651C0F181000EEBE9
:103F3C0002030090C0F6000160460222FFF7CEFBA0
:103F4C0022B0B0BDFEE77047FEE7F0B503AF2DE938
:103F5C00000F85B08146D7E902AE13F0010004BF13
:103F6C008A46BEF1000F23D04DF6836348F27F449E
:103F7C00C4F21B33C0F21E040D19A1FB0360BAF18D
:103F8C00000FA5FB033600F0F4814FEA904C4FF67E
:103F9C008010C0F237304FEAD64B82451AD94CF616
:103FAC000040C1F6BF10B0FBFAF020F0010012E0A7
:103FBC00022043F60401C9F8000043F21000C2F2DB
:103FCC000040C4F2020162F39650086005B0BDE8EF
:103FDC00000FF0BD082000FB0AF8BEF1000F0490A2
:103FEC00CDF80C801CBF46F60048C0F2DC28E34537
:103FFC0000F2C1814FF0000004F1010338BF012031
:10400C009D42C0F0B6818B4500F2B38144F2402E44
:10401C00E345C0F20F0E029230D2584460452DD8C1
:10402C00B1FBFBF36045B8FBF3F505FB138515D22B
:10403C00002800F09E81884200F29B81B1FBF0F3D6
:10404C00441CB8FBF3F606FB1383AB4238BF834624
:10405C009D4228BF1D46A4452046E9D17145C0F0BC
:10406C008881B1FBFCF0B8FBF0F202FB1080A84297
:10407C0005D3BBF1000FDC4601D17AE1DC46B1FB84
:10408C00FCFB0EF10101ABF57420DDF810E0A0F59E
:10409C001070884280F06681FD68002D00F01C8154
:1040AC00BEF1000F00F065814BF2000043F2343397
:1040BC00C0F67130C3F23333B0FBFBF000FB0BF1F5
:1040CC0041F60040C0F64E60B0FBFBF0B1FBFEF2D7
:1040DC0000FB0BF0AAEB0206B0FBFEF2BAEB0205FA
:1040EC0048BF6D42002ECDF8049048BF7642A0FB2D
:1040FC000304721B48F6000018BF0122C1F22A10FB
:10410C00AE42B0FBFBF0B8BF4FF0FF3200FB0BF040
:10411C00B4EB910918BF4FF00109B4EB910F38BF04
:10412C004FF0FF39B9F1000F08BF9146B9F1010FFB
:10413C00B0FBFEF208BF2E46BAEB020248BF524259
:10414C00B31A18BF01239642B8BF4FF0FF33B9F131
:10415C00010F18BF8C084AF6AB21C2F6AA21A0FBAE
:10416C0001014FF20040C1F20640B0FBFBF00D1B09
:10417C0018BF0125A14238BF4FF0FF35002D08BFF5
:10418C001D46012D08BF164600FB0BF2B2FBFEF0DC
:10419C00BAEB000048BF4042331A18BF01238642D5
:1041AC00B8BF4FF0FF33012D08BF0C4644F6251164
:1041BC00C2F29241A2FB0118B8EB040118BF012115
:1041CC00A04538BF4FF0FF31002908BF194601291F
:1041DC0008BF064646F20000C1F2E360B0FBFBF0FC
:1041EC0000FB0BF2B2FBFEF0BAEB000048BF404202
:1041FC00331A18BF01238642B8BF4FF0FF33012991
:10420C0008BF4446B4EBD20E18BF4FF0010EB4EB0E
:10421C00D20F039288BF4FF0FF3EBEF1000F08BFD4
:10422C009E46BEF1010F08BF06464CF600404BF20D
:10423C000002C1F6BF10C0F67132B0FBFBF000FB00
:10424C000BF80498B8FBF0F0BAEB000A48BFCAF1BF
:10425C00000AB6EB0A0018BF0120B9F1010F04BF28
:10426C0041F60042C0F64E62012D04BF48F6000232
:10427C00C1F22A1201294CF21D7104BF4FF2004207
:10428C00C1F20642C1F67141BEF1010FA8FB011348
:10429C0004BF46F20002C1F2E3625645B8BF4FF0CC
:1042AC00FF30BEF1010F039908BFCC08FD68191B44
:1042BC0018BF0121A34238BF4FF0FF31002908BFBE
:1042CC000146012904BF4CF60042C1F6BF12DDF8CD
:1042DC000490DDF810E00392039846F60042C0F219
:1042EC00DC22B0FBFBF000FB0B210139914240D3E7
:1042FC00029B49F68176C1F25E664FF00052002BAC
:10430C004FF4403303EBCE33A1FB066118BF4FF0E3
:10431C00015203F440331A440CF03F03BEF1000F7A
:10432C001A4447F6C07303EA80131A4401F0707301
:10433C0042EA830243F60403C4F202031A6018D063
:10434C0000FB0BF0890D0122B0FBF1F1B0FBFEF08C
:10435C00C9E90020C9E90251C9F810C005B0BDE88F
:10436C00000FF0BD45F6E8703B21C0F60000FFF7EA
:10437C00A4FDFFF79BFBFFF797FDF0B503AF2DE90D
:10438C00000F85B0002A00F0B180D7F808A0B1FB6F
:10439C00F2FE4FEA5E098A420390CDE9011221D95F
:1043AC000220A3FB0026002E00F0A0800130504517
:1043BC0068D0A3FB0026002E00F0988001305045F9
:1043CC0060D0A3FB0026002E00F0908001305045F9
:1043DC0058D0A3FB0026002E00F0888001305045F9
:1043EC00DFD14FE04EF6013441F60071CAF10008FE
:1043FC000320C1F2C934CFF60A21461EA3FB0625C1
:10440C0035B94A44B2FBFEFB0BFB0E12A2425FD342
:10441C00824537D0A3FB0025461C35B94A44B2FB74
:10442C00FEFB0BFB0E12A24257D308EB0002551CED
:10443C0028D0D446A3FB065A0496861CBAF1000F6A
:10444C000ED14D44B5FBFEFB4EF601350BFB0E14A5
:10445C00C1F2C935AC424EF60134C1F2C93440D375
:10446C000232E2460ED0A3FB062535B94A44B2FB14
:10447C00FEFB0BFB0E12A2423AD3043008EB0002F7
:10448C00012ABAD1A3FB0A02DAB9DDE901128A4288
:10449C002CD848444EF60131B0FBFEFB41F60070BF
:1044AC00CFF60A20C1F2C9310BFB0E00884208D2AC
:1044BC000BFB0EF0B0FBFAF8B8EB030548BF6D42EE
:1044CC0071E000200399086005B0BDE8000FF0BD55
:1044DC0004960BFB0EF2064606E00BFB0EF20546AD
:1044EC000BE00BFB0EF2E246049D35B9FFF7DEFA4A
:1044FC00033035460BFB0EF20646B2FBF5F804957D
:10450C00B8EB030548BF6D42564502D9DDF810A043
:10451C0048E0AC461ED3A3FB0A02002A3FD1484414
:10452C00B0FBFEF000FB0E12A24238D200FB0EF2E2
:10453C00B2FBFAF6F21A48BF52429542654688BF62
:10454C00B046049992BF8A46834615462AE0013646
:10455C00B245E0D0A3FB0602002AF8D14844B0FBD8
:10456C00FEF000FB0E12A242F1D2002EBED000FBD8
:10457C000EF2B2FBF6F4E21A48BF5242954288BFE3
:10458C00A046049C88BF344604944EF6013484BF84
:10459C0083469446C1F2C93428BF1546D7E7DDF8E7
:1045AC0010A06546029A10041FFA8BF13FFA80F0B6
:1045BC0040EA0A6008440399C1E901080120CD6072
:1045CC00086005B0BDE8000FF0BDF0B503AF2DE9F4
:1045DC00000F8FB00D46D107049320D04DF68361A8
:1045EC00C4F21B31A5FB012348F27F42C0F21E022C
:1045FC002A44A2FB01169A0C03924FEAD648B8EB58
:10460C00934F12D94FF0020E0AAB0021C3F800E011
:10461C000A9C022C2ED14FF0020B0BAAA1E0012117
:10462C0001600FB0BDE8000FF0BD04460720049BED
:10463C00294600900BA84246FFF79FFE0B980028D6
:10464C0000F0B780039A00219DF832C009AB9DF8A9
:10465C0033909045DDE90DAE20460A9128BF01212B
:10466C00BDF8306038BF08F10108C3F800E00A9CBF
:10467C00022CD0D0DDF824B00023904588BF012354
:10468C00194301D0614665E0CDE9064B9045CDF864
:10469C0014A0E246E34602950190CDF820E02FD21B
:1046AC0007200299049B424600900BA8FFF765FE79
:1046BC000B9800287DD0089C08F101089DF8331058
:1046CC00DDE90D3294429DF83200BDF8305082BFC6
:1046DC00894683462E46059988BF1946059188BFA1
:1046EC0082460798944288BF10460790069888BF68
:1046FC000020069028BF1446039A08944245CFD157
:10470C0007200299049B00900BA8FFF736FE0B982C
:10471C0000284ED0089CD4469DF83310DDE90D32AC
:10472C0094429DF83200BDF8305088BF89465946F6
:10473C0084BF01462E46059D88BF1D4688BF844612
:10474C00DDF81CB0944288BF9346069C88BF0024B9
:10475C000198AA46C9B20AAAC6EA01410B9441EAD9
:10476C000961C2F800B00B9A022A29D0C0E9002CCA
:10477C000B0CC0F808A043F60400C4F20200026857
:10478C0063F30502026047F6C072D0F8803002EA8B
:10479C00811201F0E06142EA011148F23F02C8F6D1
:1047AC00FF721A401144C0F880100FB0BDE8000F22
:1047BC00F0BD46F24A002521C0F60000FFF77DFB54
:1047CC0046F223002721C0F60000FFF776FBF0B578
:1047DC0003AF2DE9000F87B00646C80709D0D807EC
:1047EC006AD0BB6802A8314600F098F802AB0FCB38
:1047FC006AE0D80760D04DF68361C4F21B31A6FB8A
:10480C00012048F27F42C0F21E023244A2FB011288
:10481C00D40CB4EB904F48D8BB684FEA904802A830
:10482C003146224600F07AF80020444538BF01207A
:10483C00DDF808B0BBF1020F37D0DDE903294445A0
:10484C00059B3ED2044444453BD8DDF818A01D46D8
:10485C00CDF80480904618D2BB6802A83146224697
:10486C0000F05CF83046069EDDE902C10134DDE95A
:10487C000423B24581BF1D4691468846E34628BFB6
:10488C00B24606460198A042E6D1019A02A8BB683E
:10489C00314600F043F802AE4FCEB2459FBF2B46D7
:1048AC004A464146584602280ED146F26F0027214F
:1048BC00C0F60000FFF701FB012007B0BDE8000FB8
:1048CC00F0BD114658464A4643F68C064FF4F8554F
:1048DC0005EB0323C4F202063668150C1B0A63F3BE
:1048EC000C2643F68C03C4F202031E6053F8886C4A
:1048FC0065F3050643F8886C02F0706653F8045CA7
:10490C0062F38E1648F23F02CFF2FF022A40324485
:10491C0043F8042C07B0BDE8000FF0BDF0B503AFB1
:10492C002DE9000F8BB007AD039058001C468B4649
:10493C004FF0000A4FF002084FF00F090692029058
:10494C0004EB0A06069A284659463346CDF80090E1
:10495C00FFF713FD0798B0B908F10108B246B8F19A
:10496C00210FEDD10F20069A009007A8630159463C
:10497C00FFF703FD0798012860D1DDE90892202399
:10498C00DDF828A050E0DDE90892A8F101030A9EA9
:10499C001F2B01D9B24647E0B8F1200F049218D171
:1049AC001F20B24605900F20069A009007A86301BD
:1049BC005946FFF7E2FC0798A0B308AA059B07CA63
:1049CC00964284BF20239246049A84BF0A468146AD
:1049DC002AE00298059300EB0A05B24605E008F1BF
:1049EC0001082544B8F1200FDDD00F20069A009065
:1049FC0007A859462B46FFF7C0FC07980028EED0B5
:104A0C0008AA059B07CA964288BF4346059388BFF0
:104A1C009246049B88BF0B46049388BF814628BFEF
:104A2C001646DCE7DDE904230399002081E8050242
:104A3C00C1E9033A0BB0BDE8000FF0BD46F223000C
:104A4C002721C0F60000FFF738FA72B6704762B63D
:104A5C007047012101EB50000138FDD17047BFF3C5
:104A6C004F8F7047EFF31080704700F000B8F0B52F
:104A7C0003AF2DE90007102A1ED3434203F00308AD
:104A8C0000EB0803834233D9A8F1010CB8F1000FF5
:104A9C0006460D461AD00D46064615F801EBB8F140
:104AAC00010F06F801EB11D04E78B8F1020F4670E9
:104ABC0008D18D1C861C09E084460CEB02039C4536
:104ACC003ED36AE08E78CD1C8670C61CBCF1030FF9
:104ADC000ED3043D043E15F8044F06F8044F6C78D1
:104AEC007470AC78B470EC78F470341D9C42F2D1D4
:104AFC00A2EB080E41442EF0030203EB020C8C07D0
:104B0C0058D1634515D20C46256843F8045B6345C0
:104B1C000FD2656843F8045B63453EBFA56843F854
:104B2C00045B634505D2E568103443F8045B6345C8
:104B3C00EAD311440EF003020CEB02039C452CD279
:104B4C0012F00304A2F1010E13D00E46654616F8BE
:104B5C00012B012C05F8012B0DD04A78022C8CF876
:104B6C0001201DD18E1C0CF10205BEF1030F05D2E4
:104B7C0013E065460E46BEF1030F0ED3311F2A1FFC
:104B8C0011F8046F02F8046F4E7856708E78967098
:104B9C00CE78D670161D9E42F2D1BDE80007F0BD4E
:104BAC00CE1C0CF103058A788CF80220BEF1030FA1
:104BBC00E4D2F2E76345BCD2182421F0030604EAE0
:104BCC00C108CC00C4F10009346806F1080509F0ED
:104BDC00180955F8046C24FA08FA06FA09F444EAA0
:104BEC000A0443F8044B6345A3D22C6826FA08FA4E
:104BFC0004FA09F646EA0A0643F8046B63453FBF1C
:104C0C006E6824FA08FA06FA09F444EA0A043CBF6E
:104C1C0043F8044B6345BFF48CAFAC6826FA08FA32
:104C2C00103504FA09F646EA0A0643F8046B6345A4
:104C3C00CFD37EE780B56F46042914D3A1F1040CC1
:104C4C00012202EB9C0212F003030ED04FF0000E77
:104C5C00024642F804EB012B0BD110466146BCF125
:104C6C000C0F19D222E0024620E0BCF10C0F13D23B
:104C7C001CE0022BC0F804E006D1083908300246CB
:104C8C00BCF10C0F08D211E000220C3982600C3000
:104C9C000246BCF10C0F09D3002302461039C2E9BD
:104CAC000033C2E9023310320329F7D8501882427C
:104CBC0022D211F0030CA1F101010ED04FF0000E25
:104CCC00134603F801EBBCF1010F0BD0BCF1020F42
:104CDC0082F801E003D1931C04E0134602E00023A8
:104CEC009370D31C032938BF80BD191F002241F8D3
:0C4CFC00042F0B1D8342FAD180BDFEE79F
:104D08004572726F72557466384572726F72766149
:104D18006C69645F75705F746F6572726F725F6CD7
:104D2800656E536F6D654E6F6E6520202020000004
:104D3800000000000100000001000000050200085A
:104D4800810600080D080008000000000C000000A3
:104D580004000000EB1B00083F070008FF070008DD
:104D6800496E76616C6964436F6E6669670000001E
:104D780000000000000000000100000025080008F5
:104D8800000000000000000001000000F308000817
:104D9800F9020008C002191AC1024500C20133C550
:104DA800020028B102A011B40102B60300423BB7C9
:104DB8000107E00F1F25220B060A4EC63900000026
:104DC800000000E10F1F3F3F0F1F0F464931050943
:104DD800031C1A00F1083604003C0F0FA402F20964
:104DE80018A312023212FF3200F4054000089104A1
:104DF800F80221043A0155437265617465642062C2
:104E080079204A6F656C204B79706B652C2048615E
:104E1800726F6E204E617A6172692C20416E746FD8
:104E28006E20546368656B6F760000000000000018
:104E3800000000000000000000000010101010101A
:104E480010100010100000000000242424000000AE
:104E580000000000000000000000002424247E243C
:104E6800247E242424000000000010107C929090DE
:104E78007C1212927C1010000000006494680810E4
:104E880010202C524C000000000000182424183078
:104E98004A4444443A00000000001010100000008A
:104EA8000000000000000000000000081020202082
:104EB800202020100800000000000020100808082A
:104EC8000808081020000000000000000000241856
:104ED8007E182400000000000000000000001010F0
:104EE8007C1010000000000000000000000000001E
:104EF800000000101020000000000000000000006A
:104F08007E0000000000000000000000000000001B
:104F18000000001010000000000000040408081041
:104F280010202040400000000000003C4242464A59
:104F3800526242423C00000000000008182808089D
:104F4800080808083E0000000000003C4242020435
:104F5800081020407E0000000000003C4242021C75
:104F6800020242423C00000000000002060A12222F
:104F7800427E0202020000000000007E4040407CA9
:104F8800020202423C0000000000001C2040407C5D
:104F9800424242423C0000000000007E020204043B
:104FA80008081010100000000000003C4242423C7B
:104FB800424242423C0000000000003C4242424261
:104FC8003E0202043800000000000000000010103B
:104FD8000000001010000000000000000000101089
:104FE800000000101020000000000000040810203D
:104FF80040201008040000000000000000007E00AF
:10500800007E0000000000000000000040201008A2
:1050180004081020400000000000003C4242420406
:1050280008080008080000000000007C829EA2A278
:10503800A2A69A807E0000000000003C4242424244
:105048007E424242420000000000007C4242427C14
:10505800424242427C0000000000003C4242404084
:10506800404042423C000000000000784442424276
:1050780042424244780000000000007E40404078F0
:10508800404040407E0000000000007E40404078E4
:1050980040404040400000000000003C4242404088
:1050A8004E4242423C000000000000424242427E22
:1050B8004242424242000000000000381010101026
:1050C80010101010380000000000000E0404040442
:1050D8000404444438000000000000424448506082
:1050E80060504844420000000000004040404040FA
:1050F800404040407E00000000000082C6AA929214
:105108008282828282000000000000424242625293
:105118004A464242420000000000003C42424242ED
:10512800424242423C0000000000007C42424242AF
:105138007C404040400000000000003C42424242A7
:105148004242424A3C0200000000007C4242424285
:105158007C504844420000000000003C4240403C73
:10516800020242423C000000000000FE1010101035
:10517800101010101000000000000042424242428D
:10518800424242423C000000000000424242424289
:1051980024242418180000000000008282828282E1
:1051A8009292AAC6820000000000004242242418FD
:1051B800182424424200000000000082824444284F
:1051C80010101010100000000000007E02020408F9
:1051D800102040407E0000000000003820202020E1
:1051E800202020203800000000000040402020102F
:1051F8001008080404000000000000380808080827
:1052080008080808380000000000102844000000C2
:105218000000000000000000000000000000000086
:105228000000000000007E000010080000000000E0
:1052380000000000000000000000000000003C0228
:105248003E4242423E0000000000004040407C4296
:10525800424242427C0000000000000000003C4244
:10526800404040423C0000000000000202023E4272
:10527800424242423E0000000000000000003C4262
:10528800427E40403C0000000000000E10107C10E0
:1052980010101010100000000000000000003E4236
:1052A800424242423E02023C0000004040407C42F2
:1052B800424242424200000000000010100030103C
:1052C80010101010380000000000000404000C0446
:1052D80004040404044444380000004040404244AC
:1052E80048704844420000000000003010101010C0
:1052F8001010101038000000000000000000FC92A0
:1053080092929292920000000000000000007C42FD
:1053180042424242420000000000000000003C42BD
:10532800424242423C0000000000000000007C4273
:10533800424242427C4040400000000000003E42A1
:10534800424242423E0202020000000000005E604B
:1053580040404040400000000000000000003E4087
:10536800403C02027C0000000000001010107C107D
:10537800101010100E000000000000000000424253
:10538800424242423E00000000000000000042424B
:105398004224241818000000000000000000828247
:1053A800929292927C0000000000000000004242AD
:1053B800241824424200000000000000000042427D
:1053C800424242423E02023C0000000000007E04CD
:1053D800081020407E0000000000000C1010102073
:1053E800101010100C000000000000101010101019
:1053F8001010101010000000000000300808080409
:105408000808080830000000000062928C000000C4
:1054180000000000000000000000007E42424242FE
:10542800424242427E0000000000000000000010DE
:10543800381000000000000000000000000040409C
:105448007F40400000000000000000000000000055
:10545800FF0000000000000000000000000010181D
:10546800FC18100000000000000000000000484C7C
:105478007E4C480000000000000000000000000012
:10548800000006CEDCF8F0FCFC3F3F0F1F3B7360CA
:1054980000000000000000000000000000030F3FB3
:1054A800FFFF3F0F0300000000030F3FFFFFFFFF58
:1054B800FFFFFFFFFFFF3F0F030000000000000099
:1054C8007F7F0000000000000000000000000000D6
:1054D800FEFE0000000000000000010101010101C2
:1054E8007F7F0101010101010000808080808080B0
:1054F800FEFE8080808080800000000000000000A8
:1055080080C0E0713B1F0E040000000103070E1C61
:105518003870E0C080000000007F80BFBF808080BE
:1055280083878787878380807FF0088482010101D1
:10553800C1E1E1E1E1C10101FE00000000000C1839
:105548003060FFFF6030180C000000000303030305
:105558000303FFFF00000000000103060C18306081
:10556800C0C06030180C06030180C06030180C06FB
:105578000303060C183060C0800101030307070FFE
:105588000F1F1F3F3F7F7FFFFF8080C0C0E0E0F01C
:10559800F0F8F8FCFCFEFEFFFFC0F0FCFFFFFFFF89
:1055A800FFFFFFFFFFFFFCF0C000000000C0F0FCA1
:1055B800FFFFFCF0C0000000003E418080BE8080FC
:1055C800413F0000000000000000008080808080D3
:1055D80080C0E070381C0E07030103060C193367FE
:1055E800CFCF6733190C06030180C0603098CCE632
:1055F800F3F3E6CC983060C080FEFEC0C0C0C0C0E7
:10560800CFCFC0C0C0C0C0FEFE00000030180C06DE
:10561800FFFF060C1830000000FFFF7F7F3F3F1F91
:105628001F0F0F070703030101FFFFFEFEFCFCF835
:10563800F8F0F0E0E0C0C08080C0E070381C0E07D1
:105648000303070E1C3870E0C003070E1C3870E017
:10565800C0C0E070381C0E0703077FFF202D2D2DDA
:105668002D2D2D2D2D2D2D201FE0FEFF04B4B4B4BB
:10567800B4B4B4B4B4B4B404F8F8F8C0C0C000000A
:1056880000000000C0C0C0F8F81F1F03030300009B
:10569800000000000303031F1F00000000000000BB
:1056A80000007E7E1E3E76E6C003676E7C787E7EB6
:1056B80000000000000000000031313137373101AF
:1056C800FDFD313131313131318C8C8CECEC8C8CED
:1056D8008C8C8C80BFBF8C8C8C0000F08887808776
:1056E8008488889090A0FF000000000000FF00FF61
:1056F800010202040408F800003E418888BE888838
:10570800413F000000000000000000808080808091
:1057180080C0E070381C0E0703000000314E0008FE
:10572800F008000008000000100000004954532D44
:10573800426F617264204C6F67696320416E616CCF
:10574800797A65722056302E310000000000000082
:1057580000000000000000000000001818181818C9
:10576800181800181800000000006666660000009F
:1057780000000000000000000000006C6C6CFE6C73
:105788006CFE6C6C6C000000000010107CD6D0D051
:105798007C1616D67C10100000000066D66C0C181B
:1057A8001830366B66000000000000386C6C3876E4
:1057B800DCCCCCDC760000000000181818000000D3
:1057C80000000000000000000000000C183030301D
:1057D800303030180C00000000000030180C0C0CA1
:1057E8000C0C0C18300000000000000000006C38A1
:1057F800FE386C00000000000000000000001818CF
:105808007E181800000000000000000000000000E2
:105818000000001818300000000000000000000020
:10582800FE00000000000000000000000000000072
:10583800000000181800000000000006060C0C18F4
:1058480018303060600000000000007CC6C6CEDE64
:10585800F6E6C6C67C000000000000183878181864
:10586800181818187E0000000000007CC6C6060C38
:10587800183060C0FE0000000000007CC6C6063C70
:105888000606C6C67C000000000000060E1E36662E
:10589800C6FE060606000000000000FEC0C0C0FCF0
:1058A800060606C67C0000000000003C60C0C0FC84
:1058B800C6C6C6C67C000000000000FE06060C0C2A
:1058C80018183030300000000000007CC6C6C67CC6
:1058D800C6C6C6C67C0000000000007CC6C6C6C698
:1058E8007E06060C78000000000000000000181872
:1058F8000000001818000000000000000000181840
:10590800000000181830000000000000060C1830D5
:105918006030180C06000000000000000000FE00C7
:1059280000FE000000000000000000006030180CBD
:10593800060C1830600000000000007CC6C6C60CCB
:1059480018180018180000000000007CC6CED6D633
:10595800D6D6CEC07E0000000000007CC6C6C6C6F3
:10596800FEC6C6C6C6000000000000FCC6C6C6FCCF
:10597800C6C6C6C6FC0000000000007CC6C6C0C083
:10598800C0C0C6C67C000000000000F8CCC6C6C671
:10599800C6C6C6CCF8000000000000FEC0C0C0F8B3
:1059A800C0C0C0C0FE000000000000FEC0C0C0F8BB
:1059B800C0C0C0C0C00000000000007CC6C6C0C097
:1059C800DEC6C6C67C000000000000C6C6C6C6FE0D
:1059D800C6C6C6C6C60000000000003C1818181845
:1059E800181818183C0000000000001E0C0C0C0CC5
:1059F8000C0CCCCC78000000000000C6C6CCD8F057
:105A0800F0D8CCC6C6000000000000C0C0C0C0C0AE
:105A1800C0C0C0C0FE00000000000082C6EEFED676
:105A2800C6C6C6C6C6000000000000C6C6C6E6F662
:105A3800DECEC6C6C60000000000007CC6C6C6C6CC
:105A4800C6C6C6C67C000000000000FCC6C6C6C6A6
:105A5800FCC0C0C0C00000000000007CC6C6C6C6AE
:105A6800C6C6C6DE7C060000000000FCC6C6C6C668
:105A7800FCF0D8CCC60000000000007CC6C0C07C8A
:105A88000606C6C67C000000000000FF181818189B
:105A98001818181818000000000000C6C6C6C6C6A8
:105AA800C6C6C6C67C000000000000C6C6C6C6C67C
:105AB8006C6C6C3838000000000000C6C6C6C6C64C
:105AC800D6FEEEC682000000000000C6C66C6C3828
