:020000040800F2
:1000000000000320AD0100089FE600085702010828
:100010009FE600089FE600089FE600080000000039
:100020000000000000000000000000009FE6000843
:100030009FE60008000000009FE600089FE6000819
:100040009FE600089FE600089FE600089FE600087C
:100050009FE600089FE600089FE600089FE600086C
:100060009FE600089FE600089FE600089FE600085C
:100070009FE600089FE600089FE600089FE600084C
:100080009FE600089FE600089FE600089FE600083C
:100090009FE600089FE600089FE600089FE600082C
:1000A0009FE600089FE600089FE600089FE600081C
:1000B0009FE600089FE600089FE600089FE600080C
:1000C0009FE600089FE600089FE600089FE60008FC
:1000D0009FE600089FE600089FE600089FE60008EC
:1000E0009FE600089FE600089FE600089FE60008DC
:1000F0009FE600089FE600089FE600089FE60008CC
:100100009FE600089FE600089FE600089FE60008BB
:100110009FE600089FE600089FE600089FE60008AB
:100120009FE600089FE600089FE600089FE600089B
:100130009FE600089FE600089FE600089FE600088B
:100140009FE600089FE600089FE600089FE600087B
:100150009FE600089FE600089FE600089FE600086B
:100160009FE600089FE600089FE600089FE600085B
:100170009FE600089FE600089FE600089FE600084B
:100180009FE600089FE600089FE600089FE600083B
:100190009FE600089FE600089FE600089FE600082B
:0C01A0009FE600089FE600089FE60008AC
:1001AC000EF078FA0E480F490022814201D004C0AB
:1001BC00FBE70D480D490E4A814202D008CA08C01F
:1001CC00FAE70C484FF47001026842EA010202603F
:1001DC00BFF34F8FBFF36F8F04F02CFE00DE0000D7
:1001EC00000000200400002000000020000000207F
:1001FC00581F010888ED00E0CAB101EB020C44F66F
:10020C000002C4F2000203E00131536061450ED0DC
:10021C000B7810680006F7D4106800065CBF1068F5
:10022C005FEA0060F0D410680006F2D5ECE700201D
:10023C00704780B56F46A2B00A46C969CB0616D482
:10024C00890621D4017864294CD329204843030B17
:10025C006FF0630013FB001041F6F731C0F601019B
:10026C00C0B231F81000ADF8090000203EE0007873
:10027C0000F00F0101F157030A2938BF01F13003D7
:10028C008DF8873057210BE0007800F00F0101F159
:10029C0037030A2938BF01F1300337218DF8873035
:1002AC0001EB10110309A02838BF03F1300110280D
:1002BC0038BF00218DF886104FF0020138BF0121A4
:1002CC00009102A9102801F17E03104638BF01F1FC
:1002DC007F0341F6F531C0F6010102220DF0D8F88A
:1002EC0022B080BD0A2906D202200B4643F0300111
:1002FC0002AB195408E041F6F730C0F6010030F8B3
:10030C001100ADF80900012080F00301009102A951
:10031C000B181046012100220DF0BAF822B080BD56
:10032C00F0B503AF2DE9000F8DB006680C463078A0
:10033C0080B1D4E905B940F28221D9F80C50C0F64D
:10034C00010104225846A84790B101200DB0BDE828
:10035C00000FF0BD40F29621D4E90502D368C0F637
:10036C00010104220DB0BDE8000FBDE8F0401847B4
:10037C00D4F81CA006F101085FEA4A7015D441F6C6
:10038C00F1315846C0F601010122A847014601206F
:10039C000029DBD140462146FFF74BFF002846D011
:1003AC0001200DB0BDE8000FF0BD41F6F23158460A
:1003BC00C0F601010222A847014601200029C5D13F
:1003CC0004F10806A7F1410141F6CC3507F8410CC0
:1003DC004CCE6846C0F60105CDE90191D4E900C1C7
:1003EC00099006A8CDE904C104A90A9594F82050F7
:1003FC004CC04046CDF800B0CDF82CA08DF8305054
:10040C00FFF717FF20B101200DB0BDE8000FF0BDC4
:10041C00DDE909010222CB6841F6EC31C0F601019D
:10042C00984720B101200DB0BDE8000FF0BDD4E914
:10043C0005010122CB6841F69C31C0F601019847B9
:10044C000DB0BDE8000FF0BD0B46D0E90012184608
:10045C000DF044B9F0B503AF2DE9000FA3B08946F8
:10046C00C969CA064ED4890600F18A80016842F235
:10047C0010704FF69C7E814241F6F730C0F60100B9
:10048C00C0F0D68041F259784EF2FF040DF10C0BFE
:10049C00CDF808900022CDF2B7184DF6F00941F2D4
:1004AC007B4AC0F2F554A1FB08350BEB020C043A65
:1004BC00A1424FEA553303FB09151946AEB24FEA78
:1004CC00960606FB0AF64FEA564606FB0E5530F822
:1004DC001660ACF80660ADB230F81550ACF80850A8
:1004EC00E1D8DDF808900A321946632900F2A4809D
:1004FC000B460A2BC0F0B180911E30F8130003AAF2
:10050C005052AFE003680DF10C0E802481214FF0A6
:10051C005708204603F00F0404F157050A2C38BF86
:10052C0004F130050EEB0104102B04F8025C66D3C9
:10053C00DDB2A02D08EB15164FEA151238BF02F1EB
:10054C0030061D0A04F8036C5CD005F00F02043968
:10055C0002F157050A2A38BF02F1300504F8045C91
:10056C001D0B52D005F00F0202F157050A2A38BFB5
:10057C0002F1300504F8055C041F1B0CC9D13CE0EA
:10058C0003680DF10C0E802481214FF0370C03F021
:10059C000F06204606F137050A2E0EEB010438BF74
:1005AC0006F13005102B04F8025C28D3DEB2A02E25
:1005BC000CEB16154FEA161238BF02F1300504F891
:1005CC00035C1D0A1ED005F00F02043902F1370539
:1005DC000A2A38BF02F1300504F8045C1D0B14D054
:1005EC0005F00F0202F137050A2A38BF02F1300577
:1005FC0004F8055C041F1B0CC9D1033807E08C1EE2
:10060C00481E04E00138CC1E01E002380C4641F6CD
:10061C00F531C0F181000EEB04030090C0F601012E
:10062C00484602220CF034FF23B0BDE8000FF0BDA9
:10063C000A2263297FF65CAF8BB241F27B469B08A2
:10064C00023A734303AE5B0C03FB0E1189B230F814
:10065C001110B1520A2BBFF44FAF511E03AA43F035
:10066C0030005054C1F10A00009003A80022431836
:10067C00484601210CF00CFF23B0BDE8000FF0BD83
:10068C0081B0002080290090684602D200F1010C54
:10069C0037E0B1F5006F0BD202220B4662F39F13C9
:1006AC00C02200F1020C8DF8013042EA911128E0D1
:1006BC00B1F5803F10D202220B4662F39F138DF8E6
:1006CC0002308B0900F1030C62F39F13E0228DF8CA
:1006DC00013042EA113114E002220B4662F39F13FF
:1006EC008DF803308B0900F1040C62F39F138DF825
:1006FC0002300B0B62F39F13F0228DF8013042EAAB
:10070C00914144F600028DF800106946C4F20002D3
:10071C0003E00131536061450ED00B781068000680
:10072C00F7D4106800065CBF10685FEA0060F0D474
:10073C0010680006F2D5ECE7002001B07047F0B568
:10074C0003AF4DF8048D82B08046002080290190C3
:10075C0003D201248DF8041033E0B1F5006F09D2F7
:10076C000224084664F39F108DF80500C02040EA6F
:10077C00911024E002200A4660F39F12B1F5803FED
:10078C000DD28DF806208A0960F39F12E02040EA12
:10079C0011308DF805208DF80400032411E08DF83C
:1007AC0007208A0960F39F128DF806200A0B042497
:1007BC0060F39F12F02040EA91408DF805208DF8EF
:1007CC000400D8E90156B54215D309D0D8F8000079
:1007DC0001A9AA1B3044A24228BF22460FF028F9D7
:1007EC003019854238BF2846C8F80800002002B0EE
:1007FC005DF8048BF0BD304629460DF0F0FE0A463C
:10080C0040F2C821C0F601010DF0E5BA0A4640F2EB
:10081C00B021C0F601010DF0DEBAC00708BF704769
:10082C000EF0BCBCD1E9050240F25821D368C0F6E9
:10083C00010105221847B0B502AF84B0044604305C
:10084C000D460190D1E905010922CB6840F25D21EA
:10085C00C0F6010198478DF80C0040F26140002170
:10086C00C0F600008DF80D1040F26621009002A831
:10087C00C0F601010B22234602950DF088FC40F2D4
:10088C002D3101ABC0F600010922009140F271211B
:10089C00C0F601010DF07BFC9DF80D209DF80C10AD
:1008AC00012A42EA010008BF5FEAC17103D000F0DF
:1008BC00010004B0B0BD0298017F49070CD4D0E907
:1008CC0005010222CB6841F6EF31C0F601019847D1
:1008DC0000F0010004B0B0BDD0E905010122CB68E5
:1008EC0041F6EE31C0F60101984700F0010004B06A
:1008FC00B0BDD1E9050240F2E021D368C0F6010198
:10090C000D221847F0B503AF2DE9000F83B0BC687A
:10091C009A469046D4E902B52B465A4600F0E9F9BE
:10092C00A8F120000BF107016843C9080191484365
:10093C0061688142C0F0DF80002D18BFBBF1000F51
:10094C000BD140F618404FF48041C4F20200016014
:10095C00584603B0BDE8000FF0BD22682426091AE2
:10096C00002302EB000943F20802C4F20006C4F2B1
:10097C0001024FF00708009504E0029B009D013333
:10098C00AB42DED001980025029303FB00FE02E08F
:10099C0001355D45F1D00EEBD500884280F0AD807D
:1009AC0019F8000028EA0503D6F800C0D84000F07A
:1009BC000100404200EA0A003368A3EB0C03592BF8
:1009CC000ED83368A3EB0C03592B9EBF3368A3EBF3
:1009DC000C03592B04D83368A3EB0C035A2BEBD321
:1009EC0013689B0709D413689B075CBF13685FEA05
:1009FC00837302D413689B07F2D583B21B0A53602E
:100A0C001368DB0709D11368DB0704BF13685FEABF
:100A1C00C37302D11368DB07F2D013681B0609D528
:100A2C0013681B0644BF13685FEA036302D513689F
:100A3C001B06F2D4536833683468E41A592C0BD86B
:100A4C003468E41A592C9EBF3468E41A592C03D824
:100A5C003468E41A5A2CEFD333683468E41A592CEE
:100A6C000BD83468E41A592C9EBF3468E41A592CFC
:100A7C0003D83468E41A5A2CEFD313689B0709D4B3
:100A8C0013689B075CBF13685FEA837302D4136817
:100A9C009B07F2D5C0B250601068C00709D110682E
:100AAC00C00704BF10685FEAC07002D11068C007AD
:100ABC00F2D01068000609D51068000644BF106813
:100ACC005FEA006002D510680006F2D45068306806
:100ADC0033681B1A592B3FF65BAF33681B1A592B23
:100AEC009EBF33681B1A592B3FF652AF33681B1A43
:100AFC005A2BEDD34CE70DF072FD0CF049FCF0B520
:100B0C0003AF2DE9000F83B01646B52A08BF802627
:100B1C001D7C202A38BF7F264DB1009332464FF6FC
:100B2C00FF73FFF7EFFE03B0BDE8000FF0BDD3E994
:100B3C0002951C462B464A4600F0DBF8002D029528
:100B4C0018BFB9F1000F0CD140F618404FF480419A
:100B5C00C4F20200016009F1010003B0BDE8000F0E
:100B6C00F0BDA6F12000D4E900B1242543F208061B
:100B7C0009FB00FA4FF0000CC4F20005C4F20106A8
:100B8C0002E002988445DFD00CF0070001220CF142
:100B9C00010C02FA00F8002201E04A45F1D002EB08
:100BAC000A00884280F0A3801BF8000001322B68F9
:100BBC0000EA0800D5F800E0AEEB0304592C0BD882
:100BCC002C68E41A592C9EBF2C68E41A592C03D8B3
:100BDC002C68E41A5A2CEDD333689B0709D433687C
:100BEC009B075CBF33685FEA837302D433689B074F
:100BFC00F2D5002818BFFF2070603368DB0709D1DD
:100C0C003368DB0704BF33685FEAC37302D1336810
:100C1C00DB07F2D033681B0609D533681B0644BFCB
:100C2C0033685FEA036302D533681B06F2D473683A
:100C3C002B682C68E41A592C0BD82C68E41A592C04
:100C4C009EBF2C68E41A592C03D82C68E41A5A2C31
:100C5C00EFD32B682C68E41A592C0BD82C68E41AA7
:100C6C00592C9EBF2C68E41A592C03D82C68E41A12
:100C7C005A2CEFD333689B0709D433689B075CBFAE
:100C8C0033685FEA837302D433689B07F2D57060D4
:100C9C003068C00709D13068C00704BF30685FEA0C
:100CAC00C07002D13068C007F2D03068000609D598
:100CBC003068000644BF30685FEA006002D53068D7
:100CCC000006F2D4706828682B681B1A592B3FF663
:100CDC0064AF2B681B1A592B9EBF2B681B1A592B00
:100CEC003FF65BAF2B681B1A5A2BEDD355E70CF074
:100CFC004FFBF0B503AF4DF8048D40F6184C4FF098
:100D0C000056C4F2020C40F2240ECCF800684FF0EE
:100D1C008046CCF80060C4F2000EDEF80060A1F151
:100D2C000108441EDEF80050AD1B592D0ED8DEF81C
:100D3C000050AD1B592D9EBFDEF80050AD1B592D38
:100D4C0004D8DEF80050AD1B5A2DEBD3144443F2FB
:100D5C000802C4F201021568AD0709D41568AD0785
:100D6C005CBF15685FEA857502D41568AD07F2D5CE
:100D7C002A2555601568ED0709D11568ED0704BFE4
:100D8C0015685FEAC57502D11568ED07F2D01568D4
:100D9C002D0609D515682D0644BF15685FEA056553
:100DAC0002D515682D06F2D45568DEF80060DEF821
:100DBC000050AD1B592D0ED8DEF80050AD1B592D2F
:100DCC009EBFDEF80050AD1B592D04D8DEF8005044
:100DDC00AD1B5A2DEBD34FF48045CCF800504FF49B
:100DEC000055CCF800584FF08045CCF80050DEF898
:100DFC000060DEF80050AD1B592D0ED8DEF8005007
:100E0C00AD1B592D9EBFDEF80050AD1B592D04D8DB
:100E1C00DEF80050AD1B5A2DEBD343441568AD07DB
:100E2C0009D41568AD075CBF15685FEA857502D4F7
:100E3C001568AD07F2D5002555601568ED0709D189
:100E4C001568ED0704BF15685FEAC57502D1156812
:100E5C00ED07F2D015682D0609D515682D0644BF8F
:100E6C0015685FEA056502D515682D06F2D455683C
:100E7C00DEF80050DEF80060761B592E0ED8DEF836
:100E8C000060761B592E9EBFDEF80060761B592E33
:100E9C0004D8DEF80060761B5A2EEBD3DEF8005037
:100EAC00DEF80060761B592E0ED8DEF80060761B3B
:100EBC00592E9EBFDEF80060761B592E04D8DEF842
:100ECC000060761B5A2EEBD31568AD0709D4156854
:100EDC00AD075CBF15685FEA857502D41568AD0770
:100EEC00F2D5C0F3072555601568ED0709D11568D3
:100EFC00ED0704BF15685FEAC57502D11568ED07EB
:100F0C00F2D015682D0609D515682D0644BF156855
:100F1C005FEA056502D515682D06F2D45568DEF832
:100F2C000050DEF80060761B592E0ED8DEF80060FB
:100F3C00761B592E9EBFDEF80060761B592E04D806
:100F4C00DEF80060761B5A2EEBD34FF48045CCF8BC
:100F5C0000504FF40055CCF800584FF08045CCF8B9
:100F6C000050DEF80050DEF80060761B592E0ED8CB
:100F7C00DEF80060761B592E9EBFDEF80060761BF3
:100F8C00592E04D8DEF80060761B5A2EEBD3156868
:100F9C00AD0709D41568AD075CBF15685FEA8575A8
:100FAC0002D41568AD07F2D5002555601568ED071C
:100FBC0009D11568ED0704BF15685FEAC57502D144
:100FCC001568ED07F2D015682D0609D515682D06A4
:100FDC0044BF15685FEA056502D515682D06F2D485
:100FEC005568DEF80050DEF80060761B592E0ED8DE
:100FFC00DEF80060761B592E9EBFDEF80060761B73
:10100C00592E04D8DEF80060761B5A2EEBD3DEF88E
:10101C000050DEF80060761B592E0ED8DEF800600A
:10102C00761B592E9EBFDEF80060761B592E04D815
:10103C00DEF80060761B5A2EEBD31568AD0709D489
:10104C001568AD075CBF15685FEA857502D4156835
:10105C00AD07F2D5C0B250601068C00709D1106856
:10106C00C00704BF10685FEAC07002D11068C007E7
:10107C00F2D01068000609D51068000644BF10684D
:10108C005FEA006002D510680006F2D45068DEF802
:10109C000000DEF800502D1A592D0ED8DEF8005045
:1010AC002D1A592D9EBFDEF800502D1A592D04D83B
:1010BC00DEF800502D1A5A2DEBD34FF48040CCF8AB
:1010CC0000004FF40050CCF800084FF08040CCF8F2
:1010DC000000DEF80000DEF800502D1A592D0ED855
:1010EC00DEF800502D1A592D9EBFDEF800502D1A37
:1010FC00592D04D8DEF800502D1A5A2DEBD3106858
:10110C00800709D4106880075CBF10685FEA8070A4
:10111C0002D410688007F2D5002050601068C00718
:10112C0009D11068C00704BF10685FEAC07002D113
:10113C001068C007F2D01068000609D510680006C8
:10114C0044BF10685FEA006002D510680006F2D454
:10115C005068DEF80000DEF800502D1A592D0ED81C
:10116C00DEF800502D1A592D9EBFDEF800502D1AB6
:10117C00592D04D8DEF800502D1A5A2DEBD3DEF879
:10118C000000DEF800502D1A592D0ED8DEF8005054
:10119C002D1A592D9EBFDEF800502D1A592D04D84A
:1011AC00DEF800502D1A5A2DEBD31068800709D4A5
:1011BC00106880075CBF10685FEA807002D410680A
:1011CC008007F2D5C4F3072050601068C00709D11E
:1011DC001068C00704BF10685FEAC07002D11068C5
:1011EC00C007F2D01068000609D51068000644BF8D
:1011FC0010685FEA006002D510680006F2D45068EF
:10120C00DEF80000DEF800502D1A592D0ED8DEF84D
:10121C0000502D1A592D9EBFDEF800502D1A592D55
:10122C0004D8DEF800502D1A5A2DEBD34FF4804021
:10123C00CCF800004FF40050CCF800084FF0804080
:10124C00CCF80000DEF80000DEF800502D1A592D05
:10125C000ED8DEF800502D1A592D9EBFDEF8005026
:10126C002D1A592D04D8DEF800502D1A5A2DEBD317
:10127C001068800709D4106880075CBF10685FEAAB
:10128C00807002D410688007F2D50020506010687E
:10129C00C00709D11068C00704BF10685FEAC070AE
:1012AC0002D11068C007F2D01068000609D510688A
:1012BC00000644BF10685FEA006002D510680006A3
:1012CC00F2D45068DEF80000DEF800502D1A592DCB
:1012DC000ED8DEF800502D1A592D9EBFDEF80050A6
:1012EC002D1A592D04D8DEF800502D1A5A2DEBD397
:1012FC00DEF80000DEF800502D1A592D0ED8DEF85D
:10130C0000502D1A592D9EBFDEF800502D1A592D64
:10131C0004D8DEF800502D1A5A2DEBD31068800734
:10132C0009D4106880075CBF10685FEA807002D433
:10133C0010688007F2D5E0B250601068C00709D180
:10134C001068C00704BF10685FEAC07002D1106853
:10135C00C007F2D01068000609D51068000644BF1B
:10136C0010685FEA006002D510680006F2D450687D
:10137C00DEF80000DEF80040241A592C0ED8DEF8F6
:10138C000040241A592C9EBFDEF80040241A592C18
:10139C0004D8DEF80040241A5A2CEBD34FF48040CA
:1013AC00CCF800004FF00050CCF800084FF0804013
:1013BC00CCF80000DEF80000DEF80040241A592CAE
:1013CC000ED8DEF80040241A592C9EBFDEF80040DF
:1013DC00241A592C04D8DEF80040241A5A2CEBD3CA
:1013EC001068800709D4106880075CBF10685FEA3A
:1013FC00807002D410688007F2D52B2050601068E2
:10140C00C00709D11068C00704BF10685FEAC0703C
:10141C0002D11068C007F2D01068000609D5106818
:10142C00000644BF10685FEA006002D51068000631
:10143C00F2D45068DEF80000DEF80040241A592C73
:10144C000ED8DEF80040241A592C9EBFDEF800405E
:10145C00241A592C04D8DEF80040241A5A2CEBD349
:10146C004FF48040CCF800004FF40050CCF800084A
:10147C004FF08040CCF80000DEF80000DEF80040B1
:10148C00241A592C0ED8DEF80040241A592C9EBF71
:10149C00DEF80040241A592C04D8DEF80040241A37
:1014AC005A2CEBD31068800709D4106880075CBFF6
:1014BC0010685FEA807002D410688007F2D50020B3
:1014CC0050601068C00709D11068C00704BF1068CD
:1014DC005FEAC07002D11068C007F2D01068000635
:1014EC0009D51068000644BF10685FEA006002D599
:1014FC0010680006F2D45068DEF80000DEF80040F8
:10150C00241A592C0ED8DEF80040241A592C9EBFF0
:10151C00DEF80040241A592C04D8DEF80040241AB6
:10152C005A2CEBD3DEF80000DEF80040241A592CBC
:10153C000ED8DEF80040241A592C9EBFDEF800406D
:10154C00241A592C04D8DEF80040241A5A2CEBD358
:10155C001068800709D4106880075CBF10685FEAC8
:10156C00807002D410688007F2D5C1F30720506058
:10157C001068C00709D11068C00704BF10685FEA83
:10158C00C07002D11068C007F2D01068000609D5EF
:10159C001068000644BF10685FEA006002D510684E
:1015AC000006F2D45068DEF80000DEF80040241A81
:1015BC00592C0ED8DEF80040241A592C9EBFDEF8A8
:1015CC000040241A592C04D8DEF80040241A5A2C56
:1015DC00EBD34FF48040CCF800004FF40050CCF823
:1015EC0000084FF08040CCF80000DEF80000DEF878
:1015FC000040241A592C0ED8DEF80040241A592C1D
:10160C009EBFDEF80040241A592C04D8DEF80040A6
:10161C00241A5A2CEBD31068800709D41068800761
:10162C005CBF10685FEA807002D410688007F2D546
:10163C00002050601068C00709D11068C00704BFB3
:10164C0010685FEAC07002D11068C007F2D0106851
:10165C00000609D51068000644BF10685FEA0060F8
:10166C0002D510680006F2D45068DEF80000DEF8EF
:10167C000040241A592C0ED8DEF80040241A592C9C
:10168C009EBFDEF80040241A592C04D8DEF8004026
:10169C00241A5A2CEBD3DEF80000DEF80040241A92
:1016AC00592C0ED8DEF80040241A592C9EBFDEF8B7
:1016BC000040241A592C04D8DEF80040241A5A2C65
:1016CC00EBD31068800709D4106880075CBF1068E2
:1016DC005FEA807002D410688007F2D5C8B25060FF
:1016EC001068C00709D11068C00704BF10685FEA12
:1016FC00C07002D11068C007F2D01068000609D57E
:10170C001068000644BF10685FEA006002D51068DC
:10171C000006F2D45068DEF80000DEF80010091A5A
:10172C0059290ED8DEF80010091A59299EBFDEF887
:10173C000010091A592904D8DEF80010091A5A2980
:10174C00EBD34FF48040CCF800004FF40050CCF8B1
:10175C0000084FF08040CCF80000DEF80000DEF806
:10176C000010091A59290ED8DEF80010091A592947
:10177C009EBFDEF80010091A592904D8DEF80010B3
:10178C00091A5A29EBD31068800709D4106880070E
:10179C005CBF10685FEA807002D410688007F2D5D5
:1017AC00002050601068C00709D11068C00704BF42
:1017BC0010685FEAC07002D11068C007F2D01068E0
:1017CC00000609D51068000644BF10685FEA006087
:1017DC0002D510680006F2D45068DEF80000DEF87E
:1017EC000010091A59290ED8DEF80010091A5929C7
:1017FC009EBFDEF80010091A592904D8DEF8001033
:10180C00091A5A29EBD3DEF80000DEF80010091A89
:10181C0059290ED8DEF80010091A59299EBFDEF896
:10182C000010091A592904D8DEF80010091A5A298F
:10183C00EBD31068800709D4106880075CBF106870
:10184C005FEA807002D410688007F2D5C3F30720DA
:10185C0050601068C00709D11068C00704BF106839
:10186C005FEAC07002D11068C007F2D010680006A1
:10187C0009D51068000644BF10685FEA006002D505
:10188C0010680006F2D45068DEF80000DEF8001094
:10189C00091A59290ED8DEF80010091A59299EBFC9
:1018AC00DEF80010091A592904D8DEF80010091ABC
:1018BC005A29EBD34FF48040CCF800004FF4005081
:1018CC00CCF800084FF08040CCF80000DEF80000A7
:1018DC00DEF80010091A59290ED8DEF80010091A82
:1018EC0059299EBFDEF80010091A592904D8DEF8D0
:1018FC000010091A5A29EBD31068800709D4106814
:10190C0080075CBF10685FEA807002D410688007A3
:10191C00F2D5002050601068C00709D11068C007CC
:10192C0004BF10685FEAC07002D11068C007F2D023
:10193C001068000609D51068000644BF10685FEAFD
:10194C00006002D510680006F2D45068DEF8000082
:10195C00DEF80010091A59290ED8DEF80010091A01
:10196C0059299EBFDEF80010091A592904D8DEF84F
:10197C000010091A5A29EBD3DEF80000DEF800102B
:10198C00091A59290ED8DEF80010091A59299EBFD8
:10199C00DEF80010091A592904D8DEF80010091ACB
:1019AC005A29EBD31068800709D4106880075CBFF4
:1019BC0010685FEA807002D410688007F2D5D8B244
:1019CC0050601068C00709D11068C00704BF1068C8
:1019DC005FEAC07002D11068C007F2D01068000630
:1019EC0009D51068000644BF10685FEA006002D594
:1019FC0010680006F2D45068DEF80000DEF8001023
:101A0C00091A59290ED8DEF80010091A59299EBF57
:101A1C00DEF80010091A592904D8DEF80010091A4A
:101A2C005A29EBD34FF48040CCF800004FF0005013
:101A3C00CCF800084FF08040CCF80000DEF8000035
:101A4C00DEF80010091A59290ED8DEF80010091A10
:101A5C0059299EBFDEF80010091A592904D8DEF85E
:101A6C000010091A5A29EBD31068800709D41068A2
:101A7C0080075CBF10685FEA807002D41068800732
:101A8C00F2D52C2050601068C00709D11068C0072F
:101A9C0004BF10685FEAC07002D11068C007F2D0B2
:101AAC001068000609D51068000644BF10685FEA8C
:101ABC00006002D510680006F2D45068DEF8000011
:101ACC00DEF80010091A59290ED8DEF80010091A90
:101ADC0059299EBFDEF80010091A592904D8DEF8DE
:101AEC000010091A5A29EBD34FF48040CCF80000AF
:101AFC004FF40050CCF800084FF08040CCF80000B8
:101B0C005DF8048BF0BDB0B502AF1C461546FFF76F
:101B1C00F0F804FB05F0002800F0AA80BA68242332
:101B2C0043F20805C4F20003C4F2010591B2D2B22B
:101B3C004FEA112C02E0013800F09A801C681968F9
:101B4C00091B59290BD81968091B59299EBF1968FB
:101B5C00091B592903D81968091B5A29EFD329687D
:101B6C00890709D4296889075CBF29685FEA8171F4
:101B7C0002D429688907F2D5C5F804C02968C907B9
:101B8C0009D12968C90704BF29685FEAC17102D16C
:101B9C002968C907F2D02968090609D529680906F8
:101BAC0044BF29685FEA016102D529680906F2D4AD
:101BBC0069681C681968091B59290BD81968091B15
:101BCC0059299EBF1968091B592903D81968091B83
:101BDC005A29EFD31C681968091B59290BD81968A5
:101BEC00091B59299EBF1968091B592903D8196863
:101BFC00091B5A29EFD32968890709D42968890751
:101C0C005CBF29685FEA817102D429688907F2D523
:101C1C006A602968C90709D12968C90704BF2968FE
:101C2C005FEAC17102D12968C907F2D02968090697
:101C3C0009D52968090644BF29685FEA016102D504
:101C4C0029680906F2D469681C681968091B5929A6
:101C5C003FF671AF1968091B59299EBF1968091BFA
:101C6C0059293FF668AF1968091B5A29EDD362E769
:101C7C0040F618404FF48041C4F202000160B0BD40
:101C8C00F0B503AF2DE9000B82B004460E464FF0C1
:101C9C0000090A20214664220123CDF80090FFF7A9
:101CAC0032FF651CA6F102080A2001222946434690
:101CBC00CDF80090FFF727FF6D20294601224346FF
:101CCC00CDF80090FFF71FFF30196422411E0A2047
:101CDC000123CDF80090FFF716FF4FF6FF790B208C
:101CEC00294662220123CDF80090FFF70CFF351F27
:101CFC00A61C0B20012231462B46CDF80090FFF795
:101D0C0002FF6C20314601222B46CDF80090FFF7E4
:101D1C00FAFE08EB04010B2062220123CDF800909F
:101D2C00FFF7F1FE02B0BDE8000BF0BDF0B503AF5C
:101D3C002DE9000F81B0D0F8FC9440F6305B824660
:101D4C00282001EB02080C4600EB09150726C0F60B
:101D5C00010B00920AE043EA8112841C30462946AA
:101D6C005B46FEF7CCFE0644444523D0204614F9CE
:101D7C00011BB1F1FF3FCAB2F0DC437802F01F0146
:101D8C00E02A03F03F03E6D38478F02A04F03F0402
:101D9C0044EA83130AD3C27801F00701041D02F050
:101DAC003F0242EA831242EA8142D7E743EA013218
:101DBC00C41CD3E7B9F10F0F9FBF0AEB09000099C0
:101DCC0080F80015DAF8FC049FBF0130CAF8FC0457
:101DDC0001B0BDE8000F98BFF0BD484610210BF0D4
:101DEC00D7FAF0B503AF2DE9000F81B041F2AC3B4F
:101DFC008C189246894680460725C0F6010B0E4684
:101E0C000AE043EA8112861C284607215B46FEF74E
:101E1C0076FE0544A64223D0304616F9011BB1F1DB
:101E2C00FF3FCAB2F0DC437802F01F01E02A03F056
:101E3C003F03E6D38678F02A06F03F0646EA831382
:101E4C000AD3C27801F00701061D02F03F0242EAF4
:101E5C00831242EA8142D7E743EA0132C61CD3E738
:101E6C00D8F8D804A0EB0A01002909DD0020CA002B
:101E7C0000904FEACA00073007211023FFF743FEFA
:101E8C00C8F8D494C8F8D8A401B0BDE8000FF0BDD0
:101E9C00B0B502AF82B00446C8B2DFE810F00C0057
:101EAC00AD0062007B003000C600DF009400110121
:101EBC004900F8001700002040F22911009020463C
:101ECC0010221023FFF71FFE02B0B0BD40F63055B4
:101EDC002046C0F6010540F2291192224FF6FF73FD
:101EEC000095FEF70FFD009504F1080040F2291152
:101EFC0093224FF6FF73FEF705FD02B0B0BD40F61E
:101F0C0030552046C0F6010540F229119E224FF6AD
:101F1C00FF730095FEF7F6FC009504F1080040F203
:101F2C0029119F224FF6FF73FEF7ECFC02B0B0BDF7
:101F3C0040F630552046C0F6010540F22911962294
:101F4C004FF6FF730095FEF7DDFC009504F10800D9
:101F5C0040F2291197224FF6FF73FEF7D3FC02B023
:101F6C00B0BD40F630552046C0F6010540F22911AF
:101F7C00AA224FF6FF730095FEF7C4FC009504F1FE
:101F8C00080040F22911AB224FF6FF73FEF7BAFCA2
:101F9C0002B0B0BD40F630552046C0F6010540F207
:101FAC00291188224FF6FF730095FEF7ABFC0095C4
:101FBC0004F1080040F2291189224FF6FF73FEF755
:101FCC00A1FC02B0B0BD40F630552046C0F601056C
:101FDC0040F2291190224FF6FF730095FEF792FC08
:101FEC00009504F1080040F2291191224FF6FF737D
:101FFC00FEF788FC02B0B0BD40F630552046C0F666
:10200C00010540F229119C224FF6FF730095FEF753
:10201C0079FC04F1080040F229119D2200954FF63D
:10202C00FF73FEF76FFC02B0B0BD40F63055204692
:10203C00C0F6010540F2291198224FF6FF73009566
:10204C00FEF760FC009504F1080040F2291199227A
:10205C004FF6FF73FEF756FC02B0B0BD40F630559C
:10206C002046C0F6010540F22911A8224FF6FF7355
:10207C000095FEF747FC009504F1080040F2291189
:10208C00A9224FF6FF73FEF73DFC02B0B0BD40F63F
:10209C0030552046C0F6010540F22911B8224FF602
:1020AC00FF730095FEF72EFC009504F1080040F23A
:1020BC002911B9224FF6FF73FEF724FC02B0B0BD14
:1020CC0040F630552046C0F6010540F22911B022E9
:1020DC004FF6FF730095FEF715FC009504F1080010
:1020EC0040F22911B1224FF6FF73FEF70BFC02B040
:1020FC00B0BDF0B503AF4DF8048DD0F8D044002C32
:10210C0058D0D0F8CC540E468046097828788142B5
:10211C0002D0EF20FFF7BCFE012C4FD0717868780D
:10212C0081421CBF4FF48770FFF7B2FE022C49D0DE
:10213C00B178A87881421CBF40F22D10FFF7A8FEA1
:10214C00032C43D0F178E87881421CBF4FF4A67081
:10215C00FFF79EFE042C3DD03179287981421CBFBB
:10216C0040F26B10FFF794FE052C37D0717968792B
:10217C0081421CBF4FF4C570FFF78AFE062C31D08C
:10218C00B179A87981421CBF40F2A910FFF780FEFB
:10219C00072C2BD0F179E87981421CBF4FF4E47005
:1021AC00FFF776FE0820C8F8CC64C8F8D0045DF8B8
:1021BC00048BF0BD002021460BF0EAF801202146EB
:1021CC000BF0E6F8022021460BF0E2F80320214642
:1021DC000BF0DEF8042021460BF0DAF8052021463E
:1021EC000BF0D6F8062021460BF0D2F8072021463A
:1021FC000BF0CEF8F0B503AF2DE9000F89B00D460A
:10220C004CF670010446405C04EB0109DFE810F069
:10221C008D02DB0233000700070007000700204691
:10222C0000F0A8FC89F80050E8B2DFE810F00700D5
:10223C009E03D50069020F00DD03F203204609B0AE
:10224C00BDE8000FBDE8F04002F0C7BC41F2FC61F4
:10225C002046C0F601010B22FFF7C3FD41F2487185
:10226C002046C0F60101042209B0BDE8000FBDE80C
:10227C00F04000F0F0BC00262C202E212022102350
:10228C000096FFF740FC0A202921642202230096C5
:10229C00FFF739FC0A202B21022216230096FFF7A8
:1022AC0032FC6C202B21022216230096FFF72BFC0C
:1022BC000A204121642202230096FFF724FC3020DF
:1022CC005221182210230096FFF71DFC0A204D21E5
:1022DC00642202230096FFF716FC0A204F210222EB
:1022EC0016230096FFF70FFC6C204F2102221623B9
:1022FC000096FFF708FC0A20652164220223009651
:10230C00FFF701FC30207621182210230096FFF7EE
:10231C00FAFB0A207121642202230096FFF7F3FBDB
:10232C000A207321022216230096FFF7ECFB6C2087
:10233C007321022216230096FFF7E5FB0A20892160
:10234C00642202230096FFF7DEFB20209A2138221C
:10235C0010230096FFF7D7FB0A2095216422022355
:10236C000096FFF7D0FB0A20972102221623009635
:10237C00FFF7C9FB6C209721022216230096FFF76A
:10238C00C2FB0A20AD21642202230096FFF7BBFB9F
:10239C002C20BE21202210230096FFF7B4FB0A202C
:1023AC00B921642202230096FFF7ADFB0A20BB2162
:1023BC00022216230096FFF7A6FB6C20BB210222FB
:1023CC0016230096FFF79FFB0A20D12164220223DB
:1023DC000096FFF798FB25E741F654312046C0F6EE
:1023EC0001011722FFF7FDFC41F2F4312046C0F643
:1023FC000101FFF77EFE2426D4F8EC0443F2080416
:10240C000025C4F20006C4F201044FF0070B4FF094
:10241C00010902902AE040F21F4A0A20642202239A
:10242C004FEA8C08CDF800A0FFF76DFB08F12B05E7
:10243C000A20022216232946CDF800A0FFF763FBE1
:10244C00CDF800A029466C2002221623039DFFF72D
:10245C005AFB08F141010A2064220223CDF800A0A6
:10246C00FFF751FB0135052D00F0468141F62C306C
:10247C0005EBC50CC0F60100039500EBC5004168E7
:10248C00002900F02981039841F62C32C0F6010294
:10249C0052F83000421804922E22034602EB8C02B2
:1024AC0006924FF6FC72CDF814C0C7F6FF7202EA22
:1024BC008101C1F13C0210E040F618404FF480411C
:1024CC00C4F202000160089A079B04980832DDF8F8
:1024DC0014C08342184600F0FF8013F9011BB1F1C0
:1024EC00FF3FCDB21FDC417805F01F0EE02D01F04F
:1024FC003F0111D38378F02D03F03F0343EA8111A0
:10250C000ED3C37803F03F0343EA81130EF00701A7
:10251C0043EA8145031D06E041EA8E15831C02E067
:10252C0041EA0E35C31CCDE9073210460699082244
:10253C001023FEF7DEFB4FF60060B52DCFF6FF70D3
:10254C0000EB051008BF4FF4C060202D38BF4FF4CE
:10255C00BE60B0F5C06F00F2738240F6AB514FF025
:10256C00000EC0F6010101EB000CC0F5C06104E0E7
:10257C000EF1010EBEF1100F9ED0002502E00135C8
:10258C00082DF5D00EEBD500884280F057821CF850
:10259C0000A02BEA05023368D6F80080A8EB0300F4
:1025AC0059280BD83068C01A59289EBF3068C01AF9
:1025BC00592803D83068C01A5A28EDD309FA02F208
:1025CC002068800709D4206880075CBF20685FEA18
:1025DC00807002D420688007F2D51AEA020018BF76
:1025EC00FF2060602268D20709D12268D20704BF9D
:1025FC0022685FEAC27202D12268D207F2D0226846
:10260C00120609D52268120644BF22685FEA0262EC
:10261C0002D522681206F2D46268326833689B1ABB
:10262C00592B0BD833689B1A592B9EBF33689B1AB6
:10263C00592B03D833689B1A5A2BEFD33268336863
:10264C009B1A592B0BD833689B1A592B9EBF336896
:10265C009B1A592B03D833689B1A5A2BEFD3226839
:10266C00920709D4226892075CBF22685FEA8272E3
:10267C0002D422689207F2D560602068C00709D1A5
:10268C002068C00704BF20685FEAC07002D12068D0
:10269C00C007F2D02068000609D52068000644BFA8
:1026AC0020685FEA006002D520680006F2D46068FA
:1026BC0030683268121A592A3FF661AF3268121A22
:1026CC00592A9EBF3268121A592A3FF658AF3268FF
:1026DC00121A5A2AEDD352E7292000EB8C01DDE9BE
:1026EC00020585423FF497AE08461A21FFF7C8FA57
:1026FC000135052D7FF4BAAE09B0BDE8000FF0BD71
:10270C0041F2F0612046C0F601010C22FFF769FB93
:10271C0041F254612046C0F60101062209B0BDE821
:10272C00000FBDE8F04000F096BA002601202021F1
:10273C004FF4F07210230096FFF7E5F900201F21EB
:10274C0021224FF481730096FFF7DDF91A204FF424
:10275C009571302210230096FFF7D5F92046002101
:10276C0001F080F940F2C110002101221E230096D5
:10277C00FFF7C9F94FF4C5700721102210230096FA
:10278C00FFF7C1F94FF4D170002101221E230096EE
:10279C00FFF7B9F940F2A910072110221023009677
:1027AC00FFF7B1F940F28310002101221E2300969D
:1027BC00FFF7A9F94FF4E4700721102210230096BB
:1027CC00FFF7A1F92EE5D4F8FC84B8F1000F00F066
:1027DC00C88094F800050026282110230096C2001A
:1027EC000720FFF790F9B8F1010F00F0BA8094F8C8
:1027FC000105382110230096C2000720FFF783F94A
:10280C00B8F1020F00F0AD8094F8020548211023B6
:10281C000096C2000720FFF776F9B8F1030F00F01D
:10282C00A08094F80305582110230096C2000720BD
:10283C00FFF769F9B8F1040F00F0938094F80405E0
:10284C00682110230096C2000720FFF75CF9B8F14D
:10285C00050F00F0868094F805057821102300966A
:10286C00C2000720FFF74FF9B8F1060F79D094F8A2
:10287C000605882110230096C2000720FFF743F9B4
:10288C00B8F1070F6DD094F8070598211023009626
:10289C00C2000720FFF737F9B8F1080F61D094F8A0
:1028AC000805A82110230096C2000720FFF72BF97A
:1028BC00B8F1090F55D094F80905B82110230096EA
:1028CC00C2000720FFF71FF9B8F10A0F49D094F89E
:1028DC000A05C82110230096C2000720FFF713F940
:1028EC00B8F10B0F3DD094F80B05D82110230096AE
:1028FC00C2000720FFF707F9B8F10C0F31D094F89C
:10290C000C05E82110230096C2000720FFF7FBF806
:10291C00B8F10D0F25D094F80D05F8211023009671
:10292C00C2000720FFF7EFF8B8F10E0F19D094F89A
:10293C000E054FF4847110230096C2000720FFF798
:10294C00E2F8B8F10F0F0CD094F80F054FF48C711E
:10295C0010230096C2000720FFF7D5F8B8F1100F2E
:10296C0072D10020C4F8FC045CE441F20C41204616
:10297C00C0F60101FFF7BDFB41F26C612046C0F6C9
:10298C0001010522FFF72DFA41F271612046C0F6D4
:10299C0001011D22FFF7CAF941F28E612046C0F6F3
:1029AC0001013222FFF7C2F9D4F8FC0410283FBF12
:1029BC002044002180F80015D4F8FC043FBF0130FE
:1029CC00C4F8FC0441F2C061C0F601013FBF2046CF
:1029DC001D2209B0BDE8000F3CBFBDE8F040FFF779
:1029EC00A5B910210AF0D4FC41F294712046C0F62E
:1029FC0001010F22FFF7F5F941F2BC712046C0F638
:102A0C000101012209B0BDE8000FBDE8F04000F063
:102A1C0022B941F258712046C0F601010B22FFF792
:102A2C00E0F941F28C712046C0F60101022209B096
:102A3C00BDE8000FBDE8F04000F00DB90AF0A8FCAD
:102A4C004FF4C0610BF0CBFD102010210AF0A0FC5C
:102A5C00F0B503AF2DE9000B82B00B460246D0F85F
:102A6C00E014D0F8F004884279D2082879D2D2F850
:102A7C00DC14DBB251F820100E687168994273D9DE
:102A8C00024492F8F424914271D9316800EB800031
:102A9C00357A01EBC30301EBC206D6F804805B6800
:102AAC0051F832604FF03B0202EBC009A3EB080077
:102ABC004FEAC8014FEAC0022DB1C1F16C05002AE2
:102ACC000CDDA81A04E0002A41DD01F10C000C25F4
:102ADC000021102300914946FFF715F8B8F1000FBB
:102AEC0039D006EB080440F63058C0F601080AE06D
:102AFC0043EA8112861C284649464346FDF7FFFFF0
:102B0C000544A64227D0304616F9011BB1F1FF3F10
:102B1C00CAB2F0DC437802F01F01E02A03F03F0355
:102B2C00E6D38678F02A06F03F0646EA83130AD3EA
:102B3C00C27801F00701061D02F03F0242EA83123F
:102B4C0042EA8142D7E743EA0132C61CD3E70C259F
:102B5C00B8F1000FC5D102B0BDE8000BF0BD0AF012
:102B6C0017FC08210AF014FC18460AF011FC104658
:102B7C000AF00EFCF0B503AF2DE9000F81B0D0F8D0
:102B8C00E01400295FD0D0F8DC8400F2F4464FEA60
:102B9C0081094B244FF0000A58F8040BA4F12201D0
:102BAC001023D0F800B08068CDF800A0C2000A2035
:102BBC00FEF7A9FFA4F112010A2064220223CDF82A
:102BCC0000A0FEF7A0FFA4F110050A20022210239A
:102BDC002946CDF800A0FEF796FF6C20294602226C
:102BEC001023CDF800A0FEF78EFF0A2021466422A8
:102BFC000223CDF800A0FEF786FF40F28B10844232
:102C0C0025D0DBF804103078814222D9DBF8001093
:102C1C0010239BF8082001EBC000002A4FF06C0237
:102C2C0041684FF00C00CDF800A018BFA2EBC1001A
:102C3C00CA002946FEF767FFB9F1040904F128041C
:102C4C0006F10106A8D101B0BDE8000FF0BD0820C7
:102C5C0008210AF09DFBF0B503AF2DE9000F8BB0F6
:102C6C000D46C0F8DC1441F21C410646C0F8E024C5
:102C7C000020C6F8F004C0F6010130461446FFF7F8
:102C8C0038FA05EB8400242443F20808019006F27C
:102C9C00F4400390D6F8F004C4F20004C4F2010826
:102CAC004FF007094FF0010A0022029007E0079A43
:102CBC00049D019801320435854200F0B582082A42
:102CCC0000F0BA822B68002003990495079288546F
:102CDC0002EB82009968CDE90503002900F03181EF
:102CEC0006982922059B4FF00A0B406802EBC302A1
:102CFC0009920144089102460EE040F618404FF448
:102D0C008041C4F202000BF1080B01600A9A08988A
:102D1C008242104600F0158112F9011BB1F1FF3F00
:102D2C00CDB21FDC427805F01F01E02D02F03F020E
:102D3C0011D38378F02D03F03F0343EA82120ED3B4
:102D4C00C37801F0070103F03F0343EA821242EA21
:102D5C008145021D06E042EA8115821C02E042EA2E
:102D6C000135C21C099958460A9208221023FDF716
:102D7C00C0FF4FF60060B52DCFF6FF7000EB0510CD
:102D8C0008BF4FF4C060202D38BF4FF4BE60B0F5C3
:102D9C00226F00F24D8240F210310023C0F6010187
:102DAC0001EB000CC0F5226102E00133102BA4D022
:102DBC00002502E00135082DF7D003EBD500884241
:102DCC0080F030821CF8000029EA050226680AFA15
:102DDC0002F210402268921B592A0BD82268921BCF
:102DEC00592A9EBF2268921B592A03D82268921B2B
:102DFC005A2AEFD3D8F8002092070CD4D8F8002028
:102E0C0092075CBFD8F800205FEA827203D4D8F82E
:102E1C0000209207EED5002818BFFF20C8F8040048
:102E2C00D8F80020D2070CD1D8F80020D20704BF64
:102E3C00D8F800205FEAC27203D1D8F80020D2077C
:102E4C00EED0D8F8002012060CD5D8F800201206C7
:102E5C0044BFD8F800205FEA026203D5D8F80020FE
:102E6C001206EED4D8F8042026682268921B592A40
:102E7C000BD82268921B592A9EBF2268921B592A92
:102E8C0003D82268921B5A2AEFD326682268921B19
:102E9C00592A0BD82268921B592A9EBF2268921B72
:102EAC00592A03D82268921B5A2AEFD3D8F800204B
:102EBC0092070CD4D8F8002092075CBFD8F80020F9
:102ECC005FEA827203D4D8F800209207EED5C8F8D6
:102EDC000400D8F80000C0070CD1D8F80000C007D7
:102EEC0004BFD8F800005FEAC07003D1D8F8000026
:102EFC00C007EED0D8F8000000060CD5D8F80000BA
:102F0C00000644BFD8F800005FEA006003D5D8F88B
:102F1C0000000006EED4D8F8040020682268121ACB
:102F2C00592A3FF647AF2268121A592A9EBF2268C7
:102F3C00121A592A3FF63EAF2268121A5A2AEDD3BA
:102F4C0038E70598079AC600029806F139019042B5
:102F5C0024D140F21F4B0A2064220223CDF800B08A
:102F6C00FEF7D1FD06F13B050A200222102329466B
:102F7C00CDF800B0FEF7C7FD6C20294602221023C5
:102F8C00CDF800B0FEF7BFFD06F14B010A2064221C
:102F9C000223CDF800B0FEF7B6FD03E0084614217D
:102FAC00FEF76EFE069801684868002800F048811C
:102FBC0008684268002A3FF47AAE006806F13B03C9
:102FCC00097A4FF00C0B09938318002908934FF0E2
:102FDC006C0118BFA1EBC20B02460EE040F6184084
:102FEC004FF48041C4F202000BF1080B01600A9A05
:102FFC000898824210463FF45AAE12F9011BB1F107
:10300C00FF3FCDB21FDC427805F01F01E02D02F02E
:10301C003F0211D38378F02D03F03F0343EA821271
:10302C000ED3C37801F0070103F03F0343EA821289
:10303C0042EA8145021D06E042EA8115821C02E04B
:10304C0042EA0135C21C099958460A9208221023FB
:10305C00FDF74FFE4FF60060B52DCFF6FF7000EB7D
:10306C00051008BF4FF4C060202D38BF4FF4BE6070
:10307C00B0F5226F00F2DC8040F210310023C0F674
:10308C00010101EB000CC0F5226102E00133102BB1
:10309C00A4D0002502E00135082DF7D003EBD500B4
:1030AC00884280F0BF801CF8000029EA05022668DF
:1030BC000AFA02F210402268921B592A0BD8226895
:1030CC00921B592A9EBF2268921B592A03D8226848
:1030DC00921B5A2AEFD3D8F8002092070CD4D8F8B8
:1030EC00002092075CBFD8F800205FEA827203D4FC
:1030FC00D8F800209207EED5002818BFFF20C8F89A
:10310C000400D8F80020D2070CD1D8F80020D20740
:10311C0004BFD8F800205FEAC27203D1D8F80020AF
:10312C00D207EED0D8F8002012060CD5D8F8002023
:10313C00120644BFD8F800205FEA026203D5D8F823
:10314C0000201206EED4D8F8042026682268921BC0
:10315C00592A0BD82268921B592A9EBF2268921BAF
:10316C00592A03D82268921B5A2AEFD32668226860
:10317C00921B592A0BD82268921B592A9EBF22688F
:10318C00921B592A03D82268921B5A2AEFD3D8F8DB
:10319C00002092070CD4D8F8002092075CBFD8F816
:1031AC0000205FEA827203D4D8F800209207EED593
:1031BC00C8F80400D8F80000C0070CD1D8F80000FB
:1031CC00C00704BFD8F800005FEAC07003D1D8F87C
:1031DC000000C007EED0D8F8000000060CD5D8F8D7
:1031EC000000000644BFD8F800005FEA006003D579
:1031FC00D8F800000006EED4D8F804002068226845
:10320C00121A592A3FF647AF2268121A592A9EBF42
:10321C002268121A592A3FF63EAF2268121A5A2A0D
:10322C00EDD338E70AF0B4F80BB0BDE8000FF0BDF1
:10323C004FF422610BF0D3F9082008210AF0A8F80A
:10324C00002000210AF0A4F8F0B503AF2DE9000727
:10325C0082B04FF0FF3252FA81F1052943D8DFE8F2
:10326C0001F0035C469A42B7D0F8F0544FF0390A9B
:10327C00D0F8E044804605EB85010AEBC101084615
:10328C001421FEF7FDFC40F21F49002DCDF80090F3
:10329C0018BF2C46661E0A206422022306EB860504
:1032AC000AEBC501FEF72FFC3B2000EBC5040A20FE
:1032BC00022221461023CDF80090FEF724FC6C204E
:1032CC00214602221023CDF80090FEF71CFC4B2067
:1032DC0000EBC5010A2064220223CDF80090FEF712
:1032EC0012FCC8F8F06402B0BDE80007F0BDD0F8DD
:1032FC00F024072A74D8D0F8E0148A4274D2D0F89B
:10330C00DC6400F2F443995C56F8226000293668BC
:10331C00367918BF0E46013E52E0D0F8E0144FF05B
:10332C003908D0F8F0240139541A4FF0140118BFA1
:10333C00541CC0F8F04402EB820008EBC000FEF70E
:10334C009FFC04EB840640F21F450A20642208EB24
:10335C00C60102230095FEF7D6FB3B2000EBC6040A
:10336C000A200222214610230095FEF7CCFB6C208C
:10337C002146022210230095FEF7C5FB4B2000EBE3
:10338C00C6010A20642202230095FEF7BCFB02B0A2
:10339C00BDE80007F0BDD0F8F024072A20D8D0F8FB
:1033AC00E0148A4220D2D0F8DC6400F2F443995C39
:1033BC0056F8226036687668013E761A18BF4E1CA5
:1033CC009E5402B0BDE80007BDE8F040FFF740BBDB
:1033DC00002102B0BDE80007BDE8F040FEF70ABFCF
:1033EC001046082109F0D4FF104609F0D1FFF0B5C2
:1033FC0003AF2DE9000F85B0019041F2DD6C91E82F
:10340C007C004FF0000AC0F6010C4FF007084FF09B
:10341C0001097CC0242543F20806C4F20005C4F25D
:10342C000106002103E00299052900F04D8201EB11
:10343C0081004FF0C80B4042002301310BEB4000E0
:10344C000390029110E040F618404FF48041C4F212
:10345C00020041F2DD6C01600BF1080B049BC0F61D
:10346C00010C132B00F00D811CF90310581CB1F149
:10347C00FF3FCCB201DD049025E01CF800009A1C43
:10348C00E02C00F03F0104F01F0016D31CF80220C2
:10349C00F02C02F03F0242EA811103F103020FD338
:1034AC001CF8022000F007000433049302F03F02E2
:1034BC0042EA811141EA804405E041EA801401E0CE
:1034CC0041EA003404920399584608221023FDF770
:1034DC0010FC4FF60060B52CCFF6FF7000EB04101B
:1034EC0008BF4FF4C060202C38BF4FF4BE60B0F55D
:1034FC00C06F00F2E58140F6AB514FF0000EC0F604
:10350C00010101EB000CC0F5C06104E00EF1010EED
:10351C00BEF1100F97D0002402E00134082CF5D036
:10352C000EEBD400884280F0C9811CF8000028EA18
:10353C0004032A6809FA03F318402B689B1A592BC9
:10354C000BD82B689B1A592B9EBF2B689B1A592B97
:10355C0003D82B689B1A5A2BEFD33268920709D4E5
:10356C00326892075CBF32685FEA827202D43268BA
:10357C009207F2D50246002818BF4FF4E0624FEADA
:10358C001222726018BF4FF4FC603268D20709D166
:10359C003268D20704BF32685FEAC27202D1326865
:1035AC00D207F2D03268120609D53268120644BF2F
:1035BC0032685FEA026202D532681206F2D472688F
:1035CC002A682B689B1A592B0BD82B689B1A592BE2
:1035DC009EBF2B689B1A592B03D82B689B1A5A2B0E
:1035EC00EFD32A682B689B1A592B0BD82B689B1A84
:1035FC00592B9EBF2B689B1A592B03D82B689B1AEF
:10360C005A2BEFD33268920709D4326892075CBF09
:10361C0032685FEA827202D432689207F2D500F007
:10362C00E00070603068C00709D13068C00704BF83
:10363C0030685FEAC07002D13068C007F2D03068E1
:10364C00000609D53068000644BF30685FEA0060A8
:10365C0002D530680006F2D4706828682A68121AFD
:10366C00592A3FF65AAF2A68121A592A9EBF2A685D
:10367C00121A592A3FF651AF2A68121A5A2AEDD358
:10368C004BE728684AF62022C0F244022968091A3E
:10369C0091420BD22968091A91423EBF2968091A36
:1036AC00914203D22968091A9142EFD300234FF0BB
:1036BC00C80B0CE040F618404FF48041C4F20200F5
:1036CC000BF1080B0160049B132B3FF4ACAE1CF9FF
:1036DC000310581CB1F1FF3FCCB201DD049025E082
:1036EC001CF800009A1CE02C00F03F0104F01F00B5
:1036FC0016D31CF80220F02C02F03F0242EA811192
:10370C0003F103020FD31CF8022000F0070004336E
:10371C00049302F03F0242EA811141EA804405E041
:10372C0041EA801401E041EA0034049203995846BE
:10373C0008221023FDF7DDFA4FF60060B52CCFF60A
:10374C00FF7000EB041008BF4FF4C060202C38BF92
:10375C004FF4BE60B0F5C06F00F2B28041F2DD6C88
:10376C00C0F5C0610022C0F6010C02E00132102A43
:10377C00A0D0002302E00133082BF7D002EBD300DA
:10378C00884280F09B8028682C68241A592C0BD80E
:10379C002C68241A592C9EBF2C68241A592C03D837
:1037AC002C68241A5A2CEFD33068800709D430685F
:1037BC0080075CBF30685FEA807002D43068800795
:1037CC00F2D5C6F804A03068C00709D13068C0072C
:1037DC0004BF30685FEAC07002D13068C007F2D015
:1037EC003068000609D53068000644BF30685FEACF
:1037FC00006002D530680006F2D4706828682C6826
:10380C00241A592C0BD82C68241A592C9EBF2C68BE
:10381C00241A592C03D82C68241A5A2CEFD3286854
:10382C002C68241A592C0BD82C68241A592C9EBF9E
:10383C002C68241A592C03D82C68241A5A2CEFD330
:10384C003068800709D4306880075CBF30685FEA55
:10385C00807002D430688007F2D5C6F804A03068B6
:10386C00C00709D13068C00704BF30685FEAC07078
:10387C0002D13068C007F2D03068000609D5306834
:10388C00000644BF30685FEA006002D5306800066D
:10389C00F2D4706828682C68241A592C3FF66BAF48
:1038AC002C68241A592C9EBF2C68241A592C3FF6CC
:1038BC0062AF2C68241A5A2CEDD35CE709F068FD32
:1038CC004FF4C0610AF08BFE0198002105B0BDE8F1
:1038DC00000FBDE8F040FEF78DBCF0B503AF4DF81E
:1038EC00048DA6B000211428CDE90311CDE90111F6
:1038FC0007914FF01001069101A9059100F2A080EB
:10390C0041F2C071C0F6010101EBC000017931B187
:10391C0001290BD141F67E01C0F6010103E041F60D
:10392C007C01C0F601011391022105E041F68001F2
:10393C00C0F601011391032140F255421491C0F6D7
:10394C0000020021129213AA11924DF2A532C0F678
:10395C0000022023CDE90F0203208DF890000122F4
:10396C00CDE9171015A80C9041F66C00C0F60100BB
:10397C00239108900FA80A9005A8229202268DF890
:10398C00702008AA1B91CDE9193140F2C821C0F66C
:10399C00010121931F961D9615960D9609960B966F
:1039AC000AF019FA00284ED1DDE906128A4244D8F1
:1039BC00059915A80AF0D5FA159801284BD0179837
:1039CC00B8B3169D40F630581A24C0F601082E18CC
:1039DC000BE043EA8112851C20464FF49571434657
:1039EC00FDF78DF80444B54223D0284615F9011B88
:1039FC00B1F1FF3FCAB2EFDC437802F01F01E02ABD
:103A0C0003F03F03E5D38578F02A05F03F0545EA3E
:103A1C0083130AD3C27801F00701051D02F03F029F
:103A2C0042EA831242EA8142D6E743EA0132C51CDC
:103A3C00D2E726B05DF8048BF0BD10460AF0CFFD3E
:103A4C00152109F0A5FC40F2F021A7F11100C0F6F8
:103A5C0001010AF08AFD41F66C3108A8C0F601019B
:103A6C000AF083FDF0B503AF2DE9000F81B02DED09
:103A7C00068BADF51E7D40F2240A43F2080B8046FE
:103A8C000D464CF6600008EB00012804C4F2000A55
:103A9C00C4F2010B00F06085CDE905510024012032
:103AAC0020214FF4F07210230094FEF72CF8D8F874
:103ABC00C8141BA88DF874400029CDE91B44CDE92E
:103ACC008000CDE97E00CDE97C00CDE97A00CDE91E
:103ADC007800CDE97600CDE97400CDE97200CDE92E
:103AEC007000CDE96E00CDE96C00CDE96A00CDE93E
:103AFC006800CDE96600CDE96400CDE96200CDE94E
:103B0C006000CDE95E00CDE95C00CDE95A00CDE95D
:103B1C005800CDE95600CDE95400CDE95200CDE96D
:103B2C005000CDE94E00CDE94C00CDE94A00CDE97D
:103B3C004800CDE94600CDE94400CDE94200CDE98D
:103B4C004000CDE93E00CDE93C00CDE93A00CDE99D
:103B5C003800CDE93600CDE93400CDE93200CDE9AD
:103B6C003000CDE92E00CDE92C00CDE92A00CDE9BD
:103B7C002800CDE92600CDE92400CDE92200CDE9CD
:103B8C002000CDE91E00CDF81C8000F0DD820798E6
:103B9C000DF1780C0025002300F118020698D0E9ED
:103BAC00010409E0632D01F206804CF82520013553
:103BBC0001330C32994209D0642B00F0F887166857
:103BCC008642EFD25668A642ECD9F1E7002D089553
:103BDC0000F0BA820CF03EFA054620460E460CF078
:103BEC0039FA2A463346169515960CF094F89FED43
:103BFC00DD8B4FF00708CDE913104FF0010951ECA4
:103C0C00180B9FEDDA9B9FEDDBABCDE9111051EC5E
:103C1C00190BCDE91710002005E0DDE90801814200
:103C2C00084600F09182642800F0C187411C09917C
:103C3C001EA982AE51F8200040211A90D0E9004014
:103C4C00199030460CF068FA20460CF003FADDE9C6
:103C5C0015320CF060F8DDE911320CF06CF8DDE98E
:103C6C0013320BF0EFFA189D179B2A460BF0CEFC83
:103C7C00B0EE491AF0EE691A41EC100B0BF0BFFADA
:103C8C00B0EE481AF0EE681A0BF096FA51EC104BA5
:103C9C002A46179D002094904020CDE992602B4637
:103CAC0010940D9120460E460BF088FE0F90204686
:103CBC0031460CF00AF8044619980CF0CBF9DDE902
:103CCC0015320CF028F8DDE911320CF034F8DDE98E
:103CDC0013320BF0B7FA189A2B460BF097FCB0EE98
:103CEC00491AF0EE691A41EC100B0BF088FAB0EEA1
:103CFC00481AF0EE681A0BF05FFA53EC1A2B1A986C
:103D0C0056EC105B007A0E900F980028CDE90B232F
:103D1C0008BF044610980D990CF0C8F9002818BF7C
:103D2C004FF0FF34DDE917322846314619943446FA
:103D3C000A960BF043FE0646284621460BF0C5FFBB
:103D4C000AAB0446002E08BF34460ECB28460CF0B6
:103D5C00ADF9002818BF4FF0FF34199804F1210673
:103D6C00251A00F121040E99DFE801F00337152B19
:103D7C000B4444F22050C7F26D00829047F6741049
:103D8C0026E045F22030C6F67470829070208DF8D3
:103D9C000C0205201FE01A98CDF85C92CDF86492C5
:103DAC00407A07F8590C00209A9041F69000C0F622
:103DBC00010096909CA898904EF21560C0F60000F9
:103DCC002DE045F22030C6F27410829047F272401A
:103DDC00ADF80C020620949030E01A98CDF85C9265
:103DEC00407A07F8590C00209A9041F68800C0F6EA
:103DFC0001000BE01A98CDF85C92407A07F8590C48
:103E0C0000209A9041F6A000C0F6010096909CA864
:103E1C0098904EF23B60C0F60000CDF864929D90F5
:103E2C00A7F1590040F2C8219C9092A896AAC0F61E
:103E3C00010109F0D0FF002840F0C886DDE993129B
:103E4C008A4200F2A886929996A80AF08AF8969867
:103E5C00012800F0B486989820211A904FF4FC6049
:103E6C000090204632461023FDF74DFE1A98B5EB14
:103E7C00C00FFFF4D2AEDDE993128A4200F28B86BA
:103E8C00929996A80AF06DF89698012800F09786FA
:103E9C00989900293FF4C1AE199800F1220C97981B
:103EAC000144199102460EE040F618404FF480414F
:103EBC00C4F202000CF1080C0160DDE91902824227
:103ECC0010463FF4AAAE12F9011BB1F1FF3FCEB27E
:103EDC001FDC427806F01F01E02E02F03F0211D3E6
:103EEC008378F02E03F03F0343EA82120ED3C3789B
:103EFC0001F0070103F03F0343EA821242EA8146D4
:103F0C00021D06E042EA8116821C02E042EA0136FA
:103F1C00C21C1A9260462021082210236446FCF72A
:103F2C00E8FE4FF60060B52ECFF6FF7000EB0610E2
:103F3C0008BF4FF4C060202E38BF4FF4BE60B0F500
:103F4C00C06F00F2208640F6AB510023C0F6010191
:103F5C000A18C0F5C061A44602E00133102BA3D0AF
:103F6C0000260EE00000000000E07B400000000096
:103F7C00000000000000E0FFFFFFEF410136082EBB
:103F8C00EBD003EBD600884280F0FB85105C28EA6E
:103F9C000605DAF8004009FA05F52840DAF8005071
:103FAC002D1B592D0ED8DAF800502D1B592D9EBF04
:103FBC00DAF800502D1B592D04D8DAF800502D1BBF
:103FCC005A2DEBD3DBF80050AD070CD4DBF80050C6
:103FDC00AD075CBFDBF800505FEA857503D4DBF8F6
:103FEC000050AD07EED500284FF0000008BF4FF48D
:103FFC00E0604FEA1020CBF804004FF0000008BF3F
:10400C004FF4FC60DBF80050ED070CD1DBF80050EE
:10401C00ED0704BFDBF800505FEAC57503D1DBF890
:10402C000050ED07EED0DBF800502D060CD5DBF878
:10403C0000502D0644BFDBF800505FEA056503D540
:10404C00DBF800502D06EED4DBF80450DAF8004013
:10405C00DAF800502D1B592D0ED8DAF800502D1B14
:10406C00592D9EBFDAF800502D1B592D04D8DAF8C3
:10407C0000502D1B5A2DEBD3DAF80040DAF8005023
:10408C002D1B592D0ED8DAF800502D1B592D9EBF23
:10409C00DAF800502D1B592D04D8DAF800502D1BDE
:1040AC005A2DEBD3DBF80050AD070CD4DBF80050E5
:1040BC00AD075CBFDBF800505FEA857503D4DBF815
:1040CC000050AD07EED500F0E000CBF80400DBF8B3
:1040DC000000C0070CD1DBF80000C00704BFDBF800
:1040EC0000005FEAC07003D1DBF80000C007EED01F
:1040FC00DBF8000000060CD5DBF80000000644BF1E
:10410C00DBF800005FEA006003D5DBF80000000676
:10411C00EED4DBF80400DAF80000DAF800502D1ABF
:10412C00592D3FF62BAFDAF800502D1A592D9EBFA2
:10413C00DAF800502D1A592D3FF620AFDAF800505E
:10414C002D1A5A2DE9D319E740F630541020C0F639
:10415C000104322130222346FCF7D1FC4FF6FF75C7
:10416C0000203221212201230095FDF7CCFC1020E8
:10417C00502131222346FCF7C2FC00205021212281
:10418C0001230095FDF7BFFC10206E21322223463F
:10419C00FCF7B5FC00206E21212201230095FDF7D0
:1041AC00B2FC10208C2133222346FCF7A8FC002003
:1041BC008C21212201230095FDF7A5FC1020AA21BA
:1041CC0034222346FCF79BFC0020AA212122012348
:1041DC000095FDF798FC1020C82135222346FCF7EA
:1041EC008EFC0020C821212201230095FDF78BFCB9
:1041FC001020E62136222346FCF781FC0020E62124
:10420C00212201230095FDF77EFC10204FF48271D2
:10421C0037222346FCF773FC00204FF482712122D5
:10422C0001230095FDF76FFCDDF81C8041F6A80119
:10423C00C0F60101D8F80000DFE810F0840113008B
:10424C0005000F000A0041F6BC01C0F6010108E0B0
:10425C0041F6E401C0F6010103E041F6D001C0F6DD
:10426C00010108F104040D691EA800222146A8478B
:10427C001E98002800F0628141F6F80800214FF0EA
:10428C000109C0F601081691CDE9145407E0169AFD
:10429C001EA82146A8471E98002800F04F8120999F
:1042AC004A1CF4D01F9A002A00F03C810244C1EB56
:1042BC00011117923E2202EB410100260246189191
:1042CC000EE040F618404FF48041C4F20200016049
:1042DC001A9E199A179806368242104600F02281CF
:1042EC0012F9011BB1F1FF3FCDB21FDC427805F092
:1042FC001F01E02D02F03F0211D38378F02D03F063
:10430C003F0343EA82120ED3C37801F0070103F096
:10431C003F0343EA821242EA8145021D06E042EA6B
:10432C008115821C02E042EA0135C21C1899304604
:10433C00CDE9192605220723FCF7DBFC05EB8500EC
:10434C00B52DA0F1A00140F2E51008BF4FF4F071BB
:10435C00202D38BF40F2DB11421A4FF0000C38BF51
:10436C00624602E0BCF1070FABD00CF007000CF179
:10437C00010C002509FA00F601E0052DF2D06818B1
:10438C00954200F00484DAF80040013518F800007A
:10439C00DAF800301B1B592B0ED8DAF800301B1B37
:1043AC00592B9EBFDAF800301B1B592B04D8DAF8B6
:1043BC0000301B1B5A2BEBD3DBF800309B070CD4C3
:1043CC00DBF800309B075CBFDBF800305FEA8373DF
:1043DC0003D4DBF800309B07EED5304018BFFF202C
:1043EC00CBF80400DBF80030DB070CD1DBF8003035
:1043FC00DB0704BFDBF800305FEAC37303D1DBF8E3
:10440C000030DB07EED0DBF800301B060CD5DBF8F8
:10441C0000301B0644BFDBF800305FEA036303D5B2
:10442C00DBF800301B06EED4DBF80430DAF8004081
:10443C00DAF800301B1B592B0ED8DAF800301B1B96
:10444C00592B9EBFDAF800301B1B592B04D8DAF815
:10445C0000301B1B5A2BEBD3DAF80040DAF8003093
:10446C001B1B592B0ED8DAF800301B1B592B9EBF87
:10447C00DAF800301B1B592B04D8DAF800301B1B60
:10448C005A2BEBD3DBF800309B070CD4DBF8003055
:10449C009B075CBFDBF800305FEA837303D4DBF867
:1044AC0000309B07EED5CBF80400DBF80000C0070A
:1044BC000CD1DBF80000C00704BFDBF800005FEA9A
:1044CC00C07003D1DBF80000C007EED0DBF80000B1
:1044DC0000060CD5DBF80000000644BFDBF800003A
:1044EC005FEA006003D5DBF800000006EED4DBF8D1
:1044FC000400DAF80000DAF800301B1A592B3FF6EA
:10450C003CAFDAF800301B1A592B9EBFDAF800309A
:10451C001B1A592B3FF631AFDAF800301B1A5A2B05
:10452C00E9D32AE7159C1EA8169A149D0132214640
:10453C001692A8471E9800287FF4B1AEDDF81C80B7
:10454C004FF6FF7520201F2101224FF48173009537
:10455C00FDF7D9FADDE90551D1E9006089680991C7
:10456C0001900BF077FD002ECDE9151000F00183C2
:10457C004AF250104044069008F5A2600790E8B249
:10458C001A90A8B2000A1990701E029009980BF0AC
:10459C0061FDDDE915320BF0BEFB9FED988B9FEDB5
:1045AC00999B9FED9AABCDE913100020039005E089
:1045BC00039801300390082800F0DB82029A002A4D
:1045CC0030D4019E0021079D4FF00009501842F293
:1045DC000F7300EBD0704010984200F2DF8255F858
:1045EC002030B34296BF411C421E81469142EDDD04
:1045FC000298002102468046501842F20F7300EBDD
:10460C00D0704010984200F2C98255F82030099EB3
:10461C00B34232BF411C421E80469142ECDDC14583
:10462C00C6D802E04FF000099046039A3221C2EB43
:10463C00021001EB400008900698079910F8090049
:10464C0051F82930D1B2012202FA01F1084004914B
:10465C00494618BF01201790CDF81480C14538BFCA
:10466C00013142F21070814580F09C821846119104
:10467C000BF0F0FCDDE915320BF04DFB53EC182B75
:10468C00CDE90E230BF057FBDDE913320AF0DAFD0E
:10469C0055EC198B42462B460AF0B8FFB0EE491A7E
:1046AC00F0EE691A41EC100B0AF0A9FDB0EE481AB5
:1046BC00F0EE681A0AF080FD56EC102B06982B468B
:1046CC000A9510F8090010900C920D96104614469D
:1046DC00314642460BF072F90B90204631460BF0F6
:1046EC00F4FA06460798CDF8489050F8290018902F
:1046FC000BF0B0FCDDE915320BF00DFBDDE90E2300
:10470C000BF019FBDDE913320AF09CFD42462B46F7
:10471C000AF07CFFB0EE491AF0EE691A41EC100B6E
:10472C000AF06DFDB0EE481AF0EE681A0AF044FD7E
:10473C0053EC1A2B0B9854EC105B0028CDE90E238C
:10474C0008BF0646DDE90C010BF0B0FC002818BFD1
:10475C004FF0FF360A9B284621464246B1460BF0E5
:10476C002DF90646284621460BF0AFFA8046002E5E
:10477C0008BFB046DDE90E23284621460BF096FC17
:10478C00002818BF4FF0FF38179CA8EB0905CDF88F
:10479C003C8005F1010808990123E007424609F124
:1047AC00210008BF1431FCF7A4FA049810990840B2
:1047BC00064618BF0126A8452FD240F618414FF4E3
:1047CC008042C4F2020100280A6018BF0120099936
:1047DC00189BDDF814809942C0F0C0816040C0077E
:1047EC0000F0BC810F980122089914232130142564
:1047FC00FCF77FFADFE000BF00BF00BF0000000045
:10480C0000E07B4000000000000000000000E0FF22
:10481C00FFFFEF41B8F10108CFD0DAF80010DAF859
:10482C000020521A592A0ED8DAF80020521A592AA6
:10483C009EBFDAF80020521A592A04D8DAF8002060
:10484C00521A5A2AEBD3DBF8001089070CD4DBF888
:10485C00001089075CBFDBF800105FEA817103D49C
:10486C00DBF800108907EED51999CBF80410DBF8AA
:10487C000010C9070CD1DBF80010C90704BFDBF826
:10488C0000105FEAC17103D1DBF80010C907EED04C
:10489C00DBF8001009060CD5DBF80010090644BF44
:1048AC00DBF800105FEA016103D5DBF800100906A4
:1048BC00EED4DBF80410DAF80010DAF80020521A03
:1048CC00592A0ED8DAF80020521A592A9EBFDAF863
:1048DC000020521A592A04D8DAF80020521A5A2AFF
:1048EC00EBD3DAF80010DAF80020521A592A0ED855
:1048FC00DAF80020521A592A9EBFDAF80020521A10
:10490C00592A04D8DAF80020521A5A2AEBD3DBF8C9
:10491C00001089070CD4DBF8001089075CBFDBF8AA
:10492C0000105FEA817103D4DBF800108907EED523
:10493C001A99CBF80410DBF80010C9070CD1DBF87E
:10494C000010C90704BFDBF800105FEAC17103D186
:10495C00DBF80010C907EED0DBF8001009060CD507
:10496C00DBF80010090644BFDBF800105FEA0161B8
:10497C0003D5DBF800100906EED4DBF80410DAF8E6
:10498C000010DAF80020521A592A3FF643AFDAF831
:10499C000020521A592A9EBFDAF80020521A592ABE
:1049AC003FF638AFDAF80020521A5A2AE9D331E729
:1049BC00013D00F0CB80DAF80000DAF80010091A9B
:1049CC0059290ED8DAF80010091A59299EBFDAF8BD
:1049DC000010091A592904D8DAF80010091A5A29B2
:1049EC00EBD3DBF8000080070CD4DBF80000800769
:1049FC005CBFDBF800005FEA807003D4DBF80000DA
:104A0C008007EED51998CBF80400DBF80000C0073E
:104A1C000CD1DBF80000C00704BFDBF800005FEA34
:104A2C00C07003D1DBF80000C007EED0DBF800004B
:104A3C0000060CD5DBF80000000644BFDBF80000D4
:104A4C005FEA006003D5DBF800000006EED4DBF86B
:104A5C000400DAF80000DAF80010091A59290ED807
:104A6C00DAF80010091A59299EBFDAF80010091A51
:104A7C00592904D8DAF80010091A5A29EBD3DAF8B4
:104A8C000000DAF80010091A59290ED8DAF80010CB
:104A9C00091A59299EBFDAF80010091A592904D8A5
:104AAC00DAF80010091A5A29EBD3DBF8000080075A
:104ABC000CD4DBF8000080075CBFDBF800005FEA79
:104ACC00807003D4DBF800008007EED51A98CBF881
:104ADC000400DBF80000C0070CD1DBF80000C007B5
:104AEC0004BFDBF800005FEAC07003D1DBF8000004
:104AFC00C007EED0DBF8000000060CD5DBF8000098
:104B0C00000644BFDBF800005FEA006003D5DBF869
:104B1C0000000006EED4DBF80400DAF80000DAF846
:104B2C000010091A59293FF643AFDAF80010091A98
:104B3C0059299EBFDAF80010091A59293FF638AFE7
:104B4C00DAF80010091A5A29E9D331E740F618406F
:104B5C004FF48041C4F202000160189B1298119925
:104B6C004045BFF425AD4145894617967FF676AD95
:104B7C001EE50DF51E7DBDEC068B01B0BDE8000FEA
:104B8C00F0BD08F005FC4FF4C06109F028FD40F2BF
:104B9C00E51108F0FDFB104609F021FD42F2107101
:104BAC0008F0F6FB484642F2107108F0F1FB642065
:104BBC00642108F0EDFB2846642108F0E9FB41F67E
:104BCC006C319CA8C0F6010109F0CFFC40F2F02139
:104BDC0096A8C0F6010109F0C8FCF0B503AF2DE9A9
:104BEC00000782B041F6EC210E22C0F6010104460A
:104BFC00FDF7F7F841F204412046C0F60101FDF73C
:104C0C0078FA00204FF6FF7AC4F8EC0440F2C11099
:104C1C00002101221E23D4F8E484CDF800A0FCF777
:104C2C0072FF40F630594FF0FF36C0F60109B8F16B
:104C3C00000FCDF8009008BF40F21F464FF4C5702E
:104C4C000721BE2233464FF0FF35FBF75BFE4FF4D6
:104C5C00C9700721BF223346CDF80090FBF752FEF6
:104C6C004FF4D170002101221E23CDF800A0FCF7D7
:104C7C004AFF4FF0FF36CDF80090B8F1010F08BF96
:104C8C0040F21F4640F2A91007218C223346FBF755
:104C9C0039FE40F2B11007218D223346CDF8009039
:104CAC00FBF730FE40F28310002101221E23CDF8C9
:104CBC0000A0FCF728FFCDF80090B8F1020F08BF58
:104CCC0040F21F454FF4E4700721A0222B46FBF75E
:104CDC0019FE4FF4E8700721A1222B46CDF8009065
:104CEC00FBF710FE20464FF6FF71FEF7BBFE4CF6AD
:104CFC006C00205802B0BDE80007BDE8F040FEF79C
:104D0C00ECBDF0B503AF4DF8048DD0E90145AC42D4
:104D1C0016D31646621BB24228BF32468046002A82
:104D2C001EBFD8F8000028440AF082FEA81984425D
:104D3C0038BF2046C8F8080000205DF8048BF0BD91
:104D4C002846214609F04BFC032A2BD8DFE802F059
:104D5C0002200C1640F2AA2304220968C0F60103B3
:104D6C00036042608160704741F67C33032289689E
:104D7C00C0F601030360426081607047C96841F668
:104D8C007F330222C0F601030360426081607047EA
:104D9C0040F27E2304224968C0F60103036042609E
:104DAC00816070470021016070470020704772B12C
:104DBC00012A1EBF002101607047496841F6843307
:104DCC000322C0F60103036042608160704741F624
:104DDC00813303220968C0F60103036042608160DD
:104DEC007047002A1EBF002101607047096802222B
:104DFC00C0E9012141F68731C0F60101016070471D
:104E0C0072B1012A1EBF002101607047496841F64A
:104E1C008B330222C0F6010303604260816070474D
:104E2C0041F6893302220968C0F60103036042602F
:104E3C008160704780B56F4600F000F8B0B502AFE6
:104E4C00ADF5CA3DFAB00AF0B4F904460AF0A4F97B
:104E5C0040F2000104F00100C2F200010A78002ABD
:104E6C0048F035820DF1A40E012200280EF5484AB7
:104E7C000A7008BF0AF092F949F2FF4441F200258A
:104E8C0000200DF1A40EC0F6BA24611CCDE900106F
:104E9C00C0F27A050EF5484029460122012309F09B
:104EAC00FBFBDAF80000022808F05B82C00708F070
:104EBC006582DAF8040045F60172C0F64C12A0F1D6
:104ECC00B771A1F55851914288F0158201194EF233
:104EDC002F32C0F2BE02090AA1FB0213D90A012922
:104EEC000CD0022907D0002908F0EA814FF4007198
:104EFC004FF0F00804E04FF0800801E04FF000089C
:104F0C004AF24056B0FBF1F1C0F2AE268B19013BD0
:104F1C009B09A3FB0235EB0A012B0BD0022B06D00D
:104F2C00002B08F0CD8104234FF4A05904E04FF47A
:104F3C00805901E04FF00009B1FBF3F4731C9C4263
:104F4C0088F0E08144F67F23C0F25D53CD18ED0963
:104F5C00A5FB0225EA0A012A0BD0022A06D0002A58
:104F6C0008F0AE8104224FF4204B04E04FF4004BC8
:104F7C0001E04FF0000BB1FBF2F59A1C954288F062
:104F8C00C881CDE90A450CAC4CF6600201384CF6F0
:104F9C00640304EB020C0AEB0302099245F2C742CC
:104FAC00C009C0F21E124AF25015A0FB02022544A1
:104FBC0043F60004C4F20204D4F80004920A000977
:104FCC0060F31F1242F4E060C4F80004206840F45F
:104FDC00803020602068800309D4206880035CBF87
:104FEC0020685FEA803002D420688003F2D5206804
:104FFC0040F08070206047F60120CDF820C0C0F64C
:10500C00032081422FD3206C40F0805020640AF0A2
:10501C00CDF847F20400C4F2000050F8041C41F42F
:10502C00803140F8041C0168C90309D40168C90324
:10503C005CBF01685FEAC13102D40168C903F2D5D3
:10504C0050F8041C41F4003140F8041C0168890339
:10505C0009D4016889035CBF01685FEA813102D41D
:10506C0001688903F2D503952068800109D4206872
:10507C0080015CBF20685FEA801002D42068800148
:10508C00F2D5A0684FF6F04220F40000A060D4F8EE
:10509C008C0020F47000C4F88C00A16849EA080068
:1050AC0040EA0B0091430843A06010200AF078F806
:1050BC00A0680221012561F30100A060206B40F083
:1050CC0039002063606C40F48050606440F20C60E6
:1050DC00C4F2472005600AF069F840F2002A40F259
:1050EC00000945F25550C4F2472ACAF80C50002565
:1050FC00C4F20209C5F2000040F61842CAF80C507E
:10510C00C9F8000C45F25550C4F20202C0F240003E
:10511C00C2F8E80341F20800C4F202004FF0A061AB
:10512C00C0F8F81348F2FF0141F21843116040F641
:10513C00FF01C4F20203016145F255514FF6FF7BAA
:10514C0042F80C1C416040F2240843F80C1CC4F2D9
:10515C000008C3F8F4134FF0FF3142F810BCC0F84C
:10516C0000B0C0F800B4C3F8F0B3206C40F00100FC
:10517C0020644FF080400124056048F8205CC8F89A
:10518C000450C8F8081048F8185C016841F0010197
:10519C000160CAF800440AF009F8CAF80040052179
:1051AC00CAF800500222C9F808B0D9F8040020F05F
:1051BC002000C9F80400D9F8200061F31750C9F891
:1051CC002000D9F8000062F38B20C9F80000D9F850
:1051DC00040020F04000C9F80400D9F8200061F365
:1051EC001B60C9F82000D9F8000062F30D30C9F833
:1051FC000000D9F8040020F08000C9F80400D9F8A8
:10520C00200061F31F70C9F82000D9F8000062F388
:10521C008F30C9F8000040F20C69C4F24729C9F874
:10522C00A44209F0C3FF43F2080BCAF8B042C4F21F
:10523C00010BCAF8B0522BF8045C48F27F400B9B70
:10524C00C0F21E00834248F23B8048F6805040F684
:10525C001842C0F25B0083424FF000044FF0000094
:10526C00C4F2020217D341F60030C0F2B7008342F9
:10527C0001D208200FE043F20060C0F26E108342AE
:10528C0001D2102007E046F600412020C0F2DC21BC
:10529C008B4238BF182040F441702BF8080C3BF8B7
:1052AC00080C43F2BF7101250840072140302BF850
:1052BC00080C52F8140C20F4807042F8140CD068CE
:1052CC0061F30300D06000220221C4F20202D2F882
:1052DC00000C61F31140C2F8000CC9F83C5209F003
:1052EC0065FF40F20020C4F24720C0F84852C0F8D5
:1052FC0048420A99480BE02816D8B1F5612FC8F03E
:10530C003F804FF4614000EB41004BF2C531C9F2D4
:10531C00A211A0FB0101702000EA1140C1F342412F
:10532C0001444AF20C000AE001F561404BF2C53130
:10533C00C9F2A211A0FB010142F20C00090C44F6C7
:10534C000002C4F200029160002111615161D06031
:10535C00116110680006FCD54920506010680006E9
:10536C00FCD55420506010680006FCD553205060CA
:10537C0010680006FCD52D20506010680006FCD586
:10538C004220506010680006FCD56F2050601068F9
:10539C000006FCD56120506010680006FCD5722018
:1053AC00506010680006FCD5642050601068000640
:1053BC00FCD52020506010680006FCD56920506098
:1053CC0010680006FCD56E20506010680006FCD5F5
:1053DC006920506010680006FCD57420506010687D
:1053EC000006FCD56920506010680006FCD56120D1
:1053FC00506010680006FCD56C20506010680006E8
:10540C00FCD56920506010680006FCD57A205060ED
:10541C0010680006FCD56520506010680006FCD5AD
:10542C006420506010680006FCD50A20506010689B
:10543C00000609D4106800065CBF10685FEA0060C3
:10544C0002D410680006F2D541F218410A205060CF
:10545C004FF48050C4F202010860D8F80000D8F86C
:10546C000010091AB1420ED2D8F80010091AB14234
:10547C003EBFD8F80010091AB14204D2D8F8001077
:10548C00091AB142EBD341F218414FF08050C4F2EB
:10549C0002010860D8F80000D8F80010091AB142CF
:1054AC000ED2D8F80010091AB1423EBFD8F800103D
:1054BC00091AB14204D2D8F80010091AB142EBD340
:1054CC0041F218414FF48050C4F202010860D8F840
:1054DC000000D8F80010091AB1420ED2D8F800100A
:1054EC00091AB1423EBFD8F80010091AB14204D2D1
:1054FC00D8F80010091AB142EBD340F644564FF0DD
:10550C00000E4FF0005C4FF0804AC0F601064FF4DD
:10551C0080454FF40059002002E0672880F060813C
:10552C0041F2184140F61842C4F20201C4F20202E0
:10553C00C1F800C0315CC2F800A0D8F80020D8F83F
:10554C000040A41A592C0ED8D8F80040A41A592C93
:10555C009EBFD8F80040A41A592C04D8D8F80040A3
:10556C00A41A5A2CEBD3DBF8002092070CD4DBF8EE
:10557C00002092075CBFDBF800205FEA827203D444
:10558C00DBF800209207EED5CBF80410DBF8001006
:10559C00C9070CD1DBF80010C90704BFDBF80010F9
:1055AC005FEAC17103D1DBF80010C907EED0DBF85C
:1055BC00001009060CD5DBF80010090644BFDBF817
:1055CC0000105FEA016103D5DBF800100906EED488
:1055DC00DBF80410D8F80010D8F80020521A592A19
:1055EC000ED8D8F80020521A592A9EBFD8F800209D
:1055FC00521A592A04D8D8F80020521A5A2AEBD336
:10560C0040F618416628C4F202010D6007F0A58629
:10561C00811902304A7852B97FE740F61841013AB5
:10562C00C4F2020101300D6011063FF476AF66281A
:10563C0007F2438641F2184140F61843C4F20201C6
:10564C00C4F20203C1F80090315CC3F800A0D8F892
:10565C000040D8F800301B1B592B0ED8D8F800305E
:10566C001B1B592B9EBFD8F800301B1B592B04D881
:10567C00D8F800301B1B5A2BEBD3DBF800309B0700
:10568C000CD4DBF800309B075CBFDBF800305FEA22
:10569C00837303D4DBF800309B07EED5CBF804E022
:1056AC00DBF80030DB070CD1DBF80030DB0704BF84
:1056BC00DBF800305FEAC37303D1DBF80030DB07A3
:1056CC00EED0DBF800301B060CD5DBF800301B06E7
:1056DC0044BFDBF800305FEA036303D5DBF800302E
:1056EC001B06EED4DBF80430D8F80040D8F80030B4
:1056FC001B1B592B0ED8D8F800301B1B592B9EBFE7
:10570C00D8F800301B1B592B04D8D8F800301B1BC1
:10571C005A2BEBD3D8F80040D8F800301B1B592B70
:10572C000ED8D8F800301B1B592B9EBFD8F8003070
:10573C001B1B592B04D8D8F800301B1B5A2BEBD34E
:10574C00DBF800309B070CD4DBF800309B075CBF08
:10575C00DBF800305FEA837303D4DBF800309B077F
:10576C00EED5CBF80410DBF80010C9070CD1DBF830
:10577C000010C90704BFDBF800105FEAC17103D148
:10578C00DBF80010C907EED0DBF8001009060CD5C9
:10579C00DBF80010090644BFDBF800105FEA01617A
:1057AC0003D5DBF800100906EED4DBF80410D8F8AA
:1057BC000010D8F800305B1A592B3FF62EAFD8F8F2
:1057CC0000305B1A592B9EBFD8F800305B1A592B4E
:1057DC003FF623AFD8F800305B1A5A2BE9D31CE7FD
:1057EC0041F218414FF00050C4F20201086040F63B
:1057FC0018414FF08040C4F202010860D8F8000054
:10580C00D8F80010091A59290ED8D8F80010091A1E
:10581C0059299EBFD8F80010091A592904D8D8F86C
:10582C000010091A5A29EBD30DF1A40E0EF5484AB3
:10583C00DBF8000080070CD4DBF8000080075CBFAD
:10584C00DBF800005FEA807003D4DBF8000080070F
:10585C00EED5B620CBF80400DBF80000C0070CD165
:10586C00DBF80000C00704BFDBF800005FEAC07083
:10587C0003D1DBF80000C007EED0DBF80000000617
:10588C000CD5DBF80000000644BFDBF800005FEA33
:10589C00006003D5DBF800000006EED4DBF8040052
:1058AC00D8F80000D8F80010091A59290ED8D8F8E1
:1058BC000010091A59299EBFD8F80010091A592945
:1058CC0004D8D8F80010091A5A29EBD340F618411D
:1058DC0041F218424FF48040C4F2020108604FF4C8
:1058EC000050C4F2020210604FF080400860D8F8FB
:1058FC000000D8F80010091A59290ED8D8F8001051
:10590C00091A59299EBFD8F80010091A592904D828
:10591C00D8F80010091A5A29EBD3DBF800008007DD
:10592C000CD4DBF8000080075CBFDBF800005FEAFA
:10593C00807003D4DBF800008007EED50020CBF894
:10594C000400DBF80000C0070CD1DBF80000C00736
:10595C0004BFDBF800005FEAC07003D1DBF8000085
:10596C00C007EED0DBF8000000060CD5DBF8000019
:10597C00000644BFDBF800005FEA006003D5DBF8EB
:10598C0000000006EED4DBF80400D8F80000D8F8CC
:10599C000010091A59290ED8D8F80010091A5929DB
:1059AC009EBFD8F80010091A592904D8D8F800104D
:1059BC00091A5A29EBD3D8F80000D8F80010091AA4
:1059CC0059290ED8D8F80010091A59299EBFD8F8B1
:1059DC000010091A592904D8D8F80010091A5A29A4
:1059EC00EBD3DBF8000080070CD4DBF80000800759
:1059FC005CBFDBF800005FEA807003D4DBF80000CA
:105A0C008007EED50020CBF80400DBF80000C007BF
:105A1C000CD1DBF80000C00704BFDBF800005FEA24
:105A2C00C07003D1DBF80000C007EED0DBF800003B
:105A3C0000060CD5DBF80000000644BFDBF80000C4
:105A4C005FEA006003D5DBF800000006EED4DBF85B
:105A5C000400D8F80000D8F80010091A59290ED8FB
:105A6C00D8F80010091A59299EBFD8F80010091A45
:105A7C00592904D8D8F80010091A5A29EBD340F642
:105A8C00184141F218424FF48040C4F20201086000
:105A9C004FF40050C4F2020210604FF080400860D6
:105AAC00D8F80000D8F80010091A59290ED8D8F8DF
:105ABC000010091A59299EBFD8F80010091A592943
:105ACC0004D8D8F80010091A5A29EBD3DBF80000D7
