:020000040800F2
:1000000000000320AD010008551E01080D3E010847
:10001000551E0108551E0108551E0108000000006C
:10002000000000000000000000000000551E010854
:10003000551E010800000000551E0108551E01084C
:10004000551E0108551E0108551E0108551E0108C0
:10005000551E0108551E0108551E0108551E0108B0
:10006000551E0108551E0108551E0108551E0108A0
:10007000551E0108551E0108551E0108551E010890
:10008000551E0108551E0108551E0108551E010880
:10009000551E0108551E0108551E0108551E010870
:1000A000551E0108551E0108551E0108551E010860
:1000B000551E0108551E0108551E0108551E010850
:1000C000551E0108551E0108551E0108551E010840
:1000D000551E0108551E0108551E0108551E010830
:1000E000551E0108551E0108551E0108551E010820
:1000F000551E0108551E0108551E0108551E010810
:10010000551E0108551E0108551E0108551E0108FF
:10011000551E0108551E0108551E0108551E0108EF
:10012000551E0108551E0108551E0108551E0108DF
:10013000551E0108551E0108551E0108551E0108CF
:10014000551E0108551E0108551E0108551E0108BF
:10015000551E0108551E0108551E0108551E0108AF
:10016000551E0108551E0108551E0108551E01089F
:10017000551E0108551E0108551E0108551E01088F
:10018000551E0108551E0108551E0108551E01087F
:10019000551E0108551E0108551E0108551E01086F
:0C01A000551E0108551E0108551E0108DF
:1001AC0011F055FE0E480F490022814201D004C0C7
:1001BC00FBE70D480D490E4A814202D008CA08C01F
:1001CC00FAE70C484FF47001026842EA010202603F
:1001DC00BFF34F8FBFF36F8F06F0C1FC00DE000042
:1001EC00000000200400002000000020000000207F
:1001FC003058010888ED00E0EAB180B56F4601EB9C
:10020C00020C44F60002C4F2000203E00131536018
:10021C0061450ED00B7810680006F7D41068000604
:10022C005CBF10685FEA0060F0D410680006F2D57D
:10023C00ECE7BDE880400020704780B56F460B4668
:10024C00D0E900121846BDE8804011F0FBB880B52B
:10025C006F4681B0002080290090684602D200F1E0
:10026C00010C37E0B1F5006F0BD202220B4662F3A2
:10027C009F13C02200F1020C8DF8013042EA91115B
:10028C0028E0B1F5803F10D202220B4662F39F1397
:10029C008DF802308B0900F1030C62F39F13E022FE
:1002AC008DF8013042EA113114E002220B4662F360
:1002BC009F138DF803308B0900F1040C62F39F132C
:1002CC008DF802300B0B62F39F13F0228DF8013086
:1002DC0042EA914144F600028DF800106946C4F2DE
:1002EC00000203E00131536061450ED00B781068B9
:1002FC000006F7D4106800065CBF10685FEA006067
:10030C00F0D410680006F2D5ECE7002001B080BDF7
:10031C00F0B503AF4DF8048D82B0804600208029E3
:10032C00019003D201248DF8041033E0B1F5006F75
:10033C0009D20224084664F39F108DF80500C020F2
:10034C0040EA911024E002200A4660F39F12B1F5B6
:10035C00803F0DD28DF806208A0960F39F12E020B1
:10036C0040EA11308DF805208DF80400032411E0CB
:10037C008DF807208A0960F39F128DF806200A0B6E
:10038C00042460F39F12F02040EA91408DF8052080
:10039C008DF80400D8E90156B54215D309D0D8F828
:1003AC00000001A9AA1B3044944238BF224612F027
:1003BC00F5FB3019A84238BF0546C8F80850002094
:1003CC0002B05DF8048BF0BD3046294611F05BFAA3
:1003DC0080B56F460A4643F65C61C0F60101BDE884
:1003EC00804011F01AB980B56F460A4643F6446155
:1003FC00C0F60101BDE8804011F00FB980B56F4621
:10040C00C00708BF80BDBDE8804012F08BBAF0B5C4
:10041C0003AF2DE9000F83B0BC689A469046D4E92F
:10042C0002B52B465A4600F0E9F9A8F120000BF171
:10043C0007016843C9080191484361688142C0F0D3
:10044C00DF80002D18BFBBF1000F0BD140F6184018
:10045C004FF48041C4F202000160584603B0BDE87D
:10046C00000FF0BD22682426091A002302EB0009B4
:10047C0043F20802C4F20006C4F201024FF007086E
:10048C00009504E0029B009D0133AB42DED0019845
:10049C000025029303FB00FE02E001355D45F1D01F
:1004AC000EEBD500884280F0AD8019F8000028EAE8
:1004BC000503D6F800C0D84000F00100404200EA25
:1004CC000A003368A3EB0C03592B0ED83368A3EB4B
:1004DC000C03592B9EBF3368A3EB0C03592B04D888
:1004EC003368A3EB0C035A2BEBD313689B0709D48B
:1004FC0013689B075CBF13685FEA837302D41368AD
:10050C009B07F2D583B21B0A53601368DB0709D132
:10051C001368DB0704BF13685FEAC37302D1136867
:10052C00DB07F2D013681B0609D513681B0644BF02
:10053C0013685FEA036302D513681B06F2D4536891
:10054C0033683468E41A592C0BD83468E41A592CE3
:10055C009EBF3468E41A592C03D83468E41A5A2C18
:10056C00EFD333683468E41A592C0BD83468E41A86
:10057C00592C9EBF3468E41A592C03D83468E41AF9
:10058C005A2CEFD313689B0709D413689B075CBFE5
:10059C0013685FEA837302D413689B07F2D5C0B269
:1005AC0050601068C00709D11068C00704BF1068FC
:1005BC005FEAC07002D11068C007F2D01068000664
:1005CC0009D51068000644BF10685FEA006002D5C8
:1005DC0010680006F2D45068306833681B1A592B27
:1005EC003FF65BAF33681B1A592B9EBF33681B1A3F
:1005FC00592B3FF652AF33681B1A5A2BEDD34CE7ED
:10060C0011F041F910F0F2FBF0B503AF2DE9000F3A
:10061C0083B01D7CB52A164608BF8026202A38BF19
:10062C007F264DB1009332464FF6FF73FFF7EFFE76
:10063C0003B0BDE8000FF0BDD3E902951C462B4674
:10064C004A4600F0DBF8002D029518BFB9F1000FF7
:10065C000CD140F618404FF48041C4F20200016006
:10066C0009F1010003B0BDE8000FF0BDA6F12000B8
:10067C00D4E900B1242543F2080609FB00FA4FF037
:10068C00000CC4F20005C4F2010602E00298844595
:10069C00DFD00CF0070001220CF1010C02FA00F87B
:1006AC00002201E04A45F1D002EB0A00884280F0BA
:1006BC00A3801BF8000001322B6800EA0800D5F873
:1006CC0000E0AEEB0304592C0BD82C68E41A592C1F
:1006DC009EBF2C68E41A592C03D82C68E41A5A2CA7
:1006EC00EDD333689B0709D433689B075CBF336831
:1006FC005FEA837302D433689B07F2D5002818BFD6
:10070C00FF2070603368DB0709D13368DB0704BF57
:10071C0033685FEAC37302D13368DB07F2D0336806
:10072C001B0609D533681B0644BF33685FEA0363B5
:10073C0002D533681B06F2D473682B682C68E41A54
:10074C00592C0BD82C68E41A592C9EBF2C68E41A2F
:10075C00592C03D82C68E41A5A2CEFD32B682C682C
:10076C00E41A592C0BD82C68E41A592C9EBF2C680F
:10077C00E41A592C03D82C68E41A5A2CEFD333689A
:10078C009B0709D433689B075CBF33685FEA8373AC
:10079C0002D433689B07F2D570603068C00709D16A
:1007AC003068C00704BF30685FEAC07002D130689F
:1007BC00C007F2D03068000609D53068000644BF87
:1007CC0030685FEA006002D530680006F2D47068C9
:1007DC0028682B681B1A592B3FF664AF2B681B1A21
:1007EC00592B9EBF2B681B1A592B3FF65BAF2B68FE
:1007FC001B1A5A2BEDD355E710F0F8FAF0B503AFEE
:10080C004DF8048D40F6184C4FF00056C4F2020C13
:10081C0040F2240ECCF800684FF08046CCF8006013
:10082C00C4F2000EDEF80060A1F10108441EDEF8EF
:10083C000050AD1B592D0ED8DEF80050AD1B592DB4
:10084C009EBFDEF80050AD1B592D04D8DEF80050C9
:10085C00AD1B5A2DEBD3144443F20802C4F201022F
:10086C001568AD0709D41568AD075CBF15685FEA5C
:10087C00857502D41568AD07F2D52A255560156823
:10088C00ED0709D11568ED0704BF15685FEAC5755A
:10089C0002D11568ED07F2D015682D0609D515683B
:1008AC002D0644BF15685FEA056502D515682D064F
:1008BC00F2D45568DEF80060DEF80050AD1B592DFF
:1008CC000ED8DEF80050AD1B592D9EBFDEF800503F
:1008DC00AD1B592D04D8DEF80050AD1B5A2DEBD3AF
:1008EC004FF48045CCF800504FF40055CCF800582C
:1008FC004FF08045CCF80050DEF80060DEF8005078
:10090C00AD1B592D0ED8DEF80050AD1B592D9EBFD6
:10091C00DEF80050AD1B592D04D8DEF80050AD1B8D
:10092C005A2DEBD343441568AD0709D41568AD07B0
:10093C005CBF15685FEA857502D41568AD07F2D502
:10094C00002555601568ED0709D11568ED0704BF42
:10095C0015685FEAC57502D11568ED07F2D0156808
:10096C002D0609D515682D0644BF15685FEA056587
:10097C0002D515682D06F2D45568DEF80050DEF865
:10098C000060761B592E0ED8DEF80060761B592EAF
:10099C009EBFDEF80060761B592E04D8DEF800608E
:1009AC00761B5A2EEBD3DEF80050DEF80060761B77
:1009BC00592E0ED8DEF80060761B592E9EBFDEF83D
:1009CC000060761B592E04D8DEF80060761B5A2E78
:1009DC00EBD31568AD0709D41568AD075CBF156876
:1009EC005FEA857502D41568AD07F2D5C0F307250B
:1009FC0055601568ED0709D11568ED0704BF15683A
:100A0C005FEAC57502D11568ED07F2D015682D06A1
:100A1C0009D515682D0644BF15685FEA056502D532
:100A2C0015682D06F2D45568DEF80050DEF800602B
:100A3C00761B592E0ED8DEF80060761B592E9EBF01
:100A4C00DEF80060761B592E04D8DEF80060761BA9
:100A5C005A2EEBD34FF48045CCF800504FF4005590
:100A6C00CCF800584FF08045CCF80050DEF8005020
:100A7C00DEF80060761B592E0ED8DEF80060761B6F
:100A8C00592E9EBFDEF80060761B592E04D8DEF876
:100A9C000060761B5A2EEBD31568AD0709D4156888
:100AAC00AD075CBF15685FEA857502D41568AD07A4
:100ABC00F2D5002555601568ED0709D11568ED07CD
:100ACC0004BF15685FEAC57502D11568ED07F2D051
:100ADC0015682D0609D515682D0644BF15685FEA03
:100AEC00056502D515682D06F2D45568DEF8005060
:100AFC00DEF80060761B592E0ED8DEF80060761BEF
:100B0C00592E9EBFDEF80060761B592E04D8DEF8F5
:100B1C000060761B5A2EEBD3DEF80050DEF8006036
:100B2C00761B592E0ED8DEF80060761B592E9EBF10
:100B3C00DEF80060761B592E04D8DEF80060761BB8
:100B4C005A2EEBD31568AD0709D41568AD075CBFF9
:100B5C0015685FEA857502D41568AD07F2D5C0B289
:100B6C0050601068C00709D11068C00704BF106836
:100B7C005FEAC07002D11068C007F2D0106800069E
:100B8C0009D51068000644BF10685FEA006002D502
:100B9C0010680006F2D45068DEF80000DEF8005051
:100BAC002D1A592D0ED8DEF800502D1A592D9EBF36
:100BBC00DEF800502D1A592D04D8DEF800502D1AED
:100BCC005A2DEBD34FF48040CCF800004FF400507A
:100BDC00CCF800084FF08040CCF80000DEF80000A4
:100BEC00DEF800502D1A592D0ED8DEF800502D1AB3
:100BFC00592D9EBFDEF800502D1A592D04D8DEF861
:100C0C0000502D1A5A2DEBD31068800709D41068A8
:100C1C0080075CBF10685FEA807002D410688007A0
:100C2C00F2D5002050601068C00709D11068C007C9
:100C3C0004BF10685FEAC07002D11068C007F2D020
:100C4C001068000609D51068000644BF10685FEAFA
:100C5C00006002D510680006F2D45068DEF800007F
:100C6C00DEF800502D1A592D0ED8DEF800502D1A32
:100C7C00592D9EBFDEF800502D1A592D04D8DEF8E0
:100C8C0000502D1A5A2DEBD3DEF80000DEF8005080
:100C9C002D1A592D0ED8DEF800502D1A592D9EBF45
:100CAC00DEF800502D1A592D04D8DEF800502D1AFC
:100CBC005A2DEBD31068800709D4106880075CBFED
:100CCC0010685FEA807002D410688007F2D5C4F314
:100CDC00072050601068C00709D11068C00704BF16
:100CEC0010685FEAC07002D11068C007F2D01068BB
:100CFC00000609D51068000644BF10685FEA006062
:100D0C0002D510680006F2D45068DEF80000DEF858
:100D1C0000502D1A592D0ED8DEF800502D1A592DD1
:100D2C009EBFDEF800502D1A592D04D8DEF8005065
:100D3C002D1A5A2DEBD34FF48040CCF800004FF411
:100D4C000050CCF800084FF08040CCF80000DEF8E2
:100D5C000000DEF800502D1A592D0ED8DEF8005088
:100D6C002D1A592D9EBFDEF800502D1A592D04D87E
:100D7C00DEF800502D1A5A2DEBD31068800709D4D9
:100D8C00106880075CBF10685FEA807002D410683E
:100D9C008007F2D5002050601068C00709D1106898
:100DAC00C00704BF10685FEAC07002D11068C007AA
:100DBC00F2D01068000609D51068000644BF106810
:100DCC005FEA006002D510680006F2D45068DEF8C5
:100DDC000000DEF800502D1A592D0ED8DEF8005008
:100DEC002D1A592D9EBFDEF800502D1A592D04D8FE
:100DFC00DEF800502D1A5A2DEBD3DEF80000DEF889
:100E0C0000502D1A592D0ED8DEF800502D1A592DE0
:100E1C009EBFDEF800502D1A592D04D8DEF8005074
:100E2C002D1A5A2DEBD31068800709D4106880074F
:100E3C005CBF10685FEA807002D410688007F2D53E
:100E4C00E0B250601068C00709D11068C00704BF39
:100E5C0010685FEAC07002D11068C007F2D0106849
:100E6C00000609D51068000644BF10685FEA0060F0
:100E7C0002D510680006F2D45068DEF80000DEF8E7
:100E8C000040241A592C0ED8DEF80040241A592C94
:100E9C009EBFDEF80040241A592C04D8DEF800401E
:100EAC00241A5A2CEBD34FF48040CCF800004FF0AE
:100EBC000050CCF800084FF08040CCF80000DEF871
:100ECC000000DEF80040241A592C0ED8DEF8004041
:100EDC00241A592C9EBFDEF80040241A592C04D831
:100EEC00DEF80040241A5A2CEBD31068800709D482
:100EFC00106880075CBF10685FEA807002D41068CD
:100F0C008007F2D52B2050601068C00709D11068FB
:100F1C00C00704BF10685FEAC07002D11068C00738
:100F2C00F2D01068000609D51068000644BF10689E
:100F3C005FEA006002D510680006F2D45068DEF853
:100F4C000000DEF80040241A592C0ED8DEF80040C0
:100F5C00241A592C9EBFDEF80040241A592C04D8B0
:100F6C00DEF80040241A5A2CEBD34FF48040CCF816
:100F7C0000004FF40050CCF800084FF08040CCF843
:100F8C000000DEF80000DEF80040241A592C0ED8C0
:100F9C00DEF80040241A592C9EBFDEF80040241ABB
:100FAC00592C04D8DEF80040241A5A2CEBD31068C4
:100FBC00800709D4106880075CBF10685FEA8070F6
:100FCC0002D410688007F2D5002050601068C0076A
:100FDC0009D11068C00704BF10685FEAC07002D165
:100FEC001068C007F2D01068000609D5106800061A
:100FFC0044BF10685FEA006002D510680006F2D4A6
:10100C005068DEF80000DEF80040241A592C0ED887
:10101C00DEF80040241A592C9EBFDEF80040241A3A
:10102C00592C04D8DEF80040241A5A2CEBD3DEF8E5
:10103C000000DEF80040241A592C0ED8DEF80040CF
:10104C00241A592C9EBFDEF80040241A592C04D8BF
:10105C00DEF80040241A5A2CEBD31068800709D410
:10106C00106880075CBF10685FEA807002D410685B
:10107C008007F2D5C1F3072050601068C00709D172
:10108C001068C00704BF10685FEAC07002D1106816
:10109C00C007F2D01068000609D51068000644BFDE
:1010AC0010685FEA006002D510680006F2D4506840
:1010BC00DEF80000DEF80040241A592C0ED8DEF8B9
:1010CC000040241A592C9EBFDEF80040241A592CDB
:1010DC0004D8DEF80040241A5A2CEBD34FF480408D
:1010EC00CCF800004FF40050CCF800084FF08040D2
:1010FC00CCF80000DEF80000DEF80040241A592C71
:10110C000ED8DEF80040241A592C9EBFDEF80040A1
:10111C00241A592C04D8DEF80040241A5A2CEBD38C
:10112C001068800709D4106880075CBF10685FEAFC
:10113C00807002D410688007F2D5002050601068CF
:10114C00C00709D11068C00704BF10685FEAC070FF
:10115C0002D11068C007F2D01068000609D51068DB
:10116C00000644BF10685FEA006002D510680006F4
:10117C00F2D45068DEF80000DEF80040241A592C36
:10118C000ED8DEF80040241A592C9EBFDEF8004021
:10119C00241A592C04D8DEF80040241A5A2CEBD30C
:1011AC00DEF80000DEF80040241A592C0ED8DEF8C8
:1011BC000040241A592C9EBFDEF80040241A592CEA
:1011CC0004D8DEF80040241A5A2CEBD310688007A0
:1011DC0009D4106880075CBF10685FEA807002D485
:1011EC0010688007F2D5C8B250601068C00709D1EA
:1011FC001068C00704BF10685FEAC07002D11068A5
:10120C00C007F2D01068000609D51068000644BF6C
:10121C0010685FEA006002D510680006F2D45068CE
:10122C00DEF80000DEF80010091A59290ED8DEF895
:10123C000010091A59299EBFDEF80010091A592905
:10124C0004D8DEF80010091A5A29EBD34FF4804069
:10125C00CCF800004FF40050CCF800084FF0804060
:10126C00CCF80000DEF80000DEF80010091A59294D
:10127C000ED8DEF80010091A59299EBFDEF80010AE
:10128C00091A592904D8DEF80010091A5A29EBD387
:10129C001068800709D4106880075CBF10685FEA8B
:1012AC00807002D410688007F2D50020506010685E
:1012BC00C00709D11068C00704BF10685FEAC0708E
:1012CC0002D11068C007F2D01068000609D510686A
:1012DC00000644BF10685FEA006002D51068000683
:1012EC00F2D45068DEF80000DEF80010091A592913
:1012FC000ED8DEF80010091A59299EBFDEF800102E
:10130C00091A592904D8DEF80010091A5A29EBD306
:10131C00DEF80000DEF80010091A59290ED8DEF8A4
:10132C000010091A59299EBFDEF80010091A592914
:10133C0004D8DEF80010091A5A29EBD3106880077C
:10134C0009D4106880075CBF10685FEA807002D413
:10135C0010688007F2D5C3F3072050601068C007EF
:10136C0009D11068C00704BF10685FEAC07002D1D1
:10137C001068C007F2D01068000609D51068000686
:10138C0044BF10685FEA006002D510680006F2D412
:10139C005068DEF80000DEF80010091A59290ED842
:1013AC00DEF80010091A59299EBFDEF80010091A40
:1013BC00592904D8DEF80010091A5A29EBD34FF436
:1013CC008040CCF800004FF40050CCF800084FF0EF
:1013DC008040CCF80000DEF80000DEF80010091A9E
:1013EC0059290ED8DEF80010091A59299EBFDEF8CB
:1013FC000010091A592904D8DEF80010091A5A29C4
:10140C00EBD31068800709D4106880075CBF1068A4
:10141C005FEA807002D410688007F2D5002050601B
:10142C001068C00709D11068C00704BF10685FEAD4
:10143C00C07002D11068C007F2D01068000609D540
:10144C001068000644BF10685FEA006002D510689F
:10145C000006F2D45068DEF80000DEF80010091A1D
:10146C0059290ED8DEF80010091A59299EBFDEF84A
:10147C000010091A592904D8DEF80010091A5A2943
:10148C00EBD3DEF80000DEF80010091A59290ED84B
:10149C00DEF80010091A59299EBFDEF80010091A4F
:1014AC00592904D8DEF80010091A5A29EBD3106810
:1014BC00800709D4106880075CBF10685FEA8070F1
:1014CC0002D410688007F2D5D8B250601068C007FB
:1014DC0009D11068C00704BF10685FEAC07002D160
:1014EC001068C007F2D01068000609D51068000615
:1014FC0044BF10685FEA006002D510680006F2D4A1
:10150C005068DEF80000DEF80010091A59290ED8D0
:10151C00DEF80010091A59299EBFDEF80010091ACE
:10152C00592904D8DEF80010091A5A29EBD34FF4C4
:10153C008040CCF800004FF00050CCF800084FF081
:10154C008040CCF80000DEF80000DEF80010091A2C
:10155C0059290ED8DEF80010091A59299EBFDEF859
:10156C000010091A592904D8DEF80010091A5A2952
:10157C00EBD31068800709D4106880075CBF106833
:10158C005FEA807002D410688007F2D52C2050607E
:10159C001068C00709D11068C00704BF10685FEA63
:1015AC00C07002D11068C007F2D01068000609D5CF
:1015BC001068000644BF10685FEA006002D510682E
:1015CC000006F2D45068DEF80000DEF80010091AAC
:1015DC0059290ED8DEF80010091A59299EBFDEF8D9
:1015EC000010091A592904D8DEF80010091A5A29D2
:1015FC00EBD34FF48040CCF800004FF40050CCF803
:10160C0000084FF08040CCF800005DF8048BF0BD72
:10161C00B0B502AF1C461546FFF7F0F804FB05F019
:10162C00002800F0AA80BA68242343F20805C4F20B
:10163C000003C4F2010591B2D2B24FEA112C02E0C0
:10164C00013800F09A801C681968091B59290BD8BD
:10165C001968091B59299EBF1968091B592903D8F8
:10166C001968091B5A29EFD32968890709D42968F5
:10167C0089075CBF29685FEA817102D429688907F0
:10168C00F2D5C5F804C02968C90709D12968C9076A
:10169C0004BF29685FEAC17102D12968C907F2D079
:1016AC002968090609D52968090644BF29685FEA33
:1016BC00016102D529680906F2D469681C681968A9
:1016CC00091B59290BD81968091B59299EBF196880
:1016DC00091B592903D81968091B5A29EFD31C680F
:1016EC001968091B59290BD81968091B59299EBF60
:1016FC001968091B592903D81968091B5A29EFD3F2
:10170C002968890709D4296889075CBF29685FEAB9
:10171C00817102D429688907F2D56A602968C907E2
:10172C0009D12968C90704BF29685FEAC17102D1D0
:10173C002968C907F2D02968090609D5296809065C
:10174C0044BF29685FEA016102D529680906F2D411
:10175C0069681C681968091B59293FF671AF19682B
:10176C00091B59299EBF1968091B59293FF668AFF7
:10177C001968091B5A29EDD362E740F618404FF45B
:10178C008041C4F202000160B0BDF0B503AF2DE999
:10179C00000F81B083460D46914600240A2059461D
:1017AC002A4601230094FFF733FF0BF10106A9F140
:1017BC0002080A200122314643460094FFF728FF15
:1017CC0005F109003146012243460094FFF720FF42
:1017DC0009EB0B002A46411E0A2001230094FFF757
:1017EC0017FFA5F1020A4FF6FF7000900B2031464F
:1017FC00524601234FF6FF74FFF70AFF0094A9F13C
:10180C0004060BF102040B20012233462146FFF79C
:10181C00FFFE4FF6FF702146009005F108000122F3
:10182C0033464FF6FF79FFF7F3FE08EB0B010B2065
:10183C0052460123CDF80090FFF7EAFE01B0BDE857
:10184C00000FF0BDF0B503AF2DE9000F81B0D0F85B
:10185C004C9044F2B46B8246282001EB02080C46F3
:10186C0000EB09160725C0F6010B00920AE043EACB
:10187C008112841C284631465B46FEF7C5FE0544A2
:10188C00444523D0204614F9011BB1F1FF3FCAB2E5
:10189C00F0DC437802F01F01E02A03F03F03E6D3AB
:1018AC008478F02A04F03F0444EA83130AD3C27804
:1018BC0001F00701041D02F03F0242EA831242EAE2
:1018CC008142D7E743EA0132C41CD3E7B9F10F0FC9
:1018DC009FBF00980AF80900DAF84C0001309FBF4E
:1018EC00CAF84C0001B0BDE8000FF0BD484610210D
:1018FC000FF07CFAF0B503AF2DE9000F81B044F680
:10190C00305B8C189246894680460726C0F6010B40
:10191C000D460AE043EA8112851C304607215B46DE
:10192C00FEF772FE0644A54223D0284615F9011B8A
:10193C00B1F1FF3FCAB2F0DC437802F01F01E02A9C
:10194C0003F03F03E6D38578F02A05F03F0545EA1E
:10195C0083130AD3C27801F00701051D02F03F0280
:10196C0042EA831242EA8142D7E743EA0132C51CBC
:10197C00D3E7D8F83400A0EB0A01002909DD0020D8
:10198C00CA0000904FEACA00073007211023FFF766
:10199C003FFEC8E90C9A01B0BDE8000FF0BDD4D4ED
:1019AC00B0B502AF82B00446C8B2DFE810F00C004C
:1019BC00AD0062007B003000C600DF009400110116
:1019CC004900F8001700002040F229110090204631
:1019DC0010221023FFF71CFE02B0B0BD44F2B46518
:1019EC002046C0F6010540F229118C224FF6FF73F8
:1019FC000095FEF70CFD009504F1080040F229114A
:101A0C008D224FF6FF73FEF702FD02B0B0BD44F21B
:101A1C00B4652046C0F6010540F2291194224FF618
:101A2C00FF730095FEF7F3FC009504F1080040F2FB
:101A3C00291195224FF6FF73FEF7E9FC02B0B0BDF9
:101A4C0044F2B4652046C0F6010540F229118E22FD
:101A5C004FF6FF730095FEF7DAFC009504F10800D1
:101A6C0040F229118F224FF6FF73FEF7D0FC02B023
:101A7C00B0BD44F2B4652046C0F6010540F2291110
:101A8C009A224FF6FF730095FEF7C1FC009504F106
:101A9C00080040F229119B224FF6FF73FEF7B7FCAA
:101AAC0002B0B0BD44F2B4652046C0F6010540F268
:101ABC00291186224FF6FF730095FEF7A8FC0095BE
:101ACC0004F1080040F2291187224FF6FF73FEF74C
:101ADC009EFC02B0B0BD44F2B4652046C0F60105D0
:101AEC0040F229118A224FF6FF730095FEF78FFC06
:101AFC00009504F1080040F229118B224FF6FF7378
:101B0C00FEF785FC02B0B0BD44F2B4652046C0F6C9
:101B1C00010540F2291192224FF6FF730095FEF752
:101B2C0076FC04F1080040F22911932200954FF63F
:101B3C00FF73FEF76CFC02B0B0BD44F2B4652046F6
:101B4C00C0F6010540F2291190224FF6FF73009563
:101B5C00FEF75DFC009504F1080040F2291191227A
:101B6C004FF6FF73FEF753FC02B0B0BD44F2B46500
:101B7C002046C0F6010540F2291198224FF6FF735A
:101B8C000095FEF744FC009504F1080040F2291181
:101B9C0099224FF6FF73FEF73AFC02B0B0BD44F247
:101BAC00B4652046C0F6010540F22911A0224FF67B
:101BBC00FF730095FEF72BFC009504F1080040F232
:101BCC002911A1224FF6FF73FEF721FC02B0B0BD24
:101BDC0044F2B4652046C0F6010540F229119E225C
:101BEC004FF6FF730095FEF712FC009504F1080008
:101BFC0040F229119F224FF6FF73FEF708FC02B04A
:101C0C00B0BDF0B503AF4DF8048DC46A002C55D0AF
:101C1C00866A0D46804609783078814202D0EF20E2
:101C2C00FFF7BEFE012C4DD06978707881421CBF45
:101C3C004FF48770FFF7B4FE022C47D0A978B07828
:101C4C0081421CBF40F22D10FFF7AAFE032C41D09D
:101C5C00E978F07881421CBF4FF4A670FFF7A0FE24
:101C6C00042C3BD02979307981421CBF40F26B1097
:101C7C00FFF796FE052C35D06979707981421CBF2F
:101C8C004FF4C570FFF78CFE062C2FD0A979B079D4
:101C9C0081421CBF40F2A910FFF782FE072C29D00D
:101CAC00E979F07981421CBF4FF4E470FFF778FEBC
:101CBC000820C8E90A505DF8048BF0BD00202146CD
:101CCC000FF094F8012021460FF090F802202146E5
:101CDC000FF08CF8032021460FF088F804202146E1
:101CEC000FF084F8052021460FF080F806202146DD
:101CFC000FF07CF8072021460FF078F8F0B503AF11
:101D0C002DE9000F93B000F5615980460E4699F805
:101D1C001800DFE810F086023A042B0007000700D9
:101D2C0007000700404600F0D6FE89F81860F0B2B4
:101D3C00DFE810F00700D905CD0062020F0017068E
:101D4C002C06404613B0BDE8000FBDE8F04003F090
:101D5C004DBC45F240014046C0F601010B22FFF795
:101D6C00C9FD45F24011C0F6010151E200242C20BE
:101D7C002E21202210230094FFF74AFC0A2029214F
:101D8C00642202230094FFF743FC0A202B21022239
:101D9C0016230094FFF73CFC6C202B210222162307
:101DAC000094FFF735FC0A204121642202230094A1
:101DBC00FFF72EFC30205221182210230094FFF73D
:101DCC0027FC0A204D21642202230094FFF720FCFB
:101DDC000A204F21022216230094FFF719FC6C20D5
:101DEC004F21022216230094FFF712FC0A206521D2
:101DFC00642202230094FFF70BFC3020762118227A
:101E0C0010230094FFF704FC0A20712164220223A2
:101E1C000094FFF7FDFB0A20732102221623009485
:101E2C00FFF7F6FB6C207321022216230094FFF7B8
:101E3C00EFFB0A208921642202230094FFF7E8FBC0
:101E4C0020209A21382210230094FFF7E1FB0A206E
:101E5C009521642202230094FFF7DAFB0A209721D4
:101E6C00022216230094FFF7D3FB6C209721022249
:101E7C0016230094FFF7CCFB0A20AD216422022329
:101E8C000094FFF7C5FB2C20BE21202210230094C8
:101E9C00FFF7BEFB0A20B921642202230094FFF74E
:101EAC00B7FB0A20BB21022216230094FFF7B0FBDC
:101EBC006C20BB21022216230094FFF7A9FB0A20F9
:101ECC00D121642202230094FFF7A2FB2DE745F2F7
:101EDC0028514046C0F601011722FFF70BFD44F6CE
:101EEC0078514046C0F60101FFF78BFE242643F2E1
:101EFC000804D8F844000025C4F20006C4F201041A
:101F0C004FF0070A4FF0010B02902AE040F21F49F4
:101F1C000A20642202234FEA8C08CDF80090FFF7C8
:101F2C0077FB08F12B050A20022216232946CDF84F
:101F3C000090FFF76DFBCDF8009029466C20022233
:101F4C001623039DFFF764FB08F141010A2064226C
:101F5C000223CDF80090FFF75BFB0135052D00F057
:101F6C00478145F2005005EBC50CC0F60100039506
:101F7C0000EBC5004168002900F02981039845F267
:101F8C000052C0F6010252F83000421804922E2280
:101F9C00034602EB8C0206924FF6FC72CDF814C08D
:101FAC00C7F6FF7202EA8101C1F13C0210E040F673
:101FBC0018404FF48041C4F202000160089A079B5C
:101FCC0004980832DDF814C08342184600F0FF80F4
:101FDC0013F9011BB1F1FF3FCDB21FDC417805F0C5
:101FEC001F0EE02D01F03F0111D38378F02D03F08B
:101FFC003F0343EA81110ED3C37803F03F0343EA56
:10200C0081130EF0070143EA8145031D06E041EA06
:10201C008E15831C02E041EA0E35C31CCDE9073254
:10202C001046069908221023FEF7E8FB4FF60060D5
:10203C00B52DCFF6FF7000EB051008BF4FF4C06054
:10204C00202D38BF4FF4BE60B0F5C06F00F2B584E0
:10205C0044F22F714FF0000EC0F6010101EB000CA1
:10206C00C0F5C06104E00EF1010EBEF1100F9ED060
:10207C00002502E00135082DF5D00EEBD500884285
:10208C0080F099841CF800902AEA05023368D6F88F
:10209C000080A8EB030059280BD83068C01A5928C7
:1020AC009EBF3068C01A592803D83068C01A5A2805
:1020BC00EDD30BFA02F22068800709D42068800760
:1020CC005CBF20685FEA807002D420688007F2D57C
:1020DC0019EA020018BFFF2060602268D20709D1FC
:1020EC002268D20704BF22685FEAC27202D122685A
:1020FC00D207F2D02268120609D52268120644BF14
:10210C0022685FEA026202D522681206F2D4626883
:10211C00326833689B1A592B0BD833689B1A592B8E
:10212C009EBF33689B1A592B03D833689B1A5A2BC2
:10213C00EFD3326833689B1A592B0BD833689B1A30
:10214C00592B9EBF33689B1A592B03D833689B1AA3
:10215C005A2BEFD32268920709D4226892075CBFEE
:10216C0022685FEA827202D422689207F2D560601C
:10217C002068C00709D12068C00704BF20685FEA47
:10218C00C07002D12068C007F2D02068000609D5C3
:10219C002068000644BF20685FEA006002D5206812
:1021AC000006F2D4606830683268121A592A3FF679
:1021BC0061AF3268121A592A9EBF3268121A592A14
:1021CC003FF658AF3268121A5A2AEDD352E729203B
:1021DC0000EB8C01DDE9020585423FF497AE084621
:1021EC0064211A22FFF7D1FA0135052D7FF4B9AE1F
:1021FC0013B0BDE8000FF0BD45F234014046C0F607
:10220C0001010C22FFF776FB44F69871C0F6010130
:10221C004046062213B0BDE8000FBDE8F04000F0C8
:10222C00C8BC41F26A7040F28E314044059611F000
:10223C00EDF841F6BF4040F2C711404411F0E6F80A
:10224C0042F2142040F28E31404411F073F942F204
:10225C00697040F2C711404411F0D8F841F2DC30FB
:10226C002121404404F010F841F6866032214044AC
:10227C0004F00AF8002400201F2119224FF4817366
:10228C000094FFF7C5F91A204FF4957130221023F2
:10229C000094FFF7BDF942F63C10CDF8188040448D
:1022AC0004F0F1FA45F2BC50CDF8109089F81440C6
:1022BC00C0F601000DF1240B6CC840F224095946FC
:1022CC006CC143F2080AC4F2000990E86C000420C7
:1022DC00C4F2010A6CC10022CDE911404FF4917097
:1022EC00089008E0079A08980132042A00F11800B7
:1022FC00089000F00C820BEBC200079241685BF86F
:10230C003200102935D20029ECD08A084FF0000693
:10231C0000F01D8102F0030200F1010E6FF00305C5
:10232C00A6EB820C0EEB0502043592F9033092F900
:10233C00068092F905B013F1410F92F90420C8BF41
:10234C00013612F1410FC8BF01361BF1410FC8BF56
:10235C00013618F1410F0CEB0502C8BF01360432EF
:10236C00E0D12A1D0DF1240B11F0030140F0F48093
:10237C0002E00EF03BFE0646002EB3D0C6F1030081
:10238C0008994FF0000800EB400001EB40050BE012
:10239C0040F6184008F101080635B045C4F20200B9
:1023AC004FF4804101609DD028460E210522072361
:1023BC00FEF724FA232001E00138E9D0D9F8001007
:1023CC00D9F80020521A592A0ED8D9F80020521ADE
:1023DC00592A9EBFD9F80020521A592A04D8D9F884
:1023EC000020521A5A2AEBD3DAF8001089070CD4C1
:1023FC00DAF8001089075CBFDAF800105FEA817127
:10240C0003D4DAF800108907EED5CAF80440DAF8DC
:10241C000010C9070CD1DAF80010C90704BFDAF8AC
:10242C0000105FEAC17103D1DAF80010C907EED0D1
:10243C00DAF8001009060CD5DAF80010090644BFCA
:10244C00DAF800105FEA016103D5DAF8001009062A
:10245C00EED4DAF80410D9F80010D9F80020521A8A
:10246C00592A0ED8D9F80020521A592A9EBFD9F8E9
:10247C000020521A592A04D8D9F80020521A5A2A84
:10248C00EBD3D9F80010D9F80020521A592A0ED8DB
:10249C00D9F80020521A592A9EBFD9F80020521A96
:1024AC00592A04D8D9F80020521A5A2AEBD3DAF850
:1024BC00001089070CD4DAF8001089075CBFDAF831
:1024CC0000105FEA817103D4DAF800108907EED5A9
:1024DC00CAF80440DAF80010C9070CD1DAF8001079
:1024EC00C90704BFDAF800105FEAC17103D1DAF84A
:1024FC000010C907EED0DAF8001009060CD5DAF88E
:10250C000010090644BFDAF800105FEA016103D538
:10251C00DAF800100906EED4DAF80410D9F8001035
:10252C00D9F80020521A592A3FF646AFD9F80020A4
:10253C00521A592A9EBFD9F80020521A592A3FF62E
:10254C003BAFD9F80020521A5A2AE9D334E70022BB
:10255C0011F003013FF410AF835613F1410FC8BFC4
:10256C00013601293FF408AF104490F9012012F113
:10257C00410FC8BF013602293FF4FEAE90F90200AC
:10258C0010F1410FC8BF0136F6E6D8F84C40002CCC
:10259C0000F0B88098F80000002528211023009541
:1025AC00C2000720FFF734F8012C00F0AB8098F83C
:1025BC000100382110230095C2000720FFF728F8EE
:1025CC00022C00F09F8098F80200482110230095FF
:1025DC00C2000720FFF71CF8032C00F0938098F83A
:1025EC000300582110230095C2000720FFF710F8B4
:1025FC00042C00F0878098F80400682110230095C3
:10260C00C2000720FFF704F8052C7BD098F80500D2
:10261C00782110230095C2000720FEF7F9FF062C45
:10262C0070D098F80600882110230095C20007206E
:10263C00FEF7EEFF072C65D098F8070098211023C1
:10264C000095C2000720FEF7E3FF082C5AD098F83B
:10265C000800A82110230095C2000720FEF7D8FF20
:10266C00092C4FD098F80900B82110230095C2000E
:10267C000720FEF7CDFF0A2C44D098F80A00C82199
:10268C0010230095C2000720FEF7C2FF0B2C39D097
:10269C0098F80B00D82110230095C2000720FEF7F4
:1026AC00B7FF0C2C2ED098F80C00E82110230095C5
:1026BC00C2000720FEF7ACFF0D2C23D098F80D00BC
:1026CC00F82110230095C2000720FEF7A1FF0E2C65
:1026DC0018D098F80E004FF4847110230095C200A6
:1026EC000720FEF795FF0F2C0CD098F80F004FF435
:1026FC008C7110230095C2000720FEF789FF102C67
:10270C0040F05F810020C8F84C00FFF70EBBDDF8ED
:10271C00188043F64800002406210522072348F8B8
:10272C0000404044C0E901444FF491700094FEF71E
:10273C006FFF4FF494700621052207230094FEF7D7
:10274C0067FF4FF497700621052207230094FEF7CC
:10275C005FFF4FF49A700621052207230094FEF7C1
:10276C0057FF4FF49D700621052207230094FEF7B6
:10277C004FFF4FF4A0700621052207230094FEF7AB
:10278C0047FF4FF4A3700621052207230094FEF7A0
:10279C003FFF4FF4A6700621052207230094FEF795
:1027AC0037FF4FF4A9700621052207230094FEF78A
:1027BC002FFF4FF4AC700621052207230094FEF77F
:1027CC0027FF4FF4AF700621052207230094FEF774
:1027DC001FFF4FF4B2700621052207230094FEF769
:1027EC0017FF4FF4B5700621052207230094FEF75E
:1027FC000FFF4FF4B8700621052207230094FEF753
:10280C0007FF4FF4BB700621052207230094FEF747
:10281C00FFFEA0200E21782201230094FEF7F8FE83
:10282C00DDF81090D9F80060772E0FD806F1A005CE
:10283C0009210122052328460094FEF7E9FE2846CB
:10284C000F21012205230094FEF7E2FED9F80400C3
:10285C00B04211D077280FD800F1A0050921012230
:10286C00052328460094FEF7D3FE28460F210122AB
:10287C0005230094FEF7CCFE4FF0FF300021C9E990
:10288C00000040F2C11001221E230094FEF7C0FE8E
:10289C004FF4C5700721102210230094FEF7B8FEE8
:1028AC004FF4D170002101221E230094FEF7B0FEDC
:1028BC0040F2A9100721102210230094FEF7A8FE65
:1028CC0040F28310002101221E230094FEF7A0FE8B
:1028DC004FF4E4700721102210230094FEF798FEA9
:1028EC00059EFFF722BA44F698514046C0F6010106
:1028FC00FFF787F944F6B0714046C0F60101052296
:10290C00FEF7F8FF44F6B5714046C0F601011D22F2
:10291C00FEF798FF44F6D2714046C0F60101322210
:10292C00FEF790FFD8F84C0010283FBF002108F8A4
:10293C000010D8F84C0001303FBFC8F84C0045F2ED
:10294C000401C0F6010140463FBF1D2213B0BDE893
:10295C00000FBDE8F04038BFFEF774BF10210EF039
:10296C0045FA45F294114046C0F601010F22FEF7DC
:10297C00C1FF45F2BC114046C0F60101012213B063
:10298C00BDE8000FBDE8F04000F013B945F2581156
:10299C004046C0F601010B22FEF7ACFF45F28C114C
:1029AC004046C0F60101022213B0BDE8000FBDE89D
:1029BC00F04000F0FEB80EF019FA4FF4C0610EF0C2
:1029CC0062FF102010210EF011FAF0B503AF2DE9C3
:1029DC00000B82B00B460246C16B806C88426FD2F2
:1029EC0008286FD2916BDBB251F820100E68716819
:1029FC0099426AD9024492F82020914268D93468ED
:102A0C0000EB8000317A04EBC30304EBC20600290F
:102A1C0075685B6854F832604FF00C04A3EB050248
:102A2C004FF0800318BFA3EBC5043B2303EBC00995
:102A3C00D200002A0ADD0023E8000093002918BF09
:102A4C005042494620441023FEF7E2FDA5B344F260
:102A5C00B4683544C0F601080AE043EA8112861CCA
:102A6C00204649464346FDF7CFFD0444AE4223D0F1
:102A7C00304616F9011BB1F1FF3FCAB2F0DC4378C6
:102A8C0002F01F01E02A03F03F03E6D38678F02A18
:102A9C0006F03F0646EA83130AD3C27801F0070119
:102AAC00061D02F03F0242EA831242EA8142D7E756
:102ABC0043EA0132C61CD3E702B0BDE8000BF0BDFF
:102ACC000EF094F908210EF091F918460EF08EF9DB
:102ADC0010460EF08BF9F0B503AF2DE9000F81B065
:102AEC00C16B00295DD0D0F8388000F120064FEA88
:102AFC0081094B244FF0000A58F8040BA4F1220171
:102B0C001023D0F800B08068CDF800A0C2000A20D5
:102B1C00FEF77EFDA4F112010A2078220223CDF8E3
:102B2C0000A0FEF775FDA4F110050A200222102367
:102B3C002946CDF800A0FEF76BFD80202946022225
:102B4C001023CDF800A0FEF763FD0A202146782261
:102B5C000223CDF800A0FEF75BFD40F28B108442FF
:102B6C0023D0DBF804103078814220D9DBF8001038
:102B7C0010239BF8082001EBC000002A4FF08002C4
:102B8C0041684FF00C00CDF800A018BFA2EBC100BB
:102B9C00CA002946FEF73CFD28340136B9F1040978
:102BAC00AAD101B0BDE8000FF0BD082008210EF03D
:102BBC001DF9F0B503AF2DE9000F8BB00C4644F6B0
:102BCC00A851064600201546B064C0F601013046F7
:102BDC00C6E90E45FFF715F840F2240943F2080A3E
:102BEC0004EB8500C4F20009C4F2010A4FF0070B94
:102BFC004FF001080022CDE9010606F120000390F8
:102C0C0006E0079A049C01980132844200F0D982B4
:102C1C0054F8043B0020039904940792885402EB67
:102C2C0082009968CDE90503002900F045810698DA
:102C3C002922059B4FF00A0C406802EBC302099253
:102C4C000144089102460EE040F618404FF48041D2
:102C5C00C4F202000CF1080C01600A9A0898824236
:102C6C00104600F0298112F9011BB1F1FF3FCEB2E1
:102C7C001FDC427806F01F01E02E02F03F0211D358
:102C8C008378F02E03F03F0343EA82120ED3C3780D
:102C9C0001F0070103F03F0343EA821242EA814646
:102CAC00021D06E042EA8116821C02E042EA01366D
:102CBC00C21C099960460A92082210236446FDF74B
:102CCC009DFD4FF60060B52ECFF6FF7000EB0610A1
:102CDC0008BF4FF4C060202E38BF4FF4BE60B0F573
:102CEC00046F00F2728243F674610023C0F6010196
:102CFC000A18C0F50461A44602E00133102BA3D0DE
:102D0C00002602E00136082EF7D003EBD6008842ED
:102D1C0080F05582105C2BEA0605D9F8004008FAC1
:102D2C0005F52840D9F800502D1B592D0ED8D9F88F
:102D3C0000502D1B592D9EBFD9F800502D1B592D1D
:102D4C0004D8D9F800502D1B5A2DEBD3DAF80050CB
:102D5C00AD070CD4DAF80050AD075CBFDAF80050C0
:102D6C005FEA857503D4DAF80050AD07EED500287C
:102D7C0018BFFF20CAF80400DAF80050ED070CD198
:102D8C00DAF80050ED0704BFDAF800505FEAC575B9
:102D9C0003D1DAF80050ED07EED0DAF800502D062A
:102DAC000CD5DAF800502D0644BFDAF800505FEA73
:102DBC00056503D5DAF800502D06EED4DAF8045088
:102DCC00D9F80040D9F800502D1B592D0ED8D9F840
:102DDC0000502D1B592D9EBFD9F800502D1B592D7D
:102DEC0004D8D9F800502D1B5A2DEBD3D9F800403C
:102DFC00D9F800502D1B592D0ED8D9F800502D1B89
:102E0C00592D9EBFD9F800502D1B592D04D8D9F837
:102E1C0000502D1B5A2DEBD3DAF80050AD070CD413
:102E2C00DAF80050AD075CBFDAF800505FEA857540
:102E3C0003D4DAF80050AD07EED5CAF80400DAF87E
:102E4C000000C0070CD1DAF80000C00704BFDAF8A4
:102E5C0000005FEAC07003D1DAF80000C007EED0C2
:102E6C00DAF8000000060CD5DAF80000000644BFC2
:102E7C00DAF800005FEA006003D5DAF8000000061B
:102E8C00EED4DAF80400D9F80000D9F800502D1A65
:102E9C00592D3FF637AFD9F800502D1A592D9EBF3A
:102EAC00D9F800502D1A592D3FF62CAFD9F80050F7
:102EBC002D1A5A2DE9D325E70598079AC4000298D4
:102ECC0004F13901806C824220D140F21F460A2065
:102EDC00782202230096FEF79BFB04F13B050A20A7
:102EEC000222102329460096FEF792FB80202946E9
:102EFC00022210230096FEF78BFB04F14B010A20F3
:102F0C00782202230096FEF783FB04E00846782122
:102F1C001422FEF73AFC069801684868002800F075
:102F2C00588108684268002A3FF46BAE006804F1CF
:102F3C003B03097A4FF00C0C099383180029089372
:102F4C004FF0800118BFA1EBC20C02460EE040F618
:102F5C0018404FF48041C4F202000CF1080C0160DF
:102F6C000A9A0898824210463FF44BAE12F9011BA4
:102F7C00B1F1FF3FCEB21FDC427806F01F01E02E0C
:102F8C0002F03F0211D38378F02E03F03F0343EAA3
:102F9C0082120ED3C37801F0070103F03F0343EA1A
:102FAC00821242EA8146021D06E042EA8116821C28
:102FBC0002E042EA0136C21C099960460A920822D4
:102FCC0010236446FDF71AFC4FF60060B52ECFF6C1
:102FDC00FF7000EB061008BF4FF4C060202E38BF06
:102FEC004FF4BE60B0F5046F00F2EF8043F67461ED
:102FFC000023C0F601010A18C0F50461A44602E0E2
:10300C000133102BA3D0002602E00136082EF7D096
:10301C0003EBD600884280F0D280105C2BEA0605C8
:10302C00D9F8004008FA05F52840D9F800502D1BB6
:10303C00592D0ED8D9F800502D1B592D9EBFD9F8FB
:10304C0000502D1B592D04D8D9F800502D1B5A2D8A
:10305C00EBD3DAF80050AD070CD4DAF80050AD071A
:10306C005CBFDAF800505FEA857503D4DAF80050DB
:10307C00AD07EED5002818BFFF20CAF80400DAF817
:10308C000050ED070CD1DAF80050ED0704BFDAF868
:10309C0000505FEAC57503D1DAF80050ED07EED0A9
:1030AC00DAF800502D060CD5DAF800502D0644BF86
:1030BC00DAF800505FEA056503D5DAF800502D0602
:1030CC00EED4DAF80450D9F80040D9F800502D1B92
:1030DC00592D0ED8D9F800502D1B592D9EBFD9F85B
:1030EC0000502D1B592D04D8D9F800502D1B5A2DEA
:1030FC00EBD3D9F80040D9F800502D1B592D0ED820
:10310C00D9F800502D1B592D9EBFD9F800502D1BFE
:10311C00592D04D8D9F800502D1B5A2DEBD3DAF8C1
:10312C000050AD070CD4DAF80050AD075CBFDAF8EC
:10313C0000505FEA857503D4DAF80050AD07EED580
:10314C00CAF80400DAF80000C0070CD1DAF8000065
:10315C00C00704BFDAF800005FEAC07003D1DAF8E8
:10316C000000C007EED0DAF8000000060CD5DAF843
:10317C000000000644BFDAF800005FEA006003D5E7
:10318C00DAF800000006EED4DAF80400D9F80000F2
:10319C00D9F800502D1A592D3FF637AFD9F80050F9
:1031AC002D1A592D9EBFD9F800502D1A592D3FF6C6
:1031BC002CAFD9F800502D1A5A2DE9D325E70DF074
:1031CC0015FE0BB0BDE8000FF0BD4FF404610EF01E
:1031DC005AFB002000210DF009FED4D4F0B503AF4A
:1031EC002DE9000782B04FF0FF3252FA81F1052928
:1031FC0042D8DFE801F00358459441AE856C4FF09E
:10320C00390AC46B8046142205EB85010AEBC10117
:10321C0008467821FEF7B9FA40F21F49002DCDF887
:10322C00009018BF2C46661E0A207822022306EB5B
:10323C0086050AEBC501FEF7EBF93B2000EBC50454
:10324C000A20022221461023CDF80090FEF7E0F967
:10325C008020214602221023CDF80090FEF7D8F9E9
:10326C004B2000EBC5010A2078220223CDF80090F8
:10327C00FEF7CEF9C8F8486002B0BDE80007F0BD13
:10328C00826C072A6DD8C16B8A426ED2866B00F1B4
:10329C002003995C56F8226000293668367918BFED
:1032AC000E46013E4DE0C16B4FF03908826C01397E
:1032BC00541A4FF0780118BF541C846402EB82003E
:1032CC00142208EBC000FEF760FA04EB840640F20F
:1032DC001F450A20782208EBC60102230095FEF751
:1032EC0097F93B2000EBC6040A200222214610234A
:1032FC000095FEF78DF980202146022210230095BF
:10330C00FEF786F94B2000EBC6010A207822022337
:10331C000095FEF77DF902B0BDE80007F0BD826CA8
:10332C00072A1ED8C16B8A421FD2866B00F120037C
:10333C00995C56F8226036687668013E761A18BF9A
:10334C004E1C9E5402B0BDE80007BDE8F040FFF7EC
:10335C003CBB002102B0BDE80007BDE8F040FEF721
:10336C00CDBC104608210DF041FD10460DF03EFD80
:10337C00F0B503AF2DE9000F8DB04D7C06ACCDE957
:10338C00011000200A9004F1050ACDE9080004F1AF
:10339C000408CDE90600A81EE61C04F1020BC1B21C
:1033AC00052928BF0220C0B204F1010904F114035D
:1033BC00DFE810F0820205006C009D0039000198D6
:1033CC00002147F8201C01258DF818500068059342
:1033DC00410081EAE07007F8210CC10900F0A181DD
:1033EC0040F0800207F8212C820B07F8201C00F01B
:1033FC00C18041F0800107F8201C410D07F81F2CFB
:10340C0000F0BF80000F42F0800207F81E1C07F886
:10341C001F2C00F08581052507F81D0C41F080005C
:10342C0007F81E0C7DE1019804218DF8181000217D
:10343C0047F8201C0068410081EAE07007F8210C75
:10344C00C10900F0878040F0800207F8212C820B24
:10345C0007F8201C00F0868041F0800107F8201C42
:10346C00410D07F81F2C00F08780000F42F08002FE
:10347C0007F81E1C07F81F2C00F08880052207F89F
:10348C001D0C41F0800007F81E0C80E00198022111
:10349C008DF818104FF0000847F8208C0068410098
:1034AC0081EAE07007F8210CC10955D040F0800288
:1034BC0007F8212C820B07F8201C55D041F0800115
:1034CC0007F8201C410D07F81F2C57D0AA46000FF7
:1034DC0042F0800207F81E1C07F81F2C5BD0052653
:1034EC0007F81D0C41F0800007F81E0C54E0019801
:1034FC0003218DF818104FF00008D0E9000647F8AA
:10350C00208C410081EAE07007F8210CC10926D01B
:10351C0040F0800207F8212C820B07F8201C26D0E3
:10352C0041F0800107F8201C410D07F81F2C2AD010
:10353C009A46000F42F0800207F81E1C07F81F2C59
:10354C0000F02C81052507F81D0C41F0800007F8D0
:10355C001E0C24E101221AE0AA4601261CE09A4620
:10356C0001251CE1022212E0AA46022614E09A462A
:10357C00022514E10225D4E0032208E0AA46032622
:10358C000AE00325CDE09A46032508E10422A7F1C1
:10359C00210148468EE10426A7F121014846324616
:1035AC000FF0FCFA0198013647F8208C4068410076
:1035BC0081EAE071A01907F8211CCA091FD041F05B
:1035CC00800307F8213C8B0B07F8202C19D042F014
:1035DC00800207F8202C4A0D07F81F3C13D0090F66
:1035EC0043F0800307F81E2C07F81F3C0DD005256F
:1035FC0007F81D1C42F0800107F81E1C06E001258F
:10360C0004E0022502E0032500E00425A7F12101D6
:10361C002A460FF0C3FA01982E4447F8208C806894
:10362C00410081EAE071A01907F8211CCA091FD0DA
:10363C0041F0800307F8213C8B0B07F8202C19D0A4
:10364C0042F0800207F8202C4A0D07F81F3C13D0DB
:10365C00090F43F0800307F81E2C07F81F3C0DD010
:10366C00052507F81D1C42F0800107F81E1C06E01A
:10367C00012504E0022502E0032500E00425A7F162
:10368C0021012A460FF08AFA01982E4447F8208C23
:10369C00C068410081EAE07007F8210CC1091FD015
:1036AC0040F0800207F8212C820B07F8201C19D05F
:1036BC0041F0800107F8201C410D07F81F2C13D096
:1036CC00000F42F0800207F81E1C07F81F2C0DD0CB
:1036DC00052507F81D0C41F0800007F81E0C06E0CC
:1036EC00012504E0022502E0032500E00425C6F1D3
:1036FC00140085420FD8A019A7F121012A460FF01A
:10370C004DFAA81914281FBF0199097C21540130C6
:10371C0018BF142801D10EF058FA04F800A0CBE021
:10372C000425A7F1210148462A460FF037FA0198E3
:10373C00002147F8201C01354068410081EAE07106
:10374C00601907F8211CCA0920D041F0800307F842
:10375C00213C8B0B07F8202C1AD042F0800207F882
:10376C00202C4A0D07F81F3C15D0090F43F080039D
:10377C0007F81E2C07F81F3C50D007F81D1C42F010
:10378C0080010522D14607F81E1C49E0012247E0C2
:10379C000222D94644E00322B14641E00425A7F1B8
:1037AC00210148462A460FF0F9F9700080EAE671CB
:1037BC0009EB050007F8211CCA0947F8208C21D019
:1037CC0041F0800307F8213C8B0B07F8202C1DD00F
:1037DC0042F0800207F8202C4A0D07F81F3C19D044
:1037EC00090F43F0800307F81E2C07F81F3C55D037
:1037FC0007F81D1C42F0800107F81E1C0522AAEBDD
:10380C00000152E00122AAEB00014EE00222AAEBD9
:10381C0000014AE00322AAEB000146E00422C14663
:10382C00A7F121010FF0BAF9019A107B91680538C4
:10383C0009F8050009EB0500B2F80D20A0F80120ED
:10384C000022033047F8202CCA0907F8211C1FD08E
:10385C0041F0800307F8213C8B0B07F8202C19D082
:10386C0042F0800207F8202C4A0D07F81F3C13D0B9
:10387C00090F43F0800307F81E2C07F81F3C11D0EA
:10388C0007F81D1C42F08001052207F81E1C0AE0F7
:10389C00012208E0022206E0032204E00422AAEB43
:1038AC00000102E004220599091A8A423FF633AF5F
:1038BC00A7F121010FF072F943F6104040F22311E9
:1038CC0048F6AB12C4F20200C4F26751CCF6EF52C8
:1038DC0040F80C1C40F80C2C0368B3F1FF3F40F38C
:1038EC004E83029B4FF60445CFF6FE751B7E066891
:1038FC000C2B06EA05064FF0200505EBC30538BF77
:10390C00DD00EBB2334443F4803343F00203036035
:10391C0050F8043CDB030CD550F8043CDB0344BFEB
:10392C0050F8043C5FEAC33303D550F8043CDB0386
:10393C00EED450F8043C036843F00043036040F8B5
:10394C000C1C40F80C2C0168B1F1FF3F40F31783BD
:10395C000121049102990E690021059105E050F8AE
:10396C00041C11F0F20F40F092800499002900F031
:10397C008A80016840F2033206F00F039143C3F1D1
:10398C00100201310160DDF8149006F1006104921F
:10399C0083F00F0204EB0905C3F10E0AC3F10D0B02
:1039AC0000230396059C04EB030CBCF1140F2CD0E4
:1039BC00EC5C9A42CC542ED0BCF1130432D005EB03
:1039CC00030E01EB03089A459EF8014088F801406C
:1039DC002CD0BCF112042DD09EF802409B4588F8E7
:1039EC0002402ED0BCF1110432D09EF803400436B4
:1039FC0088F8034009F10409049C04339C42D1D19A
:103A0C00039E05991E44194427E0039E1421CDE919
:103A1C0004311E4422E009F1010105910399194476
:103A2C004E1C1BE0013643F0010114E009F10201C8
:103A3C00023612E043F002010491039919448E1CE2
:103A4C000AE009F10301059103991944CE1C05E024
:103A5C00033643F0030104911421059106AC50F890
:103A6C00041CC9037FF57BAF50F8041CC90344BF89
:103A7C0050F8041C5FEAC1317FF571AF50F8041C9B
:103A8C00C903ECD46BE7016821F001010160016806
:103A9C0045F2210C4FF0000AC0F6010C41F0004138
:103AAC000160019C43F62C0002994FF007084FF07F
:103ABC000109084494E86E006EC0242543F2080600
:103ACC00C4F20005C4F20106002103E003990529A4
:103ADC0000F04D8201EB81004FF0C80B40420023F7
:103AEC00013103910BEB4000049010E040F61840BC
:103AFC004FF48041C4F2020045F2210C01600BF13D
:103B0C00080B059BC0F6010C132B00F00D811CF962
:103B1C000310581CB1F1FF3FCCB201DD059025E03C
:103B2C001CF800009A1CE02C00F03F0104F01F0070
:103B3C0016D31CF80220F02C02F03F0242EA81114D
:103B4C0003F103020FD31CF8022000F0070004332A
:103B5C00059302F03F0242EA811141EA804405E0FC
:103B6C0041EA801401E041EA003405920499584678
:103B7C0008221023FCF742FE4FF60060B52CCFF65E
:103B8C00FF7000EB041008BF4FF4C060202C38BF4E
:103B9C004FF4BE60B0F5C06F00F2E58144F22F71B6
:103BAC004FF0000EC0F6010101EB000CC0F5C06136
:103BBC0004E00EF1010EBEF1100F97D0002402E0CC
:103BCC000134082CF5D00EEBD400884280F0C9816A
:103BDC001CF8000028EA04032A6809FA03F31840C9
:103BEC002B689B1A592B0BD82B689B1A592B9EBFF1
:103BFC002B689B1A592B03D82B689B1A5A2BEFD383
:103C0C003268920709D4326892075CBF32685FEA67
:103C1C00827202D432689207F2D50246002818BF8D
:103C2C004FF4E0624FEA1222726018BF4FF4FC604E
:103C3C003268D20709D13268D20704BF32685FEA12
:103C4C00C27202D13268D207F2D03268120609D59C
:103C5C003268120644BF32685FEA026202D53268EB
:103C6C001206F2D472682A682B689B1A592B0BD84F
:103C7C002B689B1A592B9EBF2B689B1A592B03D868
:103C8C002B689B1A5A2BEFD32A682B689B1A592B3B
:103C9C000BD82B689B1A592B9EBF2B689B1A592B40
:103CAC0003D82B689B1A5A2BEFD33268920709D48E
:103CBC00326892075CBF32685FEA827202D4326863
:103CCC009207F2D500F0E00070603068C00709D1AF
:103CDC003068C00704BF30685FEAC07002D130683A
:103CEC00C007F2D03068000609D53068000644BF22
:103CFC0030685FEA006002D530680006F2D4706864
:103D0C0028682A68121A592A3FF65AAF2A68121ADA
:103D1C00592A9EBF2A68121A592A3FF651AF2A68AF
:103D2C00121A5A2AEDD34BE728684AF62022C0F221
:103D3C0044022968091A91420BD22968091A914246
:103D4C003EBF2968091A914203D22968091A914287
:103D5C00EFD300234FF0C80B0CE040F618404FF4A3
:103D6C008041C4F202000BF1080B0160059B132B80
:103D7C003FF4ACAE1CF90310581CB1F1FF3FCCB2B0
:103D8C0001DD059025E01CF800009A1CE02C00F0E9
:103D9C003F0104F01F0016D31CF80220F02C02F097
:103DAC003F0242EA811103F103020FD31CF80220F7
:103DBC0000F007000433059302F03F0242EA811140
:103DCC0041EA804405E041EA801401E041EA003414
:103DDC0005920499584608221023FCF70FFD4FF664
:103DEC000060B52CCFF6FF7000EB041008BF4FF449
:103DFC00C060202C38BF4FF4BE60B0F5C06F00F22D
:103E0C00B28045F2210CC0F5C0610022C0F6010C55
:103E1C0002E00132102AA0D0002302E00133082B6B
:103E2C00F7D002EBD300884280F09B8028682C6886
:103E3C00241A592C0BD82C68241A592C9EBF2C6888
:103E4C00241A592C03D82C68241A5A2CEFD3306816
:103E5C00800709D4306880075CBF30685FEA8070E7
:103E6C0002D430688007F2D5C6F804A03068C007C9
:103E7C0009D13068C00704BF30685FEAC07002D156
:103E8C003068C007F2D03068000609D530680006EB
:103E9C0044BF30685FEA006002D530680006F2D497
:103EAC00706828682C68241A592C0BD82C68241A92
:103EBC00592C9EBF2C68241A592C03D82C68241A10
:103ECC005A2CEFD328682C68241A592C0BD82C6840
:103EDC00241A592C9EBF2C68241A592C03D82C68F0
:103EEC00241A5A2CEFD33068800709D43068800725
:103EFC005CBF30685FEA807002D430688007F2D50E
:103F0C00C6F804A03068C00709D13068C00704BFE8
:103F1C0030685FEAC07002D13068C007F2D03068F8
:103F2C00000609D53068000644BF30685FEA0060BF
:103F3C0002D530680006F2D4706828682C68241A00
:103F4C00592C3FF66BAF2C68241A592C9EBF2C6849
:103F5C00241A592C3FF662AF2C68241A5A2CEDD334
:103F6C005CE70CF043FF4FF4C0610DF08CFC029841
:103F7C000021FDF7C3FE0DB0BDE8000FF0BD3120F0
:103F8C000DF047FBF0B503AF4DF8048DA0B0002148
:103F9C0010221428069201AACDE90311CDE90111D2
:103FAC000791059200F29A8014AB0C9340F24723D0
:103FBC0045F23C66C0F60003C0F60106119312AB45
:103FCC00109341F29573C0F6010302220F9345F250
:103FDC00C013C0F6010303EBC0000E90037945F249
:103FEC004860C0F601000D92099250F8230056F873
:103FFC002330ADF87020ADF86820CDE9123045F2D1
:10400C006C20C0F60100ADF8502008902020CAF6B4
:10401C00000000F16053CDE918104FF440301690B9
:10402C000EA843F644610B920A9005A808AA1F93A8
:10403C000123C0F601011E930DF0EFFA002848D1C0
:10404C00DDE906128A4246D8059914A80DF075FCD4
:10405C00149801283DD01698B8B3159D44F2B46855
:10406C001A24C0F601082E180BE043EA8112851CB5
:10407C0020464FF495714346FCF7C6FA0444B5420A
:10408C0023D0284615F9011BB1F1FF3FCAB2EFDC72
:10409C00437802F01F01E02A03F03F03E5D3857853
:1040AC00F02A05F03F0545EA83130AD3C27801F0E4
:1040BC000701051D02F03F0242EA831242EA8142E7
:1040CC00D6E743EA0132C51CD2E720B05DF8048B79
:1040DC00F0BD0DF07AFD10460DF0D5FB15210CF05E
:1040EC0085FED4D4F0B503AF2DE9000F81B02DEDD2
:1040FC000A8BBCB0044641F2D8302058002800F09E
:10410C00768442F63010261841F26A7040F28E31F5
:10411C002044D6E900580FF079F941F6BF4040F23F
:10412C00C71120440FF072F942F2142040F28E3184
:10413C0020440FF0FFF942F2697040F2C71120449D
:10414C000FF064F941F686600596D6F8F86E2044B7
:10415C00079041F2DC30002E20440694099000F0C8
:10416C00E683069943F2580008440C9028460FF059
:10417C00B5F9044640460D460FF0B0F9721E2B46B9
:10418C00642A28BF64220132642E88BF64220A92FA
:10419C002246119410950FF025F99FEDAE8B9FEDF3
:1041AC00AF9B9FEDB0BB0B9001200F91002107E05E
:1041BC000E990A988142084638BF013080F0B783C7
:1041CC0063290E9000F2888501EB81000C990DF1AA
:1041DC00680B11F8202001EB800041681291816876
:1041EC000D91D0E903414078189140211390584625
:1041FC0019920FF09FF920460FF070F9DDE910329B
:10420C000FF0F0F853EC182BCDE916230EF0CCFC84
:10421C000B9E0F9B32460FF00CFA55EC19AB524625
:10422C002B460EF014FFB0EE491AF0EE691A41EC71
:10423C00100B0FF0D7FBB0EE481AF0EE681A0EF028
:10424C00ADFE54EC109B00202C904020CDE92AB000
:10425C00484621460FF0C5F983464846214652464A
:10426C002B46CDF850A015950EF028FE80461898D8
:10427C000FF034F9DDE910320FF0B4F8DDE9162354
:10428C000EF092FC0F9B32460FF0D3F952462B46A0
:10429C000EF0DDFE5AEC1B6BB8F1000F41EC1A0B63
:1042AC004846214608BFC346324653460EF040FEF0
:1042BC00B0EE4A0A0028B0EE491A18BF4FF0FF3B87
:1042CC00F0EE6A0AF0EE691A0FF08CFBB0EE481AA9
:1042DC00F0EE681A0EF062FE54EC105B2846214694
:1042EC000FF07FF9DDE914238146284621460EF0B4
:1042FC00E5FD002808BF8146284621463246534634
:10430C000EF016FE002818BF4FF0FF39CDF85CB048
:10431C00199AA9EB0B040121DFE802F037063F06DE
:10432C000B5B6748A820720013992AA802F0C6F804
:10433C00BDE01398379100F001008DF8D0000020FB
:10434C0039913A9045F22460C0F6010036902EA8BF
:10435C00389041F6E730C0F601009AE00020379122
:10436C003A9045F22460C0F60100399136902EA89F
:10437C00389041F63960C0F601002F9034A82E9089
:10438C00139800F00100349086E044F22050C7F2FC
:10439C006D001A9047F6741022E013992AA802F0C7
:1043AC008DF8DDF81CB03026012084E013988DF8D0
:1043BC00D00000203A9045F23460C0F601003791ED
:1043CC0036902EA8389041F619403991C0F601006C
:1043DC005FE045F22030C6F274101A9047F272403A
:1043EC00ADF86C0006202C9061E045F22030C6F64A
:1043FC0074701A9070208DF86C0005202C9056E08B
:10440C0012982EAA2D9036A8329045F22460C0F650
:10441C00010033912E9041F68B50C0F601002F9184
:10442C0035902DA8349034A830902020CEF6001072
:10443C0031913B9000203A904FF4802043F6446138
:10444C0038900220C0F60101ADF8D8002AA829E066
:10445C0000BF00BF0000000000607C4000000000B6
:10446C00000000000000E0FFFFFFEF410D983590C9
:10447C001298349000203A9045F22460C0F6010066
:10448C00379136902EA8389040F247203991C0F6DB
:10449C0000002F9034A82E9043F644612AA836AA27
:1044AC00C0F601010DF0B9F8002840F0E083202699
:1044BC000020DDF824B0DDE92B18884500F2D98303
:1044CC00DDF8A8A04246129036A851460DF035FAF8
:1044DC003698012800F0CB83389800EBC00084425A
:1044EC0060D2179881457FF663AE179B40F2C710D8
:1044FC000BEB0302B3F5E47F28BF1846C11A0BEB94
:10450C00430302F6E60203F56573002900F0D68337
:10451C004FF6FF7523F8065C12F8035C05F00F05E7
:10452C00354302F8035C179D01354D453FF440AE11
:10453C00854200F0C3834FF6FF7523F8045C12F834
:10454C00025C05F00F05354302F8025C179D02353D
:10455C004D453FF42DAE854200F0B0834FF6FF750C
:10456C0023F8025C12F8015C05F00F05354302F8E4
:10457C00015C179D03354D453FF41AAE854200F0A2
:10458C009D834FF6FF75043923F8085B157805F009
:10459C000F05354302F8045B179D043517954D45FF
:1045AC00B3D105E61798814554D9179D40F2C71031
:1045BC000BEB0502B5F5E47F0BEB450328BF284652
:1045CC00411B02F6E60203F56573002900F07683C1
:1045DC004FF6FF7423F8064C12F8034C04F00F044A
:1045EC00344302F8034C6C1C4C4533D0844200F02D
:1045FC0065834FF6FF7423F8044C12F8024C04F058
:10460C000F04344302F8024CAC1C4C4522D08442BB
:10461C0000F054834FF6FF7423F8024C12F8014C4F
:10462C0004F00F04344302F8014CEC1C4C4511D03F
:10463C00844200F043834FF6FF74043523F8084B93
:10464C00043914784D4504F00F0444EA060402F8CA
:10465C00044BBAD136A8514642460DF06EF9369845
:10466C00012800F00483389900293FF4A1AD379854
:10467C000BF28E330BF6E30ECDF850E001441391A0
:10468C00064607E0159E083113981791864230466E
:10469C003FF48EAD16F9012BB2F1FF3FD1B21FDC06
:1046AC00467801F01F02E02906F03F0611D3857809
:1046BC00F02905F03F0545EA86160ED3C17802F0C5
:1046CC00070201F03F0141EA8611061D41EA8241D1
:1046DC0006E046EA8211861C02E046EA0231C61C5C
:1046EC000C01B52908BF4FF40064202938BF4FF4E2
:1046FC00FE64A4F50070B0F5C06F00F2BD8244F208
:10470C002F711596C0F60101084418904FF0000E59
:10471C001798C11D00F1060C451D061DC21C00F1A9
:10472C00020A00F1010B0846C4F500611991012140
:10473C00169005E00EF1010EBEF1100F00F0928004
:10474C00199C744500F0A18201FA0EF46FEA040979
:10475C00189C14F90E40B4F1FF3F17DD5FFA84F892
:10476C005FEA486424D45FEA88642ED45FEAC864A4
:10477C0038D45FEA087442D45FEA48744CD45FEAD8
:10478C00887456D45FEAC874D4D060E01798B0F53A
:10479C00E37F00F2938233F8101001EA090123F849
:1047AC001010012116985FFA84F85FEA4864DAD594
:1047BC00BBF5E37F00F2818233F81B4004EA090465
:1047CC0023F81B405FEA8864D0D5BAF5E37F00F28A
:1047DC006F8233F81A4004EA090423F81A405FEA9E
:1047EC00C864C6D5B2F5E37F00F26C8233F8124090
:1047FC0004EA090423F812405FEA0874BCD5B6F544
:10480C00E37F00F2468233F8164004EA090423F8E9
:10481C0016405FEA4874B2D5B5F5E37F00F23E82EC
:10482C0033F8154004EA090423F815405FEA88744C
:10483C00A8D5BCF5E37F00F2368233F81C4004EABD
:10484C00090423F81C405FEAC8743FF473AFB0F559
:10485C00E37F00F2338233F8104004EA090423F8B2
:10486C00104067E71799DDF850E011F1090F3FF69A
:10487C0009AFB1F5E37F55D80C461EF8011012981C
:10488C0001F0F00101440EF8041040F2C7118B4501
:10489C0048D01EF80B408A4504F0F00404440EF88E
:1048AC000B401FBF1EF80A1001F0F00101440EF876
:1048BC000A101CBF40F2C7118A4233D01EF80240C6
:1048CC008E4204F0F00404440EF802401FBF1EF8A0
:1048DC00061001F0F00101440EF806101CBF40F266
:1048EC00C7118D421ED01EF805208C4502F0F00237
:1048FC0002440EF805201FBF1EF80C1001F0F00149
:10490C0001440EF80C101EBF40F2C711169A8A42D1
:10491C0008D01EF8021001F0F00101440EF802104C
:10492C001799AFE6084640F2C7110CF05FFADDF8B4
:10493C00189041F2D830212109EB000409F1500004
:10494C000890099801F0A0FC0798322101F09CFC1A
:10495C002168059C0139199120684FD4199B0022BC
:10496C0000210491991801EBD1714910CE087C2ECD
:10497C0000F2AD81089E56F821608642049E98BFD5
:10498C000E46049694BF4A1C4B1E9A42EADD64689C
:10499C000022199D1999114401EBD1714910CB08D2
:1049AC007C2B00F29481089B53F82130A3422CBF3E
:1049BC000D464A1C199B28BF4B1E9A421993E9DDE0
:1049CC000EF08CFD804620460E460EF087FD42F61A
:1049DC003C1233464A440192424646EC1A8B0EF086
:1049EC0001FD049AAA4222D9019801F04CFF3CB077
:1049FC00BDEC0A8B01B0BDE8000FF0BD0EF06EFDF2
:104A0C00064660680D4641EC1A6B0EF067FD3246A7
:104A1C002B460EF0E7FC42F63C1241EC1B0B4A44D1
:104A2C000020019209F57F620292049006E041ECAD
:104A3C001B0B4A4402F57F600290199542F63C101C
:104A4C004946814401F57F609FEDA68B9FEDA79BA6
:104A5C009FEDA8CB0790002002E003980828C3D054
:104A6C0002460898DDF810A0069250F82A30500043
:104A7C00059002980678501C0390504619998A4567
:104A8C0038BF0130BAF57A7F80F0FA800D90184665
:104A9C0009960EF023FD53EC1A2BCDE917230EF0DB
:104AAC00A1FC53EC182BCDE915230EF07DF853EC3B
:104ABC001B2BCDE913230EF0BCFD58EC19BB5A4649
:104ACC0043460EF0C4FAB0EE491AF0EE691A41EC06
:104ADC00100B0EF087FFB0EE481AF0EE681A0EF0CD
:104AEC005DFA56EC105B079810F80A000A901195C5
:104AFC001296284631460EF074FD0446284631467F
:104B0C005A464346CDF838B0CDF83C800EF0D6F975
:104B1C0010900898CDF830A050F82A000B900EF0A9
:104B2C00DDFCDDE917230EF05DFCDDE915230EF04D
:104B3C003BF8DDE913230EF07CFD5A4643460EF09C
:104B4C0086FAB0EE491AF0EE691A41EC100B0EF031
:104B5C0049FFB0EE481AF0EE681A0EF01FFA55EC49
:104B6C001CAB10985BEC108B002808BF0446DDE9E9
:104B7C00110152462B460EF0DBF9002840465946EF
:104B8C0018BF4FF0FF340EF02CFDDDE90E23064666
:104B9C00404659460EF092F9002808BF064640469A
:104BAC00594652462B460EF0C3F9002818BF4FF059
:104BBC00FF36B4420DD90C9819990B9B88420D986D
:104BCC00BFF44BAF199982460A9E88427FF656AFC6
:104BDC0043E709980699C043C0B2C840059900F054
:104BEC0001000843012101FA00F0B4F5E37F39D844
:104BFC0039F81410B44241EA000129F8141038BFF6
:104C0C000134D8D2B442D6D8B4F5E37F2AD839F8D7
:104C1C001410B44241EA000129F8141038BF0134D1
:104C2C00C9D2B442C7D8B4F5E37F1BD839F81410F5
:104C3C00B44241EA000129F8141038BF0134BAD249
:104C4C00B442B8D8B4F5E37F0CD839F81410B44298
:104C5C0041EA000129F8141038BF0134ABD2B44238
:104C6C00C3D9A8E7204640F2C7110CF0BFF80CF0EE
:104C7C00ACFF40460CF007FE4FF4C0610CF003FE95
:104C8C0050464FF47A710CF0B1F8199801460CF0BB
:104C9C00ADF8304640F2C7110CF0A8F8284640F2A7
:104CAC00C7110CF0A3F8604640F2C7110CF09EF847
:104CBC00504640F2C7110CF099F8584640F2C71113
:104CCC000CF094F8104640F2C7110CF08FF808461F
:104CDC004FF47A710CF08AF8642064210CF086F899
:104CEC0000BF00BF0000000000607C40000000001E
:104CFC00000000000000E0FFFFFFEF41F0B503AF44
:104D0C002DE9000FA3B042F6301141F2D83246180B
:104D1C0082584558D6F804A062B1511EB2F57A7F7C
:104D2C0000F25284503050F8218096F8240F0496EB
:104D3C0040B1F5E14FF0000896F8240F04960028D6
:104D4C0040F0EE8145F2BC5143F2080B45F2D429F8
:104D5C00CDF80CA040F2240AC0F6010101F10800C4
:104D6C00CDE901854FF001084FF49174C4F2000AAB
:104D7C00C4F2010BC0F601090122012586F8248F2B
:104D8C0011E045F2BC500022C0F60100032D38BFE3
:104D9C000122069920301834814201F1080018BF15
:104DAC00013500F0B081D1E900611029CDE9052071
:104DBC00CDE9075437D2002900F075818A084FF0ED
:104DCC00000000F081810B9102F0030106F1010E4D
:104DDC006FF00303A0EB810C0EEB0304043394F986
:104DEC00031094F9065094F9052011F1410F94F930
:104DFC000440C8BF01300CEB030114F1410FC8BFD4
:104E0C00013012F1410FC8BF013015F1410FC8BF7D
:104E1C0001300431E0D1089C1D1D0B9911F00302E7
:104E2C0040F0588104E030460D460CF0DFF829467E
:104E3C00C0F1030031440991314600EB400004EB12
:104E4C0040030EE040F618404FF48041C4F20200DB
:104E5C0001600B9BDDE9090106330E46814200F02F
:104E6C00228111F9010BB0F1FF3FC5B21FDC717843
:104E7C0005F01F00E02D01F03F0111D3B278F02DA9
:104E8C0002F03F0242EA81110ED3F27800F00700E3
:104E9C0002F03F0242EA811141EA8045311D06E0F1
:104EAC0041EA8015B11C02E041EA0035F11CCDE964
:104EBC000A1318460E2105220723FBF79FFC05EB6E
:104ECC008500B52DA0F1A00140F2E51008BF4FF40C
:104EDC00F071202D38BF40F2DB11421A4FF0000C5C
:104EEC0038BF624602E0BCF1070FABD00CF00700F4
:104EFC000CF1010C002508FA00F601E0052DF2D0AA
:104F0C006818954200F05A83DAF80040013519F818
:104F1C000000DAF800301B1B592B0ED8DAF80030E1
:104F2C001B1B592B9EBFDAF800301B1B592B04D8C6
:104F3C00DAF800301B1B5A2BEBD3DBF800309B0745
:104F4C000CD4DBF800309B075CBFDBF800305FEA69
:104F5C00837303D4DBF800309B07EED5304018BFC9
:104F6C00FF20CBF80400DBF80030DB070CD1DBF8BA
:104F7C000030DB0704BFDBF800305FEAC37303D1FA
:104F8C00DBF80030DB07EED0DBF800301B060CD56D
:104F9C00DBF800301B0644BFDBF800305FEA03632C
:104FAC0003D5DBF800301B06EED4DBF80430DAF85E
:104FBC000040DAF800301B1B592B0ED8DAF8003001
:104FCC001B1B592B9EBFDAF800301B1B592B04D826
:104FDC00DAF800301B1B5A2BEBD3DAF80040DAF866
:104FEC0000301B1B592B0ED8DAF800301B1B592B29
:104FFC009EBFDAF800301B1B592B04D8DAF80030AE
:10500C001B1B5A2BEBD3DBF800309B070CD4DBF8C3
:10501C0000309B075CBFDBF800305FEA837303D47E
:10502C00DBF800309B07EED5CBF80400DBF8000072
:10503C00C0070CD1DBF80000C00704BFDBF8000090
:10504C005FEAC07003D1DBF80000C007EED0DBF8DC
:10505C00000000060CD5DBF80000000644BFDBF8AE
:10506C0000005FEA006003D5DBF800000006EED418
:10507C00DBF80400DAF80000DAF800301B1A592BC0
:10508C003FF63CAFDAF800301B1A592B9EBFDAF80A
:10509C0000301B1A592B3FF631AFDAF800301B1ACF
:1050AC005A2BE9D32AE70598DDE90754C0073FF4EA
:1050BC0068AE45F2BC4304F1120006212E22C0F664
:1050CC000103FBF7A1FA5CE60025089C11F0030232
:1050DC003FF4AEAE735713F1410FC8BF0130012A34
:1050EC003FF4A6AE354495F9013013F1410FC8BF1A
:1050FC000130022A3FF49CAE95F9022012F1410FC7
:10510C00C8BF013094E64FF6FF700E210090A0202E
:10511C0078220123FCF77CFADDE903A6DDE90185A1
:10512C004FF47A704FF03032A5FB00010E92CDE9AE
:10513C000C220C2210920CAA00240F925A2200234B
:10514C0011940EF08BFCCDE9120101201A901DA9CF
:10515C00169015AA189041F67540C0F601001991E9
:10516C001C9012A81B901BA817903020CAF60000A8
:10517C0044F68851CDE921404FF44020C0F601019E
:10518C001F900220159143F64461ADF874000FA8EE
:10519C00C0F601010CF041FA002840F013829DF892
:1051AC00302096F8180F904240F0BE809DF83120C8
:1051BC0096F8190F904240F0C9809DF8322096F86D
:1051CC001A0F904240F0D4809DF8332096F81B0FB4
:1051DC00904240F0DF809DF8342096F81C0F9042EE
:1051EC0040F0EA809DF8352096F81D0F904240F073
:1051FC00F5809DF8362096F81E0F904240F0008105
:10520C009DF8372096F81F0F904240F00B819DF8C7
:10521C00382096F8200F904240F016819DF83920E6
:10522C0096F8210F904240F021819DF83A2096F893
:10523C00220F904240F02C819DF83B2096F8230FD2
:10524C00904240F03781B8F1000F00F042812846BF
:10525C000EF044F9044640460D460EF03FF98146E7
:10526C008846204629464A4643460EF0E2F99FED11
:10527C00D90B55EC104B22462B460DF095FCCDE985
:10528C000A1050460EF02AF94A4643460EF0D1F960
:10529C0022462B460DF088FC05468A460EF0A1F9F5
:1052AC009FEDCE0B83462846514656EC109B4A4642
:1052BC0033460DF003FE9FEDCB0B0028514653EC0B
:1052CC00104B099308BF8346284622460DF030FE4A
:1052DC00002818BF4FF0FF3B7720BBF1770F28BF9A
:1052EC008346DDF82CA0DDF82880504641460EF0B0
:1052FC0078F90546504641464A4633460DF0DEFDE8
:10530C00002808BF0546099B5046414622460DF031
:10531C000FFE002818BF4FF0FF35772D4FF07700A8
:10532C0028BF0546049ED7E045F2BC434FF491706C
:10533C00C0F60103062186F8182FFBF765F99DF8D6
:10534C00312096F8190F90423FF437AF45F2BC4329
:10535C004FF49470C0F60103062186F8192FFBF761
:10536C0053F99DF8322096F81A0F90423FF42CAF67
:10537C0045F2BC434FF49770C0F60103062186F842
:10538C001A2FFBF741F99DF8332096F81B0F90422A
:10539C003FF421AF45F2BC434FF49D70C0F60103BE
:1053AC00062186F81B2FFBF72FF99DF8342096F871
:1053BC001C0F90423FF416AF45F2BC434FF4A07063
:1053CC00C0F60103062186F81C2FFBF71DF99DF88A
:1053DC00352096F81D0F90423FF40BAF45F2BC43BD
:1053EC004FF4A370C0F60103062186F81D2FFBF7BE
:1053FC000BF99DF8362096F81E0F90423FF400AF43
:10540C0045F2BC434FF4A970C0F60103062186F89F
:10541C001E2FFBF7F9F89DF8372096F81F0F9042D6
:10542C003FF4F5AE45F2BC434FF4AC70C0F601034B
:10543C00062186F81F2FFBF7E7F89DF8382096F821
:10544C00200F90423FF4EAAE45F2BC434FF4AF70EC
:10545C00C0F60103062186F8202FFBF7D5F89DF83E
:10546C00392096F8210F90423FF4DFAE45F2BC4351
:10547C004FF4B570C0F60103062186F8212FFBF717
:10548C00C3F89DF83A2096F8220F90423FF4D4AE20
:10549C0045F2BC434FF4B870C0F60103062186F800
:1054AC00222FFBF7B1F89DF83B2096F8230F904282
:1054BC003FF4C9AE45F2BC434FF4BB70C0F60103D8
:1054CC00062186F8232FFBF79FF8B8F1000F7FF425
:1054DC00BEAE00254FF0000BD6F810AFAA4518BF92
:1054EC00DA4513D0BAF1780F10D20AF1A0080024D3
:1054FC0009210122404605230094FCF789F8404617
:10550C000F21012205230094FCF782F8D6F8144FE2
:10551C00AC4219D05C4518BF544515D0772C13D824
:10552C0004F1A0084FF0000909210122404605238F
:10553C00CDF80090FCF76CF840460F2101220523B2
:10554C00CDF80090FCF764F8AA4518BFAC4213D014
:10555C0005F1A0084FF6FF790921012240460523E9
:10556C00CDF80090FCF754F840460F21012205239A
:10557C00CDF80090FCF74CF8DA4517D0AB4518BFC6
:10558C005C4513D00BF1A0044FF6FF7809210122E2
:10559C0020460523CDF80080FCF73AF820460F2171
:1055AC0001220523CDF80080FCF732F8C6F8105F15
:1055BC00C6F814BF23B0BDE8000FF0BD40F2E511F2
:1055CC000BF014FC0CF001FB08464FF47A710BF055
:1055DC000DFC00BF0000000000C05D40000000009A
:1055EC00000000000000E0FFFFFFEF41F0B503AF4B
:1055FC002DE9000F8DB045F2DC410E22C0F6010101
:10560C008146FCF777F944F690514846C0F6010103
:10561C00FCF7F7FA00204FF6FF74C9F8440040F28B
:10562C00C110002101221E23D9F840A00094FBF7E1
:10563C00EFFF44F2B4684FF0FF36C0F60108BAF140
:10564C00000FCDF8008008BF40F21F464FF4C57024
:10565C000721A22233464FF0FF35FAF7D8FE4FF45C
:10566C00C9700721A3223346CDF80080FAF7CFFE8C
:10567C004FF4D170002101221E230094FBF7C8FFC8
:10568C004FF0FF36CDF80080BAF1010F08BF40F2A1
:10569C001F4640F2A910072188223346FAF7B7FEBD
:1056AC0040F2B110072189223346CDF80080FAF779
:1056BC00AEFE40F28310002101221E230094FBF762
:1056CC00A7FFCDF80080BAF1020F08BF40F21F45CA
:1056DC004FF4E470072196222B46FAF798FE4FF40C
:1056EC00E870072197222B46CDF80080FAF78FFE41
:1056FC000C20512130224346FAF786FF002051211D
:10570C00192201230094FBF783FF0C206B2131221B
:10571C004346FAF779FF00206B21192201230094EC
:10572C00FBF776FF0C20852132224346FAF76CFFFB
:10573C0000208521192201230094FBF769FF0C201E
:10574C009F2133224346FAF75FFF00209F21192245
:10575C0001230094FBF75CFF0C20B9213422434653
:10576C00FAF752FF0020B921192201230094FBF70C
:10577C004FFF0C20D32135224346FAF745FF00207A
:10578C00D321192201230094FBF742FF0C20ED21B9
:10579C0036224346FAF738FF0020ED211922012367
:1057AC000094FBF735FF0C2040F2071137224346DB
:1057BC00FAF72AFF002040F2071119220123009466
:1057CC00FBF726FF42F6381009EB000595F8050F9C
:1057DC000238C1B2052928BF022043F62C014944E6
:1057EC000491C0B245F28421C0F60101DFE810F04B
:1057FC007F01130005000F000A0045F29821C0F646
:10580C00010108E045F2C021C0F6010103E045F2B8
:10581C00AC21C0F60101CDE901590AA80B6900229F
:10582C000499039398470A98002800F05B8140F292
:10583C00240843F2080945F2D42A0024C4F20008D3
:10584C00C4F201094FF0010BC0F6010A0AE0059CF5
:10585C000AA804990134039B224698470A98002809
:10586C0000F040810C9905944A1C1CBF0B9A002A2D
:10587C00EDD01A23024459430692002602466031A9
:10588C0007910DE040F618404FF48041C4F202003D
:10589C000160099E089A0698063682421046D6D0B8
:1058AC0012F9011BB1F1FF3FCCB21FDC427804F0BE
:1058BC001F01E02C02F03F0211D38378F02C03F08F
:1058CC003F0343EA82120ED3C37801F0070103F0C1
:1058DC003F0343EA821242EA8144021D06E042EA97
:1058EC008114821C02E042EA0134C21CCDE9082674
:1058FC003046079905220723FAF780FF04EB840052
:10590C00B52CA0F1A00140F2E51008BF4FF4F071E6
:10591C00202C38BF40F2DB11421A4FF0000C38BF7C
:10592C00624602E0BCF1070FACD00CF007000CF1A2
:10593C00010C00260BFA00F401E0052EF2D07018D1
:10594C00964200F0EA80D8F8005001361AF80000B0
:10595C00D8F800305B1B592B0ED8D8F800305B1BE5
:10596C00592B9EBFD8F800305B1B592B04D8D8F8A4
:10597C0000305B1B5A2BEBD3D9F800309B070CD4AF
:10598C00D9F800309B075CBFD9F800305FEA83730D
:10599C0003D4D9F800309B07EED5204018BFFF2068
:1059AC00C9F80400D9F80030DB070CD1D9F8003065
:1059BC00DB0704BFD9F800305FEAC37303D1D9F811
:1059CC000030DB07EED0D9F800301B060CD5D9F827
:1059DC0000301B0644BFD9F800305FEA036303D5DF
:1059EC00D9F800301B06EED4D9F80430D8F80050A2
:1059FC00D8F800305B1B592B0ED8D8F800305B1B45
:105A0C00592B9EBFD8F800305B1B592B04D8D8F803
:105A1C0000305B1B5A2BEBD3D8F80050D8F8003071
:105A2C005B1B592B0ED8D8F800305B1B592B9EBF33
:105A3C00D8F800305B1B592B04D8D8F800305B1B0E
:105A4C005A2BEBD3D9F800309B070CD4D9F8003083
:105A5C009B075CBFD9F800305FEA837303D4D9F895
:105A6C0000309B07EED5C9F80400D9F80000C00738
:105A7C000CD1D9F80000C00704BFD9F800005FEAC8
:105A8C00C07003D1D9F80000C007EED0D9F80000DF
:105A9C0000060CD5D9F80000000644BFD9F8000068
:105AAC005FEA006003D5D9F800000006EED4D9F8FF
:105ABC000400D8F80000D8F800301B1A592B3FF618
:105ACC003CAFD8F800301B1A592B9EBFD8F80030C9
