:020000040800F2
:1000000000000320AD010008F5420008AB500008D5
:10001000F5420008F5420008F54200080000000023
:10002000000000000000000000000000F542000891
:10003000F542000800000000F5420008F542000803
:10004000F5420008F5420008F5420008F5420008B4
:10005000F5420008F5420008F5420008F5420008A4
:10006000F5420008F5420008F5420008F542000894
:10007000F5420008F5420008F5420008F542000884
:10008000F5420008F5420008F5420008F542000874
:10009000F5420008F5420008F5420008F542000864
:1000A000F5420008F5420008F5420008F542000854
:1000B000F5420008F5420008F5420008F542000844
:1000C000F5420008F5420008F5420008F542000834
:1000D000F5420008F5420008F5420008F542000824
:1000E000F5420008F5420008F5420008F542000814
:1000F000F5420008F5420008F5420008F542000804
:10010000F5420008F5420008F5420008F5420008F3
:10011000F5420008F5420008F5420008F5420008E3
:10012000F5420008F5420008F5420008F5420008D3
:10013000F5420008F5420008F5420008F5420008C3
:10014000F5420008F5420008F5420008F5420008B3
:10015000F5420008F5420008F5420008F5420008A3
:10016000F5420008F5420008F5420008F542000893
:10017000F5420008F5420008F5420008F542000883
:10018000F5420008F5420008F5420008F542000873
:10019000F5420008F5420008F5420008F542000863
:0C01A000F5420008F5420008F542000896
:1001AC0004F0A3F80E480F490022814201D004C08C
:1001BC00FBE70D480D490E4A814202D008CA08C01F
:1001CC00FAE70C484FF47001026842EA010202603F
:1001DC00BFF34F8FBFF36F8F01F06FFC00DE000099
:1001EC00000000200400002000000020000000207F
:1001FC00F464000888ED00E0CAB101EB020C44F68F
:10020C000002C4F2000203E00131536061450ED0DC
:10021C000B7810680006F7D4106800065CBF1068F5
:10022C005FEA0060F0D410680006F2D5ECE700201D
:10023C00704780B56F46A2B00A46C969CB0616D482
:10024C00890621D4017864294CD329204843030B17
:10025C006FF0630013FB001046F29811C0F600011A
:10026C00C0B231F81000ADF8090000203EE0007873
:10027C0000F00F0101F157030A2938BF01F13003D7
:10028C008DF8873057210BE0007800F00F0101F159
:10029C0037030A2938BF01F1300337218DF8873035
:1002AC0001EB10110309A02838BF03F1300110280D
:1002BC0038BF00218DF886104FF0020138BF0121A4
:1002CC00009102A9102801F17E03104638BF01F1FC
:1002DC007F0346F29411C0F60001022203F0D0FB1A
:1002EC0022B080BD0A2906D202200B4643F0300111
:1002FC0002AB195408E046F29810C0F6000030F832
:10030C001100ADF80900012080F00301009102A951
:10031C000B1810460121002203F0B2FB22B080BD65
:10032C00F0B503AF2DE9000F8DB006680C463078A0
:10033C0080B1D4E905B945F2CE01D9F80C50C0F61C
:10034C00000104225846A84790B101200DB0BDE829
:10035C00000FF0BD45F2D201D4E90502D368C0F616
:10036C00000104220DB0BDE8000FBDE8F0401847B5
:10037C00D4F81CA006F101085FEA4A7015D446F2C5
:10038C0091115846C0F600010122A84701460120F0
:10039C000029DBD140462146FFF74BFF002846D011
:1003AC0001200DB0BDE8000FF0BD46F29211584689
:1003BC00C0F600010222A847014601200029C5D140
:1003CC0004F10806A7F1410146F26C1507F8410C3F
:1003DC004CCE6846C0F60005CDE90191D4E900C1C8
:1003EC00099006A8CDE904C104A90A9594F82050F7
:1003FC004CC04046CDF800B0CDF82CA08DF8305054
:10040C00FFF717FF20B101200DB0BDE8000FF0BDC4
:10041C00DDE909010222CB6846F28C11C0F600011D
:10042C00984720B101200DB0BDE8000FF0BDD4E914
:10043C0005010122CB6846F23C11C0F60001984739
:10044C000DB0BDE8000FF0BDF0B503AF2DE9000F06
:10045C00A3B08946C969CA064ED4890600F18A80C0
:10046C00016842F210704FF69C7E814246F2981061
:10047C00C0F60000C0F0D68041F259784EF2FF046D
:10048C000DF10C0BCDF808900022CDF2B7184DF6FB
:10049C00F00941F27B4AC0F2F554A1FB08350BEB95
:1004AC00020C043AA1424FEA553303FB09151946D5
:1004BC00AEB24FEA960606FB0AF64FEA564606FB24
:1004CC000E5530F81660ACF80660ADB230F8155029
:1004DC00ACF80850E1D8DDF808900A3219466329C7
:1004EC0000F2A4800B460A2BC0F0B180911E30F8AC
:1004FC00130003AA5052AFE003680DF10C0E8024D8
:10050C0081214FF05708204603F00F0404F15705E2
:10051C000A2C38BF04F130050EEB0104102B04F843
:10052C00025C66D3DDB2A02D08EB15164FEA15124E
:10053C0038BF02F130061D0A04F8036C5CD005F0DC
:10054C000F02043902F157050A2A38BF02F13005AF
:10055C0004F8045C1D0B52D005F00F0202F1570594
:10056C000A2A38BF02F1300504F8055C041F1B0C85
:10057C00C9D13CE003680DF10C0E802481214FF0B1
:10058C00370C03F00F06204606F137050A2E0EEB4A
:10059C00010438BF06F13005102B04F8025C28D397
:1005AC00DEB2A02E0CEB16154FEA161238BF02F174
:1005BC00300504F8035C1D0A1ED005F00F02043947
:1005CC0002F137050A2A38BF02F1300504F8045C41
:1005DC001D0B14D005F00F0202F137050A2A38BFA3
:1005EC0002F1300504F8055C041F1B0CC9D103385B
:1005FC0007E08C1E481E04E00138CC1E01E00238D6
:10060C000C4646F29411C0F181000EEB04030090ED
:10061C00C0F600014846022203F032FA23B0BDE8CE
:10062C00000FF0BD0A2263297FF65CAF8BB241F25A
:10063C007B469B08023A734303AE5B0C03FB0E1123
:10064C0089B230F81110B1520A2BBFF44FAF511EC2
:10065C0003AA43F030005054C1F10A00009003A8E3
:10066C00002243184846012103F00AFA23B0BDE8E2
:10067C00000FF0BD81B0002080290090684602D2A6
:10068C0000F1010C37E0B1F5006F0BD202220B46E2
:10069C0062F39F13C02200F1020C8DF8013042EA84
:1006AC00911128E0B1F5803F10D202220B4662F383
:1006BC009F138DF802308B0900F1030C62F39F132A
:1006CC00E0228DF8013042EA113114E002220B468F
:1006DC0062F39F138DF803308B0900F1040C62F365
:1006EC009F138DF802300B0B62F39F13F0228DF8E1
:1006FC00013042EA914144F600028DF8001069463F
:10070C00C4F2000203E00131536061450ED00B7856
:10071C0010680006F7D4106800065CBF10685FEA2A
:10072C000060F0D410680006F2D5ECE7002001B0B0
:10073C007047F0B503AF4DF8048D82B080460020B1
:10074C008029019003D201248DF8041033E0B1F517
:10075C00006F09D20224084664F39F108DF805003F
:10076C00C02040EA911024E002200A4660F39F1258
:10077C00B1F5803F0DD28DF806208A0960F39F12E7
:10078C00E02040EA11308DF805208DF80400032498
:10079C0011E08DF807208A0960F39F128DF806206E
:1007AC000A0B042460F39F12F02040EA91408DF86C
:1007BC0005208DF80400D8E90156B54215D309D0AF
:1007CC00D8F8000001A9AA1B3044A24228BF224637
:1007DC0004F01DFB3019854238BF2846C8F80800C4
:1007EC00002002B05DF8048BF0BD3046294603F0C2
:1007FC0025FD0A4645F2F401C0F6000103F066BA85
:10080C000A4645F2DC01C0F6000103F05FBAC007EE
:10081C0008BF704704F0EDBAD1E9050245F2AC010E
:10082C00D368C0F6000105221847B0B502AF84B0FA
:10083C00044604300D460190D1E905010922CB682C
:10084C0045F2B101C0F6000198478DF80C0040F25A
:10085C0055400021C0F600008DF80D1045F2BA018C
:10086C00009002A8C0F600010B222346029503F06B
:10087C00F3FA40F22D3101ABC0F6000109220091D0
:10088C0045F2C501C0F6000103F0E6FA9DF80D2013
:10089C009DF80C10012A42EA010008BF5FEAC17101
:1008AC0003D000F0010004B0B0BD0298017F4907ED
:1008BC000CD4D0E905010222CB6846F28F11C0F6A8
:1008CC000001984700F0010004B0B0BDD0E905016B
:1008DC000122CB6846F28E11C0F60001984700F059
:1008EC00010004B0B0BDD1E9050245F20C11D3688A
:1008FC00C0F600010D221847F0B503AF2DE9000F2B
:10090C0083B0D3E902B41E46904623465A4600F003
:10091C00EDF8A8F120000BF107016043C908019123
:10092C00484371688142C0F0DD80002C18BFBBF1D8
:10093C00000F0AD140F618404FF48041C4F2020077
:10094C00016003B0BDE8000FF0BD326843F208054A
:10095C00091A002302EB00092422C4F20002C4F29B
:10096C0001054FF007084FF0010A009404E0029BC8
:10097C00009C0133A342DDD001980024029303FBB9
:10098C0000FE02E001345C45F1D00EEBD40088424D
:10099C0080F0AA8019F8000028EA0403D2F800C0FD
:1009AC000AFA03F318401368A3EB0C03592B0ED867
:1009BC001368A3EB0C03592B9EBF1368A3EB0C031A
:1009CC00592B04D81368A3EB0C035A2BEBD32B68CD
:1009DC009B0709D42B689B075CBF2B685FEA83736A
:1009EC0002D42B689B07F2D5002818BFFF20686043
:1009FC002B68DB0709D12B68DB0704BF2B685FEA88
:100A0C00C37302D12B68DB07F2D02B681B0609D508
:100A1C002B681B0644BF2B685FEA036302D52B6867
:100A2C001B06F2D46B6813681668F61A592E0BD88D
:100A3C001668F61A592E9EBF1668F61A592E03D848
:100A4C001668F61A5A2EEFD313681668F61A592E32
:100A5C000BD81668F61A592E9EBF1668F61A592E20
:100A6C0003D81668F61A5A2EEFD32B689B0709D4B5
:100A7C002B689B075CBF2B685FEA837302D42B68DF
:100A8C009B07F2D568602868C00709D12868C007A1
:100A9C0004BF28685FEAC07002D12868C007F2D092
:100AAC002868000609D52868000644BF28685FEA54
:100ABC00006002D528680006F2D4686810681368D4
:100ACC001B1A592B3FF65EAF13681B1A592B9EBF8E
:100ADC0013681B1A592B3FF655AF13681B1A5A2B68
:100AEC00EDD34FE703F0AAFB02F04BFFF0B503AFD9
:100AFC004DF8048D40F6184C4FF00056C4F2020C21
:100B0C0040F2240ECCF800684FF08046CCF8006020
:100B1C00C4F2000EDEF80060A1F10108441EDEF8FC
:100B2C000050AD1B592D0ED8DEF80050AD1B592DC1
:100B3C009EBFDEF80050AD1B592D04D8DEF80050D6
:100B4C00AD1B5A2DEBD3144443F20802C4F201023C
:100B5C001568AD0709D41568AD075CBF15685FEA69
:100B6C00857502D41568AD07F2D52A255560156830
:100B7C00ED0709D11568ED0704BF15685FEAC57567
:100B8C0002D11568ED07F2D015682D0609D5156848
:100B9C002D0644BF15685FEA056502D515682D065C
:100BAC00F2D45568DEF80060DEF80050AD1B592D0C
:100BBC000ED8DEF80050AD1B592D9EBFDEF800504C
:100BCC00AD1B592D04D8DEF80050AD1B5A2DEBD3BC
:100BDC004FF48045CCF800504FF40055CCF8005839
:100BEC004FF08045CCF80050DEF80060DEF8005085
:100BFC00AD1B592D0ED8DEF80050AD1B592D9EBFE4
:100C0C00DEF80050AD1B592D04D8DEF80050AD1B9A
:100C1C005A2DEBD343441568AD0709D41568AD07BD
:100C2C005CBF15685FEA857502D41568AD07F2D50F
:100C3C00002555601568ED0709D11568ED0704BF4F
:100C4C0015685FEAC57502D11568ED07F2D0156815
:100C5C002D0609D515682D0644BF15685FEA056594
:100C6C0002D515682D06F2D45568DEF80050DEF872
:100C7C000060761B592E0ED8DEF80060761B592EBC
:100C8C009EBFDEF80060761B592E04D8DEF800609B
:100C9C00761B5A2EEBD3DEF80050DEF80060761B84
:100CAC00592E0ED8DEF80060761B592E9EBFDEF84A
:100CBC000060761B592E04D8DEF80060761B5A2E85
:100CCC00EBD31568AD0709D41568AD075CBF156883
:100CDC005FEA857502D41568AD07F2D5C0F3072518
:100CEC0055601568ED0709D11568ED0704BF156847
:100CFC005FEAC57502D11568ED07F2D015682D06AF
:100D0C0009D515682D0644BF15685FEA056502D53F
:100D1C0015682D06F2D45568DEF80050DEF8006038
:100D2C00761B592E0ED8DEF80060761B592E9EBF0E
:100D3C00DEF80060761B592E04D8DEF80060761BB6
:100D4C005A2EEBD34FF48045CCF800504FF400559D
:100D5C00CCF800584FF08045CCF80050DEF800502D
:100D6C00DEF80060761B592E0ED8DEF80060761B7C
:100D7C00592E9EBFDEF80060761B592E04D8DEF883
:100D8C000060761B5A2EEBD31568AD0709D4156895
:100D9C00AD075CBF15685FEA857502D41568AD07B1
:100DAC00F2D5002555601568ED0709D11568ED07DA
:100DBC0004BF15685FEAC57502D11568ED07F2D05E
:100DCC0015682D0609D515682D0644BF15685FEA10
:100DDC00056502D515682D06F2D45568DEF800506D
:100DEC00DEF80060761B592E0ED8DEF80060761BFC
:100DFC00592E9EBFDEF80060761B592E04D8DEF803
:100E0C000060761B5A2EEBD3DEF80050DEF8006043
:100E1C00761B592E0ED8DEF80060761B592E9EBF1D
:100E2C00DEF80060761B592E04D8DEF80060761BC5
:100E3C005A2EEBD31568AD0709D41568AD075CBF06
:100E4C0015685FEA857502D41568AD07F2D5C0B296
:100E5C0050601068C00709D11068C00704BF106843
:100E6C005FEAC07002D11068C007F2D010680006AB
:100E7C0009D51068000644BF10685FEA006002D50F
:100E8C0010680006F2D45068DEF80000DEF800505E
:100E9C002D1A592D0ED8DEF800502D1A592D9EBF43
:100EAC00DEF800502D1A592D04D8DEF800502D1AFA
:100EBC005A2DEBD34FF48040CCF800004FF4005087
:100ECC00CCF800084FF08040CCF80000DEF80000B1
:100EDC00DEF800502D1A592D0ED8DEF800502D1AC0
:100EEC00592D9EBFDEF800502D1A592D04D8DEF86E
:100EFC0000502D1A5A2DEBD31068800709D41068B6
:100F0C0080075CBF10685FEA807002D410688007AD
:100F1C00F2D5002050601068C00709D11068C007D6
:100F2C0004BF10685FEAC07002D11068C007F2D02D
:100F3C001068000609D51068000644BF10685FEA07
:100F4C00006002D510680006F2D45068DEF800008C
:100F5C00DEF800502D1A592D0ED8DEF800502D1A3F
:100F6C00592D9EBFDEF800502D1A592D04D8DEF8ED
:100F7C0000502D1A5A2DEBD3DEF80000DEF800508D
:100F8C002D1A592D0ED8DEF800502D1A592D9EBF52
:100F9C00DEF800502D1A592D04D8DEF800502D1A09
:100FAC005A2DEBD31068800709D4106880075CBFFA
:100FBC0010685FEA807002D410688007F2D5C4F321
:100FCC00072050601068C00709D11068C00704BF23
:100FDC0010685FEAC07002D11068C007F2D01068C8
:100FEC00000609D51068000644BF10685FEA00606F
:100FFC0002D510680006F2D45068DEF80000DEF866
:10100C0000502D1A592D0ED8DEF800502D1A592DDE
:10101C009EBFDEF800502D1A592D04D8DEF8005072
:10102C002D1A5A2DEBD34FF48040CCF800004FF41E
:10103C000050CCF800084FF08040CCF80000DEF8EF
:10104C000000DEF800502D1A592D0ED8DEF8005095
:10105C002D1A592D9EBFDEF800502D1A592D04D88B
:10106C00DEF800502D1A5A2DEBD31068800709D4E6
:10107C00106880075CBF10685FEA807002D410684B
:10108C008007F2D5002050601068C00709D11068A5
:10109C00C00704BF10685FEAC07002D11068C007B7
:1010AC00F2D01068000609D51068000644BF10681D
:1010BC005FEA006002D510680006F2D45068DEF8D2
:1010CC000000DEF800502D1A592D0ED8DEF8005015
:1010DC002D1A592D9EBFDEF800502D1A592D04D80B
:1010EC00DEF800502D1A5A2DEBD3DEF80000DEF896
:1010FC0000502D1A592D0ED8DEF800502D1A592DEE
:10110C009EBFDEF800502D1A592D04D8DEF8005081
:10111C002D1A5A2DEBD31068800709D4106880075C
:10112C005CBF10685FEA807002D410688007F2D54B
:10113C00E0B250601068C00709D11068C00704BF46
:10114C0010685FEAC07002D11068C007F2D0106856
:10115C00000609D51068000644BF10685FEA0060FD
:10116C0002D510680006F2D45068DEF80000DEF8F4
:10117C000040241A592C0ED8DEF80040241A592CA1
:10118C009EBFDEF80040241A592C04D8DEF800402B
:10119C00241A5A2CEBD34FF48040CCF800004FF0BB
:1011AC000050CCF800084FF08040CCF80000DEF87E
:1011BC000000DEF80040241A592C0ED8DEF800404E
:1011CC00241A592C9EBFDEF80040241A592C04D83E
:1011DC00DEF80040241A5A2CEBD31068800709D48F
:1011EC00106880075CBF10685FEA807002D41068DA
:1011FC008007F2D52B2050601068C00709D1106809
:10120C00C00704BF10685FEAC07002D11068C00745
:10121C00F2D01068000609D51068000644BF1068AB
:10122C005FEA006002D510680006F2D45068DEF860
:10123C000000DEF80040241A592C0ED8DEF80040CD
:10124C00241A592C9EBFDEF80040241A592C04D8BD
:10125C00DEF80040241A5A2CEBD34FF48040CCF823
:10126C0000004FF40050CCF800084FF08040CCF850
:10127C000000DEF80000DEF80040241A592C0ED8CD
:10128C00DEF80040241A592C9EBFDEF80040241AC8
:10129C00592C04D8DEF80040241A5A2CEBD31068D1
:1012AC00800709D4106880075CBF10685FEA807003
:1012BC0002D410688007F2D5002050601068C00777
:1012CC0009D11068C00704BF10685FEAC07002D172
:1012DC001068C007F2D01068000609D51068000627
:1012EC0044BF10685FEA006002D510680006F2D4B3
:1012FC005068DEF80000DEF80040241A592C0ED895
:10130C00DEF80040241A592C9EBFDEF80040241A47
:10131C00592C04D8DEF80040241A5A2CEBD3DEF8F2
:10132C000000DEF80040241A592C0ED8DEF80040DC
:10133C00241A592C9EBFDEF80040241A592C04D8CC
:10134C00DEF80040241A5A2CEBD31068800709D41D
:10135C00106880075CBF10685FEA807002D4106868
:10136C008007F2D5C1F3072050601068C00709D17F
:10137C001068C00704BF10685FEAC07002D1106823
:10138C00C007F2D01068000609D51068000644BFEB
:10139C0010685FEA006002D510680006F2D450684D
:1013AC00DEF80000DEF80040241A592C0ED8DEF8C6
:1013BC000040241A592C9EBFDEF80040241A592CE8
:1013CC0004D8DEF80040241A5A2CEBD34FF480409A
:1013DC00CCF800004FF40050CCF800084FF08040DF
:1013EC00CCF80000DEF80000DEF80040241A592C7E
:1013FC000ED8DEF80040241A592C9EBFDEF80040AF
:10140C00241A592C04D8DEF80040241A5A2CEBD399
:10141C001068800709D4106880075CBF10685FEA09
:10142C00807002D410688007F2D5002050601068DC
:10143C00C00709D11068C00704BF10685FEAC0700C
:10144C0002D11068C007F2D01068000609D51068E8
:10145C00000644BF10685FEA006002D51068000601
:10146C00F2D45068DEF80000DEF80040241A592C43
:10147C000ED8DEF80040241A592C9EBFDEF800402E
:10148C00241A592C04D8DEF80040241A5A2CEBD319
:10149C00DEF80000DEF80040241A592C0ED8DEF8D5
:1014AC000040241A592C9EBFDEF80040241A592CF7
:1014BC0004D8DEF80040241A5A2CEBD310688007AD
:1014CC0009D4106880075CBF10685FEA807002D492
:1014DC0010688007F2D5C8B250601068C00709D1F7
:1014EC001068C00704BF10685FEAC07002D11068B2
:1014FC00C007F2D01068000609D51068000644BF7A
:10150C0010685FEA006002D510680006F2D45068DB
:10151C00DEF80000DEF80010091A59290ED8DEF8A2
:10152C000010091A59299EBFDEF80010091A592912
:10153C0004D8DEF80010091A5A29EBD34FF4804076
:10154C00CCF800004FF40050CCF800084FF080406D
:10155C00CCF80000DEF80000DEF80010091A59295A
:10156C000ED8DEF80010091A59299EBFDEF80010BB
:10157C00091A592904D8DEF80010091A5A29EBD394
:10158C001068800709D4106880075CBF10685FEA98
:10159C00807002D410688007F2D50020506010686B
:1015AC00C00709D11068C00704BF10685FEAC0709B
:1015BC0002D11068C007F2D01068000609D5106877
:1015CC00000644BF10685FEA006002D51068000690
:1015DC00F2D45068DEF80000DEF80010091A592920
:1015EC000ED8DEF80010091A59299EBFDEF800103B
:1015FC00091A592904D8DEF80010091A5A29EBD314
:10160C00DEF80000DEF80010091A59290ED8DEF8B1
:10161C000010091A59299EBFDEF80010091A592921
:10162C0004D8DEF80010091A5A29EBD31068800789
:10163C0009D4106880075CBF10685FEA807002D420
:10164C0010688007F2D5C3F3072050601068C007FC
:10165C0009D11068C00704BF10685FEAC07002D1DE
:10166C001068C007F2D01068000609D51068000693
:10167C0044BF10685FEA006002D510680006F2D41F
:10168C005068DEF80000DEF80010091A59290ED84F
:10169C00DEF80010091A59299EBFDEF80010091A4D
:1016AC00592904D8DEF80010091A5A29EBD34FF443
:1016BC008040CCF800004FF40050CCF800084FF0FC
:1016CC008040CCF80000DEF80000DEF80010091AAB
:1016DC0059290ED8DEF80010091A59299EBFDEF8D8
:1016EC000010091A592904D8DEF80010091A5A29D1
:1016FC00EBD31068800709D4106880075CBF1068B2
:10170C005FEA807002D410688007F2D50020506028
:10171C001068C00709D11068C00704BF10685FEAE1
:10172C00C07002D11068C007F2D01068000609D54D
:10173C001068000644BF10685FEA006002D51068AC
:10174C000006F2D45068DEF80000DEF80010091A2A
:10175C0059290ED8DEF80010091A59299EBFDEF857
:10176C000010091A592904D8DEF80010091A5A2950
:10177C00EBD3DEF80000DEF80010091A59290ED858
:10178C00DEF80010091A59299EBFDEF80010091A5C
:10179C00592904D8DEF80010091A5A29EBD310681D
:1017AC00800709D4106880075CBF10685FEA8070FE
:1017BC0002D410688007F2D5D8B250601068C00708
:1017CC0009D11068C00704BF10685FEAC07002D16D
:1017DC001068C007F2D01068000609D51068000622
:1017EC0044BF10685FEA006002D510680006F2D4AE
:1017FC005068DEF80000DEF80010091A59290ED8DE
:10180C00DEF80010091A59299EBFDEF80010091ADB
:10181C00592904D8DEF80010091A5A29EBD34FF4D1
:10182C008040CCF800004FF00050CCF800084FF08E
:10183C008040CCF80000DEF80000DEF80010091A39
:10184C0059290ED8DEF80010091A59299EBFDEF866
:10185C000010091A592904D8DEF80010091A5A295F
:10186C00EBD31068800709D4106880075CBF106840
:10187C005FEA807002D410688007F2D52C2050608B
:10188C001068C00709D11068C00704BF10685FEA70
:10189C00C07002D11068C007F2D01068000609D5DC
:1018AC001068000644BF10685FEA006002D510683B
:1018BC000006F2D45068DEF80000DEF80010091AB9
:1018CC0059290ED8DEF80010091A59299EBFDEF8E6
:1018DC000010091A592904D8DEF80010091A5A29DF
:1018EC00EBD34FF48040CCF800004FF40050CCF810
:1018FC0000084FF08040CCF800005DF8048BF0BD80
:10190C00B0B502AF1C461546FFF7F0F8BA682423B1
:10191C0004FB05F043F20805C4F200035FFA82FCF5
:10192C0092B2120AC4F2010502E0013800F09A806A
:10193C001C681968091B59290BD81968091B5929E6
:10194C009EBF1968091B592903D81968091B5A2904
:10195C00EFD32968890709D4296889075CBF2968EE
:10196C005FEA817102D429688907F2D56A60296817
:10197C00C90709D12968C90704BF29685FEAC17181
:10198C0002D12968C907F2D02968090609D5296846
:10199C00090644BF29685FEA016102D52968090676
:1019AC00F2D469681C681968091B59290BD8196885
:1019BC00091B59299EBF1968091B592903D8196895
:1019CC00091B5A29EFD31C681968091B59290BD814
:1019DC001968091B59299EBF1968091B592903D875
:1019EC001968091B5A29EFD32968890709D4296872
:1019FC0089075CBF29685FEA817102D4296889076D
:101A0C00F2D5C5F804C02968C90709D12968C907E6
:101A1C0004BF29685FEAC17102D12968C907F2D0F5
:101A2C002968090609D52968090644BF29685FEAAF
:101A3C00016102D529680906F2D469681C68196825
:101A4C00091B59293FF671AF1968091B59299EBF0B
:101A5C001968091B59293FF668AF1968091B5A29DF
:101A6C00EDD362E740F618404FF48041C4F2020017
:101A7C000160B0BDF0B503AF4DF8048DD0E9014560
:101A8C00AC4216D31646621BB24228BF3246804681
:101A9C00002A1EBFD8F80000284403F0B8F9A81992
:101AAC00844238BF2046C8F8080000205DF8048B3B
:101ABC00F0BD2846214602F0C1FB80B56F4600F010
:101ACC0000F8B0B502AFADF5C33DCCB003F09CF956
:101ADC00044603F08CF940F2000104F00100C2F25C
:101AEC0000010A78002A41F02687012200280A709A
:101AFC0008BF03F07EF949F2005541F200240020A2
:101B0C00C0F6BA25CDE90050C0F27A0409A82146E6
:101B1C000122012302F0EBFB099802280ED1A7F158
:101B2C0030002146002202F022FF57E90C0200236C
:101B3C0080F00101204603F01CF823E0C00721D0FF
:101B4C000A9845F60172C0F64C12A0F1B771A1F5D6
:101B5C005851914281F0F786411E4EF22F364A19A8
:101B6C00C0F2BE06120AA2FB0623DA0A022A0ED023
:101B7C00012A09D0002A00F0BC814FF400724FF00A
:101B8C00F00806E002F062FB4FF0000801E04FF0B5
:101B9C0080084AF24054B0FBF2F0C0F2AE240219B5
:101BAC00013A9209A2FB0623DA0A00F0A281012A6B
:101BBC0020D0022A0EBF4FF4805904224FF4A059B2
:101BCC00B0FBF2F5621C95421BD244F67F22C0F2A8
:101BDC005D528318DB09A3FB0636F30A00F08981FA
:101BEC00012B15D0022B0EBF4FF4004604234FF4EB
:101BFC0020460EE04FF00009B0FBF2F5621C954256
:101C0C00E3D346F292403121C0F6000002F027FBEC
:101C1C000026B0FBF3F3023293420695079381F052
:101C2C00998645F2C742C909C0F21E1243F6000557
:101C3C00A1FB0212C4F20205D5F800140909920A9C
:101C4C0061F31F1242F4E061C5F80014296841F4F5
:101C5C00803129602968890309D4296889035CBF0C
:101C6C0029685FEA813102D429688903F2D5296891
:101C7C0041F08071296047F60121C0F603218842AA
:101C8C002FD3286C40F08050286403F0BAF847F248
:101C9C000400C4F2000050F8041C41F4803140F8F8
:101CAC00041C0168C90309D40168C9035CBF01683D
:101CBC005FEAC13102D40168C903F2D550F8041CA3
:101CCC0041F4003140F8041C0168890309D401680F
:101CDC0089035CBF01685FEA813102D40168890322
:101CEC00F2D52868800109D4286880015CBF286877
:101CFC005FEA801002D428688001F2D5A8684FF6FC
:101D0C00F04220F40000A860D5F88C0020F470009C
:101D1C00C5F88C00A96849EA080030439143084390
:101D2C00A860102003F067F8A8680221012661F36F
:101D3C000100A860286B40F039002863686C40F4FF
:101D4C008050686440F20C60C4F24720066003F0D7
:101D5C0058F840F2002840F2000B45F25550C4F2FE
:101D6C0047284FF00009C4F2020BC5F20000C8F876
:101D7C000C6040F61841C8F80C90CBF8000C45F2FA
:101D8C00555041F21803C4F20201C0F24000C4F2F3
:101D9C000203C1F8E8034FF0A060C3F8E80348F26F
:101DAC00FF0041F21842086040F6FF00C4F2020244
:101DBC00186045F255504FF6FF7641F80C0C43F87D
:101DCC000C0C40F2240A42F80C0CC4F2000AC2F8C3
:101DDC00F40341F8106C4FF0FF3143F8106CC3F86A
:101DEC00F063C2F8F063286C40F0010028644FF0F7
:101DFC0080400125C0F800904AF8209CCAF8049055
:101E0C00CAF808104AF8189C016841F001010160F9
:101E1C00C8F8005402F0F5FFC8F800500521C8F8C6
:101E2C0000900222CBF80860DBF8040020F02000C0
:101E3C00CBF80400DBF8200061F31750CBF820003E
:101E4C00DBF8000062F38B20CBF80000DBF8040019
:101E5C0020F04000CBF80400DBF8200061F31B609D
:101E6C00CBF82000DBF8000062F30D30CBF800005B
:101E7C00DBF8040020F08000CBF80400DBF8200035
:101E8C0061F31F70CBF82000DBF8000062F38F3099
:101E9C00CBF8000040F20C60C4F24720C0F8A4520A
:101EAC0002F0AFFF43F2080BC8F8B052C4F2010BBA
:101EBC00C8F8B0922BF8049C48F27F40079BC0F204
:101ECC001E00834215D948F6805040F61842C0F2E5
:101EDC005B0083424FF000054FF00000C4F2020299
:101EEC001ED341F60030C0F2B700834208D208205E
:101EFC0016E046F260302821C0F6000002F0AFF97F
:101F0C0043F20060C0F26E10834201D2102007E051
:101F1C0046F600412020C0F2DC218B4238BF18204D
:101F2C0040F441702BF8080C3BF8080C43F2BF71DD
:101F3C0001260840072140302BF8080C52F8140CED
:101F4C0020F4807042F8140CD06861F30300D06068
:101F5C0000220221C4F20202D2F8000C61F31140FB
:101F6C00C2F8000C40F20C60C4F24720C0F83C628E
:101F7C0002F047FFC8F84862C8F848520699480B67
:101F8C00E0280AD8B1F5612F13D245F22C11A7F134
:101F9C005000C0F6000102F04DF901F561404BF222
:101FAC00C531C9F2A211A0FB01010A0C42F20C01CD
:101FBC0011E04FF4614000EB41004BF2C531C9F226
:101FCC00A211A0FB0101702000EA1140C1F34241B3
:101FDC000A184AF20C0144F6000040F61843C4F209
:101FEC000000C4F202038260002202614261C160FF
:101FFC00026101680906FCD54921416001680906A6
:10200C00FCD55421416001680906FCD5532141607F
:10201C0001680906FCD52D21416001680906FCD533
:10202C004221416001680906FCD56F2141600168BD
:10203C000906FCD56121416001680906FCD57221B5
:10204C00416001680906FCD56421416001680906FC
:10205C00FCD52021416001680906FCD5692141604D
:10206C0001680906FCD56E21416001680906FCD5A2
:10207C006921416001680906FCD574214160016841
:10208C000906FCD56921416001680906FCD561216E
:10209C00416001680906FCD56C21416001680906A4
:1020AC00FCD56921416001680906FCD57A214160A3
:1020BC0001680906FCD56521416001680906FCD55B
:1020CC006421416001680906FCD50A214160016860
:1020DC00090609D4016809065CBF01685FEA016161
:1020EC0002D401680906F2D50A21416040F20110C0
:1020FC0041F21841C0F2013008904FF48050C4F204
:10210C0002010860DAF80000DAF80010091AA1429E
:10211C000ED2DAF80010091AA1423EBFDAF800100C
:10212C00091AA14204D2DAF80010091AA142EBD321
:10213C0041F218414FF08050C4F202010860DAF805
:10214C000000DAF80010091AA1420ED2DAF80010D9
:10215C00091AA1423EBFDAF80010091AA14204D2B2
:10216C00DAF80010091AA142EBD341F218414FF4EE
:10217C008050C4F202010860DAF80000DAF80010AE
:10218C00091AA1420ED2DAF80010091AA1423EBF78
:10219C00DAF80010091AA14204D2DAF80010091A70
:1021AC00A142EBD345F63C254FF0000E4FF0005CFE
:1021BC004FF08049C0F600054FF480444FF40058AE
:1021CC00002002E0672880F05B8141F21841C4F2E4
:1021DC000201C1F800C0295CC3F80090DAF80020B5
:1021EC00DAF80060B61A592E0ED8DAF80060B61A72
:1021FC00592E9EBFDAF80060B61A592E04D8DAF8B8
:10220C000060B61A5A2EEBD3DBF8002092070CD4E0
:10221C00DBF8002092075CBFDBF800205FEA8272DB
:10222C0003D4DBF800209207EED5CBF80410DBF8D2
:10223C000010C9070CD1DBF80010C90704BFDBF88C
:10224C0000105FEAC17103D1DBF80010C907EED0B2
:10225C00DBF8001009060CD5DBF80010090644BFAA
:10226C00DBF800105FEA016103D5DBF8001009060A
:10227C00EED4DBF80410DAF80010DAF80020521A69
:10228C00592A0ED8DAF80020521A592A9EBFDAF8C9
:10229C000020521A592A04D8DAF80020521A5A2A65
:1022AC00EBD366281C6000F0E780411902304A78B5
:1022BC0052B987E7013A40F618430130C4F20203E1
:1022CC0011061C603FF47EAF662800F2D28041F20A
:1022DC001841C4F20201C1F80080295CC3F80090D7
:1022EC00DAF80060DAF800309B1B592B0ED8DAF8BC
:1022FC0000309B1B592B9EBFDAF800309B1B592BCF
:10230C0004D8DAF800309B1B5A2BEBD3DBF80030E7
:10231C009B070CD4DBF800309B075CBFDBF800306C
:10232C005FEA837303D4DBF800309B07EED5CBF860
:10233C0004E0DBF80030DB070CD1DBF80030DB0706
:10234C0004BFDBF800305FEAC37303D1DBF8003065
:10235C00DB07EED0DBF800301B060CD5DBF80030C9
:10236C001B0644BFDBF800305FEA036303D5DBF8E0
:10237C0000301B06EED4DBF80430DAF80060DAF833
:10238C0000309B1B592B0ED8DAF800309B1B592BB5
:10239C009EBFDAF800309B1B592B04D8DAF80030BA
:1023AC009B1B5A2BEBD3DAF80060DAF800309B1B3E
:1023BC00592B0ED8DAF800309B1B592B9EBFDAF83C
:1023CC0000309B1B592B04D8DAF800309B1B5A2B7E
:1023DC00EBD3DBF800309B070CD4DBF800309B0709
:1023EC005CBFDBF800305FEA837303D4DBF80030AA
:1023FC009B07EED5CBF80410DBF80010C9070CD105
:10240C00DBF80010C90704BFDBF800105FEAC171EC
:10241C0003D1DBF80010C907EED0DBF80010090679
:10242C000CD5DBF80010090644BFDBF800105FEA9E
:10243C00016103D5DBF800100906EED4DBF80410BB
:10244C00DAF80010DAF800305B1A592B3FF632AF8D
:10245C00DAF800305B1A592B9EBFDAF800305B1AA1
:10246C00592B3FF627AFDAF800305B1A5A2BE9D319
:10247C0020E7672101F085FA6720672101F081FAD6
:10248C0041F218414FF00050C4F2020108604FF0C5
:10249C0080401860DAF80000DAF80010091A59299F
:1024AC000ED8DAF80010091A59299EBFDAF8001074
:1024BC00091A592904D8DAF80010091A5A29EBD349
:1024CC00DBF8000080070CD4DBF8000080075CBF51
:1024DC00DBF800005FEA807003D4DBF800008007B3
:1024EC00EED5B620CBF80400DBF80000C0070CD109
:1024FC00DBF80000C00704BFDBF800005FEAC07027
:10250C0003D1DBF80000C007EED0DBF800000006BA
:10251C000CD5DBF80000000644BFDBF800005FEAD6
:10252C00006003D5DBF800000006EED4DBF80400F5
:10253C00DAF80000DAF80010091A59290ED8DAF87E
:10254C000010091A59299EBFDAF80010091A5929E6
:10255C0004D8DAF80010091A5A29EBD341F21841C1
:10256C004FF4804018604FF40050C4F20201086030
:10257C004FF080401860DAF80000DAF80010091A01
:10258C0059290ED8DAF80010091A59299EBFDAF821
:10259C000010091A592904D8DAF80010091A5A2916
:1025AC00EBD3DBF8000080070CD4DBF800008007CD
:1025BC005CBFDBF800005FEA807003D4DBF800003E
:1025CC008007EED50020CBF80400DBF80000C00734
:1025DC000CD1DBF80000C00704BFDBF800005FEA99
:1025EC00C07003D1DBF80000C007EED0DBF80000B0
:1025FC0000060CD5DBF80000000644BFDBF8000039
:10260C005FEA006003D5DBF800000006EED4DBF8CF
:10261C000400DAF80000DAF80010091A59290ED86B
:10262C00DAF80010091A59299EBFDAF80010091AB5
:10263C00592904D8DAF80010091A5A29EBD3DAF818
:10264C000000DAF80010091A59290ED8DAF800102F
:10265C00091A59299EBFDAF80010091A592904D809
:10266C00DAF80010091A5A29EBD3DBF800008007BE
:10267C000CD4DBF8000080075CBFDBF800005FEADD
:10268C00807003D4DBF800008007EED50020CBF877
:10269C000400DBF80000C0070CD1DBF80000C00719
:1026AC0004BFDBF800005FEAC07003D1DBF8000068
:1026BC00C007EED0DBF8000000060CD5DBF80000FC
:1026CC00000644BFDBF800005FEA006003D5DBF8CE
:1026DC0000000006EED4DBF80400DAF80000DAF8AB
:1026EC000010091A59290ED8DAF80010091A5929BC
:1026FC009EBFDAF80010091A592904D8DAF800102C
:10270C00091A5A29EBD341F218414FF48040186052
:10271C004FF40050C4F2020108604FF08040186082
:10272C00DAF80000DAF80010091A59290ED8DAF88C
:10273C000010091A59299EBFDAF80010091A5929F4
:10274C0004D8DAF80010091A5A29EBD3DBF8000088
:10275C0080070CD4DBF8000080075CBFDBF80000BE
:10276C005FEA807003D4DBF800008007EED5002010
:10277C00CBF80400DBF80000C0070CD1DBF800003C
:10278C00C00704BFDBF800005FEAC07003D1DBF8C0
:10279C000000C007EED0DBF8000000060CD5DBF81B
:1027AC000000000644BFDBF800005FEA006003D5C0
:1027BC00DBF800000006EED4DBF80400DAF80000C9
:1027CC00DAF80010091A59290ED8DAF80010091A8B
:1027DC0059299EBFDAF80010091A592904D8DAF8D9
:1027EC000010091A5A29EBD3DAF80000DAF80010B5
:1027FC00091A59290ED8DAF80010091A59299EBF5E
:10280C00DAF80010091A592904D8DAF80010091A54
:10281C005A29EBD3DBF8000080070CD4DBF800005E
:10282C0080075CBFDBF800005FEA807003D4DBF844
:10283C0000008007EED56220CBF80400DBF8000026
:10284C00C0070CD1DBF80000C00704BFDBF80000A8
:10285C005FEAC07003D1DBF80000C007EED0DBF8F4
:10286C00000000060CD5DBF80000000644BFDBF8C6
:10287C0000005FEA006003D5DBF800000006EED430
:10288C00DBF80400DAF80000DAF80010091A59290C
:10289C000ED8DAF80010091A59299EBFDAF8001080
:1028AC00091A592904D8DAF80010091A5A29EBD355
:1028BC0041F218414FF4804018604FF00050C4F2C0
:1028CC00020108604FF080401860DAF80000DAF876
:1028DC000010091A59290ED8DAF80010091A5929CA
:1028EC009EBFDAF80010091A592904D8DAF800103A
:1028FC00091A5A29EBD3DBF8000080070CD4DBF85B
:10290C00000080075CBFDBF800005FEA807003D436
:10291C00DBF800008007EED53620CBF80400DBF89E
:10292C000000C0070CD1DBF80000C00704BFDBF8C7
:10293C0000005FEAC07003D1DBF80000C007EED0E6
:10294C00DBF8000000060CD5DBF80000000644BFE5
:10295C00DBF800005FEA006003D5DBF8000000063E
:10296C00EED4DBF80400DAF80000DAF80010091AEB
:10297C0059290ED8DAF80010091A59299EBFDAF82D
:10298C000010091A592904D8DAF80010091A5A2922
:10299C00EBD341F218414FF4804018604FF40050D3
:1029AC00C4F2020108604FF080401860DAF80000B1
:1029BC00DAF80010091A59290ED8DAF80010091A99
:1029CC0059299EBFDAF80010091A592904D8DAF8E7
:1029DC000010091A5A29EBD3DBF8000080070CD43D
:1029EC00DBF8000080075CBFDBF800005FEA80705A
:1029FC0003D4DBF800008007EED50020CBF80400F0
:102A0C00DBF80000C0070CD1DBF80000C00704BFE6
:102A1C00DBF800005FEAC07003D1DBF80000C007F0
:102A2C00EED0DBF8000000060CD5DBF80000000649
:102A3C0044BFDBF800005FEA006003D5DBF8000060
:102A4C000006EED4DBF80400DAF80000DAF8001027
:102A5C00091A59290ED8DAF80010091A59299EBFFB
:102A6C00DAF80010091A592904D8DAF80010091AF2
:102A7C005A29EBD3DAF80000DAF80010091A5929B0
:102A8C000ED8DAF80010091A59299EBFDAF800108E
:102A9C00091A592904D8DAF80010091A5A29EBD363
:102AAC00DBF8000080070CD4DBF8000080075CBF6B
:102ABC00DBF800005FEA807003D4DBF800008007CD
:102ACC00EED52820CBF80400DBF80000C0070CD1B1
:102ADC00DBF80000C00704BFDBF800005FEAC07041
:102AEC0003D1DBF80000C007EED0DBF800000006D5
:102AFC000CD5DBF80000000644BFDBF800005FEAF1
:102B0C00006003D5DBF800000006EED4DBF804000F
:102B1C00DAF80000DAF80010091A59290ED8DAF898
:102B2C000010091A59299EBFDAF80010091A592900
:102B3C0004D8DAF80010091A5A29EBD34FF4804064
:102B4C004AF680011860C0F21211DAF80000DAF8C7
:102B5C000020121A8A420ED2DAF80020121A8A4287
:102B6C003EBFDAF80020121A8A4204D2DAF80020AA
:102B7C00121A8A42EBD341F218414FF00050C4F2C2
:102B8C00020108604FF080401860DAF80000DAF8B3
:102B9C000010091A59290ED8DAF80010091A592907
:102BAC009EBFDAF80010091A592904D8DAF8001077
:102BBC00091A5A29EBD3DBF8000080070CD4DBF898
:102BCC00000080075CBFDBF800005FEA807003D474
:102BDC00DBF800008007EED51120CBF80400DBF801
:102BEC000000C0070CD1DBF80000C00704BFDBF805
:102BFC0000005FEAC07003D1DBF80000C007EED024
:102C0C00DBF8000000060CD5DBF80000000644BF22
:102C1C00DBF800005FEA006003D5DBF8000000067B
:102C2C00EED4DBF80400DAF80000DAF80010091A28
:102C3C0059290ED8DAF80010091A59299EBFDAF86A
:102C4C000010091A592904D8DAF80010091A5A295F
:102C5C00EBD34FF480404CF680311860C0F2A401E5
:102C6C00DAF80000DAF80020121A8A420ED2DAF8EA
:102C7C000020121A8A423EBFDAF80020121A8A4249
:102C8C0004D2DAF80020121A8A42EBD341F218412E
:102C9C004FF00050C4F2020108604FF08040186001
:102CAC00DAF80000DAF80010091A59290ED8DAF807
:102CBC000010091A59299EBFDAF80010091A59296F
:102CCC0004D8DAF80010091A5A29EBD3DBF8000003
:102CDC0080070CD4DBF8000080075CBFDBF8000039
:102CEC005FEA807003D4DBF800008007EED5292062
:102CFC00CBF80400DBF80000C0070CD1DBF80000B7
:102D0C00C00704BFDBF800005FEAC07003D1DBF83A
:102D1C000000C007EED0DBF8000000060CD5DBF895
:102D2C000000000644BFDBF800005FEA006003D53A
:102D3C00DBF800000006EED4DBF80400DAF8000043
:102D4C00DAF80010091A59290ED8DAF80010091A05
:102D5C0059299EBFDAF80010091A592904D8DAF853
:102D6C000010091A5A29EBD34FF480400024186044
:102D7C00002000214FF4F0724FF4A0730094FEF782
:102D8C00BFFD45F6A32646F2C009C0F60006C0F604
:102D9C00000900250BE00546204600214B46202A61
:102DAC0038BF7F22FDF7A8FD08341D2D29D071579F
:102DBC00681CB1F1FF3FCAB2EDDC305CAB1CE02A01
:102DCC0000F03F0102F01F0013D3F35CF02A03F074
:102DDC003F0343EA811105F103030ED3F25C00F0CB
:102DEC000700043502F03F0242EA811141EA8042B9
:102DFC00D2E741EA80121D46CEE741EA00321D4679
:102E0C00CAE746F2D00645F62C290024C0F6000687
:102E1C00C0F6000900250CE0054620464FF49871D9
:102E2C004B46202A38BF7F22FDF766FD0834322D31
:102E3C0029D07157681CB1F1FF3FCAB2ECDC305C91
:102E4C00AB1CE02A00F03F0102F01F0013D3F35C2F
:102E5C00F02A03F03F0343EA811105F103030ED37B
:102E6C00F25C00F00700043502F03F0242EA8111E7
:102E7C0041EA8042D1E741EA80121D46CDE741EAA2
:102E8C0000321D46C9E7DAF8000049F20052C0F6DC
:102E9C00BA22DAF80010091A91420ED2DAF80010B0
:102EAC00091A91423EBFDAF80010091A914204D275
:102EBC00DAF80010091A9142EBD3002000214FF4EC
:102ECC00F0724FF4A0730090FEF71AFD4FF6FF75E9
:102EDC00002040F221114FF4F07201230095FEF70F
:102EEC000FFD40F2C1104FF4917101221E23009589
:102EFC00FEF706FD4FF4D1704FF4917101221E23A1
:102F0C000095FEF7FDFC40F283104FF49171012205
:102F1C001E230095FEF7F4FC4FF4B2704FF4917140
:102F2C0001221E230095FEF7EBFC40F245104FF4F6
:102F3C00917101221E230095FEF7E2FC4FF4937071
:102F4C004FF4917101221E230095FEF7D9FC40F23B
:102F5C0007104FF4917101221E230095FEF7D0FC4F
:102F6C00E8204FF4917101221E230095FEF7C8FC56
:102F7C0045F62C24EF20C0F6000440F229119D22C6
:102F8C002346FDF7B9FCF72040F229119E22234677
:102F9C00FDF7B2FC4FF4877040F2291187222346CB
:102FAC00FDF7AAFC4FF48B7040F2291188222346BE
:102FBC00FDF7A2FC40F22D1040F229119522234678
:102FCC00FDF79AFC40F2351040F229119622234667
:102FDC00FDF792FC4FF4A67040F229119122234682
:102FEC00FDF78AFC4FF4AA7040F229119222234675
:102FFC00FDF782FC40F26B1040F229119F22234610
:10300C00FDF77AFC40F2731040F22911A0222346FE
:10301C00FDF772FC4FF4C57040F22911972223463C
:10302C00FDF76AFC4FF4C97040F22911982223462F
:10303C00FDF762FC40F2A91040F22911A5222346AB
:10304C00FDF75AFC40F2B11040F22911A62223469A
:10305C00FDF752FC4FF4E47040F22911AB222346E9
:10306C00FDF74AFC4FF4E87040F22911AC222346DC
:10307C00FDF742FC09AC48F2A061C0F20101204608
:10308C0001F0AAFF002140F61843C4F20201C4F279
:10309C000203D1F8000CA843C1F8000C53F8080C3B
:1030AC00C0B253F8081CC9B281420ED153F8081CA7
:1030BC00C9B2814202BF53F8081CC9B2814204D183
:1030CC0053F8081CC9B28142EBD0DAF8002048F260
:1030DC00A0600021C0F2010007E040F61843013166
:1030EC005A328142C4F2020317D053F8083C63549D
:1030FC00DAF800309B1A592BEFD8DAF800309B1A0B
:10310C00592B9EBFDAF800309B1A592BE5D8DAF808
:10311C0000309B1A5A2BEBD3DFE748F29F61821CDD
:10312C00C0F20101615CA318A2F1040913F8040CAC
:10313C00884213D113F8050C884211D1901F13D07B
:10314C0013F8066C8E420FD1D01F04D013F8072C45
:10315C008A424A46E7D0A9F1030907E0484605E050
:10316C00501FA9F1010901E0A9F10209002843D07F
:10317C00651E08A801264FF00208002403300790B2
:10318C0015F8010F45F2DC0107F85C0CA7F13000D3
:10319C0047F8400C46F22C10C0F60000A7F1500284
:1031AC0047F8500C44F27320C0F60000C0F6000142
:1031BC0047F86C0CA7F15C0047F8700CA7F1700095
:1031CC0047F8480C032007F8140C0C2047E907407B
:1031DC00202047F8200C082047E90A40079847F8B8
:1031EC003C6C47F84C8C47F8446C47F8308C00F03A
:1031FC006DFDB9F10109C3D140F618414FF47F00C0
:10320C00C4F202016424086041F21801C4F2020104
:10321C000025086064204FF001084FF00709039067
:10322C0000E0049CDAF800004EF22F31C0F2BE012F
:10323C00A7F1500247E91955C00947E91B55A0FBF6
:10324C00010147F8545C47F83C8C47F84C8C47F824
:10325C00448C07F8148C47E90755C80A45F2F40169
:10326C0047E91D05142047F8580CA7F1700047F8E2
:10327C005C0CA7F1300047F8400C46F22010C0F669
:10328C000000C0F6000147F8500C43F69710C0F64A
:10329C00000047F8340CA7F1740047F8380CA7F17C
:1032AC00380047F8480C202047F8200C0A2047E942
:1032BC000A50022047F8300CA7F15C0000F006FD24
:1032CC00002840F0568357E916100494884200F207
:1032DC003883B0F1070E38BFAE46002800F01282DA
:1032EC0057F85C1CC0F1000CCB1C23F003035E1AD6
:1032FC000023079603E00133834280F0CA80CC564A
:10330C00002C52D4F41AA407F5D100E020337345F5
:10331C0029D2CD18CC586E68344314F0803F22D19A
:10332C0003F1080474451DD26246D5E9026C46EAE5
:10333C000C0616F0803F40F0A18003F11004944677
:10334C0074450FD2D5E90462324312F0803F09D1A3
:10335C0003F11804744505D2D5E90626324312F060
:10336C00803FD3D02346079E8342C5D2CA56002A3B
:10337C00C2D40CEB0304621C00F08B80CD1895F9C1
:10338C000120002AB7D4A21C00F0838095F90220FA
:10339C00002A7AD4E21C7CD095F90320002A76D43A
:1033AC0004331CEB0302E1D173E046F26022E5B278
:1033BC00C0F60002545D042C14D0032C04D0022C53
:1033CC0040F0CF82013334E05C1C844280F0C9822F
:1033DC000C5DE02D14D0ED2D1CD162B212F1610FF9
:1033EC0026DDBEE25C1C844280F0BB820C5DF02DBD
:1033FC000BD0F42D64B225D114F1710F2BDDB0E29A
:10340C0004F0E002A02A13D0ABE2A4F19002302A1F
:10341C0021D3A6E2A5F1E10264B20C2A04D305F093
:10342C00FE02EE2A40F09D8214F1400F80F2998248
:10343C000233834280F09582CA5612F1410F7FF716
:10344C005AAF8EE2A5F1F102022A00F28A8214F13F
:10345C00400F80F286829C1C844280F082820A5744
:10346C0012F1410F00F37D820333834280F07982A5
:10347C00CA5612F1400FFFF63EAF72E22346944655
:10348C00079E8342FFF472AF36E7023334E703330F
:10349C0032E700260A46084405900EE040F6184034
:1034AC004FF48041C4F202000160079EDDE9050281
:1034BC0008361146824200F0258112F9010BB0F159
:1034CC00FF3FC5B21FDC4A7805F01F00E02D02F06B
:1034DC003F0211D38B78F02D03F03F0343EA8212A5
:1034EC000ED3CB7800F0070003F03F0343EA8212BF
:1034FC0042EA80450A1D06E042EA80158A1C02E079
:10350C0042EA0035CA1CCDE90626304600210822C5
:10351C001023FDF7EBFA4FF60060202DCFF6FF706D
:10352C0000EB051038BF4FF4BE60B0F50F6F00F222
:10353C00FE8145F23C110023C0F6000101EB000CAA
:10354C00C0F50F6102E00133102BA7D0002502E07B
:10355C000135082DF7D003EBD500884280F0E581CA
:10356C001CF8000029EA0504DAF80060DAF80020FB
:10357C00921B592A0ED8DAF80020921B592A9EBFAA
:10358C00DAF80020921B592A04D8DAF80020921B92
:10359C005A2AEBD308FA04F6DBF8002092070CD475
:1035AC00DBF8002092075CBFDBF800205FEA827238
:1035BC0003D4DBF800209207EED5304018BFFF2073
:1035CC00CBF80400DBF80020D2070CD1DBF800208C
:1035DC00D20704BFDBF800205FEAC27203D1DBF82C
:1035EC000020D207EED0DBF8002012060CD5DBF859
:1035FC000020120644BFDBF800205FEA026203D50C
:10360C00DBF800201206EED4DBF80420DAF80060B8
:10361C00DAF80020921B592A0ED8DAF80020921BF7
:10362C00592A9EBFDAF80020921B592A04D8DAF8DE
:10363C000020921B5A2AEBD3DAF80060DAF800204B
:10364C00921B592A0ED8DAF80020921B592A9EBFD9
:10365C00DAF80020921B592A04D8DAF80020921BC1
:10366C005A2AEBD3DBF8002092070CD4DBF80020AD
:10367C0092075CBFDBF800205FEA827203D4DBF8B0
:10368C0000209207EED5CBF80400DBF80000C00751
:10369C000CD1DBF80000C00704BFDBF800005FEAC8
:1036AC00C07003D1DBF80000C007EED0DBF80000DF
:1036BC0000060CD5DBF80000000644BFDBF8000068
:1036CC005FEA006003D5DBF800000006EED4DBF8FF
:1036DC000400DAF80000DAF80020121A592A3FF632
:1036EC0037AFDAF80020121A592A9EBFDAF80020F8
:1036FC00121A592A3FF62CAFDAF80020121A5A2A5D
:10370C00E9D325E741F21840C4F2020050F8083C16
:10371C00049A190758BF0132C3F380011144039A6C
:10372C00481E03F0010111449A0152B2142301EB1B
:10373C00E2111422CDE90310FDF7D8F940F6184C2C
:10374C0047F24076C4F2020C4FF4C870C0F21B066C
:10375C000025F8231F2402E0013800F0C980DAF8B4
:10376C000010DAF80020521A592A0ED8DAF8002084
:10377C00521A592A9EBFDAF80020521A592A04D834
:10378C00DAF80020521A5A2AEBD3DBF8001089071A
:10379C000CD4DBF8001089075CBFDBF800105FEA83
:1037AC00817103D4DBF800108907EED5CBF8043017
:1037BC00DBF80010C9070CD1DBF80010C90704BFF7
:1037CC00DBF800105FEAC17103D1DBF80010C90708
:1037DC00EED0DBF8001009060CD5DBF8001009065A
:1037EC0044BFDBF800105FEA016103D5DBF8001081
:1037FC000906EED4DBF80410DAF80010DAF8002031
:10380C00521A592A0ED8DAF80020521A592A9EBF99
:10381C00DAF80020521A592A04D8DAF80020521A81
:10382C005A2AEBD3DAF80010DAF80020521A592A87
:10383C000ED8DAF80020521A592A9EBFDAF8002066
:10384C00521A592A04D8DAF80020521A5A2AEBD301
:10385C00DBF8001089070CD4DBF8001089075CBF7B
:10386C00DBF800105FEA817103D4DBF800108907E4
:10387C00EED5CBF80440DBF80010C9070CD1DBF80F
:10388C000010C90704BFDBF800105FEAC17103D157
:10389C00DBF80010C907EED0DBF8001009060CD5D8
:1038AC00DBF80010090644BFDBF800105FEA016189
:1038BC0003D5DBF800100906EED4DBF80410DAF8B7
:1038CC000010DAF80020521A592A3FF645AFDAF800
:1038DC000020521A592A9EBFDAF80020521A592A8F
:1038EC003FF63AAFDAF80020521A5A2AE9D333E7F6
:1038FC004FF48040CCF80000DAF80000DAF8001041
:10390C00091AB142BFF48DACDAF80010091AB142B1
:10391C003EBFDAF80010091AB142BFF482ACDAF8F3
:10392C000010091AB142E9D37BE400F02AF84FF4F5
:10393C000F6100F083FC80F00100FCF768FF00F0E1
:10394C0085FC00F07BFC46F236405C21C0F60000A2
:10395C0000F085FC46F2C3403121C0F6000000F0B7
:10396C007EFC46F20411A7F13000C0F6000100F015
:10397C0061FC45F21C11A7F15000C0F6000100F0EB
:10398C0059FC80B56F4600F077F8F0B503AF2DE920
:10399C00000F85B0046842F210700D464FF69C7E05
:1039AC00844246F29810C0F600003CD341F259789C
:1039BC004EF2FF02A7F1260B0021CDF2B7184DF6FF
:1039CC00F00941F27B4AC0F2F5520195A4FB08358F
:1039DC000BEB010C043994424FEA553303FB0945B8
:1039EC001C46AEB24FEA960606FB0AF64FEA56465E
:1039FC0006FB0E5530F81660ACF80660ADB230F828
:103A0C001550ACF80850E1D8019D0A311C46632CC6
:103A1C000CD822460A2A1AD330F812000239A7F120
:103A2C002602505219E00A21632CF2D9A2B241F2BB
:103A3C007B43920802395A43A7F12606520C02FB2B
:103A4C000E439BB230F8133073520A2AE4D2013978
:103A5C0042F03000A7F126025054C1F10A00009048
:103A6C00A7F12600002243182846012100F008F88F
:103A7C0005B0BDE8000FF0BD80B56F4600F036FC18
:103A8C00F0B503AF2DE9000F85B00C46C169D7F82E
:103A9C000880934611F001024FF02B0A02EB080547
:103AAC0008BF4FF4881A99464A0712D400240268BA
:103ABC007ABBD0E90556524631462346CDF800B0C4
:103ACC00284600F0E0F8D0B1012005B0BDE8000FA9
:103ADC00F0BDBBF1000F16D01BF0030315D094F909
:103AEC000060002216F1410FC8BF0122012B0CD03F
:103AFC0094F9013013F1410FC8BF013205E0F368AE
:103B0C00284649465AE00022FFE715440268002A7D
:103B1C00CFD0CDF81090D0F80490A94510D9090752
:103B2C00CDF80C801CD490F82010A9EB0509029458
:103B3C00DFE801F05C02560249464FF0000955E0FF
:103B4C00D0E90556524631462346CDF800B02846FA
:103B5C0000F099F878B3012005B0BDE8000FF0BD76
:103B6C0001692346D0E90586524601913021016155
:103B7C00012190F8204080F82010314602904046F8
:103B8C00CDF800B000F07FF80146012000299CD14F
:103B9C00DDF810A0A9EB0500A346441C013C14D091
:103BAC0032694046302190470028F7D0012005B0FB
:103BBC00BDE8000FF0BDF36828460499424605B0F5
:103BCC00BDE8000FBDE8F0401847F3684046039A83
:103BDC0051469847B8B3012005B0BDE8000FF0BDC1
:103BEC0009F101024FEA59014FEA5209D0E9046583
:103BFC004C1CD0F81880013C0BD0D8F8102028466B
:103C0C00314690470028F6D0012005B0BDE8000FE2
:103C1C00F0BDCDF800B02846029B4146524600F05C
:103C2C0032F820B1012005B0BDE8000FF0BDD8F886
:103C3C000C302846DDE90321984770B1012005B00E
:103C4C00BDE8000FF0BD0298019980F820B0016129
:103C5C00002005B0BDE8000FF0BD0024A14509D03F
:103C6C00D8F8102028463146904701340028F5D06A
:103C7C00611E00E049460020494538BF012005B0CF
:103C8C00BDE8000FF0BDF0B503AF4DF8048DD7F8CB
:103C9C0008801C460E46B2F5881F0AD033691146BF
:103CAC00054698470146284619B101205DF8048B5A
:103CBC00F0BD3CB1F368214642465DF8048BBDE88B
:103CCC00F040184700205DF8048BF0BDF0B503AF51
:103CDC002DE9000F8DB0032316698DF830302023A9
:103CEC0008930023002ECDE90A1309900693049340
:103CFC0069D05069002800F09180D2F800A04101F1
:103D0C00D2F808B0013820F078404FF000084FF09E
:103D1C00000901300292039101900AEB09014A68F3
:103D2C003AB1DDE909030968DB689847002840F0DF
:103D3C00858006EB0800036906EB8900D0E90221B7
:103D4C00057F846908938DF830500B947AB1012A61
:103D5C0002D15BF831203AB1002256F80830CDE997
:103D6C000421022B0AD10FE00BEBC101496801229F
:103D7C0056F80830CDE90421022B05D04168012BFF
:103D8C0007D15BF831200AB1002203E00BEBC10133
:103D9C00496801224369079106920BEBC3015BF85A
:103DAC0033004B6804A99847002847D1039808F1C1
:103DBC00200809F108094045AFD1DDE901A250689E
:103DCC00824530D33FE0D06840B394680DF11008C1
:103DDC00D2F800B0002604EBC009013820F0604096
:103DEC00029200F1010A0BEBC6014A682AB1DDE927
:103DFC0009030968DB68984700BB04EBC60541461C
:103E0C00D5E900029047C8B905F1080001364845CC
:103E1C00E9D1029A5068824505D314E04FF0000AAC
:103E2C00506882450FD21268DDE90901CB6852F85F
:103E3C003A1002EBCA025268984720B101200DB02B
:103E4C00BDE8000FF0BD00200DB0BDE8000FF0BDC7
:103E5C0080B56F46FFF710FEF0B503AF2DE9000FEC
:103E6C008FB09846034600794FF0010900284FF0B7
:103E7C0001007BD11D689A46CDF80480D7F80880E4
:103E8C00E8695B7946072DD40C4646F284119346BB
:103E9C0046F28712D5E90506C0F60001C0F600020D
:103EAC00002B18BF1146F3684FF0030218BF022213
:103EBC009847002858D1D5E905015A46CB682146C8
:103ECC009847002850D1D5E905010222CB6846F26B
:103EDC006811C0F600019847002845D10198294681
:103EEC00C04742E073B90C46D5E90501CB6846F2F0
:103EFC0089111646C0F6000103229847A0BBE86959
:103F0C00324621460D9046F26C10C0F60000A7F127
:103F1C0041060C900123A86904966C69039002A8D1
:103F2C00D5E9026807F8413CD5E900E395F820B0E3
:103F3C00029408ACD5F810C00B908DF838B084E81A
:103F4C004011CDE906E300F023F868B946F2681198
:103F5C0002A8C0F60001022200F01AF820B901985C
:103F6C0006A9BA68904748B1012053461871184603
:103F7C0083F805900FB0BDE8000FF0BDDDE90B0133
:103F8C000222CB6846F28C11C0F600019847ECE790
:103F9C00F0B503AF2DE9000F87B093460268049289
:103FAC004FF0000842684FF0000980684FF0000A9B
:103FBC000590481C0090CBF100000290481E039223
:103FCC000691019013E00198005D0A38B0FA80F078
:103FDC004009039BA4EB0802059D0699DB68287039
:103FEC004144049898470028B04640F0F1805FEABD
:103FFC00CA7040F0E880D94500F2CD8040F2001A3A
:10400C00C0F2011A02E0D94500F2C5800698ABEB6C
:10401C00090EBEF1070F484422D8CB4500F0BA80F8
:10402C00029900224944835C0A2B00F0A0808B1873
:10403C005E1C00F0AF80861875780A2D00F0818028
:10404C009D1C00F0A780B5780A2D7CD0033300F0BE
:10405C00A180F3780A2B78D004328B18E3D199E045
:10406C00C11C21F0030CBCEB00011CD08D1EA1F176
:10407C00030A4C1E0022835C0A2B74D0944215D088
:10408C0083185E780A2E62D095420FD09E780A2E45
:10409C005FD092450AD0DB780A2B5ED00432835C69
:1040AC000A2BEBD15FE0AEF1080207E040F2001AF8
:1040BC00AEF108029142C0F2011A18D8042303EBA6
:1040CC000C0656E9015383F00A34AAEB040423438B
:1040DC0085F00A34AAEB040425432B4023F07F33EC
:1040EC00B3F1803F03D1083108369142E9D97145CB
:1040FC0050D0009B01EB0902029E134402EB060C0C
:10410C00ABEB0102A2EB090A0022AAF1010E9E18E8
:10411C0016F8014C0A2C25D096453BD09C5C0A2CF9
:10412C0019D00CEB0204A51C34D075780A2D16D0CE
:10413C0003342FD0B4780A2C13D004329245E6D134
:10414C0028E0013213E0023211E003320FE00132B9
:10415C0009E0023207E0013204E0033203E00232EC
:10416C0000E003320A4440F2001AC0F2011A02EBDA
:10417C00090101F101095945BFF445AF805C0A28DA
:10418C007FF441AF4FF0000A4E464C46059800783C
:10419C0050B913E0D946D84515D04FF0010A464620
:1041AC005C460598007848B1039845F2D601C0F6F4
:1041BC0000010422C3680498984748B944457FF429
:1041CC0002AF002005E7002007B0BDE8000FF0BDEE
:1041DC00012007B0BDE8000FF0BDF0B503AF4DF8FE
:1041EC00048D8568D0E90046287878B145F2D6026E
:1041FC00F368C0F600028846114620460422984710
:10420C00414618B101205DF8048BF0BDA1F10A0004
:10421C003269B0FA80F04009287020465DF8048BB2
:10422C00BDE8F04010470A4646F26C11C0F600019A
:10423C00FFF74CBD80B56F46FFF71EFC80B56F468F
:10424C0000F000F880B56F46FFF716FC80B56F469E
:10425C0046F23D102B21C0F6000000F000F880B5AE
:10426C006F46FFF709FCB0B502AFA2B003780DF1B1
:10427C00080E8C468022812118201D4614460EEB18
:10428C00010260F35F0502F8025C5D0815D060F373
:10429C005F0502F8035C9D0812D060F35F050439DA
:1042AC0002F8045CDD080ED060F35F0502F8055CD3
:1042BC00221F1B09E1D1E01E07E08A1E481E04E004
:1042CC00601ECA1E01E0A01E0A4646F29611C0F1FD
:1042DC0081000EEB02030090C0F600016046022242
:1042EC00FFF7CEFB22B0B0BDFEE77047FEE7F0B59E
:1042FC0003AF2DE9000F85B08146D7E902AE13F06C
:10430C00010004BF8A46BEF1000F23D04DF6836333
:10431C0048F27F44C4F21B33C0F21E040D19A1FBFA
:10432C000360BAF1000FA5FB033600F0F4814FEAED
:10433C00904C4FF68010C0F237304FEAD64B824586
:10434C001AD94CF60040C1F6BF10B0FBFAF020F0C1
:10435C00010012E0022043F60401C9F8000043F208
:10436C001000C2F20040C4F2020162F396500860E1
:10437C0005B0BDE8000FF0BD082000FB0AF8BEF147
:10438C00000F0490CDF80C801CBF46F60048C0F21C
:10439C00DC28E34500F2C1814FF0000004F1010379
:1043AC0038BF01209D42C0F0B6818B4500F2B3812D
:1043BC0044F2402EE345C0F20F0E029230D2584424
:1043CC0060452DD8B1FBFBF36045B8FBF3F505FB5D
:1043DC00138515D2002800F09E81884200F29B8143
:1043EC00B1FBF0F3441CB8FBF3F606FB1383AB42B2
:1043FC0038BF83469D4228BF1D46A4452046E9D1BF
:10440C007145C0F08881B1FBFCF0B8FBF0F202FB07
:10441C001080A84205D3BBF1000FDC4601D17AE134
:10442C00DC46B1FBFCFB0EF10101ABF57420DDF8B1
:10443C0010E0A0F51070884280F06681FD68002DB8
:10444C0000F01C81BEF1000F00F065814BF2000002
:10445C0043F23433C0F67130C3F23333B0FBFBF0AC
:10446C0000FB0BF141F60040C0F64E60B0FBFBF0D8
:10447C00B1FBFEF200FB0BF0AAEB0206B0FBFEF266
:10448C00BAEB020548BF6D42002ECDF8049048BF30
:10449C007642A0FB0304721B48F6000018BF0122F1
:1044AC00C1F22A10AE42B0FBFBF0B8BF4FF0FF32A6
:1044BC0000FB0BF0B4EB910918BF4FF00109B4EB02
:1044CC00910F38BF4FF0FF39B9F1000F08BF91467B
:1044DC00B9F1010FB0FBFEF208BF2E46BAEB020297
:1044EC0048BF5242B31A18BF01239642B8BF4FF0CF
:1044FC00FF33B9F1010F18BF8C084AF6AB21C2F695
:10450C00AA21A0FB01014FF20040C1F20640B0FB12
:10451C00FBF00D1B18BF0125A14238BF4FF0FF3532
:10452C00002D08BF1D46012D08BF164600FB0BF2DF
:10453C00B2FBFEF0BAEB000048BF4042331A18BF82
:10454C0001238642B8BF4FF0FF33012D08BF0C4644
:10455C0044F62511C2F29241A2FB0118B8EB0401FA
:10456C0018BF0121A04538BF4FF0FF31002908BF0B
:10457C001946012908BF064646F20000C1F2E36065
:10458C00B0FBFBF000FB0BF2B2FBFEF0BAEB000051
:10459C0048BF4042331A18BF01238642B8BF4FF0C0
:1045AC00FF33012908BF4446B4EBD20E18BF4FF0BD
:1045BC00010EB4EBD20F039288BF4FF0FF3EBEF159
:1045CC00000F08BF9E46BEF1010F08BF06464CF611
:1045DC0000404BF20002C1F6BF10C0F67132B0FBC6
:1045EC00FBF000FB0BF80498B8FBF0F0BAEB000AF8
:1045FC0048BFCAF1000AB6EB0A0018BF0120B9F196
:10460C00010F04BF41F60042C0F64E62012D04BFFB
:10461C0048F60002C1F22A1201294CF21D7104BFA6
:10462C004FF20042C1F20642C1F67141BEF1010FD8
:10463C00A8FB011304BF46F20002C1F2E362564527
:10464C00B8BF4FF0FF30BEF1010F039908BFCC0883
:10465C00FD68191B18BF0121A34238BF4FF0FF3171
:10466C00002908BF0146012904BF4CF60042C1F6DF
:10467C00BF12DDF80490DDF810E00392039846F6C3
:10468C000042C0F2DC22B0FBFBF000FB0B21013935
:10469C00914240D3029B49F68176C1F25E664FF09F
:1046AC000052002B4FF4403303EBCE33A1FB0661D9
:1046BC0018BF4FF0015203F440331A440CF03F037F
:1046CC00BEF1000F1A4447F6C07303EA80131A4474
:1046DC0001F0707342EA830243F60403C4F202034E
:1046EC001A6018D000FB0BF0890D0122B0FBF1F120
:1046FC00B0FBFEF0C9E90020C9E90251C9F810C0AD
:10470C0005B0BDE8000FF0BD46F288303B21C0F685
:10471C000000FFF7A4FDFFF79BFBFFF797FDF0B53B
:10472C0003AF2DE9000F85B0002A00F0B180D7F857
:10473C0008A0B1FBF2FE4FEA5E098A420390CDE974
:10474C00011221D90220A3FB0026002E00F0A0802C
:10475C000130504568D0A3FB0026002E00F0988055
:10476C000130504560D0A3FB0026002E00F0908055
:10477C000130504558D0A3FB0026002E00F0888055
:10478C0001305045DFD14FE04EF6013441F6007157
:10479C00CAF100080320C1F2C934CFF60A21461E23
:1047AC00A3FB062535B94A44B2FBFEFB0BFB0E12EC
:1047BC00A2425FD3824537D0A3FB0025461C35B9F6
:1047CC004A44B2FBFEFB0BFB0E12A24257D308EB82
:1047DC000002551C28D0D446A3FB065A0496861C0E
:1047EC00BAF1000F0ED14D44B5FBFEFB4EF6013570
:1047FC000BFB0E14C1F2C935AC424EF60134C1F2BA
:10480C00C93440D30232E2460ED0A3FB062535B99B
:10481C004A44B2FBFEFB0BFB0E12A2423AD304300D
:10482C0008EB0002012ABAD1A3FB0A02DAB9DDE9CE
:10483C0001128A422CD848444EF60131B0FBFEFBE3
:10484C0041F60070CFF60A20C1F2C9310BFB0E0005
:10485C00884208D20BFB0EF0B0FBFAF8B8EB03055C
:10486C0048BF6D4271E000200399086005B0BDE8B7
:10487C00000FF0BD04960BFB0EF2064606E00BFB98
:10488C000EF205460BE00BFB0EF2E246049D35B929
:10489C00FFF7DEFA033035460BFB0EF20646B2FB91
:1048AC00F5F80495B8EB030548BF6D42564502D99F
:1048BC00DDF810A048E0AC461ED3A3FB0A02002A88
:1048CC003FD14844B0FBFEF000FB0E12A24238D29E
:1048DC0000FB0EF2B2FBFAF6F21A48BF52429542B6
:1048EC00654688BFB046049992BF8A4683461546F2
:1048FC002AE00136B245E0D0A3FB0602002AF8D12B
:10490C004844B0FBFEF000FB0E12A242F1D2002E86
:10491C00BED000FB0EF2B2FBF6F4E21A48BF5242D4
:10492C00954288BFA046049C88BF344604944EF63A
:10493C00013484BF83469446C1F2C93428BF15465E
:10494C00D7E7DDF810A06546029A10041FFA8BF128
:10495C003FFA80F040EA0A6008440399C1E9010873
:10496C000120CD60086005B0BDE8000FF0BDF0B5CA
:10497C0003AF2DE9000F8FB00D46D107049320D063
:10498C004DF68361C4F21B31A5FB012348F27F4233
:10499C00C0F21E022A44A2FB01169A0C03924FEAA3
:1049AC00D648B8EB934F12D94FF0020E0AAB002148
:1049BC00C3F800E00A9C022C2ED14FF0020B0BAA7C
:1049CC00A1E0012101600FB0BDE8000FF0BD04466D
:1049DC000720049B294600900BA84246FFF79FFE38
:1049EC000B98002800F0B780039A00219DF832C084
:1049FC0009AB9DF833909045DDE90DAE20460A9148
:104A0C0028BF0121BDF8306038BF08F10108C3F898
:104A1C0000E00A9C022CD0D0DDF824B00023904595
:104A2C0088BF0123194301D0614665E0CDE9064BEF
:104A3C009045CDF814A0E246E34602950190CDF8DE
:104A4C0020E02FD207200299049B424600900BA82D
:104A5C00FFF765FE0B9800287DD0089C08F1010833
:104A6C009DF83310DDE90D3294429DF83200BDF80B
:104A7C00305082BF894683462E46059988BF194619
:104A8C00059188BF82460798944288BF10460790CC
:104A9C00069888BF0020069028BF1446039A0894F5
:104AAC004245CFD107200299049B00900BA8FFF739
:104ABC0036FE0B9800284ED0089CD4469DF8331037
:104ACC00DDE90D3294429DF83200BDF8305088BFBC
:104ADC008946594684BF01462E46059D88BF1D4612
:104AEC0088BF8446DDF81CB0944288BF9346069C70
:104AFC0088BF00240198AA46C9B20AAAC6EA014195
:104B0C000B9441EA0961C2F800B00B9A022A29D031
:104B1C00C0E9002C0B0CC0F808A043F60400C4F24A
:104B2C000200026863F30502026047F6C072D0F817
:104B3C00803002EA811201F0E06142EA011148F290
:104B4C003F02C8F6FF721A401144C0F880100FB033
:104B5C00BDE8000FF0BD46F2EA302521C0F600009A
:104B6C00FFF77DFB46F2C3302721C0F60000FFF7AC
:104B7C0076FBF0B503AF2DE9000F87B00646C807EA
:104B8C0009D0D8076AD0BB6802A8314600F098F863
:104B9C0002AB0FCB6AE0D80760D04DF68361C4F24C
:104BAC001B31A6FB012048F27F42C0F21E023244A8
:104BBC00A2FB0112D40CB4EB904F48D8BB684FEA5F
:104BCC00904802A83146224600F07AF8002044456D
:104BDC0038BF0120DDF808B0BBF1020F37D0DDE99A
:104BEC0003294445059B3ED2044444453BD8DDF89B
:104BFC0018A01D46CDF80480904618D2BB6802A8B8
:104C0C003146224600F05CF83046069EDDE902C1D2
:104C1C000134DDE90423B24581BF1D469146884627
:104C2C00E34628BFB24606460198A042E6D1019A57
:104C3C0002A8BB68314600F043F802AE4FCEB24535
:104C4C009FBF2B464A464146584602280ED146F293
:104C5C000F402721C0F60000FFF701FB012007B031
:104C6C00BDE8000FF0BD114658464A4643F68C0687
:104C7C004FF4F85505EB0323C4F202063668150C05
:104C8C001B0A63F30C2643F68C03C4F202031E606A
:104C9C0053F8886C65F3050643F8886C02F070666F
:104CAC0053F8045C62F38E1648F23F02CFF2FF0217
:104CBC002A40324443F8042C07B0BDE8000FF0BD85
:104CCC00F0B503AF2DE9000F8BB007AD0390580082
:104CDC001C468B464FF0000A4FF002084FF00F09AC
:104CEC000692029004EB0A06069A28465946334669
:104CFC00CDF80090FFF713FD0798B0B908F1010843
:104D0C00B246B8F1210FEDD10F20069A009007A8FA
:104D1C0063015946FFF703FD0798012860D1DDE9CF
:104D2C0008922023DDF828A050E0DDE90892A8F1D4
:104D3C0001030A9E1F2B01D9B24647E0B8F1200FA0
:104D4C00049218D11F20B24605900F20069A0090AD
:104D5C0007A863015946FFF7E2FC0798A0B308AA1D
:104D6C00059B07CA964284BF20239246049A84BFAF
:104D7C000A4681462AE00298059300EB0A05B246E2
:104D8C0005E008F101082544B8F1200FDDD00F2013
:104D9C00069A009007A859462B46FFF7C0FC0798C7
:104DAC000028EED008AA059B07CA964288BF434646
:104DBC00059388BF9246049B88BF0B46049388BF1B
:104DCC00814628BF1646DCE7DDE904230399002061
:104DDC0081E80502C1E9033A0BB0BDE8000FF0BD54
:104DEC0046F2C3302721C0F60000FFF738FA72B63E
:104DFC00704762B67047012101EB50000138FDD1BC
:104E0C007047BFF34F8F7047EFF31080704700F07F
:104E1C0000B8F0B503AF2DE90007102A1ED34342AA
:104E2C0003F0030800EB0803834233D9A8F1010C0B
:104E3C00B8F1000F06460D461AD00D46064615F879
:104E4C0001EBB8F1010F06F801EB11D04E78B8F177
:104E5C00020F467008D18D1C861C09E084460CEBB1
:104E6C0002039C453ED36AE08E78CD1C8670C61C2E
:104E7C00BCF1030F0ED3043D043E15F8044F06F8A5
:104E8C00044F6C787470AC78B470EC78F470341D9A
:104E9C009C42F2D1A2EB080E41442EF0030203EB2C
:104EAC00020C8C0758D1634515D20C46256843F883
:104EBC00045B63450FD2656843F8045B63453EBFF2
:104ECC00A56843F8045B634505D2E568103443F8E4
:104EDC00045B6345EAD311440EF003020CEB0203AE
:104EEC009C452CD212F00304A2F1010E13D00E46F5
:104EFC00654616F8012B012C05F8012B0DD04A78CC
:104F0C00022C8CF801201DD18E1C0CF10205BEF177
:104F1C00030F05D213E065460E46BEF1030F0ED308
:104F2C00311F2A1F11F8046F02F8046F4E78567067
:104F3C008E789670CE78D670161D9E42F2D1BDE852
:104F4C000007F0BDCE1C0CF103058A788CF802200A
:104F5C00BEF1030FE4D2F2E76345BCD2182421F072
:104F6C00030604EAC108CC00C4F10009346806F158
:104F7C00080509F0180955F8046C24FA08FA06FA21
:104F8C0009F444EA0A0443F8044B6345A3D22C68A1
:104F9C0026FA08FA04FA09F646EA0A0643F8046BFC
:104FAC0063453FBF6E6824FA08FA06FA09F444EA2E
:104FBC000A043CBF43F8044B6345BFF48CAFAC68A8
:104FCC0026FA08FA103504FA09F646EA0A0643F8F6
:104FDC00046B6345CFD37EE780B56F46042914D3A9
:104FEC00A1F1040C012202EB9C0212F003030ED07F
:104FFC004FF0000E024642F804EB012B0BD1104689
:10500C006146BCF10C0F19D222E0024620E0BCF143
:10501C000C0F13D21CE0022BC0F804E006D10839A7
:10502C0008300246BCF10C0F08D211E000220C39FA
:10503C0082600C300246BCF10C0F09D300230246EF
:10504C001039C2E90033C2E9023310320329F7D810
:10505C005018824222D211F0030CA1F101010ED0A2
:10506C004FF0000E134603F801EBBCF1010F0BD00F
:10507C00BCF1020F82F801E003D1931C04E013464B
:10508C0002E000239370D31C032938BF80BD191F85
:10509C00002241F8042F0B1D8342FAD180BDFEE79C
:1050AC004572726F72557466384572726F727661A2
:1050BC006C69645F75705F746F6572726F725F6C30
:1050CC00656E536F6D654E6F6E652020202000005D
:1050DC0000000000010000000100000005020008B3
:1050EC00810600080D080008000000000C000000FC
:1050FC0004000000811A00083F070008FF070008A1
:10510C00496E76616C6964436F6E66696700000076
:10511C00000000000000000001000000250800084D
:10512C00000000000000000001000000F30800086F
:10513C000000000000000000000000000000000063
:10514C0000001010101010101000101000000000C3
:10515C0000242424000000000000000000000000D7
:10516C0000002424247E24247E2424240000000017
:10517C000010107C9290907C1212927C1010000007
:10518C000000649468081010202C524C00000000A1
:10519C00000018242418304A4444443A000000000B
:1051AC0000101010000000000000000000000000C3
:1051BC0000000810202020202020100800000000F3
:1051CC000000201008080808080810200000000043
:1051DC00000000000024187E1824000000000000CD
:1051EC00000000000010107C1010000000000000F7
:1051FC000000000000000000000010102000000063
:10520C00000000000000007E000000000000000014
:10521C000000000000000000000010100000000062
:10522C00000004040808101020204040000000007A
:10523C0000003C4242464A526242423C000000009E
:10524C0000000818280808080808083E000000009C
:10525C0000003C42420204081020407E0000000086
:10526C0000003C4242021C020242423C0000000090
:10527C00000002060A1222427E0202020000000016
:10528C0000007E4040407C020202423C00000000D4
:10529C0000001C2040407C424242423C0000000086
:1052AC0000007E0202040408081010100000000028
:1052BC0000003C4242423C424242423C0000000060
:1052CC0000003C424242423E020204380000000010
:1052DC000000000000101000000010100000000082
:1052EC000000000000101000000010102000000052
:1052FC0000000004081020402010080400000000EA
:10530C0000000000007E00007E0000000000000095
:10531C00000000402010080408102040000000008D
:10532C0000003C424242040808000808000000004B
:10533C0000007C829EA2A2A2A69A807E00000000A1
:10534C0000003C424242427E424242420000000087
:10535C0000007C4242427C424242427C00000000FF
:10536C0000003C42424040404042423C00000000B1
:10537C00000078444242424242424478000000001D
:10538C0000007E40404078404040407E00000000DD
:10539C0000007E404040784040404040000000000B
:1053AC0000003C424240404E4242423C0000000061
:1053BC000000424242427E42424242420000000011
:1053CC0000003810101010101010103800000000E1
:1053DC0000000E04040404040444443800000000DB
:1053EC0000004244485060605048444200000000B5
:1053FC0000004040404040404040407E00000000E3
:10540C00000082C6AA9292828282828200000000F0
:10541C00000042424262524A4642424200000000B0
:10542C0000003C42424242424242423C00000000E8
:10543C0000007C424242427C404040400000000060
:10544C0000003C424242424242424A3C02000000BE
:10545C0000007C424242427C504844420000000022
:10546C0000003C4240403C020242423C0000000032
:10547C000000FE1010101010101010100000000092
:10548C0000004242424242424242423C0000000082
:10549C00000042424242422424241818000000001A
:1054AC00000082828282829292AAC6820000000050
:1054BC000000424224241818242442420000000018
:1054CC0000008282444428101010101000000000CC
:1054DC0000007E02020408102040407E0000000004
:1054EC000000382020202020202020380000000040
:1054FC0000004040202010100808040400000000A8
:10550C0000003808080808080808083800000000DF
:10551C000010284400000000000000000000000003
:10552C00000000000000000000000000007E0000F1
:10553C001008000000000000000000000000000047
:10554C0000000000003C023E4242423E00000000CF
:10555C0000004040407C42424242427C000000003D
:10556C0000000000003C42404040423C0000000073
:10557C0000000202023E42424242423E0000000053
:10558C0000000000003C42427E40403C0000000015
:10559C0000000E10107C10101010101000000000F5
:1055AC0000000000003E42424242423E02023C00E9
:1055BC0000004040407C4242424242420000000017
:1055CC0000001010003010101010103800000000F7
:1055DC0000000404000C04040404040444443800D3
:1055EC0000004040404244487048444200000000E3
:1055FC0000003010101010101010103800000000B7
:10560C000000000000FC9292929292920000000026
:10561C0000000000007C4242424242420000000076
:10562C0000000000003C42424242423C00000000AC
:10563C0000000000007C42424242427C404040005C
:10564C0000000000003E42424242423E0202020082
:10565C0000000000005E6040404040400000000040
:10566C0000000000003E40403C02027C00000000B4
:10567C0000001010107C10101010100E0000000014
:10568C0000000000004242424242423E0000000044
:10569C0000000000004242422424181800000000C0
:1056AC0000000000008282929292927C0000000026
:1056BC000000000000424224182442420000000076
:1056CC0000000000004242424242423E02023C00C4
:1056DC0000000000007E04081020407E0000000046
:1056EC0000000C10101020101010100C0000000006
:1056FC0000001010101010101010101000000000FE
:10570C0000003008080804080808083000000000F1
:10571C000062928C000000000000000000000000FD
:10572C0000007E42424242424242427E0000000061
:10573C000000000000001038100000000000000005
:10574C00000000000040407F4040000000000000CE
:10575C0000000000000000FF00000000000000003E
:10576C0000000000001018FC1810000000000000E1
:10577C000000000000484C7E4C4800000000000077
:10578C0000000000000000000006CEDCF8F0FCFC7D
:10579C003F3F0F1F3B736000000000000000000043
:1057AC0000000000030F3FFFFF3F0F03000000004D
:1057BC00030F3FFFFFFFFFFFFFFFFFFFFF3F0F0345
:1057CC00000000000000007F7F00000000000000CF
:1057DC0000000000000000FEFE00000000000000C1
:1057EC00000101010101017F7F01010101010100A3
:1057FC0000808080808080FEFE80808080808000A1
:10580C000000000000000080C0E0713B1F0E04008F
:10581C0000000103070E1C3870E0C080000000007F
:10582C007F80BFBF80808083878787878380807FCE
:10583C00F0088482010101C1E1E1E1E1C10101FE55
:10584C0000000000000C183060FFFF6030180C00E6
:10585C00000000030303030303FFFF00000000002C
:10586C000103060C183060C0C06030180C06030130
:10587C0080C06030180C060303060C183060C08022
:10588C000101030307070F0F1F1F3F3F7F7FFFFF20
:10589C008080C0C0E0E0F0F0F8F8FCFCFEFEFFFFFA
:1058AC00C0F0FCFFFFFFFFFFFFFFFFFFFFFCF0C09E
:1058BC0000000000C0F0FCFFFFFCF0C00000000086
:1058CC003E418080BE8080413F000000000000000F
:1058DC000000808080808080C0E070381C0E070340
:1058EC000103060C193367CFCF6733190C0603017C
:1058FC0080C0603098CCE6F3F3E6CC983060C08082
:10590C00FEFEC0C0C0C0C0CFCFC0C0C0C0C0FEFE75
:10591C0000000030180C06FFFF060C1830000000C9
:10592C00FFFF7F7F3F3F1F1F0F0F0707030301017F
:10593C00FFFFFEFEFCFCF8F8F0F0E0E0C0C0808059
:10594C00C0E070381C0E070303070E1C3870E0C053
:10595C0003070E1C3870E0C0C0E070381C0E070343
:10596C00077FFF202D2D2D2D2D2D2D2D2D2D201F85
:10597C00E0FEFF04B4B4B4B4B4B4B4B4B4B404F836
:10598C00F8F8C0C0C0000000000000C0C0C0F8F8AB
:10599C001F1F0303030000000000000303031F1F6D
:1059AC000000000000000000007E7E1E3E76E6C077
:1059BC0003676E7C787E7E00000000000000000013
:1059CC0031313137373101FDFD3131313131313147
:1059DC008C8C8CECEC8C8C8C8C8C80BFBF8C8C8CE1
:1059EC000000F0888780878488889090A0FF000052
:1059FC0000000000FF00FF010202040408F8000090
:105A0C003E418888BE8888413F00000000000000AD
:105A1C000000808080808080C0E070381C0E0703FE
:105A2C003C510008F00800000800000010000000C5
:105A3C00F9020008C002191AC1024500C20133C59F
:105A4C00020028B102A011B40102B60300423BB718
:105A5C000107E00F1F25220B060A4EC63900000075
:105A6C00000000E10F1F3F3F0F1F0F464931050992
:105A7C00031C1A00F1083604003C0F0FA402F209B3
:105A8C0018A312023212FF3200F4054000089104F0
:105A9C00F80221043A01554954532D426F61726446
:105AAC00204C6F67696320416E616C797A65722056
:105ABC0056302E31000000000000000000000000F5
:105ACC0000000000000018181818181818001818F2
