:020000040800F2
:1000000000000320AD010008B50301086D230108BD
:10001000B5030108B5030108B5030108000000009D
:10002000000000000000000000000000B50301080F
:10003000B503010800000000B5030108B50301087D
:10004000B5030108B5030108B5030108B5030108AC
:10005000B5030108B5030108B5030108B50301089C
:10006000B5030108B5030108B5030108B50301088C
:10007000B5030108B5030108B5030108B50301087C
:10008000B5030108B5030108B5030108B50301086C
:10009000B5030108B5030108B5030108B50301085C
:1000A000B5030108B5030108B5030108B50301084C
:1000B000B5030108B5030108B5030108B50301083C
:1000C000B5030108B5030108B5030108B50301082C
:1000D000B5030108B5030108B5030108B50301081C
:1000E000B5030108B5030108B5030108B50301080C
:1000F000B5030108B5030108B5030108B5030108FC
:10010000B5030108B5030108B5030108B5030108EB
:10011000B5030108B5030108B5030108B5030108DB
:10012000B5030108B5030108B5030108B5030108CB
:10013000B5030108B5030108B5030108B5030108BB
:10014000B5030108B5030108B5030108B5030108AB
:10015000B5030108B5030108B5030108B50301089B
:10016000B5030108B5030108B5030108B50301088B
:10017000B5030108B5030108B5030108B50301087B
:10018000B5030108B5030108B5030108B50301086B
:10019000B5030108B5030108B5030108B50301085B
:0C01A000B5030108B5030108B503010810
:1001AC0010F005F90E480F490022814201D004C01D
:1001BC00FBE70D480D490E4A814202D008CA08C01F
:1001CC00FAE70C484FF47001026842EA010202603F
:1001DC00BFF34F8FBFF36F8F07F00EF900DE0000F7
:1001EC00000000200400002000000020000000207F
:1001FC00843E010888ED00E0EAB180B56F4601EB62
:10020C00020C44F60002C4F2000203E00131536018
:10021C0061450ED00B7810680006F7D41068000604
:10022C005CBF10685FEA0060F0D410680006F2D57D
:10023C00ECE7BDE880400020704780B56F460B4668
:10024C00D0E900121846BDE880400FF0ABBB80B57A
:10025C006F4681B0002080290090684602D200F1E0
:10026C00010C37E0B1F5006F0BD202220B4662F3A2
:10027C009F13C02200F1020C8DF8013042EA91115B
:10028C0028E0B1F5803F10D202220B4662F39F1397
:10029C008DF802308B0900F1030C62F39F13E022FE
:1002AC008DF8013042EA113114E002220B4662F360
:1002BC009F138DF803308B0900F1040C62F39F132C
:1002CC008DF802300B0B62F39F13F0228DF8013086
:1002DC0042EA914144F600028DF800106946C4F2DE
:1002EC00000203E00131536061450ED00B781068B9
:1002FC000006F7D4106800065CBF10685FEA006067
:10030C00F0D410680006F2D5ECE7002001B080BDF7
:10031C00F0B503AF4DF8048D82B0804600208029E3
:10032C00019003D201248DF8041033E0B1F5006F75
:10033C0009D20224084664F39F108DF80500C020F2
:10034C0040EA911024E002200A4660F39F12B1F5B6
:10035C00803F0DD28DF806208A0960F39F12E020B1
:10036C0040EA11308DF805208DF80400032411E0CB
:10037C008DF807208A0960F39F128DF806200A0B6E
:10038C00042460F39F12F02040EA91408DF8052080
:10039C008DF80400D8E90156B54215D309D0D8F828
:1003AC00000001A9AA1B3044944238BF224610F029
:1003BC00A5FE3019A84238BF0546C8F808500020E1
:1003CC0002B05DF8048BF0BD304629460FF00BFDF2
:1003DC0080B56F460A4642F2BC31C0F60101BDE859
:1003EC0080400FF0CABB80B56F460A4642F2A4317A
:1003FC00C0F60101BDE880400FF0BFBB80B56F4671
:10040C00C00708BF80BDBDE8804010F03BBDF0B513
:10041C0003AF2DE9000F83B0BC689A469046D4E92F
:10042C0002B52B465A4600F0EFF9A8F120000BF16B
:10043C0007016843C9080191484361688142C0F0D3
:10044C00DF80002D18BFBBF1000F0BD140F6184018
:10045C004FF48041C4F202000160584603B0BDE87D
:10046C00000FF0BD22682426091A002302EB0009B4
:10047C0043F20802C4F20006C4F201024FF007086E
:10048C00009504E0029B009D0133AB42DED0019845
:10049C000025029303FB00FE02E001355D45F1D01F
:1004AC000EEBD500884280F0AD8019F8000028EAE8
:1004BC000503D6F800C0D84000F00100404200EA25
:1004CC000A003368A3EB0C03592B0ED83368A3EB4B
:1004DC000C03592B9EBF3368A3EB0C03592B04D888
:1004EC003368A3EB0C035A2BEBD313689B0709D48B
:1004FC0013689B075CBF13685FEA837302D41368AD
:10050C009B07F2D583B21B0A53601368DB0709D132
:10051C001368DB0704BF13685FEAC37302D1136867
:10052C00DB07F2D013681B0609D513681B0644BF02
:10053C0013685FEA036302D513681B06F2D4536891
:10054C0033683468E41A592C0BD83468E41A592CE3
:10055C009EBF3468E41A592C03D83468E41A5A2C18
:10056C00EFD333683468E41A592C0BD83468E41A86
:10057C00592C9EBF3468E41A592C03D83468E41AF9
:10058C005A2CEFD313689B0709D413689B075CBFE5
:10059C0013685FEA837302D413689B07F2D5C0B269
:1005AC0050601068C00709D11068C00704BF1068FC
:1005BC005FEAC07002D11068C007F2D01068000664
:1005CC0009D51068000644BF10685FEA006002D5C8
:1005DC0010680006F2D45068306833681B1A592B27
:1005EC003FF65BAF33681B1A592B9EBF33681B1A3F
:1005FC00592B3FF652AF33681B1A5A2BEDD34CE7ED
:10060C000FF0F1FB0EF0A1FEF0B503AF2DE9000FDA
:10061C0083B0BC681646B52A08BF8026202A257CE4
:10062C0038BF7F2645B1BC60324603B0BDE8000F31
:10063C00BDE8F040FFF7EBBED4E902959A462B4695
:10064C004A4600F0E1F8002D019518BFB9F1000FF2
:10065C000CD140F618404FF48041C4F20200016006
:10066C0009F1010003B0BDE8000FF0BDA6F12000B8
:10067C00D4E90081242543F2080409FB00FB002285
:10068C00C4F20005C4F2010403E0DDE90102824278
:10069C00DFD002F0070001230132029203FA00FCC2
:1006AC00002301E04B45F0D003EB0B00884280F0B7
:1006BC00A98018F800000133D5F800E000EA0C001E
:1006CC002E68A6EB0E06592E0ED82E68A6EB0E063B
:1006DC00592E9EBF2E68A6EB0E06592E04D82E68F6
:1006EC00A6EB0E065A2EEBD32668B60709D426685D
:1006FC00B6075CBF26685FEA867602D42668B60722
:10070C00F2D5002818BF504686B2360A66602668B5
:10071C00F60709D12668F60704BF26685FEAC67695
:10072C0002D12668F607F2D02668360609D5266867
:10073C00360644BF26685FEA066602D5266836068A
:10074C00F2D466682E682A68921B592A0BD82A683C
:10075C00921B592A9EBF2A68921B592A03D82A68D1
:10076C00921B5A2AEFD32E682A68921B592A0BD84F
:10077C002A68921B592A9EBF2A68921B592A03D8B1
:10078C002A68921B5A2AEFD32268920709D422684E
:10079C0092075CBF22685FEA827202D422689207D9
:1007AC00F2D5C0B260602068C00709D12068C007CC
:1007BC0004BF20685FEAC07002D12068C007F2D085
:1007CC002068000609D52068000644BF20685FEA4F
:1007DC00006002D520680006F2D4606828682A6898
:1007EC00121A592A3FF65EAF2A68121A592A9EBF6E
:1007FC002A68121A592A3FF655AF2A68121A5A2A31
:10080C00EDD34FE70EF0A1FDF0B503AF4DF8048D1D
:10081C0040F6184C4FF00056C4F2020C40F2240E75
:10082C00CCF800684FF08046CCF80060C4F2000EA3
:10083C00DEF80060A1F10108441EDEF80050AD1B8B
:10084C00592D0ED8DEF80050AD1B592D9EBFDEF889
:10085C000050AD1B592D04D8DEF80050AD1B5A2D9D
:10086C00EBD3144443F20802C4F201021568AD073D
:10087C0009D41568AD075CBF15685FEA857502D4AD
:10088C001568AD07F2D52A2555601568ED0709D115
:10089C001568ED0704BF15685FEAC57502D11568C8
:1008AC00ED07F2D015682D0609D515682D0644BF45
:1008BC0015685FEA056502D515682D06F2D45568F2
:1008CC00DEF80060DEF80050AD1B592D0ED8DEF8B6
:1008DC000050AD1B592D9EBFDEF80050AD1B592D9D
:1008EC0004D8DEF80050AD1B5A2DEBD34FF48045E5
:1008FC00CCF800504FF40055CCF800584FF0804520
:10090C00CCF80050DEF80060DEF80050AD1B592D1D
:10091C000ED8DEF80050AD1B592D9EBFDEF80050EE
:10092C00AD1B592D04D8DEF80050AD1B5A2DEBD35E
:10093C0043441568AD0709D41568AD075CBF15684D
:10094C005FEA857502D41568AD07F2D500255560B0
:10095C001568ED0709D11568ED0704BF15685FEA46
:10096C00C57502D11568ED07F2D015682D0609D5AD
:10097C0015682D0644BF15685FEA056502D5156834
:10098C002D06F2D45568DEF80050DEF80060761BB8
:10099C00592E0ED8DEF80060761B592E9EBFDEF85D
:1009AC000060761B592E04D8DEF80060761B5A2E98
:1009BC00EBD3DEF80050DEF80060761B592E0ED813
:1009CC00DEF80060761B592E9EBFDEF80060761BA9
:1009DC00592E04D8DEF80060761B5A2EEBD315681E
:1009EC00AD0709D41568AD075CBF15685FEA85755E
:1009FC0002D41568AD07F2D5C0F30725556015680C
:100A0C00ED0709D11568ED0704BF15685FEAC575D8
:100A1C0002D11568ED07F2D015682D0609D51568B9
:100A2C002D0644BF15685FEA056502D515682D06CD
:100A3C00F2D45568DEF80050DEF80060761B592EB3
:100A4C000ED8DEF80060761B592E9EBFDEF80060D3
:100A5C00761B592E04D8DEF80060761B5A2EEBD389
:100A6C004FF48045CCF800504FF40055CCF80058AA
:100A7C004FF08045CCF80050DEF80050DEF80060F6
:100A8C00761B592E0ED8DEF80060761B592E9EBFB1
:100A9C00DEF80060761B592E04D8DEF80060761B59
:100AAC005A2EEBD31568AD0709D41568AD075CBF9A
:100ABC0015685FEA857502D41568AD07F2D5002577
:100ACC0055601568ED0709D11568ED0704BF156869
:100ADC005FEAC57502D11568ED07F2D015682D06D1
:100AEC0009D515682D0644BF15685FEA056502D562
:100AFC0015682D06F2D45568DEF80050DEF800605B
:100B0C00761B592E0ED8DEF80060761B592E9EBF30
:100B1C00DEF80060761B592E04D8DEF80060761BD8
:100B2C005A2EEBD3DEF80050DEF80060761B592EFF
:100B3C000ED8DEF80060761B592E9EBFDEF80060E2
:100B4C00761B592E04D8DEF80060761B5A2EEBD398
:100B5C001568AD0709D41568AD075CBF15685FEA69
:100B6C00857502D41568AD07F2D5C0B25060106817
:100B7C00C00709D11068C00704BF10685FEAC070D5
:100B8C0002D11068C007F2D01068000609D51068B1
:100B9C00000644BF10685FEA006002D510680006CA
:100BAC00F2D45068DEF80000DEF800502D1A592DF2
:100BBC000ED8DEF800502D1A592D9EBFDEF80050CD
:100BCC002D1A592D04D8DEF800502D1A5A2DEBD3BE
:100BDC004FF48040CCF800004FF40050CCF80008E3
:100BEC004FF08040CCF80000DEF80000DEF800503A
:100BFC002D1A592D0ED8DEF800502D1A592D9EBFE6
:100C0C00DEF800502D1A592D04D8DEF800502D1A9C
:100C1C005A2DEBD31068800709D4106880075CBF8D
:100C2C0010685FEA807002D410688007F2D500204B
:100C3C0050601068C00709D11068C00704BF106865
:100C4C005FEAC07002D11068C007F2D010680006CD
:100C5C0009D51068000644BF10685FEA006002D531
:100C6C0010680006F2D45068DEF80000DEF8005080
:100C7C002D1A592D0ED8DEF800502D1A592D9EBF65
:100C8C00DEF800502D1A592D04D8DEF800502D1A1C
:100C9C005A2DEBD3DEF80000DEF800502D1A592D3A
:100CAC000ED8DEF800502D1A592D9EBFDEF80050DC
:100CBC002D1A592D04D8DEF800502D1A5A2DEBD3CD
:100CCC001068800709D4106880075CBF10685FEA61
:100CDC00807002D410688007F2D5C4F307205060EE
:100CEC001068C00709D11068C00704BF10685FEA1C
:100CFC00C07002D11068C007F2D01068000609D588
:100D0C001068000644BF10685FEA006002D51068E6
:100D1C000006F2D45068DEF80000DEF800502D1A00
:100D2C00592D0ED8DEF800502D1A592D9EBFDEF825
:100D3C0000502D1A592D04D8DEF800502D1A5A2DBA
:100D4C00EBD34FF48040CCF800004FF40050CCF8BB
:100D5C0000084FF08040CCF80000DEF80000DEF810
:100D6C0000502D1A592D0ED8DEF800502D1A592D81
:100D7C009EBFDEF800502D1A592D04D8DEF8005015
:100D8C002D1A5A2DEBD31068800709D410688007F0
:100D9C005CBF10685FEA807002D410688007F2D5DF
:100DAC00002050601068C00709D11068C00704BF4C
:100DBC0010685FEAC07002D11068C007F2D01068EA
:100DCC00000609D51068000644BF10685FEA006091
:100DDC0002D510680006F2D45068DEF80000DEF888
:100DEC0000502D1A592D0ED8DEF800502D1A592D01
:100DFC009EBFDEF800502D1A592D04D8DEF8005095
:100E0C002D1A5A2DEBD3DEF80000DEF800502D1A07
:100E1C00592D0ED8DEF800502D1A592D9EBFDEF834
:100E2C0000502D1A592D04D8DEF800502D1A5A2DC9
:100E3C00EBD31068800709D4106880075CBF10687A
:100E4C005FEA807002D410688007F2D5E0B250607F
:100E5C001068C00709D11068C00704BF10685FEAAA
:100E6C00C07002D11068C007F2D01068000609D516
:100E7C001068000644BF10685FEA006002D5106875
:100E8C000006F2D45068DEF80000DEF80040241AA8
:100E9C00592C0ED8DEF80040241A592C9EBFDEF8CF
:100EAC000040241A592C04D8DEF80040241A5A2C7D
:100EBC00EBD34FF48040CCF800004FF00050CCF84E
:100ECC0000084FF08040CCF80000DEF80000DEF89F
:100EDC000040241A592C0ED8DEF80040241A592C44
:100EEC009EBFDEF80040241A592C04D8DEF80040CE
:100EFC00241A5A2CEBD31068800709D41068800789
:100F0C005CBF10685FEA807002D410688007F2D56D
:100F1C002B2050601068C00709D11068C00704BFAF
:100F2C0010685FEAC07002D11068C007F2D0106878
:100F3C00000609D51068000644BF10685FEA00601F
:100F4C0002D510680006F2D45068DEF80000DEF816
:100F5C000040241A592C0ED8DEF80040241A592CC3
:100F6C009EBFDEF80040241A592C04D8DEF800404D
:100F7C00241A5A2CEBD34FF48040CCF800004FF4D9
:100F8C000050CCF800084FF08040CCF80000DEF8A0
:100F9C000000DEF80040241A592C0ED8DEF8004070
:100FAC00241A592C9EBFDEF80040241A592C04D860
:100FBC00DEF80040241A5A2CEBD31068800709D4B1
:100FCC00106880075CBF10685FEA807002D41068FC
:100FDC008007F2D5002050601068C00709D1106856
:100FEC00C00704BF10685FEAC07002D11068C00768
:100FFC00F2D01068000609D51068000644BF1068CE
:10100C005FEA006002D510680006F2D45068DEF882
:10101C000000DEF80040241A592C0ED8DEF80040EF
:10102C00241A592C9EBFDEF80040241A592C04D8DF
:10103C00DEF80040241A5A2CEBD3DEF80000DEF860
:10104C000040241A592C0ED8DEF80040241A592CD2
:10105C009EBFDEF80040241A592C04D8DEF800405C
:10106C00241A5A2CEBD31068800709D41068800717
:10107C005CBF10685FEA807002D410688007F2D5FC
:10108C00C1F3072050601068C00709D11068C00771
:10109C0004BF10685FEAC07002D11068C007F2D0BC
:1010AC001068000609D51068000644BF10685FEA96
:1010BC00006002D510680006F2D45068DEF800001B
:1010CC00DEF80040241A592C0ED8DEF80040241A01
:1010DC00592C9EBFDEF80040241A592C04D8DEF897
:1010EC000040241A5A2CEBD34FF48040CCF800006B
:1010FC004FF40050CCF800084FF08040CCF80000C2
:10110C00DEF80000DEF80040241A592C0ED8DEF868
:10111C000040241A592C9EBFDEF80040241A592C8A
:10112C0004D8DEF80040241A5A2CEBD31068800740
:10113C0009D4106880075CBF10685FEA807002D425
:10114C0010688007F2D5002050601068C00709D1E4
:10115C001068C00704BF10685FEAC07002D1106845
:10116C00C007F2D01068000609D51068000644BF0D
:10117C0010685FEA006002D510680006F2D450686F
:10118C00DEF80000DEF80040241A592C0ED8DEF8E8
:10119C000040241A592C9EBFDEF80040241A592C0A
:1011AC0004D8DEF80040241A5A2CEBD3DEF80000E9
:1011BC00DEF80040241A592C0ED8DEF80040241A10
:1011CC00592C9EBFDEF80040241A592C04D8DEF8A6
:1011DC000040241A5A2CEBD31068800709D41068ED
:1011EC0080075CBF10685FEA807002D410688007CB
:1011FC00F2D5C8B250601068C00709D11068C0079A
:10120C0004BF10685FEAC07002D11068C007F2D04A
:10121C001068000609D51068000644BF10685FEA24
:10122C00006002D510680006F2D45068DEF80000A9
:10123C00DEF80010091A59290ED8DEF80010091A28
:10124C0059299EBFDEF80010091A592904D8DEF876
:10125C000010091A5A29EBD34FF48040CCF8000047
:10126C004FF40050CCF800084FF08040CCF8000050
:10127C00DEF80000DEF80010091A59290ED8DEF845
:10128C000010091A59299EBFDEF80010091A5929B5
:10129C0004D8DEF80010091A5A29EBD3106880071D
:1012AC0009D4106880075CBF10685FEA807002D4B4
:1012BC0010688007F2D5002050601068C00709D173
:1012CC001068C00704BF10685FEAC07002D11068D4
:1012DC00C007F2D01068000609D51068000644BF9C
:1012EC0010685FEA006002D510680006F2D45068FE
:1012FC00DEF80000DEF80010091A59290ED8DEF8C5
:10130C000010091A59299EBFDEF80010091A592934
:10131C0004D8DEF80010091A5A29EBD3DEF80000C5
:10132C00DEF80010091A59290ED8DEF80010091A37
:10133C0059299EBFDEF80010091A592904D8DEF885
:10134C000010091A5A29EBD31068800709D41068C9
:10135C0080075CBF10685FEA807002D41068800759
:10136C00F2D5C3F3072050601068C00709D110688C
:10137C00C00704BF10685FEAC07002D11068C007D4
:10138C00F2D01068000609D51068000644BF10683A
:10139C005FEA006002D510680006F2D45068DEF8EF
:1013AC000000DEF80010091A59290ED8DEF80010DA
:1013BC00091A59299EBFDEF80010091A592904D8B8
:1013CC00DEF80010091A5A29EBD34FF48040CCF800
:1013DC0000004FF40050CCF800084FF08040CCF8DF
:1013EC000000DEF80000DEF80010091A59290ED8AA
:1013FC00DEF80010091A59299EBFDEF80010091AF0
:10140C00592904D8DEF80010091A5A29EBD31068B0
:10141C00800709D4106880075CBF10685FEA807091
:10142C0002D410688007F2D5002050601068C00705
:10143C0009D11068C00704BF10685FEAC07002D100
:10144C001068C007F2D01068000609D510680006B5
:10145C0044BF10685FEA006002D510680006F2D441
:10146C005068DEF80000DEF80010091A59290ED871
:10147C00DEF80010091A59299EBFDEF80010091A6F
:10148C00592904D8DEF80010091A5A29EBD3DEF8D2
:10149C000000DEF80010091A59290ED8DEF80010E9
:1014AC00091A59299EBFDEF80010091A592904D8C7
:1014BC00DEF80010091A5A29EBD31068800709D4FA
:1014CC00106880075CBF10685FEA807002D41068F7
:1014DC008007F2D5D8B250601068C00709D11068E7
:1014EC00C00704BF10685FEAC07002D11068C00763
:1014FC00F2D01068000609D51068000644BF1068C9
:10150C005FEA006002D510680006F2D45068DEF87D
:10151C000000DEF80010091A59290ED8DEF8001068
:10152C00091A59299EBFDEF80010091A592904D846
:10153C00DEF80010091A5A29EBD34FF48040CCF88E
:10154C0000004FF00050CCF800084FF08040CCF871
:10155C000000DEF80000DEF80010091A59290ED838
:10156C00DEF80010091A59299EBFDEF80010091A7E
:10157C00592904D8DEF80010091A5A29EBD310683F
:10158C00800709D4106880075CBF10685FEA807020
:10159C0002D410688007F2D52C2050601068C00768
:1015AC0009D11068C00704BF10685FEAC07002D18F
:1015BC001068C007F2D01068000609D51068000644
:1015CC0044BF10685FEA006002D510680006F2D4D0
:1015DC005068DEF80000DEF80010091A59290ED800
:1015EC00DEF80010091A59299EBFDEF80010091AFE
:1015FC00592904D8DEF80010091A5A29EBD34FF4F4
:10160C008040CCF800004FF40050CCF800084FF0AC
:10161C008040CCF800005DF8048BF0BDB0B502AF93
:10162C001C461546FFF7F0F804FB05F0002800F007
:10163C00AA80BA68242343F20805C4F20003C4F25A
:10164C00010591B2D2B24FEA112C02E0013800F040
:10165C009A801C681968091B59290BD81968091B31
:10166C0059299EBF1968091B592903D81968091BE8
:10167C005A29EFD32968890709D4296889075CBFDF
:10168C0029685FEA817102D429688907F2D5C5F807
:10169C0004C02968C90709D12968C90704BF29688A
:1016AC005FEAC17102D12968C907F2D0296809061D
:1016BC0009D52968090644BF29685FEA016102D58A
:1016CC0029680906F2D469681C681968091B59292C
:1016DC000BD81968091B59299EBF1968091B592970
:1016EC0003D81968091B5A29EFD31C681968091B00
:1016FC0059290BD81968091B59299EBF1968091B50
:10170C00592903D81968091B5A29EFD32968890765
:10171C0009D4296889075CBF29685FEA817102D402
:10172C0029688907F2D56A602968C90709D129682F
:10173C00C90704BF29685FEAC17102D12968C907CA
:10174C00F2D02968090609D52968090644BF296819
:10175C005FEA016102D529680906F2D469681C6840
:10176C001968091B59293FF671AF1968091B5929CA
:10177C009EBF1968091B59293FF668AF1968091BE8
:10178C005A29EDD362E740F618404FF48041C4F279
:10179C0002000160B0BDF0B503AF2DE9000F81B0C0
:1017AC0083460D46914600240A2059462A460123B9
:1017BC000094FFF733FF0BF10106A9F102080A2090
:1017CC000122314643460094FFF728FF05F109003A
:1017DC003146012243460094FFF720FF09EB0B0032
:1017EC002A46411E0A2001230094FFF717FFA5F19A
:1017FC00020A4FF6FF7000900B203146524601232F
:10180C004FF6FF74FFF70AFF0094A9F104060BF1E1
:10181C0002040B20012233462146FFF7FFFE4FF650
:10182C00FF702146009005F10800012233464FF667
:10183C00FF79FFF7F3FE08EB0B010B205246012357
:10184C00CDF80090FFF7EAFE01B0BDE8000FF0BD47
:10185C00F0B503AF2DE9000F83B0D0F84C9042F6F1
:10186C00B4488246282001EB020B0C4600EB09160B
:10187C000725C0F6010802920DE043EA8112841C90
:10188C00284631464FF6FF73CDF80080FEF7BCFEBC
:10189C0005445C4523D0204614F9011BB1F1FF3FF0
:1018AC00CAB2EDDC437802F01F01E02A03F03F03DB
:1018BC00E3D38478F02A04F03F0444EA83130AD378
:1018CC00C27801F00701041D02F03F0242EA8312C4
:1018DC0042EA8142D4E743EA0132C41CD0E7B9F1B1
:1018EC000F0F9FBF02980AF80900DAF84C0001307C
:1018FC009FBFCAF84C0003B0BDE8000FF0BD4846CE
:10190C0010210DF022FDF0B503AF2DE9000F81B0D1
:10191C0043F2303B8D189246894680460726C0F626
:10192C00010B0C460DE043EA8112841C3046072162
:10193C004FF6FF73CDF800B0FEF766FE0644AC42DE
:10194C0023D0204614F9011BB1F1FF3FCAB2EDDCE4
:10195C00437802F01F01E02A03F03F03E3D38478BD
:10196C00F02A04F03F0444EA83130AD3C27801F04E
:10197C000701041D02F03F0242EA831242EA81424F
:10198C00D4E743EA0132C41CD0E7D8F83400A0EB0A
:10199C000A01002909DD0020CA0000904FEACA00A4
:1019AC00073007211023FFF739FEC8E90C9A01B064
:1019BC00BDE8000FF0BDD4D4B0B502AF82B0044680
:1019CC00C8B2DFE810F011001601B200E4006700A5
:1019DC002F016101FD00930199007A014E008000F6
:1019EC0048013500CB001C00002040F2291100906A
:1019FC00204610221023FFF711FE02B0B0BD42F6B4
:101A0C00B4452046C0F6010540F229118E224FF64E
:101A1C00FF730095FEF7FBFC009504F1080040F203
:101A2C0029118F224FF6FF73FEF7F1FC02B0B0BD07
:101A3C0042F6B4452046C0F6010540F22911902229
:101A4C004FF6FF730095FEF7E2FC009504F10800D9
:101A5C0040F2291191224FF6FF73FEF7D8FC02B029
:101A6C00B0BD42F6B4452046C0F6010540F229113E
:101A7C009E224FF6FF730095FEF7C9FC009504F10A
:101A8C00080040F229119F224FF6FF73FEF7BFFCAE
:101A9C0002B0B0BD42F6B4452046C0F6010540F296
:101AAC00291196224FF6FF730095FEF7B0FC0095B6
:101ABC0004F1080040F2291197224FF6FF73FEF74C
:101ACC00A6FC02B0B0BD42F6B4452046C0F60105F6
:101ADC0040F229118C224FF6FF730095FEF797FC0C
:101AEC00009504F1080040F229118D224FF6FF7386
:101AFC00FEF78DFC02B0B0BD42F6B4452046C0F6F0
:101B0C00010540F229119A224FF6FF730095FEF75A
:101B1C007EFC009504F1080040F229119B224FF63F
:101B2C00FF73FEF774FC02B0B0BD42F6B44520461C
:101B3C00C0F6010540F22911A0224FF6FF73009563
:101B4C00FEF765FC009504F1080040F22911A12272
:101B5C004FF6FF73FEF75BFC02B0B0BD42F6B44526
:101B6C002046C0F6010540F22911AA224FF6FF7358
:101B7C000095FEF74CFC009504F1080040F2291189
:101B8C00AB224FF6FF73FEF742FC02B0B0BD42F63B
:101B9C00B4452046C0F6010540F2291188224FF6C3
:101BAC00FF730095FEF733FC009504F1080040F23A
:101BBC00291189224FF6FF73FEF729FC02B0B0BD44
:101BCC0042F6B4452046C0F6010540F22911A62282
:101BDC004FF6FF730095FEF71AFC009504F1080010
:101BEC0040F22911A7224FF6FF73FEF710FC02B04A
:101BFC00B0BD42F6B4452046C0F6010540F22911AD
:101C0C0098224FF6FF730095FEF701FC04F10800D3
:101C1C0040F22911992200954FF6FF73FEF7F7FB5E
:101C2C0002B0B0BD42F6B4452046C0F6010540F204
:101C3C00291192224FF6FF730095FEF7E8FB0095F1
:101C4C0004F1080040F2291193224FF6FF73FEF7BE
:101C5C00DEFB02B0B0BD42F6B4452046C0F601052D
:101C6C0040F22911A8224FF6FF730095FEF7CFFB27
:101C7C00009504F1080040F22911A9224FF6FF73D8
:101C8C00FEF7C5FB02B0B0BD42F6B4452046C0F627
:101C9C00010540F22911A4224FF6FF730095FEF7BF
:101CAC00B6FB009504F1080040F22911A5224FF66D
:101CBC00FF73FEF7ACFB02B0B0BD42F6B445204654
:101CCC00C0F6010540F2291194224FF6FF730095DE
:101CDC00FEF79DFB009504F1080040F229119522B6
:101CEC004FF6FF73FEF793FB02B0B0BD42F6B4455E
:101CFC002046C0F6010540F2291186224FF6FF73EB
:101D0C000095FEF784FB009504F1080040F22911C0
:101D1C0087224FF6FF73FEF77AFB02B0B0BDF0B529
:101D2C0003AF4DF8048DC46A002C55D0866A0D465D
:101D3C00804609783078814202D0EF20FFF73CFED4
:101D4C00012C4DD06978707881421CBF4FF487709C
:101D5C00FFF732FE022C47D0A978B07881421CBF25
:101D6C0040F22D10FFF728FE032C41D0E978F078D3
:101D7C0081421CBF4FF4A670FFF71EFE042C3BD013
:101D8C002979307981421CBF40F26B10FFF714FEA9
:101D9C00052C35D06979707981421CBF4FF4C57020
:101DAC00FFF70AFE062C2FD0A979B07981421CBF0F
:101DBC0040F2A910FFF700FE072C29D0E979F07941
:101DCC0081421CBF4FF4E470FFF7F6FD0820C8E910
:101DDC000A505DF8048BF0BD002021460DF0B5FAD9
:101DEC00012021460DF0B1FA022021460DF0ADFA8A
:101DFC00032021460DF0A9FA042021460DF0A5FA86
:101E0C00052021460DF0A1FA062021460DF09DFA81
:101E1C00072021460DF099FAF0B503AF2DE9000F1C
:101E2C0093B0804647F6906008EB00090E4699F88F
:101E3C001800DFE810F086023A042B0007000700B8
:101E4C0007000700404600F0D9FE89F81860F0B290
:101E5C00DFE810F00700D905CD0062020F0017066D
:101E6C002C06404613B0BDE8000FBDE8F04003F06F
:101E7C00D1BF43F26C614046C0F601010B22FFF763
:101E8C0042FD43F28471C0F6010151E200242C2082
:101E9C002E21202210230094FFF7C0FB0A202921B9
:101EAC00642202230094FFF7B9FB0A202B210222A3
:101EBC0016230094FFF7B2FB6C202B210222162371
:101ECC000094FFF7ABFB0A2041216422022300940B
:101EDC00FFF7A4FB30205221182210230094FFF7A7
:101EEC009DFB0A204D21642202230094FFF796FBF0
:101EFC000A204F21022216230094FFF78FFB6C203F
:101F0C004F21022216230094FFF788FB0A2065213B
:101F1C00642202230094FFF781FB302076211822E3
:101F2C0010230094FFF77AFB0A207121642202230C
:101F3C000094FFF773FB0A207321022216230094EE
:101F4C00FFF76CFB6C207321022216230094FFF721
:101F5C0065FB0A208921642202230094FFF75EFBB3
:101F6C0020209A21382210230094FFF757FB0A20D7
:101F7C009521642202230094FFF750FB0A2097213D
:101F8C00022216230094FFF749FB6C2097210222B2
:101F9C0016230094FFF742FB0A20AD216422022392
:101FAC000094FFF73BFB2C20BE2120221023009431
:101FBC00FFF734FB0A20B921642202230094FFF7B7
:101FCC002DFB0A20BB21022216230094FFF726FBCF
:101FDC006C20BB21022216230094FFF71FFB0A2062
:101FEC00D121642202230094FFF718FB2DE743F65E
:101FFC0088314046C0F601011722FFF784FC43F2FA
:10200C00B8314046C0F60101FFF789FE242643F2A1
:10201C000804D8F844000025C4F20006C4F20104F8
:10202C004FF0070A4FF0010B02902AE040F21F49D3
:10203C000A20642202234FEA8C08CDF80090FFF7A7
:10204C00EDFA08F12B050A20022216232946CDF8B9
:10205C000090FFF7E3FACDF8009029466C2002229D
:10206C001623039DFFF7DAFA08F141010A206422D6
:10207C000223CDF80090FFF7D1FA0135052D00F0C1
:10208C00478143F6603005EBC50CC0F601000395A3
:10209C0000EBC5004168002900F02981039843F644
:1020AC006032C0F6010252F83000421804922E221F
:1020BC00034602EB8C0206924FF6FC72CDF814C06C
:1020CC00C7F6FF7202EA8101C1F13C0210E040F652
:1020DC0018404FF48041C4F202000160089A079B3B
:1020EC0004980832DDF814C08342184600F0FF80D3
:1020FC0013F9011BB1F1FF3FCDB21FDC417805F0A4
:10210C001F0EE02D01F03F0111D38378F02D03F069
:10211C003F0343EA81110ED3C37803F03F0343EA34
:10212C0081130EF0070143EA8145031D06E041EAE5
:10213C008E15831C02E041EA0E35C31CCDE9073233
:10214C001046069908221023FEF75EFB4FF600603E
:10215C00B52DCFF6FF7000EB051008BF4FF4C06033
:10216C00202D38BF4FF4BE60B0F5C06F00F2B584BF
:10217C0042F62F514FF0000EC0F6010101EB000C9E
:10218C00C0F5C06104E00EF1010EBEF1100F9ED03F
:10219C00002502E00135082DF5D00EEBD500884264
:1021AC0080F099841CF800902AEA05023368D6F86E
:1021BC000080A8EB030059280BD83068C01A5928A6
:1021CC009EBF3068C01A592803D83068C01A5A28E4
:1021DC00EDD30BFA02F22068800709D4206880073F
:1021EC005CBF20685FEA807002D420688007F2D55B
:1021FC0019EA020018BFFF2060602268D20709D1DB
:10220C002268D20704BF22685FEAC27202D1226838
:10221C00D207F2D02268120609D52268120644BFF2
:10222C0022685FEA026202D522681206F2D4626862
:10223C00326833689B1A592B0BD833689B1A592B6D
:10224C009EBF33689B1A592B03D833689B1A5A2BA1
:10225C00EFD3326833689B1A592B0BD833689B1A0F
:10226C00592B9EBF33689B1A592B03D833689B1A82
:10227C005A2BEFD32268920709D4226892075CBFCD
:10228C0022685FEA827202D422689207F2D56060FB
:10229C002068C00709D12068C00704BF20685FEA26
:1022AC00C07002D12068C007F2D02068000609D5A2
:1022BC002068000644BF20685FEA006002D52068F1
:1022CC000006F2D4606830683268121A592A3FF658
:1022DC0061AF3268121A592A9EBF3268121A592AF3
:1022EC003FF658AF3268121A5A2AEDD352E729201A
:1022FC0000EB8C01DDE9020585423FF497AE084600
:10230C0064211A22FFF747FA0135052D7FF4B9AE87
:10231C0013B0BDE8000FF0BD43F260614046C0F65B
:10232C0001010C22FFF7EFFA43F2AC51C0F60101A8
:10233C004046062213B0BDE8000FBDE8F04000F0A7
:10234C00CBBC41F26A7040F28E31404405960FF0DE
:10235C000DFB41F6BF4040F2C71140440FF006FBA5
:10236C0042F2142040F28E3140440FF093FB42F2C3
:10237C00697040F2C71140440FF0F8FA41F2DC30BA
:10238C002121404404F0D4FB41F6866032214044C4
:10239C0004F0CEFB002400201F2119224FF481737E
:1023AC000094FFF73BF91A204FF49571302210235B
:1023BC000094FFF733F942F63C10CDF818804044F6
:1023CC0004F0AEFE43F61C40CDF8109089F8144092
:1023DC00C0F601000DF1240B6CC840F224095946DB
:1023EC006CC143F2080AC4F2000990E86C000420A6
:1023FC00C4F2010A6CC10022CDE911404FF4917076
:10240C00089008E0079A08980132042A00F1180095
:10241C00089000F00C820BEBC200079241685BF84D
:10242C003200102935D20029ECD08A084FF0000672
:10243C0000F01D8102F0030200F1010E6FF00305A4
:10244C00A6EB820C0EEB0502043592F9033092F9DF
:10245C00068092F905B013F1410F92F90420C8BF20
:10246C00013612F1410FC8BF01361BF1410FC8BF35
:10247C00013618F1410F0CEB0502C8BF01360432CE
:10248C00E0D12A1D0DF1240B11F0030140F0F48072
:10249C0002E00DF05BF80646002EB3D0C6F1030047
:1024AC0008994FF0000800EB400001EB40050BE0F1
:1024BC0040F6184008F101080635B045C4F2020098
:1024CC004FF4804101609DD028460E210522072340
:1024DC00FEF79AF9232001E00138E9D0D9F8001071
:1024EC00D9F80020521A592A0ED8D9F80020521ABD
:1024FC00592A9EBFD9F80020521A592A04D8D9F863
:10250C000020521A5A2AEBD3DAF8001089070CD49F
:10251C00DAF8001089075CBFDAF800105FEA817105
:10252C0003D4DAF800108907EED5CAF80440DAF8BB
:10253C000010C9070CD1DAF80010C90704BFDAF88B
:10254C0000105FEAC17103D1DAF80010C907EED0B0
:10255C00DAF8001009060CD5DAF80010090644BFA9
:10256C00DAF800105FEA016103D5DAF80010090609
:10257C00EED4DAF80410D9F80010D9F80020521A69
:10258C00592A0ED8D9F80020521A592A9EBFD9F8C8
:10259C000020521A592A04D8D9F80020521A5A2A63
:1025AC00EBD3D9F80010D9F80020521A592A0ED8BA
:1025BC00D9F80020521A592A9EBFD9F80020521A75
:1025CC00592A04D8D9F80020521A5A2AEBD3DAF82F
:1025DC00001089070CD4DAF8001089075CBFDAF810
:1025EC0000105FEA817103D4DAF800108907EED588
:1025FC00CAF80440DAF80010C9070CD1DAF8001058
:10260C00C90704BFDAF800105FEAC17103D1DAF828
:10261C000010C907EED0DAF8001009060CD5DAF86C
:10262C000010090644BFDAF800105FEA016103D517
:10263C00DAF800100906EED4DAF80410D9F8001014
:10264C00D9F80020521A592A3FF646AFD9F8002083
:10265C00521A592A9EBFD9F80020521A592A3FF60D
:10266C003BAFD9F80020521A5A2AE9D334E700229A
:10267C0011F003013FF410AF835613F1410FC8BFA3
:10268C00013601293FF408AF104490F9012012F1F2
:10269C00410FC8BF013602293FF4FEAE90F902008B
:1026AC0010F1410FC8BF0136F6E6D8F84C40002CAB
:1026BC0000F0B88098F80000002528211023009520
:1026CC00C2000720FEF7AAFF012C00F0AB8098F89F
:1026DC000100382110230095C2000720FEF79EFF51
:1026EC00022C00F09F8098F80200482110230095DE
:1026FC00C2000720FEF792FF032C00F0938098F89D
:10270C000300582110230095C2000720FEF786FF16
:10271C00042C00F0878098F80400682110230095A1
:10272C00C2000720FEF77AFF052C7BD098F8050035
:10273C00782110230095C2000720FEF76FFF062CAE
:10274C0070D098F80600882110230095C20007204D
:10275C00FEF764FF072C65D098F80700982110232A
:10276C000095C2000720FEF759FF082C5AD098F8A4
:10277C000800A82110230095C2000720FEF74EFF89
:10278C00092C4FD098F80900B82110230095C200ED
:10279C000720FEF743FF0A2C44D098F80A00C82102
:1027AC0010230095C2000720FEF738FF0B2C39D000
:1027BC0098F80B00D82110230095C2000720FEF7D3
:1027CC002DFF0C2C2ED098F80C00E821102300952E
:1027DC00C2000720FEF722FF0D2C23D098F80D0025
:1027EC00F82110230095C2000720FEF717FF0E2CCE
:1027FC0018D098F80E004FF4847110230095C20085
:10280C000720FEF70BFF0F2C0CD098F80F004FF49D
:10281C008C7110230095C2000720FEF7FFFE102CD0
:10282C0040F05F810020C8F84C00FFF70EBBDDF8CC
:10283C00188047F69860002406210522072348F8E3
:10284C0000404044C0E901444FF491700094FEF7FD
:10285C00E5FE4FF494700621052207230094FEF741
:10286C00DDFE4FF497700621052207230094FEF736
:10287C00D5FE4FF49A700621052207230094FEF72B
:10288C00CDFE4FF49D700621052207230094FEF720
:10289C00C5FE4FF4A0700621052207230094FEF715
:1028AC00BDFE4FF4A3700621052207230094FEF70A
:1028BC00B5FE4FF4A6700621052207230094FEF7FF
:1028CC00ADFE4FF4A9700621052207230094FEF7F4
:1028DC00A5FE4FF4AC700621052207230094FEF7E9
:1028EC009DFE4FF4AF700621052207230094FEF7DE
:1028FC0095FE4FF4B2700621052207230094FEF7D3
:10290C008DFE4FF4B5700621052207230094FEF7C7
:10291C0085FE4FF4B8700621052207230094FEF7BC
:10292C007DFE4FF4BB700621052207230094FEF7B1
:10293C0075FEA0200E21782201230094FEF76EFE76
:10294C00DDF81090D9F80060772E0FD806F1A005AD
:10295C0009210122052328460094FEF75FFE284634
:10296C000F21012205230094FEF758FED9F804002C
:10297C00B04211D077280FD800F1A005092101220F
:10298C00052328460094FEF749FE28460F21012214
:10299C0005230094FEF742FE4FF0FF300021C9E9F9
:1029AC00000040F2C11001221E230094FEF736FEF7
:1029BC004FF4C5700721102210230094FEF72EFE51
:1029CC004FF4D170002101221E230094FEF726FE45
:1029DC0040F2A9100721102210230094FEF71EFECE
:1029EC0040F28310002101221E230094FEF716FEF4
:1029FC004FF4E4700721102210230094FEF70EFE12
:102A0C00059EFFF722BA43F290314046C0F6010111
:102A1C00FFF785F943F2C5514046C0F60101052286
:102A2C00FEF771FF43F2CA514046C0F601011D2268
:102A3C00FEF70EFF43F2E7514046C0F60101322289
:102A4C00FEF706FFD8F84C0010283FBF002108F80D
:102A5C000010D8F84C0001303FBFC8F84C0043F2CE
:102A6C001961C0F6010140463FBF1D2213B0BDE8FD
:102A7C00000FBDE8F04038BFFEF7EABE10210CF0A5
:102A8C0064FC43F2E0714046C0F601010F22FEF7F0
:102A9C003AFF43F60C014046C0F60101012213B087
:102AAC00BDE8000FBDE8F04000F016B943F29C7190
:102ABC004046C0F601010B22FEF725FF43F2D87108
:102ACC004046C0F60101022213B0BDE8000FBDE87C
:102ADC00F04000F001B90CF038FC4FF4C0610DF07F
:102AEC0082F9102010210CF030FCF0B503AF2DE969
:102AFC00000B82B00B460246C16B806C884272D2CE
:102B0C00082872D2916BDBB251F820100E687168F4
:102B1C0099426DD9024492F8202091426BD93468C5
:102B2C0000EB8000317A04EBC30304EBC2060029EE
:102B3C0075685B6854F832604FF00C04A3EB050227
:102B4C004FF0800318BFA3EBC5043B2303EBC00875
:102B5C00D200002A0ADD0023E8000093002918BFE8
:102B6C005042414620441023FEF758FDBDB342F6B7
:102B7C00B4493544C0F601090DE043EA8112861CC4
:102B8C00204641464FF6FF73CDF80090FDF73CFD13
:102B9C000444AE4223D0304616F9011BB1F1FF3F7D
:102BAC00CAB2EDDC437802F01F01E02A03F03F03C8
:102BBC00E3D38678F02A06F03F0646EA83130AD35D
:102BCC00C27801F00701061D02F03F0242EA8312AF
:102BDC0042EA8142D4E743EA0132C61CD0E702B094
:102BEC00BDE8000BF0BD0CF0B0FB08210CF0ADFB08
:102BFC0018460CF0AAFB10460CF0A7FBF0B503AF7F
:102C0C002DE9000F81B0C16B00295DD0D0F8388060
:102C1C0000F120064FEA81094B244FF0000A58F8C6
:102C2C00040BA4F122011023D0F800B08068CDF879
:102C3C0000A0C2000A20FEF7F1FCA4F112010A2048
:102C4C0078220223CDF800A0FEF7E8FCA4F11005D1
:102C5C000A20022210232946CDF800A0FEF7DEFC44
:102C6C008020294602221023CDF800A0FEF7D6FCC6
:102C7C000A20214678220223CDF800A0FEF7CEFCD4
:102C8C0040F28B10844223D0DBF804103078814260
:102C9C0020D9DBF8001010239BF8082001EBC000B2
:102CAC00002A4FF0800241684FF00C00CDF800A0D4
:102CBC0018BFA2EBC100CA002946FEF7AFFC2834AE
:102CCC000136B9F10409AAD101B0BDE8000FF0BD7D
:102CDC00082008210CF039FBF0B503AF2DE9000FEB
:102CEC008FB006460020B0640D46B06B1446B1633D
:102CFC0043F278310590C0F601013046F263FFF7DC
:102D0C000EF847F68D6040F2240A43F2080830446E
:102D1C00029005EB84000022C4F2000AC4F2010800
:102D2C004FF0070B4FF00109CDE9030606F1200027
:102D3C000790069506E00B9A0398089D0132854290
:102D4C0000F0EA82DDE9051055F8043B8142089554
:102D5C0003D102980078022802D10799187B885475
:102D6C00996802EB82000A9300290B92099000F0FB
:102D7C0045810A982922099B4FF00A0C406802EB06
:102D8C00C3020D9201440C9102460EE040F618402D
:102D9C004FF48041C4F202000CF1080C01600E9A51
:102DAC000C988242104600F0298112F9011BB1F1F6
:102DBC00FF3FCEB21FDC427806F01F01E02E02F07E
:102DCC003F0211D38378F02E03F03F0343EA8212C3
:102DDC000ED3C37801F0070103F03F0343EA8212DC
:102DEC0042EA8146021D06E042EA8116821C02E09C
:102DFC0042EA0136C21C0D9960460E92082210233D
:102E0C006446FDF701FD4FF60060B52ECFF6FF705E
:102E1C0000EB061008BF4FF4C060202E38BF4FF4F3
:102E2C00BE60B0F50E6F00F27B8242F2D43100230B
:102E3C00C0F601010A18C0F50E61A44602E0013388
:102E4C00102BA3D0002602E00136082EF7D003EB9E
:102E5C00D600884280F05E82105C2BEA0604DAF819
:102E6C00005009FA04F42040DAF80040641B592C95
:102E7C000ED8DAF80040641B592C9EBFDAF80040DB
:102E8C00641B592C04D8DAF80040641B5A2CEBD381
:102E9C00D8F80050AD070CD4D8F80050AD075CBF83
:102EAC00D8F800505FEA857503D4D8F80050AD0708
:102EBC00EED5002818BFFF20C8F80400D8F8005041
:102ECC00ED070CD1D8F80050ED0704BFD8F800502E
:102EDC005FEAC57503D1D8F80050ED07EED0D8F8ED
:102EEC0000502D060CD5D8F800502D0644BFD8F84C
:102EFC0000505FEA056503D5D8F800502D06EED4D6
:102F0C00D8F80450DAF80050DAF80040641B592C59
:102F1C000ED8DAF80040641B592C9EBFDAF800403A
:102F2C00641B592C04D8DAF80040641B5A2CEBD3E0
:102F3C00DAF80050DAF80040641B592C0ED8DAF895
:102F4C000040641B592C9EBFDAF80040641B592CBE
:102F5C0004D8DAF80040641B5A2CEBD3D8F8005094
:102F6C00AD070CD4D8F80050AD075CBFD8F80050B2
:102F7C005FEA857503D4D8F80050AD07EED5C8F8D4
:102F8C000400D8F80000C0070CD1D8F80000C00726
:102F9C0004BFD8F800005FEAC07003D1D8F8000075
:102FAC00C007EED0D8F8000000060CD5D8F8000009
:102FBC00000644BFD8F800005FEA006003D5D8F8DB
:102FCC0000000006EED4D8F80400DAF80000DAF8B5
:102FDC0000502D1A592D3FF637AFDAF800502D1A44
:102FEC00592D9EBFDAF800502D1A592D3FF62CAFF3
:102FFC00DAF800502D1A5A2DE9D325E709980B9EC3
:10300C00C500049805F13901806C864224D140F248
:10301C001F440A20782202230094FEF7FFFA009442
:10302C0005F13B040A20022221461023FEF7F6FA92
:10303C0040F21F4021460090802002221023FEF710
:10304C00EDFA40F21F4005F14B0100900A20782266
:10305C000223FEF7E3FA04E0084678211422FEF777
:10306C009AFB0A98026807985168805D814240F289
:10307C005181136803EBC001496800293FF45BAE32
:10308C0053F830004FF00C0C127A4318002A4FF012
:10309C0080020C9305F13B030D9318BFA2EBC10CFE
:1030AC0002460EE040F618404FF48041C4F2020094
:1030BC000CF1080C01600E9A0C98824210463FF4F9
:1030CC003AAE12F9011BB1F1FF3FCEB21FDC4278D0
:1030DC0006F01F01E02E02F03F0211D38378F02E90
:1030EC0003F03F0343EA82120ED3C37801F00701C9
:1030FC0003F03F0343EA821242EA8146021D06E0D6
:10310C0042EA8116821C02E042EA0136C21C0D9989
:10311C0060460E92082210236446FDF775FB4FF6AD
:10312C000060B52ECFF6FF7000EB061008BF4FF411
:10313C00C060202E38BF4FF4BE60B0F50E6F00F2A9
:10314C00EF8042F2D4310023C0F601010A18C0F519
:10315C000E61A44602E00133102BA3D0002602E03E
:10316C000136082EF7D003EBD600884280F0D280CF
:10317C00105C2BEA0604DAF8005009FA04F420403B
:10318C00DAF80040641B592C0ED8DAF80040641BA6
:10319C00592C9EBFDAF80040641B592C04D8DAF87D
:1031AC000040641B5A2CEBD3D8F80050AD070CD45C
:1031BC00D8F80050AD075CBFD8F800505FEA8575B1
:1031CC0003D4D8F80050AD07EED5002818BFFF2067
:1031DC00C8F80400D8F80050ED070CD1D8F800500E
:1031EC00ED0704BFD8F800505FEAC57503D1D8F8D5
:1031FC000050ED07EED0D8F800502D060CD5D8F8BD
:10320C0000502D0644BFD8F800505FEA056503D581
:10321C00D8F800502D06EED4D8F80450DAF8005047
:10322C00DAF80040641B592C0ED8DAF80040641B05
:10323C00592C9EBFDAF80040641B592C04D8DAF8DC
:10324C000040641B5A2CEBD3DAF80050DAF800403B
:10325C00641B592C0ED8DAF80040641B592C9EBF05
:10326C00DAF80040641B592C04D8DAF80040641BCF
:10327C005A2CEBD3D8F80050AD070CD4D8F800502A
:10328C00AD075CBFD8F800505FEA857503D4D8F859
:10329C000050AD07EED5C8F80400D8F80000C00700
:1032AC000CD1D8F80000C00704BFD8F800005FEAC2
:1032BC00C07003D1D8F80000C007EED0D8F80000D9
:1032CC0000060CD5D8F80000000644BFD8F8000062
:1032DC005FEA006003D5D8F800000006EED4D8F8F9
:1032EC000400DAF80000DAF800502D1A592D3FF6D8
:1032FC0037AFDAF800502D1A592D9EBFDAF800506E
:10330C002D1A592D3FF62CAFDAF800502D1A5A2DE4
:10331C00E9D325E70CF019F80FB0BDE8000FF0BDAC
:10332C004FF40E610CF05FFDF0B503AF2DE9000713
:10333C0082B04FF0FF3252FA81F10A2945D8DFE80A
:10334C0001F0065B4444444444489744B100856C06
:10335C004FF0390AC46B8046142205EB85010AEB49
:10336C00C10108467821FEF716FA40F21F49002DDC
:10337C00CDF8009018BF2C46661E0A207822022336
:10338C0006EB86050AEBC501FEF748F93B2000EB7E
:10339C00C5040A20022221461023CDF80090FEF726
:1033AC003DF98020214602221023CDF80090FEF733
:1033BC0035F94B2000EBC5010A2078220223CDF809
:1033CC000090FEF72BF9C8F8486002B0BDE8000782
:1033DC00F0BD826C072A6DD8C16B8A426ED2866BA7
:1033EC0000F12003995C56F8226000293668367982
:1033FC0018BF0E46013E4DE0C16B4FF03908826C90
:10340C000139541A4FF0780118BF541C846402EB34
:10341C008200142208EBC000FEF7BDF904EB840611
:10342C0040F21F450A20782208EBC60102230095C2
:10343C00FEF7F4F83B2000EBC6040A2002222146DA
:10344C0010230095FEF7EAF8802021460222102373
:10345C000095FEF7E3F84B2000EBC6010A2078221A
:10346C0002230095FEF7DAF802B0BDE80007F0BDC4
:10347C00826C072A1ED8C16B8A421FD2866B00F160
:10348C002003995C56F8226036687668013E761AFD
:10349C0018BF4E1C9E5402B0BDE80007BDE8F040BA
:1034AC00FFF723BB002102B0BDE80007BDE8F040E8
:1034BC00FEF7B2BC104608210BF047FF10460BF08C
:1034CC0044FFD4D4F0B503AF2DE9000F91B043F213
:1034DC00496B43F2303A049147F678610390084403
:1034EC00029008A80025C826C0F6010BC0F6010AF8
:1034FC00011D0230069107900BE005463046C821AD
:10350C004FF4FC63CDF800A0FDF77EF806440A2DBD
:10351C002DD01BF90510681CB1F1FF3FCAB2ECDCD1
:10352C001BF80000AB1CE02A00F03F0102F01F006A
:10353C0015D31BF80330F02A03F03F0343EA811143
:10354C0005F103030FD31BF8032000F0070004352B
:10355C0002F03F0242EA811141EA8042CEE741EAA1
:10356C0080121D46CAE741EA00321D46C6E70398A1
:10357C00049AD0E9080192F811900022CDE90C20B0
:10358C00A9F102000E91CDE90A22C1B2052908A9C0
:10359C00CDE9082228BF022001F11C06C0B24B1D48
:1035AC00CC1C01F10108DFE810F065020500630096
:1035BC0092003700049801254FF000098DF8205037
:1035CC0047F8209C006807F8210C0593C10900F00E
:1035DC00CC8040F0800207F8212C820B07F8201CCD
:1035EC0000F0B28041F0800107F8201C410D07F873
:1035FC001F2C00F0B280000F42F0800207F81E1C56
:10360C0007F81F2C00F0B080052507F81D0C41F0C1
:10361C00800007F81E0CA8E0049804218DF82010F7
:10362C00002147F8201C006807F8210CC1097DD047
:10363C0040F0800207F8212C820B07F8201C7CD06C
:10364C0041F0800107F8201C410D07F81F2C7DD09C
:10365C00000F42F0800207F81E1C07F81F2C7ED0CA
:10366C00052207F81D0C41F0800007F81E0C77E0CE
:10367C000498022100268DF8201047F8206C006871
:10368C0007F8210C0593C109019451D040F0800238
:10369C0007F8212C820B07F8201C50D041F0800138
:1036AC0007F8201C410D07F81F2C51D0000F42F0D9
:1036BC00800207F81E1C07F81F2C00F092800525CD
:1036CC0007F81D0C41F0800007F81E0C8AE00498E6
:1036DC0003218DF820100021D0E9000947F8201CA7
:1036EC0007F8210CC10925D040F0800207F8212CE5
:1036FC00820B07F8201C24D041F0800107F8201C15
:10370C00410D07F81F2C25D00024000F42F0800239
:10371C0007F81E1C07F81F2C00F09C80052507F8E5
:10372C001D0C41F0800007F81E0C94E0012217E0FC
:10373C00012557E0002401258DE0022210E002252E
:10374C0050E00024022586E002250EE0032207E06B
:10375C00032547E0002403257DE0032505E0042232
:10376C00A7F121014046F3E00425A7F121014046D1
:10377C002A460DF0C3FC0498013547F8209C41689B
:10378C0008A8284407F8211CCA0921D041F080035D
:10379C0007F8213C8B0B07F8202C1BD042F0800241
:1037AC0007F8202C4A0D07F81F3C17D0090F43F0DF
:1037BC00800307F81E2C07F81F3C7BD0DDF8148023
:1037CC0007F81D1C42F08001052207F81E1C74E04E
:1037DC00012272E00222DDF81C806EE00322A0467A
:1037EC006BE00425A7F1210140462A460DF086FC2A
:1037FC00049847F8206C6E1C416808A8304407F800
:10380C00211CCA0920D041F0800307F8213C8B0B06
:10381C0007F8202C1AD042F0800207F8202C4A0D11
:10382C0007F81F3C14D0090F43F0800307F81E2C37
:10383C0007F81F3C00F09580052507F81D1C42F089
:10384C00800107F81E1C8DE001258BE0022589E024
:10385C00032587E00425A7F1210140462A460DF0F7
:10386C004DFC08EB05005FEAD91107F8219C47F8DD
:10387C00204C5DD049F0800207F8212C5FEA993288
:10388C0007F8201C59D041F0800107F8201C5FEA92
:10389C00595107F81F2C55D042F0800207F81F2C05
:1038AC005FEA197207F81E1C55D007F81D2C41F061
:1038BC00800136E00422DDF81880A7F121010DF01B
:1038CC001DFC049A107B9168053808F8050008EB7C
:1038DC000500B2F80D20A0F801200022033047F8B3
:1038EC00202CCA0907F8211C22D041F0800307F8CC
:1038FC00213C8B0B07F8202C1FD042F0800207F8DC
:10390C00202C4A0D07F81F3C1CD0090F43F08003F4
:10391C0007F81E2C07F81F3C1DD007F81D1C42F0A1
:10392C008001052207F81E1C311A8A420ED916E0B6
:10393C000122311A8A4209D911E00222311A8A4233
:10394C0004D90CE00322311A8A4208D8A7F12101CC
:10395C000DF0D4FB8EE00422311A8A42F6D90CF019
:10396C00E4FB0425A7F121012A460DF0C7FB0498BE
:10397C002E448168002047F8200C08A8304407F832
:10398C00211CCA0922D041F0800307F8213C8B0B83
:10399C0007F8202C1FD042F0800207F8202C444658
:1039AC004A0D07F81F3C1BD04FF00008090F43F0DD
:1039BC00800307F81E2C07F81F3C15D0052507F8C7
:1039CC001D1C42F0800107F81E1C0EE044464FF00F
:1039DC000008012509E044464FF00008022504E0E8
:1039EC004FF00008032500E00425A7F121012A4629
:1039FC000DF084FB0498354447F8208CC16808A866
:103A0C00284407F8211CCA0920D041F0800307F88C
:103A1C00213C8B0B07F8202C1AD042F0800207F8BF
:103A2C00202C4A0D07F81F3C15D0090F43F08003DA
:103A3C0007F81E2C07F81F3C10D0059C07F81D1C1E
:103A4C0042F08001052207F81E1C09E0012207E064
:103A5C000222079C04E00322019C01E00422069C44
:103A6C00A7F121010DF04AFB0498007C6055601908
:103A7C0080F8019043F6104040F2231148F6AB1247
:103A8C00C4F20200C4F26751CCF6EF5240F80C1CA1
:103A9C0040F80C2C0368B3F1FF3F40F3FC83039B0D
:103AAC004FF60445CFF6FE751B7E06680C2B06EA16
:103ABC0005064FF0200505EBC30538BFDD00EBB262
:103ACC00334443F4803343F00203036050F8043C66
:103ADC00DB030CD550F8043CDB0344BF50F8043C2A
:103AEC005FEAC33303D550F8043CDB03EED450F843
:103AFC00043C036843F00043036040F80C1C40F89E
:103B0C000C2C0168B1F1FF3F40F3C58301210691F4
:103B1C000399D1F810E00021079105E050F8041C3E
:103B2C0011F0F20F40F09E800699002900F096806B
:103B3C00016840F203320EF00F030EF10064914362
:103B4C00C3F1100201310160079E08A9069283F0AF
:103B5C000F023144C3F10E0AC3F10D080023CDF856
:103B6C0014E0079D05EB030BBBF11C0F2DD0CD5CB6
:103B7C009A42E55430D0BBF11B0534D001EB030C59
:103B8C0004EB03099A459CF8015089F801502FD099
:103B9C00BBF11A0530D09CF80250984589F80250B8
:103BAC0032D0BBF1190536D09CF803500EF1040E3F
:103BBC0089F803500436069D04339D42D1D1DDF8BB
:103BCC0014E007999E4419442BE0DDF814E01C2105
:103BDC00CDE906319E4425E0711C079105991944E5
:103BEC0001F1010E1EE00EF1010E43F0010116E091
:103BFC00B11C0EF1020E14E043F00201069105997E
:103C0C00194401F1020E0BE0F11C079105991944BE
:103C1C0001F1030E06E00EF1030E43F003010691D1
:103C2C001C21079143F2496B43F2303AC0F6010B69
:103C3C00C0F6010A50F8041CC9037FF56FAF50F8A9
:103C4C00041CC90344BF50F8041C5FEAC1317FF562
:103C5C0065AF50F8041CC903ECD45FE7016821F090
:103C6C0001010160016841F000410160039947F6D0
:103C7C007C60049C0844019094E86E006EC00026A1
:103C8C00C8250AE006462846C8210023CDF800A026
:103C9C00FCF7BAFC05440A2E2DD01BF90610701C3B
:103CAC00B1F1FF3FCAB2EDDC1BF80000B31CE02AF7
:103CBC0000F03F0102F01F0015D31BF80330F02A6F
:103CCC0003F03F0343EA811106F103030FD31BF802
:103CDC00032000F00700043602F03F0242EA811193
:103CEC0041EA8042CFE741EA80121E46CBE741EA27
:103CFC0000321E46C7E7242543F2080843F2366318
:103D0C004FF0010BC4F20005C4F20108C0F6010328
:103D1C004FF007094FF0000A012103E00499042930
:103D2C0000F0878201EB8100C8244042002601315B
:103D3C00049104EB4000059010E040F618404FF45D
:103D4C008041C4F2020043F236630160C0F6010305
:103D5C00079C069E0834132E00F028819957701C7E
:103D6C00B1F1FF3F5FFA81FC02DD0690664625E06B
:103D7C00185CB21CBCF1E00F00F03F010CF01F000E
:103D8C0016D39A5CBCF1F00F02F03F0242EA8111AB
:103D9C0006F103020FD39A5C00F007000436069676
:103DAC0002F03F0242EA811141EA8040064605E0FA
:103DBC0041EA801601E041EA003606920599204658
:103DCC00082210230794FCF71FFD4FF60060B52E58
:103DDC00CFF6FF7000EB061008BF4FF4C060202E2A
:103DEC0038BF4FF4BE60B0F5C06F00F21E8242F6D1
:103DFC002F510023C0F6010101EB000CC0F5C0618E
:103E0C0002E00133102B98D0002602E00136082E78
:103E1C00F7D003EBD600884280F005821CF8000036
:103E2C0029EA06022C680BFA02F210402A68121BCF
:103E3C00592A0BD82A68121B592A9EBF2A68121BB2
:103E4C00592A03D82A68121B5A2AEFD3D8F8002013
:103E5C0092070CD4D8F8002092075CBFD8F8002049
:103E6C005FEA827203D4D8F800209207EED502469E
:103E7C00002818BF4FF4E0624FEA1222C8F8042061
:103E8C0018BF4FF4FC60D8F80020D2070CD1D8F83A
:103E9C000020D20704BFD8F800205FEAC27203D119
:103EAC00D8F80020D207EED0D8F8002012060CD596
:103EBC00D8F80020120644BFD8F800205FEA02624E
:103ECC0003D5D8F800201206EED4D8F804202C68BC
:103EDC002A68121B592A0BD82A68121B592A9EBF12
:103EEC002A68121B592A03D82A68121B5A2AEFD3A4
:103EFC002C682A68121B592A0BD82A68121B592ABB
:103F0C009EBF2A68121B592A03D82A68121B5A2AE8
:103F1C00EFD3D8F8002092070CD4D8F800209207E1
:103F2C005CBFD8F800205FEA827203D4D8F8002076
:103F3C009207EED500F0E000C8F80400D8F80000B5
:103F4C00C0070CD1D8F80000C00704BFD8F8000097
:103F5C005FEAC07003D1D8F80000C007EED0D8F8E3
:103F6C00000000060CD5D8F80000000644BFD8F8B5
:103F7C0000005FEA006003D5D8F800000006EED41C
:103F8C00D8F8040028682A68121A592A3FF63EAF5E
:103F9C002A68121A592A9EBF2A68121A592A3FF601
:103FAC0035AF2A68121A5A2AEDD32FE728684BF638
:103FBC00A032C0F20D022968091A91420BD229686D
:103FCC00091A91423EBF2968091A914203D2296805
:103FDC00091A9142EFD34FF0000C4FF0C80E10E0CD
:103FEC0040F6184043F236630EF1080EC4F202009C
:103FFC004FF48041BCF1130FC0F6010301603FF494
:10400C008DAE13F90C100CF10100B1F1FF3FCCB2E5
:10401C0001DD079025E0185C0CF10202E02C00F0A9
:10402C003F0104F01F0016D39A5CF02C02F03F0203
:10403C0042EA81110CF1030210D39A5C00F00700E4
:10404C000CF1040CCDF81CC002F03F0242EA8111C5
:10405C0041EA804405E041EA801401E041EA003481
:10406C00079205997046082210237646FCF7CCFB84
:10407C004FF60060B52CCFF6FF7000EB041008BFB4
:10408C004FF4C060202C38BF4FF4BE60B0F5C06F49
:10409C0000F2CB80DDF81CC0C0F5C0610022B64632
:1040AC0002E00132102A9BD0002302E00133082BDE
:1040BC00F7D002EBD300884280F0B58028682C68DA
:1040CC00241A592C0BD82C68241A592C9EBF2C68F6
:1040DC00241A592C03D82C68241A5A2CEFD3D8F84C
:1040EC00000080070CD4D8F8000080075CBFD8F81B
:1040FC0000005FEA807003D4D8F800008007EED58A
:10410C00C8F804A0D8F80000C0070CD1D8F80000FB
:10411C00C00704BFD8F800005FEAC07003D1D8F81C
:10412C000000C007EED0D8F8000000060CD5D8F877
:10413C000000000644BFD8F800005FEA006003D519
:10414C00D8F800000006EED4D8F8040028682C68D3
:10415C00241A592C0BD82C68241A592C9EBF2C6865
:10416C00241A592C03D82C68241A5A2CEFD32868FB
:10417C002C68241A592C0BD82C68241A592C9EBF45
:10418C002C68241A592C03D82C68241A5A2CEFD3D7
:10419C00D8F8000080070CD4D8F8000080075CBF6A
:1041AC00D8F800005FEA807003D4D8F800008007CC
:1041BC00EED5C8F804A0D8F80000C0070CD1D8F888
:1041CC000000C00704BFD8F800005FEAC07003D13C
:1041DC00D8F80000C007EED0D8F8000000060CD5C7
:1041EC00D8F80000000644BFD8F800005FEA006071
:1041FC0003D5D8F800000006EED4D8F804002868DF
:10420C002C68241A592C3FF651AF2C68241A592CBF
:10421C009EBF2C68241A592C3FF648AF2C68241AE0
:10422C005A2CEDD342E70BF090F84FF4C0610BF031
:10423C00DAFD029A0021507D11600238C1B20529C5
:10424C0028BF0220C1B2039A43F25800024443F63D
:10425C00D400C0F60100DFE801F01611030D0800D0
:10426C0043F6EC00C0F6010008E043F61C10C0F663
:10427C00010003E043F60410C0F601000399C36883
:10428C0001985031984703980021FDF7C5FD11B0F6
:10429C00BDE8000FF0BD31200BF06BFCF0B503AFA7
:1042AC002DE9000F83B0242643F2080443F2536C2B
:1042BC004FF0000BC4F20006C4F20104C0F6010C6E
:1042CC004FF0070A4FF00108002003E00198032883
:1042DC0000F0578200234FF0C8090130019010E024
:1042EC0040F618404FF48041C4F2020043F2536C84
:1042FC00016009F10809029BC0F6010C0D2B00F0BE
:10430C0005811CF90310581CB1F1FF3FCDB201DD42
:10431C00029025E01CF800009A1CE02D00F03F01F3
:10432C0005F01F0016D31CF80220F02D02F03F02FE
:10433C0042EA811103F103020FD31CF8022000F0B2
:10434C0007000433029302F03F0242EA811141EA72
:10435C00804505E041EA801501E041EA0035029212
:10436C004846C82108221023FCF74EFA4FF600608D
:10437C00B52DCFF6FF7000EB051008BF4FF4C060F1
:10438C00202D38BF4FF4BE60B0F5C06F00F2F58140
:10439C0042F62F514FF0000EC0F6010101EB000C5C
:1043AC00C0F5C06104E00EF1010EBEF1100F97D004
:1043BC00002502E00135082DF5D00EEBD500884222
:1043CC0080F0D9811CF800002AEA0503326808FA4B
:1043DC0003F3184033689B1A592B0BD833689B1A7C
:1043EC00592B9EBF33689B1A592B03D833689B1AE1
:1043FC005A2BEFD32268920709D4226892075CBF2C
:10440C0022685FEA827202D422689207F2D50028F1
:10441C0018BFF82060602068C00709D12068C00769
:10442C0004BF20685FEAC07002D12068C007F2D0D8
:10443C002068000609D52068000644BF20685FEAA2
:10444C00006002D520680006F2D4606830683268DB
:10445C00121A592A0BD83268121A592A9EBF32687E
:10446C00121A592A03D83268121A5A2AEFD3306812
:10447C003268121A592A0BD83268121A592A9EBF5E
:10448C003268121A592A03D83268121A5A2AEFD3F0
:10449C002068800709D4206880075CBF20685FEA29
:1044AC00807002D420688007F2D5C4F804B020686C
:1044BC00C00709D12068C00704BF20685FEAC0703C
:1044CC0002D12068C007F2D02068000609D5206808
:1044DC00000644BF20685FEA006002D52068000631
:1044EC00F2D4606830683268121A592A3FF662AF0B
:1044FC003268121A592A9EBF3268121A592A3FF68C
:10450C0059AF3268121A5A2AEDD353E730684AF67B
:10451C008002C0F212123168091A91420BD2316832
:10452C00091A91423EBF3168091A914203D231688F
:10453C00091A9142EFD300234FF0C8090CE040F662
:10454C0018404FF48041C4F2020009F108090160DF
:10455C00029B0D2B00F0F7801CF90310581CB1F1D5
:10456C00FF3FCDB201DD029025E01CF800009A1C43
:10457C00E02D00F03F0105F01F0016D31CF80220BF
:10458C00F02D02F03F0242EA811103F103020FD336
:10459C001CF8022000F007000433029302F03F02E3
:1045AC0042EA811141EA804505E041EA801501E0CB
:1045BC0041EA003502924846C82108221023FCF734
:1045CC0023F94FF60060B52DCFF6FF7000EB051008
:1045DC0008BF4FF4C060202D38BF4FF4BE60B0F55B
:1045EC00C06F00F2CA8043F2536CC0F5C061002268
:1045FC00C0F6010C02E00132102AA0D0002302E028
:10460C000133082BF7D002EBD300884280F0B38043
:10461C00306835682D1A592D0BD835682D1A592D3F
:10462C009EBF35682D1A592D03D835682D1A5A2D71
:10463C00EFD32068800709D4206880075CBF20680E
:10464C005FEA807002D420688007F2D5C4F804B009
:10465C002068C00709D12068C00704BF20685FEA42
:10466C00C07002D12068C007F2D02068000609D5BE
:10467C002068000644BF20685FEA006002D520680D
:10468C000006F2D46068306835682D1A592D0BD8A5
:10469C0035682D1A592D9EBF35682D1A592D03D802
:1046AC0035682D1A5A2DEFD3306835682D1A592DCF
:1046BC000BD835682D1A592D9EBF35682D1A592DDA
:1046CC0003D835682D1A5A2DEFD32068800709D4EA
:1046DC00206880075CBF20685FEA807002D4206885
:1046EC008007F2D5C4F804B02068C00709D120684F
:1046FC00C00704BF20685FEAC07002D12068C00701
:10470C00F2D02068000609D52068000644BF206856
:10471C005FEA006002D520680006F2D46068306859
:10472C0035682D1A592D3FF66BAF35682D1A592D5A
:10473C009EBF35682D1A592D3FF662AF35682D1A7C
:10474C005A2DEDD35CE730684AF68002C0F21212A3
:10475C003168091A9142BFF4B9AD3168091A914216
:10476C003EBF3168091A9142BFF4B0AD3168091AE5
:10477C009142EDD3AAE50AF0E8FD4FF4C0610BF0CD
:10478C0032FB03B0BDE8000FF0BDF0B503AF4DF840
:10479C00048DA0B0002110221428069201AACDE9A4
:1047AC000311CDE901110791059200F29D8014AB24
:1047BC000C9340F2472343F69046C0F60003C0F634
:1047CC000106119312AB10934FF6F543C0F600039C
:1047DC0002220F9343F61003C0F6010303EBC00053
:1047EC000E90037943F69C40C0F601000D9209929D
:1047FC0050F8230056F82330ADF87020ADF868203F
:10480C00CDE9123043F6BC00C0F60100ADF85020E3
:10481C0008902020CAF6000000F16053CDE9181072
:10482C004FF4403016900EA842F2A4310B920A902D
:10483C0005A808AA1F930123C0F601011E930BF0D3
:10484C009CF900284BD1DDE906128A4249D805991A
:10485C0014A80BF022FB1498012840D01698D0B362
:10486C00159E42F6B4481A24C0F6010835180EE01D
:10487C0043EA8112861C20464FF495714FF6FF7364
:10488C00CDF80080FBF7C0FE0444AE4223D0304686
:10489C0016F9011BB1F1FF3FCAB2ECDC437802F010
:1048AC001F01E02A03F03F03E2D38678F02A06F0DA
:1048BC003F0646EA83130AD3C27801F00701061DAE
:1048CC0002F03F0242EA831242EA8142D3E743EA12
:1048DC000132C61CCFE720B05DF8048BF0BD0BF0A5
:1048EC0024FC10460BF07FFA15210AF02EFDD4D4CF
:1048FC00D4D4D4D4F0B503AF2DE9000F81B02DED95
:10490C000A8BB6B0044641F2D8302058002800F08B
:10491C00558442F63010211847F67860261841F27B
:10492C006A7004912044D1E9005840F28E310DF0A8
:10493C001DF841F6BF4040F2C71120440DF016F8A7
:10494C0042F2142040F28E3120440DF0A3F842F2D2
:10495C00697040F2C71120440DF008F841F68660EA
:10496C0036682044069041F2DC30002E2044059439
:10497C00089000F0C883059943F2580008440B9046
:10498C0028460DF05BF8044640460D460DF056F8EF
:10499C00721E2B46B2F57A7F28BF4FF47A72013221
:1049AC00B6F57A7F88BF4FF47A720992224610943A
:1049BC000F950CF0C7FF9FEDEB8B9FEDEC9B9FEDE4
:1049CC00EDBB0A9001200E91002107E00D9909988A
:1049DC008142084638BF013080F095830D90C8089D
:1049EC007C2800F2628501EB81000B990DF1640BC0
:1049FC0011F8202001EB80004168119181680C9125
:104A0C00D0E90341407817914021129058461892F2
:104A1C000DF040F820460DF011F8DDE90F320CF0E6
:104A2C0091FF53EC182BCDE915230CF06DFB0A9C70
:104A3C000E9B22460DF0ADF855EC199B4A462B46C1
:104A4C000CF0B5FDB0EE491AF0EE691A41EC100B02
:104A5C000DF078FAB0EE481AF0EE681A0CF04EFD34
:104A6C0056EC10AB00202B904020CDE929B05046DD
:104A7C0031460DF066F88346504631464A462B4681
:104A8C00CDF84C9014950CF0C9FC804617980CF09E
:104A9C00D5FFDDE90F320CF055FFDDE915230CF0E5
:104AAC0033FB0E9B22460DF074F84A462B460CF055
:104ABC007EFD59EC1B4BB8F1000F41EC1A0B504624
:104ACC00314608BFC34622464B460CF0E1FCB0EE23
:104ADC004A0A0028B0EE491A18BF4FF0FF3BF0EE1F
:104AEC006A0AF0EE691A0DF02DFAB0EE481AF0EEE3
:104AFC00681A0CF003FD56EC105B284631460DF09D
:104B0C0020F8DDE913238246284631460CF086FC5A
:104B1C00002808BF82462846314622464B460CF0F8
:104B2C00B7FC002818BF4FF0FF3ACDF858B01899D1
:104B3C00AAEB0B04DFE801F037063F06095C684876
:104B4C00781F730029A812996BE0129843F67841EC
:104B5C00C0F6010100F001008DF8B00000202E918C
:104B6C00329001202F90319034A8309040F24710B1
:104B7C00C0F601006CE0002043F678413290012031
:104B8C002F90C0F60101319034A8309040F299304A
:104B9C00C0F601002E9135902CA83490129800F09C
:104BAC0001002C9057E044F22050C7F26D00199090
:104BBC0047F6741023E0129929A802F0D3F8302696
:104BCC000120DDF818B055E0129843F688418DF8B5
:104BDC00B0000020329001202F90C0F601013190DE
:104BEC0034A8309040F27910C0F601002E912FE0DD
:104BFC0045F22030C6F27410199047F27240ADF8AD
:104C0C00680006202B9031E045F22030C6F6747017
:104C1C00199070208DF8680005202B9026E01199D2
:104C2C0029A802F09FF821E00C9843F678412D90CA
:104C3C00C0F6010111982C900020329001202F9089
:104C4C00319034A8309040F247202E91C0F60000ED
:104C5C0035902CA8349042F2A43129A82EAAC0F683
:104C6C0001010AF08AFF002840F0EA83DDF820B049
:104C7C0020260020DDE92A18884500F2E383DDF8C0
:104C8C00A490424611902EA849460BF006F92E9896
:104C9C00012800F0D583309800EBC00084426DD21F
:104CAC00169882457FF692AE169B40F2C7100BEB1E
:104CBC000302B3F5E47F28BF1846C11A0BEB43037C
:104CCC0002F6E60203F56573002900F0E5834FF662
:104CDC00FF7523F8065C12F8035C05F00F053543ED
:104CEC0002F8035C169D013555453FF46FAE8542C5
:104CFC0000F0D2834FF6FF7523F8045C12F8025CC7
:104D0C0005F00F05354302F8025C169D023555453A
:104D1C003FF45CAE854200F0BF834FF6FF7523F87D
:104D2C00025C12F8015C05F00F05354302F8015CDA
:104D3C00169D033555453FF449AE854200F0AC83D2
:104D4C004FF6FF75043923F8085B157805F00F054D
:104D5C00354302F8045B169D043516955545B3D1C1
:104D6C0034E600BF0000000000607C400000000042
:104D7C00000000000000E0FFFFFFEF4116988245A5
:104D8C0054D9169D40F2C7100BEB0502B5F5E47F24
:104D9C000BEB450328BF2846411B02F6E60203F540
:104DAC006573002900F078834FF6FF7423F8064CE6
:104DBC0012F8034C04F00F04344302F8034C6C1C3F
:104DCC00544533D0844200F067834FF6FF7423F8C8
:104DDC00044C12F8024C04F00F04344302F8024C59
:104DEC00AC1C544522D0844200F056834FF6FF741D
:104DFC0023F8024C12F8014C04F00F04344302F86F
:104E0C00014CEC1C544511D0844200F045834FF604
:104E1C00FF74043523F8084B04391478554504F015
:104E2C000F0444EA060402F8044BBAD12EA84946F2
:104E3C0042460BF032F82E98012800F0018330998D
:104E4C0000293FF4C3AD2F980BF28E330BF6E30E13
:104E5C00CDF84CE001441291064607E0149E08314F
:104E6C0012981691864230463FF4B0AD16F9012BDC
:104E7C00B2F1FF3FD1B21FDC467801F01F02E029EE
:104E8C0006F03F0611D38578F02905F03F0545EA79
:104E9C0086160ED3C17802F0070201F03F0141EAF9
:104EAC008611061D41EA824106E046EA8211861C03
:104EBC0002E046EA0231C61C0C01B52908BF4FF4CA
:104ECC000064202938BF4FF4FE64A4F50070B0F5DF
:104EDC00C06F00F2BA8242F62F511496C0F601014F
:104EEC00084417904FF0000E1698C11D00F1060CE7
:104EFC00451D061DC21C00F1020900F1010B0846FC
:104F0C00C4F5006118910121159005E00EF1010E18
:104F1C00BEF1100F00F09280189C744500F09E8238
:104F2C0001FA0EF46FEA040A179C14F90E40B4F15E
:104F3C00FF3F17DD5FFA84F85FEA486424D45FEA28
:104F4C0088642ED45FEAC86438D45FEA087442D40B
:104F5C005FEA48744CD45FEA887456D45FEAC8742C
:104F6C00D4D060E01698B0F5E37F00F2958233F868
:104F7C00101001EA0A0123F81010012115985FFAAC
:104F8C0084F85FEA4864DAD5BBF5E37F00F28382EC
:104F9C0033F81B4004EA0A0423F81B405FEA8864D8
:104FAC00D0D5B9F5E37F00F2678233F8194004EAF3
:104FBC000A0423F819405FEAC864C6D5B2F5E37F4A
:104FCC0000F2648233F8124004EA0A0423F8124017
:104FDC005FEA0874BCD5B6F5E37F00F2528233F871
:104FEC00164004EA0A0423F816405FEA4874B2D566
:104FFC00B5F5E37F00F2368233F8154004EA0A0473
:10500C0023F815405FEA8874A8D5BCF5E37F00F25D
:10501C002E8233F81C4004EA0A0423F81C405FEA91
:10502C00C8743FF473AFB0F5E37F00F2358233F808
:10503C00104004EA0A0423F8104067E71699DDF8DB
:10504C004CE011F1090F3FF609AFB1F5E37F55D8EC
:10505C000C461EF80110119801F0F00101440EF8F5
:10506C00041040F2C7118B4548D01EF80B408945FF
:10507C0004F0F00404440EF80B401FBF1EF8091096
:10508C0001F0F00101440EF809101CBF40F2C711E9
:10509C008A4233D01EF802408E4204F0F0040444DD
:1050AC000EF802401FBF1EF8061001F0F00101447B
:1050BC000EF806101CBF40F2C7118D421ED01EF810
:1050CC0005208C4502F0F00202440EF805201FBFAB
:1050DC001EF80C1001F0F00101440EF80C101EBF6C
:1050EC0040F2C711159A8A4208D01EF8021001F03E
:1050FC00F00101440EF802101699AFE6084640F292
:10510C00C7110AF022F9DDF814A041F2D8302121A0
:10511C000AEB00040AF150000790089801F008FD12
:10512C000698322101F004FD049D2168286801399C
:10513C0018914AD4189B00220024991801EBD171C4
:10514C004910CE087C2E00F2AB81079E56F82160E8
:10515C0086429ABF0C464A1C4B1E9A42EDDD6E6885
:10516C000022189D1899114401EBD1714910CB08FC
:10517C007C2B00F29581079B53F82130B3422CBF56
:10518C000D464A1C189B28BF4B1E9A421893E9DD0A
:10519C000CF054FC8046304689460CF04FFC42F62D
:1051AC003C124B4652440092424649EC1A8B0CF08E
:1051BC00C9FBAC4222D9009801F0B2FF36B0BDEC6D
:1051CC000A8B01B0BDE8000FF0BD0CF037FC0646B1
:1051DC0068680C4641EC1A6B0CF030FC32462346E6
:1051EC000CF0B0FB42F63C1241EC1B0B524400207D
:1051FC0000920AF57F620192029008E041EC1B0BD1
:10520C000AEB040202F57F6002940190189542F6B5
:10521C003C100AEB00090AF57F609FEDA88B9FED0F
:10522C00A99B9FEDAACB0690002002E003980828CA
:10523C00C1D002460798DDF808A0059250F82A3034
:10524C005000049001980678501C03905046189911
:10525C008A4538BF0130BAF57A7F80F0FA800C901D
:10526C00184608960CF0EAFB53EC1A2BCDE91623E2
:10527C000CF068FB53EC182BCDE914230BF044FF16
:10528C0053EC1B2BCDE912230CF083FC58EC19BB0F
:10529C005A4643460CF08BF9B0EE491AF0EE691AF7
:1052AC0041EC100B0CF04EFEB0EE481AF0EE681A02
:1052BC000CF024F956EC105B069810F80A000990D3
:1052CC0010951196284631460CF03BFC04462846B6
:1052DC0031465A464346CDF834B0CDF838800CF000
:1052EC009DF80F900798CDF82CA050F82A000A9042
:1052FC000CF0A4FBDDE916230CF024FBDDE91423F0
:10530C000BF002FFDDE912230CF043FC5A46434636
:10531C000CF04DF9B0EE491AF0EE691A41EC100B95
:10532C000CF010FEB0EE481AF0EE681A0CF0E6F82D
:10533C0055EC1CAB0F985BEC108B002808BF044697
:10534C00DDE9100152462B460CF0A2F8002840462D
:10535C00594618BF4FF0FF340CF0F3FBDDE90D2379
:10536C000646404659460CF059F8002808BF064638
:10537C004046594652462B460CF08AF8002818BF76
:10538C004FF0FF36B4420DD90B9818990A9B8842FE
:10539C000C98BFF44BAF18998246099E88427FF651
:1053AC0056AF43E708980599C043C0B2C84004996A
:1053BC0000F001000843012101FA00F0B4F5E37F8D
:1053CC0039D839F81410B44241EA000129F8141004
:1053DC0038BF0134D8D2B442D6D8B4F5E37F2AD83A
:1053EC0039F81410B44241EA000129F8141038BFFE
:1053FC000134C9D2B442C7D8B4F5E37F1BD839F80D
:10540C001410B44241EA000129F8141038BF0134D9
:10541C00BAD2B442B8D8B4F5E37F0CD839F814102A
:10542C00B44241EA000129F8141038BF0134ABD260
:10543C00B442C3D9A8E7204640F2C71109F085FF52
:10544C000AF073FE40460AF0CEFC4FF4C0610AF03D
:10545C00CAFC50464FF47A7109F077FF1898014650
:10546C0009F073FF284640F2C71109F06EFF604641
:10547C0040F2C71109F069FF484640F2C71109F024
:10548C0064FF304640F2C71109F05FFF104640F24E
:10549C00C71109F05AFF584640F2C71109F055FFE1
:1054AC0008464FF47A7109F050FF4FF47A704FF4BC
:1054BC007A7109F04AFF00BF00BF00BF0000000076
:1054CC0000607C4000000000000000000000E0FFD5
:1054DC00FFFFEF41F0B503AF2DE9000FA3B041F290
:1054EC00D831425842F6301146580144D1F8048064
:1054FC004AB1511EB2F57A7F00F2798400F1500264
:10550C0052F8215000E0002547F6906100EB010AAB
:10551C00CDF810A09AF81400002840F0F08143F662
:10552C001C4101A84FF0010B80E8600140F22409F6
:10553C0043F634188AF814B043F2080AC0F6010195
:10554C0001F1080001224FF49174C4F20009C4F275
:10555C00010AC0F601080125079212E00020032D74
:10556C0038BF0120079043F61C400599C0F6010096
:10557C0018342030814201F1080018BF013500F0C9
:10558C00B181CDE90505D1E90056102E089437D22A
:10559C00002E00F07481B1084FF0000000F0838100
:1055AC0001F0030105F1010E6FF003030B96A0EB64
:1055BC00810C0EEB0306043396F9031096F90640A2
:1055CC0096F9052011F1410F96F90460C8BF01301E
:1055DC000CEB030116F1410FC8BF013012F1410F62
:1055EC00C8BF013014F1410FC8BF01300431E0D104
:1055FC00089C191D0B9E16F0030240F05A8103E023
:10560C002846314609F0A2FFC0F10300A9190991FF
:10561C00294600EB400004EB40030EE040F6184036
:10562C004FF48041C4F2020001600B9BDDE90901DB
:10563C0006330D46814200F0228111F9010BB0F1C5
:10564C00FF3FC4B21FDC697804F01F00E02C01F0AE
:10565C003F0111D3AA78F02C02F03F0242EA8111EB
:10566C000ED3EA7800F0070002F03F0242EA811103
:10567C0041EA8044291D06E041EA8014A91C02E09D
:10568C0041EA0034E91CCDE90A1318460E21052223
:10569C000723FBF7B9F804EB8400B52CA0F1A001AB
:1056AC0040F2E51008BF4FF4F071202C38BF40F2E7
:1056BC00DB11421A4FF0000C38BF624602E0BCF11D
:1056CC00070FABD00CF007000CF1010C00240BFA07
:1056DC0000F501E0052CF2D06018944200F08183B3
:1056EC00D9F80060013418F80000D9F800309B1B81
:1056FC00592B0ED8D9F800309B1B592B9EBFD9F8CB
:10570C0000309B1B592B04D8D9F800309B1B5A2B0B
:10571C00EBD3DAF800309B070CD4DAF800309B0797
:10572C005CBFDAF800305FEA837303D4DAF8003038
:10573C009B07EED5284018BFFF20CAF80400DAF802
:10574C000030DB070CD1DAF80030DB0704BFDAF8E5
:10575C0000305FEAC37303D1DAF80030DB07EED018
:10576C00DAF800301B060CD5DAF800301B0644BF03
:10577C00DAF800305FEA036303D5DAF800301B0671
:10578C00EED4DAF80430D9F80060D9F800309B1B5D
:10579C00592B0ED8D9F800309B1B592B9EBFD9F82A
:1057AC0000309B1B592B04D8D9F800309B1B5A2B6B
:1057BC00EBD3D9F80060D9F800309B1B592B0ED8CD
:1057CC00D9F800309B1B592B9EBFD9F800309B1B7E
:1057DC00592B04D8D9F800309B1B5A2BEBD3DAF891
:1057EC0000309B070CD4DAF800309B075CBFDAF86A
:1057FC0000305FEA837303D4DAF800309B07EED5F0
:10580C00CAF80400DAF80000C0070CD1DAF800007E
:10581C00C00704BFDAF800005FEAC07003D1DAF801
:10582C000000C007EED0DAF8000000060CD5DAF85C
:10583C000000000644BFDAF800005FEA006003D500
:10584C00DAF800000006EED4DAF80400D9F800000B
:10585C00D9F800301B1A592B3FF63CAFD9F8003061
:10586C001B1A592B9EBFD9F800301B1A592B3FF627
:10587C0031AFD9F800301B1A5A2BE9D32AE7079815
:10588C00089C069DC0073FF469AE43F61C30062108
:10589C00C0F601002E22009004F112004FF6FF73A7
:1058AC00FAF7B2FE5AE60021089C16F003023FF408
:1058BC00ABAE6B5613F1410FC8BF0130012A3FF458
:1058CC00A3AE294491F9013013F1410FC8BF013047
:1058DC00022A3FF499AE91F9021011F1410FC8BFA1
:1058EC00013091E64FF6FF700E210090A020782237
:1058FC000123FBF793FE0DF1040A9AE860054FF4BF
:10590C007A704FF03032A6FB00010E92CDE90C22DA
:10591C000C2210920CAA00240F925A2200231194EC
:10592C000CF04CFBCDE9120101201A901DA9169028
:10593C0015AA189040F2D510C0F6010019911C90D0
:10594C0012A81B901BA817903020CAF6000043F237
:10595C008031CDE921404FF44020C0F601011F9069
:10596C000220159142F2A431ADF874000FA8C0F6D4
:10597C0001010AF002F9002840F037829DF830202E
:10598C009AF80800904240F0BE809DF831209AF8B9
:10599C000900904240F0CC809DF832209AF80A0021
:1059AC00904240F0DA809DF833209AF80B00904238
:1059BC0040F0E8809DF834209AF80C00904240F0BA
:1059CC00F6809DF835209AF80D00904240F0048145
:1059DC009DF836209AF80E00904240F012819DF806
:1059EC0037209AF80F00904240F020819DF8382023
:1059FC009AF81000904240F02E819DF839209AF8C8
:105A0C001100904240F03C819DF83A209AF8120027
:105A1C00904240F04A819DF83B209AF81300904246
:105A2C0040F05881002D00F0668130460CF006F8ED
:105A3C00044628460E460CF001F881460D462046D9
:105A4C0031464A462B460CF0A4F89FEDEC0B56EC75
:105A5C00104B224633460BF057FBCDE90A1040465B
:105A6C000BF0ECFF4A462B460CF093F822463346DB
:105A7C000BF04AFB05468A460CF063F89FEDE10BF0
:105A8C0083462846514656EC109B4A4633460BF04B
:105A9C00C5FC9FEDDE0B0028514653EC104B0993CF
:105AAC0008BF8346284622460BF0F2FC002818BF9C
:105ABC004FF0FF3B7720BBF1770F28BF8346DDF813
:105ACC002CA0DDF82880504641460CF03AF80546EB
