:020000040800F2
:1000000000000320AD01000823E40008DFFF000822
:1000100023E4000823E4000823E4000800000000B3
:1000200000000000000000000000000023E40008C1
:1000300023E400080000000023E4000823E4000893
:1000400023E4000823E4000823E4000823E4000874
:1000500023E4000823E4000823E4000823E4000864
:1000600023E4000823E4000823E4000823E4000854
:1000700023E4000823E4000823E4000823E4000844
:1000800023E4000823E4000823E4000823E4000834
:1000900023E4000823E4000823E4000823E4000824
:1000A00023E4000823E4000823E4000823E4000814
:1000B00023E4000823E4000823E4000823E4000804
:1000C00023E4000823E4000823E4000823E40008F4
:1000D00023E4000823E4000823E4000823E40008E4
:1000E00023E4000823E4000823E4000823E40008D4
:1000F00023E4000823E4000823E4000823E40008C4
:1001000023E4000823E4000823E4000823E40008B3
:1001100023E4000823E4000823E4000823E40008A3
:1001200023E4000823E4000823E4000823E4000893
:1001300023E4000823E4000823E4000823E4000883
:1001400023E4000823E4000823E4000823E4000873
:1001500023E4000823E4000823E4000823E4000863
:1001600023E4000823E4000823E4000823E4000853
:1001700023E4000823E4000823E4000823E4000843
:1001800023E4000823E4000823E4000823E4000833
:1001900023E4000823E4000823E4000823E4000823
:0C01A00023E4000823E4000823E4000826
:1001AC000EF03AF90E480F490022814201D004C0EA
:1001BC00FBE70D480D490E4A814202D008CA08C01F
:1001CC00FAE70C484FF47001026842EA010202603F
:1001DC00BFF34F8FBFF36F8F04F057FD00DE0000AD
:1001EC00000000200400002000000020000000207F
:1001FC00281B010888ED00E0CAB101EB020C44F6A3
:10020C000002C4F2000203E00131536061450ED0DC
:10021C000B7810680006F7D4106800065CBF1068F5
:10022C005FEA0060F0D410680006F2D5ECE700201D
:10023C00704780B56F46A2B00A46C969CB0616D482
:10024C00890621D4017864294CD329204843030B17
:10025C006FF0630013FB001041F2C771C0F601018F
:10026C00C0B231F81000ADF8090000203EE0007873
:10027C0000F00F0101F157030A2938BF01F13003D7
:10028C008DF8873057210BE0007800F00F0101F159
:10029C0037030A2938BF01F1300337218DF8873035
:1002AC0001EB10110309A02838BF03F1300110280D
:1002BC0038BF00218DF886104FF0020138BF0121A4
:1002CC00009102A9102801F17E03104638BF01F1FC
:1002DC007F0341F2C571C0F6010102220CF09AFFB6
:1002EC0022B080BD0A2906D202200B4643F0300111
:1002FC0002AB195408E041F2C770C0F6010030F8A7
:10030C001100ADF80900012080F00301009102A951
:10031C000B181046012100220CF07CFF22B080BD8E
:10032C00F0B503AF2DE9000F8DB006680C463078A0
:10033C0080B1D4E905B940F20A01D9F80C50C0F6E5
:10034C00010104225846A84790B101200DB0BDE828
:10035C00000FF0BD40F21E01D4E90502D368C0F6CF
:10036C00010104220DB0BDE8000FBDE8F0401847B4
:10037C00D4F81CA006F101085FEA4A7015D441F2CA
:10038C00C1715846C0F601010122A847014601205F
:10039C000029DBD140462146FFF74BFF002846D011
:1003AC0001200DB0BDE8000FF0BD41F2C2715846FE
:1003BC00C0F601010222A847014601200029C5D13F
:1003CC0004F10806A7F1410141F29C7507F8410CB4
:1003DC004CCE6846C0F60105CDE90191D4E900C1C7
:1003EC00099006A8CDE904C104A90A9594F82050F7
:1003FC004CC04046CDF800B0CDF82CA08DF8305054
:10040C00FFF717FF20B101200DB0BDE8000FF0BDC4
:10041C00DDE909010222CB6841F2BC71C0F6010191
:10042C00984720B101200DB0BDE8000FF0BDD4E914
:10043C0005010122CB6841F26C71C0F601019847AD
:10044C000DB0BDE8000FF0BD0B46D0E90012184608
:10045C000DF006B8F0B503AF2DE9000FA3B0894637
:10046C00C969CA064ED4890600F18A80016842F235
:10047C0010704FF69C7E814241F2C770C0F60100AD
:10048C00C0F0D68041F259784EF2FF040DF10C0BFE
:10049C00CDF808900022CDF2B7184DF6F00941F2D4
:1004AC007B4AC0F2F554A1FB08350BEB020C043A65
:1004BC00A1424FEA553303FB09151946AEB24FEA78
:1004CC00960606FB0AF64FEA564606FB0E5530F822
:1004DC001660ACF80660ADB230F81550ACF80850A8
:1004EC00E1D8DDF808900A321946632900F2A4809D
:1004FC000B460A2BC0F0B180911E30F8130003AAF2
:10050C005052AFE003680DF10C0E802481214FF0A6
:10051C005708204603F00F0404F157050A2C38BF86
:10052C0004F130050EEB0104102B04F8025C66D3C9
:10053C00DDB2A02D08EB15164FEA151238BF02F1EB
:10054C0030061D0A04F8036C5CD005F00F02043968
:10055C0002F157050A2A38BF02F1300504F8045C91
:10056C001D0B52D005F00F0202F157050A2A38BFB5
:10057C0002F1300504F8055C041F1B0CC9D13CE0EA
:10058C0003680DF10C0E802481214FF0370C03F021
:10059C000F06204606F137050A2E0EEB010438BF74
:1005AC0006F13005102B04F8025C28D3DEB2A02E25
:1005BC000CEB16154FEA161238BF02F1300504F891
:1005CC00035C1D0A1ED005F00F02043902F1370539
:1005DC000A2A38BF02F1300504F8045C1D0B14D054
:1005EC0005F00F0202F137050A2A38BF02F1300577
:1005FC0004F8055C041F1B0CC9D1033807E08C1EE2
:10060C00481E04E00138CC1E01E002380C4641F2D1
:10061C00C571C0F181000EEB04030090C0F601011E
:10062C00484602220CF0F6FD23B0BDE8000FF0BDE9
:10063C000A2263297FF65CAF8BB241F27B469B08A2
:10064C00023A734303AE5B0C03FB0E1189B230F814
:10065C001110B1520A2BBFF44FAF511E03AA43F035
:10066C0030005054C1F10A00009003A80022431836
:10067C00484601210CF0CEFD23B0BDE8000FF0BDC3
:10068C0081B0002080290090684602D200F1010C54
:10069C0037E0B1F5006F0BD202220B4662F39F13C9
:1006AC00C02200F1020C8DF8013042EA911128E0D1
:1006BC00B1F5803F10D202220B4662F39F138DF8E6
:1006CC0002308B0900F1030C62F39F13E0228DF8CA
:1006DC00013042EA113114E002220B4662F39F13FF
:1006EC008DF803308B0900F1040C62F39F138DF825
:1006FC0002300B0B62F39F13F0228DF8013042EAAB
:10070C00914144F600028DF800106946C4F20002D3
:10071C0003E00131536061450ED00B781068000680
:10072C00F7D4106800065CBF10685FEA0060F0D474
:10073C0010680006F2D5ECE7002001B07047F0B568
:10074C0003AF4DF8048D82B08046002080290190C3
:10075C0003D201248DF8041033E0B1F5006F09D2F7
:10076C000224084664F39F108DF80500C02040EA6F
:10077C00911024E002200A4660F39F12B1F5803FED
:10078C000DD28DF806208A0960F39F12E02040EA12
:10079C0011308DF805208DF80400032411E08DF83C
:1007AC0007208A0960F39F128DF806200A0B042497
:1007BC0060F39F12F02040EA91408DF805208DF8EF
:1007CC000400D8E90156B54215D309D0D8F8000079
:1007DC0001A9AA1B3044A24228BF22460EF0ECFF0E
:1007EC003019854238BF2846C8F80800002002B0EE
:1007FC005DF8048BF0BD304629460DF0B2FD0A467B
:10080C0040F25001C0F601010DF0A7B90A4640F2C2
:10081C003801C0F601010DF0A0B9C00708BF704740
:10082C000EF07EBBD1E905024FF6E071D368C0F63D
:10083C00000105221847B0B502AF84B0044604305D
:10084C000D460190D1E905010922CB684FF6E571FF
:10085C00C0F6000198478DF80C0040F26140002171
:10086C00C0F600008DF80D104FF6EE71009002A846
:10087C00C0F600010B22234602950DF04AFB40F214
:10088C002D3101ABC0F60001092200914FF6F97130
:10089C00C0F600010DF03DFB9DF80D209DF80C10ED
:1008AC00012A42EA010008BF5FEAC17103D000F0DF
:1008BC00010004B0B0BD0298017F49070CD4D0E907
:1008CC0005010222CB6841F2BF71C0F601019847C5
:1008DC0000F0010004B0B0BDD0E905010122CB68E5
:1008EC0041F2BE71C0F60101984700F0010004B05E
:1008FC00B0BDD1E9050240F26801D368C0F6010130
:10090C000D221847F0B503AF2DE9000F83B0BC687A
:10091C009A469046D4E902B52B465A4600F0EEF8BA
:10092C00A8F120000BF107016843C9080191484365
:10093C0061688142C0F0DE80002D18BFBBF1000F52
:10094C000AD140F618404FF48041C4F20200016015
:10095C0003B0BDE8000FF0BD22682426091A00235D
:10096C0002EB000943F20802C4F20006C4F20102D1
:10097C004FF00708009504E0029B009D0133AB4249
:10098C00DFD001980025029303FB00FE02E0013545
:10099C005D45F1D00EEBD500884280F0AD8019F8A2
:1009AC00000028EA0503D6F800C0D84000F001008A
:1009BC00404200EA0A003368A3EB0C03592B0ED813
:1009CC003368A3EB0C03592B9EBF3368A3EB0C03CA
:1009DC00592B04D83368A3EB0C035A2BEBD31368B5
:1009EC009B0709D413689B075CBF13685FEA83738A
:1009FC0002D413689B07F2D583B21B0A53601368A9
:100A0C00DB0709D11368DB0704BF13685FEAC37304
:100A1C0002D11368DB07F2D013681B0609D51368E3
:100A2C001B0644BF13685FEA036302D513681B06F9
:100A3C00F2D4536833683468E41A592C0BD83468F0
:100A4C00E41A592C9EBF3468E41A592C03D8346824
:100A5C00E41A5A2CEFD333683468E41A592C0BD8A7
:100A6C003468E41A592C9EBF3468E41A592C03D804
:100A7C003468E41A5A2CEFD313689B0709D4136813
:100A8C009B075CBF13685FEA837302D413689B07F0
:100A9C00F2D5C0B250601068C00709D11068C00709
:100AAC0004BF10685FEAC07002D11068C007F2D0B2
:100ABC001068000609D51068000644BF10685FEA8C
:100ACC00006002D510680006F2D4506830683368B4
:100ADC001B1A592B3FF65BAF33681B1A592B9EBF61
:100AEC0033681B1A592B3FF652AF33681B1A5A2B1B
:100AFC00EDD34CE70DF035FC0CF00DFBF0B503AF6E
:100B0C004DF8048D40F6184C4FF00056C4F2020C10
:100B1C0040F2240ECCF800684FF08046CCF8006010
:100B2C00C4F2000EDEF80060A1F10108441EDEF8EC
:100B3C000050AD1B592D0ED8DEF80050AD1B592DB1
:100B4C009EBFDEF80050AD1B592D04D8DEF80050C6
:100B5C00AD1B5A2DEBD3144443F20802C4F201022C
:100B6C001568AD0709D41568AD075CBF15685FEA59
:100B7C00857502D41568AD07F2D52A255560156820
:100B8C00ED0709D11568ED0704BF15685FEAC57557
:100B9C0002D11568ED07F2D015682D0609D5156838
:100BAC002D0644BF15685FEA056502D515682D064C
:100BBC00F2D45568DEF80060DEF80050AD1B592DFC
:100BCC000ED8DEF80050AD1B592D9EBFDEF800503C
:100BDC00AD1B592D04D8DEF80050AD1B5A2DEBD3AC
:100BEC004FF48045CCF800504FF40055CCF8005829
:100BFC004FF08045CCF80050DEF80060DEF8005075
:100C0C00AD1B592D0ED8DEF80050AD1B592D9EBFD3
:100C1C00DEF80050AD1B592D04D8DEF80050AD1B8A
:100C2C005A2DEBD343441568AD0709D41568AD07AD
:100C3C005CBF15685FEA857502D41568AD07F2D5FF
:100C4C00002555601568ED0709D11568ED0704BF3F
:100C5C0015685FEAC57502D11568ED07F2D0156805
:100C6C002D0609D515682D0644BF15685FEA056584
:100C7C0002D515682D06F2D45568DEF80050DEF862
:100C8C000060761B592E0ED8DEF80060761B592EAC
:100C9C009EBFDEF80060761B592E04D8DEF800608B
:100CAC00761B5A2EEBD3DEF80050DEF80060761B74
:100CBC00592E0ED8DEF80060761B592E9EBFDEF83A
:100CCC000060761B592E04D8DEF80060761B5A2E75
:100CDC00EBD31568AD0709D41568AD075CBF156873
:100CEC005FEA857502D41568AD07F2D5C0F3072508
:100CFC0055601568ED0709D11568ED0704BF156837
:100D0C005FEAC57502D11568ED07F2D015682D069E
:100D1C0009D515682D0644BF15685FEA056502D52F
:100D2C0015682D06F2D45568DEF80050DEF8006028
:100D3C00761B592E0ED8DEF80060761B592E9EBFFE
:100D4C00DEF80060761B592E04D8DEF80060761BA6
:100D5C005A2EEBD34FF48045CCF800504FF400558D
:100D6C00CCF800584FF08045CCF80050DEF800501D
:100D7C00DEF80060761B592E0ED8DEF80060761B6C
:100D8C00592E9EBFDEF80060761B592E04D8DEF873
:100D9C000060761B5A2EEBD31568AD0709D4156885
:100DAC00AD075CBF15685FEA857502D41568AD07A1
:100DBC00F2D5002555601568ED0709D11568ED07CA
:100DCC0004BF15685FEAC57502D11568ED07F2D04E
:100DDC0015682D0609D515682D0644BF15685FEA00
:100DEC00056502D515682D06F2D45568DEF800505D
:100DFC00DEF80060761B592E0ED8DEF80060761BEC
:100E0C00592E9EBFDEF80060761B592E04D8DEF8F2
:100E1C000060761B5A2EEBD3DEF80050DEF8006033
:100E2C00761B592E0ED8DEF80060761B592E9EBF0D
:100E3C00DEF80060761B592E04D8DEF80060761BB5
:100E4C005A2EEBD31568AD0709D41568AD075CBFF6
:100E5C0015685FEA857502D41568AD07F2D5C0B286
:100E6C0050601068C00709D11068C00704BF106833
:100E7C005FEAC07002D11068C007F2D0106800069B
:100E8C0009D51068000644BF10685FEA006002D5FF
:100E9C0010680006F2D45068DEF80000DEF800504E
:100EAC002D1A592D0ED8DEF800502D1A592D9EBF33
:100EBC00DEF800502D1A592D04D8DEF800502D1AEA
:100ECC005A2DEBD34FF48040CCF800004FF4005077
:100EDC00CCF800084FF08040CCF80000DEF80000A1
:100EEC00DEF800502D1A592D0ED8DEF800502D1AB0
:100EFC00592D9EBFDEF800502D1A592D04D8DEF85E
:100F0C0000502D1A5A2DEBD31068800709D41068A5
:100F1C0080075CBF10685FEA807002D4106880079D
:100F2C00F2D5002050601068C00709D11068C007C6
:100F3C0004BF10685FEAC07002D11068C007F2D01D
:100F4C001068000609D51068000644BF10685FEAF7
:100F5C00006002D510680006F2D45068DEF800007C
:100F6C00DEF800502D1A592D0ED8DEF800502D1A2F
:100F7C00592D9EBFDEF800502D1A592D04D8DEF8DD
:100F8C0000502D1A5A2DEBD3DEF80000DEF800507D
:100F9C002D1A592D0ED8DEF800502D1A592D9EBF42
:100FAC00DEF800502D1A592D04D8DEF800502D1AF9
:100FBC005A2DEBD31068800709D4106880075CBFEA
:100FCC0010685FEA807002D410688007F2D5C4F311
:100FDC00072050601068C00709D11068C00704BF13
:100FEC0010685FEAC07002D11068C007F2D01068B8
:100FFC00000609D51068000644BF10685FEA00605F
:10100C0002D510680006F2D45068DEF80000DEF855
:10101C0000502D1A592D0ED8DEF800502D1A592DCE
:10102C009EBFDEF800502D1A592D04D8DEF8005062
:10103C002D1A5A2DEBD34FF48040CCF800004FF40E
:10104C000050CCF800084FF08040CCF80000DEF8DF
:10105C000000DEF800502D1A592D0ED8DEF8005085
:10106C002D1A592D9EBFDEF800502D1A592D04D87B
:10107C00DEF800502D1A5A2DEBD31068800709D4D6
:10108C00106880075CBF10685FEA807002D410683B
:10109C008007F2D5002050601068C00709D1106895
:1010AC00C00704BF10685FEAC07002D11068C007A7
:1010BC00F2D01068000609D51068000644BF10680D
:1010CC005FEA006002D510680006F2D45068DEF8C2
:1010DC000000DEF800502D1A592D0ED8DEF8005005
:1010EC002D1A592D9EBFDEF800502D1A592D04D8FB
:1010FC00DEF800502D1A5A2DEBD3DEF80000DEF886
:10110C0000502D1A592D0ED8DEF800502D1A592DDD
:10111C009EBFDEF800502D1A592D04D8DEF8005071
:10112C002D1A5A2DEBD31068800709D4106880074C
:10113C005CBF10685FEA807002D410688007F2D53B
:10114C00E0B250601068C00709D11068C00704BF36
:10115C0010685FEAC07002D11068C007F2D0106846
:10116C00000609D51068000644BF10685FEA0060ED
:10117C0002D510680006F2D45068DEF80000DEF8E4
:10118C000040241A592C0ED8DEF80040241A592C91
:10119C009EBFDEF80040241A592C04D8DEF800401B
:1011AC00241A5A2CEBD34FF48040CCF800004FF0AB
:1011BC000050CCF800084FF08040CCF80000DEF86E
:1011CC000000DEF80040241A592C0ED8DEF800403E
:1011DC00241A592C9EBFDEF80040241A592C04D82E
:1011EC00DEF80040241A5A2CEBD31068800709D47F
:1011FC00106880075CBF10685FEA807002D41068CA
:10120C008007F2D52B2050601068C00709D11068F8
:10121C00C00704BF10685FEAC07002D11068C00735
:10122C00F2D01068000609D51068000644BF10689B
:10123C005FEA006002D510680006F2D45068DEF850
:10124C000000DEF80040241A592C0ED8DEF80040BD
:10125C00241A592C9EBFDEF80040241A592C04D8AD
:10126C00DEF80040241A5A2CEBD34FF48040CCF813
:10127C0000004FF40050CCF800084FF08040CCF840
:10128C000000DEF80000DEF80040241A592C0ED8BD
:10129C00DEF80040241A592C9EBFDEF80040241AB8
:1012AC00592C04D8DEF80040241A5A2CEBD31068C1
:1012BC00800709D4106880075CBF10685FEA8070F3
:1012CC0002D410688007F2D5002050601068C00767
:1012DC0009D11068C00704BF10685FEAC07002D162
:1012EC001068C007F2D01068000609D51068000617
:1012FC0044BF10685FEA006002D510680006F2D4A3
:10130C005068DEF80000DEF80040241A592C0ED884
:10131C00DEF80040241A592C9EBFDEF80040241A37
:10132C00592C04D8DEF80040241A5A2CEBD3DEF8E2
:10133C000000DEF80040241A592C0ED8DEF80040CC
:10134C00241A592C9EBFDEF80040241A592C04D8BC
:10135C00DEF80040241A5A2CEBD31068800709D40D
:10136C00106880075CBF10685FEA807002D4106858
:10137C008007F2D5C1F3072050601068C00709D16F
:10138C001068C00704BF10685FEAC07002D1106813
:10139C00C007F2D01068000609D51068000644BFDB
:1013AC0010685FEA006002D510680006F2D450683D
:1013BC00DEF80000DEF80040241A592C0ED8DEF8B6
:1013CC000040241A592C9EBFDEF80040241A592CD8
:1013DC0004D8DEF80040241A5A2CEBD34FF480408A
:1013EC00CCF800004FF40050CCF800084FF08040CF
:1013FC00CCF80000DEF80000DEF80040241A592C6E
:10140C000ED8DEF80040241A592C9EBFDEF800409E
:10141C00241A592C04D8DEF80040241A5A2CEBD389
:10142C001068800709D4106880075CBF10685FEAF9
:10143C00807002D410688007F2D5002050601068CC
:10144C00C00709D11068C00704BF10685FEAC070FC
:10145C0002D11068C007F2D01068000609D51068D8
:10146C00000644BF10685FEA006002D510680006F1
:10147C00F2D45068DEF80000DEF80040241A592C33
:10148C000ED8DEF80040241A592C9EBFDEF800401E
:10149C00241A592C04D8DEF80040241A5A2CEBD309
:1014AC00DEF80000DEF80040241A592C0ED8DEF8C5
:1014BC000040241A592C9EBFDEF80040241A592CE7
:1014CC0004D8DEF80040241A5A2CEBD3106880079D
:1014DC0009D4106880075CBF10685FEA807002D482
:1014EC0010688007F2D5C8B250601068C00709D1E7
:1014FC001068C00704BF10685FEAC07002D11068A2
:10150C00C007F2D01068000609D51068000644BF69
:10151C0010685FEA006002D510680006F2D45068CB
:10152C00DEF80000DEF80010091A59290ED8DEF892
:10153C000010091A59299EBFDEF80010091A592902
:10154C0004D8DEF80010091A5A29EBD34FF4804066
:10155C00CCF800004FF40050CCF800084FF080405D
:10156C00CCF80000DEF80000DEF80010091A59294A
:10157C000ED8DEF80010091A59299EBFDEF80010AB
:10158C00091A592904D8DEF80010091A5A29EBD384
:10159C001068800709D4106880075CBF10685FEA88
:1015AC00807002D410688007F2D50020506010685B
:1015BC00C00709D11068C00704BF10685FEAC0708B
:1015CC0002D11068C007F2D01068000609D5106867
:1015DC00000644BF10685FEA006002D51068000680
:1015EC00F2D45068DEF80000DEF80010091A592910
:1015FC000ED8DEF80010091A59299EBFDEF800102B
:10160C00091A592904D8DEF80010091A5A29EBD303
:10161C00DEF80000DEF80010091A59290ED8DEF8A1
:10162C000010091A59299EBFDEF80010091A592911
:10163C0004D8DEF80010091A5A29EBD31068800779
:10164C0009D4106880075CBF10685FEA807002D410
:10165C0010688007F2D5C3F3072050601068C007EC
:10166C0009D11068C00704BF10685FEAC07002D1CE
:10167C001068C007F2D01068000609D51068000683
:10168C0044BF10685FEA006002D510680006F2D40F
:10169C005068DEF80000DEF80010091A59290ED83F
:1016AC00DEF80010091A59299EBFDEF80010091A3D
:1016BC00592904D8DEF80010091A5A29EBD34FF433
:1016CC008040CCF800004FF40050CCF800084FF0EC
:1016DC008040CCF80000DEF80000DEF80010091A9B
:1016EC0059290ED8DEF80010091A59299EBFDEF8C8
:1016FC000010091A592904D8DEF80010091A5A29C1
:10170C00EBD31068800709D4106880075CBF1068A1
:10171C005FEA807002D410688007F2D50020506018
:10172C001068C00709D11068C00704BF10685FEAD1
:10173C00C07002D11068C007F2D01068000609D53D
:10174C001068000644BF10685FEA006002D510689C
:10175C000006F2D45068DEF80000DEF80010091A1A
:10176C0059290ED8DEF80010091A59299EBFDEF847
:10177C000010091A592904D8DEF80010091A5A2940
:10178C00EBD3DEF80000DEF80010091A59290ED848
:10179C00DEF80010091A59299EBFDEF80010091A4C
:1017AC00592904D8DEF80010091A5A29EBD310680D
:1017BC00800709D4106880075CBF10685FEA8070EE
:1017CC0002D410688007F2D5D8B250601068C007F8
:1017DC0009D11068C00704BF10685FEAC07002D15D
:1017EC001068C007F2D01068000609D51068000612
:1017FC0044BF10685FEA006002D510680006F2D49E
:10180C005068DEF80000DEF80010091A59290ED8CD
:10181C00DEF80010091A59299EBFDEF80010091ACB
:10182C00592904D8DEF80010091A5A29EBD34FF4C1
:10183C008040CCF800004FF00050CCF800084FF07E
:10184C008040CCF80000DEF80000DEF80010091A29
:10185C0059290ED8DEF80010091A59299EBFDEF856
:10186C000010091A592904D8DEF80010091A5A294F
:10187C00EBD31068800709D4106880075CBF106830
:10188C005FEA807002D410688007F2D52C2050607B
:10189C001068C00709D11068C00704BF10685FEA60
:1018AC00C07002D11068C007F2D01068000609D5CC
:1018BC001068000644BF10685FEA006002D510682B
:1018CC000006F2D45068DEF80000DEF80010091AA9
:1018DC0059290ED8DEF80010091A59299EBFDEF8D6
:1018EC000010091A592904D8DEF80010091A5A29CF
:1018FC00EBD34FF48040CCF800004FF40050CCF800
:10190C0000084FF08040CCF800005DF8048BF0BD6F
:10191C00B0B502AF1C461546FFF7F0F804FB05F016
:10192C00002800F0AA80BA68242343F20805C4F208
:10193C000003C4F2010591B2D2B24FEA112C02E0BD
:10194C00013800F09A801C681968091B59290BD8BA
:10195C001968091B59299EBF1968091B592903D8F5
:10196C001968091B5A29EFD32968890709D42968F2
:10197C0089075CBF29685FEA817102D429688907ED
:10198C00F2D5C5F804C02968C90709D12968C90767
:10199C0004BF29685FEAC17102D12968C907F2D076
:1019AC002968090609D52968090644BF29685FEA30
:1019BC00016102D529680906F2D469681C681968A6
:1019CC00091B59290BD81968091B59299EBF19687D
:1019DC00091B592903D81968091B5A29EFD31C680C
:1019EC001968091B59290BD81968091B59299EBF5D
:1019FC001968091B592903D81968091B5A29EFD3EF
:101A0C002968890709D4296889075CBF29685FEAB6
:101A1C00817102D429688907F2D56A602968C907DF
:101A2C0009D12968C90704BF29685FEAC17102D1CD
:101A3C002968C907F2D02968090609D52968090659
:101A4C0044BF29685FEA016102D529680906F2D40E
:101A5C0069681C681968091B59293FF671AF196828
:101A6C00091B59299EBF1968091B59293FF668AFF4
:101A7C001968091B5A29EDD362E740F618404FF458
:101A8C008041C4F202000160B0BDF0B503AF2DE996
:101A9C00000B82B004460E464FF000090A20214686
:101AAC0064220123CDF80090FFF732FF651CA6F1EC
:101ABC0002080A20012229464346CDF80090FFF780
:101ACC0027FF6D20294601224346CDF80090FFF7F1
:101ADC001FFF30196422411E0A200123CDF800900B
:101AEC00FFF716FF4FF6FF790B20294662220123E0
:101AFC00CDF80090FFF70CFF351FA61C0B20012220
:101B0C0031462B46CDF80090FFF702FF6C20314692
:101B1C0001222B46CDF80090FFF7FAFE08EB0401EA
:101B2C000B2062220123CDF80090FFF7F1FE02B0EA
:101B3C00BDE8000BF0BDF0B503AF2DE9000F83B08D
:101B4C00D0F8FC9440F6B8288246282001EB020B12
:101B5C000C4600EB09150726C0F60108029213E0AB
:101B6C0043EA8112841CCDF80080B52A08BFC1223B
:101B7C00304629464FF6FF73202A38BF7F22FEF7E6
:101B8C00C1FE08365C4523D0204614F9011BB1F187
:101B9C00FF3FCAB2E7DC437802F01F01E02A03F0F2
:101BAC003F03DDD38478F02A04F03F0444EA831326
:101BBC000AD3C27801F00701041D02F03F0242EA89
:101BCC00831242EA8142CEE743EA0132C41CCAE7DF
:101BDC00B9F10F0F9FBF0AEB0900029980F80015AD
:101BEC00DAF8FC049FBF0130CAF8FC0403B0BDE86E
:101BFC00000F98BFF0BD484610210BF08CFAF0B5E1
:101C0C0003AF2DE9000F81B041F2301B8E189246C4
:101C1C00894680460725C0F6010B0C4613E043EAC3
:101C2C008112841CCDF800B0B52A08BFC122284609
:101C3C0007214FF6FF73202A38BF7F22FEF762FE82
:101C4C000835B44223D0204614F9011BB1F1FF3FF3
:101C5C00CAB2E7DC437802F01F01E02A03F03F032D
:101C6C00DDD38478F02A04F03F0444EA83130AD3CA
:101C7C00C27801F00701041D02F03F0242EA831210
:101C8C0042EA8142CEE743EA0132C41CCAE7D8F8E3
:101C9C00D804A0EB0A01002909DD0020CA0000903D
:101CAC004FEACA00073007211023FFF731FEC8F8AE
:101CBC00D494C8F8D8A401B0BDE8000FF0BDD4D4BA
:101CCC00B0B502AF82B00446C8B2DFE810F00C0029
:101CDC00AD0062007B003000C600DF0094001101F3
:101CEC004900F8001700002040F22911009020460E
:101CFC0010221023FFF70CFE02B0B0BD40F6B82541
:101D0C002046C0F6010540F2291191224FF6FF73CF
:101D1C000095FEF7F7FD009504F1080040F229113B
:101D2C0092224FF6FF73FEF7EDFD02B0B0BD40F608
:101D3C00B8252046C0F6010540F229119D224FF628
:101D4C00FF730095FEF7DEFD009504F1080040F2EC
:101D5C0029119E224FF6FF73FEF7D4FD02B0B0BDE1
:101D6C0040F6B8252046C0F6010540F2291195220F
:101D7C004FF6FF730095FEF7C5FD009504F10800C2
:101D8C0040F2291196224FF6FF73FEF7BBFD02B00D
:101D9C00B0BD40F6B8252046C0F6010540F2291129
:101DAC00A9224FF6FF730095FEF7ACFD009504F1E8
:101DBC00080040F22911AA224FF6FF73FEF7A2FD8C
:101DCC0002B0B0BD40F6B8252046C0F6010540F281
:101DDC00291187224FF6FF730095FEF793FD0095AE
:101DEC0004F1080040F2291188224FF6FF73FEF728
:101DFC0089FD02B0B0BD40F6B8252046C0F60105FD
:101E0C0040F229118F224FF6FF730095FEF77AFDF1
:101E1C00009504F1080040F2291190224FF6FF734F
:101E2C00FEF770FD02B0B0BD40F6B8252046C0F6F6
:101E3C00010540F229119B224FF6FF730095FEF726
:101E4C0061FD04F1080040F229119C2200954FF627
:101E5C00FF73FEF757FD02B0B0BD40F6B825204623
:101E6C00C0F6010540F2291197224FF6FF73009539
:101E7C00FEF748FD009504F1080040F22911982264
:101E8C004FF6FF73FEF73EFD02B0B0BD40F6B8252D
:101E9C002046C0F6010540F22911A7224FF6FF7328
:101EAC000095FEF72FFD009504F1080040F2291172
:101EBC00A8224FF6FF73FEF725FD02B0B0BD40F629
:101ECC00B8252046C0F6010540F22911B7224FF67D
:101EDC00FF730095FEF716FD009504F1080040F223
:101EEC002911B8224FF6FF73FEF70CFD02B0B0BDFE
:101EFC0040F6B8252046C0F6010540F22911AF2264
:101F0C004FF6FF730095FEF7FDFC009504F10800F9
:101F1C0040F22911B0224FF6FF73FEF7F3FC02B02A
:101F2C00B0BDF0B503AF4DF8048DD0F8D044002C03
:101F3C0058D0D0F8CC540E46804609782878814287
:101F4C0002D0EF20FFF7BCFE012C4FD071786878DF
:101F5C0081421CBF4FF48770FFF7B2FE022C49D0B0
:101F6C00B178A87881421CBF40F22D10FFF7A8FE73
:101F7C00032C43D0F178E87881421CBF4FF4A67053
:101F8C00FFF79EFE042C3DD03179287981421CBF8D
:101F9C0040F26B10FFF794FE052C37D071796879FD
:101FAC0081421CBF4FF4C570FFF78AFE062C31D05E
:101FBC00B179A87981421CBF40F2A910FFF780FECD
:101FCC00072C2BD0F179E87981421CBF4FF4E470D7
:101FDC00FFF776FE0820C8F8CC64C8F8D0045DF88A
:101FEC00048BF0BD002021460BF095F80120214612
:101FFC000BF091F8022021460BF08DF803202146BE
:10200C000BF089F8042021460BF085F805202146B9
:10201C000BF081F8062021460BF07DF807202146B5
:10202C000BF079F8F0B503AF2DE9000F89B00D4630
:10203C004CF670010446405C04EB0109DFE810F03B
:10204C006902B702330007000700070007002046AB
:10205C0000F089FC89F80050E8B2DFE810F00700C6
:10206C007A03B20045020F00B903CE03204609B033
:10207C00BDE8000FBDE8F04002F0D9BC41F27C4154
:10208C002046C0F601010B22FFF7B9FD41F2C84111
:10209C002046C0F60101042209B0BDE8000FBDE8DE
:1020AC00F04000F0D1BC00262C202E212022102341
:1020BC000096FFF72DFC0A202921642202230096AA
:1020CC00FFF726FC0A202B21022216230096FFF78D
:1020DC001FFC6C202B21022216230096FFF718FC04
:1020EC000A204121642202230096FFF711FC3020C4
:1020FC005221182210230096FFF70AFC0A204D21CA
:10210C00642202230096FFF703FC0A204F210222CF
:10211C0016230096FFF7FCFB6C204F21022216239E
:10212C000096FFF7F5FB0A20652164220223009636
:10213C00FFF7EEFB30207621182210230096FFF7D4
:10214C00E7FB0A207121642202230096FFF7E0FBD3
:10215C000A207321022216230096FFF7D9FB6C206C
:10216C007321022216230096FFF7D2FB0A20892145
:10217C00642202230096FFF7CBFB20209A21382201
:10218C0010230096FFF7C4FB0A209521642202233A
:10219C000096FFF7BDFB0A2097210222162300961A
:1021AC00FFF7B6FB6C209721022216230096FFF74F
:1021BC00AFFB0A20AD21642202230096FFF7A8FB97
:1021CC0048E741F204712046C0F601011722FFF7DF
:1021DC0016FD41F274112046C0F60101FFF7A1FE75
:1021EC002426D4F8EC0443F208040025C4F20006BB
:1021FC00C4F201044FF0070B4FF0010902902AE0E2
:10220C0040F21F4A0A20642202234FEA8C08CDF8C0
:10221C0000A0FFF77DFB08F12B050A2002221623F4
:10222C002946CDF800A0FFF773FBCDF800A0294696
:10223C006C2002221623039DFFF76AFB08F1410173
:10224C000A2064220223CDF800A0FFF761FB0135C0
:10225C00042D00F0458141F2E46005EBC50CC0F69D
:10226C000100039500EBC5004168002900F02881AE
:10227C00039841F2E462C0F6010252F830004218B1
:10228C0004922E22034602EB8C0206924FF6FC724D
:10229C00CDF814C0C7F6FF7202EA8101C1F13C020D
:1022AC0010E040F618404FF48041C4F20200016087
:1022BC00089A079B04980832DDF814C0834218462C
:1022CC0000F0FE8013F9011BB1F1FF3FCDB21FDC12
:1022DC00417805F01F0EE02D01F03F0111D38378FA
:1022EC00F02D03F03F0343EA81110ED3C37803F0C2
:1022FC003F0343EA81130EF0070143EA8145031DB6
:10230C0006E041EA8E15831C02E041EA0E35C31C3F
:10231C00CDE907321046069908221023FEF7EEFB92
:10232C004FF60060B52DCFF6FF7008BFC12500EB4E
:10233C000510202D38BF4FF4BE60B0F5C06F00F211
:10234C00738240F62F314FF0000EC0F6010101EB05
:10235C00000CC0F5C06104E00EF1010EBEF1100FCF
:10236C009FD0002502E00135082DF5D00EEBD500ED
:10237C00884280F057821CF800A02BEA05023368D3
:10238C00D6F80080A8EB030059280BD83068C01A87
:10239C0059289EBF3068C01A592803D83068C01A13
:1023AC005A28EDD309FA02F22068800709D4206874
:1023BC0080075CBF20685FEA807002D420688007C9
:1023CC00F2D51AEA020018BFFF2060602268D2071B
:1023DC0009D12268D20704BF22685FEAC27202D117
:1023EC002268D207F2D02268120609D5226812069A
:1023FC0044BF22685FEA026202D522681206F2D458
:10240C006268326833689B1A592B0BD833689B1A55
:10241C00592B9EBF33689B1A592B03D833689B1AD0
:10242C005A2BEFD3326833689B1A592B0BD833686D
:10243C009B1A592B9EBF33689B1A592B03D83368B0
:10244C009B1A5A2BEFD32268920709D42268920761
:10245C005CBF22685FEA827202D422689207F2D5CE
:10246C0060602068C00709D12068C00704BF2068DD
:10247C005FEAC07002D12068C007F2D02068000665
:10248C0009D52068000644BF20685FEA006002D5C9
:10249C0020680006F2D4606830683268121A592A33
:1024AC003FF661AF3268121A592A9EBF3268121A6F
:1024BC00592A3FF658AF3268121A5A2AEDD352E70E
:1024CC00292000EB8C01DDE9020585423FF498AE32
:1024DC0008461A21FFF7D9FA0135042D7FF4BBAE5B
:1024EC0009B0BDE8000FF0BD41F270412046C0F6C6
:1024FC0001010C22FFF783FB41F2D4312046C0F6D8
:10250C000101062209B0BDE8000FBDE8F04000F063
:10251C009BBA0026012020214FF4F0721023009664
:10252C00FFF7F6F900201E2120224FF4827300964B
:10253C00FFF7EEF91A204FF4957130221023009614
:10254C00FFF7E6F92046002101F0B4FB40F2C11080
:10255C00002101221E230096FFF7DAF94FF4C57013
:10256C000721102210230096FFF7D2F94FF4D170F7
:10257C00002101221E230096FFF7CAF940F2A91090
:10258C000721102210230096FFF7C2F940F28310A6
:10259C00002101221E230096FFF7BAF94FF4E470D4
:1025AC000721102210230096FFF7B2F952E5D4F858
:1025BC00FC84B8F1000F00F0C88094F800050026E8
:1025CC00282110230096C2000720FFF7A1F9B8F1CB
:1025DC00010F00F0BA8094F8010538211023009601
:1025EC00C2000720FFF794F9B8F1020F00F0AD809C
:1025FC0094F80205482110230096C2000720FFF72B
:10260C0087F9B8F1030F00F0A08094F80305582166
:10261C0010230096C2000720FFF77AF9B8F1040FD7
:10262C0000F0938094F80405682110230096C200F2
:10263C000720FFF76DF9B8F1050F00F0868094F8CC
:10264C000505782110230096C2000720FFF760F9DA
:10265C00B8F1060F79D094F806058821102300965E
:10266C00C2000720FFF754F9B8F1070F6DD094F8AA
:10267C000705982110230096C2000720FFF748F9A0
:10268C00B8F1080F61D094F80805A8211023009622
:10269C00C2000720FFF73CF9B8F1090F55D094F8A8
:1026AC000905B82110230096C2000720FFF730F966
:1026BC00B8F10A0F49D094F80A05C82110230096E6
:1026CC00C2000720FFF724F9B8F10B0F3DD094F8A6
:1026DC000B05D82110230096C2000720FFF718F92C
:1026EC00B8F10C0F31D094F80C05E82110230096AA
:1026FC00C2000720FFF70CF9B8F10D0F25D094F8A4
:10270C000D05F82110230096C2000720FFF700F9F1
:10271C00B8F10E0F19D094F80E054FF484711023F4
:10272C000096C2000720FFF7F3F8B8F10F0F0CD09A
:10273C0094F80F054FF48C7110230096C2000720FB
:10274C00FFF7E6F8B8F1100F72D10020C4F8FC04C2
:10275C0080E441F28C112046C0F60101FFF7E1FB49
:10276C0041F2EC312046C0F601010522FFF747FA91
:10277C0041F2F1312046C0F601011D22FFF7DBF9D1
:10278C0041F20E412046C0F601013222FFF7D3F987
:10279C00D4F8FC0410283FBF2044002180F8001519
:1027AC00D4F8FC043FBF0130C4F8FC0441F24041B2
:1027BC00C0F601013FBF20461D2209B0BDE8000F45
:1027CC003CBFBDE8F040FFF7B6B910210AF0A3FCFE
:1027DC0041F214512046C0F601010F22FFF70FFA07
:1027EC0041F23C512046C0F60101012209B0BDE87E
:1027FC00000FBDE8F04000F027B941F2D841204667
:10280C00C0F601010B22FFF7FAF941F20C512046F8
:10281C00C0F60101022209B0BDE8000FBDE8F0408E
:10282C0000F012B90AF077FC4FF4C0610BF099FD7F
:10283C00102010210AF06FFCF0B503AF2DE9000B4E
:10284C0082B00B460246D0F8E014D0F8F00488426F
:10285C007ED208287ED2D2F8DC14DBB251F82010DC
:10286C000E687168994278D9024492F8F424914226
:10287C0076D9316800EB8000357A01EBC30301EBAC
:10288C00C20674685B6851F832604FF03B0202EB91
:10289C00C008A3EB04004FEAC4014FEAC0022DB1FB
:1028AC00C1F16C05002A0CDDA81A04E0002A48DDF1
:1028BC0001F10C000C250021102300914146FFF77B
:1028CC0027F8002C40D040F6B8293444C0F6010952
:1028DC0013E043EA8112861CCDF80090B52A08BF9C
:1028EC00C122284641464FF6FF73202A38BF7F226B
:1028FC00FEF708F80835A64226D0304616F9011B1B
:10290C00B1F1FF3FCAB2E7DC437802F01F01E02AC5
:10291C0003F03F03DDD38678F02A06F03F0646EA43
:10292C0083130AD3C27801F00701061D02F03F029F
:10293C0042EA831242EA8142CEE743EA0132C61CE4
:10294C00CAE70C25002CBED102B0BDE8000BF0BDCF
:10295C000AF0E1FB08210AF0DEFB18460AF0DBFB6B
:10296C0010460AF0D8FBF0B503AF2DE9000F81B08B
:10297C00D0F8E01400295FD0D0F8DC8400F2F446E3
:10298C004FEA81094B244FF0000A58F8040BA4F1CC
:10299C0022011023D0F800B08068CDF800A0C2004E
:1029AC000A20FEF7B5FFA4F112010A2064220223CB
:1029BC00CDF800A0FEF7ACFFA4F110050A2002220E
:1029CC0010232946CDF800A0FEF7A2FF6C20294663
:1029DC0002221023CDF800A0FEF79AFF0A20214610
:1029EC0064220223CDF800A0FEF792FF40F28B1078
:1029FC00844225D0DBF804103078814222D9DBF8F0
:102A0C00001010239BF8082001EBC000002A4FF0A7
:102A1C006C0241684FF00C00CDF800A018BFA2EB7F
:102A2C00C100CA002946FEF773FFB9F1040904F18D
:102A3C00280406F10106A8D101B0BDE8000FF0BDD5
:102A4C00082008210AF067FBF0B503AF2DE9000F51
:102A5C008BB00D46C0F8DC1441F29C110646C0F850
:102A6C00E0240020C6F8F004C0F6010130461446FC
:102A7C00FFF757FA05EB8400242443F20808019071
:102A8C0006F2F4400390D6F8F004C4F20004C4F249
:102A9C0001084FF007094FF0010A0022029007E0ED
:102AAC00049D079A019804350132854200F0B382E7
:102ABC00082A00F0B8822B6800200399049507922D
:102ACC00885402EB82009968CDE90503002900F0D7
:102ADC00308106982922059B4FF00A0B406802EBC7
:102AEC00C30209920144089102460EE040F61840D8
:102AFC004FF48041C4F202000BF1080B01600A9AFA
:102B0C0008988242104600F0148112F9011BB1F1B1
:102B1C00FF3FCDB21FDC427805F01F01E02D02F023
:102B2C003F0211D38378F02D03F03F0343EA821266
:102B3C000ED3C37801F0070103F03F0343EA82127E
:102B4C0042EA8145021D06E042EA8115821C02E040
:102B5C0042EA0135C21C099958460A9208221023F0
:102B6C00FDF7CCFF4FF60060B52DCFF6FF7008BF18
:102B7C00C12500EB0510202D38BF4FF4BE60B0F519
:102B8C00226F00F24C8240F298010023C0F6010142
:102B9C0001EB000CC0F5226102E00133102BA5D033
:102BAC00002502E00135082DF7D003EBD500884253
:102BBC0080F02F821CF8000029EA050226680AFA28
:102BCC0002F210402268921B592A0BD82268921BE1
:102BDC00592A9EBF2268921B592A03D82268921B3D
:102BEC005A2AEFD3D8F8002092070CD4D8F800203A
:102BFC0092075CBFD8F800205FEA827203D4D8F841
:102C0C0000209207EED5002818BFFF20C8F804005A
:102C1C00D8F80020D2070CD1D8F80020D20704BF76
:102C2C00D8F800205FEAC27203D1D8F80020D2078E
:102C3C00EED0D8F8002012060CD5D8F800201206D9
:102C4C0044BFD8F800205FEA026203D5D8F8002010
:102C5C001206EED4D8F8042026682268921B592A52
:102C6C000BD82268921B592A9EBF2268921B592AA4
:102C7C0003D82268921B5A2AEFD326682268921B2B
:102C8C00592A0BD82268921B592A9EBF2268921B84
:102C9C00592A03D82268921B5A2AEFD3D8F800205D
:102CAC0092070CD4D8F8002092075CBFD8F800200B
:102CBC005FEA827203D4D8F800209207EED5C8F8E8
:102CCC000400D8F80000C0070CD1D8F80000C007E9
:102CDC0004BFD8F800005FEAC07003D1D8F8000038
:102CEC00C007EED0D8F8000000060CD5D8F80000CC
:102CFC00000644BFD8F800005FEA006003D5D8F89E
:102D0C0000000006EED4D8F8040020682268121ADD
:102D1C00592A3FF647AF2268121A592A9EBF2268D9
:102D2C00121A592A3FF63EAF2268121A5A2AEDD3CC
:102D3C0038E70598079AC600029806F139019042C7
:102D4C0024D140F21F4B0A2064220223CDF800B09C
:102D5C00FEF7DEFD06F13B050A2002221023294670
:102D6C00CDF800B0FEF7D4FD6C20294602221023CA
:102D7C00CDF800B0FEF7CCFD06F14B010A20642221
:102D8C000223CDF800B0FEF7C3FD03E00846142182
:102D9C00FEF77BFE069801684868002800F0478122
:102DAC0008684268002A3FF47BAE006806F13B03DA
:102DBC00097A4FF00C0B09938318002908934FF0F4
:102DCC006C0118BFA1EBC20B02460EE040F6184096
:102DDC004FF48041C4F202000BF1080B01600A9A17
:102DEC000898824210463FF45BAE12F9011BB1F118
:102DFC00FF3FCDB21FDC427805F01F01E02D02F041
:102E0C003F0211D38378F02D03F03F0343EA821283
:102E1C000ED3C37801F0070103F03F0343EA82129B
:102E2C0042EA8145021D06E042EA8115821C02E05D
:102E3C0042EA0135C21C099958460A92082210230D
:102E4C00FDF75CFE4FF60060B52DCFF6FF7008BFA6
:102E5C00C12500EB0510202D38BF4FF4BE60B0F536
:102E6C00226F00F2DC8040F298010023C0F60101D1
:102E7C0001EB000CC0F5226102E00133102BA5D050
:102E8C00002502E00135082DF7D003EBD500884270
:102E9C0080F0BF801CF8000029EA050226680AFAB7
:102EAC0002F210402268921B592A0BD82268921BFE
:102EBC00592A9EBF2268921B592A03D82268921B5A
:102ECC005A2AEFD3D8F8002092070CD4D8F8002057
:102EDC0092075CBFD8F800205FEA827203D4D8F85E
:102EEC0000209207EED5002818BFFF20C8F8040078
:102EFC00D8F80020D2070CD1D8F80020D20704BF94
:102F0C00D8F800205FEAC27203D1D8F80020D207AB
:102F1C00EED0D8F8002012060CD5D8F800201206F6
:102F2C0044BFD8F800205FEA026203D5D8F800202D
:102F3C001206EED4D8F8042026682268921B592A6F
:102F4C000BD82268921B592A9EBF2268921B592AC1
:102F5C0003D82268921B5A2AEFD326682268921B48
:102F6C00592A0BD82268921B592A9EBF2268921BA1
:102F7C00592A03D82268921B5A2AEFD3D8F800207A
:102F8C0092070CD4D8F8002092075CBFD8F8002028
:102F9C005FEA827203D4D8F800209207EED5C8F805
:102FAC000400D8F80000C0070CD1D8F80000C00706
:102FBC0004BFD8F800005FEAC07003D1D8F8000055
:102FCC00C007EED0D8F8000000060CD5D8F80000E9
:102FDC00000644BFD8F800005FEA006003D5D8F8BB
:102FEC0000000006EED4D8F8040020682268121AFB
:102FFC00592A3FF647AF2268121A592A9EBF2268F7
:10300C00121A592A3FF63EAF2268121A5A2AEDD3E9
:10301C0038E70AF080F80BB0BDE8000FF0BD4FF4B4
:10302C0022610BF09EF9082008210AF074F80020A8
:10303C0000210AF070F8D4D4F0B503AF2DE90007E5
:10304C0082B04FF0FF3252FA81F1052943D8DFE804
:10305C0001F0035C469A42B7D0F8F0544FF0390AAD
:10306C00D0F8E044804605EB85010AEBC101084627
:10307C001421FEF70AFD40F21F49002DCDF80090F7
:10308C0018BF2C46661E0A206422022306EB860516
:10309C000AEBC501FEF73CFC3B2000EBC5040A2003
:1030AC00022221461023CDF80090FEF731FC6C2053
:1030BC00214602221023CDF80090FEF729FC4B206C
:1030CC0000EBC5010A2064220223CDF80090FEF724
:1030DC001FFCC8F8F06402B0BDE80007F0BDD0F8E2
:1030EC00F024072A74D8D0F8E0148A4274D2D0F8AD
:1030FC00DC6400F2F443995C56F8226000293668CF
:10310C00367918BF0E46013E52E0D0F8E0144FF06D
:10311C003908D0F8F0240139541A4FF0140118BFB3
:10312C00541CC0F8F04402EB820008EBC000FEF720
:10313C00ACFC04EB840640F21F450A20642208EB29
:10314C00C60102230095FEF7E3FB3B2000EBC6040F
:10315C000A200222214610230095FEF7D9FB6C2091
:10316C002146022210230095FEF7D2FB4B2000EBE8
:10317C00C6010A20642202230095FEF7C9FB02B0A7
:10318C00BDE80007F0BDD0F8F024072A20D8D0F80D
:10319C00E0148A4220D2D0F8DC6400F2F443995C4B
:1031AC0056F8226036687668013E761A18BF4E1CB7
:1031BC009E5402B0BDE80007BDE8F040FFF73CBBF1
:1031CC00022102B0BDE80007BDE8F040FEF72ABFBF
:1031DC001046082109F09FFF104609F09CFFF0B53E
:1031EC0003AF2DE9000F83B0242443F2080541F20C
:1031FC005D4C4FF00009C4F20004C4F20105C0F6A6
:10320C00010C4FF0070B4FF00108002103E000996F
:10321C00052900F04B8201EB81004FF0C80A4042B7
:10322C000023013100910AEB4000019010E040F6C0
:10323C0018404FF48041C4F2020041F25D4C016031
:10324C000AF1080A029BC0F6010C132B00F00C814A
:10325C001CF90310581CB1F1FF3FCEB201DD0290F6
:10326C0025E01CF800009A1CE02E00F03F0106F04F
:10327C001F0016D31CF80220F02E02F03F0242EA87
:10328C00811103F103020FD31CF8022000F0070098
:10329C000433029302F03F0242EA811141EA804674
:1032AC0005E041EA801601E041EA003602920199FC
:1032BC00504608221023FDF721FC4FF60060B52E76
:1032CC00CFF6FF7008BFC12600EB0610202E38BFCA
:1032DC004FF4BE60B0F5C06F00F2E48140F62F31C0
:1032EC004FF0000EC0F6010101EB000CC0F5C061FF
:1032FC0004E00EF1010EBEF1100F98D0002602E092
:10330C000136082EF5D00EEBD600884280F0C8812D
:10331C001CF800002BEA0603226808FA03F3184095
:10332C0023689B1A592B0BD823689B1A592B9EBFC9
:10333C0023689B1A592B03D823689B1A5A2BEFD35B
:10334C002A68920709D42A6892075CBF2A685FEA48
:10335C00827202D42A689207F2D50246002818BF5E
:10336C004FF4E0624FEA12226A6018BF4FF4FC601F
:10337C002A68D20709D12A68D20704BF2A685FEAF3
:10338C00C27202D12A68D207F2D02A68120609D575
:10339C002A68120644BF2A685FEA026202D52A68CC
:1033AC001206F2D46A68226823689B1A592B0BD830
:1033BC0023689B1A592B9EBF23689B1A592B03D841
:1033CC0023689B1A5A2BEFD3226823689B1A592B1C
:1033DC000BD823689B1A592B9EBF23689B1A592B19
:1033EC0003D823689B1A5A2BEFD32A68920709D467
:1033FC002A6892075CBF2A685FEA827202D42A6844
:10340C009207F2D500F0E00068602868C00709D187
:10341C002868C00704BF28685FEAC07002D128681A
:10342C00C007F2D02868000609D52868000644BFFA
:10343C0028685FEA006002D528680006F2D4686844
:10344C0020682268121A592A3FF65AAF2268121ABB
:10345C00592A9EBF2268121A592A3FF651AF226888
:10346C00121A5A2AEDD34BE720684AF62022C0F2F2
:10347C0044022168091A91420BD22168091A91421F
:10348C003EBF2168091A914203D22168091A914260
:10349C00EFD300234FF0C80A0CE040F618404FF46D
:1034AC008041C4F202000AF1080A0160029B132B4E
:1034BC003FF4ADAE1CF90310581CB1F1FF3FCEB276
:1034CC0001DD029025E01CF800009A1CE02E00F0B3
:1034DC003F0106F01F0016D31CF80220F02E02F05C
:1034EC003F0242EA811103F103020FD31CF80220C0
:1034FC0000F007000433029302F03F0242EA81110C
:10350C0041EA804605E041EA801601E041EA0036D6
:10351C0002920199504608221023FDF7EFFA4FF65C
:10352C000060B52ECFF6FF7008BFC12600EB061069
:10353C00202E38BF4FF4BE60B0F5C06F00F2B280E1
:10354C0041F25D4CC0F5C0610022C0F6010C02E0F6
:10355C000132102AA1D0002302E00133082BF7D04E
:10356C0002EBD300884280F09B8020682668361AD4
:10357C00592E0BD82668361A592E9EBF2668361A35
:10358C00592E03D82668361A5A2EEFD3286880078E
:10359C0009D4286880075CBF28685FEA807002D471
:1035AC0028688007F2D5C5F804902868C00709D1AF
:1035BC002868C00704BF28685FEAC07002D1286879
:1035CC00C007F2D02868000609D52868000644BF59
:1035DC0028685FEA006002D528680006F2D46868A3
:1035EC0020682668361A592E0BD82668361A592E9A
:1035FC009EBF2668361A592E03D82668361A5A2EBC
:10360C00EFD320682668361A592E0BD82668361A3E
:10361C00592E9EBF2668361A592E03D82668361A9C
:10362C005A2EEFD32868800709D4286880075CBF1E
:10363C0028685FEA807002D428688007F2D5C5F844
:10364C0004902868C00709D12868C00704BF2868FF
:10365C005FEAC07002D12868C007F2D02868000663
:10366C0009D52868000644BF28685FEA006002D5C7
:10367C0028680006F2D4686820682668361A592E25
:10368C003FF66BAF2668361A592E9EBF2668361A3F
:10369C00592E3FF662AF2668361A5A2EEDD35CE7E8
:1036AC0009F039FD4FF4C0610AF05BFE03B0BDE8D0
:1036BC00000FF0BDF0B503AF4DF8048DA6B000219E
:1036CC001428CDE90311CDE9011107914FF0100138
:1036DC00069101A9059100F2AA8041F24051C0F671
:1036EC00010101EBC000017931B101290BD141F28B
:1036FC00FE51C0F6010103E041F2FC51C0F601019C
:10370C001391022105E041F20061C0F60101139111
:10371C00032140F255421491C0F60002002112928E
:10372C0013AA11924DF22B12C0F600022023CDE900
:10373C000F0203208DF890000122CDE9171015A877
:10374C000C9041F2EC50C0F60100239108900FA8A8
:10375C000A9005A8229202268DF8702008AA1B91C7
:10376C00CDE9193140F25001C0F6010121931F96A9
:10377C001D9615960D9609960B960AF0EEF90028F3
:10378C0058D1DDE906128A424ED8059915A80AF0DF
:10379C00AAFA1598012855D01798002840D0169EE3
:1037AC0040F6B8281A24C0F60108351814E043EA8C
:1037BC008112861CCDF80080B52A08BFC122204694
:1037CC004FF495714FF6FF73202A38BF7F22FDF717
:1037DC0099F80834AE4223D0304616F9011BB1F1EA
:1037EC00FF3FCAB2E6DC437802F01F01E02A03F087
:1037FC003F03DCD38678F02A06F03F0646EA8313B3
:10380C000AD3C27801F00701061D02F03F0242EA1A
:10381C00831242EA8142CDE743EA0132C61CC9E772
:10382C0026B05DF8048BF0BD10460AF09AFD152108
:10383C0009F071FC40F27801A7F11100C0F601010A
:10384C000AF055FD41F21C7108A8C0F601010AF0FE
:10385C004EFDD4D4F0B503AF2DE9000F8BB040F67C
:10386C00B8250446C0F601051020322130224FF64F
:10387C00FF7300954FF6FF76FDF744F800203221D8
:10388C00202201230096FEF743F81020502131220C
:10389C004FF6FF730095FDF735F8002050212022DC
:1038AC0001230096FEF734F810206E2132224FF6D9
:1038BC00FF730095FDF726F800206E2120220123CE
:1038CC000096FEF725F810208C2133224FF6FF735B
:1038DC000095FDF717F800208C212022012300967B
:1038EC00FEF716F81020AA2134224FF6FF7300952C
:1038FC00FDF708F80020AA21202201230096FEF7EC
:10390C0007F81020C82135224FF6FF730095FCF7FD
:10391C00F9FF0020C821202201230096FDF7F8FFB3
:10392C001020E62136224FF6FF730095FCF7EAFFD4
:10393C000020E621202201230096FDF7E9FF10204C
:10394C004FF4827137224FF6FF730095FCF7DAFFC4
:10395C0000204FF48271202201230096FDF7D8FF3E
:10396C0041F22860C0F6010002902068DFE810F0F8
:10397C008901140005000F000A0041F24460C0F6F2
:10398C00010008E041F27C60C0F6010003E041F266
:10399C006060C0F60100029002980169201D05903C
:1039AC0088470028049000F06C81029840F2240BA8
:1039BC0043F2080A0021C4F2000BC4F2010A406968
:1039CC004FF007084FF00109039005E006990498A1
:1039DC000131814200F055810598039A0691904778
:1039EC00002800F062810C46481CEFD002988269D6
:1039FC00DDE905019047002800F057810029E5D04A
:103A0C0001440791C4EB04113E22002602EB410154
:103A1C00024608910DE040F618404FF48041C4F284
:103A2C00020001600A9E099A0798083682421046E5
:103A3C00CCD012F9011BB1F1FF3FCDB21FDC4278A3
:103A4C0005F01F01E02D02F03F0211D38378F02D19
:103A5C0003F03F0343EA82120ED3C37801F007014F
:103A6C0003F03F0343EA821242EA8145021D06E05D
:103A7C0042EA8115821C02E042EA0135C21C089917
:103A8C003046CDE9092608221023FDF737F84FF60A
:103A9C000060B52DCFF6FF7008BFC12500EB0510F7
:103AAC00202D38BF4FF4BE60B0F5226F00F2F980C4
:103ABC0040F298010023C0F6010101EB000CC0F5A7
:103ACC00226102E00133102BA5D0002502E0013564
:103ADC00082DF7D003EBD500884280F0E0801CF86D
:103AEC00000028EA0506DBF80040DBF80020121B7A
:103AFC00592A0ED8DBF80020121B592A9EBFDBF87E
:103B0C000020121B592A04D8DBF80020121B5A2A59
:103B1C00EBD309FA06F6DAF8002092070CD4DAF89F
:103B2C00002092075CBFDAF800205FEA827203D4AF
:103B3C00DAF800209207EED5304018BFFF20CAF803
:103B4C000400DAF80020D2070CD1DAF80020D207F2
:103B5C0004BFDAF800205FEAC27203D1DAF8002061
:103B6C00D207EED0DAF8002012060CD5DAF80020D5
:103B7C00120644BFDAF800205FEA026203D5DAF8D5
:103B8C0000201206EED4DAF80420DBF80060DBF833
:103B9C000020921B592A0ED8DBF80020921B592AC0
:103BAC009EBFDBF80020921B592A04D8DBF80020BA
:103BBC00921B5A2AEBD3DBF80060DBF80020921B37
:103BCC00592A0ED8DBF80020921B592A9EBFDBF82D
:103BDC000020921B592A04D8DBF80020921B5A2A89
:103BEC00EBD3DAF8002092070CD4DAF80020920715
:103BFC005CBFDAF800205FEA827203D4DAF80020A6
:103C0C009207EED5CAF80400DAF80000C0070CD110
:103C1C00DAF80000C00704BFDAF800005FEAC070F1
:103C2C0003D1DAF80000C007EED0DAF80000000685
:103C3C000CD5DAF80000000644BFDAF800005FEAA1
:103C4C00006003D5DAF800000006EED4DAF80400C0
:103C5C00DBF80000DBF80020121A592A3FF637AFC8
:103C6C00DBF80020121A592A9EBFDBF80020121A2A
:103C7C00592A3FF62CAFDBF80020121A5A2AE9D346
:103C8C0025E74FF6FF701E2100901F2001224FF4F4
:103C9C008273FDF73DFE0BB0BDE8000FF0BD09F0DF
:103CAC003AFA4FF422610AF05CFB0AF062FBD4D4BE
:103CBC00D4D4D4D4F0B503AF2DE9000F81B02DEDE1
:103CCC00068BADF5227D05464CF660002C58284439
:103CDC000E460290D0E9010105900F910CF07EF890
:103CEC00002CCDE9036500F00F8381464AF2501099
:103CFC0028440C9005F5A2600D90B0B28846050AD8
:103D0C00F0B20890A4F1010B0F980CF067F84A463A
:103D1C004346CDF87090CDF86C800BF0C0FE40F2AD
:103D2C00240943F2080A9FED9D8BC4F200099FED14
:103D3C009D9BC4F2010A9FED9DABCDE919100020AB
:103D4C000790CDF818B0099507E00798DDF818B082
:103D5C0001300790082800F0D782BBF1000F2ED459
:103D6C00059E00210D9D5A460024501842F20F73F7
:103D7C0000EBD0704010984200F23A8655F8203093
:103D8C00B34296BF411C421E04469142EDDD002118
:103D9C005A46501842F20F7300EBD0704010984204
:103DAC0000F2268655F820300F9EB34232BF411CDC
:103DBC00421E83469142ECDD5C45C6D800E00024EF
:103DCC00079A3221C2EB021001EB40000E900C98C6
:103DDC000D99005D51F82430D1B2012202FA01F1A3
:103DEC0008400A91214618BF01201E90CDF82CB036
:103DFC005C4538BF013142F21070844280F0FC8582
:103E0C0018461791A3460BF0E9FFDDE91B320BF0C6
:103E1C0046FE53EC182BCDE914230BF050FEDDE9D4
:103E2C0019320BF0D1F854EC198BCDF84080424686
:103E3C0023460BF0AFFAB0EE491AF0EE691A41ECDA
:103E4C00100B0BF09EF8B0EE481AF0EE681A0BF05F
:103E5C0075F855EC106B0C9842462346A04610F8AA
:103E6C000B00169012961395304629460BF06AFCFF
:103E7C001190304629460BF0ECFD04460D98CDF818
:103E8C0060B050F82B001D900BF0A8FFDDE91B3241
:103E9C000BF005FEDDE914230BF011FEDDE9193200
:103EAC000BF092F8DDF840B0434645465A460BF00D
:103EBC0071FAB0EE491AF0EE691A41EC100B0BF0E6
:103ECC0060F8B0EE481AF0EE681A0BF037F853ECC5
:103EDC001A2B119858EC106B0028CDE9142308BF4D
:103EEC000446DDE912010BF0A5FF002830464146DF
:103EFC005A462B4618BF4FF0FF340BF023FC0546F7
:103F0C00304641460BF0A5FD8346002D08BFAB465D
:103F1C00DDE9142341463046DDF824800BF08AFF9E
:103F2C00002818BF4FF0FF3B1E98ABEB0406751C26
:103F3C000E990123CDF854B0C0072A4604F1200095
:103F4C0008BF1431FCF7DAFD0A98169908400446AC
:103F5C0018BF0124B542089E2ED240F618414FF4EA
:103F6C008042C4F2020100280A6018BF01200F9998
:103F7C001D9BDDF82CB09942C0F0BB811E994840C6
:103F8C00C00700F0B681159801220E991423203039
:103F9C001425FCF7B3FDDBE000BF00BF0000000000
:103FAC0000F07B4000000000000000000000E0FF7B
:103FBC00FFFFEF41013DD0D0D9F80010D9F8002017
:103FCC00521A592A0ED8D9F80020521A592A9EBFD3
:103FDC00D9F80020521A592A04D8D9F80020521ABC
:103FEC005A2AEBD3DAF8001089070CD4DAF800104F
:103FFC0089075CBFDAF800105FEA817103D4DAF844
:10400C0000108907EED5CAF80480DAF80010C90749
:10401C000CD1DAF80010C90704BFDAF800105FEA17
:10402C00C17103D1DAF80010C907EED0DAF800102C
:10403C0009060CD5DAF80010090644BFDAF80010AE
:10404C005FEA016103D5DAF800100906EED4DAF85C
:10405C000410D9F80010D9F80020521A592A0ED899
:10406C00D9F80020521A592A9EBFD9F80020521AAA
:10407C00592A04D8D9F80020521A5A2AEBD3D9F865
:10408C000010D9F80020521A592A0ED8D9F800205D
:10409C00521A592A9EBFD9F80020521A592A04D80C
:1040AC00D9F80020521A5A2AEBD3DAF800108907F3
:1040BC000CD4DAF8001089075CBFDAF800105FEA5C
:1040CC00817103D4DAF800108907EED5CAF80460C0
:1040DC00DAF80010C9070CD1DAF80010C90704BFD0
:1040EC00DAF800105FEAC17103D1DAF80010C907E1
:1040FC00EED0DAF8001009060CD5DAF80010090633
:10410C0044BFDAF800105FEA016103D5DAF8001059
:10411C000906EED4DAF80410D9F80010D9F800200A
:10412C00521A592A3FF646AFD9F80020521A592A8A
:10413C009EBFD9F80020521A592A3FF63BAFD9F846
:10414C000020521A5A2AE9D334E7013D00F0C98005
:10415C00D9F80000D9F80010091A59290ED8D9F845
:10416C000010091A59299EBFD9F80010091A5929AB
:10417C0004D8D9F80010091A5A29EBD3DAF8000040
:10418C0080070CD4DAF8000080075CBFDAF8000076
:10419C005FEA807003D4DAF800008007EED5CAF825
:1041AC000480DAF80000C0070CD1DAF80000C00770
:1041BC0004BFDAF800005FEAC07003D1DAF800003F
:1041CC00C007EED0DAF8000000060CD5DAF80000D3
:1041DC00000644BFDAF800005FEA006003D5DAF8A5
:1041EC0000000006EED4DAF80400D9F80000D9F883
:1041FC000010091A59290ED8D9F80010091A592992
:10420C009EBFD9F80010091A592904D8D9F8001002
:10421C00091A5A29EBD3D9F80000D9F80010091A59
:10422C0059290ED8D9F80010091A59299EBFD9F866
:10423C000010091A592904D8D9F80010091A5A295A
:10424C00EBD3DAF8000080070CD4DAF80000800712
:10425C005CBFDAF800005FEA807003D4DAF8000083
:10426C008007EED5CAF80460DAF80000C0070CD15C
:10427C00DAF80000C00704BFDAF800005FEAC0708B
:10428C0003D1DAF80000C007EED0DAF8000000061F
:10429C000CD5DAF80000000644BFDAF800005FEA3B
:1042AC00006003D5DAF800000006EED4DAF804005A
:1042BC00D9F80000D9F80010091A59293FF645AF72
:1042CC00D9F80010091A59299EBFD9F80010091AFB
:1042DC0059293FF63AAFD9F80010091A5A29E9D3EF
:1042EC0033E740F618404FF48041C4F202000160FD
:1042FC001D9B189817995845BFF427AD1E94594526
:10430C000C467FF675AD20E50398000400F05F8342
:10431C000024012020214FF4F07210230094FDF7AB
:10432C00F7FA1FA88DF88440CDE91F44CDE984002D
:10433C00CDE98200CDE98000CDE97E00CDE97C009D
:10434C00CDE97A00CDE97800CDE97600CDE97400AD
:10435C00CDE97200CDE97000CDE96E00CDE96C00BD
:10436C00CDE96A00CDE96800CDE96600CDE96400CD
:10437C00CDE96200CDE96000CDE95E00CDE95C00DD
:10438C00CDE95A00CDE95800CDE95600CDE95400ED
:10439C00CDE95200CDE95000CDE94E00CDE94C00FD
:1043AC00CDE94A00CDE94800CDE94600CDE944000D
:1043BC00CDE94200CDE94000CDE93E00CDE93C001D
:1043CC00CDE93A00CDE93800CDE93600CDE934002D
:1043DC00CDE93200CDE93000CDE92E00CDE92C003D
:1043EC00CDE92A00CDE92800CDE92600CDE924004D
:1043FC00CDE922000498D0F8C814002900F0E4821A
:10440C0004980DF1880C0025002300F11802029885
:10441C00D0E9010409E0632D00F2F7824CF8252065
:10442C00013501330C32994209D0642B00F0E9823A
:10443C0016688642EFD25668A642ECD9F1E7002DF9
:10444C0000F0C2820BF0CAFC0646204688460BF0F0
:10445C00C5FC324643461A96CDF864800BF01FFB20
:10446C009FEDE08B40F2240BCDE9171043F2080AC4
:10447C0051EC180B9FEDDD9B9FEDDEABC4F2000BF6
:10448C00C4F2010A4FF007094FF00108CDE91510ED
:10449C00002004E0DDE90C05A84200F095826428B8
:1044AC000D9500F0AE82411C0C9122A986AC51F8FE
:1044BC00200040211B90D0E900501C9020460BF0AE
:1044CC00EFFC28460BF08AFCDDE919320BF0E7FA19
:1044DC00DDE915320BF0F3FADDE917320AF074FD61
:1044EC0053EC196B1E931D9632460AF053FFB0EE37
:1044FC00491AF0EE691A41EC100B0AF042FDB0EECD
:10450C00481AF0EE681A0AF019FD55EC102B002031
:10451C001E9B98904020CDE9964014921195104620
:10452C001446294632460BF00DF9139020462946C5
:10453C000BF08FFA06461C980BF050FCDDE9193293
:10454C000BF0ADFADDE915320BF0B9FADDE91732F3
:10455C000AF03AFDDDE91D230AF01CFFB0EE491A02
:10456C00F0EE691A41EC100B0AF00BFDB0EE481A94
:10457C00F0EE681A0AF0E2FC53EC1A2B1B9855EC7F
:10458C00104B007A129013980028CDE90F2308BF26
:10459C000646149811990BF04DFC002818BF4FF0EB
:1045AC00FF36DDE91D2306F121001C90204629462B
:1045BC0014962E460E950BF0C5F80546204631464E
:1045CC000BF047FA0EAB0646002D08BF2E460ECB5D
:1045DC0020460BF02FFC002818BF4FF0FF361C981C
:1045EC0006F120052E1A1299DFE801F00337152B7E
:1045FC000B4444F22050C7F26D00869047F67410BD
:10460C0026E045F22030C6F67470869070208DF846
:10461C001C0205201FE01B98CDF86C82CDF874822B
:10462C00407A07F8590C00209E9041F21060C0F6B9
:10463C0001009A90A0A89C904EF29930C0F6000010
:10464C002DE045F22030C6F27410869047F272408D
:10465C00ADF81C020620989030E01B98CDF86C82C7
:10466C00407A07F8590C00209E9041F20860C0F681
:10467C0001000BE01B98CDF86C82407A07F8590CBE
:10468C0000209E9041F22060C0F601009A90A0A8F4
:10469C009C904EF2BF30C0F60000CDF87482A19011
:1046AC00A7F1590040F25001A09096A89AAAC0F622
:1046BC00010109F052FA002840F0B281DDE99712AD
:1046CC008A4200F2928196999AA809F00CFB9A986A
:1046DC00012800F09E814FF4FC60202100902A46B6
:1046EC001C9810239C9CFDF713F9B6EBC40FFFF438
:1046FC00D1AEDDE997128A4200F2778196999AA899
:10470C0009F0F1FA9A98012800F083819C9900290C
:10471C003FF4C0AE149800F1220C9B9801441D91FB
:10472C0002460EE040F618404FF48041C4F20200FD
:10473C000CF1080C0160DDE91D02824210463FF4C9
:10474C00A9AE12F9011BB1F1FF3FCDB21FDC4278CB
:10475C0005F01F01E02D02F03F0211D38378F02DFC
:10476C0003F03F0343EA82120ED3C37801F0070132
:10477C0003F03F0343EA821242EA8145021D06E040
:10478C0042EA8115821C02E042EA0135C21C1E92EB
:10479C0060462021082210236446FCF7AFF94FF63F
:1047AC000060B52DCFF6FF7008BFC12500EB0510DA
:1047BC00202D38BF4FF4BE60B0F5C06F00F21181F0
:1047CC0040F62F310023C0F601010A18C0F5C06174
:1047DC00A44602E00133102BA4D0002511E000BF49
:1047EC0000BF00BF0000000000F07B400000000094
:1047FC00000000000000E0FFFFFFEF410135082D35
:10480C00E8D003EBD500884280F0E980105C29EAFF
:10481C000504DBF8006008FA04F42040DBF80040E3
:10482C00A41B592C0ED8DBF80040A41B592C9EBF9E
:10483C00DBF80040A41B592C04D8DBF80040A41B67
:10484C005A2CEBD3DAF80060B6070CD4DAF8006017
:10485C00B6075CBFDAF800605FEA867603D4DAF854
:10486C000060B607EED500284FF0000008BF4FF4EB
:10487C00E0604FEA1020CAF804004FF0000008BFB7
:10488C004FF4FC60DAF80060F6070CD1DAF800603F
:10489C00F60704BFDAF800605FEAC67603D1DAF8EF
:1048AC000060F607EED0DAF8006036060CD5DAF8C0
:1048BC000060360644BFDAF800605FEA066603D58E
:1048CC00DAF800603606EED4DAF80460DBF8006043
:1048DC00DBF80040A41B592C0ED8DBF80040A41BBD
:1048EC00592C9EBFDBF80040A41B592C04D8DBF8D4
:1048FC000040A41B5A2CEBD3DBF80060DBF8004023
:10490C00A41B592C0ED8DBF80040A41B592C9EBFBD
:10491C00DBF80040A41B592C04D8DBF80040A41B86
:10492C005A2CEBD3DAF80060B6070CD4DAF8006036
:10493C00B6075CBFDAF800605FEA867603D4DAF873
:10494C000060B607EED500F0E000CAF80400DAF813
:10495C000000C0070CD1DAF80000C00704BFDAF879
:10496C0000005FEAC07003D1DAF80000C007EED097
:10497C00DAF8000000060CD5DAF80000000644BF97
:10498C00DAF800005FEA006003D5DAF800000006F0
:10499C00EED4DAF80400DBF80000DBF80060361A1D
:1049AC00592E3FF62BAFDBF80060361A592E9EBFFE
:1049BC00DBF80060361A592E3FF620AFDBF80060AA
:1049CC00361A5A2EE9D319E70498FEF743FF0DF572
:1049DC00227DBDEC068B01B0BDE8000FF0BD08F0E8
:1049EC009AFB4FF4C06109F0BCFC104609F0B9FC0D
:1049FC0042F2107108F08FFB204642F2107108F061
:104A0C008AFB6420642108F086FB2846642108F0A8
:104A1C0082FB41F21C71A0A8C0F6010109F067FCF1
:104A2C0040F278019AA8C0F6010109F060FCF0B5DB
:104A3C0003AF2DE9000782B041F2A4610E22C0F64B
:104A4C0001010446FDF7DBF841F284112046C0F663
:104A5C000101FDF766FA00204FF6FF7AC4F8EC046A
:104A6C0040F2C110002101221E23D4F8E484CDF8B9
:104A7C0000A0FCF74DFF40F6B8294FF0FF36C0F60A
:104A8C000109B8F1000FCDF8009008BF40F21F46A5
:104A9C004FF4C5700721BD2233464FF0FF35FBF7AD
:104AAC0031FF4FF4C9700721BE223346CDF8009078
:104ABC00FBF728FF4FF4D170002101221E23CDF803
:104ACC0000A0FCF725FF4FF0FF36CDF80090B8F1B1
:104ADC00010F08BF40F21F4640F2A91007218B229C
:104AEC003346FBF70FFF40F2B11007218C223346FF
:104AFC00CDF80090FBF706FF40F283100021012255
:104B0C001E23CDF800A0FCF703FFCDF80090B8F100
:104B1C00020F08BF40F21F454FF4E47007219F229B
:104B2C002B46FBF7EFFE4FF4E8700721A0222B4633
:104B3C00CDF80090FBF7E6FE20464FF6FF71FFF72D
:104B4C00B9F84CF66C00205802B0BDE80007BDE87F
:104B5C00F040FEF7AFBDF0B503AF4DF8048DD0E9D2
:104B6C000145AC4216D31646621BB24228BF3246F0
:104B7C008046002A1EBFD8F8000028440AF01CFE0C
:104B8C00A819844238BF2046C8F8080000205DF8F8
:104B9C00048BF0BD2846214609F0E3FB0420704746
:104BAC0003290FD8DFE801F0020B0508016801208A
:104BBC007047816801207047C168012070474168C7
:104BCC00012070470020704703290CD841F2507027
:104BDC0041F24072C0F60100C0F6010250F821000B
:104BEC0052F82110704700207047002070470220B7
:104BFC007047012902BF416801207047002902BF9C
:104C0C000168012070470020704741F2347241F274
:104C1C003170C0F60102012918BF00220029C0F62C
:104C2C0001004FF0030118BF104670470120704778
:104C3C000268B1FA81F040091146704741F23770B1
:104C4C000029C0F601004FF0020118BF0020704788
:104C5C00012902BF416801207047002902BF016889
:104C6C00012070470020704741F23B7241F23970CD
:104C7C00C0F60102012918BF00220029C0F601006C
:104C8C004FF0020118BF1046704780B56F4600F018
:104C9C0001F8D4D4B0B502AFADF5CA3DFAB00AF004
:104CAC004AF904460AF03AF940F2000104F0010016
:104CBC00C2F200010A78002A48F0CC810DF1A40E52
:104CCC00012200280EF5484B0A7008BF0AF028F99B
:104CDC0049F2FF4441F2002500200DF1A40EC0F66C
:104CEC00BA24611CCDE90010C0F27A050EF54840DB
:104CFC0029460122012309F091FBDBF80000022870
:104D0C0008F0F281C00708F0FC81DBF8040045F6DE
:104D1C000172C0F64C12A0F1B771A1F55851914235
:104D2C0088F0AC8101194EF22F32C0F2BE02090A92
:104D3C00A1FB0213D90A01290CD0022907D00029A2
:104D4C0008F081814FF400714FF0F00804E04FF04F
:104D5C00800801E04FF000084AF24056B0FBF1F138
:104D6C00C0F2AE268B19013B9B09A3FB0235EB0A63
:104D7C00012B0BD0022B06D0002B08F064810423EE
:104D8C004FF4A05904E04FF4805901E04FF00009B2
:104D9C00B1FBF3F4731C9C4288F0778144F67F23BB
:104DAC00C0F25D53CD18ED09A5FB0225EA0A012AD4
:104DBC000BD0022A06D0002A08F0458104224FF4B9
:104DCC00204A04E04FF4004A01E04FF0000AB1FB26
:104DDC00F2F59A1C954288F05F81CDE90A450CAC3E
:104DEC004CF6600201384CF6640304EB020C0BEB3E
:104DFC000302099245F2C742C009C0F21E124AF2E0
:104E0C005015A0FB0202254443F60004C4F2020430
:104E1C00D4F80004920A000960F31F1242F4E06017
:104E2C00C4F80004206840F48030206020688003BF
:104E3C0009D4206880035CBF20685FEA803002D40C
:104E4C0020688003F2D5206840F08070206047F61F
:104E5C000120CDF820C0C0F6032081422FD3206C56
:104E6C0040F0805020640AF063F847F20400C4F26A
:104E7C00000050F8041C41F4803140F8041C016817
:104E8C00C90309D40168C9035CBF01685FEAC13179
:104E9C0002D40168C903F2D550F8041C41F4003166
:104EAC0040F8041C0168890309D4016889035CBFBC
:104EBC0001685FEA813102D401688903F2D5039558
:104ECC002068800109D4206880015CBF20685FEAFB
:104EDC00801002D420688001F2D5A0684FF6F04211
:104EEC0020F40000A060D4F88C0020F47000C4F80A
:104EFC008C00A16849EA080040EA0A009143084383
:104F0C00A06010200AF00EF8A0680221012561F3C0
:104F1C000100A060206B40F039002063606C40F40D
:104F2C008050606440F20C60C4F24720056009F0C8
:104F3C00FFFF40F2002B40F2000A45F25550C4F23C
:104F4C00472BCBF80C500025C4F2020AC5F2000026
:104F5C0040F61842CBF80C50CAF8000C45F25550EC
:104F6C00C4F20202C0F24000C2F8E80341F20800A9
:104F7C00C4F202004FF0A061C0F8F81348F2FF0130
:104F8C0041F21843116040F6FF01C4F202030161C3
:104F9C0045F255514FF6FF7842F80C1C416040F237
:104FAC00240943F80C1CC4F20009C3F8F4134FF0A5
:104FBC00FF3142F8108CC0F80080C0F80084C3F8B0
:104FCC00F083206C40F0010020644FF080400124FD
:104FDC00056049F8205CC9F80450C9F8081049F874
:104FEC00185C016841F001010160CBF8004409F044
:104FFC009FFFCBF800400521CBF800500222CAF8E5
:10500C000880DAF8040020F02000CAF80400DAF86E
:10501C00200061F31750CAF82000DAF8000062F3A0
:10502C008B20CAF80000DAF8040020F04000CAF81F
:10503C000400DAF8200061F31B60CAF82000DAF8EB
:10504C00000062F30D30CAF80000DAF8040020F01A
:10505C008000CAF80400DAF8200061F31F70CAF867
:10506C002000DAF8000062F38F30CAF8000040F23A
:10507C000C6AC4F2472ACAF8A44209F059FF43F259
:10508C000808CBF8B042C4F20108CBF8B05228F8AB
:10509C00045C48F27F400B9AC0F21E00824247F239
:1050AC00D28748F680500024C0F25B0082424FF059
:1050BC00000017D341F60030C0F2B700824201D293
:1050CC0008200FE043F20060C0F26E10824201D261
:1050DC00102007E046F600412020C0F2DC218A4275
:1050EC0038BF182040F4417028F8080C38F8080C28
:1050FC0040F6184243F2BF71C4F202020840072185
:10510C00403028F8080C52F8140C012520F480705B
:10511C0042F8140CD06861F30300D0600022022125
:10512C00C4F20202D2F8000C61F31140C2F8000C78
:10513C00CAF83C5209F0FCFE40F20020C4F24720B1
:10514C00C0F84852C0F848420A99480BE02816D8D3
:10515C00B1F5612FC7F0D7874FF4614000EB4100E8
:10516C004BF2C531C9F2A211A0FB0101702000EA7B
:10517C001140C1F3424101444AF20C000AE001F52E
:10518C0061404BF2C531C9F2A211A0FB010142F200
:10519C000C00090C44F60002C4F2000291600021DC
:1051AC0011615161D060116110680006FCD5492075
:1051BC00506010680006FCD5542050601068000642
:1051CC00FCD55320506010680006FCD52D20506093
:1051DC0010680006FCD54220506010680006FCD513
:1051EC006F20506010680006FCD56120506010687C
:1051FC000006FCD57220506010680006FCD56420B7
:10520C00506010680006FCD5202050601068000625
:10521C00FCD56920506010680006FCD56E205060EB
:10522C0010680006FCD56920506010680006FCD59B
:10523C007420506010680006FCD56920506010681E
:10524C000006FCD56120506010680006FCD56C206F
:10525C00506010680006FCD569205060106800068C
:10526C00FCD57A20506010680006FCD56520506093
:10527C0010680006FCD56420506010680006FCD550
:10528C000A2050601068000609D4106800065CBF44
:10529C0010685FEA006002D410680006F2D541F293
:1052AC0018410A2050604FF48050C4F2020108608B
:1052BC00D9F80000D9F80010091AB1420ED2D9F869
:1052CC000010091AB1423EBFD9F80010091AB142B8
:1052DC0004D2D9F80010091AB142EBD341F21841AB
:1052EC004FF08050C4F202010860D9F80000D9F8E0
:1052FC000010091AB1420ED2D9F80010091AB142A5
:10530C003EBFD9F80010091AB14204D2D9F80010E6
:10531C00091AB142EBD341F218414FF48050C4F258
:10532C0002010860D9F80000D9F80010091AB1423E
:10533C000ED2D9F80010091AB1423EBFD9F80010AC
:10534C00091AB14204D2D9F80010091AB142EBD3B0
:10535C0040F6C8264FF0000E4FF0005C4FF0804B2B
:10536C00C0F601064FF480454FF4005A002002E0CD
:10537C00672880F0608141F2184140F61842C4F26F
:10538C000201C4F20202C1F800C0315CC2F800B0E4
:10539C00D9F80020D9F80040A41A592C0ED8D9F805
:1053AC000040A41A592C9EBFD9F80040A41A592CBD
:1053BC0004D8D9F80040A41A5A2CEBD3D8F8002002
:1053CC0092070CD4D8F8002092075CBFD8F80020C4
:1053DC005FEA827203D4D8F800209207EED5C8F8A1
:1053EC000410D8F80010C9070CD1D8F80010C90760
:1053FC0004BFD8F800105FEAC17103D1D8F80010CF
:10540C00C907EED0D8F8001009060CD5D8F8001052
:10541C00090644BFD8F800105FEA016103D5D8F83B
:10542C0000100906EED4D8F80410D9F80010D9F8F9
:10543C000020521A592A0ED8D9F80020521A592A8B
:10544C009EBFD9F80020521A592A04D8D9F8002046
:10545C00521A5A2AEBD340F618416628C4F20201BC
:10546C000D6007F03D86811902304A7852B97FE70A
:10547C0040F61841013AC4F2020101300D601106E8
:10548C003FF476AF662807F2DB8541F2184140F60F
:10549C001843C4F20201C4F20203C1F800A0315C4B
:1054AC00C3F800B0D9F80040D9F800301B1B592BB9
:1054BC000ED8D9F800301B1B592B9EBFD9F80030E1
:1054CC001B1B592B04D8D9F800301B1B5A2BEBD3C0
:1054DC00D8F800309B070CD4D8F800309B075CBF81
:1054EC00D8F800305FEA837303D4D8F800309B07F8
:1054FC00EED5C8F804E0D8F80030DB070CD1D8F8AA
:10550C000030DB0704BFD8F800305FEAC37303D167
:10551C00D8F80030DB07EED0D8F800301B060CD5DD
:10552C00D8F800301B0644BFD8F800305FEA03639C
:10553C0003D5D8F800301B06EED4D8F80430D9F8CF
:10554C000040D9F800301B1B592B0ED8D9F800306D
:10555C001B1B592B9EBFD9F800301B1B592B04D891
:10556C00D9F800301B1B5A2BEBD3D9F80040D9F8D3
:10557C0000301B1B592B0ED8D9F800301B1B592B94
:10558C009EBFD9F800301B1B592B04D8D9F800301A
:10559C001B1B5A2BEBD3D8F800309B070CD4D8F834
:1055AC0000309B075CBFD8F800305FEA837303D4EC
:1055BC00D8F800309B07EED5C8F80410D8F80010C6
:1055CC00C9070CD1D8F80010C90704BFD8F80010CF
:1055DC005FEAC17103D1D8F80010C907EED0D8F832
:1055EC00001009060CD5D8F80010090644BFD8F8ED
:1055FC0000105FEA016103D5D8F800100906EED45B
:10560C00D8F80410D9F80010D9F800305B1A592BCF
:10561C003FF62EAFD9F800305B1A592B9EBFD9F844
:10562C0000305B1A592B3FF623AFD9F800305B1AC8
:10563C005A2BE9D31CE741F218414FF00050C4F249
:10564C000201086040F618414FF08040C4F202019C
:10565C000860D9F80000D9F80010091A59290ED899
:10566C00D9F80010091A59299EBFD9F80010091A47
:10567C00592904D8D9F80010091A5A29EBD30DF17D
:10568C00A40E0EF5484AD8F8000080070CD4D8F8C0
:10569C00000080075CBFD8F800005FEA807003D47C
:1056AC00D8F800008007EED5B620C8F80400D8F86A
:1056BC000000C0070CD1D8F80000C00704BFD8F810
:1056CC0000005FEAC07003D1D8F80000C007EED02C
:1056DC00D8F8000000060CD5D8F80000000644BF2E
:1056EC00D8F800005FEA006003D5D8F80000000687
:1056FC00EED4D8F80400D9F80000D9F80010091A33
:10570C0059290ED8D9F80010091A59299EBFD9F871
:10571C000010091A592904D8D9F80010091A5A2965
:10572C00EBD340F6184141F218424FF48040C4F2DA
:10573C00020108604FF40050C4F2020210604FF0F6
:10574C0080400860D9F80000D9F80010091A5929CE
:10575C000ED8D9F80010091A59299EBFD9F8001093
:10576C00091A592904D8D9F80010091A5A29EBD367
:10577C00D8F8000080070CD4D8F8000080075CBF74
:10578C00D8F800005FEA807003D4D8F800008007D6
:10579C00EED50020C8F80400D8F80000C0070CD1E2
:1057AC00D8F80000C00704BFD8F800005FEAC0704A
:1057BC0003D1D8F80000C007EED0D8F800000006DE
:1057CC000CD5D8F80000000644BFD8F800005FEAFA
:1057DC00006003D5D8F800000006EED4D8F8040019
:1057EC00D9F80000D9F80010091A59290ED8D9F89F
:1057FC000010091A59299EBFD9F80010091A592905
:10580C0004D8D9F80010091A5A29EBD3D9F800009A
:10581C00D9F80010091A59290ED8D9F80010091A0C
:10582C0059299EBFD9F80010091A592904D8D9F85A
:10583C000010091A5A29EBD3D8F8000080070CD4B1
:10584C00D8F8000080075CBFD8F800005FEA8070D1
:10585C0003D4D8F800008007EED50020C8F8040067
:10586C00D8F80000C0070CD1D8F80000C00704BF5E
:10587C00D8F800005FEAC07003D1D8F80000C00768
:10588C00EED0D8F8000000060CD5D8F800000006C1
:10589C0044BFD8F800005FEA006003D5D8F80000D8
:1058AC000006EED4D8F80400D9F80000D9F800109E
:1058BC00091A59290ED8D9F80010091A59299EBF6E
:1058CC00D9F80010091A592904D8D9F80010091A66
:1058DC005A29EBD340F6184141F218424FF480405C
:1058EC00C4F2020108604FF40050C4F202021060CE
:1058FC004FF080400860D9F80000D9F80010091A60
:10590C0059290ED8D9F80010091A59299EBFD9F86F
:10591C000010091A592904D8D9F80010091A5A2963
:10592C00EBD3D8F8000080070CD4D8F8000080071F
:10593C005CBFD8F800005FEA807003D4D8F8000090
:10594C008007EED50020C8F80400D8F80000C00786
:10595C000CD1D8F80000C00704BFD8F800005FEAEB
:10596C00C07003D1D8F80000C007EED0D8F8000002
:10597C0000060CD5D8F80000000644BFD8F800008B
:10598C005FEA006003D5D8F800000006EED4D8F822
:10599C000400D9F80000D9F80010091A59290ED8BA
:1059AC00D9F80010091A59299EBFD9F80010091A04
:1059BC00592904D8D9F80010091A5A29EBD3D9F867
:1059CC000000D9F80010091A59290ED8D9F800107E
:1059DC00091A59299EBFD9F80010091A592904D857
:1059EC00D9F80010091A5A29EBD3D8F8000080070F
:1059FC000CD4D8F8000080075CBFD8F800005FEA30
:105A0C00807003D4D8F800008007EED56220C8F867
:105A1C000400D8F80000C0070CD1D8F80000C0076B
:105A2C0004BFD8F800005FEAC07003D1D8F80000BA
:105A3C00C007EED0D8F8000000060CD5D8F800004E
:105A4C00000644BFD8F800005FEA006003D5D8F820
:105A5C0000000006EED4D8F80400D9F80000D9F8FC
:105A6C000010091A59290ED8D9F80010091A592909
:105A7C009EBFD9F80010091A592904D8D9F800107A
:105A8C00091A5A29EBD340F6184141F218424FF447
:105A9C008040C4F2020108604FF00050C4F20202D0
:105AAC0010604FF080400860D9F80000D9F8001061
:105ABC00091A59290ED8D9F80010091A59299EBF6C
:105ACC00D9F80010091A592904D8D9F80010091A64
