:020000040800F2
:1000000000000320AD010008DBFA00086B080108BE
:10001000DBFA0008DBFA0008DBFA00080000000049
:10002000000000000000000000000000DBFA0008F3
:10003000DBFA000800000000DBFA0008DBFA000829
:10004000DBFA0008DBFA0008DBFA0008DBFA00083C
:10005000DBFA0008DBFA0008DBFA0008DBFA00082C
:10006000DBFA0008DBFA0008DBFA0008DBFA00081C
:10007000DBFA0008DBFA0008DBFA0008DBFA00080C
:10008000DBFA0008DBFA0008DBFA0008DBFA0008FC
:10009000DBFA0008DBFA0008DBFA0008DBFA0008EC
:1000A000DBFA0008DBFA0008DBFA0008DBFA0008DC
:1000B000DBFA0008DBFA0008DBFA0008DBFA0008CC
:1000C000DBFA0008DBFA0008DBFA0008DBFA0008BC
:1000D000DBFA0008DBFA0008DBFA0008DBFA0008AC
:1000E000DBFA0008DBFA0008DBFA0008DBFA00089C
:1000F000DBFA0008DBFA0008DBFA0008DBFA00088C
:10010000DBFA0008DBFA0008DBFA0008DBFA00087B
:10011000DBFA0008DBFA0008DBFA0008DBFA00086B
:10012000DBFA0008DBFA0008DBFA0008DBFA00085B
:10013000DBFA0008DBFA0008DBFA0008DBFA00084B
:10014000DBFA0008DBFA0008DBFA0008DBFA00083B
:10015000DBFA0008DBFA0008DBFA0008DBFA00082B
:10016000DBFA0008DBFA0008DBFA0008DBFA00081B
:10017000DBFA0008DBFA0008DBFA0008DBFA00080B
:10018000DBFA0008DBFA0008DBFA0008DBFA0008FB
:10019000DBFA0008DBFA0008DBFA0008DBFA0008EB
:0C01A000DBFA0008DBFA0008DBFA0008BC
:1001AC000FF096FC0E480F490022814201D004C08A
:1001BC00FBE70D480D490E4A814202D008CA08C01F
:1001CC00FAE70C484FF47001026842EA010202603F
:1001DC00BFF34F8FBFF36F8F03F084FC00DE000082
:1001EC00000000200400002000000020000000207F
:1001FC00AC20010888ED00E080B56F46A2B00A463D
:10020C00C969CB0616D4890621D4017864294CD34C
:10021C0029204843030B6FF0630013FB001041F6D9
:10022C004E51C0F60101C0B231F81000ADF8090012
:10023C0000203EE0007800F00F0101F157030A297D
:10024C0038BF01F130038DF8873057210BE000786F
:10025C0000F00F0101F137030A2938BF01F1300317
:10026C0037218DF8873001EB10110309A02838BF16
:10027C0003F13001102838BF00218DF886104FF0A3
:10028C00020138BF0121009102A9102801F17E035F
:10029C00104638BF01F17F0341F64C51C0F6010105
:1002AC0002220FF023F822B080BD0A2906D20220C8
:1002BC000B4643F0300102AB195408E041F64E50A6
:1002CC00C0F6010030F81100ADF80900012080F0F3
:1002DC000301009102A90B181046012100220FF016
:1002EC0005F822B080BDF0B503AF2DE9000F8DB03D
:1002FC0006680C46307880B1D4E905B940F68D011A
:10030C00D9F80C50C0F6010104225846A84790B108
:10031C0001200DB0BDE8000FF0BD40F69D01D4E901
:10032C000502D368C0F6010104220DB0BDE8000F30
:10033C00BDE8F0401847D4F81CA006F101085FEAAC
:10034C004A7015D441F649515846C0F601010122B4
:10035C00A847014601200029DBD140462146FFF782
:10036C004BFF002846D001200DB0BDE8000FF0BDBA
:10037C0041F64A515846C0F601010222A8470146EF
:10038C0001200029C5D104F10806A7F1410141F66D
:10039C00245507F8410C4CCE6846C0F60105CDE952
:1003AC000191D4E900C1099006A8CDE904C104A9C2
:1003BC000A9594F820504CC04046CDF800B0CDF8CA
:1003CC002CA08DF83050FFF717FF20B101200DB095
:1003DC00BDE8000FF0BDDDE909010222CB6841F652
:1003EC004451C0F60101984720B101200DB0BDE881
:1003FC00000FF0BDD4E905010122CB6841F6F441B0
:10040C00C0F6010198470DB0BDE8000FF0BDF0B586
:10041C0003AF2DE9000FA3B08946C969CA064ED4B3
:10042C00890600F18A80016842F210704FF69C7EBA
:10043C00814241F64E50C0F60100C0F0D68041F228
:10044C0059784EF2FF040DF10C0BCDF808900022F8
:10045C00CDF2B7184DF6F00941F27B4AC0F2F554D3
:10046C00A1FB08350BEB020C043AA1424FEA5533C1
:10047C0003FB09151946AEB24FEA960606FB0AF6BF
:10048C004FEA564606FB0E5530F81660ACF806607F
:10049C00ADB230F81550ACF80850E1D8DDF8089042
:1004AC000A321946632900F2A4800B460A2BC0F0CD
:1004BC00B180911E30F8130003AA5052AFE00368CC
:1004CC000DF10C0E802481214FF05708204603F0CB
:1004DC000F0404F157050A2C38BF04F130050EEB5C
:1004EC000104102B04F8025C66D3DDB2A02D08EBDE
:1004FC0015164FEA151238BF02F130061D0A04F822
:10050C00036C5CD005F00F02043902F157050A2A7E
:10051C0038BF02F1300504F8045C1D0B52D005F015
:10052C000F0202F157050A2A38BF02F1300504F810
:10053C00055C041F1B0CC9D13CE003680DF10C0ECB
:10054C00802481214FF0370C03F00F06204606F172
:10055C0037050A2E0EEB010438BF06F13005102BBF
:10056C0004F8025C28D3DEB2A02E0CEB16154FEA71
:10057C00161238BF02F1300504F8035C1D0A1ED0B8
:10058C0005F00F02043902F137050A2A38BF02F1CF
:10059C00300504F8045C1D0B14D005F00F0202F1B9
:1005AC0037050A2A38BF02F1300504F8055C041F30
:1005BC001B0CC9D1033807E08C1E481E04E001381F
:1005CC00CC1E01E002380C4641F64C51C0F18100C2
:1005DC000EEB04030090C0F60101484602220EF017
:1005EC0085FE23B0BDE8000FF0BD0A2263297FF61B
:1005FC005CAF8BB241F27B469B08023A734303AE6D
:10060C005B0C03FB0E1189B230F81110B1520A2B9E
:10061C00BFF44FAF511E03AA43F030005054C1F148
:10062C000A00009003A800224318484601210EF04E
:10063C005DFE23B0BDE8000FF0BDC00708BF7047DA
:10064C000FF0CABFB0B502AF84B0044604300D46FB
:10065C000190D1E905010922CB6840F66C01C0F686
:10066C00010198478DF80C0040F21B400021C0F6A8
:10067C0000008DF80D1040F67501009002A8C0F630
:10068C0001010B22234602950EF05AFF40F2F32192
:10069C0001ABC0F600010922009140F68001C0F6C2
:1006AC0001010EF04DFF9DF80D209DF80C10012A54
:1006BC0042EA010008BF5FEAC17103D000F00100FB
:1006CC0004B0B0BD0298017F49070CD4D0E90501F4
:1006DC000222CB6841F64751C0F60101984700F061
:1006EC00010004B0B0BDD0E905010122CB6841F690
:1006FC004651C0F60101984700F0010004B0B0BDAE
:10070C00D1E9050240F6B101D368C0F601010D2212
:10071C001847F0B503AF2DE9000F83B0BC689A46BB
:10072C009046D4E902B52B465A4600F0EEF8A8F1F3
:10073C0020000BF107016843C90801914843616827
:10074C008142C0F0DE80002D18BFBBF1000F0AD132
:10075C0040F618404FF48041C4F20200016003B02F
:10076C00BDE8000FF0BD22682426091A002302EB15
:10077C00000943F20802C4F20006C4F201024FF071
:10078C000708009504E0029B009D0133AB42DFD0CB
:10079C0001980025029303FB00FE02E001355D4544
:1007AC00F1D00EEBD500884280F0AD8019F8000036
:1007BC0028EA0503D6F800C0D84000F001004042FA
:1007CC0000EA0A003368A3EB0C03592B0ED83368EC
:1007DC00A3EB0C03592B9EBF3368A3EB0C03592BD3
:1007EC0004D83368A3EB0C035A2BEBD313689B0789
:1007FC0009D413689B075CBF13685FEA837302D448
:10080C0013689B07F2D583B21B0A53601368DB078E
:10081C0009D11368DB0704BF13685FEAC37302D105
:10082C001368DB07F2D013681B0609D513681B0687
:10083C0044BF13685FEA036302D513681B06F2D446
:10084C00536833683468E41A592C0BD83468E41AAA
:10085C00592C9EBF3468E41A592C03D83468E41A16
:10086C005A2CEFD333683468E41A592C0BD83468FB
:10087C00E41A592C9EBF3468E41A592C03D83468F6
:10088C00E41A5A2CEFD313689B0709D413689B07FF
:10089C005CBF13685FEA837302D413689B07F2D5BD
:1008AC00C0B250601068C00709D11068C00704BFFF
:1008BC0010685FEAC07002D11068C007F2D01068EF
:1008CC00000609D51068000644BF10685FEA006096
:1008DC0002D510680006F2D45068306833681B1AD1
:1008EC00592B3FF65BAF33681B1A592B9EBF3368ED
:1008FC001B1A592B3FF652AF33681B1A5A2BEDD3E8
:10090C004CE70FF0CFF80EF0E9FCF0B503AF4DF863
:10091C00048D40F6184C4FF00056C4F2020C40F215
:10092C00240ECCF800684FF08046CCF80060C4F27E
:10093C00000EDEF80060A1F10108441EDEF8005044
:10094C00AD1B592D0ED8DEF80050AD1B592D9EBF96
:10095C00DEF80050AD1B592D04D8DEF80050AD1B4D
:10096C005A2DEBD3144443F20802C4F20102156869
:10097C00AD0709D41568AD075CBF15685FEA8575CE
:10098C0002D41568AD07F2D52A2555601568ED0718
:10099C0009D11568ED0704BF15685FEAC57502D16A
:1009AC001568ED07F2D015682D0609D515682D06CA
:1009BC0044BF15685FEA056502D515682D06F2D4AB
:1009CC005568DEF80060DEF80050AD1B592D0ED8CE
:1009DC00DEF80050AD1B592D9EBFDEF80050AD1B4C
:1009EC00592D04D8DEF80050AD1B5A2DEBD34FF423
:1009FC008045CCF800504FF40055CCF800584FF01F
:100A0C008045CCF80050DEF80060DEF80050AD1BDD
:100A1C00592D0ED8DEF80050AD1B592D9EBFDEF8B7
:100A2C000050AD1B592D04D8DEF80050AD1B5A2DCB
:100A3C00EBD343441568AD0709D41568AD075CBF0B
:100A4C0015685FEA857502D41568AD07F2D50025E7
:100A5C0055601568ED0709D11568ED0704BF1568D9
:100A6C005FEAC57502D11568ED07F2D015682D0641
:100A7C0009D515682D0644BF15685FEA056502D5D2
:100A8C0015682D06F2D45568DEF80050DEF80060CB
:100A9C00761B592E0ED8DEF80060761B592E9EBFA1
:100AAC00DEF80060761B592E04D8DEF80060761B49
:100ABC005A2EEBD3DEF80050DEF80060761B592E70
:100ACC000ED8DEF80060761B592E9EBFDEF8006053
:100ADC00761B592E04D8DEF80060761B5A2EEBD309
:100AEC001568AD0709D41568AD075CBF15685FEADA
:100AFC00857502D41568AD07F2D5C0F3072555608E
:100B0C001568ED0709D11568ED0704BF15685FEA94
:100B1C00C57502D11568ED07F2D015682D0609D5FB
:100B2C0015682D0644BF15685FEA056502D5156882
:100B3C002D06F2D45568DEF80050DEF80060761B06
:100B4C00592E0ED8DEF80060761B592E9EBFDEF8AB
:100B5C000060761B592E04D8DEF80060761B5A2EE6
:100B6C00EBD34FF48045CCF800504FF40055CCF843
:100B7C0000584FF08045CCF80050DEF80050DEF8FD
:100B8C000060761B592E0ED8DEF80060761B592EAD
:100B9C009EBFDEF80060761B592E04D8DEF800608C
:100BAC00761B5A2EEBD31568AD0709D41568AD0723
:100BBC005CBF15685FEA857502D41568AD07F2D580
:100BCC00002555601568ED0709D11568ED0704BFC0
:100BDC0015685FEAC57502D11568ED07F2D0156886
:100BEC002D0609D515682D0644BF15685FEA056505
:100BFC0002D515682D06F2D45568DEF80050DEF8E3
:100C0C000060761B592E0ED8DEF80060761B592E2C
:100C1C009EBFDEF80060761B592E04D8DEF800600B
:100C2C00761B5A2EEBD3DEF80050DEF80060761BF4
:100C3C00592E0ED8DEF80060761B592E9EBFDEF8BA
:100C4C000060761B592E04D8DEF80060761B5A2EF5
:100C5C00EBD31568AD0709D41568AD075CBF1568F3
:100C6C005FEA857502D41568AD07F2D5C0B2506045
:100C7C001068C00709D11068C00704BF10685FEA8C
:100C8C00C07002D11068C007F2D01068000609D5F8
:100C9C001068000644BF10685FEA006002D5106857
:100CAC000006F2D45068DEF80000DEF800502D1A71
:100CBC00592D0ED8DEF800502D1A592D9EBFDEF896
:100CCC0000502D1A592D04D8DEF800502D1A5A2D2B
:100CDC00EBD34FF48040CCF800004FF40050CCF82C
:100CEC0000084FF08040CCF80000DEF80000DEF881
:100CFC0000502D1A592D0ED8DEF800502D1A592DF2
:100D0C009EBFDEF800502D1A592D04D8DEF8005085
:100D1C002D1A5A2DEBD31068800709D41068800760
:100D2C005CBF10685FEA807002D410688007F2D54F
:100D3C00002050601068C00709D11068C00704BFBC
:100D4C0010685FEAC07002D11068C007F2D010685A
:100D5C00000609D51068000644BF10685FEA006001
:100D6C0002D510680006F2D45068DEF80000DEF8F8
:100D7C0000502D1A592D0ED8DEF800502D1A592D71
:100D8C009EBFDEF800502D1A592D04D8DEF8005005
:100D9C002D1A5A2DEBD3DEF80000DEF800502D1A78
:100DAC00592D0ED8DEF800502D1A592D9EBFDEF8A5
:100DBC0000502D1A592D04D8DEF800502D1A5A2D3A
:100DCC00EBD31068800709D4106880075CBF1068EB
:100DDC005FEA807002D410688007F2D5C4F3072054
:100DEC0050601068C00709D11068C00704BF1068B4
:100DFC005FEAC07002D11068C007F2D0106800061C
:100E0C0009D51068000644BF10685FEA006002D57F
:100E1C0010680006F2D45068DEF80000DEF80050CE
:100E2C002D1A592D0ED8DEF800502D1A592D9EBFB3
:100E3C00DEF800502D1A592D04D8DEF800502D1A6A
:100E4C005A2DEBD34FF48040CCF800004FF40050F7
:100E5C00CCF800084FF08040CCF80000DEF8000021
:100E6C00DEF800502D1A592D0ED8DEF800502D1A30
:100E7C00592D9EBFDEF800502D1A592D04D8DEF8DE
:100E8C0000502D1A5A2DEBD31068800709D4106826
:100E9C0080075CBF10685FEA807002D4106880071E
:100EAC00F2D5002050601068C00709D11068C00747
:100EBC0004BF10685FEAC07002D11068C007F2D09E
:100ECC001068000609D51068000644BF10685FEA78
:100EDC00006002D510680006F2D45068DEF80000FD
:100EEC00DEF800502D1A592D0ED8DEF800502D1AB0
:100EFC00592D9EBFDEF800502D1A592D04D8DEF85E
:100F0C0000502D1A5A2DEBD3DEF80000DEF80050FD
:100F1C002D1A592D0ED8DEF800502D1A592D9EBFC2
:100F2C00DEF800502D1A592D04D8DEF800502D1A79
:100F3C005A2DEBD31068800709D4106880075CBF6A
:100F4C0010685FEA807002D410688007F2D5E0B2B6
:100F5C0050601068C00709D11068C00704BF106842
:100F6C005FEAC07002D11068C007F2D010680006AA
:100F7C0009D51068000644BF10685FEA006002D50E
:100F8C0010680006F2D45068DEF80000DEF800406D
:100F9C00241A592C0ED8DEF80040241A592C9EBF66
:100FAC00DEF80040241A592C04D8DEF80040241A2C
:100FBC005A2CEBD34FF48040CCF800004FF000508B
:100FCC00CCF800084FF08040CCF80000DEF80000B0
:100FDC00DEF80040241A592C0ED8DEF80040241AF2
:100FEC00592C9EBFDEF80040241A592C04D8DEF888
:100FFC000040241A5A2CEBD31068800709D41068CF
:10100C0080075CBF10685FEA807002D410688007AC
:10101C00F2D52B2050601068C00709D11068C007AA
:10102C0004BF10685FEAC07002D11068C007F2D02C
:10103C001068000609D51068000644BF10685FEA06
:10104C00006002D510680006F2D45068DEF800008B
:10105C00DEF80040241A592C0ED8DEF80040241A71
:10106C00592C9EBFDEF80040241A592C04D8DEF807
:10107C000040241A5A2CEBD34FF48040CCF80000DB
:10108C004FF40050CCF800084FF08040CCF8000032
:10109C00DEF80000DEF80040241A592C0ED8DEF8D9
:1010AC000040241A592C9EBFDEF80040241A592CFB
:1010BC0004D8DEF80040241A5A2CEBD310688007B1
:1010CC0009D4106880075CBF10685FEA807002D496
:1010DC0010688007F2D5002050601068C00709D155
:1010EC001068C00704BF10685FEAC07002D11068B6
:1010FC00C007F2D01068000609D51068000644BF7E
:10110C0010685FEA006002D510680006F2D45068DF
:10111C00DEF80000DEF80040241A592C0ED8DEF858
:10112C000040241A592C9EBFDEF80040241A592C7A
:10113C0004D8DEF80040241A5A2CEBD3DEF8000059
:10114C00DEF80040241A592C0ED8DEF80040241A80
:10115C00592C9EBFDEF80040241A592C04D8DEF816
:10116C000040241A5A2CEBD31068800709D410685D
:10117C0080075CBF10685FEA807002D4106880073B
:10118C00F2D5C1F3072050601068C00709D1106870
:10119C00C00704BF10685FEAC07002D11068C007B6
:1011AC00F2D01068000609D51068000644BF10681C
:1011BC005FEA006002D510680006F2D45068DEF8D1
:1011CC000000DEF80040241A592C0ED8DEF800403E
:1011DC00241A592C9EBFDEF80040241A592C04D82E
:1011EC00DEF80040241A5A2CEBD34FF48040CCF894
:1011FC0000004FF40050CCF800084FF08040CCF8C1
:10120C000000DEF80000DEF80040241A592C0ED83D
:10121C00DEF80040241A592C9EBFDEF80040241A38
:10122C00592C04D8DEF80040241A5A2CEBD3106841
:10123C00800709D4106880075CBF10685FEA807073
:10124C0002D410688007F2D5002050601068C007E7
:10125C0009D11068C00704BF10685FEAC07002D1E2
:10126C001068C007F2D01068000609D51068000697
:10127C0044BF10685FEA006002D510680006F2D423
:10128C005068DEF80000DEF80040241A592C0ED805
:10129C00DEF80040241A592C9EBFDEF80040241AB8
:1012AC00592C04D8DEF80040241A5A2CEBD3DEF863
:1012BC000000DEF80040241A592C0ED8DEF800404D
:1012CC00241A592C9EBFDEF80040241A592C04D83D
:1012DC00DEF80040241A5A2CEBD31068800709D48E
:1012EC00106880075CBF10685FEA807002D41068D9
:1012FC008007F2D5C8B250601068C00709D11068D9
:10130C00C00704BF10685FEAC07002D11068C00744
:10131C00F2D01068000609D51068000644BF1068AA
:10132C005FEA006002D510680006F2D45068DEF85F
:10133C000000DEF80010091A59290ED8DEF800104A
:10134C00091A59299EBFDEF80010091A592904D828
:10135C00DEF80010091A5A29EBD34FF48040CCF870
:10136C0000004FF40050CCF800084FF08040CCF84F
:10137C000000DEF80000DEF80010091A59290ED81A
:10138C00DEF80010091A59299EBFDEF80010091A60
:10139C00592904D8DEF80010091A5A29EBD3106821
:1013AC00800709D4106880075CBF10685FEA807002
:1013BC0002D410688007F2D5002050601068C00776
:1013CC0009D11068C00704BF10685FEAC07002D171
:1013DC001068C007F2D01068000609D51068000626
:1013EC0044BF10685FEA006002D510680006F2D4B2
:1013FC005068DEF80000DEF80010091A59290ED8E2
:10140C00DEF80010091A59299EBFDEF80010091ADF
:10141C00592904D8DEF80010091A5A29EBD3DEF842
:10142C000000DEF80010091A59290ED8DEF8001059
:10143C00091A59299EBFDEF80010091A592904D837
:10144C00DEF80010091A5A29EBD31068800709D46A
:10145C00106880075CBF10685FEA807002D4106867
:10146C008007F2D5C3F3072050601068C00709D17C
:10147C001068C00704BF10685FEAC07002D1106822
:10148C00C007F2D01068000609D51068000644BFEA
:10149C0010685FEA006002D510680006F2D450684C
:1014AC00DEF80000DEF80010091A59290ED8DEF813
:1014BC000010091A59299EBFDEF80010091A592983
:1014CC0004D8DEF80010091A5A29EBD34FF48040E7
:1014DC00CCF800004FF40050CCF800084FF08040DE
:1014EC00CCF80000DEF80000DEF80010091A5929CB
:1014FC000ED8DEF80010091A59299EBFDEF800102C
:10150C00091A592904D8DEF80010091A5A29EBD304
:10151C001068800709D4106880075CBF10685FEA08
:10152C00807002D410688007F2D5002050601068DB
:10153C00C00709D11068C00704BF10685FEAC0700B
:10154C0002D11068C007F2D01068000609D51068E7
:10155C00000644BF10685FEA006002D51068000600
:10156C00F2D45068DEF80000DEF80010091A592990
:10157C000ED8DEF80010091A59299EBFDEF80010AB
:10158C00091A592904D8DEF80010091A5A29EBD384
:10159C00DEF80000DEF80010091A59290ED8DEF822
:1015AC000010091A59299EBFDEF80010091A592992
:1015BC0004D8DEF80010091A5A29EBD310688007FA
:1015CC0009D4106880075CBF10685FEA807002D491
:1015DC0010688007F2D5D8B250601068C00709D1E6
:1015EC001068C00704BF10685FEAC07002D11068B1
:1015FC00C007F2D01068000609D51068000644BF79
:10160C0010685FEA006002D510680006F2D45068DA
:10161C00DEF80000DEF80010091A59290ED8DEF8A1
:10162C000010091A59299EBFDEF80010091A592911
:10163C0004D8DEF80010091A5A29EBD34FF4804075
:10164C00CCF800004FF00050CCF800084FF0804070
:10165C00CCF80000DEF80000DEF80010091A592959
:10166C000ED8DEF80010091A59299EBFDEF80010BA
:10167C00091A592904D8DEF80010091A5A29EBD393
:10168C001068800709D4106880075CBF10685FEA97
:10169C00807002D410688007F2D52C20506010683E
:1016AC00C00709D11068C00704BF10685FEAC0709A
:1016BC0002D11068C007F2D01068000609D5106876
:1016CC00000644BF10685FEA006002D5106800068F
:1016DC00F2D45068DEF80000DEF80010091A59291F
:1016EC000ED8DEF80010091A59299EBFDEF800103A
:1016FC00091A592904D8DEF80010091A5A29EBD313
:10170C004FF48040CCF800004FF40050CCF80008A7
:10171C004FF08040CCF800005DF8048BF0BDB0B504
:10172C0002AF1C461546FFF7F0F804FB05F0002845
:10173C0000F0AA80BA68242343F20805C4F200031F
:10174C00C4F2010591B2D2B24FEA112C02E0013879
:10175C0000F09A801C681968091B59290BD8196864
:10176C00091B59299EBF1968091B592903D81968E7
:10177C00091B5A29EFD32968890709D429688907D5
:10178C005CBF29685FEA817102D429688907F2D5A8
:10179C00C5F804C02968C90709D12968C90704BF5D
:1017AC0029685FEAC17102D12968C907F2D029689A
:1017BC00090609D52968090644BF29685FEA016151
:1017CC0002D529680906F2D469681C681968091BD6
:1017DC0059290BD81968091B59299EBF1968091B6F
:1017EC00592903D81968091B5A29EFD31C681968A1
:1017FC00091B59290BD81968091B59299EBF19684F
:10180C00091B592903D81968091B5A29EFD32968D0
:10181C00890709D4296889075CBF29685FEA817147
:10182C0002D429688907F2D56A602968C90709D1E9
:10183C002968C90704BF29685FEAC17102D1296808
:10184C00C907F2D02968090609D52968090644BFD9
:10185C0029685FEA016102D529680906F2D4696832
:10186C001C681968091B59293FF671AF1968091BC7
:10187C0059299EBF1968091B59293FF668AF196889
:10188C00091B5A29EDD362E740F618404FF480410A
:10189C00C4F202000160B0BDF0B503AF2DE9000B3E
:1018AC0082B004460E464FF000090A2021466422FD
:1018BC000123CDF80090FFF732FF651CA6F102085A
:1018CC000A20012229464346CDF80090FFF727FF56
:1018DC006D20294601224346CDF80090FFF71FFFEB
:1018EC0030196422411E0A200123CDF80090FFF725
:1018FC0016FF4FF6FF790B20294662220123CDF803
:10190C000090FFF70CFF351FA61C0B20012231465F
:10191C002B46CDF80090FFF702FF6C2031460122D8
:10192C002B46CDF80090FFF7FAFE08EB04010B20D4
:10193C0062220123CDF80090FFF7F1FE02B0BDE862
:10194C00000BF0BDF0B503AF2DE9000F83B0D0F85C
:10195C00349041F220288246282001EB020B0C46E1
:10196C0000EB09150726C0F60108029210E043EAC5
:10197C008112841C304629464FF6FF73CDF8008047
:10198C00202A38BF7F22FEF7C4FE08365C4523D0E0
:10199C00204614F9011BB1F1FF3FCAB2EADC4378CF
:1019AC0002F01F01E02A03F03F03E0D38478F02A11
:1019BC0004F03F0444EA83130AD3C27801F0070110
:1019CC00041D02F03F0242EA831242EA8142D1E74F
:1019DC0043EA0132C41CCDE7B9F10F0F9FBF0AEBEC
:1019EC000900029980F83810DAF834009FBF0130F2
:1019FC00CAF8340003B0BDE8000F98BFF0BD4846EC
:101A0C0010210DF06BFCF0B503AF2DE9000F81B088
:101A1C0041F6980B8D189246894680460726C0F6EB
:101A2C00010B0C4610E043EA8112841C304607215E
:101A3C004FF6FF73CDF800B0202A38BF7F22FEF797
:101A4C0068FE0836AC4223D0204614F9011BB1F1D4
:101A5C00FF3FCAB2EADC437802F01F01E02A03F030
:101A6C003F03E0D38478F02A04F03F0444EA831364
:101A7C000AD3C27801F00701041D02F03F0242EACA
:101A8C00831242EA8142D1E743EA0132C41CCDE71A
:101A9C00D8F80C00A0EB0A01002909DD0020CA00CF
:101AAC0000904FEACA00073007211023FFF737FEDA
:101ABC00C8E9029A01B0BDE8000FF0BDB0B502AFA5
:101ACC0082B00446C8B2DFE810F00B009300480067
:101ADC0061001600AC00C5007A00F7002F00DE0094
:101AEC00002040F229110090204610221023FFF70D
:101AFC0016FE02B0B0BD41F220252046C0F601050D
:101B0C0040F2291199224FF6FF730095FEF701FE62
:101B1C00009504F1080040F229119A224FF6FF7348
:101B2C00FEF7F7FD02B0B0BD41F220252046C0F60D
:101B3C00010540F22911AB224FF6FF730095FEF719
:101B4C00E8FD009504F1080040F22911AC224FF693
:101B5C00FF73FEF7DEFD02B0B0BD41F2202520463A
:101B6C00C0F6010540F22911A3224FF6FF73009530
:101B7C00FEF7CFFD009504F1080040F22911A422D4
:101B8C004FF6FF73FEF7C5FD02B0B0BD41F2202544
:101B9C002046C0F6010540F2291187224FF6FF734B
:101BAC000095FEF7B6FD009504F1080040F22911EE
:101BBC0088224FF6FF73FEF7ACFD02B0B0BD41F2C8
:101BCC0020252046C0F6010540F229118F224FF640
:101BDC00FF730095FEF79DFD009504F1080040F29F
:101BEC00291190224FF6FF73FEF793FD02B0B0BDA2
:101BFC0041F220252046C0F6010540F2291197221A
:101C0C004FF6FF730095FEF784FD04F1080040F2D7
:101C1C002911982200954FF6FF73FEF77AFD02B05A
:101C2C00B0BD41F220252046C0F6010540F2291135
:101C3C0093224FF6FF730095FEF76BFD009504F1B0
:101C4C00080040F2291194224FF6FF73FEF761FD54
:101C5C0002B0B0BD41F220252046C0F6010540F28D
:101C6C002911A1224FF6FF730095FEF752FD009546
:101C7C0004F1080040F22911A2224FF6FF73FEF77F
:101C8C0048FD02B0B0BD41F220252046C0F601054A
:101C9C0040F22911A9224FF6FF730095FEF739FD8A
:101CAC00009504F1080040F22911AA224FF6FF73A7
:101CBC00FEF72FFD02B0B0BD41F220252046C0F644
:101CCC00010540F2291185224FF6FF730095FEF7AE
:101CDC0020FD009504F1080040F2291186224FF6F0
:101CEC00FF73FEF716FD02B0B0BDF0B503AF4DF8B3
:101CFC00048D4468002C55D006680D468046097842
:101D0C003078814202D0EF20FFF7D8FE012C4DD065
:101D1C006978707881421CBF4FF48770FFF7CEFE54
:101D2C00022C47D0A978B07881421CBF40F22D100C
:101D3C00FFF7C4FE032C41D0E978F07881421CBF38
:101D4C004FF4A670FFF7BAFE042C3BD029793079FA
:101D5C0081421CBF40F26B10FFF7B0FE052C35D052
:101D6C006979707981421CBF4FF4C570FFF7A6FEEC
:101D7C00062C2FD0A979B07981421CBF40F2A91052
:101D8C00FFF79CFE072C29D0E979F07981421CBF22
:101D9C004FF4E470FFF792FE0820C8E900505DF89C
:101DAC00048BF0BD002021460DF098FA012021464D
:101DBC000DF094FA022021460DF090FA03202146F2
:101DCC000DF08CFA042021460DF088FA05202146EE
:101DDC000DF084FA062021460DF080FA07202146EA
:101DEC000DF07CFAF0B503AF2DE9000F8FB0CDE903
:101DFC00091090F84800DFE810F0940363030C001E
:101E0C00080008000800080098000A9801F044FA3D
:101E1C0087E300242C202E21202210230094FFF78E
:101E2C007EFC0A202921642202230094FFF777FC10
:101E3C000A202B21022216230094FFF770FC6C2041
:101E4C002B21022216230094FFF769FC0A20412162
:101E5C00642202230094FFF762FC302052211822E6
:101E6C0010230094FFF75BFC0A204D21642202230F
:101E7C000094FFF754FC0A204F21022216230094F1
:101E8C00FFF74DFC6C204F21022216230094FFF724
:101E9C0046FC0A206521642202230094FFF73FFCD4
:101EAC0030207621182210230094FFF738FC0A20EA
:101EBC007121642202230094FFF731FC0A20732164
:101ECC00022216230094FFF72AFC6C2073210222B5
:101EDC0016230094FFF723FC0A2089216422022395
:101EEC000094FFF71CFC20209A2138221023009428
:101EFC00FFF715FC0A209521642202230094FFF7BA
:101F0C000EFC0A209721022216230094FFF707FCEF
:101F1C006C209721022216230094FFF700FC0094FA
:101F2C000A20AD2164220223F9E2242443F208059D
:101F3C0040F6184A0026C4F20004C4F20105C4F2AB
:101F4C00020A4FF480484FF0000B07E00BF1010B35
:101F5C00CAF80080BBF1080F00F05281CBEBCB0923
:101F6C0018203021102200EBC9001023FEF7CDFC05
:101F7C004FEAC9004FF4807102E0013900F09980FA
:101F8C00226823689B1A592B0BD823689B1A592B50
:101F9C009EBF23689B1A592B03D823689B1A5A2B74
:101FAC00EFD32A68920709D42A6892075CBF2A6883
:101FBC005FEA827202D42A689207F2D56E602A68B0
:101FCC00D20709D12A68D20704BF2A685FEAC27215
:101FDC0002D12A68D207F2D02A68120609D52A68DB
:101FEC00120644BF2A685FEA026202D52A6812060A
:101FFC00F2D46A68226823689B1A592B0BD8236881
:10200C009B1A592B9EBF23689B1A592B03D8236804
:10201C009B1A5A2BEFD3226823689B1A592B0BD887
:10202C0023689B1A592B9EBF23689B1A592B03D8E4
:10203C0023689B1A5A2BEFD32A68920709D42A6873
:10204C0092075CBF2A685FEA827202D42A68920700
:10205C00F2D56E602A68D20709D12A68D20704BF6C
:10206C002A685FEAC27202D12A68D207F2D02A68C3
:10207C00120609D52A68120644BF2A685FEA026272
:10208C0002D52A681206F2D46A68226823689B1A61
:10209C00592B3FF672AF23689B1A592B9EBF2368AE
:1020AC009B1A592B3FF669AF23689B1A5A2BEDD319
:1020BC0063E72D30312110221023CAF80080FEF77F
:1020CC0024FC4FF4807002E001383FF43FAF2168EC
:1020DC002268521A592A0BD82268521A592A9EBFC2
:1020EC002268521A592A03D82268521A5A2AEFD354
:1020FC002968890709D4296889075CBF29685FEAC0
:10210C00817102D429688907F2D56E602968C907E4
:10211C0009D12968C90704BF29685FEAC17102D1D6
:10212C002968C907F2D02968090609D52968090662
:10213C0044BF29685FEA016102D529680906F2D417
:10214C00696821682268521A592A0BD82268521AD7
:10215C00592A9EBF2268521A592A03D82268521A49
:10216C005A2AEFD321682268521A592A0BD82268AE
:10217C00521A592A9EBF2268521A592A03D8226829
:10218C00521A5A2AEFD32968890709D42968890772
:10219C005CBF29685FEA817102D429688907F2D58E
:1021AC006E602968C90709D12968C90704BF296865
:1021BC005FEAC17102D12968C907F2D02968090602
:1021CC0009D52968090644BF29685FEA016102D56F
:1021DC0029680906F2D4696821682268521A592ABA
:1021EC003FF672AF2268521A592A9EBF2268521AC1
:1021FC00592A3FF669AF2268521A5A2AEDD363E77F
:10220C0000264FF480484FF0000B07E00BF1010B58
:10221C00CAF80080BBF1080F00F08381CBEBCB092F
:10222C0018205021102200EBC9001023FEF76DFB83
:10223C004FEAC9004FF4807102E0013900F0998037
:10224C00226823689B1A592B0BD823689B1A592B8D
:10225C009EBF23689B1A592B03D823689B1A5A2BB1
:10226C00EFD32A68920709D42A6892075CBF2A68C0
:10227C005FEA827202D42A689207F2D56E602A68ED
:10228C00D20709D12A68D20704BF2A685FEAC27252
:10229C0002D12A68D207F2D02A68120609D52A6818
:1022AC00120644BF2A685FEA026202D52A68120647
:1022BC00F2D46A68226823689B1A592B0BD82368BE
:1022CC009B1A592B9EBF23689B1A592B03D8236842
:1022DC009B1A5A2BEFD3226823689B1A592B0BD8C5
:1022EC0023689B1A592B9EBF23689B1A592B03D822
:1022FC0023689B1A5A2BEFD32A68920709D42A68B1
:10230C0092075CBF2A685FEA827202D42A6892073D
:10231C00F2D56E602A68D20709D12A68D20704BFA9
:10232C002A685FEAC27202D12A68D207F2D02A6800
:10233C00120609D52A68120644BF2A685FEA0262AF
:10234C0002D52A681206F2D46A68226823689B1A9E
:10235C00592B3FF672AF23689B1A592B9EBF2368EB
:10236C009B1A592B3FF669AF23689B1A5A2BEDD356
:10237C0063E72D30512110221023CAF80080FEF79C
:10238C00C4FA4FF4807002E001383FF43FAF21688B
:10239C002268521A592A0BD82268521A592A9EBFFF
:1023AC002268521A592A03D82268521A5A2AEFD391
:1023BC002968890709D4296889075CBF29685FEAFD
:1023CC00817102D429688907F2D56E602968C90722
:1023DC0009D12968C90704BF29685FEAC17102D114
:1023EC002968C907F2D02968090609D529680906A0
:1023FC0044BF29685FEA016102D529680906F2D455
:10240C00696821682268521A592A0BD82268521A14
:10241C00592A9EBF2268521A592A03D82268521A86
:10242C005A2AEFD321682268521A592A0BD82268EB
:10243C00521A592A9EBF2268521A592A03D8226866
:10244C00521A5A2AEFD32968890709D429688907AF
:10245C005CBF29685FEA817102D429688907F2D5CB
:10246C006E602968C90709D12968C90704BF2968A2
:10247C005FEAC17102D12968C907F2D0296809063F
:10248C0009D52968090644BF29685FEA016102D5AC
:10249C0029680906F2D4696821682268521A592AF7
:1024AC003FF672AF2268521A592A9EBF2268521AFE
:1024BC00592A3FF669AF2268521A5A2AEDD363E7BC
:1024CC00002440F2C110002101221E230094FFF7CA
:1024DC0026F94FF4C5700721102210230094FFF742
:1024EC001EF94FF4D170002101221E230094FFF736
:1024FC0016F940F2A9100721102210230094FFF7BF
:10250C000EF940F28310002101221E230094FFF7E4
:10251C0006F94FF4E4700721102210230094FFF702
:10252C00FEF8DDE909194FF0FF3089F8481050FA30
:10253C0081F0DFE810F00700C7009D00B2008800B2
:10254C0057026C0241F690414846C0F601010E223A
:10255C00FFF759FA41F6C0014846C0F60101FFF7F2
:10256C00C4FB0020D9F81C60C9F824004FF6FF7991
:10257C0040F2C110002101221E23CDF80090FFF77C
:10258C00CEF841F220284FF0FF35C0F60108002E9E
:10259C00CDF8008008BF40F21F454FF4C5700721ED
:1025AC00B1222B464FF0FF34FEF7B3F84FF4C9704D
:1025BC000721B2222B46CDF80080FEF7AAF84FF483
:1025CC00D170002101221E23CDF80090FFF7A7F84F
:1025DC004FF0FF35CDF80080012E08BF40F21F45AB
:1025EC0040F2A91007218B222B46FEF792F840F2FD
:1025FC00B11007218C222B46CDF80080FEF789F80C
:10260C0040F28310002101221E23CDF80090FFF729
:10261C0086F8CDF80080022E08BF40F21F444FF41C
:10262C00E4700721AD222346FEF773F84FF4E870EF
:10263C000721AE222346CDF80080FEF76AF80FB0D2
:10264C00BDE8000FF0BD41F658414846C0F6010107
:10265C000F22FFF7D8F941F680414846C0F6010138
:10266C0001220FB0BDE8000FBDE8F04000F084BEC1
:10267C0041F6B4314846C0F601010C22FFF7C3F90C
:10268C0041F610314846C0F6010106220FB0BDE8F4
:10269C00000FBDE8F04000F06FBE41F6C031484677
:1026AC00C0F601010B22FFF7AEF941F60C4148468A
:1026BC00C0F6010104220FB0BDE8000FBDE8F040E8
:1026CC0000F05ABE41F6E0414846C0F60101142222
:1026DC00FFF799F941F6B0014846C0F60101FFF742
:1026EC0004FB242643F20804D9F824000025C4F284
:1026FC000006C4F201044FF0070A4FF0010B0490DE
:10270C002AE040F21F490A20642202234FEA8C0877
:10271C00CDF80090FFF703F808F12B050A200222F0
:10272C0016232946CDF80090FEF7F9FFCDF800905E
:10273C0029466C2002221623059DFEF7F0FF08F1B6
:10274C0041010A2064220223CDF80090FEF7E7FF36
:10275C000135042D00F0428141F6C04005EBC50C5B
:10276C00C0F60100059500EBC5004168002900F09A
:10277C002581059841F6C042C0F6010252F830009E
:10278C00421806922E22034602EB8C0208924FF658
:10279C00FC72CDF81CC0C7F6FF7202EA8101C1F1D0
:1027AC003C0210E040F618404FF48041C4F20200A5
:1027BC0001600A9A099B06980832DDF81CC0834216
:1027CC00184600F0FB8013F9011BB1F1FF3FCDB2AD
:1027DC001FDC417805F01F0EE02D01F03F0111D3F5
:1027EC008378F02D03F03F0343EA81110ED3C378B5
:1027FC0003F03F0343EA81130EF0070143EA8145DE
:10280C00031D06E041EA8E15831C02E041EA0E35F9
:10281C00C31CCDE909321046089908221023FEF793
:10282C0074F84FF60060202DCFF6FF7000EB05100A
:10283C0038BF4FF4BE60B0F5C06F00F2908441F227
:10284C0097214FF0000EC0F6010101EB000CC0F512
:10285C00C06104E00EF1010EBEF1100FA2D00025F4
:10286C0002E00135082DF5D00EEBD500884280F042
:10287C0074841CF800902AEA05023368D6F80080AC
:10288C00A8EB030059280BD83068C01A59289EBFF2
:10289C003068C01A592803D83068C01A5A28EDD3AA
:1028AC000BFA02F22068800709D4206880075CBF0D
:1028BC0020685FEA807002D420688007F2D519EA9C
:1028CC00020018BFFF2060602268D20709D122687D
:1028DC00D20704BF22685FEAC27202D12268D20713
:1028EC00F2D02268120609D52268120644BF22686B
:1028FC005FEA026202D522681206F2D4626832687C
:10290C0033689B1A592B0BD833689B1A592B9EBFD3
:10291C0033689B1A592B03D833689B1A5A2BEFD365
:10292C00326833689B1A592B0BD833689B1A592B76
:10293C009EBF33689B1A592B03D833689B1A5A2BAA
:10294C00EFD32268920709D4226892075CBF2268F1
:10295C005FEA827202D422689207F2D56060206826
:10296C00C00709D12068C00704BF20685FEAC070A7
:10297C0002D12068C007F2D02068000609D5206873
:10298C00000644BF20685FEA006002D5206800069C
:10299C00F2D4606830683268121A592A3FF661AF77
:1029AC003268121A592A9EBF3268121A592A3FF6F7
:1029BC0058AF3268121A5A2AEDD352E7292000EB8D
:1029CC008C01DDE9040585423FF49BAE08461A21D3
:1029DC00FEF762FF0135042D7FF4BEAE0FB0BDE8EB
:1029EC00000FF0BD41F61C414846C0F601010B2218
:1029FC00FFF709F841F650414846C0F601010222A2
:102A0C000FB0BDE8000FBDE8F04000F0B5BC41F6DA
:102A1C0028310026C0F6010148461022C9F8206072
:102A2C00FEF7F1FF41F6B8014846C0F60101FFF789
:102A3C005CF9A7F12A012425C81C43F2080820F0F0
:102A4C0003004FF0010A401A0590D9F81800C4F29F
:102A5C0000050490C4F20108D9F82000302203903C
:102A6C0031204FF00709012100EB4610029109902B
:102A7C0002EB46100790F0000026069004E0089E3A
:102A8C003022082E00F058830698F6230896C6EBE1
:102A9C00C60B34184CF6CD40CCF6CC40A4FB000150
:102AAC00C80842EAD10100FB034007F82A1C079929
:102ABC000822102340F0300007F8290C182000EBF6
:102ACC00CB00FDF722FF03984FF6FF7640F6D001BE
:102ADC004FEACB0BA04208BF40F21F460498C0F649
:102AEC000101E040C0074FF41F6008BF4FF41560B0
:102AFC0008440021A0F5007C0A9003E00131102964
:102B0C0000F0C880002202E00132082AF6D001EB66
:102B1C00D20029EA02041CF800300AFA04F42868EE
:102B2C0023402C68241A592C0BD82C68241A592CA5
:102B3C009EBF2C68241A592C03D82C68241A5A2CA2
:102B4C00EFD3D8F8000080070CD4D8F80000800729
:102B5C005CBFD8F800005FEA807003D4D8F800009E
:102B6C008007EED5002B18BF3346180AC8F80400AE
:102B7C00D8F80000C0070CD1D8F80000C00704BF7B
:102B8C00D8F800005FEAC07003D1D8F80000C00785
:102B9C00EED0D8F8000000060CD5D8F800000006DE
:102BAC0044BFD8F800005FEA006003D5D8F80000F5
:102BBC000006EED4D8F8040028682C68241A592C86
:102BCC000BD82C68241A592C9EBF2C68241A592C0B
:102BDC0003D82C68241A5A2CEFD328682C68241A92
:102BEC00592C0BD82C68241A592C9EBF2C68241AEB
:102BFC00592C03D82C68241A5A2CEFD3D8F800007F
:102C0C0080070CD4D8F8000080075CBFD8F800000F
:102C1C005FEA807003D4D8F800008007EED5D8B2F4
:102C2C00C8F80400D8F80000C0070CD1D8F8000090
:102C3C00C00704BFD8F800005FEAC07003D1D8F811
:102C4C000000C007EED0D8F8000000060CD5D8F86C
:102C5C000000000644BFD8F800005FEA006003D50E
:102C6C00D8F800000006EED4D8F8040028682B68C9
:102C7C001B1A592B3FF648AF2B681B1A592B9EBFBA
:102C8C002B681B1A592B3FF63FAF2B681B1A5A2B7C
:102C9C00EDD339E740F618404FF48041C4F20200FE
:102CAC00082201600BF1200007991023FDF72DFE7F
:102CBC000A980021DDF820E0A0F5F87C03E0013152
:102CCC00102900F0C880002202E00132082AF6D058
:102CDC0001EBD20029EA02041CF800300AFA04F4D1
:102CEC00286823402C68241A592C0BD82C68241AD9
:102CFC00592C9EBF2C68241A592C03D82C68241AE2
:102D0C005A2CEFD3D8F8000080070CD4D8F8000068
:102D1C0080075CBFD8F800005FEA807003D4D8F855
:102D2C0000008007EED5002B18BF3346180AC8F8F0
:102D3C000400D8F80000C0070CD1D8F80000C00778
:102D4C0004BFD8F800005FEAC07003D1D8F80000C7
:102D5C00C007EED0D8F8000000060CD5D8F800005B
:102D6C00000644BFD8F800005FEA006003D5D8F82D
:102D7C0000000006EED4D8F8040028682C68241A49
:102D8C00592C0BD82C68241A592C9EBF2C68241A49
:102D9C00592C03D82C68241A5A2CEFD328682C6889
:102DAC00241A592C0BD82C68241A592C9EBF2C6829
:102DBC00241A592C03D82C68241A5A2CEFD3D8F87F
:102DCC00000080070CD4D8F8000080075CBFD8F84E
:102DDC0000005FEA807003D4D8F800008007EED5BD
:102DEC00D8B2C8F80400D8F80000C0070CD1D8F845
:102DFC000000C00704BFD8F800005FEAC07003D120
:102E0C00D8F80000C007EED0D8F8000000060CD5AA
:102E1C00D8F80000000644BFD8F800005FEA006054
:102E2C0003D5D8F800000006EED4D8F804002868C2
:102E3C002B681B1A592B3FF648AF2B681B1A592BC2
:102E4C009EBF2B681B1A592B3FF63FAF2B681B1AE2
:102E5C005A2BEDD339E740F618404FF48041C4F2B9
:102E6C0002000EF1010E0160A7F12A03059E00205D
:102E7C001956002923D4311A890703D001300228AE
:102E8C00F6D32DE019560029F9D4012828D01918A9
:102E9C0091F90120002AF1D410B391F90220002AF3
:102EAC0009D4421C1CD091F90310002905D404301C
:102EBC000228E7D114E00230E1E70330DFE741F606
:102ECC001662C9B2C0F60102515C022908BF002883
:102EDC0040F03C8117F9290C10F1410F00F33681B9
:102EEC000BF12D0B0024CDF820E00EE040F618403D
:102EFC004FF48041C4F202000BF1080B0160A7F102
:102F0C002A030A9C022C3FF4BAAD1957601CB1F18C
:102F1C00FF3FCEB201DD0A9022E0185CA21CE02E2D
:102F2C0000F03F0106F01F0014D39A5CF02E02F063
:102F3C003F0242EA811104F103020ED39A5C00F0C5
:102F4C00070004340A9402F03F0242EA811141EA7C
:102F5C00804605E041EA801601E041EA00360A921B
:102F6C000999584608221023FDF7CFFC4FF6006054
:102F7C00202ECFF6FF7000EB061038BF4FF4BE606A
:102F8C00B0F5156F00F2EF8040F6D0014FF0000E57
:102F9C00C0F6010101EB000CC0F5156104E00EF167
:102FAC00010EBEF1100FA1D0002602E00136082E52
:102FBC00F5D00EEBD600884280F0CF801CF80000D4
:102FCC0029EA06042A682B689B1A592B0BD82B6804
:102FDC009B1A592B9EBF2B689B1A592B03D82B6815
:102FEC009B1A5A2BEFD30AFA04F2D8F800309B073D
:102FFC000CD4D8F800309B075CBFD8F800305FEADF
:10300C00837303D4D8F800309B07EED5104018BF5B
:10301C00FF20C8F80400D8F80020D2070CD1D8F84B
:10302C000020D20704BFD8F800205FEAC27203D197
:10303C00D8F80020D207EED0D8F8002012060CD514
:10304C00D8F80020120644BFD8F800205FEA0262CC
:10305C0003D5D8F800201206EED4D8F804202A683C
:10306C002B689B1A592B0BD82B689B1A592B9EBF7C
:10307C002B689B1A592B03D82B689B1A5A2BEFD30E
:10308C002A682B689B1A592B0BD82B689B1A592B27
:10309C009EBF2B689B1A592B03D82B689B1A5A2B53
:1030AC00EFD3D8F8002092070CD4D8F80020920760
:1030BC005CBFD8F800205FEA827203D4D8F80020F5
:1030CC009207EED5C8F80400D8F80000C0070CD160
:1030DC00D8F80000C00704BFD8F800005FEAC07041
:1030EC0003D1D8F80000C007EED0D8F800000006D5
:1030FC000CD5D8F80000000644BFD8F800005FEAF1
:10310C00006003D5D8F800000006EED4D8F804000F
:10311C0028682A68121A592A3FF648AF2A68121AE8
:10312C00592A9EBF2A68121A592A3FF63FAF2A68BD
:10313C00121A5A2AEDD339E7029801260021C0074A
:10314C004FF031007FF490ACFFF748BC41F6A04142
:10315C000CA8C0F601010CF0A1FC0CF0BFF84FF468
:10316C00C0610CF09FFC4FF415610CF09BFCF0B5AA
:10317C0003AF2DE9000B82B00B4602464169806A11
:10318C0088427ED208287ED21169DBB251F8201019
:10319C000E687168994279D9024492F82C209142B8
:1031AC0077D9316800EB8000357A01EBC30301EB72
:1031BC00C206D6F804805B6851F832604FF03B02CF
:1031CC0002EBC009A3EB08004FEAC8014FEAC002AA
:1031DC002DB1C1F16C05002A0CDDA81A04E0002AFF
:1031EC0047DD01F10C000C2500211023009149460C
:1031FC00FEF795FAB8F1000F3FD006EB080441F248
:10320C002028C0F6010810E043EA8112861C2846EB
:10321C0049464FF6FF73CDF80080202A38BF7F2235
:10322C00FDF777FA0835A64227D0304616F9011B70
:10323C00B1F1FF3FCAB2EADC437802F01F01E02A89
:10324C0003F03F03E0D38678F02A06F03F0646EA07
:10325C0083130AD3C27801F00701061D02F03F0266
:10326C0042EA831242EA8142D1E743EA0132C61CA8
:10327C00CDE70C25B8F1000FBFD102B0BDE8000BB3
:10328C00F0BD0CF02BF808210CF028F818460CF0C7
:10329C0025F810460CF022F8F0B503AF2DE9000F1D
:1032AC0081B0416900295FD0D0F8108000F12C0664
:1032BC004FEA81094B244FF0000A58F8040BA4F193
:1032CC0022011023D0F800B08068CDF800A0C20015
:1032DC000A20FEF724FAA4F112010A206422022328
:1032EC00CDF800A0FEF71BFAA4F110050A2002226B
:1032FC0010232946CDF800A0FEF711FA6C202946C0
:10330C0002221023CDF800A0FEF709FA0A2021466C
:10331C0064220223CDF800A0FEF701FA40F28B10D4
:10332C00844225D0DBF804103078814222D9DBF8B6
:10333C00001010239BF8082001EBC000002A4FF06E
:10334C006C0241684FF00C00CDF800A018BFA2EB46
:10335C00C100CA002946FEF7E2F9B9F1040904F1EB
:10336C00280406F10106A8D101B0BDE8000FF0BD9C
:10337C00082008210BF0B2FFF0B503AF2DE9000FC8
:10338C008BB00D4641F6D801064600201446B062BB
:10339C00C0F601013046C6E90454FEF7A6FC05EB65
:1033AC008400242443F20808019006F12C000390B9
:1033BC00B06AC4F20004C4F201084FF007094FF0E0
:1033CC00010A0022029007E0049D079A0198043537
:1033DC000132854200F0AD82082A00F0B2822B68DF
:1033EC000020039904950792885402EB8200996897
:1033FC00CDE90503002900F02D8106982922059BB3
:10340C004FF00A0B406802EBC30209920144089189
:10341C0002460EE040F618404FF48041C4F2020020
:10342C000BF1080B01600A9A08988242104600F0D2
:10343C00118112F9011BB1F1FF3FCDB21FDC4278B3
:10344C0005F01F01E02D02F03F0211D38378F02D1F
:10345C0003F03F0343EA82120ED3C37801F0070155
:10346C0003F03F0343EA821242EA8145021D06E063
:10347C0042EA8115821C02E042EA0135C21C09991C
:10348C0058460A9208221023FDF73FFA4FF60060C7
:10349C00202DCFF6FF7000EB051038BF4FF4BE6047
:1034AC00B0F5156F00F2498240F6D0010023C0F64A
:1034BC00010101EB000CC0F5156102E00133102B8A
:1034CC00A8D0002502E00135082DF7D003EBD5007C
:1034DC00884280F02C821CF8000029EA050226683C
:1034EC000AFA02F210402268921B592A0BD8226861
:1034FC00921B592A9EBF2268921B592A03D8226814
:10350C00921B5A2AEFD3D8F8002092070CD4D8F883
:10351C00002092075CBFD8F800205FEA827203D4C7
:10352C00D8F800209207EED5002818BFFF20C8F865
:10353C000400D8F80020D2070CD1D8F80020D2070C
:10354C0004BFD8F800205FEAC27203D1D8F800207B
:10355C00D207EED0D8F8002012060CD5D8F80020EF
:10356C00120644BFD8F800205FEA026203D5D8F8EF
:10357C0000201206EED4D8F8042026682268921B8C
:10358C00592A0BD82268921B592A9EBF2268921B7B
:10359C00592A03D82268921B5A2AEFD3266822682C
:1035AC00921B592A0BD82268921B592A9EBF22685B
:1035BC00921B592A03D82268921B5A2AEFD3D8F8A7
:1035CC00002092070CD4D8F8002092075CBFD8F8E2
:1035DC0000205FEA827203D4D8F800209207EED55F
:1035EC00C8F80400D8F80000C0070CD1D8F80000C7
:1035FC00C00704BFD8F800005FEAC07003D1D8F848
:10360C000000C007EED0D8F8000000060CD5D8F8A2
:10361C000000000644BFD8F800005FEA006003D544
:10362C00D8F800000006EED4D8F804002068226810
:10363C00121A592A3FF647AF2268121A592A9EBF0E
:10364C002268121A592A3FF63EAF2268121A5A2AD9
:10365C00EDD338E70598079AC600029806F13901B0
:10366C00904224D140F21F4B0A2064220223CDF851
:10367C0000B0FEF754F806F13B050A200222102395
:10368C002946CDF800B0FEF74AF86C2029460222F4
:10369C001023CDF800B0FEF742F806F14B010A20DA
:1036AC0064220223CDF800B0FEF739F803E0084697
:1036BC001421FEF7F1F8069801684868002800F01C
:1036CC00448108684268002A3FF47EAE006806F127
:1036DC003B03097A4FF00C0B0993831800290893CC
:1036EC004FF06C0118BFA1EBC20B02460EE040F686
:1036FC0018404FF48041C4F202000BF1080B01603A
:10370C000A9A0898824210463FF45EAE12F9011BE9
:10371C00B1F1FF3FCDB21FDC427805F01F01E02D67
:10372C0002F03F0211D38378F02D03F03F0343EAFC
:10373C0082120ED3C37801F0070103F03F0343EA72
:10374C00821242EA8145021D06E042EA8115821C82
:10375C0002E042EA0135C21C099958460A92082235
:10376C001023FDF7D2F84FF60060202DCFF6FF7036
:10377C0000EB051038BF4FF4BE60B0F5156F00F2CA
:10378C00DC8040F6D0010023C0F6010101EB000CF7
:10379C00C0F5156102E00133102BA8D0002502E022
:1037AC000135082DF7D003EBD500884280F0BF809F
:1037BC001CF8000029EA050226680AFA02F21040F9
:1037CC002268921B592A0BD82268921B592A9EBF39
:1037DC002268921B592A03D82268921B5A2AEFD3CB
:1037EC00D8F8002092070CD4D8F8002092075CBFC0
:1037FC00D8F800205FEA827203D4D8F80020920730
:10380C00EED5002818BFFF20C8F80400D8F8002017
:10381C00D2070CD1D8F80020D20704BFD8F800206A
:10382C005FEAC27203D1D8F80020D207EED0D8F8E4
:10383C00002012060CD5D8F80020120644BFD8F888
:10384C0000205FEA026203D5D8F800201206EED4FD
:10385C00D8F8042026682268921B592A0BD82268B3
:10386C00921B592A9EBF2268921B592A03D82268A0
:10387C00921B5A2AEFD326682268921B592A0BD81E
:10388C002268921B592A9EBF2268921B592A03D880
:10389C002268921B5A2AEFD3D8F8002092070CD436
:1038AC00D8F8002092075CBFD8F800205FEA82723B
:1038BC0003D4D8F800209207EED5C8F80400D8F845
:1038CC000000C0070CD1D8F80000C00704BFD8F81E
:1038DC0000005FEAC07003D1D8F80000C007EED03A
:1038EC00D8F8000000060CD5D8F80000000644BF3C
:1038FC00D8F800005FEA006003D5D8F80000000695
:10390C00EED4D8F8040020682268121A592A3FF61F
:10391C0047AF2268121A592A9EBF2268121A592AD6
:10392C003FF63EAF2268121A5A2AEDD338E70BF055
:10393C00D5FC0BB0BDE8000FF0BD4FF415610CF0D9
:10394C00B1F8082008210BF0C9FC002000210BF075
:10395C00C5FCD4D4F0B503AF2DE9000782B04FF00D
:10396C00FF3252FA81F1052941D8DFE801F0035703
:10397C00449240AC856A4FF0390A4469804605EBA5
:10398C0085010AEBC10108461421FDF785FF40F2C1
:10399C001F49002DCDF8009018BF2C46661E0A203A
:1039AC006422022306EB86050AEBC501FDF7B7FE80
:1039BC003B2000EBC5040A20022221461023CDF83F
:1039CC000090FDF7ACFE6C20214602221023CDF8AE
:1039DC000090FDF7A4FE4B2000EBC5010A206422E9
:1039EC000223CDF80090FDF79AFEC8F8286002B0CB
:1039FC00BDE80007F0BD826A072A6CD841698A428B
:103A0C006DD2066900F12C03995C56F822600029EE
:103A1C003668367918BF0E46013E4CE041694FF0CE
:103A2C003908826A0139541A4FF0140118BF541C1A
:103A3C00846202EB820008EBC000FDF72DFF04EB63
:103A4C00840640F21F450A20642208EBC6010223BB
:103A5C000095FDF764FE3B2000EBC6040A20022211
:103A6C00214610230095FDF75AFE6C2021460222B8
:103A7C0010230095FDF753FE4B2000EBC6010A20E6
:103A8C00642202230095FDF74AFE02B0BDE8000750
:103A9C00F0BD826A072A1ED841698A421FD2066984
:103AAC0000F12C03995C56F8226036687668013E6A
:103ABC00761A18BF4E1C9E5402B0BDE80007BDE834
:103ACC00F040FFF754BB022102B0BDE80007BDE88F
:103ADC00F040FEF787B9104608210BF0FFFB1046AB
:103AEC000BF0FCFB80B56F4600F000F880B56F461C
:103AFC00B0B00CF07CFD04460CF06CFD40F2000103
:103B0C0004F00100C2F200010A78002A4BF079831C
:103B1C00012200280A7008BF0CF05EFD49F2FF4438
:103B2C0041F200250020C0F6BA24611CCDE900103A
:103B3C00C0F27A051DA82946012201230BF0CAFF09
:103B4C001D9802280BF08E83C0070BF098831E98EB
:103B5C0045F60172C0F64C12A0F1B771A1F558519F
:103B6C0091428BF0578301194EF22F32C0F2BE02F4
:103B7C00090AA1FB0213D90A01290CD0022907D08A
:103B8C0000290BF037834FF400714FF0F00804E07C
:103B9C004FF0800801E04FF000084AF24055B0FBAE
:103BAC00F1F1C0F2AE254B19013B9B09A3FB023688
:103BBC00F30A012B0BD0022B06D0002B0BF01A832F
:103BCC0004234FF4A05A04E04FF4805A01E04FF064
:103BDC00000AB1FBF3F46B1C9C428BF0228344F67D
:103BEC007F23C0F25D53CE18F609A6FB0226F20A1B
:103BFC00012A0BD0022A06D0002A0BF0FB820422E9
:103C0C004FF4204B04E04FF4004B01E04FF0000B5D
:103C1C00B1FBF2F69A1C96428BF00A83013845F2FE
:103C2C00C742C0F21E120894C00943F60004A0FB60
:103C3C000202C4F20204D4F800040009920A60F3F0
:103C4C001F1242F4E060C4F80004206840F4803095
:103C5C0020602068800309D4206880035CBF206842
:103C6C005FEA803002D420688003F2D5206840F0EF
:103C7C008070206047F60120C0F6032081422FD3CC
:103C8C00206C40F0805020640CF0AEFC47F2040035
:103C9C00C4F2000050F8041C41F4803140F8041CBC
:103CAC000168C90309D40168C9035CBF01685FEAF4
:103CBC00C13102D40168C903F2D550F8041C41F497
:103CCC00003140F8041C0168890309D40168890398
:103CDC005CBF01685FEA813102D401688903F2D5C7
:103CEC0009962068800109D4206880015CBF206897
:103CFC005FEA801002D420688001F2D5A0684FF6EC
:103D0C00F04220F40000A060D4F88C0020F4700085
:103D1C00C4F88C00A1684AEA080040EA0B00914301
:103D2C000843A06010200CF059FCA0680221012669
:103D3C0061F30100A060206B40F039002063606CDF
:103D4C0040F48050606440F20C60C4F2472006607E
:103D5C000CF04AFC40F2002A40F2000945F25550A2
:103D6C00C4F2472ACAF80C600026C4F20209C5F254
:103D7C00000040F61842CAF80C60C9F8000C45F275
:103D8C005550C4F20202C0F24000C2F8E80341F2FE
:103D9C000800C4F202004FF0A061C0F8F81348F21A
:103DAC00FF0141F21843116040F6FF01C4F2020317
:103DBC00016145F255514FF6FF7842F80C1C4160F9
:103DCC0040F2240B43F80C1CC4F2000BC3F8F413A0
:103DDC004FF0FF3142F8108CC0F80080C0F800841E
:103DEC00C3F8F083206C40F0010020644FF0804059
:103DFC00012406604BF8206CCBF80460CBF808105B
:103E0C004BF8186C016841F001010160CAF80044DC
:103E1C000CF0EAFBCAF800400521CAF80060022247
:103E2C00C9F80880D9F8040020F02000C9F8040073
:103E3C00D9F8200061F31750C9F82000D9F8000018
:103E4C0062F38B20C9F80000D9F8040020F0400080
:103E5C00C9F80400D9F8200061F31B60C9F82000F0
:103E6C00D9F8000062F30D30C9F80000D9F804004D
:103E7C0020F08000C9F80400D9F8200061F31F700D
:103E8C00C9F82000D9F8000062F38F30C9F800009F
:103E9C0040F20C60C4F24720C0F8A4420CF0A4FB22
:103EAC0043F20808CAF8B042C4F20108CAF8B0627A
:103EBC0028F8046C48F27F40099AC0F21E00824236
:103ECC004BF2988148F680500024C0F25B0082428D
:103EDC004FF0000017D341F60030C0F2B700824219
:103EEC0001D208200FE043F20060C0F26E10824253
:103EFC0001D2102007E046F600412020C0F2DC2160
:103F0C008A4238BF182040F4417028F8080C38F861
:103F1C00080C40F6184243F2BF71C4F2020208408A
:103F2C000721403028F8080C52F8140C012620F414
:103F3C00807042F8140CD06861F30300D060D9F89B
:103F4C00000C022161F31140C9F8000C40F20C6026
:103F5C00C4F24720C0F83C620CF046FB40F2002053
:103F6C00C4F24720C0F84862C0F848420899480B90
:103F7C00E02816D8B1F5612FCBF0A9814FF4614040
:103F8C0000EB41004BF2C531C9F2A211A0FB0101BB
:103F9C00702000EA1140C1F342410A184AF20C01A8
:103FAC000AE001F561404BF2C531C9F2A211A0FB48
:103FBC0001010A0C42F20C0144F60000C4F20000AC
:103FCC008260002202614261C160026101680906DF
:103FDC00FCD54921416001680906FCD5542141609A
:103FEC0001680906FCD55321416001680906FCD51E
:103FFC002D21416001680906FCD542214160016810
:10400C000906FCD56F21416001680906FCD56121C8
:10401C00416001680906FCD57221416001680906FE
:10402C00FCD56421416001680906FCD52021416062
:10403C0001680906FCD56921416001680906FCD5B7
:10404C006E21416001680906FCD569214160016857
:10405C000906FCD57421416001680906FCD569216B
:10406C00416001680906FCD56121416001680906BF
:10407C00FCD56C21416001680906FCD569214160C1
:10408C0001680906FCD57A21416001680906FCD556
:10409C006521416001680906FCD564214160016815
:1040AC000906FCD50A2141600168090609D401689A
:1040BC0009065CBF01685FEA016102D40168090668
:1040CC00F2D50A21416041F218414FF48050C4F2FC
:1040DC0002010860DBF80000DBF80010091AA942A5
:1040EC000ED2DBF80010091AA9423EBFDBF8001013
:1040FC00091AA94204D2DBF80010091AA942EBD321
:10410C0041F218414FF08050C4F202010860DBF814
:10411C000000DBF80010091AA9420ED2DBF80010DF
:10412C00091AA9423EBFDBF80010091AA94204D2B1
:10413C00DBF80010091AA942EBD341F218414FF4F5
:10414C008050C4F202010860DBF80000DBF80010BC
:10415C00091AA9420ED2DBF80010091AA9423EBF77
:10416C00DBF80010091AA94204D2DBF80010091A76
:10417C00A942EBD341F230264FF0000E4FF0005C19
:10418C004FF0804AC0F601064FF480454FF40059B9
:10419C00002002E0672880F0608141F2184140F66F
:1041AC001842C4F20201C4F20202C1F800C0315C30
:1041BC00C2F800A0DBF80020DBF80040A41A592C50
:1041CC000ED8DBF80040A41A592C9EBFDBF8004037
:1041DC00A41A592C04D8DBF80040A41A5A2CEBD39F
:1041EC00D8F8002092070CD4D8F8002092075CBFB6
:1041FC00D8F800205FEA827203D4D8F80020920726
:10420C00EED5C8F80410D8F80010C9070CD1D8F8AE
:10421C000010C90704BFD8F800105FEAC17103D1C0
:10422C00D8F80010C907EED0D8F8001009060CD544
:10423C00D8F80010090644BFD8F800105FEA0161F5
:10424C0003D5D8F800100906EED4D8F80410DBF822
:10425C000010DBF80020521A592A0ED8DBF8002087
:10426C00521A592A9EBFDBF80020521A592A04D838
:10427C00DBF80020521A5A2AEBD340F61841662874
:10428C00C4F202010D600AF0E587811902304A7808
:10429C0052B97FE740F61841013AC4F202010130ED
:1042AC000D6011063FF476AF66280AF2A08741F242
:1042BC00184140F61843C4F20201C4F20203C1F8DB
:1042CC000090315CC3F800A0DBF80040DBF8003054
:1042DC001B1B592B0ED8DBF800301B1B592B9EBF18
:1042EC00DBF800301B1B592B04D8DBF800301B1BF0
:1042FC005A2BEBD3D8F800309B070CD4D8F80030ED
:10430C009B075CBFD8F800305FEA837303D4D8F8FE
:10431C0000309B07EED5C8F804E0D8F80030DB0776
:10432C000CD1D8F80030DB0704BFD8F800305FEAB6
:10433C00C37303D1D8F80030DB07EED0D8F80030C7
:10434C001B060CD5D8F800301B0644BFD8F800303B
:10435C005FEA036303D5D8F800301B06EED4D8F817
:10436C000430DBF80040DBF800301B1B592B0ED857
:10437C00DBF800301B1B592B9EBFDBF800301B1BDE
:10438C00592B04D8DBF800301B1B5A2BEBD3DBF872
:10439C000040DBF800301B1B592B0ED8DBF800302B
:1043AC001B1B592B9EBFDBF800301B1B592B04D851
:1043BC00DBF800301B1B5A2BEBD3D8F800309B07D3
:1043CC000CD4D8F800309B075CBFD8F800305FEAFB
:1043DC00837303D4D8F800309B07EED5C8F80410CB
:1043EC00D8F80010C9070CD1D8F80010C90704BFC1
:1043FC00D8F800105FEAC17103D1D8F80010C907D2
:10440C00EED0D8F8001009060CD5D8F80010090623
:10441C0044BFD8F800105FEA016103D5D8F800104A
:10442C000906EED4D8F80410DBF80010DBF80030E5
:10443C005B1A592B3FF62EAFDBF800305B1A592B69
:10444C009EBFDBF800305B1A592B3FF623AFDBF82D
:10445C0000305B1A5A2BE9D31CE741F218414FF09C
:10446C000050C4F20201086040F618414FF0804041
:10447C00C4F202010860DBF80000DBF80010091A36
:10448C0059290ED8DBF80010091A59299EBFDBF800
:10449C000010091A592904D8DBF80010091A5A29F6
:1044AC00EBD30DF17409D8F8000080070CD4D8F8C0
:1044BC00000080075CBFD8F800005FEA807003D46E
:1044CC00D8F800008007EED5B620C8F80400D8F85C
:1044DC000000C0070CD1D8F80000C00704BFD8F802
:1044EC0000005FEAC07003D1D8F80000C007EED01E
:1044FC00D8F8000000060CD5D8F80000000644BF20
:10450C00D8F800005FEA006003D5D8F80000000678
:10451C00EED4D8F80400DBF80000DBF80010091A20
:10452C0059290ED8DBF80010091A59299EBFDBF85F
:10453C000010091A592904D8DBF80010091A5A2955
:10454C00EBD340F6184141F218424FF48040C4F2CC
:10455C00020108604FF40050C4F2020210604FF0E8
:10456C0080400860DBF80000DBF80010091A5929BC
:10457C000ED8DBF80010091A59299EBFDBF8001081
:10458C00091A592904D8DBF80010091A5A29EBD357
:10459C00D8F8000080070CD4D8F8000080075CBF66
:1045AC00D8F800005FEA807003D4D8F800008007C8
:1045BC00EED50020C8F80400D8F80000C0070CD1D4
:1045CC00D8F80000C00704BFD8F800005FEAC0703C
:1045DC0003D1D8F80000C007EED0D8F800000006D0
:1045EC000CD5D8F80000000644BFD8F800005FEAEC
:1045FC00006003D5D8F800000006EED4D8F804000B
:10460C00DBF80000DBF80010091A59290ED8DBF88A
:10461C000010091A59299EBFDBF80010091A5929F4
:10462C0004D8DBF80010091A5A29EBD3DBF8000088
:10463C00DBF80010091A59290ED8DBF80010091AFA
:10464C0059299EBFDBF80010091A592904D8DBF848
:10465C000010091A5A29EBD3D8F8000080070CD4A3
:10466C00D8F8000080075CBFD8F800005FEA8070C3
:10467C0003D4D8F800008007EED50020C8F8040059
:10468C00D8F80000C0070CD1D8F80000C00704BF50
:10469C00D8F800005FEAC07003D1D8F80000C0075A
:1046AC00EED0D8F8000000060CD5D8F800000006B3
:1046BC0044BFD8F800005FEA006003D5D8F80000CA
:1046CC000006EED4D8F80400DBF80000DBF800108C
:1046DC00091A59290ED8DBF80010091A59299EBF5E
:1046EC00DBF80010091A592904D8DBF80010091A54
:1046FC005A29EBD340F6184141F218424FF480404E
:10470C00C4F2020108604FF40050C4F202021060BF
:10471C004FF080400860DBF80000DBF80010091A4D
:10472C0059290ED8DBF80010091A59299EBFDBF85D
:10473C000010091A592904D8DBF80010091A5A2953
:10474C00EBD3D8F8000080070CD4D8F80000800711
:10475C005CBFD8F800005FEA807003D4D8F8000082
:10476C008007EED50020C8F80400D8F80000C00778
:10477C000CD1D8F80000C00704BFD8F800005FEADD
:10478C00C07003D1D8F80000C007EED0D8F80000F4
:10479C0000060CD5D8F80000000644BFD8F800007D
:1047AC005FEA006003D5D8F800000006EED4D8F814
:1047BC000400DBF80000DBF80010091A59290ED8A8
:1047CC00DBF80010091A59299EBFDBF80010091AF2
:1047DC00592904D8DBF80010091A5A29EBD3DBF855
:1047EC000000DBF80010091A59290ED8DBF800106C
:1047FC00091A59299EBFDBF80010091A592904D847
:10480C00DBF80010091A5A29EBD3D8F800008007FE
:10481C000CD4D8F8000080075CBFD8F800005FEA21
:10482C00807003D4D8F800008007EED56220C8F859
:10483C000400D8F80000C0070CD1D8F80000C0075D
:10484C0004BFD8F800005FEAC07003D1D8F80000AC
:10485C00C007EED0D8F8000000060CD5D8F8000040
:10486C00000644BFD8F800005FEA006003D5D8F812
:10487C0000000006EED4D8F80400DBF80000DBF8EA
:10488C000010091A59290ED8DBF80010091A5929F9
:10489C009EBFDBF80010091A592904D8DBF8001068
:1048AC00091A5A29EBD340F6184141F218424FF439
:1048BC008040C4F2020108604FF00050C4F20202C2
:1048CC0010604FF080400860DBF80000DBF800104F
:1048DC00091A59290ED8DBF80010091A59299EBF5C
:1048EC00DBF80010091A592904D8DBF80010091A52
:1048FC005A29EBD3D8F8000080070CD4D8F8000064
:10490C0080075CBFD8F800005FEA807003D4D8F849
:10491C0000008007EED53620C8F80400D8F8000057
:10492C00C0070CD1D8F80000C00704BFD8F80000AD
:10493C005FEAC07003D1D8F80000C007EED0D8F8F9
:10494C00000000060CD5D8F80000000644BFD8F8CB
:10495C0000005FEA006003D5D8F800000006EED432
:10496C00D8F80400DBF80000DBF80010091A59290C
:10497C000ED8DBF80010091A59299EBFDBF800107D
:10498C00091A592904D8DBF80010091A5A29EBD353
:10499C0040F6184141F218424FF48040C4F2020133
:1049AC0008604FF40050C4F2020210604FF08040D7
:1049BC000860DBF80000DBF80010091A59290ED842
:1049CC00DBF80010091A59299EBFDBF80010091AF0
:1049DC00592904D8DBF80010091A5A29EBD3D8F856
:1049EC00000080070CD4D8F8000080075CBFD8F812
:1049FC0000005FEA807003D4D8F800008007EED581
:104A0C000020C8F80400D8F80000C0070CD1D8F872
:104A1C000000C00704BFD8F800005FEAC07003D1E3
:104A2C00D8F80000C007EED0D8F8000000060CD56E
:104A3C00D8F80000000644BFD8F800005FEA006018
:104A4C0003D5D8F800000006EED4D8F80400DBF843
:104A5C000000DBF80010091A59290ED8DBF80010F9
:104A6C00091A59299EBFDBF80010091A592904D8D4
:104A7C00DBF80010091A5A29EBD3DBF80000DBF83D
:104A8C000010091A59290ED8DBF80010091A5929F7
:104A9C009EBFDBF80010091A592904D8DBF8001066
:104AAC00091A5A29EBD3D8F8000080070CD4D8F88F
:104ABC00000080075CBFD8F800005FEA807003D468
:104ACC00D8F800008007EED52820C8F80400D8F8E4
:104ADC000000C0070CD1D8F80000C00704BFD8F8FC
:104AEC0000005FEAC07003D1D8F80000C007EED018
:104AFC00D8F8000000060CD5D8F80000000644BF1A
:104B0C00D8F800005FEA006003D5D8F80000000672
:104B1C00EED4D8F80400DBF80000DBF80010091A1A
:104B2C0059290ED8DBF80010091A59299EBFDBF859
:104B3C000010091A592904D8DBF80010091A5A294F
:104B4C00EBD340F618414FF48040C4F202010860E8
:104B5C004AF68001DBF80000C0F21211DBF80020ED
:104B6C00121A8A420ED2DBF80020121A8A423EBF79
:104B7C00DBF80020121A8A4204D2DBF80020121A49
:104B8C008A42EBD341F218414FF00050C4F20201BB
:104B9C00086040F618414FF08040C4F202010860F2
:104BAC00DBF80000DBF80010091A59290ED8DBF8E5
:104BBC000010091A59299EBFDBF80010091A59294F
:104BCC0004D8DBF80010091A5A29EBD3D8F80000E6
:104BDC0080070CD4D8F8000080075CBFD8F8000020
:104BEC005FEA807003D4D8F800008007EED511205E
:104BFC00C8F80400D8F80000C0070CD1D8F80000A1
:104C0C00C00704BFD8F800005FEAC07003D1D8F821
:104C1C000000C007EED0D8F8000000060CD5D8F87C
:104C2C000000000644BFD8F800005FEA006003D51E
:104C3C00D8F800000006EED4D8F80400DBF8000029
:104C4C00DBF80010091A59290ED8DBF80010091AE4
:104C5C0059299EBFDBF80010091A592904D8DBF832
:104C6C000010091A5A29EBD340F618414FF4804032
:104C7C00C4F2020108604CF68031DBF80000C0F28F
:104C8C00A401DBF80020121A8A420ED2DBF80020B5
:104C9C00121A8A423EBFDBF80020121A8A4204D252
:104CAC00DBF80020121A8A42EBD341F218414FF084
:104CBC000050C4F20201086040F618414FF08040E9
:104CCC00C4F202010860DBF80000DBF80010091ADE
:104CDC0059290ED8DBF80010091A59299EBFDBF8A8
:104CEC000010091A592904D8DBF80010091A5A299E
:104CFC00EBD3D8F8000080070CD4D8F8000080075C
:104D0C005CBFD8F800005FEA807003D4D8F80000CC
:104D1C008007EED52920C8F80400D8F80000C00799
:104D2C000CD1D8F80000C00704BFD8F800005FEA27
:104D3C00C07003D1D8F80000C007EED0D8F800003E
:104D4C0000060CD5D8F80000000644BFD8F80000C7
:104D5C005FEA006003D5D8F800000006EED4D8F85E
:104D6C000400DBF80000DBF80010091A59290ED8F2
:104D7C00DBF80010091A59299EBFDBF80010091A3C
:104D8C00592904D8DBF80010091A5A29EBD340F63C
:104D9C0018414FF48040C4F2020100250860002045
:104DAC0000214FF4F0724FF4A0730095FCF7B7FCA0
:104DBC004FF6FF7400201E214FF4F0720123009473
:104DCC000126FCF7ACFC002040F221114FF4F072EC
:104DDC0001230094FCF7A3FC4AF6552041F6383128
:104DEC00239008201E9041F6C800C0F60100C0F6C2
:104DFC0001011D900620229041F61030C0F60100F2
:104E0C00102221904846CDE92D55CDE92B558DF832
:104E1C00BC50CDE91F65CDE92455CDE92655CDE92A
:104E2C0028552A95FCF7EFFD41F648314846C0F667
:104E3C0001011D22FCF786FD41F665314846C0F69E
:104E4C0001013222FCF77EFD2A9810288AF0198283
:104E5C0009F138011D220D5441F69731C0F60101BC
:104E6C002A9801302A901DA8FCF76CFD00204FF405
:104E7C0091714FF4F0721E230095FCF750FC40F238
:104E8C00C1104FF4917101221E230094FCF747FCD2
:104E9C004FF4D1704FF4917101221E230094FCF752
:104EAC003EFC40F283104FF4917101221E230094BA
:104EBC00FCF735FC4FF4B2704FF4917101221E23B4
:104ECC000094FCF72CFC40F245104FF49171012238
:104EDC001E230094FCF723FC4FF493704FF4917154
:104EEC0001221E230094FCF71AFC40F207104FF429
:104EFC00917101221E230094FCF711FCE8204FF461
:104F0C00917101221E230094FCF709FC1E9E002EB9
:104F1C000AF0D9811D9C217811B1EF20FCF7CEFD50
:104F2C00012E0AF0B181617800291CBF4FF4877003
:104F3C00FCF7C4FD022E0AF0AC81A17800291CBF3D
:104F4C0040F22D10FCF7BAFD032E0AF0A781E17890
:104F5C0000291CBF4FF4A670FCF7B0FD042E0AF01C
:104F6C00A281217900291CBF40F26B10FCF7A6FD31
:104F7C00052E0AF09D81617900291CBF4FF4C57084
:104F8C00FCF79CFD062E0AF09881A17900291CBF24
:104F9C0040F2A910FCF792FD072E0AF09381E179FB
:104FAC0000291CBF4FF4E470FCF788FD1DAC0AA867
:104FBC004C2221460BF01EFB45F68F7C0023C0F2E1
:104FCC00010C4FF001094FF0070A0020CDE9233303
:104FDC00CDE92133CDE91F33CDE91D3300E0704617
:104FEC00DBF800E0AEEB000161450CD8DBF800E02B
:104FFC00AEEB000161459EBFDBF800E0AEEB0001BB
:10500C0061454AF2E58041F218400022C4F20200E8
:10501C0050F8080CCDF81CE0C0B2089005E090B137
:10502C00322038E00132082AD9D0D1B2099254F892
:10503C002200089A22FA01F1C907F0D0099A002837
:10504C00F0D0013827E009980B99C0F1070088428D
:10505C008AF0C7800A99095C9DF87000DFE810F0AF
:10506C00280206030F0004010800080008000E01C6
:10507C000729D5D00AA8FEF76DFC07F091BC0139C1
:10508C003220052907D8DFE811F00A00E6060600F1
:10509C000600D906F504099A44F82200C2E71398D1
:1050AC00002807F03585461E042813968AF0C78021
:1050BC0000EBC00429206422012300EB84010A20A8
:1050CC006425FBF722FCA00000220690FF2402E0DE
:1050DC00013D02F0C684DBF80000DBF80010091A71
:1050EC0059290ED8DBF80010091A59299EBFDBF894
:1050FC000010091A592904D8DBF80010091A5A298A
:10510C00EBD3D8F8000080070CD4D8F80000800747
:10511C005CBFD8F800005FEA807003D4D8F80000B8
:10512C008007EED5C8F80420D8F80000C0070CD1D1
:10513C00D8F80000C00704BFD8F800005FEAC070C0
:10514C0003D1D8F80000C007EED0D8F80000000654
:10515C000CD5D8F80000000644BFD8F800005FEA70
:10516C00006003D5D8F800000006EED4D8F804008F
:10517C00DBF80000DBF80010091A59290ED8DBF80F
:10518C000010091A59299EBFDBF80010091A592979
:10519C0004D8DBF80010091A5A29EBD3DBF800000D
:1051AC00DBF80010091A59290ED8DBF80010091A7F
:1051BC0059299EBFDBF80010091A592904D8DBF8CD
:1051CC000010091A5A29EBD3D8F8000080070CD428
:1051DC00D8F8000080075CBFD8F800005FEA807048
:1051EC0003D4D8F800008007EED5C8F80420D8F80E
:1051FC000000C0070CD1D8F80000C00704BFD8F8D5
:10520C0000005FEAC07003D1D8F80000C007EED0F0
:10521C00D8F8000000060CD5D8F80000000644BFF2
:10522C00D8F800005FEA006003D5D8F8000000064B
:10523C00EED4D8F80400DBF80000DBF80010091AF3
:10524C0059293FF645AFDBF80010091A59299EBFC2
:10525C00DBF80010091A59293FF63AAFDBF80010B9
:10526C00091A5A29E9D333E7072940F0FE839DF840
:10527C0059000B28C7F0428409F0C9BF481E052805
:10528C003FF6CEAEDFE810F00600D20BD40CCB0A02
:10529C00DF0DF603129D072D7FF6C2AE05F0070059
:1052AC001023109EC0EBC004182000EBC4026FF05A
:1052BC001C0000EA8500059200F13001104608221E
:1052CC000391FBF722FB05F01F0040F6D001069678
:1052DC00C0F6010126FA00F04FEAC40CC0074FF0EB
:1052EC0000024FF41F6008BF4FF415600844029091
:1052FC00A0F5007103E00132102A09F05D8400234F
:10530C0002E00133082BF6D002EBD3002AEA0306A5
:10531C00085C09FA06F6DBF800403040DBF8006068
:10532C00361B592E0ED8DBF80060361B592E9EBF4B
:10533C00DBF80060361B592E04D8DBF80060361BF6
:10534C005A2EEBD3D8F80060B6070CD4D8F800600E
:10535C00B6075CBFD8F800605FEA867603D4D8F84D
:10536C000060B607EED5002818BFFF20C8F804006F
:10537C00D8F80060F6070CD1D8F80060F60704BF27
:10538C00D8F800605FEAC67603D1D8F80060F6075B
:10539C00EED0D8F8006036060CD5D8F8006036068A
:1053AC0044BFD8F800605FEA066603D5D8F8006001
:1053BC003606EED4D8F80460DBF80040DBF8006069
:1053CC00361B592E0ED8DBF80060361B592E9EBFAB
:1053DC00DBF80060361B592E04D8DBF80060361B56
:1053EC005A2EEBD3DBF80040DBF80060361B592E4D
:1053FC000ED8DBF80060361B592E9EBFDBF8006020
:10540C00361B592E04D8DBF80060361B5A2EEBD312
:10541C00D8F80060B6070CD4D8F80060B6075CBFAB
:10542C00D8F800605FEA867603D4D8F80060B60737
:10543C00EED5C8F80400D8F80000C0070CD1D8F895
:10544C000000C00704BFD8F800005FEAC07003D1A9
:10545C00D8F80000C007EED0D8F8000000060CD534
:10546C00D8F80000000644BFD8F800005FEA0060DE
:10547C0003D5D8F800000006EED4D8F80400DBF809
:10548C000000DBF80060361A592E3FF63AAFDBF815
:10549C000060361A592E9EBFDBF80060361A592E62
:1054AC003FF62FAFDBF80060361A5A2EE9D328E707
:1054BC00179D002D07F01C839DF8604007202821C4
:1054CC001023E200FBF721FA0023002C00F0E98105
:1054DC00E00102E0013800F0E481DBF80010DBF8B9
:1054EC000020521A592A0ED8DBF80020521A592AD9
:1054FC009EBFDBF80020521A592A04D8DBF8002092
:10550C00521A5A2AEBD3D8F8001089070CD4D8F8C1
:10551C00001089075CBFD8F800105FEA817103D4D2
:10552C00D8F800108907EED5C8F80430D8F8001068
:10553C00C9070CD1D8F80010C90704BFD8F800105F
:10554C005FEAC17103D1D8F80010C907EED0D8F8C2
:10555C00001009060CD5D8F80010090644BFD8F87D
:10556C0000105FEA016103D5D8F800100906EED4EB
:10557C00D8F80410DBF80010DBF80020521A592A76
:10558C000ED8DBF80020521A592A9EBFDBF80020F7
:10559C00521A592A04D8DBF80020521A5A2AEBD393
:1055AC00DBF80010DBF80020521A592A0ED8DBF871
:1055BC000020521A592A9EBFDBF80020521A592A91
:1055CC0004D8DBF80020521A5A2AEBD3D8F8001072
:1055DC0089070CD4D8F8001089075CBFD8F80010E4
:1055EC005FEA817103D4D8F800108907EED5C8F8AA
:1055FC000430D8F80010C9070CD1D8F80010C9072E
:10560C0004BFD8F800105FEAC17103D1D8F80010BC
:10561C00C907EED0D8F8001009060CD5D8F8001040
:10562C00090644BFD8F800105FEA016103D5D8F829
:10563C0000100906EED4D8F80410DBF80010DBF8E3
:10564C000020521A592A3FF645AFDBF80020521AB7
:10565C00592A9EBFDBF80020521A592A3FF63AAF5E
:10566C00DBF80020521A5A2AE9D333E7052900F057
:10567C00DA83042900F0E68203297FF4D1AC119D72
:10568C00002D06F0A6826C1E032D119489F0DA858C
:10569C00C5F10300072108221023A0EB401006904F
:1056AC0000F2E710FBF731F941F68440C0F6010037
:1056BC0050F825104FF60060CFF6FF7000EB01108C
:1056CC00B0F5156F09F28F854FEA011C40F6D00139
:1056DC00C0F601010A18CCF535610023CDE904545C
:1056EC0003E00133102B00F07585002502E0013535
:1056FC00082DF6D003EBD500884289F07285105C3A
:10570C002AEA0506DBF8004009FA06F63040DBF819
:10571C000060361B592E0ED8DBF80060361B592E54
:10572C009EBFDBF80060361B592E04D8DBF80060F6
:10573C00361B5A2EEBD3D8F80060B6070CD4D8F829
:10574C000060B6075CBFD8F800605FEA867603D4C9
:10575C00D8F80060B607EED5002818BFFF20C8F8AF
:10576C000400D8F80060F6070CD1D8F80060F607F2
:10577C0004BFD8F800605FEAC67603D1D8F80060A1
:10578C00F607EED0D8F8006036060CD5D8F80060D5
:10579C00360644BFD8F800605FEA066603D5D8F831
:1057AC0000603606EED4D8F80460DBF80040DBF875
:1057BC000060361B592E0ED8DBF80060361B592EB4
:1057CC009EBFDBF80060361B592E04D8DBF8006056
:1057DC00361B5A2EEBD3DBF80040DBF80060361B8F
:1057EC00592E0ED8DBF80060361B592E9EBFDBF805
:1057FC000060361B592E04D8DBF80060361B5A2E7D
:10580C00EBD3D8F80060B6070CD4D8F80060B60714
:10581C005CBFD8F800605FEA867603D4D8F80060E5
:10582C00B607EED5C8F80400D8F80000C0070CD1B4
:10583C00D8F80000C00704BFD8F800005FEAC070B9
:10584C0003D1D8F80000C007EED0D8F8000000064D
:10585C000CD5D8F80000000644BFD8F800005FEA69
:10586C00006003D5D8F800000006EED4D8F8040088
:10587C00DBF80000DBF80060361A592E3FF637AF24
:10588C00DBF80060361A592E9EBFDBF80060361A22
:10589C00592E3FF62CAFDBF80060361A5A2EE9D39E
:1058AC0025E740F61840012DC4F202004FF4804168
:1058BC00016007F01D819DF86140072038211023FD
:1058CC00E200FBF722F80023002C00F0D780E00167
:1058DC0002E0013800F0D280DBF80010DBF8002089
:1058EC00521A592A0ED8DBF80020521A592A9EBF98
:1058FC00DBF80020521A592A04D8DBF80020521A7F
:10590C005A2AEBD3D8F8001089070CD4D8F8001019
:10591C0089075CBFD8F800105FEA817103D4D8F80E
:10592C0000108907EED5C8F80430D8F80010C90764
:10593C000CD1D8F80010C90704BFD8F800105FEAE2
:10594C00C17103D1D8F80010C907EED0D8F80010F7
:10595C0009060CD5D8F80010090644BFD8F8001079
:10596C005FEA016103D5D8F800100906EED4D8F827
:10597C000410DBF80010DBF80020521A592A0ED85C
:10598C00DBF80020521A592A9EBFDBF80020521A6D
:10599C00592A04D8DBF80020521A5A2AEBD3DBF828
:1059AC000010DBF80020521A592A0ED8DBF8002020
:1059BC00521A592A9EBFDBF80020521A592A04D8D1
:1059CC00DBF80020521A5A2AEBD3D8F800108907BA
:1059DC000CD4D8F8001089075CBFD8F800105FEA27
:1059EC00817103D4D8F800108907EED5C8F80430BB
:1059FC00D8F80010C9070CD1D8F80010C90704BF9B
:105A0C00D8F800105FEAC17103D1D8F80010C907AB
:105A1C00EED0D8F8001009060CD5D8F800100906FD
:105A2C0044BFD8F800105FEA016103D5D8F8001024
:105A3C000906EED4D8F80410DBF80010DBF80020CF
:105A4C00521A592A3FF645AFDBF80020521A592A50
:105A5C009EBFDBF80020521A592A3FF63AAFDBF80A
:105A6C000020521A5A2AE9D333E70AA8FDF772FF2D
:105A7C0007F043B80AA8012106F090BF40F6184081
:105A8C00022DC4F202004FF48041016007F0308017
:105A9C009DF86240072048211023E200FAF735FFF9
:105AAC000023002C00F0B282E00102E0013800F08B
:105ABC00AD82DBF80010DBF80020521A592A0ED800
:105ACC00DBF80020521A592A9EBFDBF80020521A2C
