:020000040800F2
:1000000000000320AD010008D7E300088FFF0008BF
:10001000D7E30008D7E30008D7E30008000000009A
:10002000000000000000000000000000D7E300080E
:10003000D7E3000800000000D7E30008D7E300087A
:10004000D7E30008D7E30008D7E30008D7E30008A8
:10005000D7E30008D7E30008D7E30008D7E3000898
:10006000D7E30008D7E30008D7E30008D7E3000888
:10007000D7E30008D7E30008D7E30008D7E3000878
:10008000D7E30008D7E30008D7E30008D7E3000868
:10009000D7E30008D7E30008D7E30008D7E3000858
:1000A000D7E30008D7E30008D7E30008D7E3000848
:1000B000D7E30008D7E30008D7E30008D7E3000838
:1000C000D7E30008D7E30008D7E30008D7E3000828
:1000D000D7E30008D7E30008D7E30008D7E3000818
:1000E000D7E30008D7E30008D7E30008D7E3000808
:1000F000D7E30008D7E30008D7E30008D7E30008F8
:10010000D7E30008D7E30008D7E30008D7E30008E7
:10011000D7E30008D7E30008D7E30008D7E30008D7
:10012000D7E30008D7E30008D7E30008D7E30008C7
:10013000D7E30008D7E30008D7E30008D7E30008B7
:10014000D7E30008D7E30008D7E30008D7E30008A7
:10015000D7E30008D7E30008D7E30008D7E3000897
:10016000D7E30008D7E30008D7E30008D7E3000887
:10017000D7E30008D7E30008D7E30008D7E3000877
:10018000D7E30008D7E30008D7E30008D7E3000867
:10019000D7E30008D7E30008D7E30008D7E3000857
:0C01A000D7E30008D7E30008D7E300080D
:1001AC000EF014F90E480F490022814201D004C010
:1001BC00FBE70D480D490E4A814202D008CA08C01F
:1001CC00FAE70C484FF47001026842EA010202603F
:1001DC00BFF34F8FBFF36F8F04F033FD00DE0000D1
:1001EC00000000200400002000000020000000207F
:1001FC00D81A010888ED00E0CAB101EB020C44F6F4
:10020C000002C4F2000203E00131536061450ED0DC
:10021C000B7810680006F7D4106800065CBF1068F5
:10022C005FEA0060F0D410680006F2D5ECE700201D
:10023C00704780B56F46A2B00A46C969CB0616D482
:10024C00890621D4017864294CD329204843030B17
:10025C006FF0630013FB001041F27771C0F60101DF
:10026C00C0B231F81000ADF8090000203EE0007873
:10027C0000F00F0101F157030A2938BF01F13003D7
:10028C008DF8873057210BE0007800F00F0101F159
:10029C0037030A2938BF01F1300337218DF8873035
:1002AC0001EB10110309A02838BF03F1300110280D
:1002BC0038BF00218DF886104FF0020138BF0121A4
:1002CC00009102A9102801F17E03104638BF01F1FC
:1002DC007F0341F27571C0F6010102220CF074FF2C
:1002EC0022B080BD0A2906D202200B4643F0300111
:1002FC0002AB195408E041F27770C0F6010030F8F7
:10030C001100ADF80900012080F00301009102A951
:10031C000B181046012100220CF056FF22B080BDB4
:10032C00F0B503AF2DE9000F8DB006680C463078A0
:10033C0080B1D4E905B94FF6BA71D9F80C50C0F6B2
:10034C00000104225846A84790B101200DB0BDE829
:10035C00000FF0BD4FF6CE71D4E90502D368C0F69C
:10036C00000104220DB0BDE8000FBDE8F0401847B5
:10037C00D4F81CA006F101085FEA4A7015D441F2CA
:10038C0071715846C0F601010122A84701460120AF
:10039C000029DBD140462146FFF74BFF002846D011
:1003AC0001200DB0BDE8000FF0BD41F2727158464E
:1003BC00C0F601010222A847014601200029C5D13F
:1003CC0004F10806A7F1410141F24C7507F8410C04
:1003DC004CCE6846C0F60105CDE90191D4E900C1C7
:1003EC00099006A8CDE904C104A90A9594F82050F7
:1003FC004CC04046CDF800B0CDF82CA08DF8305054
:10040C00FFF717FF20B101200DB0BDE8000FF0BDC4
:10041C00DDE909010222CB6841F26C71C0F60101E1
:10042C00984720B101200DB0BDE8000FF0BDD4E914
:10043C0005010122CB6841F21C71C0F601019847FD
:10044C000DB0BDE8000FF0BD0B46D0E90012184608
:10045C000CF0E0BFF0B503AF2DE9000FA3B0894657
:10046C00C969CA064ED4890600F18A80016842F235
:10047C0010704FF69C7E814241F27770C0F60100FD
:10048C00C0F0D68041F259784EF2FF040DF10C0BFE
:10049C00CDF808900022CDF2B7184DF6F00941F2D4
:1004AC007B4AC0F2F554A1FB08350BEB020C043A65
:1004BC00A1424FEA553303FB09151946AEB24FEA78
:1004CC00960606FB0AF64FEA564606FB0E5530F822
:1004DC001660ACF80660ADB230F81550ACF80850A8
:1004EC00E1D8DDF808900A321946632900F2A4809D
:1004FC000B460A2BC0F0B180911E30F8130003AAF2
:10050C005052AFE003680DF10C0E802481214FF0A6
:10051C005708204603F00F0404F157050A2C38BF86
:10052C0004F130050EEB0104102B04F8025C66D3C9
:10053C00DDB2A02D08EB15164FEA151238BF02F1EB
:10054C0030061D0A04F8036C5CD005F00F02043968
:10055C0002F157050A2A38BF02F1300504F8045C91
:10056C001D0B52D005F00F0202F157050A2A38BFB5
:10057C0002F1300504F8055C041F1B0CC9D13CE0EA
:10058C0003680DF10C0E802481214FF0370C03F021
:10059C000F06204606F137050A2E0EEB010438BF74
:1005AC0006F13005102B04F8025C28D3DEB2A02E25
:1005BC000CEB16154FEA161238BF02F1300504F891
:1005CC00035C1D0A1ED005F00F02043902F1370539
:1005DC000A2A38BF02F1300504F8045C1D0B14D054
:1005EC0005F00F0202F137050A2A38BF02F1300577
:1005FC0004F8055C041F1B0CC9D1033807E08C1EE2
:10060C00481E04E00138CC1E01E002380C4641F2D1
:10061C007571C0F181000EEB04030090C0F601016E
:10062C00484602220CF0D0FD23B0BDE8000FF0BD0F
:10063C000A2263297FF65CAF8BB241F27B469B08A2
:10064C00023A734303AE5B0C03FB0E1189B230F814
:10065C001110B1520A2BBFF44FAF511E03AA43F035
:10066C0030005054C1F10A00009003A80022431836
:10067C00484601210CF0A8FD23B0BDE8000FF0BDE9
:10068C0081B0002080290090684602D200F1010C54
:10069C0037E0B1F5006F0BD202220B4662F39F13C9
:1006AC00C02200F1020C8DF8013042EA911128E0D1
:1006BC00B1F5803F10D202220B4662F39F138DF8E6
:1006CC0002308B0900F1030C62F39F13E0228DF8CA
:1006DC00013042EA113114E002220B4662F39F13FF
:1006EC008DF803308B0900F1040C62F39F138DF825
:1006FC0002300B0B62F39F13F0228DF8013042EAAB
:10070C00914144F600028DF800106946C4F20002D3
:10071C0003E00131536061450ED00B781068000680
:10072C00F7D4106800065CBF10685FEA0060F0D474
:10073C0010680006F2D5ECE7002001B07047F0B568
:10074C0003AF4DF8048D82B08046002080290190C3
:10075C0003D201248DF8041033E0B1F5006F09D2F7
:10076C000224084664F39F108DF80500C02040EA6F
:10077C00911024E002200A4660F39F12B1F5803FED
:10078C000DD28DF806208A0960F39F12E02040EA12
:10079C0011308DF805208DF80400032411E08DF83C
:1007AC0007208A0960F39F128DF806200A0B042497
:1007BC0060F39F12F02040EA91408DF805208DF8EF
:1007CC000400D8E90156B54215D309D0D8F8000079
:1007DC0001A9AA1B3044A24228BF22460EF0C4FF36
:1007EC003019854238BF2846C8F80800002002B0EE
:1007FC005DF8048BF0BD304629460DF08CFD0A46A1
:10080C0040F20001C0F601010DF081B90A464FF625
:10081C00E871C0F600010DF07AB9C00708BF704747
:10082C000EF058BBD1E905024FF69071D368C0F6B3
:10083C00000105221847B0B502AF84B0044604305D
:10084C000D460190D1E905010922CB684FF695714F
:10085C00C0F6000198478DF80C0040F26140002171
:10086C00C0F600008DF80D104FF69E71009002A896
:10087C00C0F600010B22234602950DF024FB40F23A
:10088C002D3101ABC0F60001092200914FF6A97180
:10089C00C0F600010DF017FB9DF80D209DF80C1013
:1008AC00012A42EA010008BF5FEAC17103D000F0DF
:1008BC00010004B0B0BD0298017F49070CD4D0E907
:1008CC0005010222CB6841F26F71C0F60101984715
:1008DC0000F0010004B0B0BDD0E905010122CB68E5
:1008EC0041F26E71C0F60101984700F0010004B0AE
:1008FC00B0BDD1E9050240F21801D368C0F6010180
:10090C000D221847F0B503AF2DE9000F83B0BC687A
:10091C009A469046D4E902B52B465A4600F0EEF8BA
:10092C00A8F120000BF107016843C9080191484365
:10093C0061688142C0F0DE80002D18BFBBF1000F52
:10094C000AD140F618404FF48041C4F20200016015
:10095C0003B0BDE8000FF0BD22682426091A00235D
:10096C0002EB000943F20802C4F20006C4F20102D1
:10097C004FF00708009504E0029B009D0133AB4249
:10098C00DFD001980025029303FB00FE02E0013545
:10099C005D45F1D00EEBD500884280F0AD8019F8A2
:1009AC00000028EA0503D6F800C0D84000F001008A
:1009BC00404200EA0A003368A3EB0C03592B0ED813
:1009CC003368A3EB0C03592B9EBF3368A3EB0C03CA
:1009DC00592B04D83368A3EB0C035A2BEBD31368B5
:1009EC009B0709D413689B075CBF13685FEA83738A
:1009FC0002D413689B07F2D583B21B0A53601368A9
:100A0C00DB0709D11368DB0704BF13685FEAC37304
:100A1C0002D11368DB07F2D013681B0609D51368E3
:100A2C001B0644BF13685FEA036302D513681B06F9
:100A3C00F2D4536833683468E41A592C0BD83468F0
:100A4C00E41A592C9EBF3468E41A592C03D8346824
:100A5C00E41A5A2CEFD333683468E41A592C0BD8A7
:100A6C003468E41A592C9EBF3468E41A592C03D804
:100A7C003468E41A5A2CEFD313689B0709D4136813
:100A8C009B075CBF13685FEA837302D413689B07F0
:100A9C00F2D5C0B250601068C00709D11068C00709
:100AAC0004BF10685FEAC07002D11068C007F2D0B2
:100ABC001068000609D51068000644BF10685FEA8C
:100ACC00006002D510680006F2D4506830683368B4
:100ADC001B1A592B3FF65BAF33681B1A592B9EBF61
:100AEC0033681B1A592B3FF652AF33681B1A5A2B1B
:100AFC00EDD34CE70DF00FFC0CF0E6FAF0B503AFBC
:100B0C004DF8048D40F6184C4FF00056C4F2020C10
:100B1C0040F2240ECCF800684FF08046CCF8006010
:100B2C00C4F2000EDEF80060A1F10108441EDEF8EC
:100B3C000050AD1B592D0ED8DEF80050AD1B592DB1
:100B4C009EBFDEF80050AD1B592D04D8DEF80050C6
:100B5C00AD1B5A2DEBD3144443F20802C4F201022C
:100B6C001568AD0709D41568AD075CBF15685FEA59
:100B7C00857502D41568AD07F2D52A255560156820
:100B8C00ED0709D11568ED0704BF15685FEAC57557
:100B9C0002D11568ED07F2D015682D0609D5156838
:100BAC002D0644BF15685FEA056502D515682D064C
:100BBC00F2D45568DEF80060DEF80050AD1B592DFC
:100BCC000ED8DEF80050AD1B592D9EBFDEF800503C
:100BDC00AD1B592D04D8DEF80050AD1B5A2DEBD3AC
:100BEC004FF48045CCF800504FF40055CCF8005829
:100BFC004FF08045CCF80050DEF80060DEF8005075
:100C0C00AD1B592D0ED8DEF80050AD1B592D9EBFD3
:100C1C00DEF80050AD1B592D04D8DEF80050AD1B8A
:100C2C005A2DEBD343441568AD0709D41568AD07AD
:100C3C005CBF15685FEA857502D41568AD07F2D5FF
:100C4C00002555601568ED0709D11568ED0704BF3F
:100C5C0015685FEAC57502D11568ED07F2D0156805
:100C6C002D0609D515682D0644BF15685FEA056584
:100C7C0002D515682D06F2D45568DEF80050DEF862
:100C8C000060761B592E0ED8DEF80060761B592EAC
:100C9C009EBFDEF80060761B592E04D8DEF800608B
:100CAC00761B5A2EEBD3DEF80050DEF80060761B74
:100CBC00592E0ED8DEF80060761B592E9EBFDEF83A
:100CCC000060761B592E04D8DEF80060761B5A2E75
:100CDC00EBD31568AD0709D41568AD075CBF156873
:100CEC005FEA857502D41568AD07F2D5C0F3072508
:100CFC0055601568ED0709D11568ED0704BF156837
:100D0C005FEAC57502D11568ED07F2D015682D069E
:100D1C0009D515682D0644BF15685FEA056502D52F
:100D2C0015682D06F2D45568DEF80050DEF8006028
:100D3C00761B592E0ED8DEF80060761B592E9EBFFE
:100D4C00DEF80060761B592E04D8DEF80060761BA6
:100D5C005A2EEBD34FF48045CCF800504FF400558D
:100D6C00CCF800584FF08045CCF80050DEF800501D
:100D7C00DEF80060761B592E0ED8DEF80060761B6C
:100D8C00592E9EBFDEF80060761B592E04D8DEF873
:100D9C000060761B5A2EEBD31568AD0709D4156885
:100DAC00AD075CBF15685FEA857502D41568AD07A1
:100DBC00F2D5002555601568ED0709D11568ED07CA
:100DCC0004BF15685FEAC57502D11568ED07F2D04E
:100DDC0015682D0609D515682D0644BF15685FEA00
:100DEC00056502D515682D06F2D45568DEF800505D
:100DFC00DEF80060761B592E0ED8DEF80060761BEC
:100E0C00592E9EBFDEF80060761B592E04D8DEF8F2
:100E1C000060761B5A2EEBD3DEF80050DEF8006033
:100E2C00761B592E0ED8DEF80060761B592E9EBF0D
:100E3C00DEF80060761B592E04D8DEF80060761BB5
:100E4C005A2EEBD31568AD0709D41568AD075CBFF6
:100E5C0015685FEA857502D41568AD07F2D5C0B286
:100E6C0050601068C00709D11068C00704BF106833
:100E7C005FEAC07002D11068C007F2D0106800069B
:100E8C0009D51068000644BF10685FEA006002D5FF
:100E9C0010680006F2D45068DEF80000DEF800504E
:100EAC002D1A592D0ED8DEF800502D1A592D9EBF33
:100EBC00DEF800502D1A592D04D8DEF800502D1AEA
:100ECC005A2DEBD34FF48040CCF800004FF4005077
:100EDC00CCF800084FF08040CCF80000DEF80000A1
:100EEC00DEF800502D1A592D0ED8DEF800502D1AB0
:100EFC00592D9EBFDEF800502D1A592D04D8DEF85E
:100F0C0000502D1A5A2DEBD31068800709D41068A5
:100F1C0080075CBF10685FEA807002D4106880079D
:100F2C00F2D5002050601068C00709D11068C007C6
:100F3C0004BF10685FEAC07002D11068C007F2D01D
:100F4C001068000609D51068000644BF10685FEAF7
:100F5C00006002D510680006F2D45068DEF800007C
:100F6C00DEF800502D1A592D0ED8DEF800502D1A2F
:100F7C00592D9EBFDEF800502D1A592D04D8DEF8DD
:100F8C0000502D1A5A2DEBD3DEF80000DEF800507D
:100F9C002D1A592D0ED8DEF800502D1A592D9EBF42
:100FAC00DEF800502D1A592D04D8DEF800502D1AF9
:100FBC005A2DEBD31068800709D4106880075CBFEA
:100FCC0010685FEA807002D410688007F2D5C4F311
:100FDC00072050601068C00709D11068C00704BF13
:100FEC0010685FEAC07002D11068C007F2D01068B8
:100FFC00000609D51068000644BF10685FEA00605F
:10100C0002D510680006F2D45068DEF80000DEF855
:10101C0000502D1A592D0ED8DEF800502D1A592DCE
:10102C009EBFDEF800502D1A592D04D8DEF8005062
:10103C002D1A5A2DEBD34FF48040CCF800004FF40E
:10104C000050CCF800084FF08040CCF80000DEF8DF
:10105C000000DEF800502D1A592D0ED8DEF8005085
:10106C002D1A592D9EBFDEF800502D1A592D04D87B
:10107C00DEF800502D1A5A2DEBD31068800709D4D6
:10108C00106880075CBF10685FEA807002D410683B
:10109C008007F2D5002050601068C00709D1106895
:1010AC00C00704BF10685FEAC07002D11068C007A7
:1010BC00F2D01068000609D51068000644BF10680D
:1010CC005FEA006002D510680006F2D45068DEF8C2
:1010DC000000DEF800502D1A592D0ED8DEF8005005
:1010EC002D1A592D9EBFDEF800502D1A592D04D8FB
:1010FC00DEF800502D1A5A2DEBD3DEF80000DEF886
:10110C0000502D1A592D0ED8DEF800502D1A592DDD
:10111C009EBFDEF800502D1A592D04D8DEF8005071
:10112C002D1A5A2DEBD31068800709D4106880074C
:10113C005CBF10685FEA807002D410688007F2D53B
:10114C00E0B250601068C00709D11068C00704BF36
:10115C0010685FEAC07002D11068C007F2D0106846
:10116C00000609D51068000644BF10685FEA0060ED
:10117C0002D510680006F2D45068DEF80000DEF8E4
:10118C000040241A592C0ED8DEF80040241A592C91
:10119C009EBFDEF80040241A592C04D8DEF800401B
:1011AC00241A5A2CEBD34FF48040CCF800004FF0AB
:1011BC000050CCF800084FF08040CCF80000DEF86E
:1011CC000000DEF80040241A592C0ED8DEF800403E
:1011DC00241A592C9EBFDEF80040241A592C04D82E
:1011EC00DEF80040241A5A2CEBD31068800709D47F
:1011FC00106880075CBF10685FEA807002D41068CA
:10120C008007F2D52B2050601068C00709D11068F8
:10121C00C00704BF10685FEAC07002D11068C00735
:10122C00F2D01068000609D51068000644BF10689B
:10123C005FEA006002D510680006F2D45068DEF850
:10124C000000DEF80040241A592C0ED8DEF80040BD
:10125C00241A592C9EBFDEF80040241A592C04D8AD
:10126C00DEF80040241A5A2CEBD34FF48040CCF813
:10127C0000004FF40050CCF800084FF08040CCF840
:10128C000000DEF80000DEF80040241A592C0ED8BD
:10129C00DEF80040241A592C9EBFDEF80040241AB8
:1012AC00592C04D8DEF80040241A5A2CEBD31068C1
:1012BC00800709D4106880075CBF10685FEA8070F3
:1012CC0002D410688007F2D5002050601068C00767
:1012DC0009D11068C00704BF10685FEAC07002D162
:1012EC001068C007F2D01068000609D51068000617
:1012FC0044BF10685FEA006002D510680006F2D4A3
:10130C005068DEF80000DEF80040241A592C0ED884
:10131C00DEF80040241A592C9EBFDEF80040241A37
:10132C00592C04D8DEF80040241A5A2CEBD3DEF8E2
:10133C000000DEF80040241A592C0ED8DEF80040CC
:10134C00241A592C9EBFDEF80040241A592C04D8BC
:10135C00DEF80040241A5A2CEBD31068800709D40D
:10136C00106880075CBF10685FEA807002D4106858
:10137C008007F2D5C1F3072050601068C00709D16F
:10138C001068C00704BF10685FEAC07002D1106813
:10139C00C007F2D01068000609D51068000644BFDB
:1013AC0010685FEA006002D510680006F2D450683D
:1013BC00DEF80000DEF80040241A592C0ED8DEF8B6
:1013CC000040241A592C9EBFDEF80040241A592CD8
:1013DC0004D8DEF80040241A5A2CEBD34FF480408A
:1013EC00CCF800004FF40050CCF800084FF08040CF
:1013FC00CCF80000DEF80000DEF80040241A592C6E
:10140C000ED8DEF80040241A592C9EBFDEF800409E
:10141C00241A592C04D8DEF80040241A5A2CEBD389
:10142C001068800709D4106880075CBF10685FEAF9
:10143C00807002D410688007F2D5002050601068CC
:10144C00C00709D11068C00704BF10685FEAC070FC
:10145C0002D11068C007F2D01068000609D51068D8
:10146C00000644BF10685FEA006002D510680006F1
:10147C00F2D45068DEF80000DEF80040241A592C33
:10148C000ED8DEF80040241A592C9EBFDEF800401E
:10149C00241A592C04D8DEF80040241A5A2CEBD309
:1014AC00DEF80000DEF80040241A592C0ED8DEF8C5
:1014BC000040241A592C9EBFDEF80040241A592CE7
:1014CC0004D8DEF80040241A5A2CEBD3106880079D
:1014DC0009D4106880075CBF10685FEA807002D482
:1014EC0010688007F2D5C8B250601068C00709D1E7
:1014FC001068C00704BF10685FEAC07002D11068A2
:10150C00C007F2D01068000609D51068000644BF69
:10151C0010685FEA006002D510680006F2D45068CB
:10152C00DEF80000DEF80010091A59290ED8DEF892
:10153C000010091A59299EBFDEF80010091A592902
:10154C0004D8DEF80010091A5A29EBD34FF4804066
:10155C00CCF800004FF40050CCF800084FF080405D
:10156C00CCF80000DEF80000DEF80010091A59294A
:10157C000ED8DEF80010091A59299EBFDEF80010AB
:10158C00091A592904D8DEF80010091A5A29EBD384
:10159C001068800709D4106880075CBF10685FEA88
:1015AC00807002D410688007F2D50020506010685B
:1015BC00C00709D11068C00704BF10685FEAC0708B
:1015CC0002D11068C007F2D01068000609D5106867
:1015DC00000644BF10685FEA006002D51068000680
:1015EC00F2D45068DEF80000DEF80010091A592910
:1015FC000ED8DEF80010091A59299EBFDEF800102B
:10160C00091A592904D8DEF80010091A5A29EBD303
:10161C00DEF80000DEF80010091A59290ED8DEF8A1
:10162C000010091A59299EBFDEF80010091A592911
:10163C0004D8DEF80010091A5A29EBD31068800779
:10164C0009D4106880075CBF10685FEA807002D410
:10165C0010688007F2D5C3F3072050601068C007EC
:10166C0009D11068C00704BF10685FEAC07002D1CE
:10167C001068C007F2D01068000609D51068000683
:10168C0044BF10685FEA006002D510680006F2D40F
:10169C005068DEF80000DEF80010091A59290ED83F
:1016AC00DEF80010091A59299EBFDEF80010091A3D
:1016BC00592904D8DEF80010091A5A29EBD34FF433
:1016CC008040CCF800004FF40050CCF800084FF0EC
:1016DC008040CCF80000DEF80000DEF80010091A9B
:1016EC0059290ED8DEF80010091A59299EBFDEF8C8
:1016FC000010091A592904D8DEF80010091A5A29C1
:10170C00EBD31068800709D4106880075CBF1068A1
:10171C005FEA807002D410688007F2D50020506018
:10172C001068C00709D11068C00704BF10685FEAD1
:10173C00C07002D11068C007F2D01068000609D53D
:10174C001068000644BF10685FEA006002D510689C
:10175C000006F2D45068DEF80000DEF80010091A1A
:10176C0059290ED8DEF80010091A59299EBFDEF847
:10177C000010091A592904D8DEF80010091A5A2940
:10178C00EBD3DEF80000DEF80010091A59290ED848
:10179C00DEF80010091A59299EBFDEF80010091A4C
:1017AC00592904D8DEF80010091A5A29EBD310680D
:1017BC00800709D4106880075CBF10685FEA8070EE
:1017CC0002D410688007F2D5D8B250601068C007F8
:1017DC0009D11068C00704BF10685FEAC07002D15D
:1017EC001068C007F2D01068000609D51068000612
:1017FC0044BF10685FEA006002D510680006F2D49E
:10180C005068DEF80000DEF80010091A59290ED8CD
:10181C00DEF80010091A59299EBFDEF80010091ACB
:10182C00592904D8DEF80010091A5A29EBD34FF4C1
:10183C008040CCF800004FF00050CCF800084FF07E
:10184C008040CCF80000DEF80000DEF80010091A29
:10185C0059290ED8DEF80010091A59299EBFDEF856
:10186C000010091A592904D8DEF80010091A5A294F
:10187C00EBD31068800709D4106880075CBF106830
:10188C005FEA807002D410688007F2D52C2050607B
:10189C001068C00709D11068C00704BF10685FEA60
:1018AC00C07002D11068C007F2D01068000609D5CC
:1018BC001068000644BF10685FEA006002D510682B
:1018CC000006F2D45068DEF80000DEF80010091AA9
:1018DC0059290ED8DEF80010091A59299EBFDEF8D6
:1018EC000010091A592904D8DEF80010091A5A29CF
:1018FC00EBD34FF48040CCF800004FF40050CCF800
:10190C0000084FF08040CCF800005DF8048BF0BD6F
:10191C00B0B502AF1C461546FFF7F0F804FB05F016
:10192C00002800F0AA80BA68242343F20805C4F208
:10193C000003C4F2010591B2D2B24FEA112C02E0BD
:10194C00013800F09A801C681968091B59290BD8BA
:10195C001968091B59299EBF1968091B592903D8F5
:10196C001968091B5A29EFD32968890709D42968F2
:10197C0089075CBF29685FEA817102D429688907ED
:10198C00F2D5C5F804C02968C90709D12968C90767
:10199C0004BF29685FEAC17102D12968C907F2D076
:1019AC002968090609D52968090644BF29685FEA30
:1019BC00016102D529680906F2D469681C681968A6
:1019CC00091B59290BD81968091B59299EBF19687D
:1019DC00091B592903D81968091B5A29EFD31C680C
:1019EC001968091B59290BD81968091B59299EBF5D
:1019FC001968091B592903D81968091B5A29EFD3EF
:101A0C002968890709D4296889075CBF29685FEAB6
:101A1C00817102D429688907F2D56A602968C907DF
:101A2C0009D12968C90704BF29685FEAC17102D1CD
:101A3C002968C907F2D02968090609D52968090659
:101A4C0044BF29685FEA016102D529680906F2D40E
:101A5C0069681C681968091B59293FF671AF196828
:101A6C00091B59299EBF1968091B59293FF668AFF4
:101A7C001968091B5A29EDD362E740F618404FF458
:101A8C008041C4F202000160B0BDF0B503AF2DE996
:101A9C00000B82B004460E464FF000090A20214686
:101AAC0064220123CDF80090FFF732FF651CA6F1EC
:101ABC0002080A20012229464346CDF80090FFF780
:101ACC0027FF6D20294601224346CDF80090FFF7F1
:101ADC001FFF30196422411E0A200123CDF800900B
:101AEC00FFF716FF4FF6FF790B20294662220123E0
:101AFC00CDF80090FFF70CFF351FA61C0B20012220
:101B0C0031462B46CDF80090FFF702FF6C20314692
:101B1C0001222B46CDF80090FFF7FAFE08EB0401EA
:101B2C000B2062220123CDF80090FFF7F1FE02B0EA
:101B3C00BDE8000BF0BDF0B503AF2DE9000F83B08D
:101B4C00D0F8FC9440F668288246282001EB020B62
:101B5C000C4600EB09150726C0F60108029213E0AB
:101B6C0043EA8112841CCDF80080B52A08BFC1223B
:101B7C00304629464FF6FF73202A38BF7F22FEF7E6
:101B8C00C1FE08365C4523D0204614F9011BB1F187
:101B9C00FF3FCAB2E7DC437802F01F01E02A03F0F2
:101BAC003F03DDD38478F02A04F03F0444EA831326
:101BBC000AD3C27801F00701041D02F03F0242EA89
:101BCC00831242EA8142CEE743EA0132C41CCAE7DF
:101BDC00B9F10F0F9FBF0AEB0900029980F80015AD
:101BEC00DAF8FC049FBF0130CAF8FC0403B0BDE86E
:101BFC00000F98BFF0BD484610210BF065FAF0B508
:101C0C0003AF2DE9000F81B041F2E00B8E18924624
:101C1C00894680460725C0F6010B0C4613E043EAC3
:101C2C008112841CCDF800B0B52A08BFC122284609
:101C3C0007214FF6FF73202A38BF7F22FEF762FE82
:101C4C000835B44223D0204614F9011BB1F1FF3FF3
:101C5C00CAB2E7DC437802F01F01E02A03F03F032D
:101C6C00DDD38478F02A04F03F0444EA83130AD3CA
:101C7C00C27801F00701041D02F03F0242EA831210
:101C8C0042EA8142CEE743EA0132C41CCAE7D8F8E3
:101C9C00D804A0EB0A01002909DD0020CA0000903D
:101CAC004FEACA00073007211023FFF731FEC8F8AE
:101CBC00D494C8F8D8A401B0BDE8000FF0BDD4D4BA
:101CCC00B0B502AF82B00446C8B2DFE810F00C0029
:101CDC00AD0062007B003000C600DF0094001101F3
:101CEC004900F8001700002040F22911009020460E
:101CFC0010221023FFF70CFE02B0B0BD40F6682591
:101D0C002046C0F6010540F2291191224FF6FF73CF
:101D1C000095FEF7F7FD009504F1080040F229113B
:101D2C0092224FF6FF73FEF7EDFD02B0B0BD40F608
:101D3C0068252046C0F6010540F229119D224FF678
:101D4C00FF730095FEF7DEFD009504F1080040F2EC
:101D5C0029119E224FF6FF73FEF7D4FD02B0B0BDE1
:101D6C0040F668252046C0F6010540F2291195225F
:101D7C004FF6FF730095FEF7C5FD009504F10800C2
:101D8C0040F2291196224FF6FF73FEF7BBFD02B00D
:101D9C00B0BD40F668252046C0F6010540F2291179
:101DAC00A9224FF6FF730095FEF7ACFD009504F1E8
:101DBC00080040F22911AA224FF6FF73FEF7A2FD8C
:101DCC0002B0B0BD40F668252046C0F6010540F2D1
:101DDC00291187224FF6FF730095FEF793FD0095AE
:101DEC0004F1080040F2291188224FF6FF73FEF728
:101DFC0089FD02B0B0BD40F668252046C0F601054D
:101E0C0040F229118F224FF6FF730095FEF77AFDF1
:101E1C00009504F1080040F2291190224FF6FF734F
:101E2C00FEF770FD02B0B0BD40F668252046C0F646
:101E3C00010540F229119B224FF6FF730095FEF726
:101E4C0061FD04F1080040F229119C2200954FF627
:101E5C00FF73FEF757FD02B0B0BD40F66825204673
:101E6C00C0F6010540F2291197224FF6FF73009539
:101E7C00FEF748FD009504F1080040F22911982264
:101E8C004FF6FF73FEF73EFD02B0B0BD40F668257D
:101E9C002046C0F6010540F22911A7224FF6FF7328
:101EAC000095FEF72FFD009504F1080040F2291172
:101EBC00A8224FF6FF73FEF725FD02B0B0BD40F629
:101ECC0068252046C0F6010540F22911B7224FF6CD
:101EDC00FF730095FEF716FD009504F1080040F223
:101EEC002911B8224FF6FF73FEF70CFD02B0B0BDFE
:101EFC0040F668252046C0F6010540F22911AF22B4
:101F0C004FF6FF730095FEF7FDFC009504F10800F9
:101F1C0040F22911B0224FF6FF73FEF7F3FC02B02A
:101F2C00B0BDF0B503AF4DF8048DD0F8D044002C03
:101F3C0058D0D0F8CC540E46804609782878814287
:101F4C0002D0EF20FFF7BCFE012C4FD071786878DF
:101F5C0081421CBF4FF48770FFF7B2FE022C49D0B0
:101F6C00B178A87881421CBF40F22D10FFF7A8FE73
:101F7C00032C43D0F178E87881421CBF4FF4A67053
:101F8C00FFF79EFE042C3DD03179287981421CBF8D
:101F9C0040F26B10FFF794FE052C37D071796879FD
:101FAC0081421CBF4FF4C570FFF78AFE062C31D05E
:101FBC00B179A87981421CBF40F2A910FFF780FECD
:101FCC00072C2BD0F179E87981421CBF4FF4E470D7
:101FDC00FFF776FE0820C8F8CC64C8F8D0045DF88A
:101FEC00048BF0BD002021460BF06EF80120214639
:101FFC000BF06AF8022021460BF066F8032021460C
:10200C000BF062F8042021460BF05EF80520214607
:10201C000BF05AF8062021460BF056F80720214603
:10202C000BF052F8F0B503AF2DE9000F89B00D4657
:10203C004CF670010446405C04EB0109DFE810F03B
:10204C006902B702330007000700070007002046AB
:10205C0000F089FC89F80050E8B2DFE810F00700C6
:10206C007A03B20045020F00B903CE03204609B033
:10207C00BDE8000FBDE8F04002F0B5BC41F22C41C8
:10208C002046C0F601010B22FFF7B9FD41F2784161
:10209C002046C0F60101042209B0BDE8000FBDE8DE
:1020AC00F04000F0D1BC00262C202E212022102341
:1020BC000096FFF72DFC0A202921642202230096AA
:1020CC00FFF726FC0A202B21022216230096FFF78D
:1020DC001FFC6C202B21022216230096FFF718FC04
:1020EC000A204121642202230096FFF711FC3020C4
:1020FC005221182210230096FFF70AFC0A204D21CA
:10210C00642202230096FFF703FC0A204F210222CF
:10211C0016230096FFF7FCFB6C204F21022216239E
:10212C000096FFF7F5FB0A20652164220223009636
:10213C00FFF7EEFB30207621182210230096FFF7D4
:10214C00E7FB0A207121642202230096FFF7E0FBD3
:10215C000A207321022216230096FFF7D9FB6C206C
:10216C007321022216230096FFF7D2FB0A20892145
:10217C00642202230096FFF7CBFB20209A21382201
:10218C0010230096FFF7C4FB0A209521642202233A
:10219C000096FFF7BDFB0A2097210222162300961A
:1021AC00FFF7B6FB6C209721022216230096FFF74F
:1021BC00AFFB0A20AD21642202230096FFF7A8FB97
:1021CC0048E741F2B4612046C0F601011722FFF73F
:1021DC0016FD41F224112046C0F60101FFF7A1FEC5
:1021EC002426D4F8EC0443F208040025C4F20006BB
:1021FC00C4F201044FF0070B4FF0010902902AE0E2
:10220C0040F21F4A0A20642202234FEA8C08CDF8C0
:10221C0000A0FFF77DFB08F12B050A2002221623F4
:10222C002946CDF800A0FFF773FBCDF800A0294696
:10223C006C2002221623039DFFF76AFB08F1410173
:10224C000A2064220223CDF800A0FFF761FB0135C0
:10225C00042D00F0458141F2946005EBC50CC0F6ED
:10226C000100039500EBC5004168002900F02881AE
:10227C00039841F29462C0F6010252F83000421801
:10228C0004922E22034602EB8C0206924FF6FC724D
:10229C00CDF814C0C7F6FF7202EA8101C1F13C020D
:1022AC0010E040F618404FF48041C4F20200016087
:1022BC00089A079B04980832DDF814C0834218462C
:1022CC0000F0FE8013F9011BB1F1FF3FCDB21FDC12
:1022DC00417805F01F0EE02D01F03F0111D38378FA
:1022EC00F02D03F03F0343EA81110ED3C37803F0C2
:1022FC003F0343EA81130EF0070143EA8145031DB6
:10230C0006E041EA8E15831C02E041EA0E35C31C3F
:10231C00CDE907321046069908221023FEF7EEFB92
:10232C004FF60060B52DCFF6FF7008BFC12500EB4E
:10233C000510202D38BF4FF4BE60B0F5C06F00F211
:10234C00738240F6DF214FF0000EC0F6010101EB65
:10235C00000CC0F5C06104E00EF1010EBEF1100FCF
:10236C009FD0002502E00135082DF5D00EEBD500ED
:10237C00884280F057821CF800A02BEA05023368D3
:10238C00D6F80080A8EB030059280BD83068C01A87
:10239C0059289EBF3068C01A592803D83068C01A13
:1023AC005A28EDD309FA02F22068800709D4206874
:1023BC0080075CBF20685FEA807002D420688007C9
:1023CC00F2D51AEA020018BFFF2060602268D2071B
:1023DC0009D12268D20704BF22685FEAC27202D117
:1023EC002268D207F2D02268120609D5226812069A
:1023FC0044BF22685FEA026202D522681206F2D458
:10240C006268326833689B1A592B0BD833689B1A55
:10241C00592B9EBF33689B1A592B03D833689B1AD0
:10242C005A2BEFD3326833689B1A592B0BD833686D
:10243C009B1A592B9EBF33689B1A592B03D83368B0
:10244C009B1A5A2BEFD32268920709D42268920761
:10245C005CBF22685FEA827202D422689207F2D5CE
:10246C0060602068C00709D12068C00704BF2068DD
:10247C005FEAC07002D12068C007F2D02068000665
:10248C0009D52068000644BF20685FEA006002D5C9
:10249C0020680006F2D4606830683268121A592A33
:1024AC003FF661AF3268121A592A9EBF3268121A6F
:1024BC00592A3FF658AF3268121A5A2AEDD352E70E
:1024CC00292000EB8C01DDE9020585423FF498AE32
:1024DC0008461A21FFF7D9FA0135042D7FF4BBAE5B
:1024EC0009B0BDE8000FF0BD41F220412046C0F616
:1024FC0001010C22FFF783FB41F284312046C0F628
:10250C000101062209B0BDE8000FBDE8F04000F063
:10251C009BBA0026012020214FF4F0721023009664
:10252C00FFF7F6F900201F2121224FF4817300964A
:10253C00FFF7EEF91A204FF4957130221023009614
:10254C00FFF7E6F92046002101F084F940F2C110B2
:10255C00002101221E230096FFF7DAF94FF4C57013
:10256C000721102210230096FFF7D2F94FF4D170F7
:10257C00002101221E230096FFF7CAF940F2A91090
:10258C000721102210230096FFF7C2F940F28310A6
:10259C00002101221E230096FFF7BAF94FF4E470D4
:1025AC000721102210230096FFF7B2F952E5D4F858
:1025BC00FC84B8F1000F00F0C88094F800050026E8
:1025CC00282110230096C2000720FFF7A1F9B8F1CB
:1025DC00010F00F0BA8094F8010538211023009601
:1025EC00C2000720FFF794F9B8F1020F00F0AD809C
:1025FC0094F80205482110230096C2000720FFF72B
:10260C0087F9B8F1030F00F0A08094F80305582166
:10261C0010230096C2000720FFF77AF9B8F1040FD7
:10262C0000F0938094F80405682110230096C200F2
:10263C000720FFF76DF9B8F1050F00F0868094F8CC
:10264C000505782110230096C2000720FFF760F9DA
:10265C00B8F1060F79D094F806058821102300965E
:10266C00C2000720FFF754F9B8F1070F6DD094F8AA
:10267C000705982110230096C2000720FFF748F9A0
:10268C00B8F1080F61D094F80805A8211023009622
:10269C00C2000720FFF73CF9B8F1090F55D094F8A8
:1026AC000905B82110230096C2000720FFF730F966
:1026BC00B8F10A0F49D094F80A05C82110230096E6
:1026CC00C2000720FFF724F9B8F10B0F3DD094F8A6
:1026DC000B05D82110230096C2000720FFF718F92C
:1026EC00B8F10C0F31D094F80C05E82110230096AA
:1026FC00C2000720FFF70CF9B8F10D0F25D094F8A4
:10270C000D05F82110230096C2000720FFF700F9F1
:10271C00B8F10E0F19D094F80E054FF484711023F4
:10272C000096C2000720FFF7F3F8B8F10F0F0CD09A
:10273C0094F80F054FF48C7110230096C2000720FB
:10274C00FFF7E6F8B8F1100F72D10020C4F8FC04C2
:10275C0080E441F23C112046C0F60101FFF7E1FB99
:10276C0041F29C312046C0F601010522FFF747FAE1
:10277C0041F2A1312046C0F601011D22FFF7DBF921
:10278C0041F2BE312046C0F601013222FFF7D3F9E7
:10279C00D4F8FC0410283FBF2044002180F8001519
:1027AC00D4F8FC043FBF0130C4F8FC0441F2F03112
:1027BC00C0F601013FBF20461D2209B0BDE8000F45
:1027CC003CBFBDE8F040FFF7B6B910210AF07CFC25
:1027DC0041F2C4412046C0F601010F22FFF70FFA67
:1027EC0041F2EC412046C0F60101012209B0BDE8DE
:1027FC00000FBDE8F04000F027B941F288412046B7
:10280C00C0F601010B22FFF7FAF941F2BC41204658
:10281C00C0F60101022209B0BDE8000FBDE8F0408E
:10282C0000F012B90AF050FC4FF4C0610BF073FDCC
:10283C00102010210AF048FCF0B503AF2DE9000B75
:10284C0082B00B460246D0F8E014D0F8F00488426F
:10285C007ED208287ED2D2F8DC14DBB251F82010DC
:10286C000E687168994278D9024492F8F424914226
:10287C0076D9316800EB8000357A01EBC30301EBAC
:10288C00C20674685B6851F832604FF03B0202EB91
:10289C00C008A3EB04004FEAC4014FEAC0022DB1FB
:1028AC00C1F16C05002A0CDDA81A04E0002A48DDF1
:1028BC0001F10C000C250021102300914146FFF77B
:1028CC0027F8002C40D040F668293444C0F60109A2
:1028DC0013E043EA8112861CCDF80090B52A08BF9C
:1028EC00C122284641464FF6FF73202A38BF7F226B
:1028FC00FEF708F80835A64226D0304616F9011B1B
:10290C00B1F1FF3FCAB2E7DC437802F01F01E02AC5
:10291C0003F03F03DDD38678F02A06F03F0646EA43
:10292C0083130AD3C27801F00701061D02F03F029F
:10293C0042EA831242EA8142CEE743EA0132C61CE4
:10294C00CAE70C25002CBED102B0BDE8000BF0BDCF
:10295C000AF0BAFB08210AF0B7FB18460AF0B4FBE0
:10296C0010460AF0B1FBF0B503AF2DE9000F81B0B2
:10297C00D0F8E01400295FD0D0F8DC8400F2F446E3
:10298C004FEA81094B244FF0000A58F8040BA4F1CC
:10299C0022011023D0F800B08068CDF800A0C2004E
:1029AC000A20FEF7B5FFA4F112010A2064220223CB
:1029BC00CDF800A0FEF7ACFFA4F110050A2002220E
:1029CC0010232946CDF800A0FEF7A2FF6C20294663
:1029DC0002221023CDF800A0FEF79AFF0A20214610
:1029EC0064220223CDF800A0FEF792FF40F28B1078
:1029FC00844225D0DBF804103078814222D9DBF8F0
:102A0C00001010239BF8082001EBC000002A4FF0A7
:102A1C006C0241684FF00C00CDF800A018BFA2EB7F
:102A2C00C100CA002946FEF773FFB9F1040904F18D
:102A3C00280406F10106A8D101B0BDE8000FF0BDD5
:102A4C00082008210AF040FBF0B503AF2DE9000F78
:102A5C008BB00D46C0F8DC1441F24C110646C0F8A0
:102A6C00E0240020C6F8F004C0F6010130461446FC
:102A7C00FFF757FA05EB8400242443F20808019071
:102A8C0006F2F4400390D6F8F004C4F20004C4F249
:102A9C0001084FF007094FF0010A0022029007E0ED
:102AAC00049D079A019804350132854200F0B382E7
:102ABC00082A00F0B8822B6800200399049507922D
:102ACC00885402EB82009968CDE90503002900F0D7
:102ADC00308106982922059B4FF00A0B406802EBC7
:102AEC00C30209920144089102460EE040F61840D8
:102AFC004FF48041C4F202000BF1080B01600A9AFA
:102B0C0008988242104600F0148112F9011BB1F1B1
:102B1C00FF3FCDB21FDC427805F01F01E02D02F023
:102B2C003F0211D38378F02D03F03F0343EA821266
:102B3C000ED3C37801F0070103F03F0343EA82127E
:102B4C0042EA8145021D06E042EA8115821C02E040
:102B5C0042EA0135C21C099958460A9208221023F0
:102B6C00FDF7CCFF4FF60060B52DCFF6FF7008BF18
:102B7C00C12500EB0510202D38BF4FF4BE60B0F519
:102B8C00226F00F24C8240F248010023C0F6010192
:102B9C0001EB000CC0F5226102E00133102BA5D033
:102BAC00002502E00135082DF7D003EBD500884253
:102BBC0080F02F821CF8000029EA050226680AFA28
:102BCC0002F210402268921B592A0BD82268921BE1
:102BDC00592A9EBF2268921B592A03D82268921B3D
:102BEC005A2AEFD3D8F8002092070CD4D8F800203A
:102BFC0092075CBFD8F800205FEA827203D4D8F841
:102C0C0000209207EED5002818BFFF20C8F804005A
:102C1C00D8F80020D2070CD1D8F80020D20704BF76
:102C2C00D8F800205FEAC27203D1D8F80020D2078E
:102C3C00EED0D8F8002012060CD5D8F800201206D9
:102C4C0044BFD8F800205FEA026203D5D8F8002010
:102C5C001206EED4D8F8042026682268921B592A52
:102C6C000BD82268921B592A9EBF2268921B592AA4
:102C7C0003D82268921B5A2AEFD326682268921B2B
:102C8C00592A0BD82268921B592A9EBF2268921B84
:102C9C00592A03D82268921B5A2AEFD3D8F800205D
:102CAC0092070CD4D8F8002092075CBFD8F800200B
:102CBC005FEA827203D4D8F800209207EED5C8F8E8
:102CCC000400D8F80000C0070CD1D8F80000C007E9
:102CDC0004BFD8F800005FEAC07003D1D8F8000038
:102CEC00C007EED0D8F8000000060CD5D8F80000CC
:102CFC00000644BFD8F800005FEA006003D5D8F89E
:102D0C0000000006EED4D8F8040020682268121ADD
:102D1C00592A3FF647AF2268121A592A9EBF2268D9
:102D2C00121A592A3FF63EAF2268121A5A2AEDD3CC
:102D3C0038E70598079AC600029806F139019042C7
:102D4C0024D140F21F4B0A2064220223CDF800B09C
:102D5C00FEF7DEFD06F13B050A2002221023294670
:102D6C00CDF800B0FEF7D4FD6C20294602221023CA
:102D7C00CDF800B0FEF7CCFD06F14B010A20642221
:102D8C000223CDF800B0FEF7C3FD03E00846142182
:102D9C00FEF77BFE069801684868002800F0478122
:102DAC0008684268002A3FF47BAE006806F13B03DA
:102DBC00097A4FF00C0B09938318002908934FF0F4
:102DCC006C0118BFA1EBC20B02460EE040F6184096
:102DDC004FF48041C4F202000BF1080B01600A9A17
:102DEC000898824210463FF45BAE12F9011BB1F118
:102DFC00FF3FCDB21FDC427805F01F01E02D02F041
:102E0C003F0211D38378F02D03F03F0343EA821283
:102E1C000ED3C37801F0070103F03F0343EA82129B
:102E2C0042EA8145021D06E042EA8115821C02E05D
:102E3C0042EA0135C21C099958460A92082210230D
:102E4C00FDF75CFE4FF60060B52DCFF6FF7008BFA6
:102E5C00C12500EB0510202D38BF4FF4BE60B0F536
:102E6C00226F00F2DC8040F248010023C0F6010121
:102E7C0001EB000CC0F5226102E00133102BA5D050
:102E8C00002502E00135082DF7D003EBD500884270
:102E9C0080F0BF801CF8000029EA050226680AFAB7
:102EAC0002F210402268921B592A0BD82268921BFE
:102EBC00592A9EBF2268921B592A03D82268921B5A
:102ECC005A2AEFD3D8F8002092070CD4D8F8002057
:102EDC0092075CBFD8F800205FEA827203D4D8F85E
:102EEC0000209207EED5002818BFFF20C8F8040078
:102EFC00D8F80020D2070CD1D8F80020D20704BF94
:102F0C00D8F800205FEAC27203D1D8F80020D207AB
:102F1C00EED0D8F8002012060CD5D8F800201206F6
:102F2C0044BFD8F800205FEA026203D5D8F800202D
:102F3C001206EED4D8F8042026682268921B592A6F
:102F4C000BD82268921B592A9EBF2268921B592AC1
:102F5C0003D82268921B5A2AEFD326682268921B48
:102F6C00592A0BD82268921B592A9EBF2268921BA1
:102F7C00592A03D82268921B5A2AEFD3D8F800207A
:102F8C0092070CD4D8F8002092075CBFD8F8002028
:102F9C005FEA827203D4D8F800209207EED5C8F805
:102FAC000400D8F80000C0070CD1D8F80000C00706
:102FBC0004BFD8F800005FEAC07003D1D8F8000055
:102FCC00C007EED0D8F8000000060CD5D8F80000E9
:102FDC00000644BFD8F800005FEA006003D5D8F8BB
:102FEC0000000006EED4D8F8040020682268121AFB
:102FFC00592A3FF647AF2268121A592A9EBF2268F7
:10300C00121A592A3FF63EAF2268121A5A2AEDD3E9
:10301C0038E70AF059F80BB0BDE8000FF0BD4FF4DB
:10302C0022610BF078F9082008210AF04DF80020F5
:10303C0000210AF049F8D4D4F0B503AF2DE900070C
:10304C0082B04FF0FF3252FA81F1052943D8DFE804
:10305C0001F0035C469A42B7D0F8F0544FF0390AAD
:10306C00D0F8E044804605EB85010AEBC101084627
:10307C001421FEF70AFD40F21F49002DCDF80090F7
:10308C0018BF2C46661E0A206422022306EB860516
:10309C000AEBC501FEF73CFC3B2000EBC5040A2003
:1030AC00022221461023CDF80090FEF731FC6C2053
:1030BC00214602221023CDF80090FEF729FC4B206C
:1030CC0000EBC5010A2064220223CDF80090FEF724
:1030DC001FFCC8F8F06402B0BDE80007F0BDD0F8E2
:1030EC00F024072A74D8D0F8E0148A4274D2D0F8AD
:1030FC00DC6400F2F443995C56F8226000293668CF
:10310C00367918BF0E46013E52E0D0F8E0144FF06D
:10311C003908D0F8F0240139541A4FF0140118BFB3
:10312C00541CC0F8F04402EB820008EBC000FEF720
:10313C00ACFC04EB840640F21F450A20642208EB29
:10314C00C60102230095FEF7E3FB3B2000EBC6040F
:10315C000A200222214610230095FEF7D9FB6C2091
:10316C002146022210230095FEF7D2FB4B2000EBE8
:10317C00C6010A20642202230095FEF7C9FB02B0A7
:10318C00BDE80007F0BDD0F8F024072A20D8D0F80D
:10319C00E0148A4220D2D0F8DC6400F2F443995C4B
:1031AC0056F8226036687668013E761A18BF4E1CB7
:1031BC009E5402B0BDE80007BDE8F040FFF73CBBF1
:1031CC00022102B0BDE80007BDE8F040FEF72ABFBF
:1031DC001046082109F078FF104609F075FFF0B58C
:1031EC0003AF2DE9000F83B0242443F2080541F20C
:1031FC000D4C4FF00009C4F20004C4F20105C0F6F6
:10320C00010C4FF0070B4FF00108002103E000996F
:10321C00052900F04B8201EB81004FF0C80A4042B7
:10322C000023013100910AEB4000019010E040F6C0
:10323C0018404FF48041C4F2020041F20D4C016081
:10324C000AF1080A029BC0F6010C132B00F00C814A
:10325C001CF90310581CB1F1FF3FCEB201DD0290F6
:10326C0025E01CF800009A1CE02E00F03F0106F04F
:10327C001F0016D31CF80220F02E02F03F0242EA87
:10328C00811103F103020FD31CF8022000F0070098
:10329C000433029302F03F0242EA811141EA804674
:1032AC0005E041EA801601E041EA003602920199FC
:1032BC00504608221023FDF721FC4FF60060B52E76
:1032CC00CFF6FF7008BFC12600EB0610202E38BFCA
:1032DC004FF4BE60B0F5C06F00F2E48140F6DF2120
:1032EC004FF0000EC0F6010101EB000CC0F5C061FF
:1032FC0004E00EF1010EBEF1100F98D0002602E092
:10330C000136082EF5D00EEBD600884280F0C8812D
:10331C001CF800002BEA0603226808FA03F3184095
:10332C0023689B1A592B0BD823689B1A592B9EBFC9
:10333C0023689B1A592B03D823689B1A5A2BEFD35B
:10334C002A68920709D42A6892075CBF2A685FEA48
:10335C00827202D42A689207F2D50246002818BF5E
:10336C004FF4E0624FEA12226A6018BF4FF4FC601F
:10337C002A68D20709D12A68D20704BF2A685FEAF3
:10338C00C27202D12A68D207F2D02A68120609D575
:10339C002A68120644BF2A685FEA026202D52A68CC
:1033AC001206F2D46A68226823689B1A592B0BD830
:1033BC0023689B1A592B9EBF23689B1A592B03D841
:1033CC0023689B1A5A2BEFD3226823689B1A592B1C
:1033DC000BD823689B1A592B9EBF23689B1A592B19
:1033EC0003D823689B1A5A2BEFD32A68920709D467
:1033FC002A6892075CBF2A685FEA827202D42A6844
:10340C009207F2D500F0E00068602868C00709D187
:10341C002868C00704BF28685FEAC07002D128681A
:10342C00C007F2D02868000609D52868000644BFFA
:10343C0028685FEA006002D528680006F2D4686844
:10344C0020682268121A592A3FF65AAF2268121ABB
:10345C00592A9EBF2268121A592A3FF651AF226888
:10346C00121A5A2AEDD34BE720684AF62022C0F2F2
:10347C0044022168091A91420BD22168091A91421F
:10348C003EBF2168091A914203D22168091A914260
:10349C00EFD300234FF0C80A0CE040F618404FF46D
:1034AC008041C4F202000AF1080A0160029B132B4E
:1034BC003FF4ADAE1CF90310581CB1F1FF3FCEB276
:1034CC0001DD029025E01CF800009A1CE02E00F0B3
:1034DC003F0106F01F0016D31CF80220F02E02F05C
:1034EC003F0242EA811103F103020FD31CF80220C0
:1034FC0000F007000433029302F03F0242EA81110C
:10350C0041EA804605E041EA801601E041EA0036D6
:10351C0002920199504608221023FDF7EFFA4FF65C
:10352C000060B52ECFF6FF7008BFC12600EB061069
:10353C00202E38BF4FF4BE60B0F5C06F00F2B280E1
:10354C0041F20D4CC0F5C0610022C0F6010C02E046
:10355C000132102AA1D0002302E00133082BF7D04E
:10356C0002EBD300884280F09B8020682668361AD4
:10357C00592E0BD82668361A592E9EBF2668361A35
:10358C00592E03D82668361A5A2EEFD3286880078E
:10359C0009D4286880075CBF28685FEA807002D471
:1035AC0028688007F2D5C5F804902868C00709D1AF
:1035BC002868C00704BF28685FEAC07002D1286879
:1035CC00C007F2D02868000609D52868000644BF59
:1035DC0028685FEA006002D528680006F2D46868A3
:1035EC0020682668361A592E0BD82668361A592E9A
:1035FC009EBF2668361A592E03D82668361A5A2EBC
:10360C00EFD320682668361A592E0BD82668361A3E
:10361C00592E9EBF2668361A592E03D82668361A9C
:10362C005A2EEFD32868800709D4286880075CBF1E
:10363C0028685FEA807002D428688007F2D5C5F844
:10364C0004902868C00709D12868C00704BF2868FF
:10365C005FEAC07002D12868C007F2D02868000663
:10366C0009D52868000644BF28685FEA006002D5C7
:10367C0028680006F2D4686820682668361A592E25
:10368C003FF66BAF2668361A592E9EBF2668361A3F
:10369C00592E3FF662AF2668361A5A2EEDD35CE7E8
:1036AC0009F012FD4FF4C0610AF035FE03B0BDE81D
:1036BC00000FF0BDF0B503AF4DF8048DA6B000219E
:1036CC001428CDE90311CDE9011107914FF0100138
:1036DC00069101A9059100F2AA8041F2F041C0F6D1
:1036EC00010101EBC000017931B101290BD141F28B
:1036FC00AE51C0F6010103E041F2AC51C0F601013C
:10370C001391022105E041F2B051C0F60101139171
:10371C00032140F255421491C0F60002002112928E
:10372C0013AA11924DF2DD02C0F600022023CDE95E
:10373C000F0203208DF890000122CDE9171015A877
:10374C000C9041F29C50C0F60100239108900FA8F8
:10375C000A9005A8229202268DF8702008AA1B91C7
:10376C00CDE9193140F20001C0F6010121931F96F9
:10377C001D9615960D9609960B960AF0C8F9002819
:10378C0058D1DDE906128A424ED8059915A80AF0DF
:10379C0084FA1598012855D01798002840D0169E09
:1037AC0040F668281A24C0F60108351814E043EADC
:1037BC008112861CCDF80080B52A08BFC122204694
:1037CC004FF495714FF6FF73202A38BF7F22FDF717
:1037DC0099F80834AE4223D0304616F9011BB1F1EA
:1037EC00FF3FCAB2E6DC437802F01F01E02A03F087
:1037FC003F03DCD38678F02A06F03F0646EA8313B3
:10380C000AD3C27801F00701061D02F03F0242EA1A
:10381C00831242EA8142CDE743EA0132C61CC9E772
:10382C0026B05DF8048BF0BD10460AF074FD15212E
:10383C0009F04AFC40F22801A7F11100C0F6010181
:10384C000AF02FFD41F2CC6108A8C0F601010AF084
:10385C0028FDD4D4F0B503AF2DE9000F81B02DEDC8
:10386C00068BADF51E7D0D464CF6600140F2240A28
:10387C0043F2080B014407902804C4F2000AC4F276
:10388C00010B00F06F85CDE90551002401202021AA
:10389C004FF4F07210230094FEF73AF81BA88DF841
:1038AC007440CDE91B44CDE98000CDE97E00CDE923
:1038BC007C00CDE97A00CDE97800CDE97600CDE940
:1038CC007400CDE97200CDE97000CDE96E00CDE950
:1038DC006C00CDE96A00CDE96800CDE96600CDE960
:1038EC006400CDE96200CDE96000CDE95E00CDE970
:1038FC005C00CDE95A00CDE95800CDE95600CDE980
:10390C005400CDE95200CDE95000CDE94E00CDE98F
:10391C004C00CDE94A00CDE94800CDE94600CDE99F
:10392C004400CDE94200CDE94000CDE93E00CDE9AF
:10393C003C00CDE93A00CDE93800CDE93600CDE9BF
:10394C003400CDE93200CDE93000CDE92E00CDE9CF
:10395C002C00CDE92A00CDE92800CDE92600CDE9DF
:10396C002400CDE92200CDE92000CDE91E00079806
:10397C00D0F8C814002900F0DF8207980DF1780CFC
:10398C000025002300F118020698D0E9010403E099
:10399C0001330C3299420FD0642B01F00C80166865
:1039AC00864202D25668A642F2D8632D01F20780F5
:1039BC004CF825200135EBE7002D089500F0BC8272
:1039CC000CF0E4F9054620460E460CF0DFF92A46C9
:1039DC003346169515960CF03AF89FEDDE8B4FF0AA
:1039EC000708CDE913104FF0010951EC180B9FEDAE
:1039FC00DB9B9FEDDCABCDE9111051EC190BCDE944
:103A0C001710002005E0DDE908018142084600F0AE
:103A1C009382642800F0CF87411C09911EA982AEC5
:103A2C0051F8200040211A90D0E9004019903046FE
:103A3C000CF00EFA20460CF0A9F9DDE915320CF069
:103A4C0006F8DDE911320CF012F8DDE913320BF057
:103A5C0095FA189D179B2A460BF074FCB0EE491A88
:103A6C00F0EE691A41EC100B0BF065FAB0EE481A47
:103A7C00F0EE681A0BF03CFA51EC104B2A46179DED
:103A8C00002094904020CDE992602B4610940D912B
:103A9C0020460E460BF02EFE0F90204631460BF0C2
:103AAC00B0FF044619980CF071F9DDE915320BF0F2
:103ABC00CEFFDDE911320BF0DAFFDDE913320BF04A
:103ACC005DFA189A2B460BF03DFCB0EE491AF0EE5D
:103ADC00691A41EC100B0BF02EFAB0EE481AF0EE0E
:103AEC00681A0BF005FA53EC1A2B1A9856EC105B6B
:103AFC00007A0E900F980028CDE90B2308BF0446DE
:103B0C0010980D990CF06EF9002818BF4FF0FF3487
:103B1C00DDE9173228463146199434460A960BF0E3
:103B2C00E9FD0646284621460BF06BFF0AAB04461E
:103B3C00002E08BF34460ECB28460CF053F9002853
:103B4C0018BF4FF0FF34199804F12106251A00F123
:103B5C0021040E99DFE801F00337152B0B4444F2D6
:103B6C002050C7F26D00829047F6741026E045F2A3
:103B7C002030C6F67470829070208DF80C020520EF
:103B8C001FE01A98CDF85C92CDF86492407A07F851
:103B9C00590C00209A9041F2C050C0F6010096904A
:103BAC009CA898904EF24D30C0F600002DE045F2E6
:103BBC002030C6F27410829047F27240ADF80C02BD
:103BCC000620949030E01A98CDF85C92407A07F871
:103BDC00590C00209A9041F2B850C0F601000BE04D
:103BEC001A98CDF85C92407A07F8590C00209A90FC
:103BFC0041F2D050C0F6010096909CA898904EF2DD
:103C0C007330C0F60000CDF864929D90A7F1590076
:103C1C0040F200019C9092A896AAC0F6010109F00E
:103C2C0076FF002840F0D886DDE993128A4200F234
:103C3C00B686929996A80AF030F89698012800F06A
:103C4C00C486989820211A904FF4FC60009020466E
:103C5C0032461023FDF75CFE1A98B5EBC00FFFF44B
:103C6C00D2AEDDE993128A4200F29986929996A817
:103C7C000AF013F89698012800F0A7869899002965
:103C8C003FF4C1AE199800F1220C97980144199198
:103C9C0002460EE040F618404FF48041C4F2020098
:103CAC000CF1080C0160DDE91902824210463FF468
:103CBC00AAAE12F9011BB1F1FF3FCEB21FDC427864
:103CCC0006F01F01E02E02F03F0211D38378F02E94
:103CDC0003F03F0343EA82120ED3C37801F00701CD
:103CEC0003F03F0343EA821242EA8146021D06E0DA
:103CFC0042EA8116821C02E042EA0136C21C1A9288
:103D0C0060462021082210236446FCF7F7FE4FF68C
:103D1C000060B52ECFF6FF7008BFC12600EB061071
:103D2C00202E38BF4FF4BE60B0F5C06F00F2338662
:103D3C0040F6DF210023C0F601010A18C0F5C0616E
:103D4C00A44602E00133102BA4D0002611E000BFE2
:103D5C0000BF00BF0000000000E07B40000000003E
:103D6C00000000000000E0FFFFFFEF410136082ECD
:103D7C00E8D003EBD600884280F00786105C28EA76
:103D8C000605DAF8004009FA05F52840DAF8005083
:103D9C002D1B592D0ED8DAF800502D1B592D9EBF16
:103DAC00DAF800502D1B592D04D8DAF800502D1BD1
:103DBC005A2DEBD3DBF80050AD070CD4DBF80050D8
:103DCC00AD075CBFDBF800505FEA857503D4DBF808
:103DDC000050AD07EED500284FF0000008BF4FF49F
:103DEC00E0604FEA1020CBF804004FF0000008BF51
:103DFC004FF4FC60DBF80050ED070CD1DBF8005001
:103E0C00ED0704BFDBF800505FEAC57503D1DBF8A2
:103E1C000050ED07EED0DBF800502D060CD5DBF88A
:103E2C0000502D0644BFDBF800505FEA056503D552
:103E3C00DBF800502D06EED4DBF80450DAF8004025
:103E4C00DAF800502D1B592D0ED8DAF800502D1B26
:103E5C00592D9EBFDAF800502D1B592D04D8DAF8D5
:103E6C0000502D1B5A2DEBD3DAF80040DAF8005035
:103E7C002D1B592D0ED8DAF800502D1B592D9EBF35
:103E8C00DAF800502D1B592D04D8DAF800502D1BF0
:103E9C005A2DEBD3DBF80050AD070CD4DBF80050F7
:103EAC00AD075CBFDBF800505FEA857503D4DBF827
:103EBC000050AD07EED500F0E000CBF80400DBF8C5
:103ECC000000C0070CD1DBF80000C00704BFDBF812
:103EDC0000005FEAC07003D1DBF80000C007EED031
:103EEC00DBF8000000060CD5DBF80000000644BF30
:103EFC00DBF800005FEA006003D5DBF80000000689
:103F0C00EED4DBF80400DAF80000DAF800502D1AD1
:103F1C00592D3FF62BAFDAF800502D1A592D9EBFB4
:103F2C00DAF800502D1A592D3FF620AFDAF8005070
:103F3C002D1A5A2DE9D319E740F668241020C0F643
:103F4C000104322130224FF6FF7300944FF6FF75B7
:103F5C00FCF7D8FC00203221212201230095FDF72B
:103F6C00D7FC1020502131224FF6FF730094FCF740
:103F7C00C9FC00205021212201230095FDF7C8FC2B
:103F8C0010206E2132224FF6FF730094FCF7BAFC1E
:103F9C0000206E21212201230095FDF7B9FC102091
:103FAC008C2133224FF6FF730094FCF7ABFC0020FE
:103FBC008C21212201230095FDF7AAFC1020AA21B7
:103FCC0034224FF6FF730094FCF79CFC0020AA21CE
:103FDC00212201230095FDF79BFC1020C8213522DE
:103FEC004FF6FF730094FCF78DFC0020C8212122B2
:103FFC0001230095FDF78CFC1020E62136224FF6AC
:10400C00FF730094FCF77EFC0020E62121220123A3
:10401C000095FDF77DFC10204FF4827137224FF68E
:10402C00FF730094FCF76EFC00204FF48271212288
:10403C0001230095FDF76CFC41F2D850C0F601004D
:10404C00149007980068DFE810F081011400050057
:10405C000F000A0041F2F450C0F6010008E041F2F2
:10406C002C60C0F6010003E041F21060C0F60100C4
:10407C001490149801690798043017908847002809
:10408C00169000F06381149800214069159005E0AA
:10409C00189916980131814200F058811798159A99
:1040AC0018919047002800F08E840C46481CEFD0E5
:1040BC0014988269DDE917019047002800F0838489
:1040CC000029E5D001441991C4EB04114FF000090B
:1040DC0080463E2202EB41011A910CE040F618405A
:1040EC004FF48041C4F2020009F1080901601998EB
:1040FC0080454046CCD018F9011BB1F1FF3FCEB240
:10410C0022DC427806F01F01E02E02F03F0212D3AF
:10411C008378F02E03F03F0343EA821210D3C37866
:10412C0001F0070100F1040803F03F0343EA821297
:10413C0042EA814608E042EA811600F1020803E0F7
:10414C0042EA013600F103081A9948460822102366
:10415C00FCF7D4FC4FF60060B52ECFF6FF7008BF0D
:10416C00C12600EB0610202E38BF4FF4BE60B0F510
:10417C00226F00F20C8440F248010023C0F60101CA
:10418C0001EB000CC0F5226102E00133102BA5D02D
:10419C00002602E00136082EF7D003EBD600884249
:1041AC0080F0F3831CF8000006F00705DAF80040F5
:1041BC00DAF80020121B592A0ED8DAF80020121B4C
:1041CC00592A9EBFDAF80020121B592A04D8DAF8B3
:1041DC000020121B5A2AEBD385F00705DBF80020D0
:1041EC0092070CD4DBF8002092075CBFDBF80020B0
:1041FC005FEA827203D4DBF800209207EED5E84028
:10420C0000F001004042C0B2CBF80400DBF8002003
:10421C00D2070CD1DBF80020D20704BFDBF800205A
:10422C005FEAC27203D1DBF80020D207EED0DBF8D4
:10423C00002012060CD5DBF80020120644BFDBF878
:10424C0000205FEA026203D5DBF800201206EED4F0
:10425C00DBF80420DAF80050DAF80020521B592A57
:10426C000ED8DAF80020521B592A9EBFDAF800202B
:10427C00521B592A04D8DAF80020521B5A2AEBD3C5
:10428C00DAF80050DAF80020521B592A0ED8DAF866
:10429C000020521B592A9EBFDAF80020521B592AC3
:1042AC0004D8DAF80020521B5A2AEBD3DBF8002092
:1042BC0092070CD4DBF8002092075CBFDBF80020DF
:1042CC005FEA827203D4DBF800209207EED5CBF8BC
:1042DC000400DBF80000C0070CD1DBF80000C007BD
:1042EC0004BFDBF800005FEAC07003D1DBF800000C
:1042FC00C007EED0DBF8000000060CD5DBF80000A0
:10430C00000644BFDBF800005FEA006003D5DBF871
:10431C0000000006EED4DBF80400DAF80000DAF84E
:10432C000020121A592A3FF635AFDAF80020121A7B
:10433C00592A9EBFDAF80020121A592A3FF62AAFE2
:10434C00DAF80020121A5A2AE9D323E74FF6FF7045
:10435C001F210090202001224FF48173FDF7D8FA21
:10436C00DDE90551D1E900608968099101900BF0F4
:10437C000DFD002ECDE9151000F0FF8207994AF2D1
:10438C0050100844069001F5A2600790E8B21A900C
:10439C00A8B2000A1990701E029009980BF0F6FC56
:1043AC00DDE915320BF053FB9FED968B9FED979B40
:1043BC009FED98ABCDE913100020039005E0039816
:1043CC0001300390082800F0D882029A002A30D4D9
:1043DC00019E0021079D4FF00009501842F20F7307
:1043EC0000EBD0704010984200F2DC8255F820307F
:1043FC00B34296BF411C421E81469142EDDD0298AC
:10440C00002102468046501842F20F7300EBD07028
:10441C004010984200F2C68255F82030099EB342F3
:10442C0032BF411C421E80469142ECDDC145C6D8CC
:10443C0002E04FF000099046039A3221C2EB0210C1
:10444C0001EB400008900698079910F8090051F804
:10445C002930D1B2012202FA01F1084004914946F7
:10446C0018BF01201790CDF81480C14538BF013119
:10447C0042F21070814580F09982184611910BF030
:10448C0085FCDDE915320BF0E2FA53EC182BCDE983
:10449C000E230BF0ECFADDE913320AF06FFD55EC4C
:1044AC00198B42462B460AF04DFFB0EE491AF0EE3E
:1044BC00691A41EC100B0AF03EFDB0EE481AF0EE12
:1044CC00681A0AF015FD56EC102B06982B460A9527
:1044DC0010F8090010900C920D96104614463146B7
:1044EC0042460BF007F90B90204631460BF089FA47
:1044FC0006460798CDF8489050F8290018900BF014
:10450C0045FCDDE915320BF0A2FADDE90E230BF0C8
:10451C00AEFADDE913320AF031FD42462B460AF0C1
:10452C0011FFB0EE491AF0EE691A41EC100B0AF0CB
:10453C0002FDB0EE481AF0EE681A0AF0D9FC53EC02
:10454C001A2B0B9854EC105B0028CDE90E2308BFF6
:10455C000646DDE90C010BF045FC002818BF4FF0B6
:10456C00FF360A9B284621464246B1460BF0C2F85C
:10457C000646284621460BF044FA8046002E08BF1A
:10458C00B046DDE90E23284621460BF02BFC002813
:10459C0018BF4FF0FF38179CA8EB0905CDF83C80ED
:1045AC0005F1010808990123E007424609F12100B1
:1045BC0008BF1431FCF7A2FA04981099084006467B
:1045CC0018BF0126A8452CD240F618414FF4804262
:1045DC00C4F2020100280A6018BF01200999189B37
:1045EC00DDF814809942C0F0BD816040C00700F036
:1045FC00B9810F9801220899142321301425FCF756
:10460C007DFADCE00000000000E07B4000000000D0
:10461C00000000000000E0FFFFFFEF41B8F10108CF
:10462C00D2D0DAF80010DAF80020521A592A0ED833
:10463C00DAF80020521A592A9EBFDAF80020521AD2
:10464C00592A04D8DAF80020521A5A2AEBD3DBF88C
:10465C00001089070CD4DBF8001089075CBFDBF86D
:10466C0000105FEA817103D4DBF800108907EED5E6
:10467C001999CBF80410DBF80010C9070CD1DBF842
:10468C000010C90704BFDBF800105FEAC17103D149
:10469C00DBF80010C907EED0DBF8001009060CD5CA
:1046AC00DBF80010090644BFDBF800105FEA01617B
:1046BC0003D5DBF800100906EED4DBF80410DAF8A9
:1046CC000010DAF80020521A592A0ED8DAF8002015
:1046DC00521A592A9EBFDAF80020521A592A04D8C5
:1046EC00DAF80020521A5A2AEBD3DAF80010DAF86A
:1046FC000020521A592A0ED8DAF80020521A592AD8
:10470C009EBFDAF80020521A592A04D8DAF8002091
:10471C00521A5A2AEBD3DBF8001089070CD4DBF8B9
:10472C00001089075CBFDBF800105FEA817103D4CD
:10473C00DBF800108907EED51A99CBF80410DBF8DA
:10474C000010C9070CD1DBF80010C90704BFDBF857
:10475C0000105FEAC17103D1DBF80010C907EED07D
:10476C00DBF8001009060CD5DBF80010090644BF75
:10477C00DBF800105FEA016103D5DBF800100906D5
:10478C00EED4DBF80410DAF80010DAF80020521A34
:10479C00592A3FF643AFDAF80020521A592A9EBF25
:1047AC00DAF80020521A592A3FF638AFDAF800200E
:1047BC00521A5A2AE9D331E7013D00F0CB80DAF8DE
:1047CC000000DAF80010091A59290ED8DAF800108E
:1047DC00091A59299EBFDAF80010091A592904D868
:1047EC00DAF80010091A5A29EBD3DBF8000080071D
:1047FC000CD4DBF8000080075CBFDBF800005FEA3C
:10480C00807003D4DBF800008007EED51998CBF844
:10481C000400DBF80000C0070CD1DBF80000C00777
:10482C0004BFDBF800005FEAC07003D1DBF80000C6
:10483C00C007EED0DBF8000000060CD5DBF800005A
:10484C00000644BFDBF800005FEA006003D5DBF82C
:10485C0000000006EED4DBF80400DAF80000DAF809
:10486C000010091A59290ED8DAF80010091A59291A
:10487C009EBFDAF80010091A592904D8DAF800108A
:10488C00091A5A29EBD3DAF80000DAF80010091AE1
:10489C0059290ED8DAF80010091A59299EBFDAF8EE
:1048AC000010091A592904D8DAF80010091A5A29E3
:1048BC00EBD3DBF8000080070CD4DBF8000080079A
:1048CC005CBFDBF800005FEA807003D4DBF800000B
:1048DC008007EED51A98CBF80400DBF80000C0076F
:1048EC000CD1DBF80000C00704BFDBF800005FEA66
:1048FC00C07003D1DBF80000C007EED0DBF800007D
:10490C0000060CD5DBF80000000644BFDBF8000005
:10491C005FEA006003D5DBF800000006EED4DBF89C
:10492C000400DAF80000DAF80010091A59293FF6E9
:10493C0043AFDAF80010091A59299EBFDAF80010B3
:10494C00091A59293FF638AFDAF80010091A5A2912
:10495C00E9D331E740F618404FF48041C4F202002D
:10496C000160189B129811994045BFF428AD414540
:10497C00894617967FF679AD21E50DF51E7DBDECC8
:10498C00068B01B0BDE8000FF0BD08F09DFB4FF4A5
:10499C00226109F0C0FC4FF4C06109F0BCFC104668
:1049AC0009F0B9FC42F2107108F08EFB484642F255
:1049BC00107108F089FB6420642108F085FB2846FF
:1049CC00642108F081FB09F0AEFC41F2CC619CA89B
:1049DC00C0F6010109F065FC40F2280196A8C0F66A
:1049EC00010109F05EFCF0B503AF2DE9000782B0C0
:1049FC0041F254610E22C0F601010446FDF7FFF8A6
:104A0C0041F234112046C0F60101FDF78AFA00206C
:104A1C004FF6FF7AC4F8EC0440F2C11000210122D9
:104A2C001E23D4F8E484CDF800A0FCF771FF40F607
:104A3C0068294FF0FF36C0F60109B8F1000FCDF828
:104A4C00009008BF40F21F464FF4C5700721BD22ED
:104A5C0033464FF0FF35FBF755FF4FF4C970072174
:104A6C00BE223346CDF80090FBF74CFF4FF4D170CB
:104A7C00002101221E23CDF800A0FCF749FF4FF0C6
:104A8C00FF36CDF80090B8F1010F08BF40F21F4679
:104A9C0040F2A91007218B223346FBF733FF40F27B
:104AAC00B11007218C223346CDF80090FBF72AFF7A
:104ABC0040F28310002101221E23CDF800A0FCF748
:104ACC0027FFCDF80090B8F1020F08BF40F21F4548
:104ADC004FF4E47007219F222B46FBF713FF4FF492
:104AEC00E8700721A0222B46CDF80090FBF70AFFB7
:104AFC0020464FF6FF71FEF7ADFE4CF66C002058C9
:104B0C0002B0BDE80007BDE8F040FEF7D3BDF0B53C
:104B1C0003AF4DF8048DD0E90145AC4216D31646CF
:104B2C00621BB24228BF32468046002A1EBFD8F80C
:104B3C00000028440AF018FEA819844238BF204609
:104B4C00C8F8080000205DF8048BF0BD284621460B
:104B5C0009F0E1FB0420704703290FD8DFE801F0CE
:104B6C00020B05080168012070478168012070471D
:104B7C00C1680120704741680120704700207047D0
:104B8C0003290CD841F2007041F2F062C0F601002A
:104B9C00C0F6010250F8210052F821107047002095
:104BAC0070470020704702207047012902BF4168FE
:104BBC0001207047002902BF0168012070470020C6
:104BCC00704741F2E46241F2E160C0F60102012952
:104BDC0018BF00220029C0F601004FF0030118BFD6
:104BEC0010467047012070470268B1FA81F0400905
:104BFC001146704741F2E7600029C0F601004FF002
:104C0C00020118BF00207047012902BF4168012032
:104C1C007047002902BF01680120704700207047CF
:104C2C0041F2EB6241F2E960C0F60102012918BFC2
:104C3C0000220029C0F601004FF0020118BF1046F7
:104C4C00704780B56F4600F001F8D4D4B0B502AF10
:104C5C00ADF5CA3DFAB00AF048F904460AF038F945
:104C6C0040F2000104F00100C2F200010A78002AAF
:104C7C0048F0C9810DF1A40E012200280EF5484B15
:104C8C000A7008BF0AF026F949F2FF4441F20025E8
:104C9C0000200DF1A40EC0F6BA24611CCDE9001061
:104CAC00C0F27A050EF5484029460122012309F08D
:104CBC008FFBDBF80000022808F0EF81C00708F03A
:104CCC00F981DBF8040045F60172C0F64C12A0F134
:104CDC00B771A1F55851914288F0A98101194EF292
:104CEC002F32C0F2BE02090AA1FB0213D90A012914
:104CFC000CD0022907D0002908F07E814FF40071F6
:104D0C004FF0F00804E04FF0800801E04FF000088D
:104D1C004AF24056B0FBF1F1C0F2AE268B19013BC2
:104D2C009B09A3FB0235EB0A012B0BD0022B06D0FF
:104D3C00002B08F0618104234FF4A05904E04FF4D8
:104D4C00805901E04FF00009B1FBF3F4731C9C4255
:104D5C0088F0748144F67F23C0F25D53CD18ED09C1
:104D6C00A5FB0225EA0A012A0BD0022A06D0002A4A
:104D7C0008F0428104224FF4204A04E04FF4004A28
:104D8C0001E04FF0000AB1FBF2F59A1C954288F055
:104D9C005C81CDE90A450CAC4CF6600201384CF64E
:104DAC00640304EB020C0BEB0302099245F2C742BD
:104DBC00C009C0F21E124AF25015A0FB0202254493
:104DCC0043F60004C4F20204D4F80004920A000969
:104DDC0060F31F1242F4E060C4F80004206840F451
:104DEC00803020602068800309D4206880035CBF79
:104DFC0020685FEA803002D420688003F2D52068F6
:104E0C0040F08070206047F60120CDF820C0C0F63D
:104E1C00032081422FD3206C40F0805020640AF094
:104E2C0061F847F20400C4F2000050F8041C41F48D
:104E3C00803140F8041C0168C90309D40168C90316
:104E4C005CBF01685FEAC13102D40168C903F2D5C5
:104E5C0050F8041C41F4003140F8041C016889032B
:104E6C0009D4016889035CBF01685FEA813102D40F
:104E7C0001688903F2D503952068800109D4206864
:104E8C0080015CBF20685FEA801002D4206880013A
:104E9C00F2D5A0684FF6F04220F40000A060D4F8E0
:104EAC008C0020F47000C4F88C00A16849EA08005A
:104EBC0040EA0A0091430843A06010200AF00CF865
:104ECC00A0680221012561F30100A060206B40F075
:104EDC0039002063606C40F48050606440F20C60D8
:104EEC00C4F24720056009F0FDFF40F2002B40F2B0
:104EFC00000A45F25550C4F2472BCBF80C50002554
:104F0C00C4F2020AC5F2000040F61842CBF80C506D
:104F1C00CAF8000C45F25550C4F20202C0F240002F
:104F2C00C2F8E80341F20800C4F202004FF0A0619D
:104F3C00C0F8F81348F2FF0141F21843116040F633
:104F4C00FF01C4F20203016145F255514FF6FF789F
:104F5C0042F80C1C416040F2240943F80C1CC4F2CA
:104F6C000009C3F8F4134FF0FF3142F8108CC0F86D
:104F7C000080C0F80084C3F8F083206C40F001007E
:104F8C0020644FF080400124056049F8205CC9F88A
:104F9C000450C9F8081049F8185C016841F0010187
:104FAC000160CBF8004409F09DFFCBF800400521CF
:104FBC00CBF800500222CAF80880DAF8040020F07E
:104FCC002000CAF80400DAF8200061F31750CAF880
:104FDC002000DAF8000062F38B20CAF80000DAF83F
:104FEC00040020F04000CAF80400DAF8200061F355
:104FFC001B60CAF82000DAF8000062F30D30CAF822
:10500C000000DAF8040020F08000CAF80400DAF896
:10501C00200061F31F70CAF82000DAF8000062F378
:10502C008F30CAF8000040F20C6AC4F2472ACAF862
:10503C00A44209F057FF43F20808CBF8B042C4F27F
:10504C000108CBF8B05228F8045C48F27F400B9A68
:10505C00C0F21E00824247F2CF8748F680500024EF
:10506C00C0F25B0082424FF0000017D341F60030D3
:10507C00C0F2B700824201D208200FE043F2006078
:10508C00C0F26E10824201D2102007E046F60041B9
:10509C002020C0F2DC218A4238BF182040F4417035
:1050AC0028F8080C38F8080C40F6184243F2BF7187
:1050BC00C4F2020208400721403028F8080C52F8CC
:1050CC00140C012520F4807042F8140CD06861F3A4
:1050DC000300D06000220221C4F20202D2F8000CBC
:1050EC0061F31140C2F8000CCAF83C5209F0FAFE08
:1050FC0040F20020C4F24720C0F84852C0F84842A1
:10510C000A99480BE02816D8B1F5612FC7F0D4875F
:10511C004FF4614000EB41004BF2C531C9F2A211D2
:10512C00A0FB0101702000EA1140C1F3424101448F
:10513C004AF20C000AE001F561404BF2C531C9F2AC
:10514C00A211A0FB010142F20C00090C44F6000272
:10515C00C4F200029160002111615161D0601161B3
:10516C0010680006FCD54920506010680006FCD57C
:10517C005420506010680006FCD553205060106815
:10518C000006FCD52D20506010680006FCD542208E
:10519C00506010680006FCD56F2050601068000647
:1051AC00FCD56120506010680006FCD57220506060
:1051BC0010680006FCD56420506010680006FCD511
:1051CC002020506010680006FCD5692050601068E3
:1051DC000006FCD56E20506010680006FCD56920D6
:1051EC00506010680006FCD57420506010680006F2
:1051FC00FCD56920506010680006FCD56120506019
:10520C0010680006FCD56C20506010680006FCD5B8
:10521C006920506010680006FCD57A205060106838
:10522C000006FCD56520506010680006FCD5642093
:10523C00506010680006FCD50A205060106800060B
:10524C0009D4106800065CBF10685FEA006002D4E5
:10525C0010680006F2D541F218410A2050604FF454
:10526C008050C4F202010860D9F80000D9F800108F
:10527C00091AB1420ED2D9F80010091AB1423EBF38
:10528C00D9F80010091AB14204D2D9F80010091A41
:10529C00B142EBD341F218414FF08050C4F20201FD
:1052AC000860D9F80000D9F80010091AB1420ED2E2
:1052BC00D9F80010091AB1423EBFD9F80010091AEA
:1052CC00B14204D2D9F80010091AB142EBD341F221
:1052DC0018414FF48050C4F202010860D9F8000064
:1052EC00D9F80010091AB1420ED2D9F80010091AD7
:1052FC00B1423EBFD9F80010091AB14204D2D9F814
:10530C000010091AB142EBD340F678264FF0000E8C
:10531C004FF0005C4FF0804BC0F601064FF4804517
:10532C004FF4005A002002E0672880F0608141F2BF
:10533C00184140F61842C4F20201C4F20202C1F84C
:10534C0000C0315CC2F800B0D9F80020D9F8004098
:10535C00A41A592C0ED8D9F80040A41A592C9EBF67
:10536C00D9F80040A41A592C04D8D9F80040A41A32
:10537C005A2CEBD3D8F8002092070CD4D8F8002084
:10538C0092075CBFD8F800205FEA827203D4D8F889
:10539C0000209207EED5C8F80410D8F80010C90701
:1053AC000CD1D8F80010C90704BFD8F800105FEA78
:1053BC00C17103D1D8F80010C907EED0D8F800108D
:1053CC0009060CD5D8F80010090644BFD8F800100F
:1053DC005FEA016103D5D8F800100906EED4D8F8BD
:1053EC000410D9F80010D9F80020521A592A0ED8F6
:1053FC00D9F80020521A592A9EBFD9F80020521A07
:10540C00592A04D8D9F80020521A5A2AEBD340F65C
:10541C0018416628C4F202010D6007F03A86811922
:10542C0002304A7852B97FE740F61841013AC4F28B
:10543C00020101300D6011063FF476AF662807F2C9
:10544C00D88541F2184140F61843C4F20201C4F267
:10545C000203C1F800A0315CC3F800B0D9F80040D9
:10546C00D9F800301B1B592B0ED8D9F800301B1B58
:10547C00592B9EBFD9F800301B1B592B04D8D9F8D7
:10548C0000301B1B5A2BEBD3D8F800309B070CD4E5
:10549C00D8F800309B075CBFD8F800305FEA837304
:1054AC0003D4D8F800309B07EED5C8F804E0D8F840
:1054BC000030DB070CD1D8F80030DB0704BFD8F87C
:1054CC0000305FEAC37303D1D8F80030DB07EED0AD
:1054DC00D8F800301B060CD5D8F800301B0644BF9A
:1054EC00D8F800305FEA036303D5D8F800301B0608
:1054FC00EED4D8F80430D9F80040D9F800301B1B92
:10550C00592B0ED8D9F800301B1B592B9EBFD9F83C
:10551C0000301B1B592B04D8D9F800301B1B5A2BFD
:10552C00EBD3D9F80040D9F800301B1B592B0ED8FF
:10553C00D9F800301B1B592B9EBFD9F800301B1B10
:10554C00592B04D8D9F800301B1B5A2BEBD3D8F8A5
:10555C0000309B070CD4D8F800309B075CBFD8F800
:10556C0000305FEA837303D4D8F800309B07EED584
:10557C00C8F80410D8F80010C9070CD1D8F80010DE
:10558C00C90704BFD8F800105FEAC17103D1D8F87D
:10559C000010C907EED0D8F8001009060CD5D8F8C1
:1055AC000010090644BFD8F800105FEA016103D56A
:1055BC00D8F800100906EED4D8F80410D9F8001069
:1055CC00D9F800305B1A592B3FF62EAFD9F80030C2
:1055DC005B1A592B9EBFD9F800305B1A592B3FF63A
:1055EC0023AFD9F800305B1A5A2BE9D31CE741F2F0
:1055FC0018414FF00050C4F20201086040F6184107
:10560C004FF08040C4F202010860D9F80000D9F8CC
:10561C000010091A59290ED8D9F80010091A59295D
:10562C009EBFD9F80010091A592904D8D9F80010CE
:10563C00091A5A29EBD30DF1A40E0EF5484AD8F8E5
:10564C00000080070CD4D8F8000080075CBFD8F8A5
:10565C0000005FEA807003D4D8F800008007EED514
:10566C00B620C8F80400D8F80000C0070CD1D8F850
:10567C000000C00704BFD8F800005FEAC07003D177
:10568C00D8F80000C007EED0D8F8000000060CD502
:10569C00D8F80000000644BFD8F800005FEA0060AC
:1056AC0003D5D8F800000006EED4D8F80400D9F8D9
:1056BC000000D9F80010091A59290ED8D9F8001091
:1056CC00091A59299EBFD9F80010091A592904D86A
:1056DC00D9F80010091A5A29EBD340F6184141F2B7
:1056EC0018424FF48040C4F2020108604FF400509D
:1056FC00C4F2020210604FF080400860D9F800003C
:10570C00D9F80010091A59290ED8D9F80010091A1D
:10571C0059299EBFD9F80010091A592904D8D9F86B
:10572C000010091A5A29EBD3D8F8000080070CD4C2
:10573C00D8F8000080075CBFD8F800005FEA8070E2
:10574C0003D4D8F800008007EED50020C8F8040078
:10575C00D8F80000C0070CD1D8F80000C00704BF6F
:10576C00D8F800005FEAC07003D1D8F80000C00779
:10577C00EED0D8F8000000060CD5D8F800000006D2
:10578C0044BFD8F800005FEA006003D5D8F80000E9
:10579C000006EED4D8F80400D9F80000D9F80010AF
:1057AC00091A59290ED8D9F80010091A59299EBF7F
:1057BC00D9F80010091A592904D8D9F80010091A77
:1057CC005A29EBD3D9F80000D9F80010091A592935
:1057DC000ED8D9F80010091A59299EBFD9F8001013
:1057EC00091A592904D8D9F80010091A5A29EBD3E7
:1057FC00D8F8000080070CD4D8F8000080075CBFF4
:10580C00D8F800005FEA807003D4D8F80000800755
:10581C00EED50020C8F80400D8F80000C0070CD161
:10582C00D8F80000C00704BFD8F800005FEAC070C9
:10583C0003D1D8F80000C007EED0D8F8000000065D
:10584C000CD5D8F80000000644BFD8F800005FEA79
:10585C00006003D5D8F800000006EED4D8F8040098
:10586C00D9F80000D9F80010091A59290ED8D9F81E
:10587C000010091A59299EBFD9F80010091A592984
:10588C0004D8D9F80010091A5A29EBD340F618415C
:10589C0041F218424FF48040C4F2020108604FF408
:1058AC000050C4F2020210604FF080400860D9F83A
:1058BC000000D9F80010091A59290ED8D9F800108F
:1058CC00091A59299EBFD9F80010091A592904D868
:1058DC00D9F80010091A5A29EBD3D8F80000800720
:1058EC000CD4D8F8000080075CBFD8F800005FEA41
:1058FC00807003D4D8F800008007EED50020C8F8DB
:10590C000400D8F80000C0070CD1D8F80000C0077C
:10591C0004BFD8F800005FEAC07003D1D8F80000CB
:10592C00C007EED0D8F8000000060CD5D8F800005F
:10593C00000644BFD8F800005FEA006003D5D8F831
:10594C0000000006EED4D8F80400D9F80000D9F80D
:10595C000010091A59290ED8D9F80010091A59291A
:10596C009EBFD9F80010091A592904D8D9F800108B
:10597C00091A5A29EBD3D9F80000D9F80010091AE2
:10598C0059290ED8D9F80010091A59299EBFD9F8EF
:10599C000010091A592904D8D9F80010091A5A29E3
:1059AC00EBD3D8F8000080070CD4D8F8000080079F
:1059BC005CBFD8F800005FEA807003D4D8F8000010
:1059CC008007EED56220C8F80400D8F80000C007A4
:1059DC000CD1D8F80000C00704BFD8F800005FEA6B
:1059EC00C07003D1D8F80000C007EED0D8F8000082
:1059FC0000060CD5D8F80000000644BFD8F800000B
:105A0C005FEA006003D5D8F800000006EED4D8F8A1
:105A1C000400D9F80000D9F80010091A59290ED839
:105A2C00D9F80010091A59299EBFD9F80010091A83
:105A3C00592904D8D9F80010091A5A29EBD340F681
:105A4C00184141F218424FF48040C4F20201086040
:105A5C004FF00050C4F2020210604FF0804008601A
:105A6C00D9F80000D9F80010091A59290ED8D9F81C
:105A7C000010091A59299EBFD9F80010091A592982
:105A8C0004D8D9F80010091A5A29EBD3D8F8000019
:105A9C0080070CD4D8F8000080075CBFD8F8000051
:105AAC005FEA807003D4D8F800008007EED536206A
:105ABC00C8F80400D8F80000C0070CD1D8F80000D2
:105ACC00C00704BFD8F800005FEAC07003D1D8F853
