:020000040800F2
:1000000000000320AD01000885FB0008B71B0108B4
:1000100085FB000885FB000885FB00080000000048
:1000200000000000000000000000000085FB000848
:1000300085FB00080000000085FB000885FB000828
:1000400085FB000885FB000885FB000885FB000890
:1000500085FB000885FB000885FB000885FB000880
:1000600085FB000885FB000885FB000885FB000870
:1000700085FB000885FB000885FB000885FB000860
:1000800085FB000885FB000885FB000885FB000850
:1000900085FB000885FB000885FB000885FB000840
:1000A00085FB000885FB000885FB000885FB000830
:1000B00085FB000885FB000885FB000885FB000820
:1000C00085FB000885FB000885FB000885FB000810
:1000D00085FB000885FB000885FB000885FB000800
:1000E00085FB000885FB000885FB000885FB0008F0
:1000F00085FB000885FB000885FB000885FB0008E0
:1001000085FB000885FB000885FB000885FB0008CF
:1001100085FB000885FB000885FB000885FB0008BF
:1001200085FB000885FB000885FB000885FB0008AF
:1001300085FB000885FB000885FB000885FB00089F
:1001400085FB000885FB000885FB000885FB00088F
:1001500085FB000885FB000885FB000885FB00087F
:1001600085FB000885FB000885FB000885FB00086F
:1001700085FB000885FB000885FB000885FB00085F
:1001800085FB000885FB000885FB000885FB00084F
:1001900085FB000885FB000885FB000885FB00083F
:0C01A00085FB000885FB000885FB0008BB
:1001AC000FF0EBFC0E480F490022814201D004C035
:1001BC00FBE70D480D490E4A814202D008CA08C01F
:1001CC00FAE70C484FF47001026842EA010202603F
:1001DC00BFF34F8FBFF36F8F06F000F800DE000007
:1001EC00000000200400002000000020000000207F
:1001FC00CC36010888ED00E0CAB101EB020C44F6E4
:10020C000002C4F2000203E00131536061450ED0DC
:10021C000B7810680006F7D4106800065CBF1068F5
:10022C005FEA0060F0D410680006F2D5ECE700201D
:10023C00704780B56F46A2B00A46C969CB0616D482
:10024C00890621D4017864294CD329204843030B17
:10025C006FF0630013FB001043F26B31C0F6010129
:10026C00C0B231F81000ADF8090000203EE0007873
:10027C0000F00F0101F157030A2938BF01F13003D7
:10028C008DF8873057210BE0007800F00F0101F159
:10029C0037030A2938BF01F1300337218DF8873035
:1002AC0001EB10110309A02838BF03F1300110280D
:1002BC0038BF00218DF886104FF0020138BF0121A4
:1002CC00009102A9102801F17E03104638BF01F1FC
:1002DC007F0343F26931C0F6010102220EF0E6FA07
:1002EC0022B080BD0A2906D202200B4643F0300111
:1002FC0002AB195408E043F26B30C0F6010030F841
:10030C001100ADF80900012080F00301009102A951
:10031C000B181046012100220EF0C8FA22B080BD45
:10032C00F0B503AF2DE9000F8DB006680C463078A0
:10033C0080B1D4E905B941F6E231D9F80C50C0F6D8
:10034C00010104225846A84790B101200DB0BDE828
:10035C00000FF0BD41F6F631D4E90502D368C0F6C2
:10036C00010104220DB0BDE8000FBDE8F0401847B4
:10037C00D4F81CA006F101085FEA4A7015D443F2C8
:10038C0065315846C0F601010122A84701460120FB
:10039C000029DBD140462146FFF74BFF002846D011
:1003AC0001200DB0BDE8000FF0BD43F26631584698
:1003BC00C0F601010222A847014601200029C5D13F
:1003CC0004F10806A7F1410143F2403507F8410C4E
:1003DC004CCE6846C0F60105CDE90191D4E900C1C7
:1003EC00099006A8CDE904C104A90A9594F82050F7
:1003FC004CC04046CDF800B0CDF82CA08DF8305054
:10040C00FFF717FF20B101200DB0BDE8000FF0BDC4
:10041C00DDE909010222CB6843F26031C0F601012B
:10042C00984720B101200DB0BDE8000FF0BDD4E914
:10043C0005010122CB6843F21031C0F60101984747
:10044C000DB0BDE8000FF0BD0B46D0E90012184608
:10045C000EF096BDF0B503AF2DE9000FA3B08946A1
:10046C00C969CA064ED4890600F18A80016842F235
:10047C0010704FF69C7E814243F26B30C0F6010047
:10048C00C0F0D68041F259784EF2FF040DF10C0BFE
:10049C00CDF808900022CDF2B7184DF6F00941F2D4
:1004AC007B4AC0F2F554A1FB08350BEB020C043A65
:1004BC00A1424FEA553303FB09151946AEB24FEA78
:1004CC00960606FB0AF64FEA564606FB0E5530F822
:1004DC001660ACF80660ADB230F81550ACF80850A8
:1004EC00E1D8DDF808900A321946632900F2A4809D
:1004FC000B460A2BC0F0B180911E30F8130003AAF2
:10050C005052AFE003680DF10C0E802481214FF0A6
:10051C005708204603F00F0404F157050A2C38BF86
:10052C0004F130050EEB0104102B04F8025C66D3C9
:10053C00DDB2A02D08EB15164FEA151238BF02F1EB
:10054C0030061D0A04F8036C5CD005F00F02043968
:10055C0002F157050A2A38BF02F1300504F8045C91
:10056C001D0B52D005F00F0202F157050A2A38BFB5
:10057C0002F1300504F8055C041F1B0CC9D13CE0EA
:10058C0003680DF10C0E802481214FF0370C03F021
:10059C000F06204606F137050A2E0EEB010438BF74
:1005AC0006F13005102B04F8025C28D3DEB2A02E25
:1005BC000CEB16154FEA161238BF02F1300504F891
:1005CC00035C1D0A1ED005F00F02043902F1370539
:1005DC000A2A38BF02F1300504F8045C1D0B14D054
:1005EC0005F00F0202F137050A2A38BF02F1300577
:1005FC0004F8055C041F1B0CC9D1033807E08C1EE2
:10060C00481E04E00138CC1E01E002380C4643F2CF
:10061C006931C0F181000EEB04030090C0F60101BA
:10062C00484602220EF042F923B0BDE8000FF0BD9F
:10063C000A2263297FF65CAF8BB241F27B469B08A2
:10064C00023A734303AE5B0C03FB0E1189B230F814
:10065C001110B1520A2BBFF44FAF511E03AA43F035
:10066C0030005054C1F10A00009003A80022431836
:10067C00484601210EF01AF923B0BDE8000FF0BD79
:10068C0081B0002080290090684602D200F1010C54
:10069C0037E0B1F5006F0BD202220B4662F39F13C9
:1006AC00C02200F1020C8DF8013042EA911128E0D1
:1006BC00B1F5803F10D202220B4662F39F138DF8E6
:1006CC0002308B0900F1030C62F39F13E0228DF8CA
:1006DC00013042EA113114E002220B4662F39F13FF
:1006EC008DF803308B0900F1040C62F39F138DF825
:1006FC0002300B0B62F39F13F0228DF8013042EAAB
:10070C00914144F600028DF800106946C4F20002D3
:10071C0003E00131536061450ED00B781068000680
:10072C00F7D4106800065CBF10685FEA0060F0D474
:10073C0010680006F2D5ECE7002001B07047F0B568
:10074C0003AF4DF8048D82B08046002080290190C3
:10075C0003D201248DF8041033E0B1F5006F09D2F7
:10076C000224084664F39F108DF80500C02040EA6F
:10077C00911024E002200A4660F39F12B1F5803FED
:10078C000DD28DF806208A0960F39F12E02040EA12
:10079C0011308DF805208DF80400032411E08DF83C
:1007AC0007208A0960F39F128DF806200A0B042497
:1007BC0060F39F12F02040EA91408DF805208DF8EF
:1007CC000400D8E90156B54215D309D0D8F8000079
:1007DC0001A9AA1B3044A24228BF224610F09CFB60
:1007EC003019854238BF2846C8F80800002002B0EE
:1007FC005DF8048BF0BD304629460FF0E9F80A4647
:10080C0041F62841C0F601010EF0DEBC0A4641F665
:10081C001041C0F601010EF0D7BCC00708BF7047ED
:10082C000FF02FBFD1E9050241F6B831D368C0F6FD
:10083C00010105221847B0B502AF84B0044604305C
:10084C000D460190D1E905010922CB6841F6BD3175
:10085C00C0F6010198478DF80C0040F26140002170
:10086C00C0F600008DF80D1041F6C631009002A8BC
:10087C00C0F601010B22234602950EF081FE40F2D8
:10088C002D3101ABC0F600010922009141F6D131A6
:10089C00C0F601010EF074FE9DF80D209DF80C10B1
:1008AC00012A42EA010008BF5FEAC17103D000F0DF
:1008BC00010004B0B0BD0298017F49070CD4D0E907
:1008CC0005010222CB6843F26331C0F6010198475F
:1008DC0000F0010004B0B0BDD0E905010122CB68E5
:1008EC0043F26231C0F60101984700F0010004B0F8
:1008FC00B0BDD1E9050241F64041D368C0F6010113
:10090C000D221847F0B503AF2DE9000F83B0BC687A
:10091C009A469046D4E902B52B465A4600F0E9F9BE
:10092C00A8F120000BF107016843C9080191484365
:10093C0061688142C0F0DF80002D18BFBBF1000F51
:10094C000BD140F618404FF48041C4F20200016014
:10095C00584603B0BDE8000FF0BD22682426091AE2
:10096C00002302EB000943F20802C4F20006C4F2B1
:10097C0001024FF00708009504E0029B009D013333
:10098C00AB42DED001980025029303FB00FE02E08F
:10099C0001355D45F1D00EEBD500884280F0AD807D
:1009AC0019F8000028EA0503D6F800C0D84000F07A
:1009BC000100404200EA0A003368A3EB0C03592BF8
:1009CC000ED83368A3EB0C03592B9EBF3368A3EBF3
:1009DC000C03592B04D83368A3EB0C035A2BEBD321
:1009EC0013689B0709D413689B075CBF13685FEA05
:1009FC00837302D413689B07F2D583B21B0A53602E
:100A0C001368DB0709D11368DB0704BF13685FEABF
:100A1C00C37302D11368DB07F2D013681B0609D528
:100A2C0013681B0644BF13685FEA036302D513689F
:100A3C001B06F2D4536833683468E41A592C0BD86B
:100A4C003468E41A592C9EBF3468E41A592C03D824
:100A5C003468E41A5A2CEFD333683468E41A592CEE
:100A6C000BD83468E41A592C9EBF3468E41A592CFC
:100A7C0003D83468E41A5A2CEFD313689B0709D4B3
:100A8C0013689B075CBF13685FEA837302D4136817
:100A9C009B07F2D5C0B250601068C00709D110682E
:100AAC00C00704BF10685FEAC07002D11068C007AD
:100ABC00F2D01068000609D51068000644BF106813
:100ACC005FEA006002D510680006F2D45068306806
:100ADC0033681B1A592B3FF65BAF33681B1A592B23
:100AEC009EBF33681B1A592B3FF652AF33681B1A43
:100AFC005A2BEDD34CE70EF06BFF0DF058FEF0B512
:100B0C0003AF2DE9000F83B01646B52A08BF802627
:100B1C001D7C202A38BF7F264DB1009332464FF6FC
:100B2C00FF73FFF7EFFE03B0BDE8000FF0BDD3E994
:100B3C0002951C462B464A4600F0DBF8002D029528
:100B4C0018BFB9F1000F0CD140F618404FF480419A
:100B5C00C4F20200016009F1010003B0BDE8000F0E
:100B6C00F0BDA6F12000D4E900B1242543F208061B
:100B7C0009FB00FA4FF0000CC4F20005C4F20106A8
:100B8C0002E002988445DFD00CF0070001220CF142
:100B9C00010C02FA00F8002201E04A45F1D002EB08
:100BAC000A00884280F0A3801BF8000001322B68F9
:100BBC0000EA0800D5F800E0AEEB0304592C0BD882
:100BCC002C68E41A592C9EBF2C68E41A592C03D8B3
:100BDC002C68E41A5A2CEDD333689B0709D433687C
:100BEC009B075CBF33685FEA837302D433689B074F
:100BFC00F2D5002818BFFF2070603368DB0709D1DD
:100C0C003368DB0704BF33685FEAC37302D1336810
:100C1C00DB07F2D033681B0609D533681B0644BFCB
:100C2C0033685FEA036302D533681B06F2D473683A
:100C3C002B682C68E41A592C0BD82C68E41A592C04
:100C4C009EBF2C68E41A592C03D82C68E41A5A2C31
:100C5C00EFD32B682C68E41A592C0BD82C68E41AA7
:100C6C00592C9EBF2C68E41A592C03D82C68E41A12
:100C7C005A2CEFD333689B0709D433689B075CBFAE
:100C8C0033685FEA837302D433689B07F2D57060D4
:100C9C003068C00709D13068C00704BF30685FEA0C
:100CAC00C07002D13068C007F2D03068000609D598
:100CBC003068000644BF30685FEA006002D53068D7
:100CCC000006F2D4706828682B681B1A592B3FF663
:100CDC0064AF2B681B1A592B9EBF2B681B1A592B00
:100CEC003FF65BAF2B681B1A5A2BEDD355E70DF073
:100CFC005EFDF0B503AF4DF8048D40F6184C4FF087
:100D0C000056C4F2020C40F2240ECCF800684FF0EE
:100D1C008046CCF80060C4F2000EDEF80060A1F151
:100D2C000108441EDEF80050AD1B592D0ED8DEF81C
:100D3C000050AD1B592D9EBFDEF80050AD1B592D38
:100D4C0004D8DEF80050AD1B5A2DEBD3144443F2FB
:100D5C000802C4F201021568AD0709D41568AD0785
:100D6C005CBF15685FEA857502D41568AD07F2D5CE
:100D7C002A2555601568ED0709D11568ED0704BFE4
:100D8C0015685FEAC57502D11568ED07F2D01568D4
:100D9C002D0609D515682D0644BF15685FEA056553
:100DAC0002D515682D06F2D45568DEF80060DEF821
:100DBC000050AD1B592D0ED8DEF80050AD1B592D2F
:100DCC009EBFDEF80050AD1B592D04D8DEF8005044
:100DDC00AD1B5A2DEBD34FF48045CCF800504FF49B
:100DEC000055CCF800584FF08045CCF80050DEF898
:100DFC000060DEF80050AD1B592D0ED8DEF8005007
:100E0C00AD1B592D9EBFDEF80050AD1B592D04D8DB
:100E1C00DEF80050AD1B5A2DEBD343441568AD07DB
:100E2C0009D41568AD075CBF15685FEA857502D4F7
:100E3C001568AD07F2D5002555601568ED0709D189
:100E4C001568ED0704BF15685FEAC57502D1156812
:100E5C00ED07F2D015682D0609D515682D0644BF8F
:100E6C0015685FEA056502D515682D06F2D455683C
:100E7C00DEF80050DEF80060761B592E0ED8DEF836
:100E8C000060761B592E9EBFDEF80060761B592E33
:100E9C0004D8DEF80060761B5A2EEBD3DEF8005037
:100EAC00DEF80060761B592E0ED8DEF80060761B3B
:100EBC00592E9EBFDEF80060761B592E04D8DEF842
:100ECC000060761B5A2EEBD31568AD0709D4156854
:100EDC00AD075CBF15685FEA857502D41568AD0770
:100EEC00F2D5C0F3072555601568ED0709D11568D3
:100EFC00ED0704BF15685FEAC57502D11568ED07EB
:100F0C00F2D015682D0609D515682D0644BF156855
:100F1C005FEA056502D515682D06F2D45568DEF832
:100F2C000050DEF80060761B592E0ED8DEF80060FB
:100F3C00761B592E9EBFDEF80060761B592E04D806
:100F4C00DEF80060761B5A2EEBD34FF48045CCF8BC
:100F5C0000504FF40055CCF800584FF08045CCF8B9
:100F6C000050DEF80050DEF80060761B592E0ED8CB
:100F7C00DEF80060761B592E9EBFDEF80060761BF3
:100F8C00592E04D8DEF80060761B5A2EEBD3156868
:100F9C00AD0709D41568AD075CBF15685FEA8575A8
:100FAC0002D41568AD07F2D5002555601568ED071C
:100FBC0009D11568ED0704BF15685FEAC57502D144
:100FCC001568ED07F2D015682D0609D515682D06A4
:100FDC0044BF15685FEA056502D515682D06F2D485
:100FEC005568DEF80050DEF80060761B592E0ED8DE
:100FFC00DEF80060761B592E9EBFDEF80060761B73
:10100C00592E04D8DEF80060761B5A2EEBD3DEF88E
:10101C000050DEF80060761B592E0ED8DEF800600A
:10102C00761B592E9EBFDEF80060761B592E04D815
:10103C00DEF80060761B5A2EEBD31568AD0709D489
:10104C001568AD075CBF15685FEA857502D4156835
:10105C00AD07F2D5C0B250601068C00709D1106856
:10106C00C00704BF10685FEAC07002D11068C007E7
:10107C00F2D01068000609D51068000644BF10684D
:10108C005FEA006002D510680006F2D45068DEF802
:10109C000000DEF800502D1A592D0ED8DEF8005045
:1010AC002D1A592D9EBFDEF800502D1A592D04D83B
:1010BC00DEF800502D1A5A2DEBD34FF48040CCF8AB
:1010CC0000004FF40050CCF800084FF08040CCF8F2
:1010DC000000DEF80000DEF800502D1A592D0ED855
:1010EC00DEF800502D1A592D9EBFDEF800502D1A37
:1010FC00592D04D8DEF800502D1A5A2DEBD3106858
:10110C00800709D4106880075CBF10685FEA8070A4
:10111C0002D410688007F2D5002050601068C00718
:10112C0009D11068C00704BF10685FEAC07002D113
:10113C001068C007F2D01068000609D510680006C8
:10114C0044BF10685FEA006002D510680006F2D454
:10115C005068DEF80000DEF800502D1A592D0ED81C
:10116C00DEF800502D1A592D9EBFDEF800502D1AB6
:10117C00592D04D8DEF800502D1A5A2DEBD3DEF879
:10118C000000DEF800502D1A592D0ED8DEF8005054
:10119C002D1A592D9EBFDEF800502D1A592D04D84A
:1011AC00DEF800502D1A5A2DEBD31068800709D4A5
:1011BC00106880075CBF10685FEA807002D410680A
:1011CC008007F2D5C4F3072050601068C00709D11E
:1011DC001068C00704BF10685FEAC07002D11068C5
:1011EC00C007F2D01068000609D51068000644BF8D
:1011FC0010685FEA006002D510680006F2D45068EF
:10120C00DEF80000DEF800502D1A592D0ED8DEF84D
:10121C0000502D1A592D9EBFDEF800502D1A592D55
:10122C0004D8DEF800502D1A5A2DEBD34FF4804021
:10123C00CCF800004FF40050CCF800084FF0804080
:10124C00CCF80000DEF80000DEF800502D1A592D05
:10125C000ED8DEF800502D1A592D9EBFDEF8005026
:10126C002D1A592D04D8DEF800502D1A5A2DEBD317
:10127C001068800709D4106880075CBF10685FEAAB
:10128C00807002D410688007F2D50020506010687E
:10129C00C00709D11068C00704BF10685FEAC070AE
:1012AC0002D11068C007F2D01068000609D510688A
:1012BC00000644BF10685FEA006002D510680006A3
:1012CC00F2D45068DEF80000DEF800502D1A592DCB
:1012DC000ED8DEF800502D1A592D9EBFDEF80050A6
:1012EC002D1A592D04D8DEF800502D1A5A2DEBD397
:1012FC00DEF80000DEF800502D1A592D0ED8DEF85D
:10130C0000502D1A592D9EBFDEF800502D1A592D64
:10131C0004D8DEF800502D1A5A2DEBD31068800734
:10132C0009D4106880075CBF10685FEA807002D433
:10133C0010688007F2D5E0B250601068C00709D180
:10134C001068C00704BF10685FEAC07002D1106853
:10135C00C007F2D01068000609D51068000644BF1B
:10136C0010685FEA006002D510680006F2D450687D
:10137C00DEF80000DEF80040241A592C0ED8DEF8F6
:10138C000040241A592C9EBFDEF80040241A592C18
:10139C0004D8DEF80040241A5A2CEBD34FF48040CA
:1013AC00CCF800004FF00050CCF800084FF0804013
:1013BC00CCF80000DEF80000DEF80040241A592CAE
:1013CC000ED8DEF80040241A592C9EBFDEF80040DF
:1013DC00241A592C04D8DEF80040241A5A2CEBD3CA
:1013EC001068800709D4106880075CBF10685FEA3A
:1013FC00807002D410688007F2D52B2050601068E2
:10140C00C00709D11068C00704BF10685FEAC0703C
:10141C0002D11068C007F2D01068000609D5106818
:10142C00000644BF10685FEA006002D51068000631
:10143C00F2D45068DEF80000DEF80040241A592C73
:10144C000ED8DEF80040241A592C9EBFDEF800405E
:10145C00241A592C04D8DEF80040241A5A2CEBD349
:10146C004FF48040CCF800004FF40050CCF800084A
:10147C004FF08040CCF80000DEF80000DEF80040B1
:10148C00241A592C0ED8DEF80040241A592C9EBF71
:10149C00DEF80040241A592C04D8DEF80040241A37
:1014AC005A2CEBD31068800709D4106880075CBFF6
:1014BC0010685FEA807002D410688007F2D50020B3
:1014CC0050601068C00709D11068C00704BF1068CD
:1014DC005FEAC07002D11068C007F2D01068000635
:1014EC0009D51068000644BF10685FEA006002D599
:1014FC0010680006F2D45068DEF80000DEF80040F8
:10150C00241A592C0ED8DEF80040241A592C9EBFF0
:10151C00DEF80040241A592C04D8DEF80040241AB6
:10152C005A2CEBD3DEF80000DEF80040241A592CBC
:10153C000ED8DEF80040241A592C9EBFDEF800406D
:10154C00241A592C04D8DEF80040241A5A2CEBD358
:10155C001068800709D4106880075CBF10685FEAC8
:10156C00807002D410688007F2D5C1F30720506058
:10157C001068C00709D11068C00704BF10685FEA83
:10158C00C07002D11068C007F2D01068000609D5EF
:10159C001068000644BF10685FEA006002D510684E
:1015AC000006F2D45068DEF80000DEF80040241A81
:1015BC00592C0ED8DEF80040241A592C9EBFDEF8A8
:1015CC000040241A592C04D8DEF80040241A5A2C56
:1015DC00EBD34FF48040CCF800004FF40050CCF823
:1015EC0000084FF08040CCF80000DEF80000DEF878
:1015FC000040241A592C0ED8DEF80040241A592C1D
:10160C009EBFDEF80040241A592C04D8DEF80040A6
:10161C00241A5A2CEBD31068800709D41068800761
:10162C005CBF10685FEA807002D410688007F2D546
:10163C00002050601068C00709D11068C00704BFB3
:10164C0010685FEAC07002D11068C007F2D0106851
:10165C00000609D51068000644BF10685FEA0060F8
:10166C0002D510680006F2D45068DEF80000DEF8EF
:10167C000040241A592C0ED8DEF80040241A592C9C
:10168C009EBFDEF80040241A592C04D8DEF8004026
:10169C00241A5A2CEBD3DEF80000DEF80040241A92
:1016AC00592C0ED8DEF80040241A592C9EBFDEF8B7
:1016BC000040241A592C04D8DEF80040241A5A2C65
:1016CC00EBD31068800709D4106880075CBF1068E2
:1016DC005FEA807002D410688007F2D5C8B25060FF
:1016EC001068C00709D11068C00704BF10685FEA12
:1016FC00C07002D11068C007F2D01068000609D57E
:10170C001068000644BF10685FEA006002D51068DC
:10171C000006F2D45068DEF80000DEF80010091A5A
:10172C0059290ED8DEF80010091A59299EBFDEF887
:10173C000010091A592904D8DEF80010091A5A2980
:10174C00EBD34FF48040CCF800004FF40050CCF8B1
:10175C0000084FF08040CCF80000DEF80000DEF806
:10176C000010091A59290ED8DEF80010091A592947
:10177C009EBFDEF80010091A592904D8DEF80010B3
:10178C00091A5A29EBD31068800709D4106880070E
:10179C005CBF10685FEA807002D410688007F2D5D5
:1017AC00002050601068C00709D11068C00704BF42
:1017BC0010685FEAC07002D11068C007F2D01068E0
:1017CC00000609D51068000644BF10685FEA006087
:1017DC0002D510680006F2D45068DEF80000DEF87E
:1017EC000010091A59290ED8DEF80010091A5929C7
:1017FC009EBFDEF80010091A592904D8DEF8001033
:10180C00091A5A29EBD3DEF80000DEF80010091A89
:10181C0059290ED8DEF80010091A59299EBFDEF896
:10182C000010091A592904D8DEF80010091A5A298F
:10183C00EBD31068800709D4106880075CBF106870
:10184C005FEA807002D410688007F2D5C3F30720DA
:10185C0050601068C00709D11068C00704BF106839
:10186C005FEAC07002D11068C007F2D010680006A1
:10187C0009D51068000644BF10685FEA006002D505
:10188C0010680006F2D45068DEF80000DEF8001094
:10189C00091A59290ED8DEF80010091A59299EBFC9
:1018AC00DEF80010091A592904D8DEF80010091ABC
:1018BC005A29EBD34FF48040CCF800004FF4005081
:1018CC00CCF800084FF08040CCF80000DEF80000A7
:1018DC00DEF80010091A59290ED8DEF80010091A82
:1018EC0059299EBFDEF80010091A592904D8DEF8D0
:1018FC000010091A5A29EBD31068800709D4106814
:10190C0080075CBF10685FEA807002D410688007A3
:10191C00F2D5002050601068C00709D11068C007CC
:10192C0004BF10685FEAC07002D11068C007F2D023
:10193C001068000609D51068000644BF10685FEAFD
:10194C00006002D510680006F2D45068DEF8000082
:10195C00DEF80010091A59290ED8DEF80010091A01
:10196C0059299EBFDEF80010091A592904D8DEF84F
:10197C000010091A5A29EBD3DEF80000DEF800102B
:10198C00091A59290ED8DEF80010091A59299EBFD8
:10199C00DEF80010091A592904D8DEF80010091ACB
:1019AC005A29EBD31068800709D4106880075CBFF4
:1019BC0010685FEA807002D410688007F2D5D8B244
:1019CC0050601068C00709D11068C00704BF1068C8
:1019DC005FEAC07002D11068C007F2D01068000630
:1019EC0009D51068000644BF10685FEA006002D594
:1019FC0010680006F2D45068DEF80000DEF8001023
:101A0C00091A59290ED8DEF80010091A59299EBF57
:101A1C00DEF80010091A592904D8DEF80010091A4A
:101A2C005A29EBD34FF48040CCF800004FF0005013
:101A3C00CCF800084FF08040CCF80000DEF8000035
:101A4C00DEF80010091A59290ED8DEF80010091A10
:101A5C0059299EBFDEF80010091A592904D8DEF85E
:101A6C000010091A5A29EBD31068800709D41068A2
:101A7C0080075CBF10685FEA807002D41068800732
:101A8C00F2D52C2050601068C00709D11068C0072F
:101A9C0004BF10685FEAC07002D11068C007F2D0B2
:101AAC001068000609D51068000644BF10685FEA8C
:101ABC00006002D510680006F2D45068DEF8000011
:101ACC00DEF80010091A59290ED8DEF80010091A90
:101ADC0059299EBFDEF80010091A592904D8DEF8DE
:101AEC000010091A5A29EBD34FF48040CCF80000AF
:101AFC004FF40050CCF800084FF08040CCF80000B8
:101B0C005DF8048BF0BDB0B502AF1C461546FFF76F
:101B1C00F0F804FB05F0002800F0AA80BA68242332
:101B2C0043F20805C4F20003C4F2010591B2D2B22B
:101B3C004FEA112C02E0013800F09A801C681968F9
:101B4C00091B59290BD81968091B59299EBF1968FB
:101B5C00091B592903D81968091B5A29EFD329687D
:101B6C00890709D4296889075CBF29685FEA8171F4
:101B7C0002D429688907F2D5C5F804C02968C907B9
:101B8C0009D12968C90704BF29685FEAC17102D16C
:101B9C002968C907F2D02968090609D529680906F8
:101BAC0044BF29685FEA016102D529680906F2D4AD
:101BBC0069681C681968091B59290BD81968091B15
:101BCC0059299EBF1968091B592903D81968091B83
:101BDC005A29EFD31C681968091B59290BD81968A5
:101BEC00091B59299EBF1968091B592903D8196863
:101BFC00091B5A29EFD32968890709D42968890751
:101C0C005CBF29685FEA817102D429688907F2D523
:101C1C006A602968C90709D12968C90704BF2968FE
:101C2C005FEAC17102D12968C907F2D02968090697
:101C3C0009D52968090644BF29685FEA016102D504
:101C4C0029680906F2D469681C681968091B5929A6
:101C5C003FF671AF1968091B59299EBF1968091BFA
:101C6C0059293FF668AF1968091B5A29EDD362E769
:101C7C0040F618404FF48041C4F202000160B0BD40
:101C8C00F0B503AF2DE9000B82B004460E464FF0C1
:101C9C0000090A20214664220123CDF80090FFF7A9
:101CAC0032FF651CA6F102080A2001222946434690
:101CBC00CDF80090FFF727FF6D20294601224346FF
:101CCC00CDF80090FFF71FFF30196422411E0A2047
:101CDC000123CDF80090FFF716FF4FF6FF790B208C
:101CEC00294662220123CDF80090FFF70CFF351F27
:101CFC00A61C0B20012231462B46CDF80090FFF795
:101D0C0002FF6C20314601222B46CDF80090FFF7E4
:101D1C00FAFE08EB04010B2062220123CDF800909F
:101D2C00FFF7F1FE02B0BDE8000BF0BDF0B503AF5C
:101D3C002DE9000F81B0D0F8109542F2B04B8246DD
:101D4C00282001EB02080C4600EB09150726C0F60B
:101D5C00010B00920AE043EA8112841C30462946AA
:101D6C005B46FEF7CCFE0644444523D0204614F9CE
:101D7C00011BB1F1FF3FCAB2F0DC437802F01F0146
:101D8C00E02A03F03F03E6D38478F02A04F03F0402
:101D9C0044EA83130AD3C27801F00701041D02F050
:101DAC003F0242EA831242EA8142D7E743EA013218
:101DBC00C41CD3E7B9F10F0F9FBF0AEB09000099C0
:101DCC0080F81415DAF810059FBF0130CAF8100519
:101DDC0001B0BDE8000F98BFF0BD484610210CF0D3
:101DEC00E6FCF0B503AF2DE9000F81B042F62C3BB9
:101DFC008C189246894680460725C0F6010B0E4684
:101E0C000AE043EA8112861C284607215B46FEF74E
:101E1C0076FE0544A64223D0304616F9011BB1F1DB
:101E2C00FF3FCAB2F0DC437802F01F01E02A03F056
:101E3C003F03E6D38678F02A06F03F0646EA831382
:101E4C000AD3C27801F00701061D02F03F0242EAF4
:101E5C00831242EA8142D7E743EA0132C61CD3E738
:101E6C00D8F8F004A0EB0A01002909DD0020CA0013
:101E7C0000904FEACA00073007211023FFF743FEFA
:101E8C00C8F8EC94C8F8F0A401B0BDE8000FF0BDA0
:101E9C00B0B502AF82B00446C8B2DFE810F00C0057
:101EAC00AD0062007B003000C600DF009400110121
:101EBC004900F8001700002040F22911009020463C
:101ECC0010221023FFF71FFE02B0B0BD42F2B04546
:101EDC002046C0F6010540F229118C224FF6FF7303
:101EEC000095FEF70FFD009504F1080040F2291152
:101EFC008D224FF6FF73FEF705FD02B0B0BD42F226
:101F0C00B0452046C0F6010540F2291194224FF647
:101F1C00FF730095FEF7F6FC009504F1080040F203
:101F2C00291195224FF6FF73FEF7ECFC02B0B0BD01
:101F3C0042F2B0452046C0F6010540F229118E222E
:101F4C004FF6FF730095FEF7DDFC009504F10800D9
:101F5C0040F229118F224FF6FF73FEF7D3FC02B02B
:101F6C00B0BD42F2B0452046C0F6010540F2291141
:101F7C009A224FF6FF730095FEF7C4FC009504F10E
:101F8C00080040F229119B224FF6FF73FEF7BAFCB2
:101F9C0002B0B0BD42F2B0452046C0F6010540F299
:101FAC00291186224FF6FF730095FEF7ABFC0095C6
:101FBC0004F1080040F2291187224FF6FF73FEF757
:101FCC00A1FC02B0B0BD42F2B0452046C0F60105FE
:101FDC0040F229118A224FF6FF730095FEF792FC0E
:101FEC00009504F1080040F229118B224FF6FF7383
:101FFC00FEF788FC02B0B0BD42F2B0452046C0F6F8
:10200C00010540F2291192224FF6FF730095FEF75D
:10201C0079FC04F1080040F22911932200954FF647
:10202C00FF73FEF76FFC02B0B0BD42F2B045204624
:10203C00C0F6010540F2291190224FF6FF7300956E
:10204C00FEF760FC009504F1080040F22911912282
:10205C004FF6FF73FEF756FC02B0B0BD42F2B0452E
:10206C002046C0F6010540F2291198224FF6FF7365
:10207C000095FEF747FC009504F1080040F2291189
:10208C0099224FF6FF73FEF73DFC02B0B0BD42F251
:10209C00B0452046C0F6010540F22911A0224FF6AA
:1020AC00FF730095FEF72EFC009504F1080040F23A
:1020BC002911A1224FF6FF73FEF724FC02B0B0BD2C
:1020CC0042F2B0452046C0F6010540F229119E228D
:1020DC004FF6FF730095FEF715FC009504F1080010
:1020EC0040F229119F224FF6FF73FEF70BFC02B052
:1020FC00B0BDF0B503AF4DF8048DD0F8E844002C1A
:10210C0058D0D0F8E4540E4680460978287881429D
:10211C0002D0EF20FFF7BCFE012C4FD0717868780D
:10212C0081421CBF4FF48770FFF7B2FE022C49D0DE
:10213C00B178A87881421CBF40F22D10FFF7A8FEA1
:10214C00032C43D0F178E87881421CBF4FF4A67081
:10215C00FFF79EFE042C3DD03179287981421CBFBB
:10216C0040F26B10FFF794FE052C37D0717968792B
:10217C0081421CBF4FF4C570FFF78AFE062C31D08C
:10218C00B179A87981421CBF40F2A910FFF780FEFB
:10219C00072C2BD0F179E87981421CBF4FF4E47005
:1021AC00FFF776FE0820C8F8E464C8F8E8045DF888
:1021BC00048BF0BD002021460CF0F9FA01202146D9
:1021CC000CF0F5FA022021460CF0F1FA032021461E
:1021DC000CF0EDFA042021460CF0E9FA052021461A
:1021EC000CF0E5FA062021460CF0E1FA0720214616
:1021FC000CF0DDFAF0B503AF2DE9000F93B00E46ED
:10220C004EF2FC418046405C08EB0109DFE810F01F
:10221C008D023F043300070007000700070040460B
:10222C0000F0E5FE89F80060F0B2DFE810F007007E
:10223C00DB05D50069020F001A062F06404613B0C5
:10224C00BDE8000FBDE8F04003F0B4B942F63C61C4
:10225C004046C0F601010B22FFF7C3FD42F6886130
:10226C004046C0F60101042213B0BDE8000FBDE8E2
:10227C00F04000F02DBF00242C202E212022102312
:10228C000094FFF740FC0A202921642202230094C9
:10229C00FFF739FC0A202B21022216230094FFF7AA
:1022AC0032FC6C202B21022216230094FFF72BFC0E
:1022BC000A204121642202230094FFF724FC3020E1
:1022CC005221182210230094FFF71DFC0A204D21E7
:1022DC00642202230094FFF716FC0A204F210222ED
:1022EC0016230094FFF70FFC6C204F2102221623BB
:1022FC000094FFF708FC0A20652164220223009455
:10230C00FFF701FC30207621182210230094FFF7F0
:10231C00FAFB0A207121642202230094FFF7F3FBDD
:10232C000A207321022216230094FFF7ECFB6C2089
:10233C007321022216230094FFF7E5FB0A20892162
:10234C00642202230094FFF7DEFB20209A2138221E
:10235C0010230094FFF7D7FB0A2095216422022357
:10236C000094FFF7D0FB0A20972102221623009439
:10237C00FFF7C9FB6C209721022216230094FFF76C
:10238C00C2FB0A20AD21642202230094FFF7BBFBA1
:10239C002C20BE21202210230094FFF7B4FB0A202E
:1023AC00B921642202230094FFF7ADFB0A20BB2164
:1023BC00022216230094FFF7A6FB6C20BB210222FD
:1023CC0016230094FFF79FFB0A20D12164220223DD
:1023DC000094FFF798FB25E743F2A8214046C0F68E
:1023EC0001011722FFF7FDFC42F674314046C0F69E
:1023FC000101FFF77EFE242643F20804D8F80005FD
:10240C000025C4F20006C4F201044FF0070A4FF095
:10241C00010B02902AE040F21F490A206422022399
:10242C004FEA8C08CDF80090FFF76DFB08F12B05F7
:10243C000A20022216232946CDF80090FFF763FBF1
:10244C00CDF8009029466C2002221623039DFFF73D
:10245C005AFB08F141010A2064220223CDF80090B6
:10246C00FFF751FB0135052D00F0468143F280202A
:10247C0005EBC50CC0F60100039500EBC5004168E7
:10248C00002900F02981039843F28022C0F6010252
:10249C0052F83000421804922E22034602EB8C02B2
:1024AC0006924FF6FC72CDF814C0C7F6FF7202EA22
:1024BC008101C1F13C0210E040F618404FF480411C
:1024CC00C4F202000160089A079B04980832DDF8F8
:1024DC0014C08342184600F0FF8013F9011BB1F1C0
:1024EC00FF3FCDB21FDC417805F01F0EE02D01F04F
:1024FC003F0111D38378F02D03F03F0343EA8111A0
:10250C000ED3C37803F03F0343EA81130EF00701A7
:10251C0043EA8145031D06E041EA8E15831C02E067
:10252C0041EA0E35C31CCDE9073210460699082244
:10253C001023FEF7DEFB4FF60060B52DCFF6FF70D3
:10254C0000EB051008BF4FF4C060202D38BF4FF4CE
:10255C00BE60B0F5C06F00F2B08442F22B514FF068
:10256C00000EC0F6010101EB000CC0F5C06104E0E7
:10257C000EF1010EBEF1100F9ED0002502E00135C8
:10258C00082DF5D00EEBD500884280F094841CF811
:10259C0000902AEA05023368D6F80080A8EB030005
:1025AC0059280BD83068C01A59289EBF3068C01AF9
:1025BC00592803D83068C01A5A28EDD30BFA02F206
:1025CC002068800709D4206880075CBF20685FEA18
:1025DC00807002D420688007F2D519EA020018BF77
:1025EC00FF2060602268D20709D12268D20704BF9D
:1025FC0022685FEAC27202D12268D207F2D0226846
:10260C00120609D52268120644BF22685FEA0262EC
:10261C0002D522681206F2D46268326833689B1ABB
:10262C00592B0BD833689B1A592B9EBF33689B1AB6
:10263C00592B03D833689B1A5A2BEFD33268336863
:10264C009B1A592B0BD833689B1A592B9EBF336896
:10265C009B1A592B03D833689B1A5A2BEFD3226839
:10266C00920709D4226892075CBF22685FEA8272E3
:10267C0002D422689207F2D560602068C00709D1A5
:10268C002068C00704BF20685FEAC07002D12068D0
:10269C00C007F2D02068000609D52068000644BFA8
:1026AC0020685FEA006002D520680006F2D46068FA
:1026BC0030683268121A592A3FF661AF3268121A22
:1026CC00592A9EBF3268121A592A3FF658AF3268FF
:1026DC00121A5A2AEDD352E7292000EB8C01DDE9BE
:1026EC00020585423FF497AE08461A21FFF7C8FA57
:1026FC000135052D7FF4BAAE13B0BDE8000FF0BD67
:10270C0042F630614046C0F601010C22FFF769FB2E
:10271C0042F694514046C0F60101062213B0BDE8C2
:10272C00000FBDE8F04000F0D3BC4CF6987040F2BE
:10273C001C714044CDE905960EF062FF0024002088
:10274C001F2119224FF481730094FFF7DCF91A2032
:10275C004FF49571302210230094FFF7D4F94DF605
:10276C00E050404403F0CAFB43F2E420CDF81C8057
:10277C0088F82840C0F601006CC809A940F224086A
:10278C0043F2080A6CC1C4F20008C4F2010A90E8D2
:10279C006C0004204FF0000B6CC1CDE911404FF4DC
:1027AC009170089009E008980BF1010BBBF1040F34
:1027BC0000F11800089000F02C8209A951F83B0098
:1027CC0001EBCB014968102907D20029EBD0042971
:1027DC0080F0F180002600223CE10CF06AF90646FC
:1027EC00002EE0D0C6F1030008994FF0000900EB71
:1027FC00400001EB40050BE040F6184009F10109DF
:10280C000635B145C4F202004FF480410160CAD0D4
:10281C0028460E2105220723FEF76BFA232001E040
:10282C000138E9D0D8F80010D8F80020521A592AEB
:10283C000ED8D8F80020521A592A9EBFD8F800207A
:10284C00521A592A04D8D8F80020521A5A2AEBD313
:10285C00DAF8001089070CD4DAF8001089075CBF8D
:10286C00DAF800105FEA817103D4DAF800108907F6
:10287C00EED5CAF80440DAF80010C9070CD1DAF822
:10288C000010C90704BFDAF800105FEAC17103D168
:10289C00DAF80010C907EED0DAF8001009060CD5EA
:1028AC00DAF80010090644BFDAF800105FEA01619B
:1028BC0003D5DAF800100906EED4DAF80410D8F8CB
:1028CC000010D8F80020521A592A0ED8D8F8002037
:1028DC00521A592A9EBFD8F80020521A592A04D8E5
:1028EC00D8F80020521A5A2AEBD3D8F80010D8F88E
:1028FC000020521A592A0ED8D8F80020521A592AF8
:10290C009EBFD8F80020521A592A04D8D8F80020B3
:10291C00521A5A2AEBD3DAF8001089070CD4DAF8D9
:10292C00001089075CBFDAF800105FEA817103D4EC
:10293C00DAF800108907EED5CAF80440DAF800106E
:10294C00C9070CD1DAF80010C90704BFDAF8001077
:10295C005FEAC17103D1DAF80010C907EED0DAF8DA
:10296C00001009060CD5DAF80010090644BFDAF895
:10297C0000105FEA016103D5DAF800100906EED405
:10298C00DAF80410D8F80010D8F80020521A592A96
:10299C003FF646AFD8F80020521A592A9EBFD8F8F5
:1029AC000020521A592A3FF63BAFD8F80020521A91
:1029BC005A2AE9D334E790F90130002690F9002027
:1029CC0090F9025013F1410F90F903C0C8BF0126D2
:1029DC0012F1410FC8BF013615F1410FC8BF0136C6
:1029EC001CF1410F01F00C02C8BF0136042A31D092
:1029FC0090F9045090F9053090F906E015F1410F6B
:102A0C0090F907C0C8BF013613F1410FC8BF01369A
:102A1C001EF1410FC8BF01361CF1410FC8BF013672
:102A2C00082A17D090F9085090F9093090F90AE06B
:102A3C0015F1410F90F90BC0C8BF013613F1410FCE
:102A4C00C8BF01361EF1410FC8BF01361CF1410F42
:102A5C00C8BF013611F003013FF4C2AE835613F127
:102A6C00410FC8BF013601293FF4BAAE104490F9AA
:102A7C00012012F1410FC8BF013602293FF4B0AE5C
:102A8C0090F9020010F1410FC8BF0136A8E6D8F842
:102A9C001045002C00F0B88098F81405002528216A
:102AAC0010230095C2000720FFF72DF8012C00F031
:102ABC00AB8098F81505382110230095C20007202B
:102ACC00FFF721F8022C00F09F8098F8160548219A
:102ADC0010230095C2000720FFF715F8032C00F017
:102AEC00938098F81705582110230095C2000720F1
:102AFC00FFF709F8042C00F0878098F81805682176
:102B0C0010230095C2000720FEF7FDFF052C7BD09B
:102B1C0098F81905782110230095C2000720FEF7BC
:102B2C00F2FF062C70D098F81A0588211023009516
:102B3C00C2000720FEF7E7FF072C65D098F81B05AD
:102B4C00982110230095C2000720FEF7DCFF082C0B
:102B5C005AD098F81C05A82110230095C200072014
:102B6C00FEF7D1FF092C4FD098F81D05B821102382
:102B7C000095C2000720FEF7C6FF0A2C44D098F837
:102B8C001E05C82110230095C2000720FEF7BBFFCD
:102B9C000B2C39D098F81F05D82110230095C200B2
:102BAC000720FEF7B0FF0C2C2ED098F82005E8215A
:102BBC0010230095C2000720FEF7A5FF0D2C23D093
:102BCC0098F82105F82110230095C2000720FEF784
:102BDC009AFF0E2C18D098F822054FF4847110230C
:102BEC000095C2000720FEF78EFF0F2C0CD098F832
:102BFC0023054FF48C7110230095C2000720FEF7BB
:102C0C0082FF102C40F05D810020C8F81005FFF702
:102C1C0009BBDDF81C8000244FF4917006210522BD
:102C2C000723C8E90744C8F824400094FEF76BFF5B
:102C3C004FF494700621052207230094FEF763FFDE
:102C4C004FF497700621052207230094FEF75BFFD3
:102C5C004FF49A700621052207230094FEF753FFC8
:102C6C004FF49D700621052207230094FEF74BFFBD
:102C7C004FF4A0700621052207230094FEF743FFB2
:102C8C004FF4A3700621052207230094FEF73BFFA7
:102C9C004FF4A6700621052207230094FEF733FF9C
:102CAC004FF4A9700621052207230094FEF72BFF91
:102CBC004FF4AC700621052207230094FEF723FF86
:102CCC004FF4AF700621052207230094FEF71BFF7B
:102CDC004FF4B2700621052207230094FEF713FF70
:102CEC004FF4B5700621052207230094FEF70BFF65
:102CFC004FF4B8700621052207230094FEF703FF5A
:102D0C004FF4BB700621052207230094FEF7FBFE4F
:102D1C00A0200E21782201230094FEF7F4FED8F8AF
:102D2C001460772E0FD806F1A00509210122052386
:102D3C0028460094FEF7E7FE28460F2101220523C2
:102D4C000094FEF7E0FED8F81800DDF81490B042BD
:102D5C0011D077280FD800F1A005092101220523F5
:102D6C0028460094FEF7CFFE28460F2101220523AA
:102D7C000094FEF7C8FE4FF0FF300021C8E90500B3
:102D8C0040F2C11001221E230094FEF7BCFE4FF44A
:102D9C00C5700721102210230094FEF7B4FE4FF4E7
:102DAC00D170002101221E230094FEF7ACFE40F2EC
:102DBC00A9100721102210230094FEF7A4FE40F264
:102DCC008310002101221E230094FEF79CFE4FF479
:102DDC00E4700721102210230094FEF794FE069E47
:102DEC00FFF720BA42F694314046C0F60101FFF7D6
:102DFC0080F942F6AC514046C0F601010522FEF7BF
:102E0C00F0FF42F6B1514046C0F601011D22FEF71B
:102E1C008DFF42F6CE514046C0F601013222FEF73C
:102E2C0085FFD8F8100510283FBF4044002180F8DA
:102E3C001415D8F810053FBF0130C8F8100542F63C
:102E4C000061C0F601013FBF40461D2213B0BDE832
:102E5C00000F3CBFBDE8F040FEF768BF10210BF03F
:102E6C00A6FC42F6D4614046C0F601010F22FEF7E3
:102E7C00B8FF42F6FC614046C0F60101012213B0D6
:102E8C00BDE8000FBDE8F04000F022B942F69861B1
:102E9C004046C0F601010B22FEF7A3FF42F6CC61BF
:102EAC004046C0F60101022213B0BDE8000FBDE898
:102EBC00F04000F00DB90BF07AFC4FF4C0610CF04F
:102ECC0087FD102010210BF072FCF0B503AF2DE93B
:102EDC00000B82B00B460246D0F8F814D0F804056B
:102EEC00884279D2082879D2D2F8F414DBB251F89E
:102EFC0020100E687168994273D9024492F8082523
:102F0C00914271D9316800EB8000357A01EBC30333
:102F1C0001EBC206D6F804805B6851F832604FF0C2
:102F2C003B0202EBC009A3EB08004FEAC8014FEAD1
:102F3C00C0022DB1C1F16C05002A0CDDA81A04E009
:102F4C00002A41DD01F10C000C2500211023009119
:102F5C004946FEF7D8FDB8F1000F39D006EB08044E
:102F6C0042F2B048C0F601080AE043EA8112861C1E
:102F7C00284649464346FDF7C2FD0544A64227D0E4
:102F8C00304616F9011BB1F1FF3FCAB2F0DC4378B1
:102F9C0002F01F01E02A03F03F03E6D38678F02A03
:102FAC0006F03F0646EA83130AD3C27801F0070104
:102FBC00061D02F03F0242EA831242EA8142D7E741
:102FCC0043EA0132C61CD3E70C25B8F1000FC5D17A
:102FDC0002B0BDE8000BF0BD0BF0E9FB08210BF0D3
:102FEC00E6FB18460BF0E3FB10460BF0E0FBF0B5EC
:102FFC0003AF2DE9000F81B0D0F8F81400295FD091
:10300C00D0F8F48400F5A1664FEA81094B244FF007
:10301C00000A58F8040BA4F122011023D0F800B0D8
:10302C008068CDF800A0C2000A20FEF76CFDA4F168
:10303C0012010A2064220223CDF800A0FEF763FDE2
:10304C00A4F110050A20022210232946CDF800A075
:10305C00FEF759FD6C20294602221023CDF800A062
:10306C00FEF751FD0A20214664220223CDF800A070
:10307C00FEF749FD40F28B10844225D0DBF804109A
:10308C003078814222D9DBF8001010239BF80820FD
:10309C0001EBC000002A4FF06C0241684FF00C00AD
:1030AC00CDF800A018BFA2EBC100CA002946FEF75C
:1030BC002AFDB9F1040904F1280406F10106A8D18E
:1030CC0001B0BDE8000FF0BD082008210BF06FFB2C
:1030DC00F0B503AF2DE9000F8BB00D46C0F8F4141A
:1030EC0042F6A4310646C0F8F8240020C6F80405C0
:1030FC00C0F6010130461446FEF7FBFF05EB8400D9
:10310C00242443F20808019006F5A1600390D6F838
:10311C000405C4F20004C4F201084FF007094FF093
:10312C00010A0022029007E0079A049D01980132DF
:10313C000435854200F0B582082A00F0BA822B686B
:10314C000020039904950792885402EB8200996839
:10315C00CDE90503002900F0318106982922059B51
:10316C004FF00A0B406802EBC3020992014408912C
:10317C0002460EE040F618404FF48041C4F20200C3
:10318C000BF1080B01600A9A08988242104600F075
:10319C00158112F9011BB1F1FF3FCDB21FDC427852
:1031AC0005F01F01E02D02F03F0211D38378F02DC2
:1031BC0003F03F0343EA82120ED3C37801F00701F8
:1031CC0003F03F0343EA821242EA8145021D06E006
:1031DC0042EA8115821C02E042EA0135C21C0999BF
:1031EC0058460A9208221023FDF783FD4FF6006023
:1031FC00B52DCFF6FF7000EB051008BF4FF4C06083
:10320C00202D38BF4FF4BE60B0F5046F00F24D8234
:10321C0041F670410023C0F6010101EB000CC0F532
:10322C00046102E00133102BA4D0002502E001352B
:10323C00082DF7D003EBD500884280F030821CF8C3
:10324C00000029EA050226680AFA02F210402268F8
:10325C00921B592A0BD82268921B592A9EBF2268AE
:10326C00921B592A03D82268921B5A2AEFD3D8F8FA
:10327C00002092070CD4D8F8002092075CBFD8F835
:10328C0000205FEA827203D4D8F800209207EED5B2
:10329C00002818BFFF20C8F80400D8F80020D20777
:1032AC000CD1D8F80020D20704BFD8F800205FEA70
:1032BC00C27203D1D8F80020D207EED0D8F8002083
:1032CC0012060CD5D8F80020120644BFD8F80020FE
:1032DC005FEA026203D5D8F800201206EED4D8F8C3
:1032EC00042026682268921B592A0BD82268921B4C
:1032FC00592A9EBF2268921B592A03D82268921B16
:10330C005A2AEFD326682268921B592A0BD82268B6
:10331C00921B592A9EBF2268921B592A03D82268F5
:10332C00921B5A2AEFD3D8F8002092070CD4D8F865
:10333C00002092075CBFD8F800205FEA827203D4A9
:10334C00D8F800209207EED5C8F80400D8F8000091
:10335C00C0070CD1D8F80000C00704BFD8F8000093
:10336C005FEAC07003D1D8F80000C007EED0D8F8DF
:10337C00000000060CD5D8F80000000644BFD8F8B1
:10338C0000005FEA006003D5D8F800000006EED418
:10339C00D8F8040020682268121A592A3FF647AF61
:1033AC002268121A592A9EBF2268121A592A3FF60D
:1033BC003EAF2268121A5A2AEDD338E70598079ABD
:1033CC00C600029806F13901904224D140F21F4BFD
:1033DC000A2064220223CDF800B0FEF794FB06F11C
:1033EC003B050A20022210232946CDF800B0FEF737
:1033FC008AFB6C20294602221023CDF800B0FEF780
:10340C0082FB06F14B010A2064220223CDF800B0A6
:10341C00FEF779FB03E008461421FEF731FC069811
:10342C0001684868002800F0488108684268002A52
:10343C003FF47AAE006806F13B03097A4FF00C0BAF
:10344C0009938318002908934FF06C0118BFA1EB66
:10345C00C20B02460EE040F618404FF48041C4F215
:10346C0002000BF1080B01600A9A08988242104680
:10347C003FF45AAE12F9011BB1F1FF3FCDB21FDC84
:10348C00427805F01F01E02D02F03F0211D3837842
:10349C00F02D03F03F0343EA82120ED3C37801F000
:1034AC00070103F03F0343EA821242EA8145021D01
:1034BC0006E042EA8115821C02E042EA0135C21C98
:1034CC00099958460A9208221023FDF712FC4FF670
:1034DC000060B52DCFF6FF7000EB051008BF4FF460
:1034EC00C060202D38BF4FF4BE60B0F5046F00F201
:1034FC00DC8041F670410023C0F6010101EB000CA9
:10350C00C0F5046102E00133102BA4D0002502E0C9
:10351C000135082DF7D003EBD500884280F0BF8031
:10352C001CF8000029EA050226680AFA02F210408B
:10353C002268921B592A0BD82268921B592A9EBFCB
:10354C002268921B592A03D82268921B5A2AEFD35D
:10355C00D8F8002092070CD4D8F8002092075CBF52
:10356C00D8F800205FEA827203D4D8F800209207C2
:10357C00EED5002818BFFF20C8F80400D8F80020AA
:10358C00D2070CD1D8F80020D20704BFD8F80020FD
:10359C005FEAC27203D1D8F80020D207EED0D8F877
:1035AC00002012060CD5D8F80020120644BFD8F81B
:1035BC0000205FEA026203D5D8F800201206EED490
:1035CC00D8F8042026682268921B592A0BD8226846
:1035DC00921B592A9EBF2268921B592A03D8226833
:1035EC00921B5A2AEFD326682268921B592A0BD8B1
:1035FC002268921B592A9EBF2268921B592A03D813
:10360C002268921B5A2AEFD3D8F8002092070CD4C8
:10361C00D8F8002092075CBFD8F800205FEA8272CD
:10362C0003D4D8F800209207EED5C8F80400D8F8D7
:10363C000000C0070CD1D8F80000C00704BFD8F8B0
:10364C0000005FEAC07003D1D8F80000C007EED0CC
:10365C00D8F8000000060CD5D8F80000000644BFCE
:10366C00D8F800005FEA006003D5D8F80000000627
:10367C00EED4D8F8040020682268121A592A3FF6B2
:10368C0047AF2268121A592A9EBF2268121A592A69
:10369C003FF63EAF2268121A5A2AEDD338E70BF0E8
:1036AC0086F80BB0BDE8000FF0BD4FF404610CF0D0
:1036BC008FF9082008210BF07AF8002000210BF07C
:1036CC0076F8D4D4F0B503AF2DE9000782B04FF0F3
:1036DC00FF3252FA81F1052943D8DFE801F0035C8F
:1036EC00469A42B7D0F804554FF0390AD0F8F8444E
:1036FC00804605EB85010AEBC10108461421FEF753
:10370C00BFFA40F21F49002DCDF8009018BF2C468F
:10371C00661E0A206422022306EB86050AEBC5010D
:10372C00FEF7F1F93B2000EBC5040A2002222146EA
:10373C001023CDF80090FEF7E6F96C20214602220A
:10374C001023CDF80090FEF7DEF94B2000EBC501FD
:10375C000A2064220223CDF80090FEF7D4F9C8F8B1
:10376C00046502B0BDE80007F0BDD0F80425072AB7
:10377C0074D8D0F8F8148A4274D2D0F8F46400F5F6
:10378C00A163995C56F8226000293668367918BF17
:10379C000E46013E52E0D0F8F8144FF03908D0F83C
:1037AC0004250139541A4FF0140118BF541CC0F8E9
:1037BC00044502EB820008EBC000FEF761FA04EB53
:1037CC00840640F21F450A20642208EBC60102233E
:1037DC000095FEF798F93B2000EBC6040A20022264
:1037EC00214610230095FEF78EF96C20214602220B
:1037FC0010230095FEF787F94B2000EBC6010A2039
:10380C00642202230095FEF77EF902B0BDE80007A2
:10381C00F0BDD0F80425072A20D8D0F8F8148A4235
:10382C0020D2D0F8F46400F5A163995C56F82260BC
:10383C0036687668013E761A18BF4E1C9E5402B04C
:10384C00BDE80007BDE8F040FFF73FBB002102B028
:10385C00BDE80007BDE8F040FEF7CCBC10460821DF
:10386C000AF0A5FF10460AF0A2FFF0B503AF2DE950
:10387C00000F85B0019042F61D6C91E87C004FF072
:10388C00000AC0F6010C4FF007084FF001097CC08C
:10389C00242543F20806C4F20005C4F201060021F7
:1038AC0003E00299052900F04D8201EB81004FF0F5
:1038BC00C80B4042002301310BEB400003900291F6
:1038CC0010E040F618404FF48041C4F2020042F67A
:1038DC001D6C01600BF1080B049BC0F6010C132B43
:1038EC0000F00D811CF90310581CB1F1FF3FCCB254
:1038FC0001DD049025E01CF800009A1CE02C00F07F
:10390C003F0104F01F0016D31CF80220F02C02F02B
:10391C003F0242EA811103F103020FD31CF802208B
:10392C0000F007000433049302F03F0242EA8111D5
:10393C0041EA804405E041EA801401E041EA0034A8
:10394C0004920399584608221023FDF7D2F94FF63A
:10395C000060B52CCFF6FF7000EB041008BF4FF4DD
:10396C00C060202C38BF4FF4BE60B0F5C06F00F2C1
:10397C00E58142F22B514FF0000EC0F6010101EB34
:10398C00000CC0F5C06104E00EF1010EBEF1100F89
:10399C0097D0002402E00134082CF5D00EEBD400B3
:1039AC00884280F0C9811CF8000028EA04032A68C8
:1039BC0009FA03F318402B689B1A592B0BD82B6868
:1039CC009B1A592B9EBF2B689B1A592B03D82B681B
:1039DC009B1A5A2BEFD33268920709D4326892079C
:1039EC005CBF32685FEA827202D432689207F2D509
:1039FC000246002818BF4FF4E0624FEA12227260B0
:103A0C0018BF4FF4FC603268D20709D13268D20774
:103A1C0004BF32685FEAC27202D13268D207F2D0B8
:103A2C003268120609D53268120644BF32685FEA62
:103A3C00026202D532681206F2D472682A682B68C8
:103A4C009B1A592B0BD82B689B1A592B9EBF2B6892
:103A5C009B1A592B03D82B689B1A5A2BEFD32A6825
:103A6C002B689B1A592B0BD82B689B1A592B9EBF72
:103A7C002B689B1A592B03D82B689B1A5A2BEFD304
:103A8C003268920709D4326892075CBF32685FEAE9
:103A9C00827202D432689207F2D500F0E0007060B6
:103AAC003068C00709D13068C00704BF30685FEACE
:103ABC00C07002D13068C007F2D03068000609D55A
:103ACC003068000644BF30685FEA006002D5306899
:103ADC000006F2D4706828682A68121A592A3FF630
:103AEC005AAF2A68121A592A9EBF2A68121A592AE2
:103AFC003FF651AF2A68121A5A2AEDD34BE72868C1
:103B0C004AF62022C0F244022968091A91420BD2CB
:103B1C002968091A91423EBF2968091A914203D2B9
:103B2C002968091A9142EFD300234FF0C80B0CE01F
:103B3C0040F618404FF48041C4F202000BF1080B20
:103B4C000160049B132B3FF4ACAE1CF90310581C02
:103B5C00B1F1FF3FCCB201DD049025E01CF8000070
:103B6C009A1CE02C00F03F0104F01F0016D31CF847
:103B7C000220F02C02F03F0242EA811103F1030211
:103B8C000FD31CF8022000F007000433049302F05A
:103B9C003F0242EA811141EA804405E041EA801487
:103BAC0001E041EA0034049203995846082210239C
:103BBC00FDF79FF84FF60060B52CCFF6FF7000EBC9
:103BCC00041008BF4FF4C060202C38BF4FF4BE6007
:103BDC00B0F5C06F00F2B28042F61D6CC0F5C0614A
:103BEC000022C0F6010C02E00132102AA0D0002302
:103BFC0002E00133082BF7D002EBD300884280F0AF
:103C0C009B8028682C68241A592C0BD82C68241AF1
:103C1C00592C9EBF2C68241A592C03D82C68241AB2
:103C2C005A2CEFD33068800709D4306880075CBF0A
:103C3C0030685FEA807002D430688007F2D5C6F82D
:103C4C0004A03068C00709D13068C00704BF3068D1
:103C5C005FEAC07002D13068C007F2D0306800064D
:103C6C0009D53068000644BF30685FEA006002D5B1
:103C7C0030680006F2D4706828682C68241A592C15
:103C8C000BD82C68241A592C9EBF2C68241A592C3A
:103C9C0003D82C68241A5A2CEFD328682C68241AC1
:103CAC00592C0BD82C68241A592C9EBF2C68241A1A
:103CBC00592C03D82C68241A5A2CEFD3306880075F
:103CCC0009D4306880075CBF30685FEA807002D42A
:103CDC0030688007F2D5C6F804A03068C00709D157
:103CEC003068C00704BF30685FEAC07002D130682A
:103CFC00C007F2D03068000609D53068000644BF12
:103D0C0030685FEA006002D530680006F2D4706853
:103D1C0028682C68241A592C3FF66BAF2C68241A8F
:103D2C00592C9EBF2C68241A592C3FF662AF2C6874
:103D3C00241A5A2CEDD35CE70AF039FD4FF4C0611C
:103D4C000BF046FE0198002105B0BDE8000FBDE860
:103D5C00F040FEF74FBAF0B503AF4DF8048DA6B0A6
:103D6C0000211428CDE90311CDE9011107914FF081
:103D7C001001069101A9059100F2A08042F6007194
:103D8C00C0F6010101EBC000017931B101290BD161
:103D9C0042F6BE71C0F6010103E042F6BC71C0F6FA
:103DAC0001011391022105E042F6C071C0F6010138
:103DBC001391032140F255421491C0F600020021E8
:103DCC00129213AA11924EF2C372C0F60002202373
:103DDC00CDE90F0203208DF890000122CDE91710D8
:103DEC0015A80C9042F6AC70C0F601002391089017
:103DFC000FA80A9005A8229202268DF8702008AA16
:103E0C001B91CDE9193141F62841C0F601012193EE
:103E1C001F961D9615960D9609960B960BF0D4F9D8
:103E2C0000284ED1DDE906128A4244D8059915A81E
:103E3C000BF090FA159801284BD01798B8B3169D33
:103E4C0042F2B0481A24C0F601082E180BE043EADF
:103E5C008112851C20464FF495714346FCF74FFEAA
:103E6C000444B54223D0284615F9011BB1F1FF3F9C
:103E7C00CAB2EFDC437802F01F01E02A03F03F03E3
:103E8C00E5D38578F02A05F03F0545EA83130AD37C
:103E9C00C27801F00701051D02F03F0242EA8312CD
:103EAC0042EA8142D6E743EA0132C51CD2E726B08A
:103EBC005DF8048BF0BD10460BF08AFD15210AF05D
:103ECC0076FC41F65041A7F11100C0F601010BF050
:103EDC0045FD43F2C02108A8C0F601010BF03EFDE0
:103EEC00D4D4D4D4F0B503AF2DE9000F81B02DEDAF
:103EFC00068BADF51C7D04464CF67400205800284A
:103F0C0000F080864DF6D45040F21C71204407908E
:103F1C004CF69870251828460DF072FB002008947A
:103F2C00D4F8E0448DF86C00CDE9190019A8002CE8
:103F3C00CDE97E00CDE97C00CDE97A00CDE97800B1
:103F4C00CDE97600CDE97400CDE97200CDE97000C1
:103F5C00CDE96E00CDE96C00CDE96A00CDE96800D1
:103F6C00CDE96600CDE96400CDE96200CDE96000E1
:103F7C00CDE95E00CDE95C00CDE95A00CDE95800F1
:103F8C00CDE95600CDE95400CDE95200CDE9500001
:103F9C00CDE94E00CDE94C00CDE94A00CDE9480011
:103FAC00CDE94600CDE94400CDE94200CDE9400021
:103FBC00CDE93E00CDE93C00CDE93A00CDE9380031
:103FCC00CDE93600CDE93400CDE93200CDE9300041
:103FDC00CDE92E00CDE92C00CDE92A00CDE9280051
:103FEC00CDE92600CDE92400CDE92200CDE9200061
:103FFC00CDE91E00CDE91C0000F058831CA8DDF8AB
:10400C0020C0083000210022B1F5966F00F02D86FB
:10401C000CEB010303F1300640F8086C42F001068A
:10402C00A64215D003F13C0640F8046C42F002069F
:10403C00A6421FBF03F14806066042F00306A642E3
:10404C0006D054334360043210303031A242DBD1FD
:10405C004CF6A0709FEDED8B6044099051EC180B61
:10406C009FEDEC9B9FEDED0B0A94CDE9111051ECFB
:10407C00190B10910C9051EC100B0B9000200F9120
:10408C0004E00A9C0D98A04200F01083642800F014
:10409C00EC85411C0D911CA951F820100798189122
:1040AC00D0E9009AD1E900604021179080A80DF06A
:1040BC00A7FA30460DF042FA064648460C460DF07B
:1040CC003DFA02460B4630462146164613921C46D4
:1040DC0014930DF094F8DDE911320DF0A0F8804640
:1040EC00504689460DF02AFA324623460DF087F8E1
:1040FC00024616900B461591404649460CF015FBAE
:10410C000C9EDDF8409032464B460CF0F3FCB0EEC2
:10411C00491AF0EE691A41EC100B0CF0E3FAB0EE10
:10412C00481AF0EE681A0CF0BAFA5BEC108B00200F
:10413C0092904020919080A8909032464B464046F9
:10414C0059460CF0AFFE0E90404659460DF031F832
:10415C00824617980DF0F2F9DDE913230DF04FF8B4
:10416C00DDE911320DF05BF8DDE915320CF0DDFA0A
:10417C0032464B4634460CF0BDFCB0EE491AF0EE1C
:10418C00691A41EC100B0CF0ADFAB0EE481AF0EED7
:10419C00681A0CF084FA1898594659EC106B007A8E
:1041AC0017900E98002808BF82464046DDF82C80F8
:1041BC000F9B42460DF0EEF9002818BF4FF0FF3A66
:1041CC00109B3046494622460CF06CFE04463046A5
:1041DC0049460CF0EEFF8346002C08BFA3460F9B0C
:1041EC003046494642460DF0D5F9002818BF4FF02D
:1041FC00FF3B1799ABEB0A04DFE801F00336152AF5
:10420C000B3C44F22050C7F26D00809047F67410BE
:10421C0025E045F22030C6F67470809070208DF841
:10422C00040205201EE0189842F6D071C0F6010178
:10423C009491407A07F8590C0020989001209590A1
:10424C0097909AA896904FF60720C0F6000025E0AC
:10425C0045F22030C6F27410809047F27240ADF8EF
:10426C0004020620929028E0189842F6C871C0F615
:10427C00010104E0189842F6E071C0F60101407AA1
:10428C0007F8590C002098900120959097909AA8C7
:10429C0096904FF62D20C0F6000094919B90A7F1BC
:1042AC00590041F628419A9090A894AAC0F60101B1
:1042BC000AF08AFF002840F0DC84DDE99119894579
:1042CC0000F2B884DDF8408294A84A4641460BF0CF
:1042DC0041F89498012800F0C184969800EBC00036
:1042EC00844243D2D3457FF6CCAE0998BAF5E47F2D
:1042FC0000EB8A0140F2C71028BF5046A0EB0A021F
:10430C00002A00F0A38451F8083C4FF6FF763343A3
:10431C0041F8083C0AF101035B453FF4B2AE83421D
:10432C0000F0948451F8043C334341F8043C0AF106
:10433C0002035B453FF4A5AE834200F087840B6813
:10434C0033430B600AF103035B453FF49AAE83429F
:10435C0000F07C844B680AF1040A043ADA4543EA1B
:10436C0006034B6001F11001CAD18AE6D34539D955
:10437C000998BAF5E47F534600EB8A0140F2C71066
:10438C0028BF5046A0EB0A02002A00F05F8451F8C7
:10439C00086C4FF6FF74264341F8086C5E1C5E45B2
:1043AC0020D0864200F0528451F8046C264341F828
:1043BC00046C9E1C5E4515D0864200F047840E6846
:1043CC0026430E60DE1C5E450CD0864200F03E8417
:1043DC004E680433043A5B4546EA04064E6001F12C
:1043EC001001D1D194A841464A460AF0B3FF9498E3
:1043FC00012800F03384969800283FF442AE95993A
:10440C00084413900B4615E000BF00BF00000000ED
:10441C0000607C4000000000000000000000E0FF95
:10442C00FFFFEF41DDE913030AF1080A1946834245
:10443C003FF427AE13F9012BB2F1FF3FD0B21FDCD2
:10444C004B7800F01F02E02803F03F0311D38E7865
:10445C00F02806F03F0646EA83130ED3C87802F024
:10446C00070200F03F0040EA83100B1D40EA824037
:10447C0006E043EA82108B1C02E043EA0230CB1CBC
:10448C000401B52808BF4FF40064202838BF4FF44E
:10449C00FE64A4F50070B0F5C06F00F2BB8342F26D
:1044AC002B511493C0F60101084417900AF1070030
:1044BC000AF105010AF104020AF103030AF10206EA
:1044CC000AF1010C15900AF106004FF0000E16903F
:1044DC00C4F5006018901898704500F0AE83012068
:1044EC0000FA0EF817986FEA080910F90E00B0F1EF
:1044FC00FF3F08DDBAF5E37F00F2928355F82A40BE
:10450C0044EA080407E0BAF5E37F00F2898355F822
:10451C002A4004EA09045FFA80FB45F82A405FEA66
:10452C004B604FEA5A0060D4E22800F2778355F8CA
:10453C002C4044EA080445F82C405FEA8B6460D5B3
:10454C00BAF5E27F00F26A8355F8264004EA0904C2
:10455C0045F826405FEACB6460D54FEA9A04702C8C
:10456C0000F25C8355F8234004EA090445F8234023
:10457C005FEA0B7460D5BAF5E17F00F24F8355F812
:10458C00224004EA090445F822405FEA4B7460D5E6
:10459C00169CE02800F2428355F8210000EA09003D
:1045AC0045F821005FEA8B7060D5BAF5E07F00F228
:1045BC00358355F8240000EA090045F824005FEA29
:1045CC00CB7060D0159C4FEA9A10062800F2268317
:1045DC0055F8240000EA09000EF1010E45F82400FC
:1045EC00BEF1100F7FF477AF1CE7E22800F21683C0
:1045FC0055F82C4004EA090445F82C405FEA8B641A
:10460C009ED4BAF5E27F00F2098355F8264044EABD
:10461C00080445F826405FEACB649ED44FEA9A041E
:10462C00702C00F2FB8255F8234044EA080445F84C
:10463C0023405FEA0B749ED4BAF5E17F00F2EE8260
:10464C0055F8224044EA080445F822405FEA4B74CE
:10465C009ED4169CE02800F2E18255F8210040EA35
:10466C00080045F821005FEA8B709ED4BAF5E07F14
:10467C0000F2D48255F8240040EA080045F82400E2
:10468C005FEACB709ED1159C4FEA9A10062800F277
:10469C00C58255F8240040EA08000EF1010E45F8D9
:1046AC002400BEF1100F7FF416AFBBE608984CF651
:1046BC007401014400F224500A908B465BF8046F9D
:1046CC000BF10400002ECDE9171000F0F08024242B
:1046DC0043F208084FF0000AC4F20004C4F20108C7
:1046EC0040F2C7120EE040F618404FF48041C4F27D
:1046FC00020040F2C712016018980AF1010A9245B3
:10470C0000F0F28055F82A9050F82A108945F4D020
:10471C000AF11900202101223346FCF7EAFA0020A5
:10472C0002E00130B042DED000F01F01226829FA0D
:10473C0001F1C90740F63C6108BF40F63E613BF809
:10474C00011023689B1A592B0BD823689B1A592BE1
:10475C009EBF23689B1A592B03D823689B1A5A2B8C
:10476C00EFD3D8F8002092070CD4D8F80020920789
:10477C005CBFD8F800205FEA827203D4D8F800201E
:10478C009207EED50A0AC8F80420D8F80020D20700
:10479C000CD1D8F80020D20704BFD8F800205FEA6B
:1047AC00C27203D1D8F80020D207EED0D8F800207E
:1047BC0012060CD5D8F80020120644BFD8F80020F9
:1047CC005FEA026203D5D8F800201206EED4D8F8BE
:1047DC000420226823689B1A592B0BD823689B1A38
:1047EC00592B9EBF23689B1A592B03D823689B1AFD
:1047FC005A2BEFD3226823689B1A592B0BD82368AA
:10480C009B1A592B9EBF23689B1A592B03D82368DC
:10481C009B1A5A2BEFD3D8F8002092070CD4D8F857
:10482C00002092075CBFD8F800205FEA827203D4A4
:10483C00D8F800209207EED5C9B2C8F80410D8F801
:10484C000010C9070CD1D8F80010C90704BFD8F85C
:10485C0000105FEAC17103D1D8F80010C907EED07F
:10486C00D8F8001009060CD5D8F80010090644BF7A
:10487C00D8F800105FEA016103D5D8F800100906DA
:10488C00EED4D8F8041021682268521A592A3FF63F
:10489C0048AF2268521A592A9EBF2268521A592AC6
:1048AC003FF63FAF2268521A5A2AEDD339E740F649
:1048BC0018486FF4E374C4F202084FF480490646BA
:1048CC0002E0043601340FD23268D6F81C1791423C
:1048DC00F7D004F5F070202101220023FCF709FA2F
:1048EC001898C8F80090ECE7294640F21C720CF0BE
:1048FC000EFC17980068461E42D407980022DDF87B
:10490C0020C042F20F7334464FF0000E0168A0181D
:10491C0000EBD0704010984200F29C810A9D55F833
:10492C0020508D4296BF421C441E8646A242EEDDAC
:10493C000798002342F20F7431464268F01800EBDE
:10494C00D0704010A04200F285810A9D55F820508D
:10495C00954232BF431C461E0146B342EEDD4DF676
:10496C00E0508E45604400F24B8101900E460CEBFA
:10497C000E004AF264121044CDF80CE002900BE0E9
:10498C00DDF820C04AF26410604402904DF6E0500D
:10499C0060440190002003904DF6E0500CEB000BAE
:1049AC009FEDB88B4AF264109FEDB89B00219FEDF0
:1049BC00B9AB60440590069603E00499082900F011
:1049CC001E810A980123DDF80C904A1C049250F8C1
:1049DC002950029800781690C8B203FA00F009909A
:1049EC00480049460890B14538BF013142F20F707A
:1049FC00814500F2268128460D910CF09FFD05465D
:104A0C0007980E46D0E900080CF098FD04460B46BA
:104A1C0028463146224610941D460F930CF0EFFBAE
:104A2C0053EC182BCDE914230CF0F9FB82464046CD
:104A3C000E460CF083FD22462B460CF0E0FB0246A2
:104A4C0013900B461291504631460BF06EFE54EC0F
:104A5C00196B0E96324623460CF04CF8B0EE491A00
:104A6C00F0EE691A41EC100B0BF03CFEB0EE481A5C
:104A7C00F0EE681A0BF013FE50EC1A5BCDF85C905C
:104A8C005AEC109B169932462346264618900998E4
:104A9C0011950142089808BF40F001000B90484660
:104AAC0051460CF0FFF98046484651460CF081FB0C
:104ABC000446B8F1000F08BF4446189B51464846BF
:104ACC002A46DDF85CA00CF065FD16900A9850F8AB
:104ADC002A000C900CF032FDDDE90F320CF08FFB4C
:104AEC00DDE914230CF09BFBDDE912320BF01DFE0B
:104AFC000E9D33462A460BF0FDFFB0EE491AF0EE40
:104B0C00691A41EC100B0BF0EDFDB0EE481AF0EE0B
:104B1C00681A0BF0C4FD58EC109B16982A463346C5
:104B2C00002818BF4FF0FF34484641460CF0BAF944
:104B3C000646484641460CF03CFB05460598002EBF
:104B4C00414610F80A00169008BF3546119A48469F
:104B5C00189B0CF01FFD069E002818BF4FF0FF3568
:104B6C00AC420AD91798DDE90C51B042BFF425AF1D
:104B7C00B14289467FF637AF1FE70B98012180B20F
:104B8C0001FA00F0B4F5E37F4FD83BF81410AC42B7
:104B9C0041EA00012BF8141038BF0134E2D2AC42C8
:104BAC00E0D8B4F5E37F40D83BF81410AC4241EAAE
:104BBC0000012BF8141038BF0134D3D2AC42D1D839
:104BCC00B4F5E37F31D83BF81410AC4241EA000154
:104BDC002BF8141038BF0134C4D2AC42C2D8B4F58F
:104BEC00E37F22D83BF81410AC4241EA00012BF8C9
:104BFC00141038BF0134B5D2AC42C3D9B2E7019816
:104C0C0001F07CF90DF51C7DBDEC068B01B0BDE807
:104C1C00000FF0BD4FF4C0610AF0DAFE40F2C71A83
:104C2C00504640F2C71109F0C2FD204640F2C711B0
:104C3C0009F0BDFD48460AF0CBFE1898014609F074
:104C4C00B6FD484642F2107109F0B1FD40F2C711B1
:104C5C0009F0ADFD42F2107109F0A9FD43F2C0213B
:104C6C009AA8C0F601010AF079FE6420642109F0CB
:104C7C009EFD41F6504194A8C0F601010AF06EFE6B
:104C8C0000BF00BF0000000000607C40000000007E
:104C9C00000000000000E0FFFFFFEF41F0B503AFA4
:104CAC002DE9000FA5B005464CF6740029584DF6B9
:104CBC00D45055F800802844D0F804A071B1481E97
:104CCC0042F21072914200F2638405F2245151F8C1
:104CDC00209095F82800059540B108E24FF00009A6
:104CEC0095F828000595002840F00182CDE902983E
:104CFC0043F2080B43F23808CDF810A040F2240A16
:104D0C004FF001094FF491710020C4F2000AC4F273
:104D1C00010BC0F60108002485F82890089109E0E1
:104D2C000798013408990830202801F118010891DE
:104D3C0000F0D08143F2E4210790C0F60101069403
:104D4C000E5808444568102D08D2002D00F04681FD
:104D5C00042D80F05281002000219EE1304629462E
:104D6C0009F0A7FEC0F103007119099100EB400096
:104D7C00089901EB400331460EE040F618404FF421
:104D8C008041C4F2020001600B9BDDE9090106338E
:104D9C000E46814200F0228111F9010BB0F1FF3F68
:104DAC00C5B21FDC717805F01F00E02D01F03F014A
:104DBC0011D3B278F02D02F03F0242EA81110ED3EA
:104DCC00F27800F0070002F03F0242EA811141EA5A
:104DDC008045311D06E041EA8015B11C02E041EA34
:104DEC000035F11CCDE90A1318460E2105220723C4
:104DFC00FBF77FFF05EB8500B52DA0F1A00140F27C
:104E0C00E51008BF4FF4F071202D38BF40F2DB11D4
:104E1C00421A4FF0000C38BF624602E0BCF1070F9B
:104E2C00ABD00CF007000CF1010C002509FA00F6D0
:104E3C0001E0052DF2D06818954200F09E83DAF857
:104E4C000040013518F80000DAF800301B1B592B14
:104E5C000ED8DAF800301B1B592B9EBFDAF8003045
:104E6C001B1B592B04D8DAF800301B1B5A2BEBD325
:104E7C00DBF800309B070CD4DBF800309B075CBFE1
:104E8C00DBF800305FEA837303D4DBF800309B0758
:104E9C00EED5304018BFFF20CBF80400DBF8003013
:104EAC00DB070CD1DBF80030DB0704BFDBF800308C
:104EBC005FEAC37303D1DBF80030DB07EED0DBF81D
:104ECC0000301B060CD5DBF800301B0644BFDBF8AA
:104EDC0000305FEA036303D5DBF800301B06EED429
:104EEC00DBF80430DAF80040DAF800301B1B592BE1
:104EFC000ED8DAF800301B1B592B9EBFDAF80030A5
:104F0C001B1B592B04D8DAF800301B1B5A2BEBD384
:104F1C00DAF80040DAF800301B1B592B0ED8DAF8FF
:104F2C0000301B1B592B9EBFDAF800301B1B592B72
:104F3C0004D8DAF800301B1B5A2BEBD3DBF800300B
:104F4C009B070CD4DBF800309B075CBFDBF8003010
:104F5C005FEA837303D4DBF800309B07EED5CBF804
:104F6C000400DBF80000C0070CD1DBF80000C00720
:104F7C0004BFDBF800005FEAC07003D1DBF800006F
:104F8C00C007EED0DBF8000000060CD5DBF8000003
:104F9C00000644BFDBF800005FEA006003D5DBF8D5
:104FAC0000000006EED4DBF80400DAF80000DAF8B2
:104FBC0000301B1A592B3FF63CAFDAF800301B1AA5
:104FCC00592B9EBFDAF800301B1A592B3FF631AF24
:104FDC00DAF800301B1A5A2BE9D32AE7069C032C6B
:104FEC00BFF49EAE089843F2202306212E221230E5
:104FFC00C0F60103FBF783FD92E696F9010096F9E2
:10500C00003010F1410F96F902204FF0000096F994
:10501C000310C8BF012013F1410FC8BF013012F1BA
:10502C00410FC8BF013011F1410F05F00C01C8BF91
:10503C000130042931D096F9044096F9053096F9DF
:10504C00062014F1410F96F907C0C8BF013013F1C7
:10505C00410FC8BF013012F1410FC8BF01301CF124
:10506C00410FC8BF0130082917D096F9084096F9AE
:10507C00093096F90A2014F1410F96F90BC0C8BFFC
:10508C00013013F1410FC8BF013012F1410FC8BFFD
:10509C0001301CF1410FC8BF013015F003023FF481
:1050AC0061AE735613F1410FC8BF0130012A3FF4B2
:1050BC0059AE314491F9013013F1410FC8BF0130A1
:1050CC00022A3FF44FAE91F9021011F1410FC8BF03
:1050DC00013047E64FF6FF700E210090A020782299
:1050EC000123FCF710FDDDE904A5DDE902984FF47E
:1050FC007A704FF03032A8FB00010E92CDE90C22F1
:10510C000CAA00240C260F925A22002311941096FC
:10511C000CF078FBCDE912011DA9199142F68431EE
:10512C00C0F60101012015914FF69121C0F6000146
:10513C001A901C9112A9169015AA18908DF890002F
:10514C0030201B911BA921900220179141F6284178
:10515C001D900FA8C0F60101CDE92244CDE91F46F0
:10516C000AF032F8002840F00C829DF83020287F9D
:10517C00904240F0BC809DF83120687F904240F016
:10518C00C6809DF83220A87F904240F0D0809DF8D8
:10519C003320E87F904240F0DA809DF8342095F877
:1051AC002000904240F0E4809DF8352095F82100D5
:1051BC00904240F0EF809DF8362095F82200904206
:1051CC0040F0FA809DF8372095F82300904240F08B
:1051DC0005819DF8382095F82400904240F010810C
:1051EC009DF8392095F82500904240F01B819DF8E0
:1051FC003A2095F82600904240F026819DF83B20FD
:10520C0095F82700904240F03181B9F1000F00F081
:10521C003C8140460CF092F9044648460E460CF090
:10522C008DF981468846204631464A4643460BF066
:10523C007CFA9FEDDA0B54EC106B324623460BF0E4
:10524C00EEFFCDE90A1050460CF078F94A46434679
:10525C000BF06BFA324623460BF0E1FF9FEDD10BBE
:10526C008246884653EC104B099322460BF01AFEEB
:10527C000646504641460BF09CFF9FEDCC0B8346F7
:10528C005046414653EC109B002E08BFB3464A468D
:10529C0098460CF07FF9002818BF4FF0FF3B7720A1
:1052AC00BBF1770F28BF8346DDF82CA00A9D224660
:1052BC00099B504629460BF0F5FD044650462946FD
:1052CC000BF077FF0646504629464A464346002CCB
:1052DC0008BF2646059D0CF05DF9002818BF4FF05D
:1052EC00FF36772E4FF0770028BF0646D0E043F20A
:1052FC0020234FF49170C0F6010306212A77FBF7A7
:10530C00FEFB9DF83120687F90423FF43AAF43F2A8
:10531C0020234FF49470C0F6010306216A77FBF743
:10532C00EEFB9DF83220A87F90423FF430AF43F261
:10533C0020234FF49770C0F601030621AA77FBF7E0
:10534C00DEFB9DF83320E87F90423FF426AF43F21A
:10535C0020234FF49D70C0F601030621EA77FBF77A
:10536C00CEFB9DF8342095F8200090423FF41CAF02
:10537C0043F220234FF4A070C0F60103062185F8F8
:10538C002020FBF7BCFB9DF8352095F821009042BE
:10539C003FF411AF43F220234FF4A370C0F6010386
:1053AC00062185F82120FBF7AAFB9DF8362095F8FD
:1053BC00220090423FF406AF43F220234FF4A97031
:1053CC00C0F60103062185F82220FBF798FB9DF817
:1053DC00372095F8230090423FF4FBAE43F2202394
:1053EC004FF4AC70C0F60103062185F82320FBF7BF
:1053FC0086FB9DF8382095F8240090423FF4F0AEDF
:10540C0043F220234FF4AF70C0F60103062185F858
:10541C002420FBF774FB9DF8392095F82500904269
:10542C003FF4E5AE43F220234FF4B570C0F6010310
:10543C00062185F82520FBF762FB9DF83A2095F8AC
:10544C00260090423FF4DAAE43F220234FF4B870BA
:10545C00C0F60103062185F82620FBF750FB9DF8CA
:10546C003B2095F8270090423FF4CFAE43F2202327
:10547C004FF4BB70C0F60103062185F82720FBF71B
:10548C003EFBB9F1000F7FF4C4AE00264FF0000BC9
:10549C00D5F81490B14518BFD94513D0B9F1780F90
:1054AC0010D209F1A008002409210122404605234D
:1054BC000094FCF728FB40460F21012205230094A1
:1054CC00FCF721FBAC69772C19D84C4518BFB442BA
:1054DC0015D05C4513D004F1A0084FF0000A092147
:1054EC00012240460523CDF800A0FCF70CFB4046FA
:1054FC000F2101220523CDF800A0FCF704FBB145D8
:10550C0018BFB44213D006F1A0084FF6FF7A092158
:10551C00012240460523CDF800A0FCF7F4FA4046E2
:10552C000F2101220523CDF800A0FCF7ECFAB345BE
:10553C0003D0D94518BF5C4505D1C5E9056B25B02D
:10554C00BDE8000FF0BD0BF1A0044FF6FF78092168
:10555C00012220460523CDF80080FCF7D4FA204622
:10556C000F2101220523CDF80080FCF7CCFAC5E908
:10557C00056B25B0BDE8000FF0BD40F2E51109F058
:10558C0016F941F6504115A8C0F601010AF0E6F9EA
:10559C0042F2107109F00BF900BF00BF00000000CF
:1055AC0000C05D4000000000000000000000E0FFB3
:1055BC00FFFFEF41F0B503AF2DE9000F8DB043F2C3
:1055CC0040210E22C0F601018146FCF70AFC42F68E
:1055DC008C314846C0F60101FCF78BFD00204FF6DC
:1055EC00FF74C9F8000540F2C110002101221E23EE
:1055FC00D9F8FCA40094FCF786FA42F2B0484FF0BC
:10560C00FF36C0F60108BAF1000FCDF8008008BFD4
:10561C0040F21F464FF4C5700721A22233464FF0CB
:10562C00FF35FBF76FF94FF4C9700721A3223346FE
:10563C00CDF80080FBF766F94FF4D1700021012200
:10564C001E230094FCF75FFA4FF0FF36CDF8008074
:10565C00BAF1010F08BF40F21F4640F2A910072112
:10566C0088223346FBF74EF940F2B110072189220C
:10567C003346CDF80080FBF745F940F2831000214A
:10568C0001221E230094FCF73EFACDF80080BAF1FB
:10569C00020F08BF40F21F454FF4E4700721962219
:1056AC002B46FBF72FF94FF4E870072197222B4676
:1056BC00CDF80080FBF726F90C205121302243460F
:1056CC00FBF71DFA00205121192201230094FCF74D
:1056DC001AFA0C206B2131224346FBF710FA0020FA
:1056EC006B21192201230094FCF70DFA0C20852163
:1056FC0032224346FBF703FA0020852119220123AD
:10570C000094FCF700FA0C209F2133224346FBF750
:10571C00F6F900209F21192201230094FCF7F3F9DC
:10572C000C20B92134224346FBF7E9F90020B921BA
:10573C00192201230094FCF7E6F90C20D321352221
:10574C004346FBF7DCF90020D321192201230094F6
:10575C00FCF7D9F90C20ED2136224346FBF7CFF9A3
:10576C000020ED21192201230094FCF7CCF90C2028
:10577C0040F2071137224346FBF7C1F9002040F2F3
:10578C000711192201230094FCF7BDF9D9F8000088
:10579C0042F6E873C0F60103DFE810F08001130055
:1057AC0005000F000A0042F6FC73C0F6010308E086
:1057BC0043F22403C0F6010303E043F21003C0F6E6
:1057CC0001031B6909F104010AA80022CDF8089015
:1057DC000491039398470A98002800F05B8140F2EB
:1057EC00240843F2080943F2380B0024C4F20008E1
:1057FC00C4F201094FF0010AC0F6010B0AE0059C46
:10580C000AA804990134039B224698470A98002859
:10581C0000F040810C9905944A1C1CBF0B9A002A7D
:10582C00EDD01A23024459430692002602466031F9
:10583C0007910DE040F618404FF48041C4F202008D
:10584C000160099E089A0698063682421046D6D008
:10585C0012F9011BB1F1FF3FCCB21FDC427804F00E
:10586C001F01E02C02F03F0211D38378F02C03F0DF
:10587C003F0343EA82120ED3C37801F0070103F011
:10588C003F0343EA821242EA8144021D06E042EAE7
:10589C008114821C02E042EA0134C21CCDE90826C4
:1058AC003046079905220723FBF723FA04EB840003
:1058BC00B52CA0F1A00140F2E51008BF4FF4F07137
:1058CC00202C38BF40F2DB11421A4FF0000C38BFCD
:1058DC00624602E0BCF1070FACD00CF007000CF1F3
:1058EC00010C00260AFA00F401E0052EF2D0701823
:1058FC00964200F0EC80D8F8005001361BF80000FE
:10590C00D8F800305B1B592B0ED8D8F800305B1B35
:10591C00592B9EBFD8F800305B1B592B04D8D8F8F4
:10592C0000305B1B5A2BEBD3D9F800309B070CD4FF
:10593C00D9F800309B075CBFD9F800305FEA83735D
:10594C0003D4D9F800309B07EED5204018BFFF20B8
:10595C00C9F80400D9F80030DB070CD1D9F80030B5
:10596C00DB0704BFD9F800305FEAC37303D1D9F861
:10597C000030DB07EED0D9F800301B060CD5D9F877
:10598C0000301B0644BFD9F800305FEA036303D52F
:10599C00D9F800301B06EED4D9F80430D8F80050F2
:1059AC00D8F800305B1B592B0ED8D8F800305B1B95
:1059BC00592B9EBFD8F800305B1B592B04D8D8F854
:1059CC0000305B1B5A2BEBD3D8F80050D8F80030C2
:1059DC005B1B592B0ED8D8F800305B1B592B9EBF84
:1059EC00D8F800305B1B592B04D8D8F800305B1B5F
:1059FC005A2BEBD3D9F800309B070CD4D9F80030D4
:105A0C009B075CBFD9F800305FEA837303D4D9F8E5
:105A1C0000309B07EED5C9F80400D9F80000C00788
:105A2C000CD1D9F80000C00704BFD9F800005FEA18
:105A3C00C07003D1D9F80000C007EED0D9F800002F
:105A4C0000060CD5D9F80000000644BFD9F80000B8
:105A5C005FEA006003D5D9F800000006EED4D9F84F
:105A6C000400D8F80000D8F800301B1A592B3FF668
:105A7C003CAFD8F800301B1A592B9EBFD8F8003019
:105A8C001B1A592B3FF631AFD8F800301B1A5A2B82
:105A9C00E9D32AE7DDF808904FF6FF7418201F2190
:105AAC0001224FF481730094FCF72DF84846FEF761
:105ABC0019FA4DF6DC5059F80000FEF74CF948463F
:105ACC000DB0BDE8000FBDE8F040FFF7E7B840F2BD
