:020000040800F2
:1000000000000320AD010008B5FC00086F180108CE
:10001000B5FC0008B5FC0008B5FC000800000000B5
:10002000000000000000000000000000B5FC000817
:10003000B5FC000800000000B5FC0008B5FC000895
:10004000B5FC0008B5FC0008B5FC0008B5FC0008CC
:10005000B5FC0008B5FC0008B5FC0008B5FC0008BC
:10006000B5FC0008B5FC0008B5FC0008B5FC0008AC
:10007000B5FC0008B5FC0008B5FC0008B5FC00089C
:10008000B5FC0008B5FC0008B5FC0008B5FC00088C
:10009000B5FC0008B5FC0008B5FC0008B5FC00087C
:1000A000B5FC0008B5FC0008B5FC0008B5FC00086C
:1000B000B5FC0008B5FC0008B5FC0008B5FC00085C
:1000C000B5FC0008B5FC0008B5FC0008B5FC00084C
:1000D000B5FC0008B5FC0008B5FC0008B5FC00083C
:1000E000B5FC0008B5FC0008B5FC0008B5FC00082C
:1000F000B5FC0008B5FC0008B5FC0008B5FC00081C
:10010000B5FC0008B5FC0008B5FC0008B5FC00080B
:10011000B5FC0008B5FC0008B5FC0008B5FC0008FB
:10012000B5FC0008B5FC0008B5FC0008B5FC0008EB
:10013000B5FC0008B5FC0008B5FC0008B5FC0008DB
:10014000B5FC0008B5FC0008B5FC0008B5FC0008CB
:10015000B5FC0008B5FC0008B5FC0008B5FC0008BB
:10016000B5FC0008B5FC0008B5FC0008B5FC0008AB
:10017000B5FC0008B5FC0008B5FC0008B5FC00089B
:10018000B5FC0008B5FC0008B5FC0008B5FC00088B
:10019000B5FC0008B5FC0008B5FC0008B5FC00087B
:0C01A000B5FC0008B5FC0008B5FC000828
:1001AC000FF083FD0E480F490022814201D004C09C
:1001BC00FBE70D480D490E4A814202D008CA08C01F
:1001CC00FAE70C484FF47001026842EA010202603F
:1001DC00BFF34F8FBFF36F8F04F0FCF800DE00000D
:1001EC00000000200400002000000020000000207F
:1001FC00B832010888ED00E0CAB101EB020C44F6FC
:10020C000002C4F2000203E00131536061450ED0DC
:10021C000B7810680006F7D4106800065CBF1068F5
:10022C005FEA0060F0D410680006F2D5ECE700201D
:10023C00704780B56F46A2B00A46C969CB0616D482
:10024C00890621D4017864294CD329204843030B17
:10025C006FF0630013FB001042F65B71C0F60101F6
:10026C00C0B231F81000ADF8090000203EE0007873
:10027C0000F00F0101F157030A2938BF01F13003D7
:10028C008DF8873057210BE0007800F00F0101F159
:10029C0037030A2938BF01F1300337218DF8873035
:1002AC0001EB10110309A02838BF03F1300110280D
:1002BC0038BF00218DF886104FF0020138BF0121A4
:1002CC00009102A9102801F17E03104638BF01F1FC
:1002DC007F0342F65971C0F6010102220EF0FEFBBB
:1002EC0022B080BD0A2906D202200B4643F0300111
:1002FC0002AB195408E042F65B70C0F6010030F80E
:10030C001100ADF80900012080F00301009102A951
:10031C000B181046012100220EF0E0FB22B080BD2C
:10032C00F0B503AF2DE9000F8DB006680C463078A0
:10033C0080B1D4E905B941F69601D9F80C50C0F654
:10034C00010104225846A84790B101200DB0BDE828
:10035C00000FF0BD41F6A601D4E90502D368C0F642
:10036C00010104220DB0BDE8000FBDE8F0401847B4
:10037C00D4F81CA006F101085FEA4A7015D442F6C5
:10038C0055715846C0F601010122A84701460120CB
:10039C000029DBD140462146FFF74BFF002846D011
:1003AC0001200DB0BDE8000FF0BD42F65671584665
:1003BC00C0F601010222A847014601200029C5D13F
:1003CC0004F10806A7F1410142F6307507F8410C1B
:1003DC004CCE6846C0F60105CDE90191D4E900C1C7
:1003EC00099006A8CDE904C104A90A9594F82050F7
:1003FC004CC04046CDF800B0CDF82CA08DF8305054
:10040C00FFF717FF20B101200DB0BDE8000FF0BDC4
:10041C00DDE909010222CB6842F65071C0F60101F8
:10042C00984720B101200DB0BDE8000FF0BDD4E914
:10043C0005010122CB6842F60071C0F60101984714
:10044C000DB0BDE8000FF0BD0B46D0E90012184608
:10045C000EF06ABCF0B503AF2DE9000FA3B08946CE
:10046C00C969CA064ED4890600F18A80016842F235
:10047C0010704FF69C7E814242F65B70C0F6010014
:10048C00C0F0D68041F259784EF2FF040DF10C0BFE
:10049C00CDF808900022CDF2B7184DF6F00941F2D4
:1004AC007B4AC0F2F554A1FB08350BEB020C043A65
:1004BC00A1424FEA553303FB09151946AEB24FEA78
:1004CC00960606FB0AF64FEA564606FB0E5530F822
:1004DC001660ACF80660ADB230F81550ACF80850A8
:1004EC00E1D8DDF808900A321946632900F2A4809D
:1004FC000B460A2BC0F0B180911E30F8130003AAF2
:10050C005052AFE003680DF10C0E802481214FF0A6
:10051C005708204603F00F0404F157050A2C38BF86
:10052C0004F130050EEB0104102B04F8025C66D3C9
:10053C00DDB2A02D08EB15164FEA151238BF02F1EB
:10054C0030061D0A04F8036C5CD005F00F02043968
:10055C0002F157050A2A38BF02F1300504F8045C91
:10056C001D0B52D005F00F0202F157050A2A38BFB5
:10057C0002F1300504F8055C041F1B0CC9D13CE0EA
:10058C0003680DF10C0E802481214FF0370C03F021
:10059C000F06204606F137050A2E0EEB010438BF74
:1005AC0006F13005102B04F8025C28D3DEB2A02E25
:1005BC000CEB16154FEA161238BF02F1300504F891
:1005CC00035C1D0A1ED005F00F02043902F1370539
:1005DC000A2A38BF02F1300504F8045C1D0B14D054
:1005EC0005F00F0202F137050A2A38BF02F1300577
:1005FC0004F8055C041F1B0CC9D1033807E08C1EE2
:10060C00481E04E00138CC1E01E002380C4642F6CC
:10061C005971C0F181000EEB04030090C0F601018A
:10062C00484602220EF05AFA23B0BDE8000FF0BD86
:10063C000A2263297FF65CAF8BB241F27B469B08A2
:10064C00023A734303AE5B0C03FB0E1189B230F814
:10065C001110B1520A2BBFF44FAF511E03AA43F035
:10066C0030005054C1F10A00009003A80022431836
:10067C00484601210EF032FA23B0BDE8000FF0BD60
:10068C0081B0002080290090684602D200F1010C54
:10069C0037E0B1F5006F0BD202220B4662F39F13C9
:1006AC00C02200F1020C8DF8013042EA911128E0D1
:1006BC00B1F5803F10D202220B4662F39F138DF8E6
:1006CC0002308B0900F1030C62F39F13E0228DF8CA
:1006DC00013042EA113114E002220B4662F39F13FF
:1006EC008DF803308B0900F1040C62F39F138DF825
:1006FC0002300B0B62F39F13F0228DF8013042EAAB
:10070C00914144F600028DF800106946C4F20002D3
:10071C0003E00131536061450ED00B781068000680
:10072C00F7D4106800065CBF10685FEA0060F0D474
:10073C0010680006F2D5ECE7002001B07047F0B568
:10074C0003AF4DF8048D82B08046002080290190C3
:10075C0003D201248DF8041033E0B1F5006F09D2F7
:10076C000224084664F39F108DF80500C02040EA6F
:10077C00911024E002200A4660F39F12B1F5803FED
:10078C000DD28DF806208A0960F39F12E02040EA12
:10079C0011308DF805208DF80400032411E08DF83C
:1007AC0007208A0960F39F128DF806200A0B042497
:1007BC0060F39F12F02040EA91408DF805208DF8EF
:1007CC000400D8E90156B54215D309D0D8F8000079
:1007DC0001A9AA1B3044A24228BF224610F034FCC7
:1007EC003019854238BF2846C8F80800002002B0EE
:1007FC005DF8048BF0BD304629460FF0E0F90A464F
:10080C0041F6D401C0F601010EF00BBE0A4641F6CA
:10081C00BC01C0F601010EF004BEC00708BF704752
:10082C000FF0C7BFD1E9050241F67001D368C0F6DD
:10083C00010105221847B0B502AF84B0044604305C
:10084C000D460190D1E905010922CB6841F67501ED
:10085C00C0F6010198478DF80C0040F26140002170
:10086C00C0F600008DF80D1041F67E01009002A834
:10087C00C0F601010B22234602950EF0AEFF40F2AA
:10088C002D3101ABC0F600010922009141F689011E
:10089C00C0F601010EF0A1FF9DF80D209DF80C1083
:1008AC00012A42EA010008BF5FEAC17103D000F0DF
:1008BC00010004B0B0BD0298017F49070CD4D0E907
:1008CC0005010222CB6842F65371C0F6010198472C
:1008DC0000F0010004B0B0BDD0E905010122CB68E5
:1008EC0042F65271C0F60101984700F0010004B0C5
:1008FC00B0BDD1E9050241F6EC01D368C0F60101A7
:10090C000D221847F0B503AF2DE9000F83B0BC687A
:10091C009A469046D4E902B52B465A4600F0EEF8BA
:10092C00A8F120000BF107016843C9080191484365
:10093C0061688142C0F0DE80002D18BFBBF1000F52
:10094C000AD140F618404FF48041C4F20200016015
:10095C0003B0BDE8000FF0BD22682426091A00235D
:10096C0002EB000943F20802C4F20006C4F20102D1
:10097C004FF00708009504E0029B009D0133AB4249
:10098C00DFD001980025029303FB00FE02E0013545
:10099C005D45F1D00EEBD500884280F0AD8019F8A2
:1009AC00000028EA0503D6F800C0D84000F001008A
:1009BC00404200EA0A003368A3EB0C03592B0ED813
:1009CC003368A3EB0C03592B9EBF3368A3EB0C03CA
:1009DC00592B04D83368A3EB0C035A2BEBD31368B5
:1009EC009B0709D413689B075CBF13685FEA83738A
:1009FC0002D413689B07F2D583B21B0A53601368A9
:100A0C00DB0709D11368DB0704BF13685FEAC37304
:100A1C0002D11368DB07F2D013681B0609D51368E3
:100A2C001B0644BF13685FEA036302D513681B06F9
:100A3C00F2D4536833683468E41A592C0BD83468F0
:100A4C00E41A592C9EBF3468E41A592C03D8346824
:100A5C00E41A5A2CEFD333683468E41A592C0BD8A7
:100A6C003468E41A592C9EBF3468E41A592C03D804
:100A7C003468E41A5A2CEFD313689B0709D4136813
:100A8C009B075CBF13685FEA837302D413689B07F0
:100A9C00F2D5C0B250601068C00709D11068C00709
:100AAC0004BF10685FEAC07002D11068C007F2D0B2
:100ABC001068000609D51068000644BF10685FEA8C
:100ACC00006002D510680006F2D4506830683368B4
:100ADC001B1A592B3FF65BAF33681B1A592B9EBF61
:100AEC0033681B1A592B3FF652AF33681B1A5A2B1B
:100AFC00EDD34CE70FF063F80DF071FFF0B503AFD9
:100B0C004DF8048D40F6184C4FF00056C4F2020C10
:100B1C0040F2240ECCF800684FF08046CCF8006010
:100B2C00C4F2000EDEF80060A1F10108441EDEF8EC
:100B3C000050AD1B592D0ED8DEF80050AD1B592DB1
:100B4C009EBFDEF80050AD1B592D04D8DEF80050C6
:100B5C00AD1B5A2DEBD3144443F20802C4F201022C
:100B6C001568AD0709D41568AD075CBF15685FEA59
:100B7C00857502D41568AD07F2D52A255560156820
:100B8C00ED0709D11568ED0704BF15685FEAC57557
:100B9C0002D11568ED07F2D015682D0609D5156838
:100BAC002D0644BF15685FEA056502D515682D064C
:100BBC00F2D45568DEF80060DEF80050AD1B592DFC
:100BCC000ED8DEF80050AD1B592D9EBFDEF800503C
:100BDC00AD1B592D04D8DEF80050AD1B5A2DEBD3AC
:100BEC004FF48045CCF800504FF40055CCF8005829
:100BFC004FF08045CCF80050DEF80060DEF8005075
:100C0C00AD1B592D0ED8DEF80050AD1B592D9EBFD3
:100C1C00DEF80050AD1B592D04D8DEF80050AD1B8A
:100C2C005A2DEBD343441568AD0709D41568AD07AD
:100C3C005CBF15685FEA857502D41568AD07F2D5FF
:100C4C00002555601568ED0709D11568ED0704BF3F
:100C5C0015685FEAC57502D11568ED07F2D0156805
:100C6C002D0609D515682D0644BF15685FEA056584
:100C7C0002D515682D06F2D45568DEF80050DEF862
:100C8C000060761B592E0ED8DEF80060761B592EAC
:100C9C009EBFDEF80060761B592E04D8DEF800608B
:100CAC00761B5A2EEBD3DEF80050DEF80060761B74
:100CBC00592E0ED8DEF80060761B592E9EBFDEF83A
:100CCC000060761B592E04D8DEF80060761B5A2E75
:100CDC00EBD31568AD0709D41568AD075CBF156873
:100CEC005FEA857502D41568AD07F2D5C0F3072508
:100CFC0055601568ED0709D11568ED0704BF156837
:100D0C005FEAC57502D11568ED07F2D015682D069E
:100D1C0009D515682D0644BF15685FEA056502D52F
:100D2C0015682D06F2D45568DEF80050DEF8006028
:100D3C00761B592E0ED8DEF80060761B592E9EBFFE
:100D4C00DEF80060761B592E04D8DEF80060761BA6
:100D5C005A2EEBD34FF48045CCF800504FF400558D
:100D6C00CCF800584FF08045CCF80050DEF800501D
:100D7C00DEF80060761B592E0ED8DEF80060761B6C
:100D8C00592E9EBFDEF80060761B592E04D8DEF873
:100D9C000060761B5A2EEBD31568AD0709D4156885
:100DAC00AD075CBF15685FEA857502D41568AD07A1
:100DBC00F2D5002555601568ED0709D11568ED07CA
:100DCC0004BF15685FEAC57502D11568ED07F2D04E
:100DDC0015682D0609D515682D0644BF15685FEA00
:100DEC00056502D515682D06F2D45568DEF800505D
:100DFC00DEF80060761B592E0ED8DEF80060761BEC
:100E0C00592E9EBFDEF80060761B592E04D8DEF8F2
:100E1C000060761B5A2EEBD3DEF80050DEF8006033
:100E2C00761B592E0ED8DEF80060761B592E9EBF0D
:100E3C00DEF80060761B592E04D8DEF80060761BB5
:100E4C005A2EEBD31568AD0709D41568AD075CBFF6
:100E5C0015685FEA857502D41568AD07F2D5C0B286
:100E6C0050601068C00709D11068C00704BF106833
:100E7C005FEAC07002D11068C007F2D0106800069B
:100E8C0009D51068000644BF10685FEA006002D5FF
:100E9C0010680006F2D45068DEF80000DEF800504E
:100EAC002D1A592D0ED8DEF800502D1A592D9EBF33
:100EBC00DEF800502D1A592D04D8DEF800502D1AEA
:100ECC005A2DEBD34FF48040CCF800004FF4005077
:100EDC00CCF800084FF08040CCF80000DEF80000A1
:100EEC00DEF800502D1A592D0ED8DEF800502D1AB0
:100EFC00592D9EBFDEF800502D1A592D04D8DEF85E
:100F0C0000502D1A5A2DEBD31068800709D41068A5
:100F1C0080075CBF10685FEA807002D4106880079D
:100F2C00F2D5002050601068C00709D11068C007C6
:100F3C0004BF10685FEAC07002D11068C007F2D01D
:100F4C001068000609D51068000644BF10685FEAF7
:100F5C00006002D510680006F2D45068DEF800007C
:100F6C00DEF800502D1A592D0ED8DEF800502D1A2F
:100F7C00592D9EBFDEF800502D1A592D04D8DEF8DD
:100F8C0000502D1A5A2DEBD3DEF80000DEF800507D
:100F9C002D1A592D0ED8DEF800502D1A592D9EBF42
:100FAC00DEF800502D1A592D04D8DEF800502D1AF9
:100FBC005A2DEBD31068800709D4106880075CBFEA
:100FCC0010685FEA807002D410688007F2D5C4F311
:100FDC00072050601068C00709D11068C00704BF13
:100FEC0010685FEAC07002D11068C007F2D01068B8
:100FFC00000609D51068000644BF10685FEA00605F
:10100C0002D510680006F2D45068DEF80000DEF855
:10101C0000502D1A592D0ED8DEF800502D1A592DCE
:10102C009EBFDEF800502D1A592D04D8DEF8005062
:10103C002D1A5A2DEBD34FF48040CCF800004FF40E
:10104C000050CCF800084FF08040CCF80000DEF8DF
:10105C000000DEF800502D1A592D0ED8DEF8005085
:10106C002D1A592D9EBFDEF800502D1A592D04D87B
:10107C00DEF800502D1A5A2DEBD31068800709D4D6
:10108C00106880075CBF10685FEA807002D410683B
:10109C008007F2D5002050601068C00709D1106895
:1010AC00C00704BF10685FEAC07002D11068C007A7
:1010BC00F2D01068000609D51068000644BF10680D
:1010CC005FEA006002D510680006F2D45068DEF8C2
:1010DC000000DEF800502D1A592D0ED8DEF8005005
:1010EC002D1A592D9EBFDEF800502D1A592D04D8FB
:1010FC00DEF800502D1A5A2DEBD3DEF80000DEF886
:10110C0000502D1A592D0ED8DEF800502D1A592DDD
:10111C009EBFDEF800502D1A592D04D8DEF8005071
:10112C002D1A5A2DEBD31068800709D4106880074C
:10113C005CBF10685FEA807002D410688007F2D53B
:10114C00E0B250601068C00709D11068C00704BF36
:10115C0010685FEAC07002D11068C007F2D0106846
:10116C00000609D51068000644BF10685FEA0060ED
:10117C0002D510680006F2D45068DEF80000DEF8E4
:10118C000040241A592C0ED8DEF80040241A592C91
:10119C009EBFDEF80040241A592C04D8DEF800401B
:1011AC00241A5A2CEBD34FF48040CCF800004FF0AB
:1011BC000050CCF800084FF08040CCF80000DEF86E
:1011CC000000DEF80040241A592C0ED8DEF800403E
:1011DC00241A592C9EBFDEF80040241A592C04D82E
:1011EC00DEF80040241A5A2CEBD31068800709D47F
:1011FC00106880075CBF10685FEA807002D41068CA
:10120C008007F2D52B2050601068C00709D11068F8
:10121C00C00704BF10685FEAC07002D11068C00735
:10122C00F2D01068000609D51068000644BF10689B
:10123C005FEA006002D510680006F2D45068DEF850
:10124C000000DEF80040241A592C0ED8DEF80040BD
:10125C00241A592C9EBFDEF80040241A592C04D8AD
:10126C00DEF80040241A5A2CEBD34FF48040CCF813
:10127C0000004FF40050CCF800084FF08040CCF840
:10128C000000DEF80000DEF80040241A592C0ED8BD
:10129C00DEF80040241A592C9EBFDEF80040241AB8
:1012AC00592C04D8DEF80040241A5A2CEBD31068C1
:1012BC00800709D4106880075CBF10685FEA8070F3
:1012CC0002D410688007F2D5002050601068C00767
:1012DC0009D11068C00704BF10685FEAC07002D162
:1012EC001068C007F2D01068000609D51068000617
:1012FC0044BF10685FEA006002D510680006F2D4A3
:10130C005068DEF80000DEF80040241A592C0ED884
:10131C00DEF80040241A592C9EBFDEF80040241A37
:10132C00592C04D8DEF80040241A5A2CEBD3DEF8E2
:10133C000000DEF80040241A592C0ED8DEF80040CC
:10134C00241A592C9EBFDEF80040241A592C04D8BC
:10135C00DEF80040241A5A2CEBD31068800709D40D
:10136C00106880075CBF10685FEA807002D4106858
:10137C008007F2D5C1F3072050601068C00709D16F
:10138C001068C00704BF10685FEAC07002D1106813
:10139C00C007F2D01068000609D51068000644BFDB
:1013AC0010685FEA006002D510680006F2D450683D
:1013BC00DEF80000DEF80040241A592C0ED8DEF8B6
:1013CC000040241A592C9EBFDEF80040241A592CD8
:1013DC0004D8DEF80040241A5A2CEBD34FF480408A
:1013EC00CCF800004FF40050CCF800084FF08040CF
:1013FC00CCF80000DEF80000DEF80040241A592C6E
:10140C000ED8DEF80040241A592C9EBFDEF800409E
:10141C00241A592C04D8DEF80040241A5A2CEBD389
:10142C001068800709D4106880075CBF10685FEAF9
:10143C00807002D410688007F2D5002050601068CC
:10144C00C00709D11068C00704BF10685FEAC070FC
:10145C0002D11068C007F2D01068000609D51068D8
:10146C00000644BF10685FEA006002D510680006F1
:10147C00F2D45068DEF80000DEF80040241A592C33
:10148C000ED8DEF80040241A592C9EBFDEF800401E
:10149C00241A592C04D8DEF80040241A5A2CEBD309
:1014AC00DEF80000DEF80040241A592C0ED8DEF8C5
:1014BC000040241A592C9EBFDEF80040241A592CE7
:1014CC0004D8DEF80040241A5A2CEBD3106880079D
:1014DC0009D4106880075CBF10685FEA807002D482
:1014EC0010688007F2D5C8B250601068C00709D1E7
:1014FC001068C00704BF10685FEAC07002D11068A2
:10150C00C007F2D01068000609D51068000644BF69
:10151C0010685FEA006002D510680006F2D45068CB
:10152C00DEF80000DEF80010091A59290ED8DEF892
:10153C000010091A59299EBFDEF80010091A592902
:10154C0004D8DEF80010091A5A29EBD34FF4804066
:10155C00CCF800004FF40050CCF800084FF080405D
:10156C00CCF80000DEF80000DEF80010091A59294A
:10157C000ED8DEF80010091A59299EBFDEF80010AB
:10158C00091A592904D8DEF80010091A5A29EBD384
:10159C001068800709D4106880075CBF10685FEA88
:1015AC00807002D410688007F2D50020506010685B
:1015BC00C00709D11068C00704BF10685FEAC0708B
:1015CC0002D11068C007F2D01068000609D5106867
:1015DC00000644BF10685FEA006002D51068000680
:1015EC00F2D45068DEF80000DEF80010091A592910
:1015FC000ED8DEF80010091A59299EBFDEF800102B
:10160C00091A592904D8DEF80010091A5A29EBD303
:10161C00DEF80000DEF80010091A59290ED8DEF8A1
:10162C000010091A59299EBFDEF80010091A592911
:10163C0004D8DEF80010091A5A29EBD31068800779
:10164C0009D4106880075CBF10685FEA807002D410
:10165C0010688007F2D5C3F3072050601068C007EC
:10166C0009D11068C00704BF10685FEAC07002D1CE
:10167C001068C007F2D01068000609D51068000683
:10168C0044BF10685FEA006002D510680006F2D40F
:10169C005068DEF80000DEF80010091A59290ED83F
:1016AC00DEF80010091A59299EBFDEF80010091A3D
:1016BC00592904D8DEF80010091A5A29EBD34FF433
:1016CC008040CCF800004FF40050CCF800084FF0EC
:1016DC008040CCF80000DEF80000DEF80010091A9B
:1016EC0059290ED8DEF80010091A59299EBFDEF8C8
:1016FC000010091A592904D8DEF80010091A5A29C1
:10170C00EBD31068800709D4106880075CBF1068A1
:10171C005FEA807002D410688007F2D50020506018
:10172C001068C00709D11068C00704BF10685FEAD1
:10173C00C07002D11068C007F2D01068000609D53D
:10174C001068000644BF10685FEA006002D510689C
:10175C000006F2D45068DEF80000DEF80010091A1A
:10176C0059290ED8DEF80010091A59299EBFDEF847
:10177C000010091A592904D8DEF80010091A5A2940
:10178C00EBD3DEF80000DEF80010091A59290ED848
:10179C00DEF80010091A59299EBFDEF80010091A4C
:1017AC00592904D8DEF80010091A5A29EBD310680D
:1017BC00800709D4106880075CBF10685FEA8070EE
:1017CC0002D410688007F2D5D8B250601068C007F8
:1017DC0009D11068C00704BF10685FEAC07002D15D
:1017EC001068C007F2D01068000609D51068000612
:1017FC0044BF10685FEA006002D510680006F2D49E
:10180C005068DEF80000DEF80010091A59290ED8CD
:10181C00DEF80010091A59299EBFDEF80010091ACB
:10182C00592904D8DEF80010091A5A29EBD34FF4C1
:10183C008040CCF800004FF00050CCF800084FF07E
:10184C008040CCF80000DEF80000DEF80010091A29
:10185C0059290ED8DEF80010091A59299EBFDEF856
:10186C000010091A592904D8DEF80010091A5A294F
:10187C00EBD31068800709D4106880075CBF106830
:10188C005FEA807002D410688007F2D52C2050607B
:10189C001068C00709D11068C00704BF10685FEA60
:1018AC00C07002D11068C007F2D01068000609D5CC
:1018BC001068000644BF10685FEA006002D510682B
:1018CC000006F2D45068DEF80000DEF80010091AA9
:1018DC0059290ED8DEF80010091A59299EBFDEF8D6
:1018EC000010091A592904D8DEF80010091A5A29CF
:1018FC00EBD34FF48040CCF800004FF40050CCF800
:10190C0000084FF08040CCF800005DF8048BF0BD6F
:10191C00B0B502AF1C461546FFF7F0F804FB05F016
:10192C00002800F0AA80BA68242343F20805C4F208
:10193C000003C4F2010591B2D2B24FEA112C02E0BD
:10194C00013800F09A801C681968091B59290BD8BA
:10195C001968091B59299EBF1968091B592903D8F5
:10196C001968091B5A29EFD32968890709D42968F2
:10197C0089075CBF29685FEA817102D429688907ED
:10198C00F2D5C5F804C02968C90709D12968C90767
:10199C0004BF29685FEAC17102D12968C907F2D076
:1019AC002968090609D52968090644BF29685FEA30
:1019BC00016102D529680906F2D469681C681968A6
:1019CC00091B59290BD81968091B59299EBF19687D
:1019DC00091B592903D81968091B5A29EFD31C680C
:1019EC001968091B59290BD81968091B59299EBF5D
:1019FC001968091B592903D81968091B5A29EFD3EF
:101A0C002968890709D4296889075CBF29685FEAB6
:101A1C00817102D429688907F2D56A602968C907DF
:101A2C0009D12968C90704BF29685FEAC17102D1CD
:101A3C002968C907F2D02968090609D52968090659
:101A4C0044BF29685FEA016102D529680906F2D40E
:101A5C0069681C681968091B59293FF671AF196828
:101A6C00091B59299EBF1968091B59293FF668AFF4
:101A7C001968091B5A29EDD362E740F618404FF458
:101A8C008041C4F202000160B0BDF0B503AF2DE996
:101A9C00000B82B004460E464FF000090A20214686
:101AAC0064220123CDF80090FFF732FF651CA6F1EC
:101ABC0002080A20012229464346CDF80090FFF780
:101ACC0027FF6D20294601224346CDF80090FFF7F1
:101ADC001FFF30196422411E0A200123CDF800900B
:101AEC00FFF716FF4FF6FF790B20294662220123E0
:101AFC00CDF80090FFF70CFF351FA61C0B20012220
:101B0C0031462B46CDF80090FFF702FF6C20314692
:101B1C0001222B46CDF80090FFF7FAFE08EB0401EA
:101B2C000B2062220123CDF80090FFF7F1FE02B0EA
:101B3C00BDE8000BF0BDF0B503AF2DE9000F83B08D
:101B4C00D0F8389042F23C388246282001EB020B48
:101B5C000C4600EB09150726C0F60108029213E0AB
:101B6C0043EA8112841CCDF80080B52A08BFC1223B
:101B7C00304629464FF6FF73202A38BF7F22FEF7E6
:101B8C00C1FE08365C4523D0204614F9011BB1F187
:101B9C00FF3FCAB2E7DC437802F01F01E02A03F0F2
:101BAC003F03DDD38478F02A04F03F0444EA831326
:101BBC000AD3C27801F00701041D02F03F0242EA89
:101BCC00831242EA8142CEE743EA0132C41CCAE7DF
:101BDC00B9F10F0F9FBF0AEB0900029980F83C1076
:101BEC00DAF838009FBF0130CAF8380003B0BDE8FE
:101BFC00000F98BFF0BD484610210CF0F0FEF0B578
:101C0C0003AF2DE9000F81B042F6B41B8D1892463C
:101C1C00894680460726C0F6010B0C4613E043EAC2
:101C2C008112841CCDF800B0B52A08BFC122304601
:101C3C0007214FF6FF73202A38BF7F22FEF762FE82
:101C4C000836AC4223D0204614F9011BB1F1FF3FFA
:101C5C00CAB2E7DC437802F01F01E02A03F03F032D
:101C6C00DDD38478F02A04F03F0444EA83130AD3CA
:101C7C00C27801F00701041D02F03F0242EA831210
:101C8C0042EA8142CEE743EA0132C41CCAE7D8F8E3
:101C9C001000A0EB0A01002909DD0020CA00009009
:101CAC004FEACA00073007211023FFF731FEC8E9BD
:101CBC00039A01B0BDE8000FF0BDD4D4B0B502AFAB
:101CCC0082B00446C8B2DFE810F00C00AD00620030
:101CDC007B003000C600DF00940011014900F800C1
:101CEC001700002040F229110090204610221023EA
:101CFC00FFF70EFE02B0B0BD42F23C352046C0F6F6
:101D0C00010540F2291191224FF6FF730095FEF761
:101D1C00F9FD009504F1080040F2291192224FF6CA
:101D2C00FF73FEF7EFFD02B0B0BD42F23C3520462A
:101D3C00C0F6010540F229119D224FF6FF73009564
:101D4C00FEF7E0FD009504F1080040F229119E22F7
:101D5C004FF6FF73FEF7D6FD02B0B0BD42F23C3534
:101D6C002046C0F6010540F2291195224FF6FF736B
:101D7C000095FEF7C7FD009504F1080040F229110B
:101D8C0096224FF6FF73FEF7BDFD02B0B0BD42F2D6
:101D9C003C352046C0F6010540F22911A9224FF628
:101DAC00FF730095FEF7AEFD009504F1080040F2BC
:101DBC002911AA224FF6FF73FEF7A4FD02B0B0BDA5
:101DCC0042F23C352046C0F6010540F2291187222B
:101DDC004FF6FF730095FEF795FD009504F1080092
:101DEC0040F2291188224FF6FF73FEF78BFD02B0EB
:101DFC00B0BD42F23C352046C0F6010540F2291137
:101E0C008F224FF6FF730095FEF77CFD009504F1D1
:101E1C00080040F2291190224FF6FF73FEF772FD75
:101E2C0002B0B0BD42F23C352046C0F6010540F28E
:101E3C0029119B224FF6FF730095FEF763FD04F109
:101E4C00080040F229119C2200954FF6FF73FEF713
:101E5C0059FD02B0B0BD42F23C352046C0F601053A
:101E6C0040F2291197224FF6FF730095FEF74AFDB9
:101E7C00009504F1080040F2291198224FF6FF73E7
:101E8C00FEF740FD02B0B0BD42F23C352046C0F634
:101E9C00010540F22911A7224FF6FF730095FEF7BA
:101EAC0031FD009504F1080040F22911A8224FF6EB
:101EBC00FF73FEF727FD02B0B0BD42F23C35204661
:101ECC00C0F6010540F22911B7224FF6FF730095B9
:101EDC00FEF718FD009504F1080040F22911B82214
:101EEC004FF6FF73FEF70EFD02B0B0BD42F23C356B
:101EFC002046C0F6010540F22911AF224FF6FF73C0
:101F0C000095FEF7FFFC009504F1080040F2291142
:101F1C00B0224FF6FF73FEF7F5FC02B0B0BDF0B582
:101F2C0003AF4DF8048D8468002C55D046680D46DF
:101F3C00804609783078814202D0EF20FFF7BEFE50
:101F4C00012C4DD06978707881421CBF4FF487709A
:101F5C00FFF7B4FE022C47D0A978B07881421CBFA1
:101F6C0040F22D10FFF7AAFE032C41D0E978F0784F
:101F7C0081421CBF4FF4A670FFF7A0FE042C3BD08F
:101F8C002979307981421CBF40F26B10FFF796FE25
:101F9C00052C35D06979707981421CBF4FF4C5701E
:101FAC00FFF78CFE062C2FD0A979B07981421CBF8B
:101FBC0040F2A910FFF782FE072C29D0E979F079BD
:101FCC0081421CBF4FF4E470FFF778FE0820C8E98B
:101FDC0001505DF8048BF0BD002021460CF0FFFC95
:101FEC00012021460CF0FBFC022021460CF0F7FCF2
:101FFC00032021460CF0F3FC042021460CF0EFFCEE
:10200C00052021460CF0EBFC062021460CF0E7FCE9
:10201C00072021460CF0E3FCF0B503AF2DE9000FCF
:10202C0091B04EF6BC220646805CB3180996CDE9F9
:10203C000731DFE810F06403AA030D000800080064
:10204C00080008009900304601F0A4FA00F05BBCCF
:10205C0000242C202E21202210230094FFF758FC62
:10206C000A202921642202230094FFF751FC0A2044
:10207C002B21022216230094FFF74AFC6C202B2103
:10208C00022216230094FFF743FC0A20412164220C
:10209C0002230094FFF73CFC30205221182210231D
:1020AC000094FFF735FC0A204D2164220223009492
:1020BC00FFF72EFC0A204F21022216230094FFF773
:1020CC0027FC6C204F21022216230094FFF720FCE2
:1020DC000A206521642202230094FFF719FC3020AA
:1020EC007621182210230094FFF712FC0A2071218C
:1020FC00642202230094FFF70BFC0A2073210222B6
:10210C0016230094FFF704FC6C2073210222162383
:10211C000094FFF7FDFB0A2089216422022300941E
:10212C00FFF7F6FB20209A21382210230094FFF7AA
:10213C00EFFB0A209521642202230094FFF7E8FBB1
:10214C000A209721022216230094FFF7E1FB6C2052
:10215C009721022216230094FFF7DAFB00940A2041
:10216C00AD21642202230DE3242643F2080540F638
:10217C00184B0024C4F20006C4F20105C4F2020B91
:10218C004FF480494FF0000807E008F10108CBF844
:10219C000090B8F1080F00F05281C8EBC80A182063
:1021AC003021102200EBCA001023FEF7A7FC4FEAE7
:1021BC00CA004FF4807102E0013900F09980326856
:1021CC0033689B1A592B0BD833689B1A592B9EBF1B
:1021DC0033689B1A592B03D833689B1A5A2BEFD3AD
:1021EC002A68920709D42A6892075CBF2A685FEABA
:1021FC00827202D42A689207F2D56C602A68D207E0
:10220C0009D12A68D20704BF2A685FEAC27202D1D8
:10221C002A68D207F2D02A68120609D52A68120653
:10222C0044BF2A685FEA026202D52A681206F2D419
:10223C006A68326833689B1A592B0BD833689B1A1F
:10224C00592B9EBF33689B1A592B03D833689B1AA2
:10225C005A2BEFD3326833689B1A592B0BD833683F
:10226C009B1A592B9EBF33689B1A592B03D8336882
:10227C009B1A5A2BEFD32A68920709D42A68920723
:10228C005CBF2A685FEA827202D42A689207F2D590
:10229C006C602A68D20709D12A68D20704BF2A6861
:1022AC005FEAC27202D12A68D207F2D02A681206FB
:1022BC0009D52A68120644BF2A685FEA026202D571
:1022CC002A681206F2D46A68326833689B1A592B52
:1022DC003FF672AF33689B1A592B9EBF33689B1A1B
:1022EC00592B3FF669AF33689B1A5A2BEDD363E732
:1022FC002D30312110221023CBF80090FEF7FEFB7D
:10230C004FF4807002E001383FF43FAF316832681F
:10231C00521A592A0BD83268521A592A9EBF32685F
:10232C00521A592A03D83268521A5A2AEFD32968FA
:10233C00890709D4296889075CBF29685FEA81711C
:10234C0002D429688907F2D56C602968C90709D1BC
:10235C002968C90704BF29685FEAC17102D12968DD
:10236C00C907F2D02968090609D52968090644BFAE
:10237C0029685FEA016102D529680906F2D4696807
:10238C0031683268521A592A0BD83268521A592AB3
:10239C009EBF3268521A592A03D83268521A5A2AE6
:1023AC00EFD331683268521A592A0BD83268521A54
:1023BC00592A9EBF3268521A592A03D83268521AC7
:1023CC005A2AEFD32968890709D4296889075CBF81
:1023DC0029685FEA817102D429688907F2D56C609B
:1023EC002968C90709D12968C90704BF29685FEAA8
:1023FC00C17102D12968C907F2D02968090609D52B
:10240C002968090644BF29685FEA016102D5296879
:10241C000906F2D4696831683268521A592A3FF6B3
:10242C0072AF3268521A592A9EBF3268521A592A10
:10243C003FF669AF3268521A5A2AEDD363E700248B
:10244C004FF480494FF0000807E008F10108CBF881
:10245C000090B8F1080F00F05682C8EBC80A18209B
:10246C005021102200EBCA001023FEF747FB4FEA65
:10247C00CA004FF4807102E0013900F09980326893
:10248C0033689B1A592B0BD833689B1A592B9EBF58
:10249C0033689B1A592B03D833689B1A5A2BEFD3EA
:1024AC002A68920709D42A6892075CBF2A685FEAF7
:1024BC00827202D42A689207F2D56C602A68D2071D
:1024CC0009D12A68D20704BF2A685FEAC27202D116
:1024DC002A68D207F2D02A68120609D52A68120691
:1024EC0044BF2A685FEA026202D52A681206F2D457
:1024FC006A68326833689B1A592B0BD833689B1A5D
:10250C00592B9EBF33689B1A592B03D833689B1ADF
:10251C005A2BEFD3326833689B1A592B0BD833687C
:10252C009B1A592B9EBF33689B1A592B03D83368BF
:10253C009B1A5A2BEFD32A68920709D42A68920760
:10254C005CBF2A685FEA827202D42A689207F2D5CD
:10255C006C602A68D20709D12A68D20704BF2A689E
:10256C005FEAC27202D12A68D207F2D02A68120638
:10257C0009D52A68120644BF2A685FEA026202D5AE
:10258C002A681206F2D46A68326833689B1A592B8F
:10259C003FF672AF33689B1A592B9EBF33689B1A58
:1025AC00592B3FF669AF33689B1A5A2BEDD363E76F
:1025BC002D30512110221023CBF80090FEF79EFAFB
:1025CC004FF4807002E001383FF43FAF316832685D
:1025DC00521A592A0BD83268521A592A9EBF32689D
:1025EC00521A592A03D83268521A5A2AEFD3296838
:1025FC00890709D4296889075CBF29685FEA81715A
:10260C0002D429688907F2D56C602968C90709D1F9
:10261C002968C90704BF29685FEAC17102D129681A
:10262C00C907F2D02968090609D52968090644BFEB
:10263C0029685FEA016102D529680906F2D4696844
:10264C0031683268521A592A0BD83268521A592AF0
:10265C009EBF3268521A592A03D83268521A5A2A23
:10266C00EFD331683268521A592A0BD83268521A91
:10267C00592A9EBF3268521A592A03D83268521A04
:10268C005A2AEFD32968890709D4296889075CBFBE
:10269C0029685FEA817102D429688907F2D56C60D8
:1026AC002968C90709D12968C90704BF29685FEAE5
:1026BC00C17102D12968C907F2D02968090609D568
:1026CC002968090644BF29685FEA016102D52968B7
:1026DC000906F2D4696831683268521A592A3FF6F1
:1026EC0072AF3268521A592A9EBF3268521A592A4E
:1026FC003FF669AF3268521A5A2AEDD363E7304677
:10270C000021002401F042FC40F2C1100021012202
:10271C001E230094FFF7FCF840F26B1007211022E7
:10272C0010230094FFF7F4F84FF4D170002101222C
:10273C001E230094FFF7ECF84FF4C570072110220C
:10274C0010230094FFF7E4F840F2831000210122DB
:10275C001E230094FFF7DCF840F2A9100721102289
:10276C0010230094FFF7D4F84FF4B270002101222B
:10277C001E230094FFF7CCF84FF4E47007211022CD
:10278C0010230094FFF7C4F8BDE0B46B002C00F0EC
:10279C00B88096F83C000025282110230095C20033
:1027AC000720FFF7B5F8012C00F0AB8096F83D0040
:1027BC00382110230095C2000720FFF7A9F8022C3E
:1027CC0000F09F8096F83E00482110230095C2002F
:1027DC000720FFF79DF8032C00F0938096F83F003C
:1027EC00582110230095C2000720FFF791F8042C04
:1027FC0000F0878096F84000682110230095C200F5
:10280C000720FFF785F8052C7BD096F8410078213E
:10281C0010230095C2000720FFF77AF8062C70D021
:10282C0096F84200882110230095C2000720FFF77C
:10283C006FF8072C65D096F843009821102300956B
:10284C00C2000720FFF764F8082C5AD096F8440011
:10285C00A82110230095C2000720FFF759F8092C76
:10286C004FD096F84500B82110230095C2000720E0
:10287C00FFF74EF80A2C44D096F84600C8211023D6
:10288C000095C2000720FFF743F80B2C39D096F8BF
:10289C004700D82110230095C2000720FFF738F815
:1028AC000C2C2ED096F84800E82110230095C2007D
:1028BC000720FFF72DF80D2C23D096F84900F821AE
:1028CC0010230095C2000720FFF722F80E2C18D019
:1028DC0096F84A004FF4847110230095C20007202B
:1028EC00FFF716F80F2C0CD096F84B004FF48C71A8
:1028FC0010230095C2000720FFF70AF8102C40F0B7
:10290C00B1850020B063DDE907100870C0B2099DE5
:10291C00DFE810F0080031052500B70110006D0547
:10292C008205CC01284611B0BDE8000FBDE8F0408F
:10293C0001F080BC42F6C9412846C0F601010B22C9
:10294C00FFF75DF942F614512846C0F60101042246
:10295C0011B0BDE8000FBDE8F04000F08BBE42F6B0
:10296C00E0612846C0F601011422FFF748F942F64F
:10297C00CC112846C0F60101FFF7D1FA242643F208
:10298C000804A86AC4F20006C4F2010400254FF042
:10299C00070A4FF0010B03902AE040F21F490A206E
:1029AC00642202234FEA8C08CDF80090FEF7B0FFAA
:1029BC0008F12B050A20022216232946CDF8009097
:1029CC00FEF7A6FFCDF8009029466C2002221623B4
:1029DC00049DFEF79DFF08F141010A2064220223A9
:1029EC00CDF80090FEF794FF0135042D00F04581E1
:1029FC0042F6C06005EBC50CC0F60100049500EB77
:102A0C00C5004168002900F02881049842F6C06294
:102A1C00C0F6010252F83000421805922E220346ED
:102A2C0002EB8C0207924FF6FC72CDF818C0C7F679
:102A3C00FF7202EA8101C1F13C0210E040F618403D
:102A4C004FF48041C4F202000160099A089B05987A
:102A5C000832DDF818C08342184600F0FE8013F9E6
:102A6C00011BB1F1FF3FCDB21FDC417805F01F0E09
:102A7C00E02D01F03F0111D38378F02D03F03F03DB
:102A8C0043EA81110ED3C37803F03F0343EA811369
:102A9C000EF0070143EA8145031D06E041EA8E155D
:102AAC00831C02E041EA0E35C31CCDE90832104606
:102ABC00079908221023FEF721F84FF60060B52D78
:102ACC00CFF6FF7008BFC12500EB0510202D38BFD5
:102ADC004FF4BE60B0F5C06F00F2B98442F2B3316E
:102AEC004FF0000EC0F6010101EB000CC0F5C06107
:102AFC0004E00EF1010EBEF1100F9FD0002502E094
:102B0C000135082DF5D00EEBD500884280F0998464
:102B1C001CF800902AEA05023368D6F80080A8EB6E
:102B2C00030059280BD83068C01A59289EBF30684A
:102B3C00C01A592803D83068C01A5A28EDD30BFA9A
:102B4C0002F22068800709D4206880075CBF2068E7
:102B5C005FEA807002D420688007F2D519EA02007F
:102B6C0018BFFF2060602268D20709D12268D20703
:102B7C0004BF22685FEAC27202D12268D207F2D087
:102B8C002268120609D52268120644BF22685FEA41
:102B9C00026202D522681206F2D462683268336887
:102BAC009B1A592B0BD833689B1A592B9EBF336831
:102BBC009B1A592B03D833689B1A5A2BEFD33268C4
:102BCC0033689B1A592B0BD833689B1A592B9EBF11
:102BDC0033689B1A592B03D833689B1A5A2BEFD3A3
:102BEC002268920709D4226892075CBF22685FEAC8
:102BFC00827202D422689207F2D560602068C00706
:102C0C0009D12068C00704BF20685FEAC07002D1F8
:102C1C002068C007F2D02068000609D5206800069D
:102C2C0044BF20685FEA006002D520680006F2D439
:102C3C00606830683268121A592A3FF661AF326800
:102C4C00121A592A9EBF3268121A592A3FF658AFE7
:102C5C003268121A5A2AEDD352E7292000EB8C0164
:102C6C00DDE9030585423FF498AE08461A21FEF7CC
:102C7C000CFF0135042D7FF4BBAE11B0BDE8000F85
:102C8C00F0BD42F6BD412846C0F601010C22FEF70C
:102C9C00B6FF42F634412846C0F60101062211B0B7
:102CAC00BDE8000FBDE8F04000F0E4BC42F6606106
:102CBC000024C0F60101284610226C62FEF79FFF2B
:102CCC0042F6D4112846C0F60101FFF728F9E8694D
:102CDC00242643F208080390686A4FF0010B029017
:102CEC00C4F20006C4F20108312030224FF0070A6A
:102CFC00012100EB44100191079002EB4410069067
:102D0C00E0000025049005E0059D30220135082DDA
:102D1C0000F028830498F6230595C5EBC5092C18FB
:102D2C004CF6CD40CCF6CC40A4FB0001C80842EADE
:102D3C00D10100FB034007F8361C0699082210232A
:102D4C0040F0300007F8350C182000EBC900FDF7F7
:102D5C00D5FE02984FF0FF3541F61C114FEAC90918
:102D6C00A04208BF40F21F450398C0F60101E040A5
:102D7C00C0074FF4256008BF4FF4196008440021C8
:102D8C00A0F5007C099003E00131102900F0C98006
:102D9C00002202E00132082AF6D001EBD2002AEA26
:102DAC0002041CF800300BFA04F430682340346839
:102DBC00241A592C0BD83468241A592C9EBF346809
:102DCC00241A592C03D83468241A5A2CEFD3D8F867
:102DDC00000080070CD4D8F8000080075CBFD8F83E
:102DEC0000005FEA807003D4D8F800008007EED5AD
:102DFC00002B18BF2B4698B2000AC8F80400D8F86C
:102E0C000000C0070CD1D8F80000C00704BFD8F8E8
:102E1C0000005FEAC07003D1D8F80000C007EED004
:102E2C00D8F8000000060CD5D8F80000000644BF06
:102E3C00D8F800005FEA006003D5D8F8000000065F
:102E4C00EED4D8F8040030683468241A592C0BD806
:102E5C003468241A592C9EBF3468241A592C03D870
:102E6C003468241A5A2CEFD330683468241A592C3D
:102E7C000BD83468241A592C9EBF3468241A592C48
:102E8C0003D83468241A5A2CEFD3D8F800008007E2
:102E9C000CD4D8F8000080075CBFD8F800005FEABB
:102EAC00807003D4D8F800008007EED5D8B2C8F8EB
:102EBC000400D8F80000C0070CD1D8F80000C007F7
:102ECC0004BFD8F800005FEAC07003D1D8F8000046
:102EDC00C007EED0D8F8000000060CD5D8F80000DA
:102EEC00000644BFD8F800005FEA006003D5D8F8AC
:102EFC0000000006EED4D8F80400306833681B1AC2
:102F0C00592B3FF647AF33681B1A592B9EBF3368BA
:102F1C001B1A592B3FF63EAF33681B1A5A2BEDD3B5
:102F2C0038E740F618404FF48041C4F20200082202
:102F3C00016009F1200006991023FDF7DFFD0998C7
:102F4C000021A0F5F87C03E00131102900F0C980C4
:102F5C00002202E00132082AF6D001EBD2002AEA64
:102F6C0002041CF800300BFA04F430682340346877
:102F7C00241A592C0BD83468241A592C9EBF346847
:102F8C00241A592C03D83468241A5A2CEFD3D8F8A5
:102F9C00000080070CD4D8F8000080075CBFD8F87C
:102FAC0000005FEA807003D4D8F800008007EED5EB
:102FBC00002B18BF2B4698B2000AC8F80400D8F8AA
:102FCC000000C0070CD1D8F80000C00704BFD8F827
:102FDC0000005FEAC07003D1D8F80000C007EED043
:102FEC00D8F8000000060CD5D8F80000000644BF45
:102FFC00D8F800005FEA006003D5D8F8000000069E
:10300C00EED4D8F8040030683468241A592C0BD844
:10301C003468241A592C9EBF3468241A592C03D8AE
:10302C003468241A5A2CEFD330683468241A592C7B
:10303C000BD83468241A592C9EBF3468241A592C86
:10304C0003D83468241A5A2CEFD3D8F80000800720
:10305C000CD4D8F8000080075CBFD8F800005FEAF9
:10306C00807003D4D8F800008007EED5D8B2C8F829
:10307C000400D8F80000C0070CD1D8F80000C00735
:10308C0004BFD8F800005FEAC07003D1D8F8000084
:10309C00C007EED0D8F8000000060CD5D8F8000018
:1030AC00000644BFD8F800005FEA006003D5D8F8EA
:1030BC0000000006EED4D8F80400306833681B1A00
:1030CC00592B3FF647AF33681B1A592B9EBF3368F9
:1030DC001B1A592B3FF63EAF33681B1A5A2BEDD3F4
:1030EC0038E740F618404FF48041C4F20200022247
:1030FC0001600BA8A7F136010CF059FA0B980028C7
:10310C0040F0A9810D9900293FF4FEAD0C9809F10E
:10311C002D090144089102460EE040F618404FF488
:10312C008041C4F2020009F108090160DDE90802DE
:10313C00824210463FF4E8AD12F9011BB1F1FF3F9A
:10314C00CDB21FDC427805F01F01E02D02F03F02EA
:10315C0011D38378F02D03F03F0343EA82120ED390
:10316C00C37801F0070103F03F0343EA821242EAFD
:10317C008145021D06E042EA8115821C02E042EA0A
:10318C000135C21C09924846079908221023FDF705
:10319C00B5FC4FF60060B52DCFF6FF7008BFC1250A
:1031AC0000EB0510202D38BF4FF4BE60B0F5226F38
:1031BC0000F2498141F61C114FF0000EC0F60101DE
:1031CC0001EB000CC0F5226104E00EF1010EBEF122
:1031DC00100FA2D0002502E00135082DF5D00EEB22
:1031EC00D500884280F02D811CF800002AEA0504E5
:1031FC00326833689B1A592B0BD833689B1A592B9E
:10320C009EBF33689B1A592B03D833689B1A5A2BD1
:10321C00EFD30BFA04F2D8F800309B070CD4D8F893
:10322C0000309B075CBFD8F800305FEA837303D48F
:10323C00D8F800309B07EED5104018BFFF20C8F817
:10324C000400D8F80020D2070CD1D8F80020D207FF
:10325C0004BFD8F800205FEAC27203D1D8F800206E
:10326C00D207EED0D8F8002012060CD5D8F80020E2
:10327C00120644BFD8F800205FEA026203D5D8F8E2
:10328C0000201206EED4D8F80420326833689B1A5A
:10329C00592B0BD833689B1A592B9EBF33689B1A3A
:1032AC00592B03D833689B1A5A2BEFD332683368E7
:1032BC009B1A592B0BD833689B1A592B9EBF33681A
:1032CC009B1A592B03D833689B1A5A2BEFD3D8F877
:1032DC00002092070CD4D8F8002092075CBFD8F8D5
:1032EC0000205FEA827203D4D8F800209207EED552
:1032FC00C8F80400D8F80000C0070CD1D8F80000BA
:10330C00C00704BFD8F800005FEAC07003D1D8F83A
:10331C000000C007EED0D8F8000000060CD5D8F895
:10332C000000000644BFD8F800005FEA006003D537
:10333C00D8F800000006EED4D8F8040030683268E3
:10334C00121A592A3FF648AF3268121A592A9EBFF0
:10335C003268121A592A3FF63FAF3268121A5A2AAB
:10336C00EDD339E7019801240021C0074FF031005B
:10337C007FF4BFAC81E442F6EC112846C0F60101A3
:10338C00FEF7CDFD42F64C412846C0F60101052260
:10339C00FEF735FC42F651412846C0F601011D22CC
:1033AC00FEF7C9FB42F66E412846C0F601013222F7
:1033BC00FEF7C1FBA86B10283FBF2844002180F802
:1033CC003C10A86B3FBF0130A86342F6A041C0F689
:1033DC0001013FBF28461D2211B0BDE8000F3CBFC4
:1033EC00BDE8F040FEF7A7BB10210BF0F8FA42F64F
:1033FC0060512846C0F601010F22FEF700FC42F690
:10340C0088512846C0F60101012211B0BDE8000F19
:10341C00BDE8F04000F02EB942F624512846C0F623
:10342C0001010B22FEF7EBFB42F658512846C0F681
:10343C000101022211B0BDE8000FBDE8F04000F020
:10344C0019B90BF0CCFA4FF422610CF0B8FB4FF425
:10345C00C0610CF0B4FB42F6A0610EA8C0F60101ED
:10346C000CF0A9FB102010210BF0B9FAF0B503AF4A
:10347C002DE9000B82B00B4602468169C06A884276
:10348C007DD208287DD25169DBB251F820100E682C
:10349C007168994278D9024492F83020914276D9D9
:1034AC00316800EB8000357A01EBC30301EBC206F7
:1034BC0074685B6851F832604FF03B0202EBC00855
:1034CC00A3EB04004FEAC4014FEAC0022DB1C1F1D5
:1034DC006C05002A0CDDA81A04E0002A48DD01F175
:1034EC000C000C250021102300914146FEF710FA28
:1034FC00002C40D042F23C393444C0F6010913E0B0
:10350C0043EA8112861CCDF80090B52A08BFC1226F
:10351C00284641464FF6FF73202A38BF7F22FDF71D
:10352C00F1F90835A64226D0304616F9011BB1F147
:10353C00FF3FCAB2E7DC437802F01F01E02A03F038
:10354C003F03DDD38678F02A06F03F0646EA831364
:10355C000AD3C27801F00701061D02F03F0242EACD
:10356C00831242EA8142CEE743EA0132C61CCAE723
:10357C000C25002CBED102B0BDE8000BF0BD0BF049
:10358C002EFA08210BF02BFA18460BF028FA1046ED
:10359C000BF025FAF0B503AF2DE9000F81B081696E
:1035AC0000295FD0D0F8148000F130064FEA810971
:1035BC004B244FF0000A58F8040BA4F122011023FD
:1035CC00D0F800B08068CDF800A0C2000A20FEF749
:1035DC009FF9A4F112010A2064220223CDF800A065
:1035EC00FEF796F9A4F110050A20022210232946B1
:1035FC00CDF800A0FEF78CF96C202946022210238E
:10360C00CDF800A0FEF784F90A202146642202239B
:10361C00CDF800A0FEF77CF940F28B10844225D047
:10362C00DBF804103078814222D9DBF8001010232B
:10363C009BF8082001EBC000002A4FF06C02416897
:10364C004FF00C00CDF800A018BFA2EBC100CA00CF
:10365C002946FEF75DF9B9F1040904F1280406F1D5
:10366C000106A8D101B0BDE8000FF0BD082008216B
:10367C000BF0B5F9F0B503AF2DE9000F8BB00D468B
:10368C0042F6FC11064600201446F062C0F6010119
:10369C003046C6E90554FEF742FC05EB84002424B1
:1036AC0043F20808019006F130000390F06AC4F26E
:1036BC000004C4F201084FF007094FF0010A002280
:1036CC00029007E0049D079A019804350132854267
:1036DC0000F0B382082A00F0B8822B68002003990E
:1036EC0004950792885402EB82009968CDE9050392
:1036FC00002900F0308106982922059B4FF00A0B17
:10370C00406802EBC30209920144089102460EE0A4
:10371C0040F618404FF48041C4F202000BF1080B44
:10372C0001600A9A08988242104600F0148112F93E
:10373C00011BB1F1FF3FCDB21FDC427805F01F0138
:10374C00E02D02F03F0211D38378F02D03F03F03FC
:10375C0043EA82120ED3C37801F0070103F03F0352
:10376C0043EA821242EA8145021D06E042EA8115D3
:10377C00821C02E042EA0135C21C099958460A92A1
:10378C0008221023FDF7BAF94FF60060B52DCFF6DD
:10379C00FF7008BFC12500EB0510202D38BF4FF47A
:1037AC00BE60B0F5226F00F24C8241F61C11002372
:1037BC00C0F6010101EB000CC0F5226102E00133FF
:1037CC00102BA5D0002502E00135082DF7D003EB16
:1037DC00D500884280F02F821CF8000029EA0502EF
:1037EC0026680AFA02F210402268921B592A0BD85A
:1037FC002268921B592A9EBF2268921B592A03D811
:10380C002268921B5A2AEFD3D8F8002092070CD4C6
:10381C00D8F8002092075CBFD8F800205FEA8272CB
:10382C0003D4D8F800209207EED5002818BFFF204B
:10383C00C8F80400D8F80020D2070CD1D8F8002022
:10384C00D20704BFD8F800205FEAC27203D1D8F8BF
:10385C000020D207EED0D8F8002012060CD5D8F8EC
:10386C000020120644BFD8F800205FEA026203D59C
:10387C00D8F800201206EED4D8F804202668226866
:10388C00921B592A0BD82268921B592A9EBF226878
:10389C00921B592A03D82268921B5A2AEFD3266806
:1038AC002268921B592A0BD82268921B592A9EBF58
:1038BC002268921B592A03D82268921B5A2AEFD3EA
:1038CC00D8F8002092070CD4D8F8002092075CBFDF
:1038DC00D8F800205FEA827203D4D8F8002092074F
:1038EC00EED5C8F80400D8F80000C0070CD1D8F801
:1038FC000000C00704BFD8F800005FEAC07003D115
:10390C00D8F80000C007EED0D8F8000000060CD59F
:10391C00D8F80000000644BFD8F800005FEA006049
:10392C0003D5D8F800000006EED4D8F804002068BF
:10393C002268121A592A3FF647AF2268121A592ADE
:10394C009EBF2268121A592A3FF63EAF2268121AFD
:10395C005A2AEDD338E70598079AC600029806F163
:10396C003901904224D140F21F4B0A2064220223D9
:10397C00CDF800B0FDF7CCFF06F13B050A20022282
:10398C0010232946CDF800B0FDF7C2FF6C20294664
:10399C0002221023CDF800B0FDF7BAFF06F14B015F
:1039AC000A2064220223CDF800B0FDF7B1FF03E03A
:1039BC0008461421FEF769F8069801684868002843
:1039CC0000F0478108684268002A3FF47BAE00682B
:1039DC0006F13B03097A4FF00C0B0993831800296D
:1039EC0008934FF06C0118BFA1EBC20B02460EE01E
:1039FC0040F618404FF48041C4F202000BF1080B62
:103A0C0001600A9A0898824210463FF45BAE12F9A4
:103A1C00011BB1F1FF3FCDB21FDC427805F01F0155
:103A2C00E02D02F03F0211D38378F02D03F03F0319
:103A3C0043EA82120ED3C37801F0070103F03F036F
:103A4C0043EA821242EA8145021D06E042EA8115F0
:103A5C00821C02E042EA0135C21C099958460A92BE
:103A6C0008221023FDF74AF84FF60060B52DCFF66B
:103A7C00FF7008BFC12500EB0510202D38BF4FF497
:103A8C00BE60B0F5226F00F2DC8041F61C11002301
:103A9C00C0F6010101EB000CC0F5226102E001331C
:103AAC00102BA5D0002502E00135082DF7D003EB33
:103ABC00D500884280F0BF801CF8000029EA05027E
:103ACC0026680AFA02F210402268921B592A0BD877
:103ADC002268921B592A9EBF2268921B592A03D82E
:103AEC002268921B5A2AEFD3D8F8002092070CD4E4
:103AFC00D8F8002092075CBFD8F800205FEA8272E9
:103B0C0003D4D8F800209207EED5002818BFFF2068
:103B1C00C8F80400D8F80020D2070CD1D8F800203F
:103B2C00D20704BFD8F800205FEAC27203D1D8F8DC
:103B3C000020D207EED0D8F8002012060CD5D8F809
:103B4C000020120644BFD8F800205FEA026203D5B9
:103B5C00D8F800201206EED4D8F804202668226883
:103B6C00921B592A0BD82268921B592A9EBF226895
:103B7C00921B592A03D82268921B5A2AEFD3266823
:103B8C002268921B592A0BD82268921B592A9EBF75
:103B9C002268921B592A03D82268921B5A2AEFD307
:103BAC00D8F8002092070CD4D8F8002092075CBFFC
:103BBC00D8F800205FEA827203D4D8F8002092076C
:103BCC00EED5C8F80400D8F80000C0070CD1D8F81E
:103BDC000000C00704BFD8F800005FEAC07003D132
:103BEC00D8F80000C007EED0D8F8000000060CD5BD
:103BFC00D8F80000000644BFD8F800005FEA006067
:103C0C0003D5D8F800000006EED4D8F804002068DC
:103C1C002268121A592A3FF647AF2268121A592AFB
:103C2C009EBF2268121A592A3FF63EAF2268121A1A
:103C3C005A2AEDD338E70AF0D2FE0BB0BDE8000FDC
:103C4C00F0BD4FF422610BF0BAFF082008210AF0F6
:103C5C00C6FE002000210AF0C2FED4D4F0B503AF9A
:103C6C002DE9000782B04FF0FF3252FA81F105299D
:103C7C0041D8DFE801F00357449240ACC56A4FF0DD
:103C8C00390A8469804605EB85010AEBC1010846B7
:103C9C001421FDF7FAFE40F21F49002DCDF80090DB
:103CAC0018BF2C46661E0A206422022306EB8605EA
:103CBC000AEBC501FDF72CFE3B2000EBC5040A20E6
:103CCC00022221461023CDF80090FDF721FE6C2036
:103CDC00214602221023CDF80090FDF719FE4B204F
:103CEC0000EBC5010A2064220223CDF80090FDF7F9
:103CFC000FFEC8F82C6002B0BDE80007F0BDC26A28
:103D0C00072A6CD881698A426DD2466900F130036A
:103D1C00995C56F8226000293668367918BF0E4631
:103D2C00013E4CE081694FF03908C26A0139541ADE
:103D3C004FF0140118BF541CC46202EB820008EB54
:103D4C00C000FDF7A2FE04EB840640F21F450A20DA
:103D5C00642208EBC60102230095FDF7D9FD3B2038
:103D6C0000EBC6040A200222214610230095FDF721
:103D7C00CFFD6C202146022210230095FDF7C8FDD3
:103D8C004B2000EBC6010A20642202230095FDF7AC
:103D9C00BFFD02B0BDE80007F0BDC26A072A1ED8FD
:103DAC0081698A421FD2466900F13003995C56F84A
:103DBC00226036687668013E761A18BF4E1C9E54F7
:103DCC0002B0BDE80007BDE8F040FFF74FBB022191
:103DDC0002B0BDE80007BDE8F040FEF71DB9104683
:103DEC0008210AF0FCFD10460AF0F9FDF0B503AF0E
:103DFC004DF8048DA6B0142800F2B4800021CDE952
:103E0C000311CDE9011107911021069101A905912A
:103E1C0042F68C51C0F6010101EBC000017931B1C1
:103E2C0001290BD142F64A61C0F6010103E042F6CA
:103E3C004861C0F601011391022105E042F64C6184
:103E4C00C0F601011391032140F255421491C0F6C2
:103E5C0000020021129213AA11924EF6F312C0F630
:103E6C0000022023CDE90F0203208DF890000122DF
:103E7C00CDE9171015A80C9042F63860C0F6010079
:103E8C00239108900FA80A9005A8229202268DF87B
:103E9C00702008AA1B91CDE9193141F6D401C0F666
:103EAC00010121931F961D9615960D9609960B965A
:103EBC000BF0B7FA002858D1DDE906128A424ED829
:103ECC00059915A80BF073FB1598012855D0179878
:103EDC00002840D0169E42F23C381A24C0F6010845
:103EEC00351814E043EA8112861CCDF80080B52AFF
:103EFC0008BFC12220464FF495714FF6FF73202A5C
:103F0C0038BF7F22FCF7FEFC0834AE4223D030468B
:103F1C0016F9011BB1F1FF3FCAB2E6DC437802F09F
:103F2C001F01E02A03F03F03DCD38678F02A06F069
:103F3C003F0646EA83130AD3C27801F00701061D37
:103F4C0002F03F0242EA831242EA8142CDE743EAA1
:103F5C000132C61CC9E726B05DF8048BF0BD1046D3
:103F6C000BF02DFE15210AF03AFD41F6FC01A7F1EC
:103F7C001100C0F601010BF01EFE42F6A06108A86C
:103F8C00C0F601010BF017FED4D4D4D4F0B503AFB6
:103F9C002DE9000F81B02DED068B96B005914EF6F4
:103FAC00AC2180464058002800F02781414408F19C
:103FBC004C0A441ED1F804C0CDF804C02FD4002202
:103FCC0042F20F7326464FF00009B01800EBD07088
:103FDC004010984200F218815AF82050654596BF5F
:103FEC00421C461E8146B242EFDD886800210790D4
:103FFC0042F20F72079D2346581800EBD070401008
:10400C00904200F201815AF82060AE4232BF411C4E
:10401C00431E04469942EFDDA14504D9EDE08868C2
:10402C004FF00009079001980DF020FB0646079809
:10403C000D460DF01BFB49F68C425AF829B0424450
:10404C0002922B4632F819803246159614950DF0D3
:10405C006EF99FED728B08F00102CDE9121051EC54
:10406C00180B9FED709B9FED71ABCDE9034A10913E
:10407C005946119048460E92A14538BF01300F9019
:10408C0042F21070814580F0C3800846D3460691F9
:10409C000DF0ECFADDE914320DF049F9DDE91032DE
:1040AC000DF055F9DDE912320CF0D7FB56EC198BFB
:1040BC00424633460CF0B6FDB0EE491AF0EE691AE2
:1040CC0041EC100B0CF0A6FBB0EE481AF0EE681A9F
:1040DC000CF07DFB54EC105B029853EC1A2B30F86F
:1040EC0019000D9028462146CDE909230DF0EAFA76
:1040FC000C9028462146424633460CF06BFF0B9041
:10410C00284621460DF0EDF882465BF82900089010
:10411C000DF0ACFADDE914320DF009F9DDE91032DD
:10412C000DF015F9DDE912320CF097FB42463346DF
:10413C000CF078FDB0EE491AF0EE691A41EC100B58
:10414C000CF068FBB0EE481AF0EE681A0CF03FFB6E
:10415C005BEC104BDDE90923204659460DF0B2FA11
:10416C0005464246204659463346DDF820800CF081
:10417C0031FF0646204659460DF0B3F80446059823
:10418C00009046210B980123002808BF82460C980A
:10419C00002818BF4FF0FF3A002E08BF34460D9E82
:1041AC00002D18BF4FF0FF340E9DA4EB0A00421CEB
:1041BC00E80718BF32215046FDF7AAFB0798404587
:1041CC000FD30198069988420BD885EA0600C007E0
:1041DC0007D0059832210090204601221423FDF7C8
:1041EC0097FB039CDDF810A00F98A14505D2A042C7
:1041FC003246414681467FF63EAF16B0BDEC068B8B
:10420C0001B0BDE8000FF0BD42F210710AF0E7FBFF
:10421C00484642F210710AF0E2FB00BF00000000B9
:10422C0000F07D4000000000000000000000E0FFF6
:10423C00FFFFEF41F0B503AF2DE9000782B042F666
:10424C0070610E22C0F601018046FDF7D8FC42F6E3
:10425C00E4114046C0F60101FDF761FE00204FF667
:10426C00FF7AC8F8280040F2C110002101221E2359
:10427C00D8F82040CDF800A0FDF74AFB42F23C39BB
:10428C004FF0FF36C0F60109002CCDF8009008BFA6
:10429C0040F21F4640F26B100721BD2233464FF00F
:1042AC00FF35FCF72FFB40F273100721BE2233467B
:1042BC00CDF80090FCF726FB4FF4D17000210122C1
:1042CC001E23CDF800A0FDF723FB4FF0FF36CDF8F1
:1042DC000090012C08BF40F21F464FF4C570072117
:1042EC008B223346FCF70EFB4FF4C97007218C224E
:1042FC003346CDF80090FCF705FB40F2831000210B
:10430C0001221E23CDF800A0FDF702FB4FF0FF3673
:10431C00CDF80090022C08BF40F21F4640F2A910C5
:10432C000721B9223346FCF7EDFA40F2B110072110
:10433C00BA223346CDF80090FCF7E4FA4FF4B27091
:10434C00002101221E23CDF800A0FDF7E1FACDF8E3
:10435C000090032C08BF40F21F454FF4E470072176
:10436C009F222B46FCF7CEFA4FF4E8700721A022CF
:10437C002B46CDF80090FCF7C5FA40464FF6FF717E
:10438C0002B0BDE80007BDE8F040FFF7FFBDF0B597
:10439C0003AF4DF8048DD0E90145AC4216D3164657
:1043AC00621BB24228BF32468046002A1EBFD8F894
:1043BC00000028440CF048FEA819844238BF20465F
:1043CC00C8F8080000205DF8048BF0BD2846214693
:1043DC000BF0F5FB80B56F4600F000F8B0B502AFFE
:1043EC00ADF5EA3DFEB00CF0EFF904460CF0DFF948
:1043FC0040F2000104F00100C2F200010A78002A28
:10440C004AF08882012200280DF56B4B0A7008BF18
:10441C000CF0CFF949F2FF4441F200250020C0F620
:10442C00BA24611CCDE90010C0F27A050DF56B4081
:10443C002946012201230BF03AFCDBF8000002288C
:10444C000AF0B682C0070AF0C082DBF8040045F619
:10445C000172C0F64C12A0F1B771A1F558519142FE
:10446C008AF06C8201194EF22F32C0F2BE02090A98
:10447C00A1FB0213D90A01290CD0022907D000296B
:10448C000AF041824FF400714FF0F00804E04FF055
:10449C00800801E04FF000084AF24056B0FBF1F101
:1044AC00C0F2AE268B19013B9B09A3FB0235EB0A2C
:1044BC00012B0BD0022B06D0002B0AF024820423F4
:1044CC004FF4A05A04E04FF4805A01E04FF0000A78
:1044DC00B1FBF3F4731C9C428AF0378244F67F25BF
:1044EC00C0F25D554B19DB09A3FB0223DA0A012A42
:1044FC000BD0022A06D0002A0AF0058204224FF4BF
:10450C00204904E04FF4004901E04FF00009B1FBF1
:10451C00F2F3AA1C93428AF01F82CDE90E4310AC31
:10452C004EF6AC224EF6B42304EB020C0BEB03025A
:10453C00013849F68C450D926219049245F2C74236
:10454C00C009C0F21E12A0FB020243F60004C4F222
:10455C000204D4F800040009920A60F31F1242F41A
:10456C00E060C4F80004206840F4803020602068CB
:10457C00800309D4206880035CBF20685FEA803028
:10458C0002D420688003F2D5206840F0807020604F
:10459C0047F60120CDF830C0C0F6032081422FD35E
:1045AC00206C40F0805020640CF00BF947F20400B2
:1045BC00C4F2000050F8041C41F4803140F8041C93
:1045CC000168C90309D40168C9035CBF01685FEACB
:1045DC00C13102D40168C903F2D550F8041C41F46E
:1045EC00003140F8041C0168890309D4016889036F
:1045FC005CBF01685FEA813102D401688903F2D59E
:10460C002068800109D4206880015CBF20685FEAC3
:10461C00801002D420688001F2D5A0684FF6F042D9
:10462C0020F40000A060D4F88C0020F47000C4F8D2
:10463C008C00A1684AEA080040EA0900914308434B
:10464C00A06010200CF0B7F8A0680221012561F3DE
:10465C000100A060206B40F039002063606C40F4D6
:10466C008050606440F20C60C4F2472005600CF08E
:10467C00A8F840F2002B40F2000945F25550C4F264
:10468C00472BCBF80C500025C4F20209C5F20000F0
:10469C0040F61841CBF80C50C9F8000C45F25550B7
:1046AC0041F21002C4F20201C0F24000C4F2020254
:1046BC00C1F8E8034FF0A060C2F8F00348F2FF0025
:1046CC0041F21843086040F6FF00C4F20203906008
:1046DC0045F255504FF6FF7841F80C0C42F8040C9B
:1046EC0040F2240A43F80C0CC4F2000AC3F8F40399
:1046FC0041F8108C4FF0FF3142F8088CC2F8F88367
:10470C00C3F8F083206C40F0010020644FF080402F
:10471C00012405604AF8205CCAF80450CAF8081055
:10472C004AF8185C016841F001010160CBF80044C3
:10473C000CF047F8CBF800400521CBF800500222D2
:10474C00C9F80880D9F8040020F02000C9F804004A
:10475C00D9F8200061F31750C9F82000D9F80000EF
:10476C0062F38B20C9F80000D9F8040020F0400057
:10477C00C9F80400D9F8200061F31B60C9F82000C7
:10478C00D9F8000062F30D30C9F80000D9F8040024
:10479C0020F08000C9F80400D9F8200061F31F70E4
:1047AC00C9F82000D9F8000062F38F30C9F8000076
:1047BC0040F20C69C4F24729C9F8A4420CF001F884
:1047CC0043F20808CBF8B042C4F20108CBF8B0525F
:1047DC0028F8045C48F27F400F9BC0F21E00834215
:1047EC004AF2918048F6805040F61842C0F25B00C5
:1047FC0083424FF000044FF00000C4F2020217D3C2
:10480C0041F60030C0F2B700834201D208200FE01D
:10481C0043F20060C0F26E10834201D2102007E018
:10482C0046F600412020C0F2DC218B4238BF182014
:10483C0040F4417028F8080C38F8080C43F2BF71AA
:10484C00012508400721403028F8080C52F8140CB8
:10485C0020F4807042F8140CD06861F30300D0602F
:10486C0000220221C4F20202D2F8000C61F31140C2
:10487C00C2F8000CC9F83C520BF0A3FF40F2002028
:10488C00C4F24720C0F84852C0F848420E99480B71
:10489C00E02816D8B1F5612FCAF099804FF4614029
:1048AC0000EB41004BF2C531C9F2A211A0FB010192
:1048BC00702000EA1140C1F3424101444AF20C005D
:1048CC000AE001F561404BF2C531C9F2A211A0FB1F
:1048DC00010142F20C00090C44F60002C4F2000281
:1048EC009160002111615161D06011611068000666
:1048FC00FCD54920506010680006FCD5542050604F
:10490C0010680006FCD55320506010680006FCD5DA
:10491C002D20506010680006FCD5422050601068B5
:10492C000006FCD56F20506010680006FCD5612095
:10493C00506010680006FCD57220506010680006AC
:10494C00FCD56420506010680006FCD52020506017
:10495C0010680006FCD56920506010680006FCD574
:10496C006E20506010680006FCD5692050601068FD
:10497C000006FCD57420506010680006FCD5692038
:10498C00506010680006FCD561205060106800066D
:10499C00FCD56C20506010680006FCD56920506076
:1049AC0010680006FCD57A20506010680006FCD513
:1049BC006520506010680006FCD5642050601068BB
:1049CC000006FCD50A2050601068000609D4106857
:1049DC0000065CBF10685FEA006002D41068000635
:1049EC00F2D541F218410A2050604FF48050C4F2C5
:1049FC0002010860DAF80000DAF80010091AB14276
:104A0C000ED2DAF80010091AB1423EBFDAF80010E3
:104A1C00091AB14204D2DAF80010091AB142EBD3E8
:104A2C0041F218414FF08050C4F202010860DAF8EC
:104A3C000000DAF80010091AB1420ED2DAF80010B0
:104A4C00091AB1423EBFDAF80010091AB14204D279
:104A5C00DAF80010091AB142EBD341F218414FF4C5
:104A6C008050C4F202010860DAF80000DAF8001095
:104A7C00091AB1420ED2DAF80010091AB1423EBF3F
:104A8C00DAF80010091AB14204D2DAF80010091A47
:104A9C00B142EBD342F24C364FF0000E4FF0005CBB
:104AAC004FF0804BC0F601064FF480454FF400598F
:104ABC00002002E0672880F0608141F2184140F646
:104ACC001842C4F20201C4F20202C1F800C0315C07
:104ADC00C2F800B0DAF80020DAF80040A41A592C19
:104AEC000ED8DAF80040A41A592C9EBFDAF8004010
:104AFC00A41A592C04D8DAF80040A41A5A2CEBD377
:104B0C00D8F8002092070CD4D8F8002092075CBF8C
:104B1C00D8F800205FEA827203D4D8F800209207FC
:104B2C00EED5C8F80410D8F80010C9070CD1D8F885
:104B3C000010C90704BFD8F800105FEAC17103D197
:104B4C00D8F80010C907EED0D8F8001009060CD51B
:104B5C00D8F80010090644BFD8F800105FEA0161CC
:104B6C0003D5D8F800100906EED4D8F80410DAF8FA
:104B7C000010DAF80020521A592A0ED8DAF8002060
:104B8C00521A592A9EBFDAF80020521A592A04D810
:104B9C00DAF80020521A5A2AEBD340F6184166284C
:104BAC00C4F202010D6009F0FF86811902304A78C7
:104BBC0052B97FE740F61841013AC4F202010130C4
:104BCC000D6011063FF476AF662809F2998641F222
:104BDC00184140F61843C4F20201C4F20203C1F8B2
:104BEC000090315CC3F800B0DAF80040DAF800301D
:104BFC001B1B592B0ED8DAF800301B1B592B9EBFF0
:104C0C00DAF800301B1B592B04D8DAF800301B1BC8
:104C1C005A2BEBD3D8F800309B070CD4D8F80030C3
:104C2C009B075CBFD8F800305FEA837303D4D8F8D5
:104C3C0000309B07EED5C8F804E0D8F80030DB074D
:104C4C000CD1D8F80030DB0704BFD8F800305FEA8D
:104C5C00C37303D1D8F80030DB07EED0D8F800309E
:104C6C001B060CD5D8F800301B0644BFD8F8003012
:104C7C005FEA036303D5D8F800301B06EED4D8F8EE
:104C8C000430DAF80040DAF800301B1B592B0ED830
:104C9C00DAF800301B1B592B9EBFDAF800301B1BB7
:104CAC00592B04D8DAF800301B1B5A2BEBD3DAF84B
:104CBC000040DAF800301B1B592B0ED8DAF8003004
:104CCC001B1B592B9EBFDAF800301B1B592B04D829
:104CDC00DAF800301B1B5A2BEBD3D8F800309B07AB
:104CEC000CD4D8F800309B075CBFD8F800305FEAD2
:104CFC00837303D4D8F800309B07EED5C8F80410A2
:104D0C00D8F80010C9070CD1D8F80010C90704BF97
:104D1C00D8F800105FEAC17103D1D8F80010C907A8
:104D2C00EED0D8F8001009060CD5D8F800100906FA
:104D3C0044BFD8F800105FEA016103D5D8F8001021
:104D4C000906EED4D8F80410DAF80010DAF80030BE
:104D5C005B1A592B3FF62EAFDAF800305B1A592B41
:104D6C009EBFDAF800305B1A592B3FF623AFDAF806
:104D7C0000305B1A5A2BE9D31CE741F2184140F67C
:104D8C0018434FF00050C4F2020108604FF080400D
:104D9C00C4F202031860DAF80000DAF80010091AFD
:104DAC0059290ED8DAF80010091A59299EBFDAF8D9
:104DBC000010091A592904D8DAF80010091A5A29CE
:104DCC00EBD30DF56B49D8F8000080070CD4D8F85C
:104DDC00000080075CBFD8F800005FEA807003D445
:104DEC00D8F800008007EED5B620C8F80400D8F833
:104DFC000000C0070CD1D8F80000C00704BFD8F8D9
:104E0C0000005FEAC07003D1D8F80000C007EED0F4
:104E1C00D8F8000000060CD5D8F80000000644BFF6
:104E2C00D8F800005FEA006003D5D8F8000000064F
:104E3C00EED4D8F80400DAF80000DAF80010091AF9
:104E4C0059290ED8DAF80010091A59299EBFDAF838
:104E5C000010091A592904D8DAF80010091A5A292D
:104E6C00EBD341F218414FF4804018604FF40050DE
:104E7C00C4F2020108604FF080401860DAF80000BC
:104E8C00DAF80010091A59290ED8DAF80010091AA4
:104E9C0059299EBFDAF80010091A592904D8DAF8F2
:104EAC000010091A5A29EBD3D8F8000080070CD44B
:104EBC00D8F8000080075CBFD8F800005FEA80706B
:104ECC0003D4D8F800008007EED50020C8F8040001
:104EDC00D8F80000C0070CD1D8F80000C00704BFF8
:104EEC00D8F800005FEAC07003D1D8F80000C00702
:104EFC00EED0D8F8000000060CD5D8F8000000065B
:104F0C0044BFD8F800005FEA006003D5D8F8000071
:104F1C000006EED4D8F80400DAF80000DAF8001035
:104F2C00091A59290ED8DAF80010091A59299EBF06
:104F3C00DAF80010091A592904D8DAF80010091AFD
:104F4C005A29EBD3DAF80000DAF80010091A5929BB
:104F5C000ED8DAF80010091A59299EBFDAF8001099
:104F6C00091A592904D8DAF80010091A5A29EBD36E
:104F7C00D8F8000080070CD4D8F8000080075CBF7C
:104F8C00D8F800005FEA807003D4D8F800008007DE
:104F9C00EED50020C8F80400D8F80000C0070CD1EA
:104FAC00D8F80000C00704BFD8F800005FEAC07052
:104FBC0003D1D8F80000C007EED0D8F800000006E6
:104FCC000CD5D8F80000000644BFD8F800005FEA02
:104FDC00006003D5D8F800000006EED4D8F8040021
:104FEC00DAF80000DAF80010091A59290ED8DAF8A4
:104FFC000010091A59299EBFDAF80010091A59290C
:10500C0004D8DAF80010091A5A29EBD341F21841E6
:10501C004FF4804018604FF40050C4F20201086055
:10502C004FF080401860DAF80000DAF80010091A26
:10503C0059290ED8DAF80010091A59299EBFDAF846
:10504C000010091A592904D8DAF80010091A5A293B
:10505C00EBD3D8F8000080070CD4D8F800008007F8
:10506C005CBFD8F800005FEA807003D4D8F8000069
:10507C008007EED50020C8F80400D8F80000C0075F
:10508C000CD1D8F80000C00704BFD8F800005FEAC4
:10509C00C07003D1D8F80000C007EED0D8F80000DB
:1050AC0000060CD5D8F80000000644BFD8F8000064
:1050BC005FEA006003D5D8F800000006EED4D8F8FB
:1050CC000400DAF80000DAF80010091A59290ED891
:1050DC00DAF80010091A59299EBFDAF80010091ADB
:1050EC00592904D8DAF80010091A5A29EBD3DAF83E
:1050FC000000DAF80010091A59290ED8DAF8001055
:10510C00091A59299EBFDAF80010091A592904D82E
:10511C00DAF80010091A5A29EBD3D8F800008007E6
:10512C000CD4D8F8000080075CBFD8F800005FEA08
:10513C00807003D4D8F800008007EED56220C8F840
:10514C000400D8F80000C0070CD1D8F80000C00744
:10515C0004BFD8F800005FEAC07003D1D8F8000093
:10516C00C007EED0D8F8000000060CD5D8F8000027
:10517C00000644BFD8F800005FEA006003D5D8F8F9
:10518C0000000006EED4D8F80400DAF80000DAF8D3
:10519C000010091A59290ED8DAF80010091A5929E1
:1051AC009EBFDAF80010091A592904D8DAF8001051
:1051BC00091A5A29EBD341F218414FF48040186078
:1051CC004FF00050C4F2020108604FF080401860AC
:1051DC00DAF80000DAF80010091A59290ED8DAF8B2
:1051EC000010091A59299EBFDAF80010091A59291A
:1051FC0004D8DAF80010091A5A29EBD3D8F80000B1
:10520C0080070CD4D8F8000080075CBFD8F80000E9
:10521C005FEA807003D4D8F800008007EED5362002
:10522C00C8F80400D8F80000C0070CD1D8F800006A
:10523C00C00704BFD8F800005FEAC07003D1D8F8EB
:10524C000000C007EED0D8F8000000060CD5D8F846
:10525C000000000644BFD8F800005FEA006003D5E8
:10526C00D8F800000006EED4D8F80400DAF80000F4
:10527C00DAF80010091A59290ED8DAF80010091AB0
:10528C0059299EBFDAF80010091A592904D8DAF8FE
:10529C000010091A5A29EBD341F218414FF48040FF
:1052AC0018604FF40050C4F2020108604FF08040C7
:1052BC001860DAF80000DAF80010091A59290ED82B
:1052CC00DAF80010091A59299EBFDAF80010091AE9
:1052DC00592904D8DAF80010091A5A29EBD3D8F84E
:1052EC00000080070CD4D8F8000080075CBFD8F809
:1052FC0000005FEA807003D4D8F800008007EED578
:10530C000020C8F80400D8F80000C0070CD1D8F869
:10531C000000C00704BFD8F800005FEAC07003D1DA
:10532C00D8F80000C007EED0D8F8000000060CD565
:10533C00D8F80000000644BFD8F800005FEA00600F
:10534C0003D5D8F800000006EED4D8F80400DAF83B
:10535C000000DAF80010091A59290ED8DAF80010F2
:10536C00091A59299EBFDAF80010091A592904D8CC
:10537C00DAF80010091A5A29EBD3DAF80000DAF837
:10538C000010091A59290ED8DAF80010091A5929EF
:10539C009EBFDAF80010091A592904D8DAF800105F
:1053AC00091A5A29EBD3D8F8000080070CD4D8F886
:1053BC00000080075CBFD8F800005FEA807003D45F
:1053CC00D8F800008007EED52820C8F80400D8F8DB
:1053DC000000C0070CD1D8F80000C00704BFD8F8F3
:1053EC0000005FEAC07003D1D8F80000C007EED00F
:1053FC00D8F8000000060CD5D8F80000000644BF11
:10540C00D8F800005FEA006003D5D8F80000000669
:10541C00EED4D8F80400DAF80000DAF80010091A13
:10542C0059290ED8DAF80010091A59299EBFDAF852
:10543C000010091A592904D8DAF80010091A5A2947
:10544C00EBD34FF480404AF680011860C0F2121181
:10545C00DAF80000DAF80020121A8A420ED2DAF8D2
:10546C000020121A8A423EBFDAF80020121A8A4231
:10547C0004D2DAF80020121A8A42EBD341F2184116
:10548C004FF00050C4F2020108604FF080401860E9
:10549C00DAF80000DAF80010091A59290ED8DAF8EF
:1054AC000010091A59299EBFDAF80010091A592957
:1054BC0004D8DAF80010091A5A29EBD3D8F80000EE
:1054CC0080070CD4D8F8000080075CBFD8F8000027
:1054DC005FEA807003D4D8F800008007EED5112065
:1054EC00C8F80400D8F80000C0070CD1D8F80000A8
:1054FC00C00704BFD8F800005FEAC07003D1D8F829
:10550C000000C007EED0D8F8000000060CD5D8F883
:10551C000000000644BFD8F800005FEA006003D525
:10552C00D8F800000006EED4D8F80400DAF8000031
:10553C00DAF80010091A59290ED8DAF80010091AED
:10554C0059299EBFDAF80010091A592904D8DAF83B
:10555C000010091A5A29EBD34FF480404CF68031D5
:10556C001860C0F2A401DAF80000DAF80020121A70
:10557C008A420ED2DAF80020121A8A423EBFDAF8BA
:10558C000020121A8A4204D2DAF80020121A8A4237
:10559C00EBD341F218414FF00050C4F20201086005
:1055AC004FF080401860DAF80000DAF80010091AA1
:1055BC0059290ED8DAF80010091A59299EBFDAF8C1
:1055CC000010091A592904D8DAF80010091A5A29B6
:1055DC00EBD3D8F8000080070CD4D8F80000800773
:1055EC005CBFD8F800005FEA807003D4D8F80000E4
:1055FC008007EED52920C8F80400D8F80000C007B1
:10560C000CD1D8F80000C00704BFD8F800005FEA3E
:10561C00C07003D1D8F80000C007EED0D8F8000055
:10562C0000060CD5D8F80000000644BFD8F80000DE
:10563C005FEA006003D5D8F800000006EED4D8F875
:10564C000400DAF80000DAF80010091A59290ED80B
:10565C00DAF80010091A59299EBFDAF80010091A55
:10566C00592904D8DAF80010091A5A29EBD34FF447
:10567C00804000261860002000214FF4F0724FF497
:10568C00A0730096FCF744F94FF6FF701E210090B2
:10569C0000204FF4F07201234FF6FF74FCF738F939
:1056AC00002040F221114FF4F07201230094FCF71A
:1056BC002FF90DF56B4B42F6E4140D9D4AF655206F
:1056CC000821C0F6010442F63443CBE90141012123
:1056DC00CBE9070609F14C00CBE903164EF668211D
:1056EC000622C0F601032E72CBE91166CBE90966DE
:1056FC00CBE90B66CBE90D66CBE90F66CBE905323E
:10570C000CF016F844F67F204FF49171C0F25D5006
:10571C004FF4F0720130C5E9000640F201101E236F
:10572C00C0F201300096CBF800000020FCF7F0F836
:10573C004FF6FF7440F2C1104FF4917101221E23F9
:10574C000094FCF7E5F84FF4D1704FF491710122FD
:10575C001E230094FCF7DCF840F283104FF4917197
:10576C0001221E230094FCF7D3F84FF4B2704FF4CF
:10577C00917101221E230094FCF7CAF840F24510E7
:10578C004FF4917101221E230094FCF7C1F84FF4E1
:10579C0093704FF4917101221E230094FCF7B8F81A
:1057AC0040F207104FF4917101221E230094FCF774
:1057BC00AFF8E8204FF4917101221E230094FCF7FE
:1057CC00A7F842F23C34EF20C0F6010440F2291154
:1057DC009B224FF6FF730094FBF794F8F72040F2EE
:1057EC0029119C224FF6FF730094FBF78BF84FF4B2
:1057FC00877040F22911A9224FF6FF730094FBF732
:10580C0081F84FF48B7040F22911AA224FF6FF73E6
:10581C000094FBF777F840F22D1040F22911872203
:10582C004FF6FF730094FBF76DF840F2351040F221
:10583C00291188224FF6FF730094FBF763F84FF49D
:10584C00A67040F229119D224FF6FF730094FBF7CE
:10585C0059F84FF4AA7040F229119E224FF6FF73AB
:10586C000094FBF74FF840F26B1040F22911AF2275
:10587C004FF6FF730094FBF745F840F2731040F2BB
:10588C002911B0224FF6FF730094FBF73BF84FF44D
:10589C00C57040F2291195224FF6FF730094FBF767
:1058AC0031F84FF4C97040F2291196224FF6FF736C
:1058BC000094FBF727F840F2A91040F22911B72207
:1058CC004FF6FF730094FBF71DF840F2B11040F255
:1058DC002911B8224FF6FF730094FBF713F84FF41D
:1058EC00E47040F2291197224FF6FF730094FBF7F6
:1058FC0009F84FF4E87040F2291198224FF6FF7323
:10590C000094FAF7FFFF4846FEF794FC10AD4946A9
:10591C004EF6C02228460BF092FC00214FF6FF7287
:10592C00C4F2020145F68F73D1F8000C4FF0010E52
:10593C00C0F201039043C1F8000C40F6184040F649
:10594C001841C4F20200C4F20201D0F8E8036FF36C
:10595C000F00C1F8E803E81CDDF830C00A9005F12F
:10596C004C0003900020CBE90066CBE90266CBE942
:10597C000466CBE906664FF0070B00E01046DAF838
:10598C000020111A99420AD8DAF80020111A99420B
:10599C009EBFDAF80020111A994248F2A18741F211
:1059AC001840C4F2020050F8080C0D92C0B20E90D0
:1059BC00002006E090B1322037E00F980130082823
:1059CC00DCD00E9CC1B20F9059F8200024FA01F1E2
:1059DC00C907EFD00028F0D0013826E00F981299B3
:1059EC00C0F10700884288F0E1871199095C9CF8A6
:1059FC001000DFE810F029029D030E0002010800E0
:105A0C00080008000C010729D5D010A8FEF726F9CC
:105A1C0095E301393220052907D8DFE811F00B0096
:105A2C00A4030600060087048C030F990D9A49F80D
:105A3C002100C2E71A98002806F09182461E04281D
:105A4C001A9688F0AE8700EBC0042920642201234B
:105A5C0000EB84010A206425FBF750F8A400002217
:105A6C0002E0013D01F0C282DAF80000DAF8001021
:105A7C00091A59290ED8DAF80010091A59299EBFAB
:105A8C00DAF80010091A592904D8DAF80010091AA2
:105A9C005A29EBD3D8F8000080070CD4D8F80000B2
:105AAC0080075CBFD8F800005FEA807003D4D8F898
:105ABC0000008007EED5C8F80420D8F80000C00715
:105ACC000CD1D8F80000C00704BFD8F800005FEA7A
