:020000040800F2
:1000000000000320AD0100088BF90008E10701089A
:100010008BF900088BF900088BF90008000000003C
:100020000000000000000000000000008BF9000844
:100030008BF90008000000008BF900088BF900081C
:100040008BF900088BF900088BF900088BF9000880
:100050008BF900088BF900088BF900088BF9000870
:100060008BF900088BF900088BF900088BF9000860
:100070008BF900088BF900088BF900088BF9000850
:100080008BF900088BF900088BF900088BF9000840
:100090008BF900088BF900088BF900088BF9000830
:1000A0008BF900088BF900088BF900088BF9000820
:1000B0008BF900088BF900088BF900088BF9000810
:1000C0008BF900088BF900088BF900088BF9000800
:1000D0008BF900088BF900088BF900088BF90008F0
:1000E0008BF900088BF900088BF900088BF90008E0
:1000F0008BF900088BF900088BF900088BF90008D0
:100100008BF900088BF900088BF900088BF90008BF
:100110008BF900088BF900088BF900088BF90008AF
:100120008BF900088BF900088BF900088BF900089F
:100130008BF900088BF900088BF900088BF900088F
:100140008BF900088BF900088BF900088BF900087F
:100150008BF900088BF900088BF900088BF900086F
:100160008BF900088BF900088BF900088BF900085F
:100170008BF900088BF900088BF900088BF900084F
:100180008BF900088BF900088BF900088BF900083F
:100190008BF900088BF900088BF900088BF900082F
:0C01A0008BF900088BF900088BF90008AF
:1001AC000FF0EEFB0E480F490022814201D004C033
:1001BC00FBE70D480D490E4A814202D008CA08C01F
:1001CC00FAE70C484FF47001026842EA010202603F
:1001DC00BFF34F8FBFF36F8F03F0E1FD00DE000024
:1001EC00000000200400002000000020000000207F
:1001FC008C20010888ED00E080B56F46A2B00A465D
:10020C00C969CB0616D4890621D4017864294CD34C
:10021C0029204843030B6FF0630013FB001041F6D9
:10022C002E51C0F60101C0B231F81000ADF8090032
:10023C0000203EE0007800F00F0101F157030A297D
:10024C0038BF01F130038DF8873057210BE000786F
:10025C0000F00F0101F137030A2938BF01F1300317
:10026C0037218DF8873001EB10110309A02838BF16
:10027C0003F13001102838BF00218DF886104FF0A3
:10028C00020138BF0121009102A9102801F17E035F
:10029C00104638BF01F17F0341F62C51C0F6010125
:1002AC0002220EF07BFF22B080BD0A2906D202206A
:1002BC000B4643F0300102AB195408E041F62E50C6
:1002CC00C0F6010030F81100ADF80900012080F0F3
:1002DC000301009102A90B181046012100220EF017
:1002EC005DFF22B080BDF0B503AF2DE9000F8DB0DE
:1002FC0006680C46307880B1D4E905B940F60501A2
:10030C00D9F80C50C0F6010104225846A84790B108
:10031C0001200DB0BDE8000FF0BD40F61501D4E989
:10032C000502D368C0F6010104220DB0BDE8000F30
:10033C00BDE8F0401847D4F81CA006F101085FEAAC
:10034C004A7015D441F629515846C0F601010122D4
:10035C00A847014601200029DBD140462146FFF782
:10036C004BFF002846D001200DB0BDE8000FF0BDBA
:10037C0041F62A515846C0F601010222A84701460F
:10038C0001200029C5D104F10806A7F1410141F66D
:10039C00045507F8410C4CCE6846C0F60105CDE972
:1003AC000191D4E900C1099006A8CDE904C104A9C2
:1003BC000A9594F820504CC04046CDF800B0CDF8CA
:1003CC002CA08DF83050FFF717FF20B101200DB095
:1003DC00BDE8000FF0BDDDE909010222CB6841F652
:1003EC002451C0F60101984720B101200DB0BDE8A1
:1003FC00000FF0BDD4E905010122CB6841F6D441D0
:10040C00C0F6010198470DB0BDE8000FF0BDF0B586
:10041C0003AF2DE9000FA3B08946C969CA064ED4B3
:10042C00890600F18A80016842F210704FF69C7EBA
:10043C00814241F62E50C0F60100C0F0D68041F248
:10044C0059784EF2FF040DF10C0BCDF808900022F8
:10045C00CDF2B7184DF6F00941F27B4AC0F2F554D3
:10046C00A1FB08350BEB020C043AA1424FEA5533C1
:10047C0003FB09151946AEB24FEA960606FB0AF6BF
:10048C004FEA564606FB0E5530F81660ACF806607F
:10049C00ADB230F81550ACF80850E1D8DDF8089042
:1004AC000A321946632900F2A4800B460A2BC0F0CD
:1004BC00B180911E30F8130003AA5052AFE00368CC
:1004CC000DF10C0E802481214FF05708204603F0CB
:1004DC000F0404F157050A2C38BF04F130050EEB5C
:1004EC000104102B04F8025C66D3DDB2A02D08EBDE
:1004FC0015164FEA151238BF02F130061D0A04F822
:10050C00036C5CD005F00F02043902F157050A2A7E
:10051C0038BF02F1300504F8045C1D0B52D005F015
:10052C000F0202F157050A2A38BF02F1300504F810
:10053C00055C041F1B0CC9D13CE003680DF10C0ECB
:10054C00802481214FF0370C03F00F06204606F172
:10055C0037050A2E0EEB010438BF06F13005102BBF
:10056C0004F8025C28D3DEB2A02E0CEB16154FEA71
:10057C00161238BF02F1300504F8035C1D0A1ED0B8
:10058C0005F00F02043902F137050A2A38BF02F1CF
:10059C00300504F8045C1D0B14D005F00F0202F1B9
:1005AC0037050A2A38BF02F1300504F8055C041F30
:1005BC001B0CC9D1033807E08C1E481E04E001381F
:1005CC00CC1E01E002380C4641F62C51C0F18100E2
:1005DC000EEB04030090C0F60101484602220EF017
:1005EC00DDFD23B0BDE8000FF0BD0A2263297FF6C4
:1005FC005CAF8BB241F27B469B08023A734303AE6D
:10060C005B0C03FB0E1189B230F81110B1520A2B9E
:10061C00BFF44FAF511E03AA43F030005054C1F148
:10062C000A00009003A800224318484601210EF04E
:10063C00B5FD23B0BDE8000FF0BDC00708BF704783
:10064C000FF022BFB0B502AF84B0044604300D46A3
:10065C000190D1E905010922CB6840F2E471C0F6A2
:10066C00010198478DF80C0040F21B400021C0F6A8
:10067C0000008DF80D1040F2ED71009002A8C0F64C
:10068C0001010B22234602950EF0B2FE40F2F3213B
:10069C0001ABC0F600010922009140F2F871C0F6DE
:1006AC0001010EF0A5FE9DF80D209DF80C10012AFD
:1006BC0042EA010008BF5FEAC17103D000F00100FB
:1006CC0004B0B0BD0298017F49070CD4D0E90501F4
:1006DC000222CB6841F62751C0F60101984700F081
:1006EC00010004B0B0BDD0E905010122CB6841F690
:1006FC002651C0F60101984700F0010004B0B0BDCE
:10070C00D1E9050240F62901D368C0F601010D229A
:10071C001847F0B503AF2DE9000F83B0BC689A46BB
:10072C009046D4E902B52B465A4600F0EEF8A8F1F3
:10073C0020000BF107016843C90801914843616827
:10074C008142C0F0DE80002D18BFBBF1000F0AD132
:10075C0040F618404FF48041C4F20200016003B02F
:10076C00BDE8000FF0BD22682426091A002302EB15
:10077C00000943F20802C4F20006C4F201024FF071
:10078C000708009504E0029B009D0133AB42DFD0CB
:10079C0001980025029303FB00FE02E001355D4544
:1007AC00F1D00EEBD500884280F0AD8019F8000036
:1007BC0028EA0503D6F800C0D84000F001004042FA
:1007CC0000EA0A003368A3EB0C03592B0ED83368EC
:1007DC00A3EB0C03592B9EBF3368A3EB0C03592BD3
:1007EC0004D83368A3EB0C035A2BEBD313689B0789
:1007FC0009D413689B075CBF13685FEA837302D448
:10080C0013689B07F2D583B21B0A53601368DB078E
:10081C0009D11368DB0704BF13685FEAC37302D105
:10082C001368DB07F2D013681B0609D513681B0687
:10083C0044BF13685FEA036302D513681B06F2D446
:10084C00536833683468E41A592C0BD83468E41AAA
:10085C00592C9EBF3468E41A592C03D83468E41A16
:10086C005A2CEFD333683468E41A592C0BD83468FB
:10087C00E41A592C9EBF3468E41A592C03D83468F6
:10088C00E41A5A2CEFD313689B0709D413689B07FF
:10089C005CBF13685FEA837302D413689B07F2D5BD
:1008AC00C0B250601068C00709D11068C00704BFFF
:1008BC0010685FEAC07002D11068C007F2D01068EF
:1008CC00000609D51068000644BF10685FEA006096
:1008DC0002D510680006F2D45068306833681B1AD1
:1008EC00592B3FF65BAF33681B1A592B9EBF3368ED
:1008FC001B1A592B3FF652AF33681B1A5A2BEDD3E8
:10090C004CE70FF027F80EF041FCF0B503AF4DF8B3
:10091C00048D40F6184C4FF00056C4F2020C40F215
:10092C00240ECCF800684FF08046CCF80060C4F27E
:10093C00000EDEF80060A1F10108441EDEF8005044
:10094C00AD1B592D0ED8DEF80050AD1B592D9EBF96
:10095C00DEF80050AD1B592D04D8DEF80050AD1B4D
:10096C005A2DEBD3144443F20802C4F20102156869
:10097C00AD0709D41568AD075CBF15685FEA8575CE
:10098C0002D41568AD07F2D52A2555601568ED0718
:10099C0009D11568ED0704BF15685FEAC57502D16A
:1009AC001568ED07F2D015682D0609D515682D06CA
:1009BC0044BF15685FEA056502D515682D06F2D4AB
:1009CC005568DEF80060DEF80050AD1B592D0ED8CE
:1009DC00DEF80050AD1B592D9EBFDEF80050AD1B4C
:1009EC00592D04D8DEF80050AD1B5A2DEBD34FF423
:1009FC008045CCF800504FF40055CCF800584FF01F
:100A0C008045CCF80050DEF80060DEF80050AD1BDD
:100A1C00592D0ED8DEF80050AD1B592D9EBFDEF8B7
:100A2C000050AD1B592D04D8DEF80050AD1B5A2DCB
:100A3C00EBD343441568AD0709D41568AD075CBF0B
:100A4C0015685FEA857502D41568AD07F2D50025E7
:100A5C0055601568ED0709D11568ED0704BF1568D9
:100A6C005FEAC57502D11568ED07F2D015682D0641
:100A7C0009D515682D0644BF15685FEA056502D5D2
:100A8C0015682D06F2D45568DEF80050DEF80060CB
:100A9C00761B592E0ED8DEF80060761B592E9EBFA1
:100AAC00DEF80060761B592E04D8DEF80060761B49
:100ABC005A2EEBD3DEF80050DEF80060761B592E70
:100ACC000ED8DEF80060761B592E9EBFDEF8006053
:100ADC00761B592E04D8DEF80060761B5A2EEBD309
:100AEC001568AD0709D41568AD075CBF15685FEADA
:100AFC00857502D41568AD07F2D5C0F3072555608E
:100B0C001568ED0709D11568ED0704BF15685FEA94
:100B1C00C57502D11568ED07F2D015682D0609D5FB
:100B2C0015682D0644BF15685FEA056502D5156882
:100B3C002D06F2D45568DEF80050DEF80060761B06
:100B4C00592E0ED8DEF80060761B592E9EBFDEF8AB
:100B5C000060761B592E04D8DEF80060761B5A2EE6
:100B6C00EBD34FF48045CCF800504FF40055CCF843
:100B7C0000584FF08045CCF80050DEF80050DEF8FD
:100B8C000060761B592E0ED8DEF80060761B592EAD
:100B9C009EBFDEF80060761B592E04D8DEF800608C
:100BAC00761B5A2EEBD31568AD0709D41568AD0723
:100BBC005CBF15685FEA857502D41568AD07F2D580
:100BCC00002555601568ED0709D11568ED0704BFC0
:100BDC0015685FEAC57502D11568ED07F2D0156886
:100BEC002D0609D515682D0644BF15685FEA056505
:100BFC0002D515682D06F2D45568DEF80050DEF8E3
:100C0C000060761B592E0ED8DEF80060761B592E2C
:100C1C009EBFDEF80060761B592E04D8DEF800600B
:100C2C00761B5A2EEBD3DEF80050DEF80060761BF4
:100C3C00592E0ED8DEF80060761B592E9EBFDEF8BA
:100C4C000060761B592E04D8DEF80060761B5A2EF5
:100C5C00EBD31568AD0709D41568AD075CBF1568F3
:100C6C005FEA857502D41568AD07F2D5C0B2506045
:100C7C001068C00709D11068C00704BF10685FEA8C
:100C8C00C07002D11068C007F2D01068000609D5F8
:100C9C001068000644BF10685FEA006002D5106857
:100CAC000006F2D45068DEF80000DEF800502D1A71
:100CBC00592D0ED8DEF800502D1A592D9EBFDEF896
:100CCC0000502D1A592D04D8DEF800502D1A5A2D2B
:100CDC00EBD34FF48040CCF800004FF40050CCF82C
:100CEC0000084FF08040CCF80000DEF80000DEF881
:100CFC0000502D1A592D0ED8DEF800502D1A592DF2
:100D0C009EBFDEF800502D1A592D04D8DEF8005085
:100D1C002D1A5A2DEBD31068800709D41068800760
:100D2C005CBF10685FEA807002D410688007F2D54F
:100D3C00002050601068C00709D11068C00704BFBC
:100D4C0010685FEAC07002D11068C007F2D010685A
:100D5C00000609D51068000644BF10685FEA006001
:100D6C0002D510680006F2D45068DEF80000DEF8F8
:100D7C0000502D1A592D0ED8DEF800502D1A592D71
:100D8C009EBFDEF800502D1A592D04D8DEF8005005
:100D9C002D1A5A2DEBD3DEF80000DEF800502D1A78
:100DAC00592D0ED8DEF800502D1A592D9EBFDEF8A5
:100DBC0000502D1A592D04D8DEF800502D1A5A2D3A
:100DCC00EBD31068800709D4106880075CBF1068EB
:100DDC005FEA807002D410688007F2D5C4F3072054
:100DEC0050601068C00709D11068C00704BF1068B4
:100DFC005FEAC07002D11068C007F2D0106800061C
:100E0C0009D51068000644BF10685FEA006002D57F
:100E1C0010680006F2D45068DEF80000DEF80050CE
:100E2C002D1A592D0ED8DEF800502D1A592D9EBFB3
:100E3C00DEF800502D1A592D04D8DEF800502D1A6A
:100E4C005A2DEBD34FF48040CCF800004FF40050F7
:100E5C00CCF800084FF08040CCF80000DEF8000021
:100E6C00DEF800502D1A592D0ED8DEF800502D1A30
:100E7C00592D9EBFDEF800502D1A592D04D8DEF8DE
:100E8C0000502D1A5A2DEBD31068800709D4106826
:100E9C0080075CBF10685FEA807002D4106880071E
:100EAC00F2D5002050601068C00709D11068C00747
:100EBC0004BF10685FEAC07002D11068C007F2D09E
:100ECC001068000609D51068000644BF10685FEA78
:100EDC00006002D510680006F2D45068DEF80000FD
:100EEC00DEF800502D1A592D0ED8DEF800502D1AB0
:100EFC00592D9EBFDEF800502D1A592D04D8DEF85E
:100F0C0000502D1A5A2DEBD3DEF80000DEF80050FD
:100F1C002D1A592D0ED8DEF800502D1A592D9EBFC2
:100F2C00DEF800502D1A592D04D8DEF800502D1A79
:100F3C005A2DEBD31068800709D4106880075CBF6A
:100F4C0010685FEA807002D410688007F2D5E0B2B6
:100F5C0050601068C00709D11068C00704BF106842
:100F6C005FEAC07002D11068C007F2D010680006AA
:100F7C0009D51068000644BF10685FEA006002D50E
:100F8C0010680006F2D45068DEF80000DEF800406D
:100F9C00241A592C0ED8DEF80040241A592C9EBF66
:100FAC00DEF80040241A592C04D8DEF80040241A2C
:100FBC005A2CEBD34FF48040CCF800004FF000508B
:100FCC00CCF800084FF08040CCF80000DEF80000B0
:100FDC00DEF80040241A592C0ED8DEF80040241AF2
:100FEC00592C9EBFDEF80040241A592C04D8DEF888
:100FFC000040241A5A2CEBD31068800709D41068CF
:10100C0080075CBF10685FEA807002D410688007AC
:10101C00F2D52B2050601068C00709D11068C007AA
:10102C0004BF10685FEAC07002D11068C007F2D02C
:10103C001068000609D51068000644BF10685FEA06
:10104C00006002D510680006F2D45068DEF800008B
:10105C00DEF80040241A592C0ED8DEF80040241A71
:10106C00592C9EBFDEF80040241A592C04D8DEF807
:10107C000040241A5A2CEBD34FF48040CCF80000DB
:10108C004FF40050CCF800084FF08040CCF8000032
:10109C00DEF80000DEF80040241A592C0ED8DEF8D9
:1010AC000040241A592C9EBFDEF80040241A592CFB
:1010BC0004D8DEF80040241A5A2CEBD310688007B1
:1010CC0009D4106880075CBF10685FEA807002D496
:1010DC0010688007F2D5002050601068C00709D155
:1010EC001068C00704BF10685FEAC07002D11068B6
:1010FC00C007F2D01068000609D51068000644BF7E
:10110C0010685FEA006002D510680006F2D45068DF
:10111C00DEF80000DEF80040241A592C0ED8DEF858
:10112C000040241A592C9EBFDEF80040241A592C7A
:10113C0004D8DEF80040241A5A2CEBD3DEF8000059
:10114C00DEF80040241A592C0ED8DEF80040241A80
:10115C00592C9EBFDEF80040241A592C04D8DEF816
:10116C000040241A5A2CEBD31068800709D410685D
:10117C0080075CBF10685FEA807002D4106880073B
:10118C00F2D5C1F3072050601068C00709D1106870
:10119C00C00704BF10685FEAC07002D11068C007B6
:1011AC00F2D01068000609D51068000644BF10681C
:1011BC005FEA006002D510680006F2D45068DEF8D1
:1011CC000000DEF80040241A592C0ED8DEF800403E
:1011DC00241A592C9EBFDEF80040241A592C04D82E
:1011EC00DEF80040241A5A2CEBD34FF48040CCF894
:1011FC0000004FF40050CCF800084FF08040CCF8C1
:10120C000000DEF80000DEF80040241A592C0ED83D
:10121C00DEF80040241A592C9EBFDEF80040241A38
:10122C00592C04D8DEF80040241A5A2CEBD3106841
:10123C00800709D4106880075CBF10685FEA807073
:10124C0002D410688007F2D5002050601068C007E7
:10125C0009D11068C00704BF10685FEAC07002D1E2
:10126C001068C007F2D01068000609D51068000697
:10127C0044BF10685FEA006002D510680006F2D423
:10128C005068DEF80000DEF80040241A592C0ED805
:10129C00DEF80040241A592C9EBFDEF80040241AB8
:1012AC00592C04D8DEF80040241A5A2CEBD3DEF863
:1012BC000000DEF80040241A592C0ED8DEF800404D
:1012CC00241A592C9EBFDEF80040241A592C04D83D
:1012DC00DEF80040241A5A2CEBD31068800709D48E
:1012EC00106880075CBF10685FEA807002D41068D9
:1012FC008007F2D5C8B250601068C00709D11068D9
:10130C00C00704BF10685FEAC07002D11068C00744
:10131C00F2D01068000609D51068000644BF1068AA
:10132C005FEA006002D510680006F2D45068DEF85F
:10133C000000DEF80010091A59290ED8DEF800104A
:10134C00091A59299EBFDEF80010091A592904D828
:10135C00DEF80010091A5A29EBD34FF48040CCF870
:10136C0000004FF40050CCF800084FF08040CCF84F
:10137C000000DEF80000DEF80010091A59290ED81A
:10138C00DEF80010091A59299EBFDEF80010091A60
:10139C00592904D8DEF80010091A5A29EBD3106821
:1013AC00800709D4106880075CBF10685FEA807002
:1013BC0002D410688007F2D5002050601068C00776
:1013CC0009D11068C00704BF10685FEAC07002D171
:1013DC001068C007F2D01068000609D51068000626
:1013EC0044BF10685FEA006002D510680006F2D4B2
:1013FC005068DEF80000DEF80010091A59290ED8E2
:10140C00DEF80010091A59299EBFDEF80010091ADF
:10141C00592904D8DEF80010091A5A29EBD3DEF842
:10142C000000DEF80010091A59290ED8DEF8001059
:10143C00091A59299EBFDEF80010091A592904D837
:10144C00DEF80010091A5A29EBD31068800709D46A
:10145C00106880075CBF10685FEA807002D4106867
:10146C008007F2D5C3F3072050601068C00709D17C
:10147C001068C00704BF10685FEAC07002D1106822
:10148C00C007F2D01068000609D51068000644BFEA
:10149C0010685FEA006002D510680006F2D450684C
:1014AC00DEF80000DEF80010091A59290ED8DEF813
:1014BC000010091A59299EBFDEF80010091A592983
:1014CC0004D8DEF80010091A5A29EBD34FF48040E7
:1014DC00CCF800004FF40050CCF800084FF08040DE
:1014EC00CCF80000DEF80000DEF80010091A5929CB
:1014FC000ED8DEF80010091A59299EBFDEF800102C
:10150C00091A592904D8DEF80010091A5A29EBD304
:10151C001068800709D4106880075CBF10685FEA08
:10152C00807002D410688007F2D5002050601068DB
:10153C00C00709D11068C00704BF10685FEAC0700B
:10154C0002D11068C007F2D01068000609D51068E7
:10155C00000644BF10685FEA006002D51068000600
:10156C00F2D45068DEF80000DEF80010091A592990
:10157C000ED8DEF80010091A59299EBFDEF80010AB
:10158C00091A592904D8DEF80010091A5A29EBD384
:10159C00DEF80000DEF80010091A59290ED8DEF822
:1015AC000010091A59299EBFDEF80010091A592992
:1015BC0004D8DEF80010091A5A29EBD310688007FA
:1015CC0009D4106880075CBF10685FEA807002D491
:1015DC0010688007F2D5D8B250601068C00709D1E6
:1015EC001068C00704BF10685FEAC07002D11068B1
:1015FC00C007F2D01068000609D51068000644BF79
:10160C0010685FEA006002D510680006F2D45068DA
:10161C00DEF80000DEF80010091A59290ED8DEF8A1
:10162C000010091A59299EBFDEF80010091A592911
:10163C0004D8DEF80010091A5A29EBD34FF4804075
:10164C00CCF800004FF00050CCF800084FF0804070
:10165C00CCF80000DEF80000DEF80010091A592959
:10166C000ED8DEF80010091A59299EBFDEF80010BA
:10167C00091A592904D8DEF80010091A5A29EBD393
:10168C001068800709D4106880075CBF10685FEA97
:10169C00807002D410688007F2D52C20506010683E
:1016AC00C00709D11068C00704BF10685FEAC0709A
:1016BC0002D11068C007F2D01068000609D5106876
:1016CC00000644BF10685FEA006002D5106800068F
:1016DC00F2D45068DEF80000DEF80010091A59291F
:1016EC000ED8DEF80010091A59299EBFDEF800103A
:1016FC00091A592904D8DEF80010091A5A29EBD313
:10170C004FF48040CCF800004FF40050CCF80008A7
:10171C004FF08040CCF800005DF8048BF0BDB0B504
:10172C0002AF1C461546FFF7F0F804FB05F0002845
:10173C0000F0AA80BA68242343F20805C4F200031F
:10174C00C4F2010591B2D2B24FEA112C02E0013879
:10175C0000F09A801C681968091B59290BD8196864
:10176C00091B59299EBF1968091B592903D81968E7
:10177C00091B5A29EFD32968890709D429688907D5
:10178C005CBF29685FEA817102D429688907F2D5A8
:10179C00C5F804C02968C90709D12968C90704BF5D
:1017AC0029685FEAC17102D12968C907F2D029689A
:1017BC00090609D52968090644BF29685FEA016151
:1017CC0002D529680906F2D469681C681968091BD6
:1017DC0059290BD81968091B59299EBF1968091B6F
:1017EC00592903D81968091B5A29EFD31C681968A1
:1017FC00091B59290BD81968091B59299EBF19684F
:10180C00091B592903D81968091B5A29EFD32968D0
:10181C00890709D4296889075CBF29685FEA817147
:10182C0002D429688907F2D56A602968C90709D1E9
:10183C002968C90704BF29685FEAC17102D1296808
:10184C00C907F2D02968090609D52968090644BFD9
:10185C0029685FEA016102D529680906F2D4696832
:10186C001C681968091B59293FF671AF1968091BC7
:10187C0059299EBF1968091B59293FF668AF196889
:10188C00091B5A29EDD362E740F618404FF480410A
:10189C00C4F202000160B0BDF0B503AF2DE9000B3E
:1018AC0082B004460E464FF000090A2021466422FD
:1018BC000123CDF80090FFF732FF651CA6F102085A
:1018CC000A20012229464346CDF80090FFF727FF56
:1018DC006D20294601224346CDF80090FFF71FFFEB
:1018EC0030196422411E0A200123CDF80090FFF725
:1018FC0016FF4FF6FF790B20294662220123CDF803
:10190C000090FFF70CFF351FA61C0B20012231465F
:10191C002B46CDF80090FFF702FF6C2031460122D8
:10192C002B46CDF80090FFF7FAFE08EB04010B20D4
:10193C0062220123CDF80090FFF7F1FE02B0BDE862
:10194C00000BF0BDF0B503AF2DE9000F83B0D0F85C
:10195C00349041F2F8188246282001EB020B0C4619
:10196C0000EB09150726C0F60108029210E043EAC5
:10197C008112841C304629464FF6FF73CDF8008047
:10198C00202A38BF7F22FEF7C4FE08365C4523D0E0
:10199C00204614F9011BB1F1FF3FCAB2EADC4378CF
:1019AC0002F01F01E02A03F03F03E0D38478F02A11
:1019BC0004F03F0444EA83130AD3C27801F0070110
:1019CC00041D02F03F0242EA831242EA8142D1E74F
:1019DC0043EA0132C41CCDE7B9F10F0F9FBF0AEBEC
:1019EC000900029980F83810DAF834009FBF0130F2
:1019FC00CAF8340003B0BDE8000F98BFF0BD4846EC
:101A0C0010210DF0C3FBF0B503AF2DE9000F81B031
:101A1C0041F6700B8D189246894680460726C0F613
:101A2C00010B0C4610E043EA8112841C304607215E
:101A3C004FF6FF73CDF800B0202A38BF7F22FEF797
:101A4C0068FE0836AC4223D0204614F9011BB1F1D4
:101A5C00FF3FCAB2EADC437802F01F01E02A03F030
:101A6C003F03E0D38478F02A04F03F0444EA831364
:101A7C000AD3C27801F00701041D02F03F0242EACA
:101A8C00831242EA8142D1E743EA0132C41CCDE71A
:101A9C00D8F80C00A0EB0A01002909DD0020CA00CF
:101AAC0000904FEACA00073007211023FFF737FEDA
:101ABC00C8E9029A01B0BDE8000FF0BDB0B502AFA5
:101ACC0082B00446C8B2DFE810F00C00AD00620032
:101ADC007B003000C600DF00940011014900F800C3
:101AEC001700002040F229110090204610221023EC
:101AFC00FFF715FE02B0B0BD41F2F8152046C0F656
:101B0C00010540F22911AF224FF6FF730095FEF745
:101B1C0000FE009504F1080040F22911B0224FF6A6
:101B2C00FF73FEF7F6FD02B0B0BD41F2F81520468A
:101B3C00C0F6010540F229119B224FF6FF73009568
:101B4C00FEF7E7FD009504F1080040F229119C22F4
:101B5C004FF6FF73FEF7DDFD02B0B0BD41F2F81594
:101B6C002046C0F6010540F22911B1224FF6FF7351
:101B7C000095FEF7CEFD009504F1080040F2291106
:101B8C00B2224FF6FF73FEF7C4FD02B0B0BD41F2B6
:101B9C00F8152046C0F6010540F22911A7224FF690
:101BAC00FF730095FEF7B5FD009504F1080040F2B7
:101BBC002911A8224FF6FF73FEF7ABFD02B0B0BDA2
:101BCC0041F2F8152046C0F6010540F22911872292
:101BDC004FF6FF730095FEF79CFD009504F108008D
:101BEC0040F2291188224FF6FF73FEF792FD02B0E6
:101BFC00B0BD41F2F8152046C0F6010540F229119E
:101C0C008F224FF6FF730095FEF783FD009504F1CC
:101C1C00080040F2291190224FF6FF73FEF779FD70
:101C2C0002B0B0BD41F2F8152046C0F6010540F2F5
:101C3C00291199224FF6FF730095FEF76AFD04F106
:101C4C00080040F229119A2200954FF6FF73FEF717
:101C5C0060FD02B0B0BD41F2F8152046C0F601059A
:101C6C0040F2291195224FF6FF730095FEF751FDB6
:101C7C00009504F1080040F2291196224FF6FF73EB
:101C8C00FEF747FD02B0B0BD41F2F8152046C0F694
:101C9C00010540F22911A5224FF6FF730095FEF7BE
:101CAC0038FD009504F1080040F22911A6224FF6E8
:101CBC00FF73FEF72EFD02B0B0BD41F2F8152046C1
:101CCC00C0F6010540F2291191224FF6FF730095E1
:101CDC00FEF71FFD009504F1080040F22911922235
:101CEC004FF6FF73FEF715FD02B0B0BD41F2F815CB
:101CFC002046C0F6010540F2291185224FF6FF73EC
:101D0C000095FEF706FD009504F1080040F229113C
:101D1C0086224FF6FF73FEF7FCFC02B0B0BDF0B5A7
:101D2C0003AF4DF8048D4468002C55D006680D4661
:101D3C00804609783078814202D0EF20FFF7BEFE52
:101D4C00012C4DD06978707881421CBF4FF487709C
:101D5C00FFF7B4FE022C47D0A978B07881421CBFA3
:101D6C0040F22D10FFF7AAFE032C41D0E978F07851
:101D7C0081421CBF4FF4A670FFF7A0FE042C3BD091
:101D8C002979307981421CBF40F26B10FFF796FE27
:101D9C00052C35D06979707981421CBF4FF4C57020
:101DAC00FFF78CFE062C2FD0A979B07981421CBF8D
:101DBC0040F2A910FFF782FE072C29D0E979F079BF
:101DCC0081421CBF4FF4E470FFF778FE0820C8E98D
:101DDC0000505DF8048BF0BD002021460DF0D6F9C3
:101DEC00012021460DF0D2F9022021460DF0CEF94A
:101DFC00032021460DF0CAF9042021460DF0C6F946
:101E0C00052021460DF0C2F9062021460DF0BEF941
:101E1C00072021460DF0BAF9F0B503AF2DE9000FFC
:101E2C008FB04EF6AC220646805CB3180A96CDE90C
:101E3C000831DFE810F06403A6030D000800080069
:101E4C00080008009900304601F0DFFA00F057BC9A
:101E5C0000242C202E21202210230094FFF75FFC5D
:101E6C000A202921642202230094FFF758FC0A203F
:101E7C002B21022216230094FFF751FC6C202B21FE
:101E8C00022216230094FFF74AFC0A204121642207
:101E9C0002230094FFF743FC302052211822102318
:101EAC000094FFF73CFC0A204D216422022300948D
:101EBC00FFF735FC0A204F21022216230094FFF76E
:101ECC002EFC6C204F21022216230094FFF727FCD6
:101EDC000A206521642202230094FFF720FC3020A5
:101EEC007621182210230094FFF719FC0A20712187
:101EFC00642202230094FFF712FC0A2073210222B1
:101F0C0016230094FFF70BFC6C207321022216237E
:101F1C000094FFF704FC0A20892164220223009418
:101F2C00FFF7FDFB20209A21382210230094FFF7A5
:101F3C00F6FB0A209521642202230094FFF7EFFBA5
:101F4C000A209721022216230094FFF7E8FB6C204D
:101F5C009721022216230094FFF7E1FB00940A203C
:101F6C00AD216422022309E3242443F2080540F640
:101F7C00184B0026C4F20004C4F20105C4F2020B93
:101F8C004FF480494FF0000807E008F10108CBF846
:101F9C000090B8F1080F00F05281C8EBC80A182065
:101FAC003021102200EBCA001023FEF7AEFC4FEAE2
:101FBC00CA004FF4807102E0013900F09980226868
:101FCC0023689B1A592B0BD823689B1A592B9EBF3D
:101FDC0023689B1A592B03D823689B1A5A2BEFD3CF
:101FEC002A68920709D42A6892075CBF2A685FEABC
:101FFC00827202D42A689207F2D56E602A68D207E0
:10200C0009D12A68D20704BF2A685FEAC27202D1DA
:10201C002A68D207F2D02A68120609D52A68120655
:10202C0044BF2A685FEA026202D52A681206F2D41B
:10203C006A68226823689B1A592B0BD823689B1A51
:10204C00592B9EBF23689B1A592B03D823689B1AC4
:10205C005A2BEFD3226823689B1A592B0BD8236871
:10206C009B1A592B9EBF23689B1A592B03D82368A4
:10207C009B1A5A2BEFD32A68920709D42A68920725
:10208C005CBF2A685FEA827202D42A689207F2D592
:10209C006E602A68D20709D12A68D20704BF2A6861
:1020AC005FEAC27202D12A68D207F2D02A681206FD
:1020BC0009D52A68120644BF2A685FEA026202D573
:1020CC002A681206F2D46A68226823689B1A592B74
:1020DC003FF672AF23689B1A592B9EBF23689B1A3D
:1020EC00592B3FF669AF23689B1A5A2BEDD363E744
:1020FC002D30312110221023CBF80090FEF705FC77
:10210C004FF4807002E001383FF43FAF2168226841
:10211C00521A592A0BD82268521A592A9EBF226881
:10212C00521A592A03D82268521A5A2AEFD329680C
:10213C00890709D4296889075CBF29685FEA81711E
:10214C0002D429688907F2D56E602968C90709D1BC
:10215C002968C90704BF29685FEAC17102D12968DF
:10216C00C907F2D02968090609D52968090644BFB0
:10217C0029685FEA016102D529680906F2D4696809
:10218C0021682268521A592A0BD82268521A592AE5
:10219C009EBF2268521A592A03D82268521A5A2A08
:1021AC00EFD321682268521A592A0BD82268521A86
:1021BC00592A9EBF2268521A592A03D82268521AE9
:1021CC005A2AEFD32968890709D4296889075CBF83
:1021DC0029685FEA817102D429688907F2D56E609B
:1021EC002968C90709D12968C90704BF29685FEAAA
:1021FC00C17102D12968C907F2D02968090609D52D
:10220C002968090644BF29685FEA016102D529687B
:10221C000906F2D4696821682268521A592A3FF6D5
:10222C0072AF2268521A592A9EBF2268521A592A32
:10223C003FF669AF2268521A5A2AEDD363E700269B
:10224C004FF480494FF0000807E008F10108CBF883
:10225C000090B8F1080F00F05282C8EBC80A1820A1
:10226C005021102200EBCA001023FEF74EFB4FEA60
:10227C00CA004FF4807102E0013900F099802268A5
:10228C0023689B1A592B0BD823689B1A592B9EBF7A
:10229C0023689B1A592B03D823689B1A5A2BEFD30C
:1022AC002A68920709D42A6892075CBF2A685FEAF9
:1022BC00827202D42A689207F2D56E602A68D2071D
:1022CC0009D12A68D20704BF2A685FEAC27202D118
:1022DC002A68D207F2D02A68120609D52A68120693
:1022EC0044BF2A685FEA026202D52A681206F2D459
:1022FC006A68226823689B1A592B0BD823689B1A8F
:10230C00592B9EBF23689B1A592B03D823689B1A01
:10231C005A2BEFD3226823689B1A592B0BD82368AE
:10232C009B1A592B9EBF23689B1A592B03D82368E1
:10233C009B1A5A2BEFD32A68920709D42A68920762
:10234C005CBF2A685FEA827202D42A689207F2D5CF
:10235C006E602A68D20709D12A68D20704BF2A689E
:10236C005FEAC27202D12A68D207F2D02A6812063A
:10237C0009D52A68120644BF2A685FEA026202D5B0
:10238C002A681206F2D46A68226823689B1A592BB1
:10239C003FF672AF23689B1A592B9EBF23689B1A7A
:1023AC00592B3FF669AF23689B1A5A2BEDD363E781
:1023BC002D30512110221023CBF80090FEF7A5FAF6
:1023CC004FF4807002E001383FF43FAF216822687F
:1023DC00521A592A0BD82268521A592A9EBF2268BF
:1023EC00521A592A03D82268521A5A2AEFD329684A
:1023FC00890709D4296889075CBF29685FEA81715C
:10240C0002D429688907F2D56E602968C90709D1F9
:10241C002968C90704BF29685FEAC17102D129681C
:10242C00C907F2D02968090609D52968090644BFED
:10243C0029685FEA016102D529680906F2D4696846
:10244C0021682268521A592A0BD82268521A592A22
:10245C009EBF2268521A592A03D82268521A5A2A45
:10246C00EFD321682268521A592A0BD82268521AC3
:10247C00592A9EBF2268521A592A03D82268521A26
:10248C005A2AEFD32968890709D4296889075CBFC0
:10249C0029685FEA817102D429688907F2D56E60D8
:1024AC002968C90709D12968C90704BF29685FEAE7
:1024BC00C17102D12968C907F2D02968090609D56A
:1024CC002968090644BF29685FEA016102D52968B9
:1024DC000906F2D4696821682268521A592A3FF613
:1024EC0072AF2268521A592A9EBF2268521A592A70
:1024FC003FF669AF2268521A5A2AEDD363E70024DB
:10250C0040F2C110002101221E230094FFF707F9AD
:10251C0040F26B100721102210230094FFF7FFF8F4
:10252C004FF4D170002101221E230094FFF7F7F81D
:10253C004FF4C5700721102210230094FFF7EFF819
:10254C0040F28310002101221E230094FFF7E7F8CC
:10255C0040F2A9100721102210230094FFF7DFF896
:10256C004FF4B270002101221E230094FFF7D7F81C
:10257C004FF4E4700721102210230094FFF7CFF8DA
:10258C00BDE0746B002C00F0B88096F83800002584
:10259C00282110230095C2000720FFF7C0F8012C5A
:1025AC0000F0AB8096F83900382110230095C2005A
:1025BC000720FFF7B4F8022C00F09F8096F83A0041
:1025CC00482110230095C2000720FFF7A8F8032C20
:1025DC0000F0938096F83B00582110230095C20020
:1025EC000720FFF79CF8042C00F0878096F83C003D
:1025FC00682110230095C2000720FFF790F8052CE6
:10260C007BD096F83D00782110230095C20007205E
:10261C00FFF785F8062C70D096F83E008821102321
:10262C000095C2000720FFF77AF8072C65D096F8C2
:10263C003F00982110230095C2000720FFF76FF888
:10264C00082C5AD096F84000A82110230095C200FF
:10265C000720FFF764F8092C4FD096F84100B821F9
:10266C0010230095C2000720FFF759F80A2C44D01C
:10267C0096F84200C82110230095C2000720FFF7EE
:10268C004EF80B2C39D096F84300D8211023009526
:10269C00C2000720FFF743F80C2C2ED096F844000C
:1026AC00E82110230095C2000720FFF738F80D2C05
:1026BC0023D096F84500F82110230095C20007207E
:1026CC00FFF72DF80E2C18D096F846004FF48471B5
:1026DC0010230095C2000720FFF721F80F2C0CD017
:1026EC0096F847004FF48C7110230095C200072018
:1026FC00FFF715F8102C40F0EF8500207063DDE932
:10270C0008100870C0B2DDF82890DFE810F008005F
:10271C006B052500B5011000AA05BF05CA01484686
:10272C000FB0BDE8000FBDE8F04001F093BA41F6E0
:10273C0085314846C0F601010B22FFF764F941F6DA
:10274C00D0314846C0F6010104220FB0BDE8000F9D
:10275C00BDE8F04000F0C9BE41F6C0414846C0F6A5
:10276C0001011422FFF74FF941F690014846C0F6DB
:10277C000101FFF7D4FA242643F20804D9F8240007
:10278C000025C4F20006C4F201044FF0070A4FF012
:10279C00010B04902AE040F21F490A206422022314
:1027AC004FEA8C08CDF80090FEF7B9FF08F12B0525
:1027BC000A20022216232946CDF80090FEF7AFFF1F
:1027CC00CDF8009029466C2002221623059DFEF7B9
:1027DC00A6FF08F141010A2064220223CDF80090E3
:1027EC00FEF79DFF0135042D00F0428141F6A0401B
:1027FC0005EBC50CC0F60100059500EBC500416862
:10280C00002900F02581059841F6A042C0F601028E
:10281C0052F83000421806922E22034602EB8C022C
:10282C0008924FF6FC72CDF81CC0C7F6FF7202EA94
:10283C008101C1F13C0210E040F618404FF4804198
:10284C00C4F2020001600A9A099B06980832DDF86E
:10285C001CC08342184600F0FB8013F9011BB1F138
:10286C00FF3FCDB21FDC417805F01F0EE02D01F0CB
:10287C003F0111D38378F02D03F03F0343EA81111C
:10288C000ED3C37803F03F0343EA81130EF0070124
:10289C0043EA8145031D06E041EA8E15831C02E0E4
:1028AC0041EA0E35C31CCDE90932104608990822BD
:1028BC001023FEF72AF84FF60060202DCFF6FF709C
:1028CC0000EB051038BF4FF4BE60B0F5C06F00F2DE
:1028DC00FB8441F26F214FF0000EC0F6010101EBB9
:1028EC00000CC0F5C06104E00EF1010EBEF1100F3A
:1028FC00A2D0002502E00135082DF5D00EEBD50055
:10290C00884280F0DF841CF800902AEA05023368C4
:10291C00D6F80080A8EB030059280BD83068C01AF1
:10292C0059289EBF3068C01A592803D83068C01A7D
:10293C005A28EDD30BFA02F22068800709D42068DC
:10294C0080075CBF20685FEA807002D42068800733
:10295C00F2D519EA020018BFFF2060602268D20786
:10296C0009D12268D20704BF22685FEAC27202D181
:10297C002268D207F2D02268120609D52268120604
:10298C0044BF22685FEA026202D522681206F2D4C2
:10299C006268326833689B1A592B0BD833689B1AC0
:1029AC00592B9EBF33689B1A592B03D833689B1A3B
:1029BC005A2BEFD3326833689B1A592B0BD83368D8
:1029CC009B1A592B9EBF33689B1A592B03D833681B
:1029DC009B1A5A2BEFD32268920709D422689207CC
:1029EC005CBF22685FEA827202D422689207F2D539
:1029FC0060602068C00709D12068C00704BF206848
:102A0C005FEAC07002D12068C007F2D020680006CF
:102A1C0009D52068000644BF20685FEA006002D533
:102A2C0020680006F2D4606830683268121A592A9D
:102A3C003FF661AF3268121A592A9EBF3268121AD9
:102A4C00592A3FF658AF3268121A5A2AEDD352E778
:102A5C00292000EB8C01DDE9040585423FF49BAE97
:102A6C0008461A21FEF718FF0135042D7FF4BEAE7F
:102A7C000FB0BDE8000FF0BD41F679314846C0F605
:102A8C0001010C22FEF7BFFF41F6F0214846C0F6CB
:102A9C00010106220FB0BDE8000FBDE8F04000F0C8
:102AAC0024BD41F658410026C0F6010148461022CB
:102ABC00C9F82060FEF7A7FF41F698014846C0F61A
:102ACC000101FFF72CF9A7F12A012425C81C43F2B8
:102ADC00080820F003004FF0010A401A0590D9F8BD
:102AEC001800C4F200050490C4F20108D9F82000C3
:102AFC003022039031204FF00709012100EB4610E2
:102B0C000291099002EB46100790F0000026069007
:102B1C0004E0089E3022082E00F05A830698F62313
:102B2C000896C6EBC60B34184CF6CD40CCF6CC4010
:102B3C00A4FB0001C80842EAD10100FB034007F8DE
:102B4C002A1C07990822102340F0300007F8290CA2
:102B5C00182000EBCB00FDF7D8FE03984FF0FF36A2
:102B6C0040F648014FEACB0BA04208BF40F21F468B
:102B7C000498C0F60101E040C0074FF4236008BF81
:102B8C004FF4176008440021A0F5007C0A9003E084
:102B9C000131102900F0C980002202E00132082A1C
:102BAC00F6D001EBD20029EA02041CF800300AFA34
:102BBC0004F4286823402C68241A592C0BD82C6850
:102BCC00241A592C9EBF2C68241A592C03D82C6813
:102BDC00241A5A2CEFD3D8F8000080070CD4D8F85C
:102BEC00000080075CBFD8F800005FEA807003D457
:102BFC00D8F800008007EED5002B18BF334698B2EA
:102C0C00000AC8F80400D8F80000C0070CD1D8F8A6
:102C1C000000C00704BFD8F800005FEAC07003D101
:102C2C00D8F80000C007EED0D8F8000000060CD58C
:102C3C00D8F80000000644BFD8F800005FEA006036
:102C4C0003D5D8F800000006EED4D8F804002868A4
:102C5C002C68241A592C0BD82C68241A592C9EBF7A
:102C6C002C68241A592C03D82C68241A5A2CEFD30C
:102C7C0028682C68241A592C0BD82C68241A592C27
:102C8C009EBF2C68241A592C03D82C68241A5A2C51
:102C9C00EFD3D8F8000080070CD4D8F800008007D8
:102CAC005CBFD8F800005FEA807003D4D8F800004D
:102CBC008007EED5D8B2C8F80400D8F80000C007D9
:102CCC000CD1D8F80000C00704BFD8F800005FEAA8
:102CDC00C07003D1D8F80000C007EED0D8F80000BF
:102CEC0000060CD5D8F80000000644BFD8F8000048
:102CFC005FEA006003D5D8F800000006EED4D8F8DF
:102D0C00040028682B681B1A592B3FF647AF2B6819
:102D1C001B1A592B9EBF2B681B1A592B3FF63EAF23
:102D2C002B681B1A5A2BEDD338E740F618404FF49A
:102D3C008041C4F20200082201600BF120000799C7
:102D4C001023FDF7E2FD0A980021DDF820E0A0F544
:102D5C00F87C03E00131102900F0C980002202E068
:102D6C000132082AF6D001EBD20029EA02041CF841
:102D7C0000300AFA04F4286823402C68241A592CD1
:102D8C000BD82C68241A592C9EBF2C68241A592C49
:102D9C0003D82C68241A5A2CEFD3D8F800008007DB
:102DAC000CD4D8F8000080075CBFD8F800005FEAAC
:102DBC00807003D4D8F800008007EED5002B18BF24
:102DCC00334698B2000AC8F80400D8F80000C007CF
:102DDC000CD1D8F80000C00704BFD8F800005FEA97
:102DEC00C07003D1D8F80000C007EED0D8F80000AE
:102DFC0000060CD5D8F80000000644BFD8F8000037
:102E0C005FEA006003D5D8F800000006EED4D8F8CD
:102E1C00040028682C68241A592C0BD82C68241A06
:102E2C00592C9EBF2C68241A592C03D82C68241AB0
:102E3C005A2CEFD328682C68241A592C0BD82C68E0
:102E4C00241A592C9EBF2C68241A592C03D82C6890
:102E5C00241A5A2CEFD3D8F8000080070CD4D8F8D9
:102E6C00000080075CBFD8F800005FEA807003D4D4
:102E7C00D8F800008007EED5D8B2C8F80400D8F80E
:102E8C000000C0070CD1D8F80000C00704BFD8F868
:102E9C0000005FEAC07003D1D8F80000C007EED084
:102EAC00D8F8000000060CD5D8F80000000644BF86
:102EBC00D8F800005FEA006003D5D8F800000006DF
:102ECC00EED4D8F8040028682B681B1A592B3FF64F
:102EDC0047AF2B681B1A592B9EBF2B681B1A592BFB
:102EEC003FF63EAF2B681B1A5A2BEDD338E740F652
:102EFC0018404FF48041C4F202000EF1010E016043
:102F0C00A7F12A03059E00201956002923D4311A53
:102F1C00890703D001300228F6D32DE01956002979
:102F2C00F9D4012828D0191891F90120002AF1D4DC
:102F3C0010B391F90220002A09D4421C1CD091F93B
:102F4C000310002905D404300228E7D114E0023024
:102F5C00E1E70330DFE741F6F652C9B2C0F60102F1
:102F6C00515C022908BF002840F0A58117F9290CF3
:102F7C0010F1410F00F39F810BF12D0B0024CDF8C4
:102F8C0020E00EE040F618404FF48041C4F20200FD
:102F9C000BF1080B0160A7F12A030A9C022C3FF4E9
:102FAC00B8AD1957601CB1F1FF3FCEB201DD0A90EC
:102FBC0022E0185CA21CE02E00F03F0106F01F007E
:102FCC0014D39A5CF02E02F03F0242EA811104F114
:102FDC0003020ED39A5C00F0070004340A9402F04A
:102FEC003F0242EA811141EA804605E041EA80163F
:102FFC0001E041EA00360A9209995846082210234A
:10300C00FDF783FC4FF60060202ECFF6FF7000EB2F
:10301C00061038BF4FF4BE60B0F51B6F00F258813C
:10302C0040F648014FF0000EC0F6010101EB000C18
:10303C00C0F51B6104E00EF1010EBEF1100FA1D022
:10304C00002602E00136082EF5D00EEBD6008842A1
:10305C0080F038811CF8000029EA06042A682B68E5
:10306C009B1A592B0BD82B689B1A592B9EBF2B687C
:10307C009B1A592B03D82B689B1A5A2BEFD30AFA9D
:10308C0004F2D8F800309B070CD4D8F800309B071A
:10309C005CBFD8F800305FEA837303D4D8F80030F3
:1030AC009B07EED5104018BFFF20C8F80400D8F8D5
:1030BC000020D2070CD1D8F80020D20704BFD8F8D2
:1030CC0000205FEAC27203D1D8F80020D207EED0FC
:1030DC00D8F8002012060CD5D8F80020120644BFF0
:1030EC00D8F800205FEA026203D5D8F80020120657
:1030FC00EED4D8F804202A682B689B1A592B0BD8CD
:10310C002B689B1A592B9EBF2B689B1A592B03D8E3
:10311C002B689B1A5A2BEFD32A682B689B1A592BB6
:10312C000BD82B689B1A592B9EBF2B689B1A592BBB
:10313C0003D82B689B1A5A2BEFD3D8F80020920790
:10314C000CD4D8F8002092075CBFD8F800205FEAB6
:10315C00827203D4D8F800209207EED5C8F8040088
:10316C00D8F80000C0070CD1D8F80000C00704BF85
:10317C00D8F800005FEAC07003D1D8F80000C0078F
:10318C00EED0D8F8000000060CD5D8F800000006E8
:10319C0044BFD8F800005FEA006003D5D8F80000FF
:1031AC000006EED4D8F8040028682A68121A592AA6
:1031BC003FF648AF2A68121A592A9EBF2A68121A7B
:1031CC00592A3FF63FAF2A68121A5A2AEDD339E72B
:1031DC00029801260021C0074FF031007FF48EAC1D
:1031EC00FFF746BC41F6A0014846C0F60101FEF7C8
:1031FC0096FD41F608314846C0F601010522FEF75E
:10320C0002FC41F60D314846C0F601011D22FEF7C5
:10321C0099FB41F62A314846C0F601013222FEF7ED
:10322C0091FBD9F8340010283FBF4844002180F8A6
:10323C003810D9F834003FBF0130C9F8340041F6DA
:10324C005C31C0F601013FBF48461D220FB0BDE8FE
:10325C00000F3CBFBDE8F040FEF774BB10210BF033
:10326C0095FF41F61C414846C0F601010F22FEF7BE
:10327C00CAFB41F644414846C0F6010101220FB099
:10328C00BDE8000FBDE8F04000F02FB941F6E03189
:10329C004846C0F601010B22FEF7B5FB41F614417E
:1032AC004846C0F6010102220FB0BDE8000FBDE890
:1032BC00F04000F01AB941F680410CA8C0F60101AB
:1032CC000CF044FB0BF062FF4FF4C0610CF042FBBE
:1032DC004FF41B610CF03EFB102010210BF056FF3D
:1032EC00F0B503AF2DE9000B82B00B4602464169E5
:1032FC00806A88427ED208287ED21169DBB251F8EE
:10330C0020100E687168994279D9024492F82C20E9
:10331C00914277D9316800EB8000357A01EBC30319
:10332C0001EBC206D6F804805B6851F832604FF0AE
:10333C003B0202EBC009A3EB08004FEAC8014FEABD
:10334C00C0022DB1C1F16C05002A0CDDA81A04E0F5
:10335C00002A47DD01F10C000C25002110230091FF
:10336C004946FEF7DCF9B8F1000F3FD006EB080434
:10337C0041F2F818C0F6010810E043EA8112861CED
:10338C00284649464FF6FF73CDF80080202A38BFF7
:10339C007F22FDF7BEF90835A64227D0304616F934
:1033AC00011BB1F1FF3FCAB2EADC437802F01F0106
:1033BC00E02A03F03F03E0D38678F02A06F03F06BC
:1033CC0046EA83130AD3C27801F00701061D02F006
:1033DC003F0242EA831242EA8142D1E743EA0132D8
:1033EC00C61CCDE70C25B8F1000FBFD102B0BDE86B
:1033FC00000BF0BD0BF0CAFE08210BF0C7FE1846FF
:10340C000BF0C4FE10460BF0C1FEF0B503AF2DE976
:10341C00000F81B0416900295FD0D0F8108000F115
:10342C002C064FEA81094B244FF0000A58F8040B84
:10343C00A4F122011023D0F800B08068CDF800A0D0
:10344C00C2000A20FEF76BF9A4F112010A206422D3
:10345C000223CDF800A0FEF762F9A4F110050A20B2
:10346C00022210232946CDF800A0FEF758F96C2053
:10347C00294602221023CDF800A0FEF750F90A20AD
:10348C00214664220223CDF800A0FEF748F940F251
:10349C008B10844225D0DBF804103078814222D97D
:1034AC00DBF8001010239BF8082001EBC000002A69
:1034BC004FF06C0241684FF00C00CDF800A018BF23
:1034CC00A2EBC100CA002946FEF729F9B9F104099B
:1034DC0004F1280406F10106A8D101B0BDE8000FE3
:1034EC00F0BD082008210BF051FEF0B503AF2DE91B
:1034FC00000F8BB00D4641F6B00106460020144675
:10350C00B062C0F601013046C6E90454FEF707FC70
:10351C0005EB8400242443F20808019006F12C00EA
:10352C000390B06AC4F20004C4F201084FF007091A
:10353C004FF0010A0022029007E0049D079A0198BF
:10354C0004350132854200F0AD82082A00F0B282C7
:10355C002B680020039904950792885402EB820093
:10356C009968CDE90503002900F02D8106982922E0
:10357C00059B4FF00A0B406802EBC3020992014411
:10358C00089102460EE040F618404FF48041C4F218
:10359C0002000BF1080B01600A9A0898824210464F
:1035AC0000F0118112F9011BB1F1FF3FCDB21FDC0C
:1035BC00427805F01F01E02D02F03F0211D3837811
:1035CC00F02D03F03F0343EA82120ED3C37801F0CF
:1035DC00070103F03F0343EA821242EA8145021DD0
:1035EC0006E042EA8115821C02E042EA0135C21C67
:1035FC00099958460A9208221023FDF786F94FF6CE
:10360C000060202DCFF6FF7000EB051038BF4FF493
:10361C00BE60B0F51B6F00F2498240F648010023F2
:10362C00C0F6010101EB000CC0F51B6102E0013397
:10363C00102BA8D0002502E00135082DF7D003EBA4
:10364C00D500884280F02C821CF8000029EA050283
:10365C0026680AFA02F210402268921B592A0BD8EB
:10366C002268921B592A9EBF2268921B592A03D8A2
:10367C002268921B5A2AEFD3D8F8002092070CD458
:10368C00D8F8002092075CBFD8F800205FEA82725D
:10369C0003D4D8F800209207EED5002818BFFF20DD
:1036AC00C8F80400D8F80020D2070CD1D8F80020B4
:1036BC00D20704BFD8F800205FEAC27203D1D8F851
:1036CC000020D207EED0D8F8002012060CD5D8F87E
:1036DC000020120644BFD8F800205FEA026203D52E
:1036EC00D8F800201206EED4D8F8042026682268F8
:1036FC00921B592A0BD82268921B592A9EBF22680A
:10370C00921B592A03D82268921B5A2AEFD3266897
:10371C002268921B592A0BD82268921B592A9EBFE9
:10372C002268921B592A03D82268921B5A2AEFD37B
:10373C00D8F8002092070CD4D8F8002092075CBF70
:10374C00D8F800205FEA827203D4D8F800209207E0
:10375C00EED5C8F80400D8F80000C0070CD1D8F892
:10376C000000C00704BFD8F800005FEAC07003D1A6
:10377C00D8F80000C007EED0D8F8000000060CD531
:10378C00D8F80000000644BFD8F800005FEA0060DB
:10379C0003D5D8F800000006EED4D8F80400206851
:1037AC002268121A592A3FF647AF2268121A592A70
:1037BC009EBF2268121A592A3FF63EAF2268121A8F
:1037CC005A2AEDD338E70598079AC600029806F1F5
:1037DC003901904224D140F21F4B0A20642202236B
:1037EC00CDF800B0FDF79BFF06F13B050A20022245
:1037FC0010232946CDF800B0FDF791FF6C20294627
:10380C0002221023CDF800B0FDF789FF06F14B0121
:10381C000A2064220223CDF800B0FDF780FF03E0FC
:10382C0008461421FEF738F8069801684868002805
:10383C0000F0448108684268002A3FF47EAE0068BC
:10384C0006F13B03097A4FF00C0B099383180029FE
:10385C0008934FF06C0118BFA1EBC20B02460EE0AF
:10386C0040F618404FF48041C4F202000BF1080BF3
:10387C0001600A9A0898824210463FF45EAE12F933
:10388C00011BB1F1FF3FCDB21FDC427805F01F01E7
:10389C00E02D02F03F0211D38378F02D03F03F03AB
:1038AC0043EA82120ED3C37801F0070103F03F0301
:1038BC0043EA821242EA8145021D06E042EA811582
:1038CC00821C02E042EA0135C21C099958460A9250
:1038DC0008221023FDF719F84FF60060202DCFF6C3
:1038EC00FF7000EB051038BF4FF4BE60B0F51B6FD6
:1038FC0000F2DC8040F648010023C0F6010101EB28
:10390C00000CC0F51B6102E00133102BA8D0002580
:10391C0002E00135082DF7D003EBD500884280F08A
:10392C00BF801CF8000029EA050226680AFA02F298
:10393C0010402268921B592A0BD82268921B592AD4
:10394C009EBF2268921B592A03D82268921B5A2ABE
:10395C00EFD3D8F8002092070CD4D8F800209207A7
:10396C005CBFD8F800205FEA827203D4D8F800203C
:10397C009207EED5002818BFFF20C8F80400D8F82D
:10398C000020D2070CD1D8F80020D20704BFD8F8F9
:10399C0000205FEAC27203D1D8F80020D207EED023
:1039AC00D8F8002012060CD5D8F80020120644BF17
:1039BC00D8F800205FEA026203D5D8F8002012067E
:1039CC00EED4D8F8042026682268921B592A0BD80A
:1039DC002268921B592A9EBF2268921B592A03D82F
:1039EC002268921B5A2AEFD326682268921B592A06
:1039FC000BD82268921B592A9EBF2268921B592A07
:103A0C0003D82268921B5A2AEFD3D8F800209207C9
:103A1C000CD4D8F8002092075CBFD8F800205FEADD
:103A2C00827203D4D8F800209207EED5C8F80400AF
:103A3C00D8F80000C0070CD1D8F80000C00704BFAC
:103A4C00D8F800005FEAC07003D1D8F80000C007B6
:103A5C00EED0D8F8000000060CD5D8F8000000060F
:103A6C0044BFD8F800005FEA006003D5D8F8000026
:103A7C000006EED4D8F8040020682268121A592ADD
:103A8C003FF647AF2268121A592A9EBF2268121AB3
:103A9C00592A3FF63EAF2268121A5A2AEDD338E75C
:103AAC000BF074FB0BB0BDE8000FF0BD4FF41B61C5
:103ABC000BF050FF082008210BF068FB00200021C0
:103ACC000BF064FBF0B503AF2DE9000782B04FF0AB
:103ADC00FF3252FA81F1052941D8DFE801F0035792
:103AEC00449240AC856A4FF0390A4469804605EB34
:103AFC0085010AEBC10108461421FDF7CDFE40F209
:103B0C001F49002DCDF8009018BF2C46661E0A20C8
:103B1C006422022306EB86050AEBC501FDF7FFFDC7
:103B2C003B2000EBC5040A20022221461023CDF8CD
:103B3C000090FDF7F4FD6C20214602221023CDF8F5
:103B4C000090FDF7ECFD4B2000EBC5010A20642230
:103B5C000223CDF80090FDF7E2FDC8F8286002B012
:103B6C00BDE80007F0BD826A072A6CD841698A4219
:103B7C006DD2066900F12C03995C56F8226000297D
:103B8C003668367918BF0E46013E4CE041694FF05D
:103B9C003908826A0139541A4FF0140118BF541CA9
:103BAC00846202EB820008EBC000FDF775FE04EBAB
:103BBC00840640F21F450A20642208EBC60102234A
:103BCC000095FDF7ACFD3B2000EBC6040A20022259
:103BDC00214610230095FDF7A2FD6C202146022200
:103BEC0010230095FDF79BFD4B2000EBC6010A202E
:103BFC00642202230095FDF792FD02B0BDE8000798
:103C0C00F0BD826A072A1ED841698A421FD2066912
:103C1C0000F12C03995C56F8226036687668013EF8
:103C2C00761A18BF4E1C9E5402B0BDE80007BDE8C2
:103C3C00F040FFF755BB022102B0BDE80007BDE81C
:103C4C00F040FEF7E9B8104608210BF09FFA104639
:103C5C000BF09CFAF0B503AF2DE9000B82B041F6E6
:103C6C0068410E22C0F601010446FDF7CCFE41F678
:103C7C0080012046C0F60101FEF751F800204FF6F6
:103C8C00FF79606240F2C110002101221E23E66917
:103C9C00CDF80090FDF743FD41F2F8184FF0FF35D9
:103CAC00C0F60108002ECDF8008008BF40F21F4579
:103CBC0040F26B100721B7222B464FF0FF34FCF774
:103CCC0028FD40F273100721B8222B46CDF8008056
:103CDC00FCF71FFD4FF4D170002101221E23CDF8FB
:103CEC000090FDF71CFD4FF0FF35CDF80080012E44
:103CFC0008BF40F21F454FF4C57007218B222B469D
:103D0C00FCF707FD4FF4C97007218C222B46CDF828
:103D1C000080FCF7FEFC40F28310002101221E23E0
:103D2C00CDF80090FDF7FBFC4FF0FF35CDF800808F
:103D3C00022E08BF40F21F4540F2A9100721B32202
:103D4C002B46FCF7E6FC40F2B1100721B4222B46BF
:103D5C00CDF80080FCF7DDFC4FF4B270002101229D
:103D6C001E23CDF80090FDF7DAFCCDF80080032E71
:103D7C0008BF40F21F444FF4E47007219D222346F4
:103D8C00FCF7C7FC4FF4E87007219E222346CDF8C0
:103D9C000080FCF7BEFC02B0BDE8000BF0BD80B5A6
:103DAC006F4600F001F8D4D4B0B502AFADF5EA3DE2
:103DBC00E6B00CF074FB04460CF064FB40F200011E
:103DCC0004F00100C2F200010A78002A4BF0938142
:103DDC000DF1E40E012200280EF56A460A7008BFA8
:103DEC000CF052FB49F2FF4441F2002500200DF18A
:103DFC00E40EC0F6BA24611CCDE90010C0F27A05BD
:103E0C000EF56A402946012201230BF0BBFD3068F8
:103E1C0002280BF0A281C0070BF0AC81706845F64C
:103E2C000172C0F64C12A0F1B771A1F55851914234
:103E3C008BF0678101194EF22F32C0F2BE02090AD3
:103E4C00A1FB0213D90A01290CD0022907D00029A1
:103E5C000BF04A814FF400714FF0F00904E04FF081
:103E6C00800901E04FF000094AF24056B0FBF1F135
:103E7C00C0F2AE268B19013B9B09A3FB0235EB0A62
:103E8C00012B0BD0022B06D0002B0BF02D81042321
:103E9C004FF4A05A04E04FF4805A01E04FF0000AAE
:103EAC00B1FBF3F4731C9C428BF0328144F67F23FC
:103EBC00C0F25D53CD18ED09A5FB0225EA0A012AD3
:103ECC000BD0022A06D0002A0BF00E8104224FF4EC
:103EDC00204804E04FF4004801E04FF00008B1FB2B
:103EEC00F2F59A1C95428BF01A8101380DAB4EF607
:103EFC00A822134445F2C742C009C0F21E120B940B
:103F0C00A0FB020243F60004C4F20204D4F800043D
:103F1C000009920A60F31F1242F4E060C4F8000436
:103F2C00206840F4803020602068800309D4206829
:103F3C0080035CBF20685FEA803002D42068800375
:103F4C00F2D5206840F08070206047F6012009937C
:103F5C00C0F6032081422FD3206C40F080502064A7
:103F6C000CF09AFA47F20400C4F2000050F8041C5A
:103F7C0041F4803140F8041C0168C90309D401687C
:103F8C00C9035CBF01685FEAC13102D40168C9038F
:103F9C00F2D550F8041C41F4003140F8041C0168BF
:103FAC00890309D4016889035CBF01685FEA813128
:103FBC0002D401688903F2D50C952068800109D4DC
:103FCC00206880015CBF20685FEA801002D4206802
:103FDC008001F2D5A0684FF6F04220F40000A060FA
:103FEC00D4F88C0020F47000C4F88C00A1684AEA64
:103FFC00090040EA080091430843A06010200CF02F
:10400C0045FAA0680221012561F30100A060206B34
:10401C0040F039002063606C40F48050606440F2E2
:10402C000C60C4F2472005600CF036FA40F2002B0D
:10403C0040F2000845F25550C4F2472BCBF80C5017
:10404C000025C4F20208C5F2000040F61841CBF876
:10405C000C50C8F8000C45F2555041F21002C4F255
:10406C000201C0F24000C4F20202C1F8E8034FF0B2
:10407C00A060C2F8F00348F2FF0041F21843086058
:10408C0040F6FF00C4F20203906045F255504FF623
:10409C00FF7941F80C0C42F8040C40F2240A43F866
:1040AC000C0CC4F2000AC3F8F40341F8109C4FF056
:1040BC00FF3142F8089CC2F8F893C3F8F093206CD7
:1040CC0040F0010020644FF08040012405604AF864
:1040DC00205CCAF80450CAF808104AF8185C016849
:1040EC0041F001010160CBF800440CF0D5F9CBF89C
:1040FC0000400521CBF800500222C8F80890D8F8EF
:10410C00040020F02000C8F80400D8F8200061F367
:10411C001750C8F82000D8F8000062F38B20C8F8BC
:10412C000000D8F8040020F04000C8F80400D8F8CB
:10413C00200061F31B60C8F82000D8F8000062F37F
:10414C000D30C8F80000D8F8040020F08000C8F842
:10415C000400D8F8200061F31F70C8F82000D8F8CC
:10416C00000062F38F30C8F8000040F20C68C4F213
:10417C004728C8F8A4420CF08FF943F20809CBF891
:10418C00B042C4F20109CBF8B05229F8045C48F2F1
:10419C007F400C9AC0F21E0082424AF2A58748F674
:1041AC0080500024C0F25B0082424FF0000017D315
:1041BC0041F60030C0F2B700824201D208200FE075
:1041CC0043F20060C0F26E10824201D2102007E070
:1041DC0046F600412020C0F2DC218A4238BF18206C
:1041EC0040F4417029F8080C39F8080C40F61842D4
:1041FC0043F2BF71C4F2020208400721403029F893
:10420C00080C52F8140C012520F4807042F8140CA0
:10421C00D06861F30300D06000220221C4F20202D4
:10422C00D2F8000C61F31140C2F8000CC8F83C52F3
:10423C000CF032F940F20020C4F24720C0F848528A
:10424C00C0F848420B99480BE02816D8B1F5612FFD
:10425C00CAF092874FF4614000EB41004BF2C5313C
:10426C00C9F2A211A0FB0101702000EA1140C1F3B8
:10427C0042410A184AF20C010AE001F561404BF286
:10428C00C531C9F2A211A0FB01010A0C42F20C01CA
:10429C0044F60000C4F20000826000220261426118
:1042AC00C160026101680906FCD5492141600168C1
:1042BC000906FCD55421416001680906FCD553213F
:1042CC00416001680906FCD52D2141600168090691
:1042DC00FCD54221416001680906FCD56F21416083
:1042EC0001680906FCD56121416001680906FCD50D
:1042FC007221416001680906FCD5642141600168A6
:10430C000906FCD52021416001680906FCD569210C
:10431C00416001680906FCD56E21416001680906FF
:10432C00FCD56921416001680906FCD57421416006
:10433C0001680906FCD56921416001680906FCD5B4
:10434C006121416001680906FCD56C21416001685E
:10435C000906FCD56921416001680906FCD57A2162
:10436C00416001680906FCD56521416001680906B8
:10437C00FCD56421416001680906FCD50A21416025
:10438C000168090609D4016809065CBF01685FEA87
:10439C00016102D401680906F2D50A21416041F29B
:1043AC0018414FF48050C4F202010860DAF80000A2
:1043BC00DAF80010091AB1420ED2DAF80010091A14
:1043CC00B1423EBFDAF80010091AB14204D2DAF851
:1043DC000010091AB142EBD341F218414FF0805052
:1043EC00C4F202010860DAF80000DAF80010091AC9
:1043FC00B1420ED2DAF80010091AB1423EBFDAF817
:10440C000010091AB14204D2DAF80010091AB142AC
:10441C00EBD341F218414FF48050C4F20201086012
:10442C00DAF80000DAF80010091AB1420ED2DAF804
:10443C000010091AB1423EBFDAF80010091AB14255
:10444C0004D2DAF80010091AB142EBD341F2082673
:10445C004FF0000E4FF0005C4FF0804BC0F60106A1
:10446C004FF480454FF40058002002E0672880F09C
:10447C00608141F2184140F61842C4F20201C4F2C4
:10448C000202C1F800C0315CC2F800B0DAF80020BA
:10449C00DAF80040A41A592C0ED8DAF80040A41A05
:1044AC00592C9EBFDAF80040A41A592C04D8DAF81B
:1044BC000040A41A5A2CEBD3D9F8002092070CD444
:1044CC00D9F8002092075CBFD9F800205FEA82720D
:1044DC0003D4D9F800209207EED5C9F80410D9F806
:1044EC000010C9070CD1D9F80010C90704BFD9F8BE
:1044FC0000105FEAC17103D1D9F80010C907EED0E2
:10450C00D9F8001009060CD5D9F80010090644BFDB
:10451C00D9F800105FEA016103D5D9F8001009063B
:10452C00EED4D9F80410DAF80010DAF80020521A98
:10453C00592A0ED8DAF80020521A592A9EBFDAF8F6
:10454C000020521A592A04D8DAF80020521A5A2A92
:10455C00EBD340F618416628C4F202010D600AF054
:10456C00F485811902304A7852B97FE740F6184138
:10457C00013AC4F2020101300D6011063FF476AF2E
:10458C0066280AF2AE8541F2184140F61843C4F28F
:10459C000201C4F20203C1F80080315CC3F800B020
:1045AC00DAF80040DAF800301B1B592B0ED8DAF879
:1045BC0000301B1B592B9EBFDAF800301B1B592BEC
:1045CC0004D8DAF800301B1B5A2BEBD3D9F8003087
:1045DC009B070CD4D9F800309B075CBFD9F800308E
:1045EC005FEA837303D4D9F800309B07EED5C9F882
:1045FC0004E0D9F80030DB070CD1D9F80030DB0728
:10460C0004BFD9F800305FEAC37303D1D9F8003086
:10461C00DB07EED0D9F800301B060CD5D9F80030EA
:10462C001B0644BFD9F800305FEA036303D5D9F801
:10463C0000301B06EED4D9F80430DAF80040DAF872
:10464C0000301B1B592B0ED8DAF800301B1B592BD2
:10465C009EBFDAF800301B1B592B04D8DAF8003057
:10466C001B1B5A2BEBD3DAF80040DAF800301B1B7B
:10467C00592B0ED8DAF800301B1B592B9EBFDAF8D9
:10468C0000301B1B592B04D8DAF800301B1B5A2B9B
:10469C00EBD3D9F800309B070CD4D9F800309B072A
:1046AC005CBFD9F800305FEA837303D4D9F80030CB
:1046BC009B07EED5C9F80410D9F80010C9070CD126
:1046CC00D9F80010C90704BFD9F800105FEAC1710E
:1046DC0003D1D9F80010C907EED0D9F8001009069B
:1046EC000CD5D9F80010090644BFD9F800105FEAC0
:1046FC00016103D5D9F800100906EED4D9F80410DD
:10470C00DAF80010DAF800305B1A592B3FF62EAFAE
:10471C00DAF800305B1A592B9EBFDAF800305B1ABE
:10472C00592B3FF623AFDAF800305B1A5A2BE9D33A
:10473C001CE741F218414FF00050C4F2020108602E
:10474C0040F618414FF08040C4F202010860DAF8DC
:10475C000000DAF80010091A59290ED8DAF80010FE
:10476C00091A59299EBFDAF80010091A592904D8D8
:10477C00DAF80010091A5A29EBD3D9F8000080078F
:10478C000CD4D9F8000080075CBFD9F800005FEAB0
:10479C00807003D4D9F800008007EED5B620C9F894
:1047AC000400D9F80000C0070CD1D9F80000C007EC
:1047BC0004BFD9F800005FEAC07003D1D9F800003B
:1047CC00C007EED0D9F8000000060CD5D9F80000CF
:1047DC00000644BFD9F800005FEA006003D5D9F8A1
:1047EC0000000006EED4D9F80400DAF80000DAF87C
:1047FC000010091A59290ED8DAF80010091A59298B
:10480C009EBFDAF80010091A592904D8DAF80010FA
:10481C00091A5A29EBD340F6184141F218424FF4C9
:10482C008040C4F2020108604FF40050C4F202024E
:10483C0010604FF080400860DAF80000DAF80010E1
:10484C00091A59290ED8DAF80010091A59299EBFED
:10485C00DAF80010091A592904D8DAF80010091AE4
:10486C005A29EBD3D9F8000080070CD4D9F80000F2
:10487C0080075CBFD9F800005FEA807003D4D9F8D8
:10488C0000008007EED50020C9F80400D9F800001C
:10489C00C0070CD1D9F80000C00704BFD9F800003C
:1048AC005FEAC07003D1D9F80000C007EED0D9F888
:1048BC00000000060CD5D9F80000000644BFD9F85A
:1048CC0000005FEA006003D5D9F800000006EED4C2
:1048DC00D9F80400DAF80000DAF80010091A59299E
:1048EC000ED8DAF80010091A59299EBFDAF8001010
:1048FC00091A592904D8DAF80010091A5A29EBD3E5
:10490C00DAF80000DAF80010091A59290ED8DAF88A
:10491C000010091A59299EBFDAF80010091A5929F2
:10492C0004D8DAF80010091A5A29EBD3D9F8000088
:10493C0080070CD4D9F8000080075CBFD9F80000C0
:10494C005FEA807003D4D9F800008007EED5002010
:10495C00C9F80400D9F80000C0070CD1D9F8000040
:10496C00C00704BFD9F800005FEAC07003D1D9F8C2
:10497C000000C007EED0D9F8000000060CD5D9F81D
:10498C000000000644BFD9F800005FEA006003D5C0
:10499C00D9F800000006EED4D9F80400DAF80000CB
:1049AC00DAF80010091A59290ED8DAF80010091A89
:1049BC0059299EBFDAF80010091A592904D8DAF8D7
:1049CC000010091A5A29EBD340F6184141F218424B
:1049DC004FF48040C4F2020108604FF40050C4F25E
:1049EC00020210604FF080400860DAF80000DAF83C
:1049FC000010091A59290ED8DAF80010091A592989
:104A0C009EBFDAF80010091A592904D8DAF80010F8
:104A1C00091A5A29EBD3D9F8000080070CD4D9F81D
:104A2C00000080075CBFD9F800005FEA807003D4F7
:104A3C00D9F800008007EED50020C9F80400D9F899
:104A4C000000C0070CD1D9F80000C00704BFD9F88A
:104A5C0000005FEAC07003D1D9F80000C007EED0A7
:104A6C00D9F8000000060CD5D9F80000000644BFA8
:104A7C00D9F800005FEA006003D5D9F80000000601
:104A8C00EED4D9F80400DAF80000DAF80010091AAC
:104A9C0059290ED8DAF80010091A59299EBFDAF8EC
:104AAC000010091A592904D8DAF80010091A5A29E1
:104ABC00EBD3DAF80000DAF80010091A59290ED8ED
:104ACC00DAF80010091A59299EBFDAF80010091AF1
:104ADC00592904D8DAF80010091A5A29EBD3D9F855
:104AEC00000080070CD4D9F8000080075CBFD9F80F
:104AFC0000005FEA807003D4D9F800008007EED57F
:104B0C006220C9F80400D9F80000C0070CD1D9F80C
:104B1C000000C00704BFD9F800005FEAC07003D1E1
:104B2C00D9F80000C007EED0D9F8000000060CD56B
:104B3C00D9F80000000644BFD9F800005FEA006015
:104B4C0003D5D9F800000006EED4D9F80400DAF841
:104B5C000000DAF80010091A59290ED8DAF80010FA
:104B6C00091A59299EBFDAF80010091A592904D8D4
:104B7C00DAF80010091A5A29EBD340F6184141F221
:104B8C0018424FF48040C4F2020108604FF000500C
:104B9C00C4F2020210604FF080400860DAF80000A6
:104BAC00DAF80010091A59290ED8DAF80010091A87
:104BBC0059299EBFDAF80010091A592904D8DAF8D5
:104BCC000010091A5A29EBD3D9F8000080070CD42D
:104BDC00D9F8000080075CBFD9F800005FEA80704C
:104BEC0003D4D9F800008007EED53620C9F80400AC
:104BFC00D9F80000C0070CD1D9F80000C00704BFD9
:104C0C00D9F800005FEAC07003D1D9F80000C007E2
:104C1C00EED0D9F8000000060CD5D9F8000000063B
:104C2C0044BFD9F800005FEA006003D5D9F8000052
:104C3C000006EED4D9F80400DAF80000DAF8001017
:104C4C00091A59290ED8DAF80010091A59299EBFE9
:104C5C00DAF80010091A592904D8DAF80010091AE0
:104C6C005A29EBD340F6184141F218424FF48040D8
:104C7C00C4F2020108604FF40050C4F2020210604A
:104C8C004FF080400860DAF80000DAF80010091ADA
:104C9C0059290ED8DAF80010091A59299EBFDAF8EA
:104CAC000010091A592904D8DAF80010091A5A29DF
:104CBC00EBD3D9F8000080070CD4D9F8000080079A
:104CCC005CBFD9F800005FEA807003D4D9F800000B
:104CDC008007EED50020C9F80400D9F80000C00701
:104CEC000CD1D9F80000C00704BFD9F800005FEA66
:104CFC00C07003D1D9F80000C007EED0D9F800007D
:104D0C0000060CD5D9F80000000644BFD9F8000005
:104D1C005FEA006003D5D9F800000006EED4D9F89C
:104D2C000400DAF80000DAF80010091A59290ED834
:104D3C00DAF80010091A59299EBFDAF80010091A7E
:104D4C00592904D8DAF80010091A5A29EBD3DAF8E1
:104D5C000000DAF80010091A59290ED8DAF80010F8
:104D6C00091A59299EBFDAF80010091A592904D8D2
:104D7C00DAF80010091A5A29EBD3D9F80000800789
:104D8C000CD4D9F8000080075CBFD9F800005FEAAA
:104D9C00807003D4D9F800008007EED52820C9F81C
:104DAC000400D9F80000C0070CD1D9F80000C007E6
:104DBC0004BFD9F800005FEAC07003D1D9F8000035
:104DCC00C007EED0D9F8000000060CD5D9F80000C9
:104DDC00000644BFD9F800005FEA006003D5D9F89B
:104DEC0000000006EED4D9F80400DAF80000DAF876
:104DFC000010091A59290ED8DAF80010091A592985
:104E0C009EBFDAF80010091A592904D8DAF80010F4
:104E1C00091A5A29EBD340F618414FF48040C4F2DA
:104E2C00020108604AF68001DAF80000C0F21211A3
:104E3C00DAF80020121A8A420ED2DAF80020121A7E
:104E4C008A423EBFDAF80020121A8A4204D2DAF8FB
:104E5C000020121A8A42EBD341F218414FF0005055
:104E6C00C4F20201086040F618414FF08040C4F2D1
:104E7C0002010860DAF80000DAF80010091A592962
:104E8C000ED8DAF80010091A59299EBFDAF800106A
:104E9C00091A592904D8DAF80010091A5A29EBD33F
:104EAC00D9F8000080070CD4D9F8000080075CBF4B
:104EBC00D9F800005FEA807003D4D9F800008007AD
:104ECC00EED51120C9F80400D9F80000C0070CD1A8
:104EDC00D9F80000C00704BFD9F800005FEAC07021
:104EEC0003D1D9F80000C007EED0D9F800000006B5
:104EFC000CD5D9F80000000644BFD9F800005FEAD1
:104F0C00006003D5D9F800000006EED4D9F80400EF
:104F1C00DAF80000DAF80010091A59290ED8DAF874
:104F2C000010091A59299EBFDAF80010091A5929DC
:104F3C0004D8DAF80010091A5A29EBD340F61841B4
:104F4C004FF48040C4F2020108604CF68031DAF86C
:104F5C000000C0F2A401DAF80020121A8A420ED224
:104F6C00DAF80020121A8A423EBFDAF80020121A30
:104F7C008A4204D2DAF80020121A8A42EBD341F2A8
:104F8C0018414FF00050C4F20201086040F618417D
:104F9C004FF08040C4F202010860DAF80000DAF841
:104FAC000010091A59290ED8DAF80010091A5929D3
:104FBC009EBFDAF80010091A592904D8DAF8001043
:104FCC00091A5A29EBD3D9F8000080070CD4D9F868
:104FDC00000080075CBFD9F800005FEA807003D442
:104FEC00D9F800008007EED52920C9F80400D9F8BB
:104FFC000000C0070CD1D9F80000C00704BFD9F8D5
:10500C0000005FEAC07003D1D9F80000C007EED0F1
:10501C00D9F8000000060CD5D9F80000000644BFF2
:10502C00D9F800005FEA006003D5D9F8000000064B
:10503C00EED4D9F80400DAF80000DAF80010091AF6
:10504C0059290ED8DAF80010091A59299EBFDAF836
:10505C000010091A592904D8DAF80010091A5A292B
:10506C00EBD340F618484FF48040C4F202080021FC
:10507C00C8F800004FF0000800204FF4F0724FF415
:10508C00A073CDF80080FCF74AFB4FF6FF701E2191
:10509C00009000204FF4F07201234FF6FF744FF094
:1050AC00010BFCF73CFB002040F221114FF4F07295
:1050BC0001230094FCF733FB0DF1E40E4EF6AC200B
:1050CC000EF56A450DF1E40E41F6800641F6F0232B
:1050DC0005F800802C460EF56A454AF65520082145
:1050EC00C0F60106C5E9060804F14800C5E90061EF
:1050FC004EF664210622C0F60103C5E91088C5E905
:10510C000888C5E90A88C5E90C88C5E90E88C5E98F
:10511C0002B8C5E904320BF0FAFA00204FF4917191
:10512C004FF4F0721E23CDF80080FCF7F8FA4FF61E
:10513C00FF7440F2C1104FF4917101221E230094B0
:10514C00FCF7EDFA4FF4D1704FF4917101221E234C
:10515C000094FCF7E4FA40F283104FF491710122B1
:10516C001E230094FCF7DBFA4FF4B2704FF49171EC
:10517C0001221E230094FCF7D2FA40F245104FF4A2
:10518C00917101221E230094FCF7C9FA4FF493701D
:10519C004FF4917101221E230094FCF7C0FA40F2E7
:1051AC0007104FF4917101221E230094FCF7B7FAFB
:1051BC00E8204FF4917101221E230094FCF7AFFA02
:1051CC0041F2F816EF20C0F6010640F2291199229F
:1051DC004FF6FF730096FBF79CFAF72040F229116B
:1051EC009A224FF6FF730096FBF793FA4FF48770F1
:1051FC0040F22911A7224FF6FF730096FBF789FAAC
:10520C004FF48B7040F22911A8224FF6FF730096D1
:10521C00FBF77FFA40F22D1040F2291187224FF64E
:10522C00FF730096FBF775FA40F2351040F2291126
:10523C0088224FF6FF730096FBF76BFA4FF4A670BB
:10524C0040F229119B224FF6FF730096FBF761FA8F
:10525C004FF4AA7040F229119C224FF6FF7300966E
:10526C00FBF757FA40F26B1040F2291185224FF6EA
:10527C00FF730096FBF74DFA40F2731040F22911C0
:10528C0086224FF6FF730096FBF743FA4FF4C57076
:10529C0040F22911B1224FF6FF730096FBF739FA51
:1052AC004FF4C97040F22911B2224FF6FF730096E9
:1052BC00FBF72FFA40F2A91040F22911AF224FF65A
:1052CC00FF730096FBF725FA40F2B11040F229115A
:1052DC00B0224FF6FF730096FBF71BFA4FF4E47005
:1052EC0040F2291195224FF6FF730096FBF711FA45
:1052FC004FF4E87040F2291196224FF6FF73009696
:10530C00FBF707FA0DF1E40E0EF56A442046FEF7A2
:10531C00A1FC0DAE21464EF6B02230460BF0C2F881
:10532C0000214FF6FF72C4F2020145F68F7ED1F8D0
:10533C00000C2346C0F2010E9043C1F8000C40F65D
:10534C001841C4F20201D1F8E8036FF30F00C1F861
:10535C00E80349F68840DDF824C03044059006F196
:10536C0048000490C5E900880020C5E90288C5E919
:10537C000488C5E906884FF0070800E01046DAF803
:10538C000020111A71450AD8DAF80020111A71455B
:10539C009EBFDAF80020111A714549F2928641F24B
:1053AC001840C4F2020050F8080C0A92C0B20B90DC
:1053BC00002006E090B1322034E00C98013008282F
:1053CC00DCD00B9CC1B20C9053F8200024FA01F1F4
:1053DC00C907EFD00028F0D0013823E00C980E99C3
:1053EC00C0F10700884289F0B2860D99095C9CF8DF
:1053FC000400DFE810F0270244030B000001080052
:10540C00080008000D010729D5D0FDE00139322034
:10541C00052907D8DFE811F00B00990506000600F6
:10542C00740636030C990A9A43F82100C5E71698BE
:10543C00002807F06782461E0428169689F07A86A3
:10544C0000EBC00529206422012300EB85010A2012
:10545C006424FBF75AFAA8000022089002E0013CF1
:10546C0002F0A182DAF80000DAF80010091A5929C2
:10547C000ED8DAF80010091A59299EBFDAF8001074
:10548C00091A592904D8DAF80010091A5A29EBD349
:10549C00D9F8000080070CD4D9F8000080075CBF55
:1054AC00D9F800005FEA807003D4D9F800008007B7
:1054BC00EED5C9F80420D9F80000C0070CD1D9F8F2
:1054CC000000C00704BFD9F800005FEAC07003D128
:1054DC00D9F80000C007EED0D9F8000000060CD5B2
:1054EC00D9F80000000644BFD9F800005FEA00605C
:1054FC0003D5D9F800000006EED4D9F80400DAF888
:10550C000000DAF80010091A59290ED8DAF8001040
:10551C00091A59299EBFDAF80010091A592904D81A
:10552C00DAF80010091A5A29EBD3DAF80000DAF885
:10553C000010091A59290ED8DAF80010091A59293D
:10554C009EBFDAF80010091A592904D8DAF80010AD
:10555C00091A5A29EBD3D9F8000080070CD4D9F8D2
:10556C00000080075CBFD9F800005FEA807003D4AC
:10557C00D9F800008007EED5C9F80420D9F800004E
:10558C00C0070CD1D9F80000C00704BFD9F800003F
:10559C005FEAC07003D1D9F80000C007EED0D9F88B
:1055AC00000000060CD5D9F80000000644BFD9F85D
:1055BC0000005FEA006003D5D9F800000006EED4C5
:1055CC00D9F80400DAF80000DAF80010091A5929A1
:1055DC003FF645AFDAF80010091A59299EBFDAF8E0
:1055EC000010091A59293FF63AAFDAF80010091AD7
:1055FC005A29E9D333E7072906D19DF865000B2812
:10560C00FFF4D9AE09F092BD0DA8FEF75BFA3DE2AE
:10561C00481E05283FF6CFAEDFE810F00600AC09B7
:10562C00AE0AA508B90B3402159D072D7FF6C3AE43
:10563C0005F007001023139EC0EBC004182000EBEC
:10564C00C4026FF01C0000EA8500079200F13001E3
:10565C00104608220391FBF758F905F01F0040F69D
:10566C0048010896C0F6010126FA00F04FEAC40C76
:10567C00C0074FF000024FF4236008BF4FF41760CF
:10568C0008440290A0F5007103E00132102A09F0E1
:10569C008F81002302E00133082BF6D002EBD300FC
:1056AC0028EA03040E5C0BFA04F4DAF80000344028
:1056BC00DAF80060361A592E0ED8DAF80060361A6D
:1056CC00592E9EBFDAF80060361A592E04D8DAF833
:1056DC000060361A5A2EEBD3D9F8000080070CD490
:1056EC00D9F8000080075CBFD9F800005FEA807031
:1056FC0003D4D9F800008007EED5002C18BFFF2486
:10570C00C9F80440D9F80000C0070CD1D9F8000042
:10571C00C00704BFD9F800005FEAC07003D1D9F804
:10572C000000C007EED0D9F8000000060CD5D9F85F
:10573C000000000644BFD9F800005FEA006003D502
:10574C00D9F800000006EED4D9F80400DAF800000D
:10575C00DAF80060361A592E0ED8DAF80060361ACC
:10576C00592E9EBFDAF80060361A592E04D8DAF892
:10577C000060361A5A2EEBD3DAF80000DAF8006023
:10578C00361A592E0ED8DAF80060361A592E9EBFEA
:10579C00DAF80060361A592E04D8DAF80060361A96
:1057AC005A2EEBD3D9F8000080070CD4D9F800009E
:1057BC0080075CBFD9F800005FEA807003D4D9F889
:1057CC0000008007EED5C9F80440D9F80000C007E6
:1057DC000CD1D9F80000C00704BFD9F800005FEA6B
:1057EC00C07003D1D9F80000C007EED0D9F8000082
:1057FC0000060CD5D9F80000000644BFD9F800000B
:10580C005FEA006003D5D9F800000006EED4D9F8A1
:10581C000400DAF80000DAF80060361A592E3FF668
:10582C003AAFDAF80060361A592E9EBFDAF80060EB
:10583C00361A592E3FF62FAFDAF80060361A5A2E68
:10584C00E9D328E7052900F01C82042900F02881FF
:10585C0003297FF4B0AD1499002906F07381042953
:10586C00A1F101000790149089F06B84C1F1040040
:10587C000C4607210822A0EB4010089000F2E7101C
:10588C001023FBF742F841F648400694C0F601009D
:10589C0050F824104FF60060CFF6FF7000EB0110AB
:1058AC00B0F51B6F09F219844FEA011C40F6480150
:1058BC00C0F601010A18CCF53B61002303E001336B
:1058CC00102B00F02984002402E00134082CF6D0BF
:1058DC0003EBD400884289F03A84105C28EA040671
:1058EC00DAF800500BFA06F63040DAF80060761B56
:1058FC00592E0ED8DAF80060761B592E9EBFDAF8B6
:10590C000060761B592E04D8DAF80060761B5A2EEC
:10591C00EBD3D9F80060B6070CD4D9F80060B60701
:10592C005CBFD9F800605FEA867603D4D9F80060D2
:10593C00B607EED5002818BFFF20C9F80400D9F827
:10594C000060F6070CD1D9F80060F60704BFD9F84F
:10595C0000605FEAC67603D1D9F80060F607EED096
:10596C00D9F8006036060CD5D9F80060360644BF6D
:10597C00D9F800605FEA066603D5D9F800603606F0
:10598C00EED4D9F80460DAF80050DAF80060761B2F
:10599C00592E0ED8DAF80060761B592E9EBFDAF815
:1059AC000060761B592E04D8DAF80060761B5A2E4C
:1059BC00EBD3DAF80050DAF80060761B592E0ED8CB
:1059CC00DAF80060761B592E9EBFDAF80060761B61
:1059DC00592E04D8DAF80060761B5A2EEBD3D9F87E
:1059EC000060B6070CD4D9F80060B6075CBFD9F8D4
:1059FC0000605FEA867603D4D9F80060B607EED56E
:105A0C00C9F80400D9F80000C0070CD1D9F800007F
:105A1C00C00704BFD9F800005FEAC07003D1D9F801
:105A2C000000C007EED0D9F8000000060CD5D9F85C
:105A3C000000000644BFD9F800005FEA006003D5FF
:105A4C00D9F800000006EED4D9F80400DAF800000A
:105A5C00DAF80060361A592E3FF637AFDAF80060E4
:105A6C00361A592E9EBFDAF80060361A592E3FF6B8
:105A7C002CAFDAF80060361A5A2EE9D325E705293F
:105A8C007FF499AC0DA80021FCF7C6F945F68F7E82
:105A9C0039A800F56A43C0F2010EDDF824C08AE48F
:105AAC00149C032C41F0818300254FF4E4700721F2
:105ABC00082210231495FAF728FF40F64806C0F682
:105ACC00010603E00135102D01F07E84002002E078
